{
  "contractName": "convertRewardNFT",
  "abi": [
    {
      "anonymous": false,
      "inputs": [
        {
          "indexed": true,
          "internalType": "address",
          "name": "owner",
          "type": "address"
        },
        {
          "indexed": true,
          "internalType": "address",
          "name": "approved",
          "type": "address"
        },
        {
          "indexed": true,
          "internalType": "uint256",
          "name": "tokenId",
          "type": "uint256"
        }
      ],
      "name": "Approval",
      "type": "event"
    },
    {
      "anonymous": false,
      "inputs": [
        {
          "indexed": true,
          "internalType": "address",
          "name": "owner",
          "type": "address"
        },
        {
          "indexed": true,
          "internalType": "address",
          "name": "operator",
          "type": "address"
        },
        {
          "indexed": false,
          "internalType": "bool",
          "name": "approved",
          "type": "bool"
        }
      ],
      "name": "ApprovalForAll",
      "type": "event"
    },
    {
      "anonymous": false,
      "inputs": [
        {
          "indexed": false,
          "internalType": "address",
          "name": "addressPlayer",
          "type": "address"
        },
        {
          "indexed": false,
          "internalType": "string",
          "name": "loginPlayer",
          "type": "string"
        }
      ],
      "name": "NewPlayerRegistered",
      "type": "event"
    },
    {
      "anonymous": false,
      "inputs": [
        {
          "indexed": true,
          "internalType": "address",
          "name": "previousOwner",
          "type": "address"
        },
        {
          "indexed": true,
          "internalType": "address",
          "name": "newOwner",
          "type": "address"
        }
      ],
      "name": "OwnershipTransferred",
      "type": "event"
    },
    {
      "anonymous": false,
      "inputs": [
        {
          "indexed": true,
          "internalType": "address",
          "name": "from",
          "type": "address"
        },
        {
          "indexed": true,
          "internalType": "address",
          "name": "to",
          "type": "address"
        },
        {
          "indexed": true,
          "internalType": "uint256",
          "name": "tokenId",
          "type": "uint256"
        }
      ],
      "name": "Transfer",
      "type": "event"
    },
    {
      "anonymous": false,
      "inputs": [
        {
          "indexed": false,
          "internalType": "string",
          "name": "login",
          "type": "string"
        }
      ],
      "name": "playerUpdated",
      "type": "event"
    },
    {
      "anonymous": false,
      "inputs": [
        {
          "indexed": false,
          "internalType": "string",
          "name": "tokenName",
          "type": "string"
        },
        {
          "indexed": true,
          "internalType": "address",
          "name": "_to",
          "type": "address"
        }
      ],
      "name": "rewardWithdrawn",
      "type": "event"
    },
    {
      "inputs": [
        {
          "internalType": "address",
          "name": "to",
          "type": "address"
        },
        {
          "internalType": "uint256",
          "name": "tokenId",
          "type": "uint256"
        }
      ],
      "name": "approve",
      "outputs": [],
      "stateMutability": "nonpayable",
      "type": "function"
    },
    {
      "inputs": [
        {
          "internalType": "address",
          "name": "owner",
          "type": "address"
        }
      ],
      "name": "balanceOf",
      "outputs": [
        {
          "internalType": "uint256",
          "name": "",
          "type": "uint256"
        }
      ],
      "stateMutability": "view",
      "type": "function"
    },
    {
      "inputs": [
        {
          "internalType": "uint256",
          "name": "_type",
          "type": "uint256"
        },
        {
          "internalType": "string",
          "name": "_name",
          "type": "string"
        },
        {
          "internalType": "uint8",
          "name": "_continent",
          "type": "uint8"
        }
      ],
      "name": "createItem",
      "outputs": [],
      "stateMutability": "nonpayable",
      "type": "function"
    },
    {
      "inputs": [
        {
          "internalType": "uint256",
          "name": "",
          "type": "uint256"
        }
      ],
      "name": "exemplaireNumbers",
      "outputs": [
        {
          "internalType": "uint256",
          "name": "",
          "type": "uint256"
        }
      ],
      "stateMutability": "view",
      "type": "function"
    },
    {
      "inputs": [
        {
          "internalType": "uint256",
          "name": "tokenId",
          "type": "uint256"
        }
      ],
      "name": "getApproved",
      "outputs": [
        {
          "internalType": "address",
          "name": "",
          "type": "address"
        }
      ],
      "stateMutability": "view",
      "type": "function"
    },
    {
      "inputs": [
        {
          "internalType": "address",
          "name": "owner",
          "type": "address"
        },
        {
          "internalType": "address",
          "name": "operator",
          "type": "address"
        }
      ],
      "name": "isApprovedForAll",
      "outputs": [
        {
          "internalType": "bool",
          "name": "",
          "type": "bool"
        }
      ],
      "stateMutability": "view",
      "type": "function"
    },
    {
      "inputs": [
        {
          "internalType": "uint256",
          "name": "",
          "type": "uint256"
        }
      ],
      "name": "items",
      "outputs": [
        {
          "internalType": "string",
          "name": "name",
          "type": "string"
        },
        {
          "internalType": "uint8",
          "name": "levelItem",
          "type": "uint8"
        },
        {
          "internalType": "uint8",
          "name": "continent",
          "type": "uint8"
        },
        {
          "internalType": "uint256",
          "name": "tokenId",
          "type": "uint256"
        },
        {
          "internalType": "uint256",
          "name": "composition",
          "type": "uint256"
        },
        {
          "internalType": "bool",
          "name": "locked",
          "type": "bool"
        },
        {
          "internalType": "bool",
          "name": "onSold",
          "type": "bool"
        }
      ],
      "stateMutability": "view",
      "type": "function"
    },
    {
      "inputs": [
        {
          "internalType": "address",
          "name": "",
          "type": "address"
        }
      ],
      "name": "multiverseData",
      "outputs": [
        {
          "internalType": "string",
          "name": "login",
          "type": "string"
        },
        {
          "internalType": "uint8",
          "name": "rewardLv1",
          "type": "uint8"
        },
        {
          "internalType": "uint8",
          "name": "rewardLv2",
          "type": "uint8"
        },
        {
          "internalType": "bool",
          "name": "isRegistered",
          "type": "bool"
        }
      ],
      "stateMutability": "view",
      "type": "function"
    },
    {
      "inputs": [
        {
          "internalType": "string",
          "name": "",
          "type": "string"
        }
      ],
      "name": "multiverseIds",
      "outputs": [
        {
          "internalType": "address",
          "name": "",
          "type": "address"
        }
      ],
      "stateMutability": "view",
      "type": "function"
    },
    {
      "inputs": [],
      "name": "name",
      "outputs": [
        {
          "internalType": "string",
          "name": "",
          "type": "string"
        }
      ],
      "stateMutability": "view",
      "type": "function"
    },
    {
      "inputs": [],
      "name": "owner",
      "outputs": [
        {
          "internalType": "address",
          "name": "",
          "type": "address"
        }
      ],
      "stateMutability": "view",
      "type": "function"
    },
    {
      "inputs": [
        {
          "internalType": "uint256",
          "name": "tokenId",
          "type": "uint256"
        }
      ],
      "name": "ownerOf",
      "outputs": [
        {
          "internalType": "address",
          "name": "",
          "type": "address"
        }
      ],
      "stateMutability": "view",
      "type": "function"
    },
    {
      "inputs": [],
      "name": "renounceOwnership",
      "outputs": [],
      "stateMutability": "nonpayable",
      "type": "function"
    },
    {
      "inputs": [
        {
          "internalType": "address",
          "name": "from",
          "type": "address"
        },
        {
          "internalType": "address",
          "name": "to",
          "type": "address"
        },
        {
          "internalType": "uint256",
          "name": "tokenId",
          "type": "uint256"
        }
      ],
      "name": "safeTransferFrom",
      "outputs": [],
      "stateMutability": "nonpayable",
      "type": "function"
    },
    {
      "inputs": [
        {
          "internalType": "address",
          "name": "from",
          "type": "address"
        },
        {
          "internalType": "address",
          "name": "to",
          "type": "address"
        },
        {
          "internalType": "uint256",
          "name": "tokenId",
          "type": "uint256"
        },
        {
          "internalType": "bytes",
          "name": "_data",
          "type": "bytes"
        }
      ],
      "name": "safeTransferFrom",
      "outputs": [],
      "stateMutability": "nonpayable",
      "type": "function"
    },
    {
      "inputs": [
        {
          "internalType": "address",
          "name": "operator",
          "type": "address"
        },
        {
          "internalType": "bool",
          "name": "approved",
          "type": "bool"
        }
      ],
      "name": "setApprovalForAll",
      "outputs": [],
      "stateMutability": "nonpayable",
      "type": "function"
    },
    {
      "inputs": [
        {
          "internalType": "address",
          "name": "_addressPlayer",
          "type": "address"
        },
        {
          "internalType": "string",
          "name": "_login",
          "type": "string"
        }
      ],
      "name": "setMultiversePlayer",
      "outputs": [],
      "stateMutability": "nonpayable",
      "type": "function"
    },
    {
      "inputs": [
        {
          "internalType": "bytes4",
          "name": "interfaceId",
          "type": "bytes4"
        }
      ],
      "name": "supportsInterface",
      "outputs": [
        {
          "internalType": "bool",
          "name": "",
          "type": "bool"
        }
      ],
      "stateMutability": "view",
      "type": "function"
    },
    {
      "inputs": [],
      "name": "symbol",
      "outputs": [
        {
          "internalType": "string",
          "name": "",
          "type": "string"
        }
      ],
      "stateMutability": "view",
      "type": "function"
    },
    {
      "inputs": [
        {
          "internalType": "uint256",
          "name": "index",
          "type": "uint256"
        }
      ],
      "name": "tokenByIndex",
      "outputs": [
        {
          "internalType": "uint256",
          "name": "",
          "type": "uint256"
        }
      ],
      "stateMutability": "view",
      "type": "function"
    },
    {
      "inputs": [
        {
          "internalType": "address",
          "name": "owner",
          "type": "address"
        },
        {
          "internalType": "uint256",
          "name": "index",
          "type": "uint256"
        }
      ],
      "name": "tokenOfOwnerByIndex",
      "outputs": [
        {
          "internalType": "uint256",
          "name": "",
          "type": "uint256"
        }
      ],
      "stateMutability": "view",
      "type": "function"
    },
    {
      "inputs": [
        {
          "internalType": "uint256",
          "name": "tokenId",
          "type": "uint256"
        }
      ],
      "name": "tokenURI",
      "outputs": [
        {
          "internalType": "string",
          "name": "",
          "type": "string"
        }
      ],
      "stateMutability": "view",
      "type": "function"
    },
    {
      "inputs": [],
      "name": "totalSupply",
      "outputs": [
        {
          "internalType": "uint256",
          "name": "",
          "type": "uint256"
        }
      ],
      "stateMutability": "view",
      "type": "function"
    },
    {
      "inputs": [
        {
          "internalType": "address",
          "name": "from",
          "type": "address"
        },
        {
          "internalType": "address",
          "name": "to",
          "type": "address"
        },
        {
          "internalType": "uint256",
          "name": "tokenId",
          "type": "uint256"
        }
      ],
      "name": "transferFrom",
      "outputs": [],
      "stateMutability": "nonpayable",
      "type": "function"
    },
    {
      "inputs": [
        {
          "internalType": "address",
          "name": "newOwner",
          "type": "address"
        }
      ],
      "name": "transferOwnership",
      "outputs": [],
      "stateMutability": "nonpayable",
      "type": "function"
    },
    {
      "inputs": [
        {
          "internalType": "string",
          "name": "_login",
          "type": "string"
        },
        {
          "internalType": "uint8",
          "name": "_rewardLv1",
          "type": "uint8"
        },
        {
          "internalType": "uint8",
          "name": "_rewardLv2",
          "type": "uint8"
        }
      ],
      "name": "updateMultiversePlayer",
      "outputs": [],
      "stateMutability": "nonpayable",
      "type": "function"
    },
    {
      "inputs": [],
      "name": "getReward",
      "outputs": [],
      "stateMutability": "nonpayable",
      "type": "function"
    }
  ],
  "bytecode": "0x60806040526001600e556002600f55600360105560016013553480156200002557600080fd5b506040805180820182526006815265141bddd3919560d21b60208083019182528351808501909452600484526312d3919560e21b908401528151919291620000709160009162000111565b5080516200008690600190602084019062000111565b505050620000a36200009d620000bb60201b60201c565b620000bf565b600b80546001600160a01b03191633179055620001f4565b3390565b600a80546001600160a01b038381166001600160a01b0319831681179093556040519116919082907f8be0079c531659141344cd1fd0a4f28419497f9722a3daafe3b4186f6b6457e090600090a35050565b8280546200011f90620001b7565b90600052602060002090601f0160209004810192826200014357600085556200018e565b82601f106200015e57805160ff19168380011785556200018e565b828001600101855582156200018e579182015b828111156200018e57825182559160200191906001019062000171565b506200019c929150620001a0565b5090565b5b808211156200019c5760008155600101620001a1565b600281046001821680620001cc57607f821691505b60208210811415620001ee57634e487b7160e01b600052602260045260246000fd5b50919050565b612ff880620002046000396000f3fe608060405234801561001057600080fd5b50600436106101795760003560e01c806370a08231116100d9578063a22cb46511610087578063a22cb46514610307578063b88d4fde1461031a578063bfb231d21461032d578063c87b56dd14610353578063e985e9c514610366578063e9dbd45a14610379578063f2fde38b1461038c57610179565b806370a0823114610293578063715018a6146102a65780637538822e146102ae57806375adb7fd146102c15780638da5cb5b146102e457806395d89b41146102ec5780639b008e47146102f457610179565b806323b872dd1161013657806323b872dd146102195780632f745c591461022c5780633d18b9121461023f57806342842e0e146102475780634f6ccce71461025a5780636352211e1461026d578063661c2b601461028057610179565b806301ffc9a71461017e57806306fdde03146101a7578063081812fc146101bc578063095ea7b3146101dc57806318160ddd146101f15780631f57108914610206575b600080fd5b61019161018c366004612341565b61039f565b60405161019e919061257d565b60405180910390f35b6101af6103cc565b60405161019e9190612588565b6101cf6101ca366004612406565b61045e565b60405161019e9190612508565b6101ef6101ea366004612318565b6104aa565b005b6101f9610542565b60405161019e9190612e46565b6101ef61021436600461241e565b610548565b6101ef6102273660046121e0565b6107ad565b6101f961023a366004612318565b6107e5565b6101ef610837565b6101ef6102553660046121e0565b610b18565b6101f9610268366004612406565b610b33565b6101cf61027b366004612406565b610b8e565b6101f961028e366004612406565b610bc3565b6101f96102a1366004612194565b610bd5565b6101ef610c19565b6101ef6102bc3660046123ab565b610c62565b6102d46102cf366004612194565b610de2565b60405161019e949392919061259b565b6101cf610e9c565b6101af610eab565b6101ef6103023660046122cd565b610eba565b6101ef610315366004612293565b611020565b6101ef61032836600461221b565b6110ee565b61034061033b366004612406565b61112d565b60405161019e97969594939291906125d0565b6101af610361366004612406565b611212565b6101916103743660046121ae565b611295565b6101cf610387366004612379565b6112c3565b6101ef61039a366004612194565b6112e9565b60006001600160e01b0319821663780e9d6360e01b14806103c457506103c48261135a565b90505b919050565b6060600080546103db90612f00565b80601f016020809104026020016040519081016040528092919081815260200182805461040790612f00565b80156104545780601f1061042957610100808354040283529160200191610454565b820191906000526020600020905b81548152906001019060200180831161043757829003601f168201915b5050505050905090565b60006104698261139a565b61048e5760405162461bcd60e51b815260040161048590612bc4565b60405180910390fd5b506000908152600460205260409020546001600160a01b031690565b60006104b582610b8e565b9050806001600160a01b0316836001600160a01b031614156104e95760405162461bcd60e51b815260040161048590612cdd565b806001600160a01b03166104fb6113b7565b6001600160a01b031614806105175750610517816103746113b7565b6105335760405162461bcd60e51b8152600401610485906129c7565b61053d83836113bb565b505050565b60085490565b6105506113b7565b6001600160a01b0316610561610e9c565b6001600160a01b0316146105875760405162461bcd60e51b815260040161048590612c10565b826105a45760405162461bcd60e51b815260040161048590612944565b60ff81166105c45760405162461bcd60e51b815260040161048590612886565b601154600e546000918291829182918290891415610614576105e588611429565b955061060d604051806040016040528060058152602001643830b832b960d91b815250611462565b9450600290505b600f5489141561062e5761062788611462565b9450600290505b6010548914156106485761064188611429565b9550600190505b6012600061065688886114a6565b81526020019081526020016000205460016106719190612e5b565b935061067e8686866114bf565b9250836012600061068f89896114a6565b81526020810191909152604001600020556106aa33836114ea565b6040805160e08101825289815260ff808416602080840191909152908a16928201929092526060810184905260808101859052600060a0820181905260c0820181905260118054600181018255915281518051929360059092027f31ecc21a745e3968a04e9570e4425bc18fa8019c68028196b546d1669c200c680192610734928492019061203f565b506020820151600182018054604085015160ff90811661010090810261ff00199290951660ff1993841617821694909417909255606085015160028501556080850151600385015560a08501516004909401805460c0909601511515909302931515941693909317909216179055505050505050505050565b6107be6107b86113b7565b82611508565b6107da5760405162461bcd60e51b815260040161048590612d55565b61053d838383611585565b60006107f083610bd5565b821061080e5760405162461bcd60e51b8152600401610485906126f5565b506001600160a01b03919091166000908152600660209081526040808320938352929052205490565b600b5461084c906001600160a01b0316610bd5565b6108685760405162461bcd60e51b815260040161048590612d1e565b336000908152600d602052604090206001015462010000900460ff166108a05760405162461bcd60e51b8152600401610485906126c5565b336000908152600d602052604090206001015460ff161515806108dc5750336000908152600d6020526040902060010154610100900460ff1615155b6108f85760405162461bcd60e51b815260040161048590612b8d565b6013805490600061090883612f3b565b9091555050336000908152600d602052604090206001015460ff1615610a0c57336000908152600d602052604090206001015460ff165b80156109f057600061095160016116b2565b600b5490915061096b906001600160a01b03163383611585565b336001600160a01b03167f9623300d947502693ac307b1017d04f92b9a1ddd161e89aeff76da5d9a251694601183815481106109b757634e487b7160e01b600052603260045260246000fd5b90600052602060002090600502016000016040516109d5919061261b565b60405180910390a250806109e881612ee9565b91505061093f565b50336000908152600d60205260409020600101805460ff191690555b336000908152600d6020526040902060010154610100900460ff1615610b1657336000908152600d6020526040902060010154610100900460ff165b8015610af9576000610a5a60026116b2565b600b54909150610a74906001600160a01b03163383611585565b336001600160a01b03167f9623300d947502693ac307b1017d04f92b9a1ddd161e89aeff76da5d9a25169460118381548110610ac057634e487b7160e01b600052603260045260246000fd5b9060005260206000209060050201600001604051610ade919061261b565b60405180910390a25080610af181612ee9565b915050610a48565b50336000908152600d60205260409020600101805461ff00191690555b565b61053d838383604051806020016040528060008152506110ee565b6000610b3d610542565b8210610b5b5760405162461bcd60e51b815260040161048590612dfa565b60088281548110610b7c57634e487b7160e01b600052603260045260246000fd5b90600052602060002001549050919050565b6000818152600260205260408120546001600160a01b0316806103c45760405162461bcd60e51b815260040161048590612ab2565b60126020526000908152604090205481565b60006001600160a01b038216610bfd5760405162461bcd60e51b815260040161048590612a68565b506001600160a01b031660009081526003602052604090205490565b610c216113b7565b6001600160a01b0316610c32610e9c565b6001600160a01b031614610c585760405162461bcd60e51b815260040161048590612c10565b610b1660006119bb565b600b546001600160a01b03163314610c8c5760405162461bcd60e51b815260040161048590612a1f565b600d6000600c85604051610ca09190612495565b9081526040805160209281900383019020546001600160a01b03168352908201929092520160002060019081015462010000900460ff16151514610cf65760405162461bcd60e51b815260040161048590612da6565b81600d6000600c86604051610d0b9190612495565b9081526040805160209281900383019020546001600160a01b031683529082019290925281016000908120600101805460ff191660ff9490941693909317909255518291600d91600c90610d60908890612495565b9081526040805160209281900383019020546001600160a01b03168352908201929092528101600020600101805461ff00191661010060ff949094169390930292909217909155517faa6183438646fc8bb56f82868ce90c0a5bd1301970b115e976c90c1d696a155090610dd5908590612588565b60405180910390a1505050565b600d60205260009081526040902080548190610dfd90612f00565b80601f0160208091040260200160405190810160405280929190818152602001828054610e2990612f00565b8015610e765780601f10610e4b57610100808354040283529160200191610e76565b820191906000526020600020905b815481529060010190602001808311610e5957829003601f168201915b5050506001909301549192505060ff808216916101008104821691620100009091041684565b600a546001600160a01b031690565b6060600180546103db90612f00565b600b546001600160a01b0316331480610edb5750336001600160a01b038316145b610ef75760405162461bcd60e51b8152600401610485906128b9565b600d6000600c83604051610f0b9190612495565b9081526040805160209281900383019020546001600160a01b0316835290820192909252016000206001015462010000900460ff1615610f5d5760405162461bcd60e51b815260040161048590612903565b81600c82604051610f6e9190612495565b908152604080516020928190038301902080546001600160a01b0319166001600160a01b039485161790559184166000908152600d8252919091208251610fb79284019061203f565b506001600160a01b0382166000908152600d602052604090819020600101805462ff0000191662010000179055517fd1271c0a878b06e77c2b145e81fda258074d1d9f72d29461da6de567fe185db3906110149084908490612559565b60405180910390a15050565b6110286113b7565b6001600160a01b0316826001600160a01b031614156110595760405162461bcd60e51b815260040161048590612853565b80600560006110666113b7565b6001600160a01b03908116825260208083019390935260409182016000908120918716808252919093529120805460ff1916921515929092179091556110aa6113b7565b6001600160a01b03167f17307eab39ab6107e8899845ad3d59bd9653f200f220920489ca2b5937696c31836040516110e2919061257d565b60405180910390a35050565b6110ff6110f96113b7565b83611508565b61111b5760405162461bcd60e51b815260040161048590612d55565b61112784848484611a0d565b50505050565b6011818154811061113d57600080fd5b906000526020600020906005020160009150905080600001805461116090612f00565b80601f016020809104026020016040519081016040528092919081815260200182805461118c90612f00565b80156111d95780601f106111ae576101008083540402835291602001916111d9565b820191906000526020600020905b8154815290600101906020018083116111bc57829003601f168201915b505050600184015460028501546003860154600490960154949560ff808416966101009485900482169650929450909282821692041687565b606061121d8261139a565b6112395760405162461bcd60e51b815260040161048590612c8e565b6000611243611a40565b90506000815111611263576040518060200160405280600081525061128e565b8061126d84611a52565b60405160200161127e9291906124b1565b6040516020818303038152906040525b9392505050565b6001600160a01b03918216600090815260056020908152604080832093909416825291909152205460ff1690565b8051602081830181018051600c825292820191909301209152546001600160a01b031681565b6112f16113b7565b6001600160a01b0316611302610e9c565b6001600160a01b0316146113285760405162461bcd60e51b815260040161048590612c10565b6001600160a01b03811661134e5760405162461bcd60e51b815260040161048590612792565b611357816119bb565b50565b60006001600160e01b031982166380ac58cd60e01b148061138b57506001600160e01b03198216635b5e139f60e01b145b806103c457506103c482611b6c565b6000908152600260205260409020546001600160a01b0316151590565b3390565b600081815260046020526040902080546001600160a01b0319166001600160a01b03841690811790915581906113f082610b8e565b6001600160a01b03167f8c5be1e5ebec7d5bd14f71427d1e84f3dd0314c0f7b2291e5b200ac8c7c3b92560405160405180910390a45050565b60006103e88260405160200161143f9190612495565b6040516020818303038152906040528051906020012060001c6103c49190612f56565b60006103e7826040516020016114789190612495565b6040516020818303038152906040528051906020012060001c61149b9190612f56565b6103c4906001612e5b565b6000816114b5846103e8612e87565b61128e9190612e5b565b6000816114cc85856114a6565b6114d8906103e8612e87565b6114e29190612e5b565b949350505050565b611504828260405180602001604052806000815250611b85565b5050565b60006115138261139a565b61152f5760405162461bcd60e51b81526004016104859061297b565b600061153a83610b8e565b9050806001600160a01b0316846001600160a01b031614806115755750836001600160a01b031661156a8461045e565b6001600160a01b0316145b806114e257506114e28185611295565b826001600160a01b031661159882610b8e565b6001600160a01b0316146115be5760405162461bcd60e51b815260040161048590612c45565b6001600160a01b0382166115e45760405162461bcd60e51b81526004016104859061280f565b6115ef838383611bb8565b6115fa6000826113bb565b6001600160a01b0383166000908152600360205260408120805460019290611623908490612ea6565b90915550506001600160a01b0382166000908152600360205260408120805460019290611651908490612e5b565b909155505060008181526002602052604080822080546001600160a01b0319166001600160a01b0386811691821790925591518493918716917fddf252ad1be2c89b69c2b068fc378daa952ba7f163c4a11628f55a4df523b3ef91a4505050565b6000806000805b600b546116ce906001600160a01b0316610bd5565b8110156117a557600b546011906116ee906001600160a01b0316836107e5565b8154811061170c57634e487b7160e01b600052603260045260246000fd5b600091825260209091206004600590920201015460ff161580156117805750600b5460ff861690601190611749906001600160a01b0316846107e5565b8154811061176757634e487b7160e01b600052603260045260246000fd5b600091825260209091206001600590920201015460ff16145b15611793578261178f81612f3b565b9350505b8061179d81612f3b565b9150506116b9565b50816117c35760405162461bcd60e51b815260040161048590612afb565b6000826001600160401b038111156117eb57634e487b7160e01b600052604160045260246000fd5b604051908082528060200260200182016040528015611814578160200160208202803683370190505b50905060005b600b5461182f906001600160a01b0316610bd5565b81101561194757600b5460119061184f906001600160a01b0316836107e5565b8154811061186d57634e487b7160e01b600052603260045260246000fd5b600091825260209091206004600590920201015460ff161580156118e15750600b5460ff8716906011906118aa906001600160a01b0316846107e5565b815481106118c857634e487b7160e01b600052603260045260246000fd5b600091825260209091206001600590920201015460ff16145b1561193557600b546118fc906001600160a01b0316826107e5565b82848151811061191c57634e487b7160e01b600052603260045260246000fd5b60209081029190910101528261193181612f3b565b9350505b8061193f81612f3b565b91505061181a565b50600081514233601354604051602001611963939291906124e0565b6040516020818303038152906040528051906020012060001c6119869190612f56565b90508181815181106119a857634e487b7160e01b600052603260045260246000fd5b60200260200101519450505050506103c7565b600a80546001600160a01b038381166001600160a01b0319831681179093556040519116919082907f8be0079c531659141344cd1fd0a4f28419497f9722a3daafe3b4186f6b6457e090600090a35050565b611a18848484611585565b611a2484848484611c41565b6111275760405162461bcd60e51b815260040161048590612740565b60408051602081019091526000815290565b606081611a7757506040805180820190915260018152600360fc1b60208201526103c7565b8160005b8115611aa15780611a8b81612f3b565b9150611a9a9050600a83612e73565b9150611a7b565b6000816001600160401b03811115611ac957634e487b7160e01b600052604160045260246000fd5b6040519080825280601f01601f191660200182016040528015611af3576020820181803683370190505b5090505b84156114e257611b08600183612ea6565b9150611b15600a86612f56565b611b20906030612e5b565b60f81b818381518110611b4357634e487b7160e01b600052603260045260246000fd5b60200101906001600160f81b031916908160001a905350611b65600a86612e73565b9450611af7565b6001600160e01b031981166301ffc9a760e01b14919050565b611b8f8383611d5c565b611b9c6000848484611c41565b61053d5760405162461bcd60e51b815260040161048590612740565b611bc383838361053d565b6001600160a01b038316611bdf57611bda81611e3b565b611c02565b816001600160a01b0316836001600160a01b031614611c0257611c028382611e7f565b6001600160a01b038216611c1e57611c1981611f1c565b61053d565b826001600160a01b0316826001600160a01b03161461053d5761053d8282611ff5565b6000611c55846001600160a01b0316612039565b15611d5157836001600160a01b031663150b7a02611c716113b7565b8786866040518563ffffffff1660e01b8152600401611c93949392919061251c565b602060405180830381600087803b158015611cad57600080fd5b505af1925050508015611cdd575060408051601f3d908101601f19168201909252611cda9181019061235d565b60015b611d37573d808015611d0b576040519150601f19603f3d011682016040523d82523d6000602084013e611d10565b606091505b508051611d2f5760405162461bcd60e51b815260040161048590612740565b805181602001fd5b6001600160e01b031916630a85bd0160e11b1490506114e2565b506001949350505050565b6001600160a01b038216611d825760405162461bcd60e51b815260040161048590612b58565b611d8b8161139a565b15611da85760405162461bcd60e51b8152600401610485906127d8565b611db460008383611bb8565b6001600160a01b0382166000908152600360205260408120805460019290611ddd908490612e5b565b909155505060008181526002602052604080822080546001600160a01b0319166001600160a01b03861690811790915590518392907fddf252ad1be2c89b69c2b068fc378daa952ba7f163c4a11628f55a4df523b3ef908290a45050565b600880546000838152600960205260408120829055600182018355919091527ff3f7a9fe364faab93b216da50a3214154f22a0a2b415b23a84c8169e8b636ee30155565b60006001611e8c84610bd5565b611e969190612ea6565b600083815260076020526040902054909150808214611ee9576001600160a01b03841660009081526006602090815260408083208584528252808320548484528184208190558352600790915290208190555b5060009182526007602090815260408084208490556001600160a01b039094168352600681528383209183525290812055565b600854600090611f2e90600190612ea6565b60008381526009602052604081205460088054939450909284908110611f6457634e487b7160e01b600052603260045260246000fd5b906000526020600020015490508060088381548110611f9357634e487b7160e01b600052603260045260246000fd5b6000918252602080832090910192909255828152600990915260408082208490558582528120556008805480611fd957634e487b7160e01b600052603160045260246000fd5b6001900381819060005260206000200160009055905550505050565b600061200083610bd5565b6001600160a01b039093166000908152600660209081526040808320868452825280832085905593825260079052919091209190915550565b3b151590565b82805461204b90612f00565b90600052602060002090601f01602090048101928261206d57600085556120b3565b82601f1061208657805160ff19168380011785556120b3565b828001600101855582156120b3579182015b828111156120b3578251825591602001919060010190612098565b506120bf9291506120c3565b5090565b5b808211156120bf57600081556001016120c4565b60006001600160401b03808411156120f2576120f2612f96565b604051601f8501601f19908116603f0116810190828211818310171561211a5761211a612f96565b8160405280935085815286868601111561213357600080fd5b858560208301376000602087830101525050509392505050565b80356001600160a01b03811681146103c757600080fd5b600082601f830112612174578081fd5b61128e838335602085016120d8565b803560ff811681146103c757600080fd5b6000602082840312156121a5578081fd5b61128e8261214d565b600080604083850312156121c0578081fd5b6121c98361214d565b91506121d76020840161214d565b90509250929050565b6000806000606084860312156121f4578081fd5b6121fd8461214d565b925061220b6020850161214d565b9150604084013590509250925092565b60008060008060808587031215612230578081fd5b6122398561214d565b93506122476020860161214d565b92506040850135915060608501356001600160401b03811115612268578182fd5b8501601f81018713612278578182fd5b612287878235602084016120d8565b91505092959194509250565b600080604083850312156122a5578182fd5b6122ae8361214d565b9150602083013580151581146122c2578182fd5b809150509250929050565b600080604083850312156122df578182fd5b6122e88361214d565b915060208301356001600160401b03811115612302578182fd5b61230e85828601612164565b9150509250929050565b6000806040838503121561232a578182fd5b6123338361214d565b946020939093013593505050565b600060208284031215612352578081fd5b813561128e81612fac565b60006020828403121561236e578081fd5b815161128e81612fac565b60006020828403121561238a578081fd5b81356001600160401b0381111561239f578182fd5b6114e284828501612164565b6000806000606084860312156123bf578283fd5b83356001600160401b038111156123d4578384fd5b6123e086828701612164565b9350506123ef60208501612183565b91506123fd60408501612183565b90509250925092565b600060208284031215612417578081fd5b5035919050565b600080600060608486031215612432578283fd5b8335925060208401356001600160401b0381111561244e578283fd5b61245a86828701612164565b9250506123fd60408501612183565b60008151808452612481816020860160208601612ebd565b601f01601f19169290920160200192915050565b600082516124a7818460208701612ebd565b9190910192915050565b600083516124c3818460208801612ebd565b8351908301906124d7818360208801612ebd565b01949350505050565b92835260609190911b6bffffffffffffffffffffffff19166020830152603482015260540190565b6001600160a01b0391909116815260200190565b6001600160a01b038581168252841660208201526040810183905260806060820181905260009061254f90830184612469565b9695505050505050565b6001600160a01b03831681526040602082018190526000906114e290830184612469565b901515815260200190565b60006020825261128e6020830184612469565b6000608082526125ae6080830187612469565b60ff958616602084015293909416604082015290151560609091015292915050565b600060e082526125e360e083018a612469565b60ff988916602084015296909716604082015260608101949094526080840192909252151560a0830152151560c09091015292915050565b600060208083528184548360028204905060018083168061263d57607f831692505b85831081141561265b57634e487b7160e01b87526022600452602487fd5b61266783878a01612e46565b81801561267b576001811461268c576126b6565b60ff198616825287820196506126b6565b6126958b612e4f565b895b868110156126b057815484820152908501908901612697565b83019750505b50949998505050505050505050565b6020808252601690820152752737ba1030903932b3b4ba32b932b210383630bcb2b960511b604082015260600190565b6020808252602b908201527f455243373231456e756d657261626c653a206f776e657220696e646578206f7560408201526a74206f6620626f756e647360a81b606082015260800190565b60208082526032908201527f4552433732313a207472616e7366657220746f206e6f6e20455243373231526560408201527131b2b4bb32b91034b6b83632b6b2b73a32b960711b606082015260800190565b60208082526026908201527f4f776e61626c653a206e6577206f776e657220697320746865207a65726f206160408201526564647265737360d01b606082015260800190565b6020808252601c908201527f4552433732313a20746f6b656e20616c7265616479206d696e74656400000000604082015260600190565b60208082526024908201527f4552433732313a207472616e7366657220746f20746865207a65726f206164646040820152637265737360e01b606082015260800190565b60208082526019908201527822a9219b99189d1030b8383937bb32903a379031b0b63632b960391b604082015260600190565b6020808252601990820152781c1b19585cd9481cd95b1958dd08184818dbdb9d1a5b995b9d603a1b604082015260600190565b6020808252602a908201527f796f7520617265206e6f7420617574686f72697a656420746f207365742074686040820152691a5cc81858d8dbdd5b9d60b21b606082015260800190565b60208082526021908201527f7468697320706c6179657220697320616c7265616479207265676973746572656040820152601960fa1b606082015260800190565b6020808252601c908201527f706c656173652073656c65637420612074797065206f66206974656d00000000604082015260600190565b6020808252602c908201527f4552433732313a206f70657261746f7220717565727920666f72206e6f6e657860408201526b34b9ba32b73a103a37b5b2b760a11b606082015260800190565b60208082526038908201527f4552433732313a20617070726f76652063616c6c6572206973206e6f74206f776040820152771b995c881b9bdc88185c1c1c9bdd995908199bdc88185b1b60421b606082015260800190565b60208082526029908201527f796f7520617265206e6f7420617574686f72697a656420746f20757064617465604082015268103090383630bcb2b960b91b606082015260800190565b6020808252602a908201527f4552433732313a2062616c616e636520717565727920666f7220746865207a65604082015269726f206164647265737360b01b606082015260800190565b60208082526029908201527f4552433732313a206f776e657220717565727920666f72206e6f6e657869737460408201526832b73a103a37b5b2b760b91b606082015260800190565b6020808252603a908201527f5468657265206973206e6f7420656e6f756768206974656d20617661696c626160408201527f6c652c20706c6561736520636f6d65206261636b206c61746572000000000000606082015260800190565b6020808252818101527f4552433732313a206d696e7420746f20746865207a65726f2061646472657373604082015260600190565b6020808252601a908201527f596f752068617665206e6f207265776172647320746f20676574000000000000604082015260600190565b6020808252602c908201527f4552433732313a20617070726f76656420717565727920666f72206e6f6e657860408201526b34b9ba32b73a103a37b5b2b760a11b606082015260800190565b6020808252818101527f4f776e61626c653a2063616c6c6572206973206e6f7420746865206f776e6572604082015260600190565b60208082526029908201527f4552433732313a207472616e73666572206f6620746f6b656e2074686174206960408201526839903737ba1037bbb760b91b606082015260800190565b6020808252602f908201527f4552433732314d657461646174613a2055524920717565727920666f72206e6f60408201526e3732bc34b9ba32b73a103a37b5b2b760891b606082015260800190565b60208082526021908201527f4552433732313a20617070726f76616c20746f2063757272656e74206f776e656040820152603960f91b606082015260800190565b6020808252601b908201527f4e6f6e6520617661696c61626c65206974656d20666f72206e6f770000000000604082015260600190565b60208082526031908201527f4552433732313a207472616e736665722063616c6c6572206973206e6f74206f6040820152701ddb995c881b9bdc88185c1c1c9bdd9959607a1b606082015260800190565b60208082526034908201527f706c656173652073657420666972737420616e20457468657265756d206164646040820152733932b9b9903337b9103a3434b990383630bcb2b960611b606082015260800190565b6020808252602c908201527f455243373231456e756d657261626c653a20676c6f62616c20696e646578206f60408201526b7574206f6620626f756e647360a01b606082015260800190565b90815260200190565b60009081526020902090565b60008219821115612e6e57612e6e612f6a565b500190565b600082612e8257612e82612f80565b500490565b6000816000190483118215151615612ea157612ea1612f6a565b500290565b600082821015612eb857612eb8612f6a565b500390565b60005b83811015612ed8578181015183820152602001612ec0565b838111156111275750506000910152565b600081612ef857612ef8612f6a565b506000190190565b600281046001821680612f1457607f821691505b60208210811415612f3557634e487b7160e01b600052602260045260246000fd5b50919050565b6000600019821415612f4f57612f4f612f6a565b5060010190565b600082612f6557612f65612f80565b500690565b634e487b7160e01b600052601160045260246000fd5b634e487b7160e01b600052601260045260246000fd5b634e487b7160e01b600052604160045260246000fd5b6001600160e01b03198116811461135757600080fdfea2646970667358221220eb2daaa6737799cae17901fba03ee5c23038b9b8b33b7f120f2494f65499b9f564736f6c63430008010033",
  "immutableReferences": {},
  "source": "// SPDX-License-Identifier: GPL-3.0\r\n\r\npragma solidity 0.8.1;\r\n\r\nimport \"./itemsFactory.sol\";\r\n\r\n/**\r\n * @title Change the cases in items\r\n * @notice This contract allows players to change the reward earned for NFT\r\n * @dev The selected items given to the players come from the data base create in the factory by the administrator.\r\n * Only unlock items can be distributed \r\n */\r\ncontract convertRewardNFT is itemsFactory {\r\n    \r\n   ///@dev RandNonce for the random Item \r\n    uint private randNonce = 1;\r\n    \r\n    event rewardWithdrawn(string tokenName,address indexed _to);\r\n    \r\n    ///@dev Transform the reward as a NFT\r\n    function getReward () public {\r\n        require (balanceOf(_administrator) != 0, \"None available item for now\");\r\n        require (multiverseData[msg.sender].isRegistered, \"Not a regitered player\");\r\n        require (multiverseData[msg.sender].rewardLv1 != 0 || multiverseData[msg.sender].rewardLv2 != 0, \"You have no rewards to get\");\r\n        \r\n        randNonce ++;\r\n        \r\n        if (multiverseData[msg.sender].rewardLv1 != 0){\r\n          for (uint i = multiverseData[msg.sender].rewardLv1; i > 0; i-- ){\r\n            uint idItem =  getAvailableItem(1); \r\n             _transfer(_administrator, msg.sender, idItem);\r\n             emit rewardWithdrawn(items[idItem].name, msg.sender);\r\n          }\r\n          multiverseData[msg.sender].rewardLv1 = 0;\r\n        }\r\n        \r\n        if (multiverseData[msg.sender].rewardLv2 != 0){\r\n          for (uint i = multiverseData[msg.sender].rewardLv2; i > 0; i-- ){\r\n            uint idItem =  getAvailableItem(2); \r\n            _transfer(_administrator, msg.sender, idItem);\r\n            emit rewardWithdrawn(items[idItem].name, msg.sender);\r\n          }\r\n          multiverseData[msg.sender].rewardLv2 = 0;\r\n        }\r\n    }\r\n    \r\n    /**\r\n     * @dev Get an available item in the main database of unlock items.\r\n     * First we create the size of an array, then we fill it with the eligible token \r\n     * and at the end we send the Id of the won token\r\n     */\r\n    function getAvailableItem(uint8 _level) private view returns(uint){\r\n   \r\n        uint sizeArray;\r\n        uint Id;\r\n        \r\n        for (uint k; k < balanceOf(_administrator); k++){\r\n            if (!items[tokenOfOwnerByIndex(_administrator,k)].locked && items[tokenOfOwnerByIndex(_administrator,k)].levelItem == _level){\r\n              sizeArray++;\r\n            }\r\n          }\r\n    \r\n        if (sizeArray == 0){\r\n          revert('There is not enough item availbale, please come back later');\r\n        } else {\r\n    \r\n          uint[] memory availableItem = new uint[](sizeArray);   \r\n    \r\n          for (uint k; k <balanceOf(_administrator); k++){\r\n            if (!items[tokenOfOwnerByIndex(_administrator,k)].locked && items[tokenOfOwnerByIndex(_administrator,k)].levelItem == _level){\r\n              availableItem[Id] = tokenOfOwnerByIndex(_administrator,k);\r\n              Id++;\r\n            }\r\n          }\r\n          uint randReward = uint(keccak256 (abi.encodePacked(block.timestamp, msg.sender, randNonce))) % availableItem.length;\r\n          return availableItem[randReward];\r\n        }\r\n    }\r\n}\r\n",
  "sourcePath": "C:\\Users\\fboud\\OneDrive\\Documents\\Alyra\\projetFinal\\contracts\\convertRewardNFT.sol",
  "compiler": {
    "name": "solc",
    "version": "0.8.1+commit.df193b15.Emscripten.clang"
  },
  "schemaVersion": "3.4.2",
  "updatedAt": "2021-08-07T17:30:06.068Z",
  "devdoc": {
    "details": "The selected items given to the players come from the data base create in the factory by the administrator. Only unlock items can be distributed ",
    "kind": "dev",
    "methods": {
      "approve(address,uint256)": {
        "details": "See {IERC721-approve}."
      },
      "balanceOf(address)": {
        "details": "See {IERC721-balanceOf}."
      },
      "createItem(uint256,string,uint8)": {
        "details": "Function allowing to create items. Only the adminstrator can make one"
      },
      "getApproved(uint256)": {
        "details": "See {IERC721-getApproved}."
      },
      "getReward()": {
        "details": "Transform the reward as a NFT"
      },
      "isApprovedForAll(address,address)": {
        "details": "See {IERC721-isApprovedForAll}."
      },
      "name()": {
        "details": "See {IERC721Metadata-name}."
      },
      "owner()": {
        "details": "Returns the address of the current owner."
      },
      "ownerOf(uint256)": {
        "details": "See {IERC721-ownerOf}."
      },
      "renounceOwnership()": {
        "details": "Leaves the contract without owner. It will not be possible to call `onlyOwner` functions anymore. Can only be called by the current owner. NOTE: Renouncing ownership will leave the contract without an owner, thereby removing any functionality that is only available to the owner."
      },
      "safeTransferFrom(address,address,uint256)": {
        "details": "See {IERC721-safeTransferFrom}."
      },
      "safeTransferFrom(address,address,uint256,bytes)": {
        "details": "See {IERC721-safeTransferFrom}."
      },
      "setApprovalForAll(address,bool)": {
        "details": "See {IERC721-setApprovalForAll}."
      },
      "setMultiversePlayer(address,string)": {
        "details": "link a login with a player. The login must be the exact same one than the one used in POW"
      },
      "supportsInterface(bytes4)": {
        "details": "See {IERC165-supportsInterface}."
      },
      "symbol()": {
        "details": "See {IERC721Metadata-symbol}."
      },
      "tokenByIndex(uint256)": {
        "details": "See {IERC721Enumerable-tokenByIndex}."
      },
      "tokenOfOwnerByIndex(address,uint256)": {
        "details": "See {IERC721Enumerable-tokenOfOwnerByIndex}."
      },
      "tokenURI(uint256)": {
        "details": "See {IERC721Metadata-tokenURI}."
      },
      "totalSupply()": {
        "details": "See {IERC721Enumerable-totalSupply}."
      },
      "transferFrom(address,address,uint256)": {
        "details": "See {IERC721-transferFrom}."
      },
      "transferOwnership(address)": {
        "details": "Transfers ownership of the contract to a new account (`newOwner`). Can only be called by the current owner."
      },
      "updateMultiversePlayer(string,uint8,uint8)": {
        "details": "Update the data of a registered player. The adnministrator Only can set this. In the future, the oracle will do that"
      }
    },
    "stateVariables": {
      "randNonce": {
        "details": "RandNonce for the random Item "
      }
    },
    "title": "Change the cases in items",
    "version": 1
  },
  "userdoc": {
    "kind": "user",
    "methods": {},
    "notice": "This contract allows players to change the reward earned for NFT",
    "version": 1
  }
}