{
  "contractName": "convertRewardNFT",
  "abi": [
    {
      "anonymous": false,
      "inputs": [
        {
          "indexed": true,
          "internalType": "address",
          "name": "owner",
          "type": "address"
        },
        {
          "indexed": true,
          "internalType": "address",
          "name": "approved",
          "type": "address"
        },
        {
          "indexed": true,
          "internalType": "uint256",
          "name": "tokenId",
          "type": "uint256"
        }
      ],
      "name": "Approval",
      "type": "event"
    },
    {
      "anonymous": false,
      "inputs": [
        {
          "indexed": true,
          "internalType": "address",
          "name": "owner",
          "type": "address"
        },
        {
          "indexed": true,
          "internalType": "address",
          "name": "operator",
          "type": "address"
        },
        {
          "indexed": false,
          "internalType": "bool",
          "name": "approved",
          "type": "bool"
        }
      ],
      "name": "ApprovalForAll",
      "type": "event"
    },
    {
      "anonymous": false,
      "inputs": [
        {
          "indexed": false,
          "internalType": "address",
          "name": "addressPlayer",
          "type": "address"
        },
        {
          "indexed": false,
          "internalType": "string",
          "name": "loginPlayer",
          "type": "string"
        }
      ],
      "name": "NewPlayerRegistered",
      "type": "event"
    },
    {
      "anonymous": false,
      "inputs": [
        {
          "indexed": true,
          "internalType": "address",
          "name": "previousOwner",
          "type": "address"
        },
        {
          "indexed": true,
          "internalType": "address",
          "name": "newOwner",
          "type": "address"
        }
      ],
      "name": "OwnershipTransferred",
      "type": "event"
    },
    {
      "anonymous": false,
      "inputs": [
        {
          "indexed": true,
          "internalType": "address",
          "name": "from",
          "type": "address"
        },
        {
          "indexed": true,
          "internalType": "address",
          "name": "to",
          "type": "address"
        },
        {
          "indexed": true,
          "internalType": "uint256",
          "name": "tokenId",
          "type": "uint256"
        }
      ],
      "name": "Transfer",
      "type": "event"
    },
    {
      "anonymous": false,
      "inputs": [
        {
          "indexed": false,
          "internalType": "string",
          "name": "login",
          "type": "string"
        }
      ],
      "name": "playerUpdated",
      "type": "event"
    },
    {
      "anonymous": false,
      "inputs": [
        {
          "indexed": false,
          "internalType": "string",
          "name": "tokenName",
          "type": "string"
        }
      ],
      "name": "rewardWithdrawn",
      "type": "event"
    },
    {
      "inputs": [
        {
          "internalType": "address",
          "name": "to",
          "type": "address"
        },
        {
          "internalType": "uint256",
          "name": "tokenId",
          "type": "uint256"
        }
      ],
      "name": "approve",
      "outputs": [],
      "stateMutability": "nonpayable",
      "type": "function"
    },
    {
      "inputs": [
        {
          "internalType": "address",
          "name": "owner",
          "type": "address"
        }
      ],
      "name": "balanceOf",
      "outputs": [
        {
          "internalType": "uint256",
          "name": "",
          "type": "uint256"
        }
      ],
      "stateMutability": "view",
      "type": "function"
    },
    {
      "inputs": [
        {
          "internalType": "uint256",
          "name": "_type",
          "type": "uint256"
        },
        {
          "internalType": "string",
          "name": "_name",
          "type": "string"
        },
        {
          "internalType": "uint8",
          "name": "_continent",
          "type": "uint8"
        }
      ],
      "name": "createItem",
      "outputs": [],
      "stateMutability": "nonpayable",
      "type": "function"
    },
    {
      "inputs": [
        {
          "internalType": "uint256",
          "name": "",
          "type": "uint256"
        }
      ],
      "name": "exemplaireNumbers",
      "outputs": [
        {
          "internalType": "uint256",
          "name": "",
          "type": "uint256"
        }
      ],
      "stateMutability": "view",
      "type": "function"
    },
    {
      "inputs": [
        {
          "internalType": "uint256",
          "name": "tokenId",
          "type": "uint256"
        }
      ],
      "name": "getApproved",
      "outputs": [
        {
          "internalType": "address",
          "name": "",
          "type": "address"
        }
      ],
      "stateMutability": "view",
      "type": "function"
    },
    {
      "inputs": [
        {
          "internalType": "address",
          "name": "owner",
          "type": "address"
        },
        {
          "internalType": "address",
          "name": "operator",
          "type": "address"
        }
      ],
      "name": "isApprovedForAll",
      "outputs": [
        {
          "internalType": "bool",
          "name": "",
          "type": "bool"
        }
      ],
      "stateMutability": "view",
      "type": "function"
    },
    {
      "inputs": [
        {
          "internalType": "uint256",
          "name": "",
          "type": "uint256"
        }
      ],
      "name": "items",
      "outputs": [
        {
          "internalType": "string",
          "name": "name",
          "type": "string"
        },
        {
          "internalType": "uint8",
          "name": "levelItem",
          "type": "uint8"
        },
        {
          "internalType": "uint8",
          "name": "continent",
          "type": "uint8"
        },
        {
          "internalType": "uint256",
          "name": "tokenId",
          "type": "uint256"
        },
        {
          "internalType": "uint256",
          "name": "composition",
          "type": "uint256"
        },
        {
          "internalType": "bool",
          "name": "locked",
          "type": "bool"
        },
        {
          "internalType": "bool",
          "name": "onSold",
          "type": "bool"
        }
      ],
      "stateMutability": "view",
      "type": "function"
    },
    {
      "inputs": [
        {
          "internalType": "address",
          "name": "",
          "type": "address"
        }
      ],
      "name": "multiverseData",
      "outputs": [
        {
          "internalType": "string",
          "name": "login",
          "type": "string"
        },
        {
          "internalType": "uint8",
          "name": "rewardLv1",
          "type": "uint8"
        },
        {
          "internalType": "uint8",
          "name": "rewardLv2",
          "type": "uint8"
        },
        {
          "internalType": "bool",
          "name": "isRegistered",
          "type": "bool"
        }
      ],
      "stateMutability": "view",
      "type": "function"
    },
    {
      "inputs": [
        {
          "internalType": "string",
          "name": "",
          "type": "string"
        }
      ],
      "name": "multiverseIds",
      "outputs": [
        {
          "internalType": "address",
          "name": "",
          "type": "address"
        }
      ],
      "stateMutability": "view",
      "type": "function"
    },
    {
      "inputs": [],
      "name": "name",
      "outputs": [
        {
          "internalType": "string",
          "name": "",
          "type": "string"
        }
      ],
      "stateMutability": "view",
      "type": "function"
    },
    {
      "inputs": [],
      "name": "owner",
      "outputs": [
        {
          "internalType": "address",
          "name": "",
          "type": "address"
        }
      ],
      "stateMutability": "view",
      "type": "function"
    },
    {
      "inputs": [
        {
          "internalType": "uint256",
          "name": "tokenId",
          "type": "uint256"
        }
      ],
      "name": "ownerOf",
      "outputs": [
        {
          "internalType": "address",
          "name": "",
          "type": "address"
        }
      ],
      "stateMutability": "view",
      "type": "function"
    },
    {
      "inputs": [],
      "name": "renounceOwnership",
      "outputs": [],
      "stateMutability": "nonpayable",
      "type": "function"
    },
    {
      "inputs": [
        {
          "internalType": "address",
          "name": "from",
          "type": "address"
        },
        {
          "internalType": "address",
          "name": "to",
          "type": "address"
        },
        {
          "internalType": "uint256",
          "name": "tokenId",
          "type": "uint256"
        }
      ],
      "name": "safeTransferFrom",
      "outputs": [],
      "stateMutability": "nonpayable",
      "type": "function"
    },
    {
      "inputs": [
        {
          "internalType": "address",
          "name": "from",
          "type": "address"
        },
        {
          "internalType": "address",
          "name": "to",
          "type": "address"
        },
        {
          "internalType": "uint256",
          "name": "tokenId",
          "type": "uint256"
        },
        {
          "internalType": "bytes",
          "name": "_data",
          "type": "bytes"
        }
      ],
      "name": "safeTransferFrom",
      "outputs": [],
      "stateMutability": "nonpayable",
      "type": "function"
    },
    {
      "inputs": [
        {
          "internalType": "address",
          "name": "operator",
          "type": "address"
        },
        {
          "internalType": "bool",
          "name": "approved",
          "type": "bool"
        }
      ],
      "name": "setApprovalForAll",
      "outputs": [],
      "stateMutability": "nonpayable",
      "type": "function"
    },
    {
      "inputs": [
        {
          "internalType": "address",
          "name": "_addressPlayer",
          "type": "address"
        },
        {
          "internalType": "string",
          "name": "_login",
          "type": "string"
        }
      ],
      "name": "setMultiversePlayer",
      "outputs": [],
      "stateMutability": "nonpayable",
      "type": "function"
    },
    {
      "inputs": [
        {
          "internalType": "bytes4",
          "name": "interfaceId",
          "type": "bytes4"
        }
      ],
      "name": "supportsInterface",
      "outputs": [
        {
          "internalType": "bool",
          "name": "",
          "type": "bool"
        }
      ],
      "stateMutability": "view",
      "type": "function"
    },
    {
      "inputs": [],
      "name": "symbol",
      "outputs": [
        {
          "internalType": "string",
          "name": "",
          "type": "string"
        }
      ],
      "stateMutability": "view",
      "type": "function"
    },
    {
      "inputs": [
        {
          "internalType": "uint256",
          "name": "index",
          "type": "uint256"
        }
      ],
      "name": "tokenByIndex",
      "outputs": [
        {
          "internalType": "uint256",
          "name": "",
          "type": "uint256"
        }
      ],
      "stateMutability": "view",
      "type": "function"
    },
    {
      "inputs": [
        {
          "internalType": "address",
          "name": "owner",
          "type": "address"
        },
        {
          "internalType": "uint256",
          "name": "index",
          "type": "uint256"
        }
      ],
      "name": "tokenOfOwnerByIndex",
      "outputs": [
        {
          "internalType": "uint256",
          "name": "",
          "type": "uint256"
        }
      ],
      "stateMutability": "view",
      "type": "function"
    },
    {
      "inputs": [
        {
          "internalType": "uint256",
          "name": "tokenId",
          "type": "uint256"
        }
      ],
      "name": "tokenURI",
      "outputs": [
        {
          "internalType": "string",
          "name": "",
          "type": "string"
        }
      ],
      "stateMutability": "view",
      "type": "function"
    },
    {
      "inputs": [],
      "name": "totalSupply",
      "outputs": [
        {
          "internalType": "uint256",
          "name": "",
          "type": "uint256"
        }
      ],
      "stateMutability": "view",
      "type": "function"
    },
    {
      "inputs": [
        {
          "internalType": "address",
          "name": "from",
          "type": "address"
        },
        {
          "internalType": "address",
          "name": "to",
          "type": "address"
        },
        {
          "internalType": "uint256",
          "name": "tokenId",
          "type": "uint256"
        }
      ],
      "name": "transferFrom",
      "outputs": [],
      "stateMutability": "nonpayable",
      "type": "function"
    },
    {
      "inputs": [
        {
          "internalType": "address",
          "name": "newOwner",
          "type": "address"
        }
      ],
      "name": "transferOwnership",
      "outputs": [],
      "stateMutability": "nonpayable",
      "type": "function"
    },
    {
      "inputs": [
        {
          "internalType": "string",
          "name": "_login",
          "type": "string"
        },
        {
          "internalType": "uint8",
          "name": "_rewardLv1",
          "type": "uint8"
        },
        {
          "internalType": "uint8",
          "name": "_rewardLv2",
          "type": "uint8"
        }
      ],
      "name": "updateMultiversePlayer",
      "outputs": [],
      "stateMutability": "nonpayable",
      "type": "function"
    },
    {
      "inputs": [],
      "name": "getReward",
      "outputs": [],
      "stateMutability": "nonpayable",
      "type": "function"
    }
  ],
  "bytecode": "0x60806040526001600e556002600f55600360105560016013553480156200002557600080fd5b506040805180820182526007815266706f77556e697160c81b602080830191825283518085019094526003845262504f5760e81b908401528151919291620000709160009162000111565b5080516200008690600190602084019062000111565b505050620000a36200009d620000bb60201b60201c565b620000bf565b600b80546001600160a01b03191633179055620001f4565b3390565b600a80546001600160a01b038381166001600160a01b0319831681179093556040519116919082907f8be0079c531659141344cd1fd0a4f28419497f9722a3daafe3b4186f6b6457e090600090a35050565b8280546200011f90620001b7565b90600052602060002090601f0160209004810192826200014357600085556200018e565b82601f106200015e57805160ff19168380011785556200018e565b828001600101855582156200018e579182015b828111156200018e57825182559160200191906001019062000171565b506200019c929150620001a0565b5090565b5b808211156200019c5760008155600101620001a1565b600281046001821680620001cc57607f821691505b60208210811415620001ee57634e487b7160e01b600052602260045260246000fd5b50919050565b612f3d80620002046000396000f3fe608060405234801561001057600080fd5b50600436106101795760003560e01c806370a08231116100d9578063a22cb46511610087578063a22cb46514610307578063b88d4fde1461031a578063bfb231d21461032d578063c87b56dd14610353578063e985e9c514610366578063e9dbd45a14610379578063f2fde38b1461038c57610179565b806370a0823114610293578063715018a6146102a65780637538822e146102ae57806375adb7fd146102c15780638da5cb5b146102e457806395d89b41146102ec5780639b008e47146102f457610179565b806323b872dd1161013657806323b872dd146102195780632f745c591461022c5780633d18b9121461023f57806342842e0e146102475780634f6ccce71461025a5780636352211e1461026d578063661c2b601461028057610179565b806301ffc9a71461017e57806306fdde03146101a7578063081812fc146101bc578063095ea7b3146101dc57806318160ddd146101f15780631f57108914610206575b600080fd5b61019161018c3660046122f0565b61039f565b60405161019e919061252c565b60405180910390f35b6101af6103cc565b60405161019e9190612537565b6101cf6101ca3660046123b5565b61045e565b60405161019e91906124b7565b6101ef6101ea3660046122c7565b6104aa565b005b6101f9610542565b60405161019e9190612d8b565b6101ef6102143660046123cd565b610548565b6101ef61022736600461218f565b610770565b6101f961023a3660046122c7565b6107a8565b6101ef6107fa565b6101ef61025536600461218f565b610ac7565b6101f96102683660046123b5565b610ae2565b6101cf61027b3660046123b5565b610b3d565b6101f961028e3660046123b5565b610b72565b6101f96102a1366004612143565b610b84565b6101ef610bc8565b6101ef6102bc36600461235a565b610c11565b6102d46102cf366004612143565b610d91565b60405161019e949392919061254a565b6101cf610e4b565b6101af610e5a565b6101ef61030236600461227c565b610e69565b6101ef610315366004612242565b610fcf565b6101ef6103283660046121ca565b61109d565b61034061033b3660046123b5565b6110dc565b60405161019e979695949392919061257f565b6101af6103613660046123b5565b6111c1565b61019161037436600461215d565b611244565b6101cf610387366004612328565b611272565b6101ef61039a366004612143565b611298565b60006001600160e01b0319821663780e9d6360e01b14806103c457506103c482611309565b90505b919050565b6060600080546103db90612e45565b80601f016020809104026020016040519081016040528092919081815260200182805461040790612e45565b80156104545780601f1061042957610100808354040283529160200191610454565b820191906000526020600020905b81548152906001019060200180831161043757829003601f168201915b5050505050905090565b600061046982611349565b61048e5760405162461bcd60e51b815260040161048590612b09565b60405180910390fd5b506000908152600460205260409020546001600160a01b031690565b60006104b582610b3d565b9050806001600160a01b0316836001600160a01b031614156104e95760405162461bcd60e51b815260040161048590612c22565b806001600160a01b03166104fb611366565b6001600160a01b03161480610517575061051781610374611366565b6105335760405162461bcd60e51b81526004016104859061290c565b61053d838361136a565b505050565b60085490565b610550611366565b6001600160a01b0316610561610e4b565b6001600160a01b0316146105875760405162461bcd60e51b815260040161048590612b55565b601154600e5460009182918291829182908914156105d7576105a8886113d8565b95506105d0604051806040016040528060058152602001643830b832b960d91b815250611411565b9450600290505b600f548914156105f1576105ea88611411565b9450600290505b60105489141561060b57610604886113d8565b9550600190505b601260006106198888611455565b81526020019081526020016000205460016106349190612da0565b935061064186868661146e565b925083601260006106528989611455565b815260208101919091526040016000205561066d3383611499565b6040805160e08101825289815260ff808416602080840191909152908a16928201929092526060810184905260808101859052600060a0820181905260c0820181905260118054600181018255915281518051929360059092027f31ecc21a745e3968a04e9570e4425bc18fa8019c68028196b546d1669c200c6801926106f79284920190611fee565b506020820151600182018054604085015160ff90811661010090810261ff00199290951660ff1993841617821694909417909255606085015160028501556080850151600385015560a08501516004909401805460c0909601511515909302931515941693909317909216179055505050505050505050565b61078161077b611366565b826114b7565b61079d5760405162461bcd60e51b815260040161048590612c9a565b61053d838383611534565b60006107b383610b84565b82106107d15760405162461bcd60e51b8152600401610485906126a4565b506001600160a01b03919091166000908152600660209081526040808320938352929052205490565b600b5461080f906001600160a01b0316610b84565b61082b5760405162461bcd60e51b815260040161048590612c63565b336000908152600d602052604090206001015462010000900460ff166108635760405162461bcd60e51b815260040161048590612674565b336000908152600d602052604090206001015460ff1615158061089f5750336000908152600d6020526040902060010154610100900460ff1615155b6108bb5760405162461bcd60e51b815260040161048590612ad2565b601380549060006108cb83612e80565b9091555050336000908152600d602052604090206001015460ff16156109c557336000908152600d602052604090206001015460ff165b80156109a95760006109146001611661565b600b5490915061092e906001600160a01b03163383611534565b7fc13f9ae72e4e0dc35757e8e0eb7919f647d0b4b0c6451d638f810fcf13f2977b6011828154811061097057634e487b7160e01b600052603260045260246000fd5b906000526020600020906005020160000160405161098e91906125ca565b60405180910390a150806109a181612e2e565b915050610902565b50336000908152600d60205260409020600101805460ff191690555b336000908152600d6020526040902060010154610100900460ff1615610ac557336000908152600d6020526040902060010154610100900460ff165b8015610aa8576000610a136002611661565b600b54909150610a2d906001600160a01b03163383611534565b7fc13f9ae72e4e0dc35757e8e0eb7919f647d0b4b0c6451d638f810fcf13f2977b60118281548110610a6f57634e487b7160e01b600052603260045260246000fd5b9060005260206000209060050201600001604051610a8d91906125ca565b60405180910390a15080610aa081612e2e565b915050610a01565b50336000908152600d60205260409020600101805461ff00191690555b565b61053d8383836040518060200160405280600081525061109d565b6000610aec610542565b8210610b0a5760405162461bcd60e51b815260040161048590612d3f565b60088281548110610b2b57634e487b7160e01b600052603260045260246000fd5b90600052602060002001549050919050565b6000818152600260205260408120546001600160a01b0316806103c45760405162461bcd60e51b8152600401610485906129f7565b60126020526000908152604090205481565b60006001600160a01b038216610bac5760405162461bcd60e51b8152600401610485906129ad565b506001600160a01b031660009081526003602052604090205490565b610bd0611366565b6001600160a01b0316610be1610e4b565b6001600160a01b031614610c075760405162461bcd60e51b815260040161048590612b55565b610ac5600061196a565b600b546001600160a01b03163314610c3b5760405162461bcd60e51b815260040161048590612964565b600d6000600c85604051610c4f9190612444565b9081526040805160209281900383019020546001600160a01b03168352908201929092520160002060019081015462010000900460ff16151514610ca55760405162461bcd60e51b815260040161048590612ceb565b81600d6000600c86604051610cba9190612444565b9081526040805160209281900383019020546001600160a01b031683529082019290925281016000908120600101805460ff191660ff9490941693909317909255518291600d91600c90610d0f908890612444565b9081526040805160209281900383019020546001600160a01b03168352908201929092528101600020600101805461ff00191661010060ff949094169390930292909217909155517faa6183438646fc8bb56f82868ce90c0a5bd1301970b115e976c90c1d696a155090610d84908590612537565b60405180910390a1505050565b600d60205260009081526040902080548190610dac90612e45565b80601f0160208091040260200160405190810160405280929190818152602001828054610dd890612e45565b8015610e255780601f10610dfa57610100808354040283529160200191610e25565b820191906000526020600020905b815481529060010190602001808311610e0857829003601f168201915b5050506001909301549192505060ff808216916101008104821691620100009091041684565b600a546001600160a01b031690565b6060600180546103db90612e45565b600b546001600160a01b0316331480610e8a5750336001600160a01b038316145b610ea65760405162461bcd60e51b815260040161048590612835565b600d6000600c83604051610eba9190612444565b9081526040805160209281900383019020546001600160a01b0316835290820192909252016000206001015462010000900460ff1615610f0c5760405162461bcd60e51b81526004016104859061287f565b81600c82604051610f1d9190612444565b908152604080516020928190038301902080546001600160a01b0319166001600160a01b039485161790559184166000908152600d8252919091208251610f6692840190611fee565b506001600160a01b0382166000908152600d602052604090819020600101805462ff0000191662010000179055517fd1271c0a878b06e77c2b145e81fda258074d1d9f72d29461da6de567fe185db390610fc39084908490612508565b60405180910390a15050565b610fd7611366565b6001600160a01b0316826001600160a01b031614156110085760405162461bcd60e51b815260040161048590612802565b8060056000611015611366565b6001600160a01b03908116825260208083019390935260409182016000908120918716808252919093529120805460ff191692151592909217909155611059611366565b6001600160a01b03167f17307eab39ab6107e8899845ad3d59bd9653f200f220920489ca2b5937696c3183604051611091919061252c565b60405180910390a35050565b6110ae6110a8611366565b836114b7565b6110ca5760405162461bcd60e51b815260040161048590612c9a565b6110d6848484846119bc565b50505050565b601181815481106110ec57600080fd5b906000526020600020906005020160009150905080600001805461110f90612e45565b80601f016020809104026020016040519081016040528092919081815260200182805461113b90612e45565b80156111885780601f1061115d57610100808354040283529160200191611188565b820191906000526020600020905b81548152906001019060200180831161116b57829003601f168201915b505050600184015460028501546003860154600490960154949560ff808416966101009485900482169650929450909282821692041687565b60606111cc82611349565b6111e85760405162461bcd60e51b815260040161048590612bd3565b60006111f26119ef565b90506000815111611212576040518060200160405280600081525061123d565b8061121c84611a01565b60405160200161122d929190612460565b6040516020818303038152906040525b9392505050565b6001600160a01b03918216600090815260056020908152604080832093909416825291909152205460ff1690565b8051602081830181018051600c825292820191909301209152546001600160a01b031681565b6112a0611366565b6001600160a01b03166112b1610e4b565b6001600160a01b0316146112d75760405162461bcd60e51b815260040161048590612b55565b6001600160a01b0381166112fd5760405162461bcd60e51b815260040161048590612741565b6113068161196a565b50565b60006001600160e01b031982166380ac58cd60e01b148061133a57506001600160e01b03198216635b5e139f60e01b145b806103c457506103c482611b1b565b6000908152600260205260409020546001600160a01b0316151590565b3390565b600081815260046020526040902080546001600160a01b0319166001600160a01b038416908117909155819061139f82610b3d565b6001600160a01b03167f8c5be1e5ebec7d5bd14f71427d1e84f3dd0314c0f7b2291e5b200ac8c7c3b92560405160405180910390a45050565b60006103e8826040516020016113ee9190612444565b6040516020818303038152906040528051906020012060001c6103c49190612e9b565b60006103e7826040516020016114279190612444565b6040516020818303038152906040528051906020012060001c61144a9190612e9b565b6103c4906001612da0565b600081611464846103e8612dcc565b61123d9190612da0565b60008161147b8585611455565b611487906103e8612dcc565b6114919190612da0565b949350505050565b6114b3828260405180602001604052806000815250611b34565b5050565b60006114c282611349565b6114de5760405162461bcd60e51b8152600401610485906128c0565b60006114e983610b3d565b9050806001600160a01b0316846001600160a01b031614806115245750836001600160a01b03166115198461045e565b6001600160a01b0316145b8061149157506114918185611244565b826001600160a01b031661154782610b3d565b6001600160a01b03161461156d5760405162461bcd60e51b815260040161048590612b8a565b6001600160a01b0382166115935760405162461bcd60e51b8152600401610485906127be565b61159e838383611b67565b6115a960008261136a565b6001600160a01b03831660009081526003602052604081208054600192906115d2908490612deb565b90915550506001600160a01b0382166000908152600360205260408120805460019290611600908490612da0565b909155505060008181526002602052604080822080546001600160a01b0319166001600160a01b0386811691821790925591518493918716917fddf252ad1be2c89b69c2b068fc378daa952ba7f163c4a11628f55a4df523b3ef91a4505050565b6000806000805b600b5461167d906001600160a01b0316610b84565b81101561175457600b5460119061169d906001600160a01b0316836107a8565b815481106116bb57634e487b7160e01b600052603260045260246000fd5b600091825260209091206004600590920201015460ff1615801561172f5750600b5460ff8616906011906116f8906001600160a01b0316846107a8565b8154811061171657634e487b7160e01b600052603260045260246000fd5b600091825260209091206001600590920201015460ff16145b15611742578261173e81612e80565b9350505b8061174c81612e80565b915050611668565b50816117725760405162461bcd60e51b815260040161048590612a40565b6000826001600160401b0381111561179a57634e487b7160e01b600052604160045260246000fd5b6040519080825280602002602001820160405280156117c3578160200160208202803683370190505b50905060005b600b546117de906001600160a01b0316610b84565b8110156118f657600b546011906117fe906001600160a01b0316836107a8565b8154811061181c57634e487b7160e01b600052603260045260246000fd5b600091825260209091206004600590920201015460ff161580156118905750600b5460ff871690601190611859906001600160a01b0316846107a8565b8154811061187757634e487b7160e01b600052603260045260246000fd5b600091825260209091206001600590920201015460ff16145b156118e457600b546118ab906001600160a01b0316826107a8565b8284815181106118cb57634e487b7160e01b600052603260045260246000fd5b6020908102919091010152826118e081612e80565b9350505b806118ee81612e80565b9150506117c9565b506000815142336013546040516020016119129392919061248f565b6040516020818303038152906040528051906020012060001c6119359190612e9b565b905081818151811061195757634e487b7160e01b600052603260045260246000fd5b60200260200101519450505050506103c7565b600a80546001600160a01b038381166001600160a01b0319831681179093556040519116919082907f8be0079c531659141344cd1fd0a4f28419497f9722a3daafe3b4186f6b6457e090600090a35050565b6119c7848484611534565b6119d384848484611bf0565b6110d65760405162461bcd60e51b8152600401610485906126ef565b60408051602081019091526000815290565b606081611a2657506040805180820190915260018152600360fc1b60208201526103c7565b8160005b8115611a505780611a3a81612e80565b9150611a499050600a83612db8565b9150611a2a565b6000816001600160401b03811115611a7857634e487b7160e01b600052604160045260246000fd5b6040519080825280601f01601f191660200182016040528015611aa2576020820181803683370190505b5090505b841561149157611ab7600183612deb565b9150611ac4600a86612e9b565b611acf906030612da0565b60f81b818381518110611af257634e487b7160e01b600052603260045260246000fd5b60200101906001600160f81b031916908160001a905350611b14600a86612db8565b9450611aa6565b6001600160e01b031981166301ffc9a760e01b14919050565b611b3e8383611d0b565b611b4b6000848484611bf0565b61053d5760405162461bcd60e51b8152600401610485906126ef565b611b7283838361053d565b6001600160a01b038316611b8e57611b8981611dea565b611bb1565b816001600160a01b0316836001600160a01b031614611bb157611bb18382611e2e565b6001600160a01b038216611bcd57611bc881611ecb565b61053d565b826001600160a01b0316826001600160a01b03161461053d5761053d8282611fa4565b6000611c04846001600160a01b0316611fe8565b15611d0057836001600160a01b031663150b7a02611c20611366565b8786866040518563ffffffff1660e01b8152600401611c4294939291906124cb565b602060405180830381600087803b158015611c5c57600080fd5b505af1925050508015611c8c575060408051601f3d908101601f19168201909252611c899181019061230c565b60015b611ce6573d808015611cba576040519150601f19603f3d011682016040523d82523d6000602084013e611cbf565b606091505b508051611cde5760405162461bcd60e51b8152600401610485906126ef565b805181602001fd5b6001600160e01b031916630a85bd0160e11b149050611491565b506001949350505050565b6001600160a01b038216611d315760405162461bcd60e51b815260040161048590612a9d565b611d3a81611349565b15611d575760405162461bcd60e51b815260040161048590612787565b611d6360008383611b67565b6001600160a01b0382166000908152600360205260408120805460019290611d8c908490612da0565b909155505060008181526002602052604080822080546001600160a01b0319166001600160a01b03861690811790915590518392907fddf252ad1be2c89b69c2b068fc378daa952ba7f163c4a11628f55a4df523b3ef908290a45050565b600880546000838152600960205260408120829055600182018355919091527ff3f7a9fe364faab93b216da50a3214154f22a0a2b415b23a84c8169e8b636ee30155565b60006001611e3b84610b84565b611e459190612deb565b600083815260076020526040902054909150808214611e98576001600160a01b03841660009081526006602090815260408083208584528252808320548484528184208190558352600790915290208190555b5060009182526007602090815260408084208490556001600160a01b039094168352600681528383209183525290812055565b600854600090611edd90600190612deb565b60008381526009602052604081205460088054939450909284908110611f1357634e487b7160e01b600052603260045260246000fd5b906000526020600020015490508060088381548110611f4257634e487b7160e01b600052603260045260246000fd5b6000918252602080832090910192909255828152600990915260408082208490558582528120556008805480611f8857634e487b7160e01b600052603160045260246000fd5b6001900381819060005260206000200160009055905550505050565b6000611faf83610b84565b6001600160a01b039093166000908152600660209081526040808320868452825280832085905593825260079052919091209190915550565b3b151590565b828054611ffa90612e45565b90600052602060002090601f01602090048101928261201c5760008555612062565b82601f1061203557805160ff1916838001178555612062565b82800160010185558215612062579182015b82811115612062578251825591602001919060010190612047565b5061206e929150612072565b5090565b5b8082111561206e5760008155600101612073565b60006001600160401b03808411156120a1576120a1612edb565b604051601f8501601f19908116603f011681019082821181831017156120c9576120c9612edb565b816040528093508581528686860111156120e257600080fd5b858560208301376000602087830101525050509392505050565b80356001600160a01b03811681146103c757600080fd5b600082601f830112612123578081fd5b61123d83833560208501612087565b803560ff811681146103c757600080fd5b600060208284031215612154578081fd5b61123d826120fc565b6000806040838503121561216f578081fd5b612178836120fc565b9150612186602084016120fc565b90509250929050565b6000806000606084860312156121a3578081fd5b6121ac846120fc565b92506121ba602085016120fc565b9150604084013590509250925092565b600080600080608085870312156121df578081fd5b6121e8856120fc565b93506121f6602086016120fc565b92506040850135915060608501356001600160401b03811115612217578182fd5b8501601f81018713612227578182fd5b61223687823560208401612087565b91505092959194509250565b60008060408385031215612254578182fd5b61225d836120fc565b915060208301358015158114612271578182fd5b809150509250929050565b6000806040838503121561228e578182fd5b612297836120fc565b915060208301356001600160401b038111156122b1578182fd5b6122bd85828601612113565b9150509250929050565b600080604083850312156122d9578182fd5b6122e2836120fc565b946020939093013593505050565b600060208284031215612301578081fd5b813561123d81612ef1565b60006020828403121561231d578081fd5b815161123d81612ef1565b600060208284031215612339578081fd5b81356001600160401b0381111561234e578182fd5b61149184828501612113565b60008060006060848603121561236e578283fd5b83356001600160401b03811115612383578384fd5b61238f86828701612113565b93505061239e60208501612132565b91506123ac60408501612132565b90509250925092565b6000602082840312156123c6578081fd5b5035919050565b6000806000606084860312156123e1578283fd5b8335925060208401356001600160401b038111156123fd578283fd5b61240986828701612113565b9250506123ac60408501612132565b60008151808452612430816020860160208601612e02565b601f01601f19169290920160200192915050565b60008251612456818460208701612e02565b9190910192915050565b60008351612472818460208801612e02565b835190830190612486818360208801612e02565b01949350505050565b92835260609190911b6bffffffffffffffffffffffff19166020830152603482015260540190565b6001600160a01b0391909116815260200190565b6001600160a01b03858116825284166020820152604081018390526080606082018190526000906124fe90830184612418565b9695505050505050565b6001600160a01b038316815260406020820181905260009061149190830184612418565b901515815260200190565b60006020825261123d6020830184612418565b60006080825261255d6080830187612418565b60ff958616602084015293909416604082015290151560609091015292915050565b600060e0825261259260e083018a612418565b60ff988916602084015296909716604082015260608101949094526080840192909252151560a0830152151560c09091015292915050565b60006020808352818454836002820490506001808316806125ec57607f831692505b85831081141561260a57634e487b7160e01b87526022600452602487fd5b61261683878a01612d8b565b81801561262a576001811461263b57612665565b60ff19861682528782019650612665565b6126448b612d94565b895b8681101561265f57815484820152908501908901612646565b83019750505b50949998505050505050505050565b6020808252601690820152752737ba1030903932b3b4ba32b932b210383630bcb2b960511b604082015260600190565b6020808252602b908201527f455243373231456e756d657261626c653a206f776e657220696e646578206f7560408201526a74206f6620626f756e647360a81b606082015260800190565b60208082526032908201527f4552433732313a207472616e7366657220746f206e6f6e20455243373231526560408201527131b2b4bb32b91034b6b83632b6b2b73a32b960711b606082015260800190565b60208082526026908201527f4f776e61626c653a206e6577206f776e657220697320746865207a65726f206160408201526564647265737360d01b606082015260800190565b6020808252601c908201527f4552433732313a20746f6b656e20616c7265616479206d696e74656400000000604082015260600190565b60208082526024908201527f4552433732313a207472616e7366657220746f20746865207a65726f206164646040820152637265737360e01b606082015260800190565b60208082526019908201527822a9219b99189d1030b8383937bb32903a379031b0b63632b960391b604082015260600190565b6020808252602a908201527f796f7520617265206e6f7420617574686f72697a656420746f207365742074686040820152691a5cc81858d8dbdd5b9d60b21b606082015260800190565b60208082526021908201527f7468697320706c6179657220697320616c7265616479207265676973746572656040820152601960fa1b606082015260800190565b6020808252602c908201527f4552433732313a206f70657261746f7220717565727920666f72206e6f6e657860408201526b34b9ba32b73a103a37b5b2b760a11b606082015260800190565b60208082526038908201527f4552433732313a20617070726f76652063616c6c6572206973206e6f74206f776040820152771b995c881b9bdc88185c1c1c9bdd995908199bdc88185b1b60421b606082015260800190565b60208082526029908201527f796f7520617265206e6f7420617574686f72697a656420746f20757064617465604082015268103090383630bcb2b960b91b606082015260800190565b6020808252602a908201527f4552433732313a2062616c616e636520717565727920666f7220746865207a65604082015269726f206164647265737360b01b606082015260800190565b60208082526029908201527f4552433732313a206f776e657220717565727920666f72206e6f6e657869737460408201526832b73a103a37b5b2b760b91b606082015260800190565b6020808252603a908201527f5468657265206973206e6f7420656e6f756768206974656d20617661696c626160408201527f6c652c20706c6561736520636f6d65206261636b206c61746572000000000000606082015260800190565b6020808252818101527f4552433732313a206d696e7420746f20746865207a65726f2061646472657373604082015260600190565b6020808252601a908201527f596f752068617665206e6f207265776172647320746f20676574000000000000604082015260600190565b6020808252602c908201527f4552433732313a20617070726f76656420717565727920666f72206e6f6e657860408201526b34b9ba32b73a103a37b5b2b760a11b606082015260800190565b6020808252818101527f4f776e61626c653a2063616c6c6572206973206e6f7420746865206f776e6572604082015260600190565b60208082526029908201527f4552433732313a207472616e73666572206f6620746f6b656e2074686174206960408201526839903737ba1037bbb760b91b606082015260800190565b6020808252602f908201527f4552433732314d657461646174613a2055524920717565727920666f72206e6f60408201526e3732bc34b9ba32b73a103a37b5b2b760891b606082015260800190565b60208082526021908201527f4552433732313a20617070726f76616c20746f2063757272656e74206f776e656040820152603960f91b606082015260800190565b6020808252601b908201527f4e6f6e6520617661696c61626c65206974656d20666f72206e6f770000000000604082015260600190565b60208082526031908201527f4552433732313a207472616e736665722063616c6c6572206973206e6f74206f6040820152701ddb995c881b9bdc88185c1c1c9bdd9959607a1b606082015260800190565b60208082526034908201527f706c656173652073657420666972737420616e20457468657265756d206164646040820152733932b9b9903337b9103a3434b990383630bcb2b960611b606082015260800190565b6020808252602c908201527f455243373231456e756d657261626c653a20676c6f62616c20696e646578206f60408201526b7574206f6620626f756e647360a01b606082015260800190565b90815260200190565b60009081526020902090565b60008219821115612db357612db3612eaf565b500190565b600082612dc757612dc7612ec5565b500490565b6000816000190483118215151615612de657612de6612eaf565b500290565b600082821015612dfd57612dfd612eaf565b500390565b60005b83811015612e1d578181015183820152602001612e05565b838111156110d65750506000910152565b600081612e3d57612e3d612eaf565b506000190190565b600281046001821680612e5957607f821691505b60208210811415612e7a57634e487b7160e01b600052602260045260246000fd5b50919050565b6000600019821415612e9457612e94612eaf565b5060010190565b600082612eaa57612eaa612ec5565b500690565b634e487b7160e01b600052601160045260246000fd5b634e487b7160e01b600052601260045260246000fd5b634e487b7160e01b600052604160045260246000fd5b6001600160e01b03198116811461130657600080fdfea26469706673582212203c0827319967ed81e39a204741b854fd60feae32a3fdf608324e6c849093275264736f6c63430008010033",
  "immutableReferences": {},
  "source": "// SPDX-License-Identifier: GPL-3.0\r\n\r\npragma solidity 0.8.1;\r\n\r\nimport \"./itemsFactory.sol\";\r\n\r\n/**\r\n * @title Change the cases in items\r\n * @notice This contract allows players to change the reward earned for NFT\r\n * @dev The selected items given to the players come from the data base create in the factory by the administrator.\r\n * Only unlock items can be distributed \r\n */\r\ncontract convertRewardNFT is itemsFactory {\r\n    \r\n   ///@dev RandNonce for the random Item \r\n    uint private randNonce = 1;\r\n    \r\n    event rewardWithdrawn(string tokenName);\r\n    \r\n    ///@dev Transform the reward as a NFT\r\n    function getReward () public {\r\n        require (balanceOf(_administrator) != 0, \"None available item for now\");\r\n        require (multiverseData[msg.sender].isRegistered, \"Not a regitered player\");\r\n        require (multiverseData[msg.sender].rewardLv1 != 0 || multiverseData[msg.sender].rewardLv2 != 0, \"You have no rewards to get\");\r\n        \r\n        randNonce ++;\r\n        \r\n        if (multiverseData[msg.sender].rewardLv1 != 0){\r\n          for (uint i = multiverseData[msg.sender].rewardLv1; i > 0; i-- ){\r\n            uint idItem =  getAvailableItem(1); \r\n             _transfer(_administrator, msg.sender, idItem);\r\n             emit rewardWithdrawn(items[idItem].name);\r\n          }\r\n          multiverseData[msg.sender].rewardLv1 = 0;\r\n        }\r\n        \r\n        if (multiverseData[msg.sender].rewardLv2 != 0){\r\n          for (uint i = multiverseData[msg.sender].rewardLv2; i > 0; i-- ){\r\n            uint idItem =  getAvailableItem(2); \r\n            _transfer(_administrator, msg.sender, idItem);\r\n            emit rewardWithdrawn(items[idItem].name);\r\n          }\r\n          multiverseData[msg.sender].rewardLv2 = 0;\r\n        }\r\n    }\r\n    \r\n    /**\r\n     * @dev Get an available item in the main database of unlock items.\r\n     * First we create the size of an array, then we fill it with the eligible token \r\n     * and at the end we send the Id of the won token\r\n     */\r\n    function getAvailableItem(uint8 _level) private view returns(uint){\r\n   \r\n        uint sizeArray;\r\n        uint Id;\r\n        \r\n        for (uint k; k < balanceOf(_administrator); k++){\r\n            if (!items[tokenOfOwnerByIndex(_administrator,k)].locked && items[tokenOfOwnerByIndex(_administrator,k)].levelItem == _level){\r\n              sizeArray++;\r\n            }\r\n          }\r\n    \r\n        if (sizeArray == 0){\r\n          revert('There is not enough item availbale, please come back later');\r\n        } else {\r\n    \r\n          uint[] memory availableItem = new uint[](sizeArray);   \r\n    \r\n          for (uint k; k <balanceOf(_administrator); k++){\r\n            if (!items[tokenOfOwnerByIndex(_administrator,k)].locked && items[tokenOfOwnerByIndex(_administrator,k)].levelItem == _level){\r\n              availableItem[Id] = tokenOfOwnerByIndex(_administrator,k);\r\n              Id++;\r\n            }\r\n          }\r\n          uint randReward = uint(keccak256 (abi.encodePacked(block.timestamp, msg.sender, randNonce))) % availableItem.length;\r\n          return availableItem[randReward];\r\n        }\r\n    }\r\n}\r\n",
  "sourcePath": "C:\\Users\\fboud\\OneDrive\\Documents\\Alyra\\projetFinal\\contracts\\convertRewardNFT.sol",
  "compiler": {
    "name": "solc",
    "version": "0.8.1+commit.df193b15.Emscripten.clang"
  },
  "schemaVersion": "3.4.2",
  "updatedAt": "2021-07-31T18:44:58.339Z",
  "devdoc": {
    "details": "The selected items given to the players come from the data base create in the factory by the administrator. Only unlock items can be distributed ",
    "kind": "dev",
    "methods": {
      "approve(address,uint256)": {
        "details": "See {IERC721-approve}."
      },
      "balanceOf(address)": {
        "details": "See {IERC721-balanceOf}."
      },
      "createItem(uint256,string,uint8)": {
        "details": "Function allowing to create items. Only the adminstrator can make one"
      },
      "getApproved(uint256)": {
        "details": "See {IERC721-getApproved}."
      },
      "getReward()": {
        "details": "Transform the reward as a NFT"
      },
      "isApprovedForAll(address,address)": {
        "details": "See {IERC721-isApprovedForAll}."
      },
      "name()": {
        "details": "See {IERC721Metadata-name}."
      },
      "owner()": {
        "details": "Returns the address of the current owner."
      },
      "ownerOf(uint256)": {
        "details": "See {IERC721-ownerOf}."
      },
      "renounceOwnership()": {
        "details": "Leaves the contract without owner. It will not be possible to call `onlyOwner` functions anymore. Can only be called by the current owner. NOTE: Renouncing ownership will leave the contract without an owner, thereby removing any functionality that is only available to the owner."
      },
      "safeTransferFrom(address,address,uint256)": {
        "details": "See {IERC721-safeTransferFrom}."
      },
      "safeTransferFrom(address,address,uint256,bytes)": {
        "details": "See {IERC721-safeTransferFrom}."
      },
      "setApprovalForAll(address,bool)": {
        "details": "See {IERC721-setApprovalForAll}."
      },
      "setMultiversePlayer(address,string)": {
        "details": "link a login with a player. The login must be the exact same one than the one used in POW"
      },
      "supportsInterface(bytes4)": {
        "details": "See {IERC165-supportsInterface}."
      },
      "symbol()": {
        "details": "See {IERC721Metadata-symbol}."
      },
      "tokenByIndex(uint256)": {
        "details": "See {IERC721Enumerable-tokenByIndex}."
      },
      "tokenOfOwnerByIndex(address,uint256)": {
        "details": "See {IERC721Enumerable-tokenOfOwnerByIndex}."
      },
      "tokenURI(uint256)": {
        "details": "See {IERC721Metadata-tokenURI}."
      },
      "totalSupply()": {
        "details": "See {IERC721Enumerable-totalSupply}."
      },
      "transferFrom(address,address,uint256)": {
        "details": "See {IERC721-transferFrom}."
      },
      "transferOwnership(address)": {
        "details": "Transfers ownership of the contract to a new account (`newOwner`). Can only be called by the current owner."
      },
      "updateMultiversePlayer(string,uint8,uint8)": {
        "details": "Update the data of a registered player. The adnministrator Only can set this. In the future, the oracle will do that"
      }
    },
    "stateVariables": {
      "randNonce": {
        "details": "RandNonce for the random Item "
      }
    },
    "title": "Change the cases in items",
    "version": 1
  },
  "userdoc": {
    "kind": "user",
    "methods": {},
    "notice": "This contract allows players to change the reward earned for NFT",
    "version": 1
  }
}