{
  "contractName": "convertRewardNFT",
  "abi": [
    {
      "anonymous": false,
      "inputs": [
        {
          "indexed": true,
          "internalType": "address",
          "name": "owner",
          "type": "address"
        },
        {
          "indexed": true,
          "internalType": "address",
          "name": "approved",
          "type": "address"
        },
        {
          "indexed": true,
          "internalType": "uint256",
          "name": "tokenId",
          "type": "uint256"
        }
      ],
      "name": "Approval",
      "type": "event"
    },
    {
      "anonymous": false,
      "inputs": [
        {
          "indexed": true,
          "internalType": "address",
          "name": "owner",
          "type": "address"
        },
        {
          "indexed": true,
          "internalType": "address",
          "name": "operator",
          "type": "address"
        },
        {
          "indexed": false,
          "internalType": "bool",
          "name": "approved",
          "type": "bool"
        }
      ],
      "name": "ApprovalForAll",
      "type": "event"
    },
    {
      "anonymous": false,
      "inputs": [
        {
          "indexed": false,
          "internalType": "address",
          "name": "addressPlayer",
          "type": "address"
        },
        {
          "indexed": false,
          "internalType": "string",
          "name": "loginPlayer",
          "type": "string"
        }
      ],
      "name": "NewPlayerRegistered",
      "type": "event"
    },
    {
      "anonymous": false,
      "inputs": [
        {
          "indexed": true,
          "internalType": "address",
          "name": "previousOwner",
          "type": "address"
        },
        {
          "indexed": true,
          "internalType": "address",
          "name": "newOwner",
          "type": "address"
        }
      ],
      "name": "OwnershipTransferred",
      "type": "event"
    },
    {
      "anonymous": false,
      "inputs": [
        {
          "indexed": true,
          "internalType": "address",
          "name": "from",
          "type": "address"
        },
        {
          "indexed": true,
          "internalType": "address",
          "name": "to",
          "type": "address"
        },
        {
          "indexed": true,
          "internalType": "uint256",
          "name": "tokenId",
          "type": "uint256"
        }
      ],
      "name": "Transfer",
      "type": "event"
    },
    {
      "anonymous": false,
      "inputs": [
        {
          "indexed": false,
          "internalType": "string",
          "name": "login",
          "type": "string"
        }
      ],
      "name": "playerUpdated",
      "type": "event"
    },
    {
      "anonymous": false,
      "inputs": [
        {
          "indexed": false,
          "internalType": "uint256",
          "name": "tokenId",
          "type": "uint256"
        }
      ],
      "name": "rewardWithdrawn",
      "type": "event"
    },
    {
      "inputs": [
        {
          "internalType": "address",
          "name": "to",
          "type": "address"
        },
        {
          "internalType": "uint256",
          "name": "tokenId",
          "type": "uint256"
        }
      ],
      "name": "approve",
      "outputs": [],
      "stateMutability": "nonpayable",
      "type": "function"
    },
    {
      "inputs": [
        {
          "internalType": "address",
          "name": "owner",
          "type": "address"
        }
      ],
      "name": "balanceOf",
      "outputs": [
        {
          "internalType": "uint256",
          "name": "",
          "type": "uint256"
        }
      ],
      "stateMutability": "view",
      "type": "function"
    },
    {
      "inputs": [
        {
          "internalType": "uint256",
          "name": "_type",
          "type": "uint256"
        },
        {
          "internalType": "string",
          "name": "_name",
          "type": "string"
        },
        {
          "internalType": "uint8",
          "name": "_continent",
          "type": "uint8"
        }
      ],
      "name": "createItem",
      "outputs": [],
      "stateMutability": "nonpayable",
      "type": "function"
    },
    {
      "inputs": [
        {
          "internalType": "uint256",
          "name": "",
          "type": "uint256"
        }
      ],
      "name": "exemplaireNumbers",
      "outputs": [
        {
          "internalType": "uint256",
          "name": "",
          "type": "uint256"
        }
      ],
      "stateMutability": "view",
      "type": "function"
    },
    {
      "inputs": [
        {
          "internalType": "uint256",
          "name": "tokenId",
          "type": "uint256"
        }
      ],
      "name": "getApproved",
      "outputs": [
        {
          "internalType": "address",
          "name": "",
          "type": "address"
        }
      ],
      "stateMutability": "view",
      "type": "function"
    },
    {
      "inputs": [
        {
          "internalType": "address",
          "name": "owner",
          "type": "address"
        },
        {
          "internalType": "address",
          "name": "operator",
          "type": "address"
        }
      ],
      "name": "isApprovedForAll",
      "outputs": [
        {
          "internalType": "bool",
          "name": "",
          "type": "bool"
        }
      ],
      "stateMutability": "view",
      "type": "function"
    },
    {
      "inputs": [
        {
          "internalType": "uint256",
          "name": "",
          "type": "uint256"
        }
      ],
      "name": "items",
      "outputs": [
        {
          "internalType": "string",
          "name": "name",
          "type": "string"
        },
        {
          "internalType": "uint8",
          "name": "levelItem",
          "type": "uint8"
        },
        {
          "internalType": "uint8",
          "name": "continent",
          "type": "uint8"
        },
        {
          "internalType": "uint256",
          "name": "tokenId",
          "type": "uint256"
        },
        {
          "internalType": "uint256",
          "name": "composition",
          "type": "uint256"
        },
        {
          "internalType": "bool",
          "name": "locked",
          "type": "bool"
        },
        {
          "internalType": "bool",
          "name": "onSold",
          "type": "bool"
        }
      ],
      "stateMutability": "view",
      "type": "function"
    },
    {
      "inputs": [
        {
          "internalType": "address",
          "name": "",
          "type": "address"
        }
      ],
      "name": "multiverseData",
      "outputs": [
        {
          "internalType": "string",
          "name": "login",
          "type": "string"
        },
        {
          "internalType": "uint8",
          "name": "rewardLv1",
          "type": "uint8"
        },
        {
          "internalType": "uint8",
          "name": "rewardLv2",
          "type": "uint8"
        },
        {
          "internalType": "bool",
          "name": "isRegistered",
          "type": "bool"
        }
      ],
      "stateMutability": "view",
      "type": "function"
    },
    {
      "inputs": [
        {
          "internalType": "string",
          "name": "",
          "type": "string"
        }
      ],
      "name": "multiverseIds",
      "outputs": [
        {
          "internalType": "address",
          "name": "",
          "type": "address"
        }
      ],
      "stateMutability": "view",
      "type": "function"
    },
    {
      "inputs": [],
      "name": "name",
      "outputs": [
        {
          "internalType": "string",
          "name": "",
          "type": "string"
        }
      ],
      "stateMutability": "view",
      "type": "function"
    },
    {
      "inputs": [],
      "name": "owner",
      "outputs": [
        {
          "internalType": "address",
          "name": "",
          "type": "address"
        }
      ],
      "stateMutability": "view",
      "type": "function"
    },
    {
      "inputs": [
        {
          "internalType": "uint256",
          "name": "tokenId",
          "type": "uint256"
        }
      ],
      "name": "ownerOf",
      "outputs": [
        {
          "internalType": "address",
          "name": "",
          "type": "address"
        }
      ],
      "stateMutability": "view",
      "type": "function"
    },
    {
      "inputs": [],
      "name": "renounceOwnership",
      "outputs": [],
      "stateMutability": "nonpayable",
      "type": "function"
    },
    {
      "inputs": [
        {
          "internalType": "address",
          "name": "from",
          "type": "address"
        },
        {
          "internalType": "address",
          "name": "to",
          "type": "address"
        },
        {
          "internalType": "uint256",
          "name": "tokenId",
          "type": "uint256"
        }
      ],
      "name": "safeTransferFrom",
      "outputs": [],
      "stateMutability": "nonpayable",
      "type": "function"
    },
    {
      "inputs": [
        {
          "internalType": "address",
          "name": "from",
          "type": "address"
        },
        {
          "internalType": "address",
          "name": "to",
          "type": "address"
        },
        {
          "internalType": "uint256",
          "name": "tokenId",
          "type": "uint256"
        },
        {
          "internalType": "bytes",
          "name": "_data",
          "type": "bytes"
        }
      ],
      "name": "safeTransferFrom",
      "outputs": [],
      "stateMutability": "nonpayable",
      "type": "function"
    },
    {
      "inputs": [
        {
          "internalType": "address",
          "name": "operator",
          "type": "address"
        },
        {
          "internalType": "bool",
          "name": "approved",
          "type": "bool"
        }
      ],
      "name": "setApprovalForAll",
      "outputs": [],
      "stateMutability": "nonpayable",
      "type": "function"
    },
    {
      "inputs": [
        {
          "internalType": "address",
          "name": "_addressPlayer",
          "type": "address"
        },
        {
          "internalType": "string",
          "name": "_login",
          "type": "string"
        }
      ],
      "name": "setMultiversePlayer",
      "outputs": [],
      "stateMutability": "nonpayable",
      "type": "function"
    },
    {
      "inputs": [
        {
          "internalType": "bytes4",
          "name": "interfaceId",
          "type": "bytes4"
        }
      ],
      "name": "supportsInterface",
      "outputs": [
        {
          "internalType": "bool",
          "name": "",
          "type": "bool"
        }
      ],
      "stateMutability": "view",
      "type": "function"
    },
    {
      "inputs": [],
      "name": "symbol",
      "outputs": [
        {
          "internalType": "string",
          "name": "",
          "type": "string"
        }
      ],
      "stateMutability": "view",
      "type": "function"
    },
    {
      "inputs": [
        {
          "internalType": "uint256",
          "name": "index",
          "type": "uint256"
        }
      ],
      "name": "tokenByIndex",
      "outputs": [
        {
          "internalType": "uint256",
          "name": "",
          "type": "uint256"
        }
      ],
      "stateMutability": "view",
      "type": "function"
    },
    {
      "inputs": [
        {
          "internalType": "address",
          "name": "owner",
          "type": "address"
        },
        {
          "internalType": "uint256",
          "name": "index",
          "type": "uint256"
        }
      ],
      "name": "tokenOfOwnerByIndex",
      "outputs": [
        {
          "internalType": "uint256",
          "name": "",
          "type": "uint256"
        }
      ],
      "stateMutability": "view",
      "type": "function"
    },
    {
      "inputs": [
        {
          "internalType": "uint256",
          "name": "tokenId",
          "type": "uint256"
        }
      ],
      "name": "tokenURI",
      "outputs": [
        {
          "internalType": "string",
          "name": "",
          "type": "string"
        }
      ],
      "stateMutability": "view",
      "type": "function"
    },
    {
      "inputs": [],
      "name": "totalSupply",
      "outputs": [
        {
          "internalType": "uint256",
          "name": "",
          "type": "uint256"
        }
      ],
      "stateMutability": "view",
      "type": "function"
    },
    {
      "inputs": [
        {
          "internalType": "address",
          "name": "from",
          "type": "address"
        },
        {
          "internalType": "address",
          "name": "to",
          "type": "address"
        },
        {
          "internalType": "uint256",
          "name": "tokenId",
          "type": "uint256"
        }
      ],
      "name": "transferFrom",
      "outputs": [],
      "stateMutability": "nonpayable",
      "type": "function"
    },
    {
      "inputs": [
        {
          "internalType": "address",
          "name": "newOwner",
          "type": "address"
        }
      ],
      "name": "transferOwnership",
      "outputs": [],
      "stateMutability": "nonpayable",
      "type": "function"
    },
    {
      "inputs": [
        {
          "internalType": "string",
          "name": "_login",
          "type": "string"
        },
        {
          "internalType": "uint8",
          "name": "_rewardLv1",
          "type": "uint8"
        },
        {
          "internalType": "uint8",
          "name": "_rewardLv2",
          "type": "uint8"
        }
      ],
      "name": "updateMultiversePlayer",
      "outputs": [],
      "stateMutability": "nonpayable",
      "type": "function"
    },
    {
      "inputs": [],
      "name": "getReward",
      "outputs": [],
      "stateMutability": "nonpayable",
      "type": "function"
    },
    {
      "inputs": [
        {
          "internalType": "uint8",
          "name": "_level",
          "type": "uint8"
        }
      ],
      "name": "getAvailableItem",
      "outputs": [
        {
          "internalType": "uint256",
          "name": "",
          "type": "uint256"
        }
      ],
      "stateMutability": "view",
      "type": "function"
    }
  ],
  "bytecode": "0x60806040526001600e556002600f55600360105560016013553480156200002557600080fd5b506040805180820182526007815266706f77556e697160c81b602080830191825283518085019094526003845262504f5760e81b908401528151919291620000709160009162000111565b5080516200008690600190602084019062000111565b505050620000a36200009d620000bb60201b60201c565b620000bf565b600b80546001600160a01b03191633179055620001f4565b3390565b600a80546001600160a01b038381166001600160a01b0319831681179093556040519116919082907f8be0079c531659141344cd1fd0a4f28419497f9722a3daafe3b4186f6b6457e090600090a35050565b8280546200011f90620001b7565b90600052602060002090601f0160209004810192826200014357600085556200018e565b82601f106200015e57805160ff19168380011785556200018e565b828001600101855582156200018e579182015b828111156200018e57825182559160200191906001019062000171565b506200019c929150620001a0565b5090565b5b808211156200019c5760008155600101620001a1565b600281046001821680620001cc57607f821691505b60208210811415620001ee57634e487b7160e01b600052602260045260246000fd5b50919050565b612e4f80620002046000396000f3fe608060405234801561001057600080fd5b50600436106101845760003560e01c8063715018a6116100d9578063b88d4fde11610087578063b88d4fde14610325578063bfb231d214610338578063c87b56dd1461035e578063d9f9232914610371578063e985e9c514610384578063e9dbd45a14610397578063f2fde38b146103aa57610184565b8063715018a6146102b15780637538822e146102b957806375adb7fd146102cc5780638da5cb5b146102ef57806395d89b41146102f75780639b008e47146102ff578063a22cb4651461031257610184565b80632f745c59116101365780632f745c59146102375780633d18b9121461024a57806342842e0e146102525780634f6ccce7146102655780636352211e14610278578063661c2b601461028b57806370a082311461029e57610184565b806301ffc9a71461018957806306fdde03146101b2578063081812fc146101c7578063095ea7b3146101e757806318160ddd146101fc5780631f5710891461021157806323b872dd14610224575b600080fd5b61019c61019736600461229e565b6103bd565b6040516101a991906124f4565b60405180910390f35b6101ba6103ea565b6040516101a991906124ff565b6101da6101d5366004612363565b61047c565b6040516101a9919061247f565b6101fa6101f5366004612275565b6104c8565b005b610204610560565b6040516101a99190612ca9565b6101fa61021f36600461237b565b610566565b6101fa61023236600461213d565b61078e565b610204610245366004612275565b6107c6565b6101fa610818565b6101fa61026036600461213d565b610a83565b610204610273366004612363565b610a9e565b6101da610286366004612363565b610af9565b610204610299366004612363565b610b2e565b6102046102ac3660046120f1565b610b40565b6101fa610b84565b6101fa6102c7366004612308565b610bcd565b6102df6102da3660046120f1565b610d68565b6040516101a99493929190612512565b6101da610e22565b6101ba610e31565b6101fa61030d36600461222a565b610e40565b6101fa6103203660046121f0565b610f7d565b6101fa610333366004612178565b61104b565b61034b610346366004612363565b61108a565b6040516101a99796959493929190612547565b6101ba61036c366004612363565b61116f565b61020461037f3660046123c6565b6111f2565b61019c61039236600461210b565b6114fb565b6101da6103a53660046122d6565b611529565b6101fa6103b83660046120f1565b61154f565b60006001600160e01b0319821663780e9d6360e01b14806103e257506103e2826115c0565b90505b919050565b6060600080546103f990612d57565b80601f016020809104026020016040519081016040528092919081815260200182805461042590612d57565b80156104725780601f1061044757610100808354040283529160200191610472565b820191906000526020600020905b81548152906001019060200180831161045557829003601f168201915b5050505050905090565b600061048782611600565b6104ac5760405162461bcd60e51b81526004016104a390612a27565b60405180910390fd5b506000908152600460205260409020546001600160a01b031690565b60006104d382610af9565b9050806001600160a01b0316836001600160a01b031614156105075760405162461bcd60e51b81526004016104a390612b40565b806001600160a01b031661051961161d565b6001600160a01b0316148061053557506105358161039261161d565b6105515760405162461bcd60e51b81526004016104a39061282a565b61055b8383611621565b505050565b60085490565b61056e61161d565b6001600160a01b031661057f610e22565b6001600160a01b0316146105a55760405162461bcd60e51b81526004016104a390612a73565b601154600e5460009182918291829182908914156105f5576105c68861168f565b95506105ee604051806040016040528060058152602001643830b832b960d91b8152506116c8565b9450600290505b600f5489141561060f57610608886116c8565b9450600290505b601054891415610629576106228861168f565b9550600190505b60126000610637888861170c565b81526020019081526020016000205460016106529190612cb2565b935061065f868686611725565b92508360126000610670898961170c565b815260208101919091526040016000205561068b3383611750565b6040805160e08101825289815260ff808416602080840191909152908a16928201929092526060810184905260808101859052600060a0820181905260c0820181905260118054600181018255915281518051929360059092027f31ecc21a745e3968a04e9570e4425bc18fa8019c68028196b546d1669c200c6801926107159284920190611f9c565b506020820151600182018054604085015160ff90811661010090810261ff00199290951660ff1993841617821694909417909255606085015160028501556080850151600385015560a08501516004909401805460c0909601511515909302931515941693909317909216179055505050505050505050565b61079f61079961161d565b8261176e565b6107bb5760405162461bcd60e51b81526004016104a390612bb8565b61055b8383836117eb565b60006107d183610b40565b82106107ef5760405162461bcd60e51b81526004016104a3906125c2565b506001600160a01b03919091166000908152600660209081526040808320938352929052205490565b600b5461082d906001600160a01b0316610b40565b6108495760405162461bcd60e51b81526004016104a390612b81565b336000908152600d602052604090206001015462010000900460ff166108815760405162461bcd60e51b81526004016104a390612592565b336000908152600d602052604090206001015460ff161515806108bd5750336000908152600d6020526040902060010154610100900460ff1615155b6108d95760405162461bcd60e51b81526004016104a3906129f0565b601380549060006108e983612d92565b9091555050336000908152600d602052604090206001015460ff16156109b257336000908152600d602052604090206001015460ff165b801561099657600061093260016111f2565b600b5490915061094c906001600160a01b031633836117eb565b7f685b919316cd6e6eb2dcaf93a1343fad493c1b38394a41031a14c413547c6ad48160405161097b9190612ca9565b60405180910390a1508061098e81612d40565b915050610920565b50336000908152600d60205260409020600101805460ff191690555b336000908152600d6020526040902060010154610100900460ff1615610a8157336000908152600d6020526040902060010154610100900460ff165b8015610a64576000610a0060026111f2565b600b54909150610a1a906001600160a01b031633836117eb565b7f685b919316cd6e6eb2dcaf93a1343fad493c1b38394a41031a14c413547c6ad481604051610a499190612ca9565b60405180910390a15080610a5c81612d40565b9150506109ee565b50336000908152600d60205260409020600101805461ff00191690555b565b61055b8383836040518060200160405280600081525061104b565b6000610aa8610560565b8210610ac65760405162461bcd60e51b81526004016104a390612c5d565b60088281548110610ae757634e487b7160e01b600052603260045260246000fd5b90600052602060002001549050919050565b6000818152600260205260408120546001600160a01b0316806103e25760405162461bcd60e51b81526004016104a390612915565b60126020526000908152604090205481565b60006001600160a01b038216610b685760405162461bcd60e51b81526004016104a3906128cb565b506001600160a01b031660009081526003602052604090205490565b610b8c61161d565b6001600160a01b0316610b9d610e22565b6001600160a01b031614610bc35760405162461bcd60e51b81526004016104a390612a73565b610a816000611918565b600b546001600160a01b03163314610bf75760405162461bcd60e51b81526004016104a390612882565b600d6000600c85604051610c0b919061240c565b9081526040805160209281900383019020546001600160a01b03168352908201929092520160002060019081015462010000900460ff16151514610c615760405162461bcd60e51b81526004016104a390612c09565b60405180608001604052808481526020018360ff1681526020018260ff16815260200160011515815250600d6000600c86604051610c9f919061240c565b9081526040805160209281900383019020546001600160a01b03168352828201939093529101600020825180519192610cdd92849290910190611f9c565b506020820151600190910180546040808501516060909501511515620100000262ff00001960ff9687166101000261ff00199790961660ff199094169390931795909516939093171692909217909155517faa6183438646fc8bb56f82868ce90c0a5bd1301970b115e976c90c1d696a155090610d5b9085906124ff565b60405180910390a1505050565b600d60205260009081526040902080548190610d8390612d57565b80601f0160208091040260200160405190810160405280929190818152602001828054610daf90612d57565b8015610dfc5780601f10610dd157610100808354040283529160200191610dfc565b820191906000526020600020905b815481529060010190602001808311610ddf57829003601f168201915b5050506001909301549192505060ff808216916101008104821691620100009091041684565b600a546001600160a01b031690565b6060600180546103f990612d57565b600b546001600160a01b0316331480610e615750336001600160a01b038316145b610e7d5760405162461bcd60e51b81526004016104a390612753565b600d6000600c83604051610e91919061240c565b9081526040805160209281900383019020546001600160a01b0316835290820192909252016000206001015462010000900460ff1615610ee35760405162461bcd60e51b81526004016104a39061279d565b81600c82604051610ef4919061240c565b908152604080516020928190038301812080546001600160a01b0319166001600160a01b039586161790559285166000908152600d909252902060010180546201000062ff0000199091161790557fd1271c0a878b06e77c2b145e81fda258074d1d9f72d29461da6de567fe185db390610f7190849084906124d0565b60405180910390a15050565b610f8561161d565b6001600160a01b0316826001600160a01b03161415610fb65760405162461bcd60e51b81526004016104a390612720565b8060056000610fc361161d565b6001600160a01b03908116825260208083019390935260409182016000908120918716808252919093529120805460ff19169215159290921790915561100761161d565b6001600160a01b03167f17307eab39ab6107e8899845ad3d59bd9653f200f220920489ca2b5937696c318360405161103f91906124f4565b60405180910390a35050565b61105c61105661161d565b8361176e565b6110785760405162461bcd60e51b81526004016104a390612bb8565b6110848484848461196a565b50505050565b6011818154811061109a57600080fd5b90600052602060002090600502016000915090508060000180546110bd90612d57565b80601f01602080910402602001604051908101604052809291908181526020018280546110e990612d57565b80156111365780601f1061110b57610100808354040283529160200191611136565b820191906000526020600020905b81548152906001019060200180831161111957829003601f168201915b505050600184015460028501546003860154600490960154949560ff808416966101009485900482169650929450909282821692041687565b606061117a82611600565b6111965760405162461bcd60e51b81526004016104a390612af1565b60006111a061199d565b905060008151116111c057604051806020016040528060008152506111eb565b806111ca846119af565b6040516020016111db929190612428565b6040516020818303038152906040525b9392505050565b6000806000805b600b5461120e906001600160a01b0316610b40565b8110156112e557600b5460119061122e906001600160a01b0316836107c6565b8154811061124c57634e487b7160e01b600052603260045260246000fd5b600091825260209091206004600590920201015460ff161580156112c05750600b5460ff861690601190611289906001600160a01b0316846107c6565b815481106112a757634e487b7160e01b600052603260045260246000fd5b600091825260209091206001600590920201015460ff16145b156112d357826112cf81612d92565b9350505b806112dd81612d92565b9150506111f9565b50816113035760405162461bcd60e51b81526004016104a39061295e565b6000826001600160401b0381111561132b57634e487b7160e01b600052604160045260246000fd5b604051908082528060200260200182016040528015611354578160200160208202803683370190505b50905060005b600b5461136f906001600160a01b0316610b40565b81101561148757600b5460119061138f906001600160a01b0316836107c6565b815481106113ad57634e487b7160e01b600052603260045260246000fd5b600091825260209091206004600590920201015460ff161580156114215750600b5460ff8716906011906113ea906001600160a01b0316846107c6565b8154811061140857634e487b7160e01b600052603260045260246000fd5b600091825260209091206001600590920201015460ff16145b1561147557600b5461143c906001600160a01b0316826107c6565b82848151811061145c57634e487b7160e01b600052603260045260246000fd5b60209081029190910101528261147181612d92565b9350505b8061147f81612d92565b91505061135a565b506000815142336013546040516020016114a393929190612457565b6040516020818303038152906040528051906020012060001c6114c69190612dad565b90508181815181106114e857634e487b7160e01b600052603260045260246000fd5b60200260200101519450505050506103e5565b6001600160a01b03918216600090815260056020908152604080832093909416825291909152205460ff1690565b8051602081830181018051600c825292820191909301209152546001600160a01b031681565b61155761161d565b6001600160a01b0316611568610e22565b6001600160a01b03161461158e5760405162461bcd60e51b81526004016104a390612a73565b6001600160a01b0381166115b45760405162461bcd60e51b81526004016104a39061265f565b6115bd81611918565b50565b60006001600160e01b031982166380ac58cd60e01b14806115f157506001600160e01b03198216635b5e139f60e01b145b806103e257506103e282611ac9565b6000908152600260205260409020546001600160a01b0316151590565b3390565b600081815260046020526040902080546001600160a01b0319166001600160a01b038416908117909155819061165682610af9565b6001600160a01b03167f8c5be1e5ebec7d5bd14f71427d1e84f3dd0314c0f7b2291e5b200ac8c7c3b92560405160405180910390a45050565b60006103e8826040516020016116a5919061240c565b6040516020818303038152906040528051906020012060001c6103e29190612dad565b60006103e7826040516020016116de919061240c565b6040516020818303038152906040528051906020012060001c6117019190612dad565b6103e2906001612cb2565b60008161171b846103e8612cde565b6111eb9190612cb2565b600081611732858561170c565b61173e906103e8612cde565b6117489190612cb2565b949350505050565b61176a828260405180602001604052806000815250611ae2565b5050565b600061177982611600565b6117955760405162461bcd60e51b81526004016104a3906127de565b60006117a083610af9565b9050806001600160a01b0316846001600160a01b031614806117db5750836001600160a01b03166117d08461047c565b6001600160a01b0316145b80611748575061174881856114fb565b826001600160a01b03166117fe82610af9565b6001600160a01b0316146118245760405162461bcd60e51b81526004016104a390612aa8565b6001600160a01b03821661184a5760405162461bcd60e51b81526004016104a3906126dc565b611855838383611b15565b611860600082611621565b6001600160a01b0383166000908152600360205260408120805460019290611889908490612cfd565b90915550506001600160a01b03821660009081526003602052604081208054600192906118b7908490612cb2565b909155505060008181526002602052604080822080546001600160a01b0319166001600160a01b0386811691821790925591518493918716917fddf252ad1be2c89b69c2b068fc378daa952ba7f163c4a11628f55a4df523b3ef91a4505050565b600a80546001600160a01b038381166001600160a01b0319831681179093556040519116919082907f8be0079c531659141344cd1fd0a4f28419497f9722a3daafe3b4186f6b6457e090600090a35050565b6119758484846117eb565b61198184848484611b9e565b6110845760405162461bcd60e51b81526004016104a39061260d565b60408051602081019091526000815290565b6060816119d457506040805180820190915260018152600360fc1b60208201526103e5565b8160005b81156119fe57806119e881612d92565b91506119f79050600a83612cca565b91506119d8565b6000816001600160401b03811115611a2657634e487b7160e01b600052604160045260246000fd5b6040519080825280601f01601f191660200182016040528015611a50576020820181803683370190505b5090505b841561174857611a65600183612cfd565b9150611a72600a86612dad565b611a7d906030612cb2565b60f81b818381518110611aa057634e487b7160e01b600052603260045260246000fd5b60200101906001600160f81b031916908160001a905350611ac2600a86612cca565b9450611a54565b6001600160e01b031981166301ffc9a760e01b14919050565b611aec8383611cb9565b611af96000848484611b9e565b61055b5760405162461bcd60e51b81526004016104a39061260d565b611b2083838361055b565b6001600160a01b038316611b3c57611b3781611d98565b611b5f565b816001600160a01b0316836001600160a01b031614611b5f57611b5f8382611ddc565b6001600160a01b038216611b7b57611b7681611e79565b61055b565b826001600160a01b0316826001600160a01b03161461055b5761055b8282611f52565b6000611bb2846001600160a01b0316611f96565b15611cae57836001600160a01b031663150b7a02611bce61161d565b8786866040518563ffffffff1660e01b8152600401611bf09493929190612493565b602060405180830381600087803b158015611c0a57600080fd5b505af1925050508015611c3a575060408051601f3d908101601f19168201909252611c37918101906122ba565b60015b611c94573d808015611c68576040519150601f19603f3d011682016040523d82523d6000602084013e611c6d565b606091505b508051611c8c5760405162461bcd60e51b81526004016104a39061260d565b805181602001fd5b6001600160e01b031916630a85bd0160e11b149050611748565b506001949350505050565b6001600160a01b038216611cdf5760405162461bcd60e51b81526004016104a3906129bb565b611ce881611600565b15611d055760405162461bcd60e51b81526004016104a3906126a5565b611d1160008383611b15565b6001600160a01b0382166000908152600360205260408120805460019290611d3a908490612cb2565b909155505060008181526002602052604080822080546001600160a01b0319166001600160a01b03861690811790915590518392907fddf252ad1be2c89b69c2b068fc378daa952ba7f163c4a11628f55a4df523b3ef908290a45050565b600880546000838152600960205260408120829055600182018355919091527ff3f7a9fe364faab93b216da50a3214154f22a0a2b415b23a84c8169e8b636ee30155565b60006001611de984610b40565b611df39190612cfd565b600083815260076020526040902054909150808214611e46576001600160a01b03841660009081526006602090815260408083208584528252808320548484528184208190558352600790915290208190555b5060009182526007602090815260408084208490556001600160a01b039094168352600681528383209183525290812055565b600854600090611e8b90600190612cfd565b60008381526009602052604081205460088054939450909284908110611ec157634e487b7160e01b600052603260045260246000fd5b906000526020600020015490508060088381548110611ef057634e487b7160e01b600052603260045260246000fd5b6000918252602080832090910192909255828152600990915260408082208490558582528120556008805480611f3657634e487b7160e01b600052603160045260246000fd5b6001900381819060005260206000200160009055905550505050565b6000611f5d83610b40565b6001600160a01b039093166000908152600660209081526040808320868452825280832085905593825260079052919091209190915550565b3b151590565b828054611fa890612d57565b90600052602060002090601f016020900481019282611fca5760008555612010565b82601f10611fe357805160ff1916838001178555612010565b82800160010185558215612010579182015b82811115612010578251825591602001919060010190611ff5565b5061201c929150612020565b5090565b5b8082111561201c5760008155600101612021565b60006001600160401b038084111561204f5761204f612ded565b604051601f8501601f19908116603f0116810190828211818310171561207757612077612ded565b8160405280935085815286868601111561209057600080fd5b858560208301376000602087830101525050509392505050565b80356001600160a01b03811681146103e557600080fd5b600082601f8301126120d1578081fd5b6111eb83833560208501612035565b803560ff811681146103e557600080fd5b600060208284031215612102578081fd5b6111eb826120aa565b6000806040838503121561211d578081fd5b612126836120aa565b9150612134602084016120aa565b90509250929050565b600080600060608486031215612151578081fd5b61215a846120aa565b9250612168602085016120aa565b9150604084013590509250925092565b6000806000806080858703121561218d578081fd5b612196856120aa565b93506121a4602086016120aa565b92506040850135915060608501356001600160401b038111156121c5578182fd5b8501601f810187136121d5578182fd5b6121e487823560208401612035565b91505092959194509250565b60008060408385031215612202578182fd5b61220b836120aa565b91506020830135801515811461221f578182fd5b809150509250929050565b6000806040838503121561223c578182fd5b612245836120aa565b915060208301356001600160401b0381111561225f578182fd5b61226b858286016120c1565b9150509250929050565b60008060408385031215612287578182fd5b612290836120aa565b946020939093013593505050565b6000602082840312156122af578081fd5b81356111eb81612e03565b6000602082840312156122cb578081fd5b81516111eb81612e03565b6000602082840312156122e7578081fd5b81356001600160401b038111156122fc578182fd5b611748848285016120c1565b60008060006060848603121561231c578283fd5b83356001600160401b03811115612331578384fd5b61233d868287016120c1565b93505061234c602085016120e0565b915061235a604085016120e0565b90509250925092565b600060208284031215612374578081fd5b5035919050565b60008060006060848603121561238f578283fd5b8335925060208401356001600160401b038111156123ab578283fd5b6123b7868287016120c1565b92505061235a604085016120e0565b6000602082840312156123d7578081fd5b6111eb826120e0565b600081518084526123f8816020860160208601612d14565b601f01601f19169290920160200192915050565b6000825161241e818460208701612d14565b9190910192915050565b6000835161243a818460208801612d14565b83519083019061244e818360208801612d14565b01949350505050565b92835260609190911b6bffffffffffffffffffffffff19166020830152603482015260540190565b6001600160a01b0391909116815260200190565b6001600160a01b03858116825284166020820152604081018390526080606082018190526000906124c6908301846123e0565b9695505050505050565b6001600160a01b0383168152604060208201819052600090611748908301846123e0565b901515815260200190565b6000602082526111eb60208301846123e0565b60006080825261252560808301876123e0565b60ff958616602084015293909416604082015290151560609091015292915050565b600060e0825261255a60e083018a6123e0565b60ff988916602084015296909716604082015260608101949094526080840192909252151560a0830152151560c09091015292915050565b6020808252601690820152752737ba1030903932b3b4ba32b932b210383630bcb2b960511b604082015260600190565b6020808252602b908201527f455243373231456e756d657261626c653a206f776e657220696e646578206f7560408201526a74206f6620626f756e647360a81b606082015260800190565b60208082526032908201527f4552433732313a207472616e7366657220746f206e6f6e20455243373231526560408201527131b2b4bb32b91034b6b83632b6b2b73a32b960711b606082015260800190565b60208082526026908201527f4f776e61626c653a206e6577206f776e657220697320746865207a65726f206160408201526564647265737360d01b606082015260800190565b6020808252601c908201527f4552433732313a20746f6b656e20616c7265616479206d696e74656400000000604082015260600190565b60208082526024908201527f4552433732313a207472616e7366657220746f20746865207a65726f206164646040820152637265737360e01b606082015260800190565b60208082526019908201527822a9219b99189d1030b8383937bb32903a379031b0b63632b960391b604082015260600190565b6020808252602a908201527f796f7520617265206e6f7420617574686f72697a656420746f207365742074686040820152691a5cc81858d8dbdd5b9d60b21b606082015260800190565b60208082526021908201527f7468697320706c6179657220697320616c7265616479207265676973746572656040820152601960fa1b606082015260800190565b6020808252602c908201527f4552433732313a206f70657261746f7220717565727920666f72206e6f6e657860408201526b34b9ba32b73a103a37b5b2b760a11b606082015260800190565b60208082526038908201527f4552433732313a20617070726f76652063616c6c6572206973206e6f74206f776040820152771b995c881b9bdc88185c1c1c9bdd995908199bdc88185b1b60421b606082015260800190565b60208082526029908201527f796f7520617265206e6f7420617574686f72697a656420746f20757064617465604082015268103090383630bcb2b960b91b606082015260800190565b6020808252602a908201527f4552433732313a2062616c616e636520717565727920666f7220746865207a65604082015269726f206164647265737360b01b606082015260800190565b60208082526029908201527f4552433732313a206f776e657220717565727920666f72206e6f6e657869737460408201526832b73a103a37b5b2b760b91b606082015260800190565b6020808252603a908201527f5468657265206973206e6f7420656e6f756768206974656d20617661696c626160408201527f6c652c20706c6561736520636f6d65206261636b206c61746572000000000000606082015260800190565b6020808252818101527f4552433732313a206d696e7420746f20746865207a65726f2061646472657373604082015260600190565b6020808252601a908201527f596f752068617665206e6f207265776172647320746f20676574000000000000604082015260600190565b6020808252602c908201527f4552433732313a20617070726f76656420717565727920666f72206e6f6e657860408201526b34b9ba32b73a103a37b5b2b760a11b606082015260800190565b6020808252818101527f4f776e61626c653a2063616c6c6572206973206e6f7420746865206f776e6572604082015260600190565b60208082526029908201527f4552433732313a207472616e73666572206f6620746f6b656e2074686174206960408201526839903737ba1037bbb760b91b606082015260800190565b6020808252602f908201527f4552433732314d657461646174613a2055524920717565727920666f72206e6f60408201526e3732bc34b9ba32b73a103a37b5b2b760891b606082015260800190565b60208082526021908201527f4552433732313a20617070726f76616c20746f2063757272656e74206f776e656040820152603960f91b606082015260800190565b6020808252601b908201527f4e6f6e6520617661696c61626c65206974656d20666f72206e6f770000000000604082015260600190565b60208082526031908201527f4552433732313a207472616e736665722063616c6c6572206973206e6f74206f6040820152701ddb995c881b9bdc88185c1c1c9bdd9959607a1b606082015260800190565b60208082526034908201527f706c656173652073657420666972737420616e20457468657265756d206164646040820152733932b9b9903337b9103a3434b990383630bcb2b960611b606082015260800190565b6020808252602c908201527f455243373231456e756d657261626c653a20676c6f62616c20696e646578206f60408201526b7574206f6620626f756e647360a01b606082015260800190565b90815260200190565b60008219821115612cc557612cc5612dc1565b500190565b600082612cd957612cd9612dd7565b500490565b6000816000190483118215151615612cf857612cf8612dc1565b500290565b600082821015612d0f57612d0f612dc1565b500390565b60005b83811015612d2f578181015183820152602001612d17565b838111156110845750506000910152565b600081612d4f57612d4f612dc1565b506000190190565b600281046001821680612d6b57607f821691505b60208210811415612d8c57634e487b7160e01b600052602260045260246000fd5b50919050565b6000600019821415612da657612da6612dc1565b5060010190565b600082612dbc57612dbc612dd7565b500690565b634e487b7160e01b600052601160045260246000fd5b634e487b7160e01b600052601260045260246000fd5b634e487b7160e01b600052604160045260246000fd5b6001600160e01b0319811681146115bd57600080fdfea264697066735822122053ef84d87b2223f90110fffc8ebb8de69d90be5f7ef7aaabad5725b0e27f657f64736f6c63430008010033",
  "immutableReferences": {},
  "source": "// SPDX-License-Identifier: GPL-3.0\r\n\r\npragma solidity 0.8.1;\r\n\r\nimport \"./itemsFactory.sol\";\r\n\r\n/**\r\n * @title Change the cases in items\r\n * @notice This contract allows players to change the reward earned for NFT\r\n * @dev The selected items given to the players come from the data base create in the factory by the administrator.\r\n * Only unlock items can be distributed \r\n */\r\ncontract convertRewardNFT is itemsFactory {\r\n    \r\n   ///@dev RandNonce for the random Item \r\n    uint private randNonce = 1;\r\n    \r\n    event rewardWithdrawn(uint tokenId);\r\n    \r\n    ///@dev Transform the reward as a NFT\r\n    function getReward () public {\r\n        require (balanceOf(_administrator) != 0, \"None available item for now\");\r\n        require (multiverseData[msg.sender].isRegistered, \"Not a regitered player\");\r\n        require (multiverseData[msg.sender].rewardLv1 != 0 || multiverseData[msg.sender].rewardLv2 != 0, \"You have no rewards to get\");\r\n        \r\n        randNonce ++;\r\n        \r\n        if (multiverseData[msg.sender].rewardLv1 != 0){\r\n          for (uint i = multiverseData[msg.sender].rewardLv1; i > 0; i-- ){\r\n            uint idItem =  getAvailableItem(1); \r\n             _transfer(_administrator, msg.sender, idItem);\r\n             emit rewardWithdrawn(idItem);\r\n          }\r\n          multiverseData[msg.sender].rewardLv1 = 0;\r\n        }\r\n        \r\n        if (multiverseData[msg.sender].rewardLv2 != 0){\r\n          for (uint i = multiverseData[msg.sender].rewardLv2; i > 0; i-- ){\r\n            uint idItem =  getAvailableItem(2); \r\n            _transfer(_administrator, msg.sender, idItem);\r\n            emit rewardWithdrawn(idItem);\r\n          }\r\n          multiverseData[msg.sender].rewardLv2 = 0;\r\n        }\r\n    }\r\n    \r\n    /**\r\n     * @dev Get an available item in the main database of unlock items.\r\n     * First we create the size of an array, then we fill it with the eligible token \r\n     * and at the end we send the Id of the won token\r\n     */\r\n    function getAvailableItem(uint8 _level) public view returns(uint){\r\n   \r\n        uint sizeArray;\r\n        uint Id;\r\n        \r\n        for (uint k; k < balanceOf(_administrator); k++){\r\n            if (!items[tokenOfOwnerByIndex(_administrator,k)].locked && items[tokenOfOwnerByIndex(_administrator,k)].levelItem == _level){\r\n              sizeArray++;\r\n            }\r\n          }\r\n    \r\n        if (sizeArray == 0){\r\n          revert('There is not enough item availbale, please come back later');\r\n        } else {\r\n    \r\n          uint[] memory availableItem = new uint[](sizeArray);   \r\n    \r\n          for (uint k; k <balanceOf(_administrator); k++){\r\n            if (!items[tokenOfOwnerByIndex(_administrator,k)].locked && items[tokenOfOwnerByIndex(_administrator,k)].levelItem == _level){\r\n              availableItem[Id] = tokenOfOwnerByIndex(_administrator,k);\r\n              Id++;\r\n            }\r\n          }\r\n          uint randReward = uint(keccak256 (abi.encodePacked(block.timestamp, msg.sender, randNonce))) % availableItem.length;\r\n          return availableItem[randReward];\r\n        }\r\n    }\r\n}\r\n",
  "sourcePath": "C:\\Users\\fboud\\OneDrive\\Documents\\Alyra\\projetFinal\\contracts\\convertRewardNFT.sol",
  "compiler": {
    "name": "solc",
    "version": "0.8.1+commit.df193b15.Emscripten.clang"
  },
  "schemaVersion": "3.4.1",
  "updatedAt": "2021-07-29T16:02:55.056Z",
  "devdoc": {
    "details": "The selected items given to the players come from the data base create in the factory by the administrator. Only unlock items can be distributed ",
    "kind": "dev",
    "methods": {
      "approve(address,uint256)": {
        "details": "See {IERC721-approve}."
      },
      "balanceOf(address)": {
        "details": "See {IERC721-balanceOf}."
      },
      "createItem(uint256,string,uint8)": {
        "details": "Function allowing to create items. Only the adminstrator can make one"
      },
      "getApproved(uint256)": {
        "details": "See {IERC721-getApproved}."
      },
      "getAvailableItem(uint8)": {
        "details": "Get an available item in the main database of unlock items. First we create the size of an array, then we fill it with the eligible token  and at the end we send the Id of the won token"
      },
      "getReward()": {
        "details": "Transform the reward as a NFT"
      },
      "isApprovedForAll(address,address)": {
        "details": "See {IERC721-isApprovedForAll}."
      },
      "name()": {
        "details": "See {IERC721Metadata-name}."
      },
      "owner()": {
        "details": "Returns the address of the current owner."
      },
      "ownerOf(uint256)": {
        "details": "See {IERC721-ownerOf}."
      },
      "renounceOwnership()": {
        "details": "Leaves the contract without owner. It will not be possible to call `onlyOwner` functions anymore. Can only be called by the current owner. NOTE: Renouncing ownership will leave the contract without an owner, thereby removing any functionality that is only available to the owner."
      },
      "safeTransferFrom(address,address,uint256)": {
        "details": "See {IERC721-safeTransferFrom}."
      },
      "safeTransferFrom(address,address,uint256,bytes)": {
        "details": "See {IERC721-safeTransferFrom}."
      },
      "setApprovalForAll(address,bool)": {
        "details": "See {IERC721-setApprovalForAll}."
      },
      "setMultiversePlayer(address,string)": {
        "details": "link a login with a player. The login must be the exact same one than the one used in POW"
      },
      "supportsInterface(bytes4)": {
        "details": "See {IERC165-supportsInterface}."
      },
      "symbol()": {
        "details": "See {IERC721Metadata-symbol}."
      },
      "tokenByIndex(uint256)": {
        "details": "See {IERC721Enumerable-tokenByIndex}."
      },
      "tokenOfOwnerByIndex(address,uint256)": {
        "details": "See {IERC721Enumerable-tokenOfOwnerByIndex}."
      },
      "tokenURI(uint256)": {
        "details": "See {IERC721Metadata-tokenURI}."
      },
      "totalSupply()": {
        "details": "See {IERC721Enumerable-totalSupply}."
      },
      "transferFrom(address,address,uint256)": {
        "details": "See {IERC721-transferFrom}."
      },
      "transferOwnership(address)": {
        "details": "Transfers ownership of the contract to a new account (`newOwner`). Can only be called by the current owner."
      },
      "updateMultiversePlayer(string,uint8,uint8)": {
        "details": "Update the data of a registered player. The adnministrator Only can set this. In the future, the oracle will do that"
      }
    },
    "stateVariables": {
      "randNonce": {
        "details": "RandNonce for the random Item "
      }
    },
    "title": "Change the cases in items",
    "version": 1
  },
  "userdoc": {
    "kind": "user",
    "methods": {},
    "notice": "This contract allows players to change the reward earned for NFT",
    "version": 1
  }
}