{
  "contractName": "fusion",
  "abi": [
    {
      "anonymous": false,
      "inputs": [
        {
          "indexed": true,
          "internalType": "address",
          "name": "owner",
          "type": "address"
        },
        {
          "indexed": true,
          "internalType": "address",
          "name": "approved",
          "type": "address"
        },
        {
          "indexed": true,
          "internalType": "uint256",
          "name": "tokenId",
          "type": "uint256"
        }
      ],
      "name": "Approval",
      "type": "event"
    },
    {
      "anonymous": false,
      "inputs": [
        {
          "indexed": true,
          "internalType": "address",
          "name": "owner",
          "type": "address"
        },
        {
          "indexed": true,
          "internalType": "address",
          "name": "operator",
          "type": "address"
        },
        {
          "indexed": false,
          "internalType": "bool",
          "name": "approved",
          "type": "bool"
        }
      ],
      "name": "ApprovalForAll",
      "type": "event"
    },
    {
      "anonymous": false,
      "inputs": [
        {
          "indexed": false,
          "internalType": "address",
          "name": "addressPlayer",
          "type": "address"
        },
        {
          "indexed": false,
          "internalType": "string",
          "name": "loginPlayer",
          "type": "string"
        }
      ],
      "name": "NewPlayerRegistered",
      "type": "event"
    },
    {
      "anonymous": false,
      "inputs": [
        {
          "indexed": true,
          "internalType": "address",
          "name": "previousOwner",
          "type": "address"
        },
        {
          "indexed": true,
          "internalType": "address",
          "name": "newOwner",
          "type": "address"
        }
      ],
      "name": "OwnershipTransferred",
      "type": "event"
    },
    {
      "anonymous": false,
      "inputs": [
        {
          "indexed": true,
          "internalType": "address",
          "name": "from",
          "type": "address"
        },
        {
          "indexed": true,
          "internalType": "address",
          "name": "to",
          "type": "address"
        },
        {
          "indexed": true,
          "internalType": "uint256",
          "name": "tokenId",
          "type": "uint256"
        }
      ],
      "name": "Transfer",
      "type": "event"
    },
    {
      "anonymous": false,
      "inputs": [
        {
          "indexed": false,
          "internalType": "uint256",
          "name": "tokenId",
          "type": "uint256"
        }
      ],
      "name": "fusionnedItemCreate",
      "type": "event"
    },
    {
      "anonymous": false,
      "inputs": [
        {
          "indexed": false,
          "internalType": "uint256",
          "name": "tokenId",
          "type": "uint256"
        }
      ],
      "name": "lockItem",
      "type": "event"
    },
    {
      "anonymous": false,
      "inputs": [
        {
          "indexed": false,
          "internalType": "string",
          "name": "login",
          "type": "string"
        }
      ],
      "name": "playerUpdated",
      "type": "event"
    },
    {
      "anonymous": false,
      "inputs": [
        {
          "indexed": false,
          "internalType": "uint256",
          "name": "tokenId",
          "type": "uint256"
        }
      ],
      "name": "rewardWithdrawn",
      "type": "event"
    },
    {
      "inputs": [
        {
          "internalType": "address",
          "name": "to",
          "type": "address"
        },
        {
          "internalType": "uint256",
          "name": "tokenId",
          "type": "uint256"
        }
      ],
      "name": "approve",
      "outputs": [],
      "stateMutability": "nonpayable",
      "type": "function"
    },
    {
      "inputs": [
        {
          "internalType": "address",
          "name": "owner",
          "type": "address"
        }
      ],
      "name": "balanceOf",
      "outputs": [
        {
          "internalType": "uint256",
          "name": "",
          "type": "uint256"
        }
      ],
      "stateMutability": "view",
      "type": "function"
    },
    {
      "inputs": [
        {
          "internalType": "uint256",
          "name": "_type",
          "type": "uint256"
        },
        {
          "internalType": "string",
          "name": "_name",
          "type": "string"
        },
        {
          "internalType": "uint8",
          "name": "_continent",
          "type": "uint8"
        }
      ],
      "name": "createItem",
      "outputs": [],
      "stateMutability": "nonpayable",
      "type": "function"
    },
    {
      "inputs": [
        {
          "internalType": "uint256",
          "name": "",
          "type": "uint256"
        }
      ],
      "name": "exemplaireNumbers",
      "outputs": [
        {
          "internalType": "uint256",
          "name": "",
          "type": "uint256"
        }
      ],
      "stateMutability": "view",
      "type": "function"
    },
    {
      "inputs": [
        {
          "internalType": "uint256",
          "name": "tokenId",
          "type": "uint256"
        }
      ],
      "name": "getApproved",
      "outputs": [
        {
          "internalType": "address",
          "name": "",
          "type": "address"
        }
      ],
      "stateMutability": "view",
      "type": "function"
    },
    {
      "inputs": [
        {
          "internalType": "uint8",
          "name": "_level",
          "type": "uint8"
        }
      ],
      "name": "getAvailableItem",
      "outputs": [
        {
          "internalType": "uint256",
          "name": "",
          "type": "uint256"
        }
      ],
      "stateMutability": "view",
      "type": "function"
    },
    {
      "inputs": [],
      "name": "getReward",
      "outputs": [],
      "stateMutability": "nonpayable",
      "type": "function"
    },
    {
      "inputs": [
        {
          "internalType": "address",
          "name": "owner",
          "type": "address"
        },
        {
          "internalType": "address",
          "name": "operator",
          "type": "address"
        }
      ],
      "name": "isApprovedForAll",
      "outputs": [
        {
          "internalType": "bool",
          "name": "",
          "type": "bool"
        }
      ],
      "stateMutability": "view",
      "type": "function"
    },
    {
      "inputs": [
        {
          "internalType": "uint256",
          "name": "",
          "type": "uint256"
        }
      ],
      "name": "items",
      "outputs": [
        {
          "internalType": "string",
          "name": "name",
          "type": "string"
        },
        {
          "internalType": "uint8",
          "name": "levelItem",
          "type": "uint8"
        },
        {
          "internalType": "uint8",
          "name": "continent",
          "type": "uint8"
        },
        {
          "internalType": "uint256",
          "name": "tokenId",
          "type": "uint256"
        },
        {
          "internalType": "uint256",
          "name": "composition",
          "type": "uint256"
        },
        {
          "internalType": "bool",
          "name": "locked",
          "type": "bool"
        },
        {
          "internalType": "bool",
          "name": "onSold",
          "type": "bool"
        }
      ],
      "stateMutability": "view",
      "type": "function"
    },
    {
      "inputs": [
        {
          "internalType": "address",
          "name": "",
          "type": "address"
        }
      ],
      "name": "multiverseData",
      "outputs": [
        {
          "internalType": "string",
          "name": "login",
          "type": "string"
        },
        {
          "internalType": "uint8",
          "name": "rewardLv1",
          "type": "uint8"
        },
        {
          "internalType": "uint8",
          "name": "rewardLv2",
          "type": "uint8"
        },
        {
          "internalType": "bool",
          "name": "isRegistered",
          "type": "bool"
        }
      ],
      "stateMutability": "view",
      "type": "function"
    },
    {
      "inputs": [
        {
          "internalType": "string",
          "name": "",
          "type": "string"
        }
      ],
      "name": "multiverseIds",
      "outputs": [
        {
          "internalType": "address",
          "name": "",
          "type": "address"
        }
      ],
      "stateMutability": "view",
      "type": "function"
    },
    {
      "inputs": [],
      "name": "name",
      "outputs": [
        {
          "internalType": "string",
          "name": "",
          "type": "string"
        }
      ],
      "stateMutability": "view",
      "type": "function"
    },
    {
      "inputs": [],
      "name": "owner",
      "outputs": [
        {
          "internalType": "address",
          "name": "",
          "type": "address"
        }
      ],
      "stateMutability": "view",
      "type": "function"
    },
    {
      "inputs": [
        {
          "internalType": "uint256",
          "name": "tokenId",
          "type": "uint256"
        }
      ],
      "name": "ownerOf",
      "outputs": [
        {
          "internalType": "address",
          "name": "",
          "type": "address"
        }
      ],
      "stateMutability": "view",
      "type": "function"
    },
    {
      "inputs": [],
      "name": "renounceOwnership",
      "outputs": [],
      "stateMutability": "nonpayable",
      "type": "function"
    },
    {
      "inputs": [
        {
          "internalType": "address",
          "name": "from",
          "type": "address"
        },
        {
          "internalType": "address",
          "name": "to",
          "type": "address"
        },
        {
          "internalType": "uint256",
          "name": "tokenId",
          "type": "uint256"
        }
      ],
      "name": "safeTransferFrom",
      "outputs": [],
      "stateMutability": "nonpayable",
      "type": "function"
    },
    {
      "inputs": [
        {
          "internalType": "address",
          "name": "from",
          "type": "address"
        },
        {
          "internalType": "address",
          "name": "to",
          "type": "address"
        },
        {
          "internalType": "uint256",
          "name": "tokenId",
          "type": "uint256"
        },
        {
          "internalType": "bytes",
          "name": "_data",
          "type": "bytes"
        }
      ],
      "name": "safeTransferFrom",
      "outputs": [],
      "stateMutability": "nonpayable",
      "type": "function"
    },
    {
      "inputs": [
        {
          "internalType": "address",
          "name": "operator",
          "type": "address"
        },
        {
          "internalType": "bool",
          "name": "approved",
          "type": "bool"
        }
      ],
      "name": "setApprovalForAll",
      "outputs": [],
      "stateMutability": "nonpayable",
      "type": "function"
    },
    {
      "inputs": [
        {
          "internalType": "address",
          "name": "_addressPlayer",
          "type": "address"
        },
        {
          "internalType": "string",
          "name": "_login",
          "type": "string"
        }
      ],
      "name": "setMultiversePlayer",
      "outputs": [],
      "stateMutability": "nonpayable",
      "type": "function"
    },
    {
      "inputs": [
        {
          "internalType": "bytes4",
          "name": "interfaceId",
          "type": "bytes4"
        }
      ],
      "name": "supportsInterface",
      "outputs": [
        {
          "internalType": "bool",
          "name": "",
          "type": "bool"
        }
      ],
      "stateMutability": "view",
      "type": "function"
    },
    {
      "inputs": [],
      "name": "symbol",
      "outputs": [
        {
          "internalType": "string",
          "name": "",
          "type": "string"
        }
      ],
      "stateMutability": "view",
      "type": "function"
    },
    {
      "inputs": [
        {
          "internalType": "uint256",
          "name": "index",
          "type": "uint256"
        }
      ],
      "name": "tokenByIndex",
      "outputs": [
        {
          "internalType": "uint256",
          "name": "",
          "type": "uint256"
        }
      ],
      "stateMutability": "view",
      "type": "function"
    },
    {
      "inputs": [
        {
          "internalType": "address",
          "name": "owner",
          "type": "address"
        },
        {
          "internalType": "uint256",
          "name": "index",
          "type": "uint256"
        }
      ],
      "name": "tokenOfOwnerByIndex",
      "outputs": [
        {
          "internalType": "uint256",
          "name": "",
          "type": "uint256"
        }
      ],
      "stateMutability": "view",
      "type": "function"
    },
    {
      "inputs": [
        {
          "internalType": "uint256",
          "name": "tokenId",
          "type": "uint256"
        }
      ],
      "name": "tokenURI",
      "outputs": [
        {
          "internalType": "string",
          "name": "",
          "type": "string"
        }
      ],
      "stateMutability": "view",
      "type": "function"
    },
    {
      "inputs": [],
      "name": "totalSupply",
      "outputs": [
        {
          "internalType": "uint256",
          "name": "",
          "type": "uint256"
        }
      ],
      "stateMutability": "view",
      "type": "function"
    },
    {
      "inputs": [
        {
          "internalType": "address",
          "name": "from",
          "type": "address"
        },
        {
          "internalType": "address",
          "name": "to",
          "type": "address"
        },
        {
          "internalType": "uint256",
          "name": "tokenId",
          "type": "uint256"
        }
      ],
      "name": "transferFrom",
      "outputs": [],
      "stateMutability": "nonpayable",
      "type": "function"
    },
    {
      "inputs": [
        {
          "internalType": "address",
          "name": "newOwner",
          "type": "address"
        }
      ],
      "name": "transferOwnership",
      "outputs": [],
      "stateMutability": "nonpayable",
      "type": "function"
    },
    {
      "inputs": [
        {
          "internalType": "string",
          "name": "_login",
          "type": "string"
        },
        {
          "internalType": "uint8",
          "name": "_rewardLv1",
          "type": "uint8"
        },
        {
          "internalType": "uint8",
          "name": "_rewardLv2",
          "type": "uint8"
        }
      ],
      "name": "updateMultiversePlayer",
      "outputs": [],
      "stateMutability": "nonpayable",
      "type": "function"
    },
    {
      "inputs": [
        {
          "internalType": "uint256",
          "name": "_myItemId1",
          "type": "uint256"
        },
        {
          "internalType": "uint256",
          "name": "_myItemId2",
          "type": "uint256"
        }
      ],
      "name": "fusionItem",
      "outputs": [],
      "stateMutability": "nonpayable",
      "type": "function"
    }
  ],
  "bytecode": "0x60806040526001600e556002600f55600360105560016013553480156200002557600080fd5b506040805180820182526007815266706f77556e697160c81b602080830191825283518085019094526003845262504f5760e81b908401528151919291620000709160009162000111565b5080516200008690600190602084019062000111565b505050620000a36200009d620000bb60201b60201c565b620000bf565b600b80546001600160a01b03191633179055620001f4565b3390565b600a80546001600160a01b038381166001600160a01b0319831681179093556040519116919082907f8be0079c531659141344cd1fd0a4f28419497f9722a3daafe3b4186f6b6457e090600090a35050565b8280546200011f90620001b7565b90600052602060002090601f0160209004810192826200014357600085556200018e565b82601f106200015e57805160ff19168380011785556200018e565b828001600101855582156200018e579182015b828111156200018e57825182559160200191906001019062000171565b506200019c929150620001a0565b5090565b5b808211156200019c5760008155600101620001a1565b600281046001821680620001cc57607f821691505b60208210811415620001ee57634e487b7160e01b600052602260045260246000fd5b50919050565b6135c180620002046000396000f3fe608060405234801561001057600080fd5b506004361061018f5760003560e01c8063715018a6116100e4578063b6a4029611610092578063b6a4029614610330578063b88d4fde14610343578063bfb231d214610356578063c87b56dd1461037c578063d9f923291461038f578063e985e9c5146103a2578063e9dbd45a146103b5578063f2fde38b146103c85761018f565b8063715018a6146102bc5780637538822e146102c457806375adb7fd146102d75780638da5cb5b146102fa57806395d89b41146103025780639b008e471461030a578063a22cb4651461031d5761018f565b80632f745c59116101415780632f745c59146102425780633d18b9121461025557806342842e0e1461025d5780634f6ccce7146102705780636352211e14610283578063661c2b601461029657806370a08231146102a95761018f565b806301ffc9a71461019457806306fdde03146101bd578063081812fc146101d2578063095ea7b3146101f257806318160ddd146102075780631f5710891461021c57806323b872dd1461022f575b600080fd5b6101a76101a2366004612881565b6103db565b6040516101b49190612bc3565b60405180910390f35b6101c5610408565b6040516101b49190612bce565b6101e56101e0366004612946565b61049a565b6040516101b49190612b4e565b610205610200366004612858565b6104e6565b005b61020f61057e565b6040516101b4919061340f565b61020561022a36600461295e565b610584565b61020561023d366004612720565b6107ac565b61020f610250366004612858565b6107e4565b610205610836565b61020561026b366004612720565b610aa1565b61020f61027e366004612946565b610abc565b6101e5610291366004612946565b610b17565b61020f6102a4366004612946565b610b4c565b61020f6102b73660046126d4565b610b5e565b610205610ba2565b6102056102d23660046128eb565b610beb565b6102ea6102e53660046126d4565b610d86565b6040516101b49493929190612be1565b6101e5610e40565b6101c5610e4f565b61020561031836600461280d565b610e5e565b61020561032b3660046127d3565b610f9b565b61020561033e3660046129a9565b611069565b61020561035136600461275b565b611454565b610369610364366004612946565b611493565b6040516101b49796959493929190612c16565b6101c561038a366004612946565b611578565b61020f61039d3660046129ca565b6115fb565b6101a76103b03660046126ee565b611904565b6101e56103c33660046128b9565b611932565b6102056103d63660046126d4565b611958565b60006001600160e01b0319821663780e9d6360e01b14806104005750610400826119c9565b90505b919050565b606060008054610417906134c9565b80601f0160208091040260200160405190810160405280929190818152602001828054610443906134c9565b80156104905780601f1061046557610100808354040283529160200191610490565b820191906000526020600020905b81548152906001019060200180831161047357829003601f168201915b5050505050905090565b60006104a582611a09565b6104ca5760405162461bcd60e51b81526004016104c19061315a565b60405180910390fd5b506000908152600460205260409020546001600160a01b031690565b60006104f182610b17565b9050806001600160a01b0316836001600160a01b031614156105255760405162461bcd60e51b81526004016104c190613273565b806001600160a01b0316610537611a26565b6001600160a01b031614806105535750610553816103b0611a26565b61056f5760405162461bcd60e51b81526004016104c190612f5d565b6105798383611a2a565b505050565b60085490565b61058c611a26565b6001600160a01b031661059d610e40565b6001600160a01b0316146105c35760405162461bcd60e51b81526004016104c1906131a6565b601154600e546000918291829182918290891415610613576105e488611a98565b955061060c604051806040016040528060058152602001643830b832b960d91b815250611ad1565b9450600290505b600f5489141561062d5761062688611ad1565b9450600290505b6010548914156106475761064088611a98565b9550600190505b601260006106558888611b15565b81526020019081526020016000205460016106709190613424565b935061067d868686611b2e565b9250836012600061068e8989611b15565b81526020810191909152604001600020556106a93383611b59565b6040805160e08101825289815260ff808416602080840191909152908a16928201929092526060810184905260808101859052600060a0820181905260c0820181905260118054600181018255915281518051929360059092027f31ecc21a745e3968a04e9570e4425bc18fa8019c68028196b546d1669c200c680192610733928492019061257f565b506020820151600182018054604085015160ff90811661010090810261ff00199290951660ff1993841617821694909417909255606085015160028501556080850151600385015560a08501516004909401805460c0909601511515909302931515941693909317909216179055505050505050505050565b6107bd6107b7611a26565b82611b77565b6107d95760405162461bcd60e51b81526004016104c1906132eb565b610579838383611bf4565b60006107ef83610b5e565b821061080d5760405162461bcd60e51b81526004016104c190612cf5565b506001600160a01b03919091166000908152600660209081526040808320938352929052205490565b600b5461084b906001600160a01b0316610b5e565b6108675760405162461bcd60e51b81526004016104c1906132b4565b336000908152600d602052604090206001015462010000900460ff1661089f5760405162461bcd60e51b81526004016104c190612cc5565b336000908152600d602052604090206001015460ff161515806108db5750336000908152600d6020526040902060010154610100900460ff1615155b6108f75760405162461bcd60e51b81526004016104c190613123565b6013805490600061090783613504565b9091555050336000908152600d602052604090206001015460ff16156109d057336000908152600d602052604090206001015460ff165b80156109b457600061095060016115fb565b600b5490915061096a906001600160a01b03163383611bf4565b7f685b919316cd6e6eb2dcaf93a1343fad493c1b38394a41031a14c413547c6ad481604051610999919061340f565b60405180910390a150806109ac816134b2565b91505061093e565b50336000908152600d60205260409020600101805460ff191690555b336000908152600d6020526040902060010154610100900460ff1615610a9f57336000908152600d6020526040902060010154610100900460ff165b8015610a82576000610a1e60026115fb565b600b54909150610a38906001600160a01b03163383611bf4565b7f685b919316cd6e6eb2dcaf93a1343fad493c1b38394a41031a14c413547c6ad481604051610a67919061340f565b60405180910390a15080610a7a816134b2565b915050610a0c565b50336000908152600d60205260409020600101805461ff00191690555b565b61057983838360405180602001604052806000815250611454565b6000610ac661057e565b8210610ae45760405162461bcd60e51b81526004016104c190613390565b60088281548110610b0557634e487b7160e01b600052603260045260246000fd5b90600052602060002001549050919050565b6000818152600260205260408120546001600160a01b0316806104005760405162461bcd60e51b81526004016104c190613048565b60126020526000908152604090205481565b60006001600160a01b038216610b865760405162461bcd60e51b81526004016104c190612ffe565b506001600160a01b031660009081526003602052604090205490565b610baa611a26565b6001600160a01b0316610bbb610e40565b6001600160a01b031614610be15760405162461bcd60e51b81526004016104c1906131a6565b610a9f6000611d21565b600b546001600160a01b03163314610c155760405162461bcd60e51b81526004016104c190612fb5565b600d6000600c85604051610c299190612aa8565b9081526040805160209281900383019020546001600160a01b03168352908201929092520160002060019081015462010000900460ff16151514610c7f5760405162461bcd60e51b81526004016104c19061333c565b60405180608001604052808481526020018360ff1681526020018260ff16815260200160011515815250600d6000600c86604051610cbd9190612aa8565b9081526040805160209281900383019020546001600160a01b03168352828201939093529101600020825180519192610cfb9284929091019061257f565b506020820151600190910180546040808501516060909501511515620100000262ff00001960ff9687166101000261ff00199790961660ff199094169390931795909516939093171692909217909155517faa6183438646fc8bb56f82868ce90c0a5bd1301970b115e976c90c1d696a155090610d79908590612bce565b60405180910390a1505050565b600d60205260009081526040902080548190610da1906134c9565b80601f0160208091040260200160405190810160405280929190818152602001828054610dcd906134c9565b8015610e1a5780601f10610def57610100808354040283529160200191610e1a565b820191906000526020600020905b815481529060010190602001808311610dfd57829003601f168201915b5050506001909301549192505060ff808216916101008104821691620100009091041684565b600a546001600160a01b031690565b606060018054610417906134c9565b600b546001600160a01b0316331480610e7f5750336001600160a01b038316145b610e9b5760405162461bcd60e51b81526004016104c190612e86565b600d6000600c83604051610eaf9190612aa8565b9081526040805160209281900383019020546001600160a01b0316835290820192909252016000206001015462010000900460ff1615610f015760405162461bcd60e51b81526004016104c190612ed0565b81600c82604051610f129190612aa8565b908152604080516020928190038301812080546001600160a01b0319166001600160a01b039586161790559285166000908152600d909252902060010180546201000062ff0000199091161790557fd1271c0a878b06e77c2b145e81fda258074d1d9f72d29461da6de567fe185db390610f8f9084908490612b9f565b60405180910390a15050565b610fa3611a26565b6001600160a01b0316826001600160a01b03161415610fd45760405162461bcd60e51b81526004016104c190612e53565b8060056000610fe1611a26565b6001600160a01b03908116825260208083019390935260409182016000908120918716808252919093529120805460ff191692151592909217909155611025611a26565b6001600160a01b03167f17307eab39ab6107e8899845ad3d59bd9653f200f220920489ca2b5937696c318360405161105d9190612bc3565b60405180910390a35050565b3361107383610b17565b6001600160a01b031614801561109957503361108e82610b17565b6001600160a01b0316145b6110b55760405162461bcd60e51b81526004016104c1906133dc565b601182815481106110d657634e487b7160e01b600052603260045260246000fd5b600091825260209091206005909102016001015460ff16600214801561113357506011818154811061111857634e487b7160e01b600052603260045260246000fd5b600091825260209091206005909102016001015460ff166002145b61114f5760405162461bcd60e51b81526004016104c190612c61565b61115882611d73565b801561116a575061116881611d73565b155b8061118a575061117982611d73565b15801561118a575061118a81611d73565b6111a65760405162461bcd60e51b81526004016104c190612c93565b6011546040805180820190915260018152600160fd1b60208201526000919082906060906111d387611d73565b1561122b576111e28787611dcb565b94506011878154811061120557634e487b7160e01b600052603260045260246000fd5b906000526020600020906005020160010160019054906101000a900460ff16925061127a565b6112358688611dcb565b94506011868154811061125857634e487b7160e01b600052603260045260246000fd5b906000526020600020906005020160010160019054906101000a900460ff1692505b6011878154811061129b57634e487b7160e01b600052603260045260246000fd5b906000526020600020906005020160000181601188815481106112ce57634e487b7160e01b600052603260045260246000fd5b90600052602060002090600502016000016040516020016112f193929190612af3565b604051602081830303815290604052915061130b87611eb6565b61131486611eb6565b6040805160e081018252838152600360208083019190915260ff8616928201929092526060810186905260808101879052600060a0820181905260c0820181905260118054600181018255915281518051929360059092027f31ecc21a745e3968a04e9570e4425bc18fa8019c68028196b546d1669c200c68019261139c928492019061257f565b506020820151600182018054604085015160ff90811661010090810261ff00199290951660ff1993841617821694909417909255606085015160028501556080850151600385015560a08501516004909401805460c09096015115159093029315159416939093179092161790556114143385611b59565b7f073e229b017abef20a1f46a057285c5070d61c6253a90247a0687502f7da518a84604051611443919061340f565b60405180910390a150505050505050565b61146561145f611a26565b83611b77565b6114815760405162461bcd60e51b81526004016104c1906132eb565b61148d84848484611f4d565b50505050565b601181815481106114a357600080fd5b90600052602060002090600502016000915090508060000180546114c6906134c9565b80601f01602080910402602001604051908101604052809291908181526020018280546114f2906134c9565b801561153f5780601f106115145761010080835404028352916020019161153f565b820191906000526020600020905b81548152906001019060200180831161152257829003601f168201915b505050600184015460028501546003860154600490960154949560ff808416966101009485900482169650929450909282821692041687565b606061158382611a09565b61159f5760405162461bcd60e51b81526004016104c190613224565b60006115a9611f80565b905060008151116115c957604051806020016040528060008152506115f4565b806115d384611f92565b6040516020016115e4929190612ac4565b6040516020818303038152906040525b9392505050565b6000806000805b600b54611617906001600160a01b0316610b5e565b8110156116ee57600b54601190611637906001600160a01b0316836107e4565b8154811061165557634e487b7160e01b600052603260045260246000fd5b600091825260209091206004600590920201015460ff161580156116c95750600b5460ff861690601190611692906001600160a01b0316846107e4565b815481106116b057634e487b7160e01b600052603260045260246000fd5b600091825260209091206001600590920201015460ff16145b156116dc57826116d881613504565b9350505b806116e681613504565b915050611602565b508161170c5760405162461bcd60e51b81526004016104c190613091565b6000826001600160401b0381111561173457634e487b7160e01b600052604160045260246000fd5b60405190808252806020026020018201604052801561175d578160200160208202803683370190505b50905060005b600b54611778906001600160a01b0316610b5e565b81101561189057600b54601190611798906001600160a01b0316836107e4565b815481106117b657634e487b7160e01b600052603260045260246000fd5b600091825260209091206004600590920201015460ff1615801561182a5750600b5460ff8716906011906117f3906001600160a01b0316846107e4565b8154811061181157634e487b7160e01b600052603260045260246000fd5b600091825260209091206001600590920201015460ff16145b1561187e57600b54611845906001600160a01b0316826107e4565b82848151811061186557634e487b7160e01b600052603260045260246000fd5b60209081029190910101528261187a81613504565b9350505b8061188881613504565b915050611763565b506000815142336013546040516020016118ac93929190612b26565b6040516020818303038152906040528051906020012060001c6118cf919061351f565b90508181815181106118f157634e487b7160e01b600052603260045260246000fd5b6020026020010151945050505050610403565b6001600160a01b03918216600090815260056020908152604080832093909416825291909152205460ff1690565b8051602081830181018051600c825292820191909301209152546001600160a01b031681565b611960611a26565b6001600160a01b0316611971610e40565b6001600160a01b0316146119975760405162461bcd60e51b81526004016104c1906131a6565b6001600160a01b0381166119bd5760405162461bcd60e51b81526004016104c190612d92565b6119c681611d21565b50565b60006001600160e01b031982166380ac58cd60e01b14806119fa57506001600160e01b03198216635b5e139f60e01b145b806104005750610400826120ac565b6000908152600260205260409020546001600160a01b0316151590565b3390565b600081815260046020526040902080546001600160a01b0319166001600160a01b0384169081179091558190611a5f82610b17565b6001600160a01b03167f8c5be1e5ebec7d5bd14f71427d1e84f3dd0314c0f7b2291e5b200ac8c7c3b92560405160405180910390a45050565b60006103e882604051602001611aae9190612aa8565b6040516020818303038152906040528051906020012060001c610400919061351f565b60006103e782604051602001611ae79190612aa8565b6040516020818303038152906040528051906020012060001c611b0a919061351f565b610400906001613424565b600081611b24846103e8613450565b6115f49190613424565b600081611b3b8585611b15565b611b47906103e8613450565b611b519190613424565b949350505050565b611b738282604051806020016040528060008152506120c5565b5050565b6000611b8282611a09565b611b9e5760405162461bcd60e51b81526004016104c190612f11565b6000611ba983610b17565b9050806001600160a01b0316846001600160a01b03161480611be45750836001600160a01b0316611bd98461049a565b6001600160a01b0316145b80611b515750611b518185611904565b826001600160a01b0316611c0782610b17565b6001600160a01b031614611c2d5760405162461bcd60e51b81526004016104c1906131db565b6001600160a01b038216611c535760405162461bcd60e51b81526004016104c190612e0f565b611c5e8383836120f8565b611c69600082611a2a565b6001600160a01b0383166000908152600360205260408120805460019290611c9290849061346f565b90915550506001600160a01b0382166000908152600360205260408120805460019290611cc0908490613424565b909155505060008181526002602052604080822080546001600160a01b0319166001600160a01b0386811691821790925591518493918716917fddf252ad1be2c89b69c2b068fc378daa952ba7f163c4a11628f55a4df523b3ef91a4505050565b600a80546001600160a01b038381166001600160a01b0319831681179093556040519116919082907f8be0079c531659141344cd1fd0a4f28419497f9722a3daafe3b4186f6b6457e090600090a35050565b6000620f424060118381548110611d9a57634e487b7160e01b600052603260045260246000fd5b906000526020600020906005020160030154611db6919061343c565b15611dc357506001610403565b506000610403565b60008060118381548110611def57634e487b7160e01b600052603260045260246000fd5b906000526020600020906005020160030154620f424060118681548110611e2657634e487b7160e01b600052603260045260246000fd5b906000526020600020906005020160030154611e42919061343c565b611e4f90620f4240613450565b611e599190613424565b90506000601281611e6d620f42408561351f565b8152602001908152602001600020546001611e889190613424565b905080611e976103e88461343c565b611ea3906103e8613450565b611ead9190613424565b95945050505050565b600160118281548110611ed957634e487b7160e01b600052603260045260246000fd5b60009182526020909120600590910201600401805460ff1916911515919091179055600b54611f139033906001600160a01b031683611bf4565b7ff626e9712bfc1d05519ae9d87cfe12f82248296f837942a0d818b10080ed4e4c81604051611f42919061340f565b60405180910390a150565b611f58848484611bf4565b611f6484848484612181565b61148d5760405162461bcd60e51b81526004016104c190612d40565b60408051602081019091526000815290565b606081611fb757506040805180820190915260018152600360fc1b6020820152610403565b8160005b8115611fe15780611fcb81613504565b9150611fda9050600a8361343c565b9150611fbb565b6000816001600160401b0381111561200957634e487b7160e01b600052604160045260246000fd5b6040519080825280601f01601f191660200182016040528015612033576020820181803683370190505b5090505b8415611b515761204860018361346f565b9150612055600a8661351f565b612060906030613424565b60f81b81838151811061208357634e487b7160e01b600052603260045260246000fd5b60200101906001600160f81b031916908160001a9053506120a5600a8661343c565b9450612037565b6001600160e01b031981166301ffc9a760e01b14919050565b6120cf838361229c565b6120dc6000848484612181565b6105795760405162461bcd60e51b81526004016104c190612d40565b612103838383610579565b6001600160a01b03831661211f5761211a8161237b565b612142565b816001600160a01b0316836001600160a01b0316146121425761214283826123bf565b6001600160a01b03821661215e576121598161245c565b610579565b826001600160a01b0316826001600160a01b031614610579576105798282612535565b6000612195846001600160a01b0316612579565b1561229157836001600160a01b031663150b7a026121b1611a26565b8786866040518563ffffffff1660e01b81526004016121d39493929190612b62565b602060405180830381600087803b1580156121ed57600080fd5b505af192505050801561221d575060408051601f3d908101601f1916820190925261221a9181019061289d565b60015b612277573d80801561224b576040519150601f19603f3d011682016040523d82523d6000602084013e612250565b606091505b50805161226f5760405162461bcd60e51b81526004016104c190612d40565b805181602001fd5b6001600160e01b031916630a85bd0160e11b149050611b51565b506001949350505050565b6001600160a01b0382166122c25760405162461bcd60e51b81526004016104c1906130ee565b6122cb81611a09565b156122e85760405162461bcd60e51b81526004016104c190612dd8565b6122f4600083836120f8565b6001600160a01b038216600090815260036020526040812080546001929061231d908490613424565b909155505060008181526002602052604080822080546001600160a01b0319166001600160a01b03861690811790915590518392907fddf252ad1be2c89b69c2b068fc378daa952ba7f163c4a11628f55a4df523b3ef908290a45050565b600880546000838152600960205260408120829055600182018355919091527ff3f7a9fe364faab93b216da50a3214154f22a0a2b415b23a84c8169e8b636ee30155565b600060016123cc84610b5e565b6123d6919061346f565b600083815260076020526040902054909150808214612429576001600160a01b03841660009081526006602090815260408083208584528252808320548484528184208190558352600790915290208190555b5060009182526007602090815260408084208490556001600160a01b039094168352600681528383209183525290812055565b60085460009061246e9060019061346f565b600083815260096020526040812054600880549394509092849081106124a457634e487b7160e01b600052603260045260246000fd5b9060005260206000200154905080600883815481106124d357634e487b7160e01b600052603260045260246000fd5b600091825260208083209091019290925582815260099091526040808220849055858252812055600880548061251957634e487b7160e01b600052603160045260246000fd5b6001900381819060005260206000200160009055905550505050565b600061254083610b5e565b6001600160a01b039093166000908152600660209081526040808320868452825280832085905593825260079052919091209190915550565b3b151590565b82805461258b906134c9565b90600052602060002090601f0160209004810192826125ad57600085556125f3565b82601f106125c657805160ff19168380011785556125f3565b828001600101855582156125f3579182015b828111156125f35782518255916020019190600101906125d8565b506125ff929150612603565b5090565b5b808211156125ff5760008155600101612604565b60006001600160401b03808411156126325761263261355f565b604051601f8501601f19908116603f0116810190828211818310171561265a5761265a61355f565b8160405280935085815286868601111561267357600080fd5b858560208301376000602087830101525050509392505050565b80356001600160a01b038116811461040357600080fd5b600082601f8301126126b4578081fd5b6115f483833560208501612618565b803560ff8116811461040357600080fd5b6000602082840312156126e5578081fd5b6115f48261268d565b60008060408385031215612700578081fd5b6127098361268d565b91506127176020840161268d565b90509250929050565b600080600060608486031215612734578081fd5b61273d8461268d565b925061274b6020850161268d565b9150604084013590509250925092565b60008060008060808587031215612770578081fd5b6127798561268d565b93506127876020860161268d565b92506040850135915060608501356001600160401b038111156127a8578182fd5b8501601f810187136127b8578182fd5b6127c787823560208401612618565b91505092959194509250565b600080604083850312156127e5578182fd5b6127ee8361268d565b915060208301358015158114612802578182fd5b809150509250929050565b6000806040838503121561281f578182fd5b6128288361268d565b915060208301356001600160401b03811115612842578182fd5b61284e858286016126a4565b9150509250929050565b6000806040838503121561286a578182fd5b6128738361268d565b946020939093013593505050565b600060208284031215612892578081fd5b81356115f481613575565b6000602082840312156128ae578081fd5b81516115f481613575565b6000602082840312156128ca578081fd5b81356001600160401b038111156128df578182fd5b611b51848285016126a4565b6000806000606084860312156128ff578283fd5b83356001600160401b03811115612914578384fd5b612920868287016126a4565b93505061292f602085016126c3565b915061293d604085016126c3565b90509250925092565b600060208284031215612957578081fd5b5035919050565b600080600060608486031215612972578283fd5b8335925060208401356001600160401b0381111561298e578283fd5b61299a868287016126a4565b92505061293d604085016126c3565b600080604083850312156129bb578182fd5b50508035926020909101359150565b6000602082840312156129db578081fd5b6115f4826126c3565b600081518084526129fc816020860160208601613486565b601f01601f19169290920160200192915050565b805460009060028104600180831680612a2a57607f831692505b6020808410821415612a4a57634e487b7160e01b86526022600452602486fd5b818015612a5e5760018114612a6f57612a9c565b60ff19861689528489019650612a9c565b612a7888613418565b60005b86811015612a945781548b820152908501908301612a7b565b505084890196505b50505050505092915050565b60008251612aba818460208701613486565b9190910192915050565b60008351612ad6818460208801613486565b835190830190612aea818360208801613486565b01949350505050565b6000612aff8286612a10565b8451612b0f818360208901613486565b612b1b81830186612a10565b979650505050505050565b92835260609190911b6bffffffffffffffffffffffff19166020830152603482015260540190565b6001600160a01b0391909116815260200190565b6001600160a01b0385811682528416602082015260408101839052608060608201819052600090612b95908301846129e4565b9695505050505050565b6001600160a01b0383168152604060208201819052600090611b51908301846129e4565b901515815260200190565b6000602082526115f460208301846129e4565b600060808252612bf460808301876129e4565b60ff958616602084015293909416604082015290151560609091015292915050565b600060e08252612c2960e083018a6129e4565b60ff988916602084015296909716604082015260608101949094526080840192909252151560a0830152151560c09091015292915050565b6020808252601890820152774e6f6e20667573696f6e6e61626c6520656c656d656e747360401b604082015260600190565b602080825260189082015277436f6d62696e6174696f6e206e6f7420706f737369626c6560401b604082015260600190565b6020808252601690820152752737ba1030903932b3b4ba32b932b210383630bcb2b960511b604082015260600190565b6020808252602b908201527f455243373231456e756d657261626c653a206f776e657220696e646578206f7560408201526a74206f6620626f756e647360a81b606082015260800190565b60208082526032908201527f4552433732313a207472616e7366657220746f206e6f6e20455243373231526560408201527131b2b4bb32b91034b6b83632b6b2b73a32b960711b606082015260800190565b60208082526026908201527f4f776e61626c653a206e6577206f776e657220697320746865207a65726f206160408201526564647265737360d01b606082015260800190565b6020808252601c908201527f4552433732313a20746f6b656e20616c7265616479206d696e74656400000000604082015260600190565b60208082526024908201527f4552433732313a207472616e7366657220746f20746865207a65726f206164646040820152637265737360e01b606082015260800190565b60208082526019908201527822a9219b99189d1030b8383937bb32903a379031b0b63632b960391b604082015260600190565b6020808252602a908201527f796f7520617265206e6f7420617574686f72697a656420746f207365742074686040820152691a5cc81858d8dbdd5b9d60b21b606082015260800190565b60208082526021908201527f7468697320706c6179657220697320616c7265616479207265676973746572656040820152601960fa1b606082015260800190565b6020808252602c908201527f4552433732313a206f70657261746f7220717565727920666f72206e6f6e657860408201526b34b9ba32b73a103a37b5b2b760a11b606082015260800190565b60208082526038908201527f4552433732313a20617070726f76652063616c6c6572206973206e6f74206f776040820152771b995c881b9bdc88185c1c1c9bdd995908199bdc88185b1b60421b606082015260800190565b60208082526029908201527f796f7520617265206e6f7420617574686f72697a656420746f20757064617465604082015268103090383630bcb2b960b91b606082015260800190565b6020808252602a908201527f4552433732313a2062616c616e636520717565727920666f7220746865207a65604082015269726f206164647265737360b01b606082015260800190565b60208082526029908201527f4552433732313a206f776e657220717565727920666f72206e6f6e657869737460408201526832b73a103a37b5b2b760b91b606082015260800190565b6020808252603a908201527f5468657265206973206e6f7420656e6f756768206974656d20617661696c626160408201527f6c652c20706c6561736520636f6d65206261636b206c61746572000000000000606082015260800190565b6020808252818101527f4552433732313a206d696e7420746f20746865207a65726f2061646472657373604082015260600190565b6020808252601a908201527f596f752068617665206e6f207265776172647320746f20676574000000000000604082015260600190565b6020808252602c908201527f4552433732313a20617070726f76656420717565727920666f72206e6f6e657860408201526b34b9ba32b73a103a37b5b2b760a11b606082015260800190565b6020808252818101527f4f776e61626c653a2063616c6c6572206973206e6f7420746865206f776e6572604082015260600190565b60208082526029908201527f4552433732313a207472616e73666572206f6620746f6b656e2074686174206960408201526839903737ba1037bbb760b91b606082015260800190565b6020808252602f908201527f4552433732314d657461646174613a2055524920717565727920666f72206e6f60408201526e3732bc34b9ba32b73a103a37b5b2b760891b606082015260800190565b60208082526021908201527f4552433732313a20617070726f76616c20746f2063757272656e74206f776e656040820152603960f91b606082015260800190565b6020808252601b908201527f4e6f6e6520617661696c61626c65206974656d20666f72206e6f770000000000604082015260600190565b60208082526031908201527f4552433732313a207472616e736665722063616c6c6572206973206e6f74206f6040820152701ddb995c881b9bdc88185c1c1c9bdd9959607a1b606082015260800190565b60208082526034908201527f706c656173652073657420666972737420616e20457468657265756d206164646040820152733932b9b9903337b9103a3434b990383630bcb2b960611b606082015260800190565b6020808252602c908201527f455243373231456e756d657261626c653a20676c6f62616c20696e646578206f60408201526b7574206f6620626f756e647360a01b606082015260800190565b6020808252601990820152784e6f7420746865206f776e6572206f6620746865206974656d60381b604082015260600190565b90815260200190565b60009081526020902090565b6000821982111561343757613437613533565b500190565b60008261344b5761344b613549565b500490565b600081600019048311821515161561346a5761346a613533565b500290565b60008282101561348157613481613533565b500390565b60005b838110156134a1578181015183820152602001613489565b8381111561148d5750506000910152565b6000816134c1576134c1613533565b506000190190565b6002810460018216806134dd57607f821691505b602082108114156134fe57634e487b7160e01b600052602260045260246000fd5b50919050565b600060001982141561351857613518613533565b5060010190565b60008261352e5761352e613549565b500690565b634e487b7160e01b600052601160045260246000fd5b634e487b7160e01b600052601260045260246000fd5b634e487b7160e01b600052604160045260246000fd5b6001600160e01b0319811681146119c657600080fdfea26469706673582212200081b4a756e75b80b346411d9aaef1e15bd1db28832307445aa529e3d453b97764736f6c63430008010033",
  "immutableReferences": {},
  "source": "// SPDX-License-Identifier: GPL-3.0\r\n\r\npragma solidity 0.8.1;\r\n\r\nimport \"./convertRewardNFT.sol\";\r\n\r\n/**\r\n * @title Create a super monument level 3 by fusion\r\n * @notice Create a new item from 2 level 2 monument and matrial\r\n * @dev This contrat create a super monument with a new composition on the basis of a monument and a material. \r\n * once the new Item is created, it is sent to the player and the basis item are sent to the date database\r\n * with a lock status\r\n */\r\ncontract fusion is convertRewardNFT {\r\n    \r\n    event fusionnedItemCreate(uint tokenId);\r\n    event lockItem(uint tokenId);\r\n    \r\n    ///@dev Make the fusion between two items, create the composition, the new name, continent and tokenId\r\n\tfunction fusionItem(uint _myItemId1, uint _myItemId2) public {\r\n  \r\n\t    require (ownerOf(_myItemId1) == msg.sender && ownerOf(_myItemId2) == msg.sender, \"Not the owner of the item\");\r\n\t    require (items[_myItemId1].levelItem == 2 && items[_myItemId2].levelItem == 2, \"Non fusionnable elements\");\r\n\t    require ((_isAnItemFusionable(_myItemId1) && !_isAnItemFusionable(_myItemId2)) || \r\n\t      (!_isAnItemFusionable(_myItemId1) && _isAnItemFusionable(_myItemId2)) , \"Combination not possible\");\r\n\t    \r\n\t    uint newComposition;\r\n\t    uint tokenId = items.length;\r\n\t    uint8 newContinent;\r\n\t    string memory newName;\r\n\t    string memory espace = \" \";\r\n\r\n\t    if (_isAnItemFusionable(_myItemId1)){\r\n\t      newComposition = _fusion(_myItemId1,_myItemId2);\r\n\t      newContinent = items[_myItemId1].continent;\r\n\t    }else{\r\n\t      newComposition = _fusion(_myItemId2,_myItemId1);\r\n\t      newContinent = items[_myItemId2].continent;\r\n\t    }\r\n\r\n\t    newName = string(abi.encodePacked(items[_myItemId1].name ,espace,items[_myItemId2].name));\r\n\r\n\t    _lockItem(_myItemId1);\r\n\t    _lockItem(_myItemId2);\r\n\r\n\t    items.push(Item(newName,3, newContinent,tokenId,newComposition, false, false));\r\n\t    _safeMint(msg.sender,tokenId);\r\n\t    \r\n\t    emit fusionnedItemCreate(tokenId);   \r\n  \t}\r\n    \r\n    ///@dev Check if the tokenId is a fusionnable monument\r\n \tfunction _isAnItemFusionable (uint _tokenId) private view returns(bool){\r\n\t  \r\n\t    if ((items[_tokenId].composition)/1000000 != 0 ){\r\n\t      return true;\r\n\t    }else {\r\n\t      return false;\r\n\t    }\r\n  \t}\r\n    \r\n    ///@dev Compute the composition of the new super monument\r\n  \tfunction _fusion(uint _tokenId1, uint _tokenId2) private view returns (uint){\r\n  \t\tuint compositionIntermediate = ((items[_tokenId1].composition / 1000000) * 1000000) + items[_tokenId2].composition;\r\n     \tuint codeThirdPart = exemplaireNumbers[compositionIntermediate % 1000000] + 1;\r\n     \treturn (((compositionIntermediate /1000) * 1000) + codeThirdPart); \r\n  \t}\r\n    \r\n    ///@dev Send the basis momunent and material to the data base with the locked status  \r\n  \tfunction _lockItem(uint _tokenId) private {\r\n  \t\titems[_tokenId].locked = true;\r\n\t    _transfer(msg.sender,_administrator, _tokenId);\r\n\t    emit lockItem(_tokenId);\r\n  \t}\r\n}",
  "sourcePath": "C:/Users/fboud/OneDrive/Documents/Alyra/projetFinal/contracts/fusion.sol",
  "compiler": {
    "name": "solc",
    "version": "0.8.1+commit.df193b15.Emscripten.clang"
  },
  "schemaVersion": "3.4.1",
  "updatedAt": "2021-07-29T16:02:55.090Z",
  "devdoc": {
    "details": "This contrat create a super monument with a new composition on the basis of a monument and a material.  once the new Item is created, it is sent to the player and the basis item are sent to the date database with a lock status",
    "kind": "dev",
    "methods": {
      "approve(address,uint256)": {
        "details": "See {IERC721-approve}."
      },
      "balanceOf(address)": {
        "details": "See {IERC721-balanceOf}."
      },
      "createItem(uint256,string,uint8)": {
        "details": "Function allowing to create items. Only the adminstrator can make one"
      },
      "fusionItem(uint256,uint256)": {
        "details": "Make the fusion between two items, create the composition, the new name, continent and tokenId"
      },
      "getApproved(uint256)": {
        "details": "See {IERC721-getApproved}."
      },
      "getAvailableItem(uint8)": {
        "details": "Get an available item in the main database of unlock items. First we create the size of an array, then we fill it with the eligible token  and at the end we send the Id of the won token"
      },
      "getReward()": {
        "details": "Transform the reward as a NFT"
      },
      "isApprovedForAll(address,address)": {
        "details": "See {IERC721-isApprovedForAll}."
      },
      "name()": {
        "details": "See {IERC721Metadata-name}."
      },
      "owner()": {
        "details": "Returns the address of the current owner."
      },
      "ownerOf(uint256)": {
        "details": "See {IERC721-ownerOf}."
      },
      "renounceOwnership()": {
        "details": "Leaves the contract without owner. It will not be possible to call `onlyOwner` functions anymore. Can only be called by the current owner. NOTE: Renouncing ownership will leave the contract without an owner, thereby removing any functionality that is only available to the owner."
      },
      "safeTransferFrom(address,address,uint256)": {
        "details": "See {IERC721-safeTransferFrom}."
      },
      "safeTransferFrom(address,address,uint256,bytes)": {
        "details": "See {IERC721-safeTransferFrom}."
      },
      "setApprovalForAll(address,bool)": {
        "details": "See {IERC721-setApprovalForAll}."
      },
      "setMultiversePlayer(address,string)": {
        "details": "link a login with a player. The login must be the exact same one than the one used in POW"
      },
      "supportsInterface(bytes4)": {
        "details": "See {IERC165-supportsInterface}."
      },
      "symbol()": {
        "details": "See {IERC721Metadata-symbol}."
      },
      "tokenByIndex(uint256)": {
        "details": "See {IERC721Enumerable-tokenByIndex}."
      },
      "tokenOfOwnerByIndex(address,uint256)": {
        "details": "See {IERC721Enumerable-tokenOfOwnerByIndex}."
      },
      "tokenURI(uint256)": {
        "details": "See {IERC721Metadata-tokenURI}."
      },
      "totalSupply()": {
        "details": "See {IERC721Enumerable-totalSupply}."
      },
      "transferFrom(address,address,uint256)": {
        "details": "See {IERC721-transferFrom}."
      },
      "transferOwnership(address)": {
        "details": "Transfers ownership of the contract to a new account (`newOwner`). Can only be called by the current owner."
      },
      "updateMultiversePlayer(string,uint8,uint8)": {
        "details": "Update the data of a registered player. The adnministrator Only can set this. In the future, the oracle will do that"
      }
    },
    "title": "Create a super monument level 3 by fusion",
    "version": 1
  },
  "userdoc": {
    "kind": "user",
    "methods": {},
    "notice": "Create a new item from 2 level 2 monument and matrial",
    "version": 1
  }
}