{
  "contractName": "fusion",
  "abi": [
    {
      "anonymous": false,
      "inputs": [
        {
          "indexed": true,
          "internalType": "address",
          "name": "owner",
          "type": "address"
        },
        {
          "indexed": true,
          "internalType": "address",
          "name": "approved",
          "type": "address"
        },
        {
          "indexed": true,
          "internalType": "uint256",
          "name": "tokenId",
          "type": "uint256"
        }
      ],
      "name": "Approval",
      "type": "event"
    },
    {
      "anonymous": false,
      "inputs": [
        {
          "indexed": true,
          "internalType": "address",
          "name": "owner",
          "type": "address"
        },
        {
          "indexed": true,
          "internalType": "address",
          "name": "operator",
          "type": "address"
        },
        {
          "indexed": false,
          "internalType": "bool",
          "name": "approved",
          "type": "bool"
        }
      ],
      "name": "ApprovalForAll",
      "type": "event"
    },
    {
      "anonymous": false,
      "inputs": [
        {
          "indexed": false,
          "internalType": "address",
          "name": "addressPlayer",
          "type": "address"
        },
        {
          "indexed": false,
          "internalType": "string",
          "name": "loginPlayer",
          "type": "string"
        }
      ],
      "name": "NewPlayerRegistered",
      "type": "event"
    },
    {
      "anonymous": false,
      "inputs": [
        {
          "indexed": true,
          "internalType": "address",
          "name": "previousOwner",
          "type": "address"
        },
        {
          "indexed": true,
          "internalType": "address",
          "name": "newOwner",
          "type": "address"
        }
      ],
      "name": "OwnershipTransferred",
      "type": "event"
    },
    {
      "anonymous": false,
      "inputs": [
        {
          "indexed": true,
          "internalType": "address",
          "name": "from",
          "type": "address"
        },
        {
          "indexed": true,
          "internalType": "address",
          "name": "to",
          "type": "address"
        },
        {
          "indexed": true,
          "internalType": "uint256",
          "name": "tokenId",
          "type": "uint256"
        }
      ],
      "name": "Transfer",
      "type": "event"
    },
    {
      "anonymous": false,
      "inputs": [
        {
          "indexed": false,
          "internalType": "uint256",
          "name": "tokenId",
          "type": "uint256"
        }
      ],
      "name": "fusionnedItemCreate",
      "type": "event"
    },
    {
      "anonymous": false,
      "inputs": [
        {
          "indexed": false,
          "internalType": "uint256",
          "name": "tokenId",
          "type": "uint256"
        }
      ],
      "name": "lockItem",
      "type": "event"
    },
    {
      "anonymous": false,
      "inputs": [
        {
          "indexed": false,
          "internalType": "string",
          "name": "login",
          "type": "string"
        }
      ],
      "name": "playerUpdated",
      "type": "event"
    },
    {
      "anonymous": false,
      "inputs": [
        {
          "indexed": false,
          "internalType": "string",
          "name": "tokenName",
          "type": "string"
        }
      ],
      "name": "rewardWithdrawn",
      "type": "event"
    },
    {
      "inputs": [
        {
          "internalType": "address",
          "name": "to",
          "type": "address"
        },
        {
          "internalType": "uint256",
          "name": "tokenId",
          "type": "uint256"
        }
      ],
      "name": "approve",
      "outputs": [],
      "stateMutability": "nonpayable",
      "type": "function"
    },
    {
      "inputs": [
        {
          "internalType": "address",
          "name": "owner",
          "type": "address"
        }
      ],
      "name": "balanceOf",
      "outputs": [
        {
          "internalType": "uint256",
          "name": "",
          "type": "uint256"
        }
      ],
      "stateMutability": "view",
      "type": "function"
    },
    {
      "inputs": [
        {
          "internalType": "uint256",
          "name": "_type",
          "type": "uint256"
        },
        {
          "internalType": "string",
          "name": "_name",
          "type": "string"
        },
        {
          "internalType": "uint8",
          "name": "_continent",
          "type": "uint8"
        }
      ],
      "name": "createItem",
      "outputs": [],
      "stateMutability": "nonpayable",
      "type": "function"
    },
    {
      "inputs": [
        {
          "internalType": "uint256",
          "name": "",
          "type": "uint256"
        }
      ],
      "name": "exemplaireNumbers",
      "outputs": [
        {
          "internalType": "uint256",
          "name": "",
          "type": "uint256"
        }
      ],
      "stateMutability": "view",
      "type": "function"
    },
    {
      "inputs": [
        {
          "internalType": "uint256",
          "name": "tokenId",
          "type": "uint256"
        }
      ],
      "name": "getApproved",
      "outputs": [
        {
          "internalType": "address",
          "name": "",
          "type": "address"
        }
      ],
      "stateMutability": "view",
      "type": "function"
    },
    {
      "inputs": [],
      "name": "getReward",
      "outputs": [],
      "stateMutability": "nonpayable",
      "type": "function"
    },
    {
      "inputs": [
        {
          "internalType": "address",
          "name": "owner",
          "type": "address"
        },
        {
          "internalType": "address",
          "name": "operator",
          "type": "address"
        }
      ],
      "name": "isApprovedForAll",
      "outputs": [
        {
          "internalType": "bool",
          "name": "",
          "type": "bool"
        }
      ],
      "stateMutability": "view",
      "type": "function"
    },
    {
      "inputs": [
        {
          "internalType": "uint256",
          "name": "",
          "type": "uint256"
        }
      ],
      "name": "items",
      "outputs": [
        {
          "internalType": "string",
          "name": "name",
          "type": "string"
        },
        {
          "internalType": "uint8",
          "name": "levelItem",
          "type": "uint8"
        },
        {
          "internalType": "uint8",
          "name": "continent",
          "type": "uint8"
        },
        {
          "internalType": "uint256",
          "name": "tokenId",
          "type": "uint256"
        },
        {
          "internalType": "uint256",
          "name": "composition",
          "type": "uint256"
        },
        {
          "internalType": "bool",
          "name": "locked",
          "type": "bool"
        },
        {
          "internalType": "bool",
          "name": "onSold",
          "type": "bool"
        }
      ],
      "stateMutability": "view",
      "type": "function"
    },
    {
      "inputs": [
        {
          "internalType": "address",
          "name": "",
          "type": "address"
        }
      ],
      "name": "multiverseData",
      "outputs": [
        {
          "internalType": "string",
          "name": "login",
          "type": "string"
        },
        {
          "internalType": "uint8",
          "name": "rewardLv1",
          "type": "uint8"
        },
        {
          "internalType": "uint8",
          "name": "rewardLv2",
          "type": "uint8"
        },
        {
          "internalType": "bool",
          "name": "isRegistered",
          "type": "bool"
        }
      ],
      "stateMutability": "view",
      "type": "function"
    },
    {
      "inputs": [
        {
          "internalType": "string",
          "name": "",
          "type": "string"
        }
      ],
      "name": "multiverseIds",
      "outputs": [
        {
          "internalType": "address",
          "name": "",
          "type": "address"
        }
      ],
      "stateMutability": "view",
      "type": "function"
    },
    {
      "inputs": [],
      "name": "name",
      "outputs": [
        {
          "internalType": "string",
          "name": "",
          "type": "string"
        }
      ],
      "stateMutability": "view",
      "type": "function"
    },
    {
      "inputs": [],
      "name": "owner",
      "outputs": [
        {
          "internalType": "address",
          "name": "",
          "type": "address"
        }
      ],
      "stateMutability": "view",
      "type": "function"
    },
    {
      "inputs": [
        {
          "internalType": "uint256",
          "name": "tokenId",
          "type": "uint256"
        }
      ],
      "name": "ownerOf",
      "outputs": [
        {
          "internalType": "address",
          "name": "",
          "type": "address"
        }
      ],
      "stateMutability": "view",
      "type": "function"
    },
    {
      "inputs": [],
      "name": "renounceOwnership",
      "outputs": [],
      "stateMutability": "nonpayable",
      "type": "function"
    },
    {
      "inputs": [
        {
          "internalType": "address",
          "name": "from",
          "type": "address"
        },
        {
          "internalType": "address",
          "name": "to",
          "type": "address"
        },
        {
          "internalType": "uint256",
          "name": "tokenId",
          "type": "uint256"
        }
      ],
      "name": "safeTransferFrom",
      "outputs": [],
      "stateMutability": "nonpayable",
      "type": "function"
    },
    {
      "inputs": [
        {
          "internalType": "address",
          "name": "from",
          "type": "address"
        },
        {
          "internalType": "address",
          "name": "to",
          "type": "address"
        },
        {
          "internalType": "uint256",
          "name": "tokenId",
          "type": "uint256"
        },
        {
          "internalType": "bytes",
          "name": "_data",
          "type": "bytes"
        }
      ],
      "name": "safeTransferFrom",
      "outputs": [],
      "stateMutability": "nonpayable",
      "type": "function"
    },
    {
      "inputs": [
        {
          "internalType": "address",
          "name": "operator",
          "type": "address"
        },
        {
          "internalType": "bool",
          "name": "approved",
          "type": "bool"
        }
      ],
      "name": "setApprovalForAll",
      "outputs": [],
      "stateMutability": "nonpayable",
      "type": "function"
    },
    {
      "inputs": [
        {
          "internalType": "address",
          "name": "_addressPlayer",
          "type": "address"
        },
        {
          "internalType": "string",
          "name": "_login",
          "type": "string"
        }
      ],
      "name": "setMultiversePlayer",
      "outputs": [],
      "stateMutability": "nonpayable",
      "type": "function"
    },
    {
      "inputs": [
        {
          "internalType": "bytes4",
          "name": "interfaceId",
          "type": "bytes4"
        }
      ],
      "name": "supportsInterface",
      "outputs": [
        {
          "internalType": "bool",
          "name": "",
          "type": "bool"
        }
      ],
      "stateMutability": "view",
      "type": "function"
    },
    {
      "inputs": [],
      "name": "symbol",
      "outputs": [
        {
          "internalType": "string",
          "name": "",
          "type": "string"
        }
      ],
      "stateMutability": "view",
      "type": "function"
    },
    {
      "inputs": [
        {
          "internalType": "uint256",
          "name": "index",
          "type": "uint256"
        }
      ],
      "name": "tokenByIndex",
      "outputs": [
        {
          "internalType": "uint256",
          "name": "",
          "type": "uint256"
        }
      ],
      "stateMutability": "view",
      "type": "function"
    },
    {
      "inputs": [
        {
          "internalType": "address",
          "name": "owner",
          "type": "address"
        },
        {
          "internalType": "uint256",
          "name": "index",
          "type": "uint256"
        }
      ],
      "name": "tokenOfOwnerByIndex",
      "outputs": [
        {
          "internalType": "uint256",
          "name": "",
          "type": "uint256"
        }
      ],
      "stateMutability": "view",
      "type": "function"
    },
    {
      "inputs": [
        {
          "internalType": "uint256",
          "name": "tokenId",
          "type": "uint256"
        }
      ],
      "name": "tokenURI",
      "outputs": [
        {
          "internalType": "string",
          "name": "",
          "type": "string"
        }
      ],
      "stateMutability": "view",
      "type": "function"
    },
    {
      "inputs": [],
      "name": "totalSupply",
      "outputs": [
        {
          "internalType": "uint256",
          "name": "",
          "type": "uint256"
        }
      ],
      "stateMutability": "view",
      "type": "function"
    },
    {
      "inputs": [
        {
          "internalType": "address",
          "name": "from",
          "type": "address"
        },
        {
          "internalType": "address",
          "name": "to",
          "type": "address"
        },
        {
          "internalType": "uint256",
          "name": "tokenId",
          "type": "uint256"
        }
      ],
      "name": "transferFrom",
      "outputs": [],
      "stateMutability": "nonpayable",
      "type": "function"
    },
    {
      "inputs": [
        {
          "internalType": "address",
          "name": "newOwner",
          "type": "address"
        }
      ],
      "name": "transferOwnership",
      "outputs": [],
      "stateMutability": "nonpayable",
      "type": "function"
    },
    {
      "inputs": [
        {
          "internalType": "string",
          "name": "_login",
          "type": "string"
        },
        {
          "internalType": "uint8",
          "name": "_rewardLv1",
          "type": "uint8"
        },
        {
          "internalType": "uint8",
          "name": "_rewardLv2",
          "type": "uint8"
        }
      ],
      "name": "updateMultiversePlayer",
      "outputs": [],
      "stateMutability": "nonpayable",
      "type": "function"
    },
    {
      "inputs": [
        {
          "internalType": "uint256",
          "name": "_myItemId1",
          "type": "uint256"
        },
        {
          "internalType": "uint256",
          "name": "_myItemId2",
          "type": "uint256"
        }
      ],
      "name": "fusionItem",
      "outputs": [],
      "stateMutability": "nonpayable",
      "type": "function"
    }
  ],
  "bytecode": "0x60806040526001600e556002600f55600360105560016013553480156200002557600080fd5b506040805180820182526007815266706f77556e697160c81b602080830191825283518085019094526003845262504f5760e81b908401528151919291620000709160009162000111565b5080516200008690600190602084019062000111565b505050620000a36200009d620000bb60201b60201c565b620000bf565b600b80546001600160a01b03191633179055620001f4565b3390565b600a80546001600160a01b038381166001600160a01b0319831681179093556040519116919082907f8be0079c531659141344cd1fd0a4f28419497f9722a3daafe3b4186f6b6457e090600090a35050565b8280546200011f90620001b7565b90600052602060002090601f0160209004810192826200014357600085556200018e565b82601f106200015e57805160ff19168380011785556200018e565b828001600101855582156200018e579182015b828111156200018e57825182559160200191906001019062000171565b506200019c929150620001a0565b5090565b5b808211156200019c5760008155600101620001a1565b600281046001821680620001cc57607f821691505b60208210811415620001ee57634e487b7160e01b600052602260045260246000fd5b50919050565b61364580620002046000396000f3fe608060405234801561001057600080fd5b50600436106101845760003560e01c8063715018a6116100d9578063b6a4029611610087578063b6a4029614610325578063b88d4fde14610338578063bfb231d21461034b578063c87b56dd14610371578063e985e9c514610384578063e9dbd45a14610397578063f2fde38b146103aa57610184565b8063715018a6146102b15780637538822e146102b957806375adb7fd146102cc5780638da5cb5b146102ef57806395d89b41146102f75780639b008e47146102ff578063a22cb4651461031257610184565b80632f745c59116101365780632f745c59146102375780633d18b9121461024a57806342842e0e146102525780634f6ccce7146102655780636352211e14610278578063661c2b601461028b57806370a082311461029e57610184565b806301ffc9a71461018957806306fdde03146101b2578063081812fc146101c7578063095ea7b3146101e757806318160ddd146101fc5780631f5710891461021157806323b872dd14610224575b600080fd5b61019c6101973660046128d3565b6103bd565b6040516101a99190612bd2565b60405180910390f35b6101ba6103ea565b6040516101a99190612bdd565b6101da6101d5366004612998565b61047c565b6040516101a99190612b5d565b6101fa6101f53660046128aa565b6104c8565b005b610204610560565b6040516101a9919061349f565b6101fa61021f3660046129b0565b610566565b6101fa610232366004612772565b61078e565b6102046102453660046128aa565b6107c6565b6101fa610818565b6101fa610260366004612772565b610ae5565b610204610273366004612998565b610b00565b6101da610286366004612998565b610b5b565b610204610299366004612998565b610b90565b6102046102ac366004612726565b610ba2565b6101fa610be6565b6101fa6102c736600461293d565b610c2f565b6102df6102da366004612726565b610daf565b6040516101a99493929190612bf0565b6101da610e69565b6101ba610e78565b6101fa61030d36600461285f565b610e87565b6101fa610320366004612825565b610fed565b6101fa6103333660046129fb565b6110bb565b6101fa6103463660046127ad565b6114a6565b61035e610359366004612998565b6114e5565b6040516101a99796959493929190612c25565b6101ba61037f366004612998565b6115ca565b61019c610392366004612740565b61164d565b6101da6103a536600461290b565b61167b565b6101fa6103b8366004612726565b6116a1565b60006001600160e01b0319821663780e9d6360e01b14806103e257506103e282611712565b90505b919050565b6060600080546103f99061354d565b80601f01602080910402602001604051908101604052809291908181526020018280546104259061354d565b80156104725780601f1061044757610100808354040283529160200191610472565b820191906000526020600020905b81548152906001019060200180831161045557829003601f168201915b5050505050905090565b600061048782611752565b6104ac5760405162461bcd60e51b81526004016104a3906131ea565b60405180910390fd5b506000908152600460205260409020546001600160a01b031690565b60006104d382610b5b565b9050806001600160a01b0316836001600160a01b031614156105075760405162461bcd60e51b81526004016104a390613303565b806001600160a01b031661051961176f565b6001600160a01b0316148061053557506105358161039261176f565b6105515760405162461bcd60e51b81526004016104a390612fed565b61055b8383611773565b505050565b60085490565b61056e61176f565b6001600160a01b031661057f610e69565b6001600160a01b0316146105a55760405162461bcd60e51b81526004016104a390613236565b601154600e5460009182918291829182908914156105f5576105c6886117e1565b95506105ee604051806040016040528060058152602001643830b832b960d91b81525061181a565b9450600290505b600f5489141561060f576106088861181a565b9450600290505b60105489141561062957610622886117e1565b9550600190505b60126000610637888861185e565b815260200190815260200160002054600161065291906134a8565b935061065f868686611877565b92508360126000610670898961185e565b815260208101919091526040016000205561068b33836118a2565b6040805160e08101825289815260ff808416602080840191909152908a16928201929092526060810184905260808101859052600060a0820181905260c0820181905260118054600181018255915281518051929360059092027f31ecc21a745e3968a04e9570e4425bc18fa8019c68028196b546d1669c200c68019261071592849201906125d1565b506020820151600182018054604085015160ff90811661010090810261ff00199290951660ff1993841617821694909417909255606085015160028501556080850151600385015560a08501516004909401805460c0909601511515909302931515941693909317909216179055505050505050505050565b61079f61079961176f565b826118c0565b6107bb5760405162461bcd60e51b81526004016104a39061337b565b61055b83838361193d565b60006107d183610ba2565b82106107ef5760405162461bcd60e51b81526004016104a390612d85565b506001600160a01b03919091166000908152600660209081526040808320938352929052205490565b600b5461082d906001600160a01b0316610ba2565b6108495760405162461bcd60e51b81526004016104a390613344565b336000908152600d602052604090206001015462010000900460ff166108815760405162461bcd60e51b81526004016104a390612d55565b336000908152600d602052604090206001015460ff161515806108bd5750336000908152600d6020526040902060010154610100900460ff1615155b6108d95760405162461bcd60e51b81526004016104a3906131b3565b601380549060006108e983613588565b9091555050336000908152600d602052604090206001015460ff16156109e357336000908152600d602052604090206001015460ff165b80156109c75760006109326001611a6a565b600b5490915061094c906001600160a01b0316338361193d565b7fc13f9ae72e4e0dc35757e8e0eb7919f647d0b4b0c6451d638f810fcf13f2977b6011828154811061098e57634e487b7160e01b600052603260045260246000fd5b90600052602060002090600502016000016040516109ac9190612c70565b60405180910390a150806109bf81613536565b915050610920565b50336000908152600d60205260409020600101805460ff191690555b336000908152600d6020526040902060010154610100900460ff1615610ae357336000908152600d6020526040902060010154610100900460ff165b8015610ac6576000610a316002611a6a565b600b54909150610a4b906001600160a01b0316338361193d565b7fc13f9ae72e4e0dc35757e8e0eb7919f647d0b4b0c6451d638f810fcf13f2977b60118281548110610a8d57634e487b7160e01b600052603260045260246000fd5b9060005260206000209060050201600001604051610aab9190612c70565b60405180910390a15080610abe81613536565b915050610a1f565b50336000908152600d60205260409020600101805461ff00191690555b565b61055b838383604051806020016040528060008152506114a6565b6000610b0a610560565b8210610b285760405162461bcd60e51b81526004016104a390613420565b60088281548110610b4957634e487b7160e01b600052603260045260246000fd5b90600052602060002001549050919050565b6000818152600260205260408120546001600160a01b0316806103e25760405162461bcd60e51b81526004016104a3906130d8565b60126020526000908152604090205481565b60006001600160a01b038216610bca5760405162461bcd60e51b81526004016104a39061308e565b506001600160a01b031660009081526003602052604090205490565b610bee61176f565b6001600160a01b0316610bff610e69565b6001600160a01b031614610c255760405162461bcd60e51b81526004016104a390613236565b610ae36000611d73565b600b546001600160a01b03163314610c595760405162461bcd60e51b81526004016104a390613045565b600d6000600c85604051610c6d9190612ab7565b9081526040805160209281900383019020546001600160a01b03168352908201929092520160002060019081015462010000900460ff16151514610cc35760405162461bcd60e51b81526004016104a3906133cc565b81600d6000600c86604051610cd89190612ab7565b9081526040805160209281900383019020546001600160a01b031683529082019290925281016000908120600101805460ff191660ff9490941693909317909255518291600d91600c90610d2d908890612ab7565b9081526040805160209281900383019020546001600160a01b03168352908201929092528101600020600101805461ff00191661010060ff949094169390930292909217909155517faa6183438646fc8bb56f82868ce90c0a5bd1301970b115e976c90c1d696a155090610da2908590612bdd565b60405180910390a1505050565b600d60205260009081526040902080548190610dca9061354d565b80601f0160208091040260200160405190810160405280929190818152602001828054610df69061354d565b8015610e435780601f10610e1857610100808354040283529160200191610e43565b820191906000526020600020905b815481529060010190602001808311610e2657829003601f168201915b5050506001909301549192505060ff808216916101008104821691620100009091041684565b600a546001600160a01b031690565b6060600180546103f99061354d565b600b546001600160a01b0316331480610ea85750336001600160a01b038316145b610ec45760405162461bcd60e51b81526004016104a390612f16565b600d6000600c83604051610ed89190612ab7565b9081526040805160209281900383019020546001600160a01b0316835290820192909252016000206001015462010000900460ff1615610f2a5760405162461bcd60e51b81526004016104a390612f60565b81600c82604051610f3b9190612ab7565b908152604080516020928190038301902080546001600160a01b0319166001600160a01b039485161790559184166000908152600d8252919091208251610f84928401906125d1565b506001600160a01b0382166000908152600d602052604090819020600101805462ff0000191662010000179055517fd1271c0a878b06e77c2b145e81fda258074d1d9f72d29461da6de567fe185db390610fe19084908490612bae565b60405180910390a15050565b610ff561176f565b6001600160a01b0316826001600160a01b031614156110265760405162461bcd60e51b81526004016104a390612ee3565b806005600061103361176f565b6001600160a01b03908116825260208083019390935260409182016000908120918716808252919093529120805460ff19169215159290921790915561107761176f565b6001600160a01b03167f17307eab39ab6107e8899845ad3d59bd9653f200f220920489ca2b5937696c31836040516110af9190612bd2565b60405180910390a35050565b336110c583610b5b565b6001600160a01b03161480156110eb5750336110e082610b5b565b6001600160a01b0316145b6111075760405162461bcd60e51b81526004016104a39061346c565b6011828154811061112857634e487b7160e01b600052603260045260246000fd5b600091825260209091206005909102016001015460ff16600214801561118557506011818154811061116a57634e487b7160e01b600052603260045260246000fd5b600091825260209091206005909102016001015460ff166002145b6111a15760405162461bcd60e51b81526004016104a390612cf1565b6111aa82611dc5565b80156111bc57506111ba81611dc5565b155b806111dc57506111cb82611dc5565b1580156111dc57506111dc81611dc5565b6111f85760405162461bcd60e51b81526004016104a390612d23565b6011546040805180820190915260018152600160fd1b602082015260009190829060609061122587611dc5565b1561127d576112348787611e1d565b94506011878154811061125757634e487b7160e01b600052603260045260246000fd5b906000526020600020906005020160010160019054906101000a900460ff1692506112cc565b6112878688611e1d565b9450601186815481106112aa57634e487b7160e01b600052603260045260246000fd5b906000526020600020906005020160010160019054906101000a900460ff1692505b601187815481106112ed57634e487b7160e01b600052603260045260246000fd5b9060005260206000209060050201600001816011888154811061132057634e487b7160e01b600052603260045260246000fd5b906000526020600020906005020160000160405160200161134393929190612b02565b604051602081830303815290604052915061135d87611f08565b61136686611f08565b6040805160e081018252838152600360208083019190915260ff8616928201929092526060810186905260808101879052600060a0820181905260c0820181905260118054600181018255915281518051929360059092027f31ecc21a745e3968a04e9570e4425bc18fa8019c68028196b546d1669c200c6801926113ee92849201906125d1565b506020820151600182018054604085015160ff90811661010090810261ff00199290951660ff1993841617821694909417909255606085015160028501556080850151600385015560a08501516004909401805460c090960151151590930293151594169390931790921617905561146633856118a2565b7f073e229b017abef20a1f46a057285c5070d61c6253a90247a0687502f7da518a84604051611495919061349f565b60405180910390a150505050505050565b6114b76114b161176f565b836118c0565b6114d35760405162461bcd60e51b81526004016104a39061337b565b6114df84848484611f9f565b50505050565b601181815481106114f557600080fd5b90600052602060002090600502016000915090508060000180546115189061354d565b80601f01602080910402602001604051908101604052809291908181526020018280546115449061354d565b80156115915780601f1061156657610100808354040283529160200191611591565b820191906000526020600020905b81548152906001019060200180831161157457829003601f168201915b505050600184015460028501546003860154600490960154949560ff808416966101009485900482169650929450909282821692041687565b60606115d582611752565b6115f15760405162461bcd60e51b81526004016104a3906132b4565b60006115fb611fd2565b9050600081511161161b5760405180602001604052806000815250611646565b8061162584611fe4565b604051602001611636929190612ad3565b6040516020818303038152906040525b9392505050565b6001600160a01b03918216600090815260056020908152604080832093909416825291909152205460ff1690565b8051602081830181018051600c825292820191909301209152546001600160a01b031681565b6116a961176f565b6001600160a01b03166116ba610e69565b6001600160a01b0316146116e05760405162461bcd60e51b81526004016104a390613236565b6001600160a01b0381166117065760405162461bcd60e51b81526004016104a390612e22565b61170f81611d73565b50565b60006001600160e01b031982166380ac58cd60e01b148061174357506001600160e01b03198216635b5e139f60e01b145b806103e257506103e2826120fe565b6000908152600260205260409020546001600160a01b0316151590565b3390565b600081815260046020526040902080546001600160a01b0319166001600160a01b03841690811790915581906117a882610b5b565b6001600160a01b03167f8c5be1e5ebec7d5bd14f71427d1e84f3dd0314c0f7b2291e5b200ac8c7c3b92560405160405180910390a45050565b60006103e8826040516020016117f79190612ab7565b6040516020818303038152906040528051906020012060001c6103e291906135a3565b60006103e7826040516020016118309190612ab7565b6040516020818303038152906040528051906020012060001c61185391906135a3565b6103e29060016134a8565b60008161186d846103e86134d4565b61164691906134a8565b600081611884858561185e565b611890906103e86134d4565b61189a91906134a8565b949350505050565b6118bc828260405180602001604052806000815250612117565b5050565b60006118cb82611752565b6118e75760405162461bcd60e51b81526004016104a390612fa1565b60006118f283610b5b565b9050806001600160a01b0316846001600160a01b0316148061192d5750836001600160a01b03166119228461047c565b6001600160a01b0316145b8061189a575061189a818561164d565b826001600160a01b031661195082610b5b565b6001600160a01b0316146119765760405162461bcd60e51b81526004016104a39061326b565b6001600160a01b03821661199c5760405162461bcd60e51b81526004016104a390612e9f565b6119a783838361214a565b6119b2600082611773565b6001600160a01b03831660009081526003602052604081208054600192906119db9084906134f3565b90915550506001600160a01b0382166000908152600360205260408120805460019290611a099084906134a8565b909155505060008181526002602052604080822080546001600160a01b0319166001600160a01b0386811691821790925591518493918716917fddf252ad1be2c89b69c2b068fc378daa952ba7f163c4a11628f55a4df523b3ef91a4505050565b6000806000805b600b54611a86906001600160a01b0316610ba2565b811015611b5d57600b54601190611aa6906001600160a01b0316836107c6565b81548110611ac457634e487b7160e01b600052603260045260246000fd5b600091825260209091206004600590920201015460ff16158015611b385750600b5460ff861690601190611b01906001600160a01b0316846107c6565b81548110611b1f57634e487b7160e01b600052603260045260246000fd5b600091825260209091206001600590920201015460ff16145b15611b4b5782611b4781613588565b9350505b80611b5581613588565b915050611a71565b5081611b7b5760405162461bcd60e51b81526004016104a390613121565b6000826001600160401b03811115611ba357634e487b7160e01b600052604160045260246000fd5b604051908082528060200260200182016040528015611bcc578160200160208202803683370190505b50905060005b600b54611be7906001600160a01b0316610ba2565b811015611cff57600b54601190611c07906001600160a01b0316836107c6565b81548110611c2557634e487b7160e01b600052603260045260246000fd5b600091825260209091206004600590920201015460ff16158015611c995750600b5460ff871690601190611c62906001600160a01b0316846107c6565b81548110611c8057634e487b7160e01b600052603260045260246000fd5b600091825260209091206001600590920201015460ff16145b15611ced57600b54611cb4906001600160a01b0316826107c6565b828481518110611cd457634e487b7160e01b600052603260045260246000fd5b602090810291909101015282611ce981613588565b9350505b80611cf781613588565b915050611bd2565b50600081514233601354604051602001611d1b93929190612b35565b6040516020818303038152906040528051906020012060001c611d3e91906135a3565b9050818181518110611d6057634e487b7160e01b600052603260045260246000fd5b60200260200101519450505050506103e5565b600a80546001600160a01b038381166001600160a01b0319831681179093556040519116919082907f8be0079c531659141344cd1fd0a4f28419497f9722a3daafe3b4186f6b6457e090600090a35050565b6000620f424060118381548110611dec57634e487b7160e01b600052603260045260246000fd5b906000526020600020906005020160030154611e0891906134c0565b15611e15575060016103e5565b5060006103e5565b60008060118381548110611e4157634e487b7160e01b600052603260045260246000fd5b906000526020600020906005020160030154620f424060118681548110611e7857634e487b7160e01b600052603260045260246000fd5b906000526020600020906005020160030154611e9491906134c0565b611ea190620f42406134d4565b611eab91906134a8565b90506000601281611ebf620f4240856135a3565b8152602001908152602001600020546001611eda91906134a8565b905080611ee96103e8846134c0565b611ef5906103e86134d4565b611eff91906134a8565b95945050505050565b600160118281548110611f2b57634e487b7160e01b600052603260045260246000fd5b60009182526020909120600590910201600401805460ff1916911515919091179055600b54611f659033906001600160a01b03168361193d565b7ff626e9712bfc1d05519ae9d87cfe12f82248296f837942a0d818b10080ed4e4c81604051611f94919061349f565b60405180910390a150565b611faa84848461193d565b611fb6848484846121d3565b6114df5760405162461bcd60e51b81526004016104a390612dd0565b60408051602081019091526000815290565b60608161200957506040805180820190915260018152600360fc1b60208201526103e5565b8160005b8115612033578061201d81613588565b915061202c9050600a836134c0565b915061200d565b6000816001600160401b0381111561205b57634e487b7160e01b600052604160045260246000fd5b6040519080825280601f01601f191660200182016040528015612085576020820181803683370190505b5090505b841561189a5761209a6001836134f3565b91506120a7600a866135a3565b6120b29060306134a8565b60f81b8183815181106120d557634e487b7160e01b600052603260045260246000fd5b60200101906001600160f81b031916908160001a9053506120f7600a866134c0565b9450612089565b6001600160e01b031981166301ffc9a760e01b14919050565b61212183836122ee565b61212e60008484846121d3565b61055b5760405162461bcd60e51b81526004016104a390612dd0565b61215583838361055b565b6001600160a01b0383166121715761216c816123cd565b612194565b816001600160a01b0316836001600160a01b031614612194576121948382612411565b6001600160a01b0382166121b0576121ab816124ae565b61055b565b826001600160a01b0316826001600160a01b03161461055b5761055b8282612587565b60006121e7846001600160a01b03166125cb565b156122e357836001600160a01b031663150b7a0261220361176f565b8786866040518563ffffffff1660e01b81526004016122259493929190612b71565b602060405180830381600087803b15801561223f57600080fd5b505af192505050801561226f575060408051601f3d908101601f1916820190925261226c918101906128ef565b60015b6122c9573d80801561229d576040519150601f19603f3d011682016040523d82523d6000602084013e6122a2565b606091505b5080516122c15760405162461bcd60e51b81526004016104a390612dd0565b805181602001fd5b6001600160e01b031916630a85bd0160e11b14905061189a565b506001949350505050565b6001600160a01b0382166123145760405162461bcd60e51b81526004016104a39061317e565b61231d81611752565b1561233a5760405162461bcd60e51b81526004016104a390612e68565b6123466000838361214a565b6001600160a01b038216600090815260036020526040812080546001929061236f9084906134a8565b909155505060008181526002602052604080822080546001600160a01b0319166001600160a01b03861690811790915590518392907fddf252ad1be2c89b69c2b068fc378daa952ba7f163c4a11628f55a4df523b3ef908290a45050565b600880546000838152600960205260408120829055600182018355919091527ff3f7a9fe364faab93b216da50a3214154f22a0a2b415b23a84c8169e8b636ee30155565b6000600161241e84610ba2565b61242891906134f3565b60008381526007602052604090205490915080821461247b576001600160a01b03841660009081526006602090815260408083208584528252808320548484528184208190558352600790915290208190555b5060009182526007602090815260408084208490556001600160a01b039094168352600681528383209183525290812055565b6008546000906124c0906001906134f3565b600083815260096020526040812054600880549394509092849081106124f657634e487b7160e01b600052603260045260246000fd5b90600052602060002001549050806008838154811061252557634e487b7160e01b600052603260045260246000fd5b600091825260208083209091019290925582815260099091526040808220849055858252812055600880548061256b57634e487b7160e01b600052603160045260246000fd5b6001900381819060005260206000200160009055905550505050565b600061259283610ba2565b6001600160a01b039093166000908152600660209081526040808320868452825280832085905593825260079052919091209190915550565b3b151590565b8280546125dd9061354d565b90600052602060002090601f0160209004810192826125ff5760008555612645565b82601f1061261857805160ff1916838001178555612645565b82800160010185558215612645579182015b8281111561264557825182559160200191906001019061262a565b50612651929150612655565b5090565b5b808211156126515760008155600101612656565b60006001600160401b0380841115612684576126846135e3565b604051601f8501601f19908116603f011681019082821181831017156126ac576126ac6135e3565b816040528093508581528686860111156126c557600080fd5b858560208301376000602087830101525050509392505050565b80356001600160a01b03811681146103e557600080fd5b600082601f830112612706578081fd5b6116468383356020850161266a565b803560ff811681146103e557600080fd5b600060208284031215612737578081fd5b611646826126df565b60008060408385031215612752578081fd5b61275b836126df565b9150612769602084016126df565b90509250929050565b600080600060608486031215612786578081fd5b61278f846126df565b925061279d602085016126df565b9150604084013590509250925092565b600080600080608085870312156127c2578081fd5b6127cb856126df565b93506127d9602086016126df565b92506040850135915060608501356001600160401b038111156127fa578182fd5b8501601f8101871361280a578182fd5b6128198782356020840161266a565b91505092959194509250565b60008060408385031215612837578182fd5b612840836126df565b915060208301358015158114612854578182fd5b809150509250929050565b60008060408385031215612871578182fd5b61287a836126df565b915060208301356001600160401b03811115612894578182fd5b6128a0858286016126f6565b9150509250929050565b600080604083850312156128bc578182fd5b6128c5836126df565b946020939093013593505050565b6000602082840312156128e4578081fd5b8135611646816135f9565b600060208284031215612900578081fd5b8151611646816135f9565b60006020828403121561291c578081fd5b81356001600160401b03811115612931578182fd5b61189a848285016126f6565b600080600060608486031215612951578283fd5b83356001600160401b03811115612966578384fd5b612972868287016126f6565b93505061298160208501612715565b915061298f60408501612715565b90509250925092565b6000602082840312156129a9578081fd5b5035919050565b6000806000606084860312156129c4578283fd5b8335925060208401356001600160401b038111156129e0578283fd5b6129ec868287016126f6565b92505061298f60408501612715565b60008060408385031215612a0d578182fd5b50508035926020909101359150565b60008151808452612a3481602086016020860161350a565b601f01601f19169290920160200192915050565b60008154612a558161354d565b60018281168015612a6d5760018114612a7e57612aad565b60ff19841687528287019450612aad565b8560005260208060002060005b85811015612aa45781548a820152908401908201612a8b565b50505082870194505b5050505092915050565b60008251612ac981846020870161350a565b9190910192915050565b60008351612ae581846020880161350a565b835190830190612af981836020880161350a565b01949350505050565b6000612b0e8286612a48565b8451612b1e81836020890161350a565b612b2a81830186612a48565b979650505050505050565b92835260609190911b6bffffffffffffffffffffffff19166020830152603482015260540190565b6001600160a01b0391909116815260200190565b6001600160a01b0385811682528416602082015260408101839052608060608201819052600090612ba490830184612a1c565b9695505050505050565b6001600160a01b038316815260406020820181905260009061189a90830184612a1c565b901515815260200190565b6000602082526116466020830184612a1c565b600060808252612c036080830187612a1c565b60ff958616602084015293909416604082015290151560609091015292915050565b600060e08252612c3860e083018a612a1c565b60ff988916602084015296909716604082015260608101949094526080840192909252151560a0830152151560c09091015292915050565b60006020808352818454612c838161354d565b80848701526040600180841660008114612ca45760018114612cb857612ce3565b60ff19851689840152606089019550612ce3565b898852868820885b85811015612cdb5781548b8201860152908301908801612cc0565b8a0184019650505b509398975050505050505050565b6020808252601890820152774e6f6e20667573696f6e6e61626c6520656c656d656e747360401b604082015260600190565b602080825260189082015277436f6d62696e6174696f6e206e6f7420706f737369626c6560401b604082015260600190565b6020808252601690820152752737ba1030903932b3b4ba32b932b210383630bcb2b960511b604082015260600190565b6020808252602b908201527f455243373231456e756d657261626c653a206f776e657220696e646578206f7560408201526a74206f6620626f756e647360a81b606082015260800190565b60208082526032908201527f4552433732313a207472616e7366657220746f206e6f6e20455243373231526560408201527131b2b4bb32b91034b6b83632b6b2b73a32b960711b606082015260800190565b60208082526026908201527f4f776e61626c653a206e6577206f776e657220697320746865207a65726f206160408201526564647265737360d01b606082015260800190565b6020808252601c908201527f4552433732313a20746f6b656e20616c7265616479206d696e74656400000000604082015260600190565b60208082526024908201527f4552433732313a207472616e7366657220746f20746865207a65726f206164646040820152637265737360e01b606082015260800190565b60208082526019908201527822a9219b99189d1030b8383937bb32903a379031b0b63632b960391b604082015260600190565b6020808252602a908201527f796f7520617265206e6f7420617574686f72697a656420746f207365742074686040820152691a5cc81858d8dbdd5b9d60b21b606082015260800190565b60208082526021908201527f7468697320706c6179657220697320616c7265616479207265676973746572656040820152601960fa1b606082015260800190565b6020808252602c908201527f4552433732313a206f70657261746f7220717565727920666f72206e6f6e657860408201526b34b9ba32b73a103a37b5b2b760a11b606082015260800190565b60208082526038908201527f4552433732313a20617070726f76652063616c6c6572206973206e6f74206f776040820152771b995c881b9bdc88185c1c1c9bdd995908199bdc88185b1b60421b606082015260800190565b60208082526029908201527f796f7520617265206e6f7420617574686f72697a656420746f20757064617465604082015268103090383630bcb2b960b91b606082015260800190565b6020808252602a908201527f4552433732313a2062616c616e636520717565727920666f7220746865207a65604082015269726f206164647265737360b01b606082015260800190565b60208082526029908201527f4552433732313a206f776e657220717565727920666f72206e6f6e657869737460408201526832b73a103a37b5b2b760b91b606082015260800190565b6020808252603a908201527f5468657265206973206e6f7420656e6f756768206974656d20617661696c626160408201527f6c652c20706c6561736520636f6d65206261636b206c61746572000000000000606082015260800190565b6020808252818101527f4552433732313a206d696e7420746f20746865207a65726f2061646472657373604082015260600190565b6020808252601a908201527f596f752068617665206e6f207265776172647320746f20676574000000000000604082015260600190565b6020808252602c908201527f4552433732313a20617070726f76656420717565727920666f72206e6f6e657860408201526b34b9ba32b73a103a37b5b2b760a11b606082015260800190565b6020808252818101527f4f776e61626c653a2063616c6c6572206973206e6f7420746865206f776e6572604082015260600190565b60208082526029908201527f4552433732313a207472616e73666572206f6620746f6b656e2074686174206960408201526839903737ba1037bbb760b91b606082015260800190565b6020808252602f908201527f4552433732314d657461646174613a2055524920717565727920666f72206e6f60408201526e3732bc34b9ba32b73a103a37b5b2b760891b606082015260800190565b60208082526021908201527f4552433732313a20617070726f76616c20746f2063757272656e74206f776e656040820152603960f91b606082015260800190565b6020808252601b908201527f4e6f6e6520617661696c61626c65206974656d20666f72206e6f770000000000604082015260600190565b60208082526031908201527f4552433732313a207472616e736665722063616c6c6572206973206e6f74206f6040820152701ddb995c881b9bdc88185c1c1c9bdd9959607a1b606082015260800190565b60208082526034908201527f706c656173652073657420666972737420616e20457468657265756d206164646040820152733932b9b9903337b9103a3434b990383630bcb2b960611b606082015260800190565b6020808252602c908201527f455243373231456e756d657261626c653a20676c6f62616c20696e646578206f60408201526b7574206f6620626f756e647360a01b606082015260800190565b6020808252601990820152784e6f7420746865206f776e6572206f6620746865206974656d60381b604082015260600190565b90815260200190565b600082198211156134bb576134bb6135b7565b500190565b6000826134cf576134cf6135cd565b500490565b60008160001904831182151516156134ee576134ee6135b7565b500290565b600082821015613505576135056135b7565b500390565b60005b8381101561352557818101518382015260200161350d565b838111156114df5750506000910152565b600081613545576135456135b7565b506000190190565b60028104600182168061356157607f821691505b6020821081141561358257634e487b7160e01b600052602260045260246000fd5b50919050565b600060001982141561359c5761359c6135b7565b5060010190565b6000826135b2576135b26135cd565b500690565b634e487b7160e01b600052601160045260246000fd5b634e487b7160e01b600052601260045260246000fd5b634e487b7160e01b600052604160045260246000fd5b6001600160e01b03198116811461170f57600080fdfea26469706673582212202b193c7f89659636e818e4220a79d521abdabad4676eec56e50d08ab9560404c64736f6c63430008010033",
  "immutableReferences": {},
  "source": "// SPDX-License-Identifier: GPL-3.0\r\n\r\npragma solidity 0.8.1;\r\n\r\nimport \"./convertRewardNFT.sol\";\r\n\r\n/**\r\n * @title Create a super monument level 3 by fusion\r\n * @notice Create a new item from 2 level 2 monument and matrial\r\n * @dev This contrat create a super monument with a new composition on the basis of a monument and a material. \r\n * once the new Item is created, it is sent to the player and the basis item are sent to the date database\r\n * with a lock status\r\n */\r\ncontract fusion is convertRewardNFT {\r\n    \r\n    event fusionnedItemCreate(uint tokenId);\r\n    event lockItem(uint tokenId);\r\n    \r\n    ///@dev Make the fusion between two items, create the composition, the new name, continent and tokenId\r\n\tfunction fusionItem(uint _myItemId1, uint _myItemId2) public {\r\n  \r\n\t    require (ownerOf(_myItemId1) == msg.sender && ownerOf(_myItemId2) == msg.sender, \"Not the owner of the item\");\r\n\t    require (items[_myItemId1].levelItem == 2 && items[_myItemId2].levelItem == 2, \"Non fusionnable elements\");\r\n\t    require ((_isAnItemFusionable(_myItemId1) && !_isAnItemFusionable(_myItemId2)) || \r\n\t      (!_isAnItemFusionable(_myItemId1) && _isAnItemFusionable(_myItemId2)) , \"Combination not possible\");\r\n\t    \r\n\t    uint newComposition;\r\n\t    uint tokenId = items.length;\r\n\t    uint8 newContinent;\r\n\t    string memory newName;\r\n\t    string memory espace = \" \";\r\n\r\n\t    if (_isAnItemFusionable(_myItemId1)){\r\n\t      newComposition = _fusion(_myItemId1,_myItemId2);\r\n\t      newContinent = items[_myItemId1].continent;\r\n\t    }else{\r\n\t      newComposition = _fusion(_myItemId2,_myItemId1);\r\n\t      newContinent = items[_myItemId2].continent;\r\n\t    }\r\n\r\n\t    newName = string(abi.encodePacked(items[_myItemId1].name ,espace,items[_myItemId2].name));\r\n\r\n\t    _lockItem(_myItemId1);\r\n\t    _lockItem(_myItemId2);\r\n\r\n\t    items.push(Item(newName,3, newContinent,tokenId,newComposition, false, false));\r\n\t    _safeMint(msg.sender,tokenId);\r\n\t    \r\n\t    emit fusionnedItemCreate(tokenId);   \r\n  \t}\r\n    \r\n    ///@dev Check if the tokenId is a fusionnable monument\r\n \tfunction _isAnItemFusionable (uint _tokenId) private view returns(bool){\r\n\t  \r\n\t    if ((items[_tokenId].composition)/1000000 != 0 ){\r\n\t      return true;\r\n\t    }else {\r\n\t      return false;\r\n\t    }\r\n  \t}\r\n    \r\n    ///@dev Compute the composition of the new super monument\r\n  \tfunction _fusion(uint _tokenId1, uint _tokenId2) private view returns (uint){\r\n  \t\tuint compositionIntermediate = ((items[_tokenId1].composition / 1000000) * 1000000) + items[_tokenId2].composition;\r\n     \tuint codeThirdPart = exemplaireNumbers[compositionIntermediate % 1000000] + 1;\r\n     \treturn (((compositionIntermediate /1000) * 1000) + codeThirdPart); \r\n  \t}\r\n    \r\n    ///@dev Send the basis momunent and material to the data base with the locked status  \r\n  \tfunction _lockItem(uint _tokenId) private {\r\n  \t\titems[_tokenId].locked = true;\r\n\t    _transfer(msg.sender,_administrator, _tokenId);\r\n\t    emit lockItem(_tokenId);\r\n  \t}\r\n}",
  "sourcePath": "C:\\Users\\fboud\\OneDrive\\Documents\\Alyra\\projetFinal\\contracts\\fusion.sol",
  "compiler": {
    "name": "solc",
    "version": "0.8.1+commit.df193b15.Emscripten.clang"
  },
  "schemaVersion": "3.4.2",
  "updatedAt": "2021-07-31T18:44:58.364Z",
  "devdoc": {
    "details": "This contrat create a super monument with a new composition on the basis of a monument and a material.  once the new Item is created, it is sent to the player and the basis item are sent to the date database with a lock status",
    "kind": "dev",
    "methods": {
      "approve(address,uint256)": {
        "details": "See {IERC721-approve}."
      },
      "balanceOf(address)": {
        "details": "See {IERC721-balanceOf}."
      },
      "createItem(uint256,string,uint8)": {
        "details": "Function allowing to create items. Only the adminstrator can make one"
      },
      "fusionItem(uint256,uint256)": {
        "details": "Make the fusion between two items, create the composition, the new name, continent and tokenId"
      },
      "getApproved(uint256)": {
        "details": "See {IERC721-getApproved}."
      },
      "getReward()": {
        "details": "Transform the reward as a NFT"
      },
      "isApprovedForAll(address,address)": {
        "details": "See {IERC721-isApprovedForAll}."
      },
      "name()": {
        "details": "See {IERC721Metadata-name}."
      },
      "owner()": {
        "details": "Returns the address of the current owner."
      },
      "ownerOf(uint256)": {
        "details": "See {IERC721-ownerOf}."
      },
      "renounceOwnership()": {
        "details": "Leaves the contract without owner. It will not be possible to call `onlyOwner` functions anymore. Can only be called by the current owner. NOTE: Renouncing ownership will leave the contract without an owner, thereby removing any functionality that is only available to the owner."
      },
      "safeTransferFrom(address,address,uint256)": {
        "details": "See {IERC721-safeTransferFrom}."
      },
      "safeTransferFrom(address,address,uint256,bytes)": {
        "details": "See {IERC721-safeTransferFrom}."
      },
      "setApprovalForAll(address,bool)": {
        "details": "See {IERC721-setApprovalForAll}."
      },
      "setMultiversePlayer(address,string)": {
        "details": "link a login with a player. The login must be the exact same one than the one used in POW"
      },
      "supportsInterface(bytes4)": {
        "details": "See {IERC165-supportsInterface}."
      },
      "symbol()": {
        "details": "See {IERC721Metadata-symbol}."
      },
      "tokenByIndex(uint256)": {
        "details": "See {IERC721Enumerable-tokenByIndex}."
      },
      "tokenOfOwnerByIndex(address,uint256)": {
        "details": "See {IERC721Enumerable-tokenOfOwnerByIndex}."
      },
      "tokenURI(uint256)": {
        "details": "See {IERC721Metadata-tokenURI}."
      },
      "totalSupply()": {
        "details": "See {IERC721Enumerable-totalSupply}."
      },
      "transferFrom(address,address,uint256)": {
        "details": "See {IERC721-transferFrom}."
      },
      "transferOwnership(address)": {
        "details": "Transfers ownership of the contract to a new account (`newOwner`). Can only be called by the current owner."
      },
      "updateMultiversePlayer(string,uint8,uint8)": {
        "details": "Update the data of a registered player. The adnministrator Only can set this. In the future, the oracle will do that"
      }
    },
    "title": "Create a super monument level 3 by fusion",
    "version": 1
  },
  "userdoc": {
    "kind": "user",
    "methods": {},
    "notice": "Create a new item from 2 level 2 monument and matrial",
    "version": 1
  }
}