{
  "contractName": "fusion",
  "abi": [
    {
      "anonymous": false,
      "inputs": [
        {
          "indexed": true,
          "internalType": "address",
          "name": "owner",
          "type": "address"
        },
        {
          "indexed": true,
          "internalType": "address",
          "name": "approved",
          "type": "address"
        },
        {
          "indexed": true,
          "internalType": "uint256",
          "name": "tokenId",
          "type": "uint256"
        }
      ],
      "name": "Approval",
      "type": "event"
    },
    {
      "anonymous": false,
      "inputs": [
        {
          "indexed": true,
          "internalType": "address",
          "name": "owner",
          "type": "address"
        },
        {
          "indexed": true,
          "internalType": "address",
          "name": "operator",
          "type": "address"
        },
        {
          "indexed": false,
          "internalType": "bool",
          "name": "approved",
          "type": "bool"
        }
      ],
      "name": "ApprovalForAll",
      "type": "event"
    },
    {
      "anonymous": false,
      "inputs": [
        {
          "indexed": false,
          "internalType": "address",
          "name": "addressPlayer",
          "type": "address"
        },
        {
          "indexed": false,
          "internalType": "string",
          "name": "loginPlayer",
          "type": "string"
        }
      ],
      "name": "NewPlayerRegistered",
      "type": "event"
    },
    {
      "anonymous": false,
      "inputs": [
        {
          "indexed": true,
          "internalType": "address",
          "name": "previousOwner",
          "type": "address"
        },
        {
          "indexed": true,
          "internalType": "address",
          "name": "newOwner",
          "type": "address"
        }
      ],
      "name": "OwnershipTransferred",
      "type": "event"
    },
    {
      "anonymous": false,
      "inputs": [
        {
          "indexed": true,
          "internalType": "address",
          "name": "from",
          "type": "address"
        },
        {
          "indexed": true,
          "internalType": "address",
          "name": "to",
          "type": "address"
        },
        {
          "indexed": true,
          "internalType": "uint256",
          "name": "tokenId",
          "type": "uint256"
        }
      ],
      "name": "Transfer",
      "type": "event"
    },
    {
      "anonymous": false,
      "inputs": [
        {
          "indexed": false,
          "internalType": "uint256",
          "name": "tokenId",
          "type": "uint256"
        },
        {
          "indexed": true,
          "internalType": "address",
          "name": "_to",
          "type": "address"
        }
      ],
      "name": "fusionnedItemCreate",
      "type": "event"
    },
    {
      "anonymous": false,
      "inputs": [
        {
          "indexed": false,
          "internalType": "uint256",
          "name": "tokenId",
          "type": "uint256"
        }
      ],
      "name": "lockItem",
      "type": "event"
    },
    {
      "anonymous": false,
      "inputs": [
        {
          "indexed": false,
          "internalType": "string",
          "name": "login",
          "type": "string"
        }
      ],
      "name": "playerUpdated",
      "type": "event"
    },
    {
      "anonymous": false,
      "inputs": [
        {
          "indexed": false,
          "internalType": "string",
          "name": "tokenName",
          "type": "string"
        },
        {
          "indexed": true,
          "internalType": "address",
          "name": "_to",
          "type": "address"
        }
      ],
      "name": "rewardWithdrawn",
      "type": "event"
    },
    {
      "inputs": [
        {
          "internalType": "address",
          "name": "to",
          "type": "address"
        },
        {
          "internalType": "uint256",
          "name": "tokenId",
          "type": "uint256"
        }
      ],
      "name": "approve",
      "outputs": [],
      "stateMutability": "nonpayable",
      "type": "function"
    },
    {
      "inputs": [
        {
          "internalType": "address",
          "name": "owner",
          "type": "address"
        }
      ],
      "name": "balanceOf",
      "outputs": [
        {
          "internalType": "uint256",
          "name": "",
          "type": "uint256"
        }
      ],
      "stateMutability": "view",
      "type": "function"
    },
    {
      "inputs": [
        {
          "internalType": "uint256",
          "name": "_type",
          "type": "uint256"
        },
        {
          "internalType": "string",
          "name": "_name",
          "type": "string"
        },
        {
          "internalType": "uint8",
          "name": "_continent",
          "type": "uint8"
        }
      ],
      "name": "createItem",
      "outputs": [],
      "stateMutability": "nonpayable",
      "type": "function"
    },
    {
      "inputs": [
        {
          "internalType": "uint256",
          "name": "",
          "type": "uint256"
        }
      ],
      "name": "exemplaireNumbers",
      "outputs": [
        {
          "internalType": "uint256",
          "name": "",
          "type": "uint256"
        }
      ],
      "stateMutability": "view",
      "type": "function"
    },
    {
      "inputs": [
        {
          "internalType": "uint256",
          "name": "tokenId",
          "type": "uint256"
        }
      ],
      "name": "getApproved",
      "outputs": [
        {
          "internalType": "address",
          "name": "",
          "type": "address"
        }
      ],
      "stateMutability": "view",
      "type": "function"
    },
    {
      "inputs": [],
      "name": "getReward",
      "outputs": [],
      "stateMutability": "nonpayable",
      "type": "function"
    },
    {
      "inputs": [
        {
          "internalType": "address",
          "name": "owner",
          "type": "address"
        },
        {
          "internalType": "address",
          "name": "operator",
          "type": "address"
        }
      ],
      "name": "isApprovedForAll",
      "outputs": [
        {
          "internalType": "bool",
          "name": "",
          "type": "bool"
        }
      ],
      "stateMutability": "view",
      "type": "function"
    },
    {
      "inputs": [
        {
          "internalType": "uint256",
          "name": "",
          "type": "uint256"
        }
      ],
      "name": "items",
      "outputs": [
        {
          "internalType": "string",
          "name": "name",
          "type": "string"
        },
        {
          "internalType": "uint8",
          "name": "levelItem",
          "type": "uint8"
        },
        {
          "internalType": "uint8",
          "name": "continent",
          "type": "uint8"
        },
        {
          "internalType": "uint256",
          "name": "tokenId",
          "type": "uint256"
        },
        {
          "internalType": "uint256",
          "name": "composition",
          "type": "uint256"
        },
        {
          "internalType": "bool",
          "name": "locked",
          "type": "bool"
        },
        {
          "internalType": "bool",
          "name": "onSold",
          "type": "bool"
        }
      ],
      "stateMutability": "view",
      "type": "function"
    },
    {
      "inputs": [
        {
          "internalType": "address",
          "name": "",
          "type": "address"
        }
      ],
      "name": "multiverseData",
      "outputs": [
        {
          "internalType": "string",
          "name": "login",
          "type": "string"
        },
        {
          "internalType": "uint8",
          "name": "rewardLv1",
          "type": "uint8"
        },
        {
          "internalType": "uint8",
          "name": "rewardLv2",
          "type": "uint8"
        },
        {
          "internalType": "bool",
          "name": "isRegistered",
          "type": "bool"
        }
      ],
      "stateMutability": "view",
      "type": "function"
    },
    {
      "inputs": [
        {
          "internalType": "string",
          "name": "",
          "type": "string"
        }
      ],
      "name": "multiverseIds",
      "outputs": [
        {
          "internalType": "address",
          "name": "",
          "type": "address"
        }
      ],
      "stateMutability": "view",
      "type": "function"
    },
    {
      "inputs": [],
      "name": "name",
      "outputs": [
        {
          "internalType": "string",
          "name": "",
          "type": "string"
        }
      ],
      "stateMutability": "view",
      "type": "function"
    },
    {
      "inputs": [],
      "name": "owner",
      "outputs": [
        {
          "internalType": "address",
          "name": "",
          "type": "address"
        }
      ],
      "stateMutability": "view",
      "type": "function"
    },
    {
      "inputs": [
        {
          "internalType": "uint256",
          "name": "tokenId",
          "type": "uint256"
        }
      ],
      "name": "ownerOf",
      "outputs": [
        {
          "internalType": "address",
          "name": "",
          "type": "address"
        }
      ],
      "stateMutability": "view",
      "type": "function"
    },
    {
      "inputs": [],
      "name": "renounceOwnership",
      "outputs": [],
      "stateMutability": "nonpayable",
      "type": "function"
    },
    {
      "inputs": [
        {
          "internalType": "address",
          "name": "from",
          "type": "address"
        },
        {
          "internalType": "address",
          "name": "to",
          "type": "address"
        },
        {
          "internalType": "uint256",
          "name": "tokenId",
          "type": "uint256"
        }
      ],
      "name": "safeTransferFrom",
      "outputs": [],
      "stateMutability": "nonpayable",
      "type": "function"
    },
    {
      "inputs": [
        {
          "internalType": "address",
          "name": "from",
          "type": "address"
        },
        {
          "internalType": "address",
          "name": "to",
          "type": "address"
        },
        {
          "internalType": "uint256",
          "name": "tokenId",
          "type": "uint256"
        },
        {
          "internalType": "bytes",
          "name": "_data",
          "type": "bytes"
        }
      ],
      "name": "safeTransferFrom",
      "outputs": [],
      "stateMutability": "nonpayable",
      "type": "function"
    },
    {
      "inputs": [
        {
          "internalType": "address",
          "name": "operator",
          "type": "address"
        },
        {
          "internalType": "bool",
          "name": "approved",
          "type": "bool"
        }
      ],
      "name": "setApprovalForAll",
      "outputs": [],
      "stateMutability": "nonpayable",
      "type": "function"
    },
    {
      "inputs": [
        {
          "internalType": "address",
          "name": "_addressPlayer",
          "type": "address"
        },
        {
          "internalType": "string",
          "name": "_login",
          "type": "string"
        }
      ],
      "name": "setMultiversePlayer",
      "outputs": [],
      "stateMutability": "nonpayable",
      "type": "function"
    },
    {
      "inputs": [
        {
          "internalType": "bytes4",
          "name": "interfaceId",
          "type": "bytes4"
        }
      ],
      "name": "supportsInterface",
      "outputs": [
        {
          "internalType": "bool",
          "name": "",
          "type": "bool"
        }
      ],
      "stateMutability": "view",
      "type": "function"
    },
    {
      "inputs": [],
      "name": "symbol",
      "outputs": [
        {
          "internalType": "string",
          "name": "",
          "type": "string"
        }
      ],
      "stateMutability": "view",
      "type": "function"
    },
    {
      "inputs": [
        {
          "internalType": "uint256",
          "name": "index",
          "type": "uint256"
        }
      ],
      "name": "tokenByIndex",
      "outputs": [
        {
          "internalType": "uint256",
          "name": "",
          "type": "uint256"
        }
      ],
      "stateMutability": "view",
      "type": "function"
    },
    {
      "inputs": [
        {
          "internalType": "address",
          "name": "owner",
          "type": "address"
        },
        {
          "internalType": "uint256",
          "name": "index",
          "type": "uint256"
        }
      ],
      "name": "tokenOfOwnerByIndex",
      "outputs": [
        {
          "internalType": "uint256",
          "name": "",
          "type": "uint256"
        }
      ],
      "stateMutability": "view",
      "type": "function"
    },
    {
      "inputs": [
        {
          "internalType": "uint256",
          "name": "tokenId",
          "type": "uint256"
        }
      ],
      "name": "tokenURI",
      "outputs": [
        {
          "internalType": "string",
          "name": "",
          "type": "string"
        }
      ],
      "stateMutability": "view",
      "type": "function"
    },
    {
      "inputs": [],
      "name": "totalSupply",
      "outputs": [
        {
          "internalType": "uint256",
          "name": "",
          "type": "uint256"
        }
      ],
      "stateMutability": "view",
      "type": "function"
    },
    {
      "inputs": [
        {
          "internalType": "address",
          "name": "from",
          "type": "address"
        },
        {
          "internalType": "address",
          "name": "to",
          "type": "address"
        },
        {
          "internalType": "uint256",
          "name": "tokenId",
          "type": "uint256"
        }
      ],
      "name": "transferFrom",
      "outputs": [],
      "stateMutability": "nonpayable",
      "type": "function"
    },
    {
      "inputs": [
        {
          "internalType": "address",
          "name": "newOwner",
          "type": "address"
        }
      ],
      "name": "transferOwnership",
      "outputs": [],
      "stateMutability": "nonpayable",
      "type": "function"
    },
    {
      "inputs": [
        {
          "internalType": "string",
          "name": "_login",
          "type": "string"
        },
        {
          "internalType": "uint8",
          "name": "_rewardLv1",
          "type": "uint8"
        },
        {
          "internalType": "uint8",
          "name": "_rewardLv2",
          "type": "uint8"
        }
      ],
      "name": "updateMultiversePlayer",
      "outputs": [],
      "stateMutability": "nonpayable",
      "type": "function"
    },
    {
      "inputs": [
        {
          "internalType": "uint256",
          "name": "_myItemId1",
          "type": "uint256"
        },
        {
          "internalType": "uint256",
          "name": "_myItemId2",
          "type": "uint256"
        }
      ],
      "name": "fusionItem",
      "outputs": [],
      "stateMutability": "nonpayable",
      "type": "function"
    }
  ],
  "bytecode": "0x60806040526001600e556002600f55600360105560016013553480156200002557600080fd5b506040805180820182526006815265141bddd3919560d21b60208083019182528351808501909452600484526312d3919560e21b908401528151919291620000709160009162000111565b5080516200008690600190602084019062000111565b505050620000a36200009d620000bb60201b60201c565b620000bf565b600b80546001600160a01b03191633179055620001f4565b3390565b600a80546001600160a01b038381166001600160a01b0319831681179093556040519116919082907f8be0079c531659141344cd1fd0a4f28419497f9722a3daafe3b4186f6b6457e090600090a35050565b8280546200011f90620001b7565b90600052602060002090601f0160209004810192826200014357600085556200018e565b82601f106200015e57805160ff19168380011785556200018e565b828001600101855582156200018e579182015b828111156200018e57825182559160200191906001019062000171565b506200019c929150620001a0565b5090565b5b808211156200019c5760008155600101620001a1565b600281046001821680620001cc57607f821691505b60208210811415620001ee57634e487b7160e01b600052602260045260246000fd5b50919050565b61370a80620002046000396000f3fe608060405234801561001057600080fd5b50600436106101845760003560e01c8063715018a6116100d9578063b6a4029611610087578063b6a4029614610325578063b88d4fde14610338578063bfb231d21461034b578063c87b56dd14610371578063e985e9c514610384578063e9dbd45a14610397578063f2fde38b146103aa57610184565b8063715018a6146102b15780637538822e146102b957806375adb7fd146102cc5780638da5cb5b146102ef57806395d89b41146102f75780639b008e47146102ff578063a22cb4651461031257610184565b80632f745c59116101365780632f745c59146102375780633d18b9121461024a57806342842e0e146102525780634f6ccce7146102655780636352211e14610278578063661c2b601461028b57806370a082311461029e57610184565b806301ffc9a71461018957806306fdde03146101b2578063081812fc146101c7578063095ea7b3146101e757806318160ddd146101fc5780631f5710891461021157806323b872dd14610224575b600080fd5b61019c61019736600461292e565b6103bd565b6040516101a99190612c2d565b60405180910390f35b6101ba6103ea565b6040516101a99190612c38565b6101da6101d53660046129f3565b61047c565b6040516101a99190612bb8565b6101fa6101f5366004612905565b6104c8565b005b610204610560565b6040516101a99190613564565b6101fa61021f366004612a0b565b610566565b6101fa6102323660046127cd565b6107cb565b610204610245366004612905565b610803565b6101fa610855565b6101fa6102603660046127cd565b610b36565b6102046102733660046129f3565b610b51565b6101da6102863660046129f3565b610bac565b6102046102993660046129f3565b610be1565b6102046102ac366004612781565b610bf3565b6101fa610c37565b6101fa6102c7366004612998565b610c80565b6102df6102da366004612781565b610e00565b6040516101a99493929190612c4b565b6101da610eba565b6101ba610ec9565b6101fa61030d3660046128ba565b610ed8565b6101fa610320366004612880565b61103e565b6101fa610333366004612a56565b61110c565b6101fa610346366004612808565b611501565b61035e6103593660046129f3565b611540565b6040516101a99796959493929190612c80565b6101ba61037f3660046129f3565b611625565b61019c61039236600461279b565b6116a8565b6101da6103a5366004612966565b6116d6565b6101fa6103b8366004612781565b6116fc565b60006001600160e01b0319821663780e9d6360e01b14806103e257506103e28261176d565b90505b919050565b6060600080546103f990613612565b80601f016020809104026020016040519081016040528092919081815260200182805461042590613612565b80156104725780601f1061044757610100808354040283529160200191610472565b820191906000526020600020905b81548152906001019060200180831161045557829003601f168201915b5050505050905090565b6000610487826117ad565b6104ac5760405162461bcd60e51b81526004016104a3906132af565b60405180910390fd5b506000908152600460205260409020546001600160a01b031690565b60006104d382610bac565b9050806001600160a01b0316836001600160a01b031614156105075760405162461bcd60e51b81526004016104a3906133c8565b806001600160a01b03166105196117ca565b6001600160a01b031614806105355750610535816103926117ca565b6105515760405162461bcd60e51b81526004016104a3906130b2565b61055b83836117ce565b505050565b60085490565b61056e6117ca565b6001600160a01b031661057f610eba565b6001600160a01b0316146105a55760405162461bcd60e51b81526004016104a3906132fb565b826105c25760405162461bcd60e51b81526004016104a39061302f565b60ff81166105e25760405162461bcd60e51b81526004016104a390612f71565b601154600e546000918291829182918290891415610632576106038861183c565b955061062b604051806040016040528060058152602001643830b832b960d91b815250611875565b9450600290505b600f5489141561064c5761064588611875565b9450600290505b6010548914156106665761065f8861183c565b9550600190505b6012600061067488886118b9565b815260200190815260200160002054600161068f919061356d565b935061069c8686866118d2565b925083601260006106ad89896118b9565b81526020810191909152604001600020556106c833836118fd565b6040805160e08101825289815260ff808416602080840191909152908a16928201929092526060810184905260808101859052600060a0820181905260c0820181905260118054600181018255915281518051929360059092027f31ecc21a745e3968a04e9570e4425bc18fa8019c68028196b546d1669c200c680192610752928492019061262c565b506020820151600182018054604085015160ff90811661010090810261ff00199290951660ff1993841617821694909417909255606085015160028501556080850151600385015560a08501516004909401805460c0909601511515909302931515941693909317909216179055505050505050505050565b6107dc6107d66117ca565b8261191b565b6107f85760405162461bcd60e51b81526004016104a390613440565b61055b838383611998565b600061080e83610bf3565b821061082c5760405162461bcd60e51b81526004016104a390612de0565b506001600160a01b03919091166000908152600660209081526040808320938352929052205490565b600b5461086a906001600160a01b0316610bf3565b6108865760405162461bcd60e51b81526004016104a390613409565b336000908152600d602052604090206001015462010000900460ff166108be5760405162461bcd60e51b81526004016104a390612db0565b336000908152600d602052604090206001015460ff161515806108fa5750336000908152600d6020526040902060010154610100900460ff1615155b6109165760405162461bcd60e51b81526004016104a390613278565b601380549060006109268361364d565b9091555050336000908152600d602052604090206001015460ff1615610a2a57336000908152600d602052604090206001015460ff165b8015610a0e57600061096f6001611ac5565b600b54909150610989906001600160a01b03163383611998565b336001600160a01b03167f9623300d947502693ac307b1017d04f92b9a1ddd161e89aeff76da5d9a251694601183815481106109d557634e487b7160e01b600052603260045260246000fd5b90600052602060002090600502016000016040516109f39190612ccb565b60405180910390a25080610a06816135fb565b91505061095d565b50336000908152600d60205260409020600101805460ff191690555b336000908152600d6020526040902060010154610100900460ff1615610b3457336000908152600d6020526040902060010154610100900460ff165b8015610b17576000610a786002611ac5565b600b54909150610a92906001600160a01b03163383611998565b336001600160a01b03167f9623300d947502693ac307b1017d04f92b9a1ddd161e89aeff76da5d9a25169460118381548110610ade57634e487b7160e01b600052603260045260246000fd5b9060005260206000209060050201600001604051610afc9190612ccb565b60405180910390a25080610b0f816135fb565b915050610a66565b50336000908152600d60205260409020600101805461ff00191690555b565b61055b83838360405180602001604052806000815250611501565b6000610b5b610560565b8210610b795760405162461bcd60e51b81526004016104a3906134e5565b60088281548110610b9a57634e487b7160e01b600052603260045260246000fd5b90600052602060002001549050919050565b6000818152600260205260408120546001600160a01b0316806103e25760405162461bcd60e51b81526004016104a39061319d565b60126020526000908152604090205481565b60006001600160a01b038216610c1b5760405162461bcd60e51b81526004016104a390613153565b506001600160a01b031660009081526003602052604090205490565b610c3f6117ca565b6001600160a01b0316610c50610eba565b6001600160a01b031614610c765760405162461bcd60e51b81526004016104a3906132fb565b610b346000611dce565b600b546001600160a01b03163314610caa5760405162461bcd60e51b81526004016104a39061310a565b600d6000600c85604051610cbe9190612b12565b9081526040805160209281900383019020546001600160a01b03168352908201929092520160002060019081015462010000900460ff16151514610d145760405162461bcd60e51b81526004016104a390613491565b81600d6000600c86604051610d299190612b12565b9081526040805160209281900383019020546001600160a01b031683529082019290925281016000908120600101805460ff191660ff9490941693909317909255518291600d91600c90610d7e908890612b12565b9081526040805160209281900383019020546001600160a01b03168352908201929092528101600020600101805461ff00191661010060ff949094169390930292909217909155517faa6183438646fc8bb56f82868ce90c0a5bd1301970b115e976c90c1d696a155090610df3908590612c38565b60405180910390a1505050565b600d60205260009081526040902080548190610e1b90613612565b80601f0160208091040260200160405190810160405280929190818152602001828054610e4790613612565b8015610e945780601f10610e6957610100808354040283529160200191610e94565b820191906000526020600020905b815481529060010190602001808311610e7757829003601f168201915b5050506001909301549192505060ff808216916101008104821691620100009091041684565b600a546001600160a01b031690565b6060600180546103f990613612565b600b546001600160a01b0316331480610ef95750336001600160a01b038316145b610f155760405162461bcd60e51b81526004016104a390612fa4565b600d6000600c83604051610f299190612b12565b9081526040805160209281900383019020546001600160a01b0316835290820192909252016000206001015462010000900460ff1615610f7b5760405162461bcd60e51b81526004016104a390612fee565b81600c82604051610f8c9190612b12565b908152604080516020928190038301902080546001600160a01b0319166001600160a01b039485161790559184166000908152600d8252919091208251610fd59284019061262c565b506001600160a01b0382166000908152600d602052604090819020600101805462ff0000191662010000179055517fd1271c0a878b06e77c2b145e81fda258074d1d9f72d29461da6de567fe185db3906110329084908490612c09565b60405180910390a15050565b6110466117ca565b6001600160a01b0316826001600160a01b031614156110775760405162461bcd60e51b81526004016104a390612f3e565b80600560006110846117ca565b6001600160a01b03908116825260208083019390935260409182016000908120918716808252919093529120805460ff1916921515929092179091556110c86117ca565b6001600160a01b03167f17307eab39ab6107e8899845ad3d59bd9653f200f220920489ca2b5937696c31836040516111009190612c2d565b60405180910390a35050565b3361111683610bac565b6001600160a01b031614801561113c57503361113182610bac565b6001600160a01b0316145b6111585760405162461bcd60e51b81526004016104a390613531565b6011828154811061117957634e487b7160e01b600052603260045260246000fd5b600091825260209091206005909102016001015460ff1660021480156111d65750601181815481106111bb57634e487b7160e01b600052603260045260246000fd5b600091825260209091206005909102016001015460ff166002145b6111f25760405162461bcd60e51b81526004016104a390612d4c565b6111fb82611e20565b801561120d575061120b81611e20565b155b8061122d575061121c82611e20565b15801561122d575061122d81611e20565b6112495760405162461bcd60e51b81526004016104a390612d7e565b6011546040805180820190915260018152600160fd1b602082015260009190829060609061127687611e20565b156112ce576112858787611e78565b9450601187815481106112a857634e487b7160e01b600052603260045260246000fd5b906000526020600020906005020160010160019054906101000a900460ff16925061131d565b6112d88688611e78565b9450601186815481106112fb57634e487b7160e01b600052603260045260246000fd5b906000526020600020906005020160010160019054906101000a900460ff1692505b6011878154811061133e57634e487b7160e01b600052603260045260246000fd5b9060005260206000209060050201600001816011888154811061137157634e487b7160e01b600052603260045260246000fd5b906000526020600020906005020160000160405160200161139493929190612b5d565b60405160208183030381529060405291506113ae87611f63565b6113b786611f63565b6040805160e081018252838152600360208083019190915260ff8616928201929092526060810186905260808101879052600060a0820181905260c0820181905260118054600181018255915281518051929360059092027f31ecc21a745e3968a04e9570e4425bc18fa8019c68028196b546d1669c200c68019261143f928492019061262c565b506020820151600182018054604085015160ff90811661010090810261ff00199290951660ff1993841617821694909417909255606085015160028501556080850151600385015560a08501516004909401805460c09096015115159093029315159416939093179092161790556114b733856118fd565b336001600160a01b03167fad23199c98816edea929c9f85f84a5f67e549ffca931f957dfd259f8d197a7c4856040516114f09190613564565b60405180910390a250505050505050565b61151261150c6117ca565b8361191b565b61152e5760405162461bcd60e51b81526004016104a390613440565b61153a84848484611ffa565b50505050565b6011818154811061155057600080fd5b906000526020600020906005020160009150905080600001805461157390613612565b80601f016020809104026020016040519081016040528092919081815260200182805461159f90613612565b80156115ec5780601f106115c1576101008083540402835291602001916115ec565b820191906000526020600020905b8154815290600101906020018083116115cf57829003601f168201915b505050600184015460028501546003860154600490960154949560ff808416966101009485900482169650929450909282821692041687565b6060611630826117ad565b61164c5760405162461bcd60e51b81526004016104a390613379565b600061165661202d565b9050600081511161167657604051806020016040528060008152506116a1565b806116808461203f565b604051602001611691929190612b2e565b6040516020818303038152906040525b9392505050565b6001600160a01b03918216600090815260056020908152604080832093909416825291909152205460ff1690565b8051602081830181018051600c825292820191909301209152546001600160a01b031681565b6117046117ca565b6001600160a01b0316611715610eba565b6001600160a01b03161461173b5760405162461bcd60e51b81526004016104a3906132fb565b6001600160a01b0381166117615760405162461bcd60e51b81526004016104a390612e7d565b61176a81611dce565b50565b60006001600160e01b031982166380ac58cd60e01b148061179e57506001600160e01b03198216635b5e139f60e01b145b806103e257506103e282612159565b6000908152600260205260409020546001600160a01b0316151590565b3390565b600081815260046020526040902080546001600160a01b0319166001600160a01b038416908117909155819061180382610bac565b6001600160a01b03167f8c5be1e5ebec7d5bd14f71427d1e84f3dd0314c0f7b2291e5b200ac8c7c3b92560405160405180910390a45050565b60006103e8826040516020016118529190612b12565b6040516020818303038152906040528051906020012060001c6103e29190613668565b60006103e78260405160200161188b9190612b12565b6040516020818303038152906040528051906020012060001c6118ae9190613668565b6103e290600161356d565b6000816118c8846103e8613599565b6116a1919061356d565b6000816118df85856118b9565b6118eb906103e8613599565b6118f5919061356d565b949350505050565b611917828260405180602001604052806000815250612172565b5050565b6000611926826117ad565b6119425760405162461bcd60e51b81526004016104a390613066565b600061194d83610bac565b9050806001600160a01b0316846001600160a01b031614806119885750836001600160a01b031661197d8461047c565b6001600160a01b0316145b806118f557506118f581856116a8565b826001600160a01b03166119ab82610bac565b6001600160a01b0316146119d15760405162461bcd60e51b81526004016104a390613330565b6001600160a01b0382166119f75760405162461bcd60e51b81526004016104a390612efa565b611a028383836121a5565b611a0d6000826117ce565b6001600160a01b0383166000908152600360205260408120805460019290611a369084906135b8565b90915550506001600160a01b0382166000908152600360205260408120805460019290611a6490849061356d565b909155505060008181526002602052604080822080546001600160a01b0319166001600160a01b0386811691821790925591518493918716917fddf252ad1be2c89b69c2b068fc378daa952ba7f163c4a11628f55a4df523b3ef91a4505050565b6000806000805b600b54611ae1906001600160a01b0316610bf3565b811015611bb857600b54601190611b01906001600160a01b031683610803565b81548110611b1f57634e487b7160e01b600052603260045260246000fd5b600091825260209091206004600590920201015460ff16158015611b935750600b5460ff861690601190611b5c906001600160a01b031684610803565b81548110611b7a57634e487b7160e01b600052603260045260246000fd5b600091825260209091206001600590920201015460ff16145b15611ba65782611ba28161364d565b9350505b80611bb08161364d565b915050611acc565b5081611bd65760405162461bcd60e51b81526004016104a3906131e6565b6000826001600160401b03811115611bfe57634e487b7160e01b600052604160045260246000fd5b604051908082528060200260200182016040528015611c27578160200160208202803683370190505b50905060005b600b54611c42906001600160a01b0316610bf3565b811015611d5a57600b54601190611c62906001600160a01b031683610803565b81548110611c8057634e487b7160e01b600052603260045260246000fd5b600091825260209091206004600590920201015460ff16158015611cf45750600b5460ff871690601190611cbd906001600160a01b031684610803565b81548110611cdb57634e487b7160e01b600052603260045260246000fd5b600091825260209091206001600590920201015460ff16145b15611d4857600b54611d0f906001600160a01b031682610803565b828481518110611d2f57634e487b7160e01b600052603260045260246000fd5b602090810291909101015282611d448161364d565b9350505b80611d528161364d565b915050611c2d565b50600081514233601354604051602001611d7693929190612b90565b6040516020818303038152906040528051906020012060001c611d999190613668565b9050818181518110611dbb57634e487b7160e01b600052603260045260246000fd5b60200260200101519450505050506103e5565b600a80546001600160a01b038381166001600160a01b0319831681179093556040519116919082907f8be0079c531659141344cd1fd0a4f28419497f9722a3daafe3b4186f6b6457e090600090a35050565b6000620f424060118381548110611e4757634e487b7160e01b600052603260045260246000fd5b906000526020600020906005020160030154611e639190613585565b15611e70575060016103e5565b5060006103e5565b60008060118381548110611e9c57634e487b7160e01b600052603260045260246000fd5b906000526020600020906005020160030154620f424060118681548110611ed357634e487b7160e01b600052603260045260246000fd5b906000526020600020906005020160030154611eef9190613585565b611efc90620f4240613599565b611f06919061356d565b90506000601281611f1a620f424085613668565b8152602001908152602001600020546001611f35919061356d565b905080611f446103e884613585565b611f50906103e8613599565b611f5a919061356d565b95945050505050565b600160118281548110611f8657634e487b7160e01b600052603260045260246000fd5b60009182526020909120600590910201600401805460ff1916911515919091179055600b54611fc09033906001600160a01b031683611998565b7ff626e9712bfc1d05519ae9d87cfe12f82248296f837942a0d818b10080ed4e4c81604051611fef9190613564565b60405180910390a150565b612005848484611998565b6120118484848461222e565b61153a5760405162461bcd60e51b81526004016104a390612e2b565b60408051602081019091526000815290565b60608161206457506040805180820190915260018152600360fc1b60208201526103e5565b8160005b811561208e57806120788161364d565b91506120879050600a83613585565b9150612068565b6000816001600160401b038111156120b657634e487b7160e01b600052604160045260246000fd5b6040519080825280601f01601f1916602001820160405280156120e0576020820181803683370190505b5090505b84156118f5576120f56001836135b8565b9150612102600a86613668565b61210d90603061356d565b60f81b81838151811061213057634e487b7160e01b600052603260045260246000fd5b60200101906001600160f81b031916908160001a905350612152600a86613585565b94506120e4565b6001600160e01b031981166301ffc9a760e01b14919050565b61217c8383612349565b612189600084848461222e565b61055b5760405162461bcd60e51b81526004016104a390612e2b565b6121b083838361055b565b6001600160a01b0383166121cc576121c781612428565b6121ef565b816001600160a01b0316836001600160a01b0316146121ef576121ef838261246c565b6001600160a01b03821661220b5761220681612509565b61055b565b826001600160a01b0316826001600160a01b03161461055b5761055b82826125e2565b6000612242846001600160a01b0316612626565b1561233e57836001600160a01b031663150b7a0261225e6117ca565b8786866040518563ffffffff1660e01b81526004016122809493929190612bcc565b602060405180830381600087803b15801561229a57600080fd5b505af19250505080156122ca575060408051601f3d908101601f191682019092526122c79181019061294a565b60015b612324573d8080156122f8576040519150601f19603f3d011682016040523d82523d6000602084013e6122fd565b606091505b50805161231c5760405162461bcd60e51b81526004016104a390612e2b565b805181602001fd5b6001600160e01b031916630a85bd0160e11b1490506118f5565b506001949350505050565b6001600160a01b03821661236f5760405162461bcd60e51b81526004016104a390613243565b612378816117ad565b156123955760405162461bcd60e51b81526004016104a390612ec3565b6123a1600083836121a5565b6001600160a01b03821660009081526003602052604081208054600192906123ca90849061356d565b909155505060008181526002602052604080822080546001600160a01b0319166001600160a01b03861690811790915590518392907fddf252ad1be2c89b69c2b068fc378daa952ba7f163c4a11628f55a4df523b3ef908290a45050565b600880546000838152600960205260408120829055600182018355919091527ff3f7a9fe364faab93b216da50a3214154f22a0a2b415b23a84c8169e8b636ee30155565b6000600161247984610bf3565b61248391906135b8565b6000838152600760205260409020549091508082146124d6576001600160a01b03841660009081526006602090815260408083208584528252808320548484528184208190558352600790915290208190555b5060009182526007602090815260408084208490556001600160a01b039094168352600681528383209183525290812055565b60085460009061251b906001906135b8565b6000838152600960205260408120546008805493945090928490811061255157634e487b7160e01b600052603260045260246000fd5b90600052602060002001549050806008838154811061258057634e487b7160e01b600052603260045260246000fd5b60009182526020808320909101929092558281526009909152604080822084905585825281205560088054806125c657634e487b7160e01b600052603160045260246000fd5b6001900381819060005260206000200160009055905550505050565b60006125ed83610bf3565b6001600160a01b039093166000908152600660209081526040808320868452825280832085905593825260079052919091209190915550565b3b151590565b82805461263890613612565b90600052602060002090601f01602090048101928261265a57600085556126a0565b82601f1061267357805160ff19168380011785556126a0565b828001600101855582156126a0579182015b828111156126a0578251825591602001919060010190612685565b506126ac9291506126b0565b5090565b5b808211156126ac57600081556001016126b1565b60006001600160401b03808411156126df576126df6136a8565b604051601f8501601f19908116603f01168101908282118183101715612707576127076136a8565b8160405280935085815286868601111561272057600080fd5b858560208301376000602087830101525050509392505050565b80356001600160a01b03811681146103e557600080fd5b600082601f830112612761578081fd5b6116a1838335602085016126c5565b803560ff811681146103e557600080fd5b600060208284031215612792578081fd5b6116a18261273a565b600080604083850312156127ad578081fd5b6127b68361273a565b91506127c46020840161273a565b90509250929050565b6000806000606084860312156127e1578081fd5b6127ea8461273a565b92506127f86020850161273a565b9150604084013590509250925092565b6000806000806080858703121561281d578081fd5b6128268561273a565b93506128346020860161273a565b92506040850135915060608501356001600160401b03811115612855578182fd5b8501601f81018713612865578182fd5b612874878235602084016126c5565b91505092959194509250565b60008060408385031215612892578182fd5b61289b8361273a565b9150602083013580151581146128af578182fd5b809150509250929050565b600080604083850312156128cc578182fd5b6128d58361273a565b915060208301356001600160401b038111156128ef578182fd5b6128fb85828601612751565b9150509250929050565b60008060408385031215612917578182fd5b6129208361273a565b946020939093013593505050565b60006020828403121561293f578081fd5b81356116a1816136be565b60006020828403121561295b578081fd5b81516116a1816136be565b600060208284031215612977578081fd5b81356001600160401b0381111561298c578182fd5b6118f584828501612751565b6000806000606084860312156129ac578283fd5b83356001600160401b038111156129c1578384fd5b6129cd86828701612751565b9350506129dc60208501612770565b91506129ea60408501612770565b90509250925092565b600060208284031215612a04578081fd5b5035919050565b600080600060608486031215612a1f578283fd5b8335925060208401356001600160401b03811115612a3b578283fd5b612a4786828701612751565b9250506129ea60408501612770565b60008060408385031215612a68578182fd5b50508035926020909101359150565b60008151808452612a8f8160208601602086016135cf565b601f01601f19169290920160200192915050565b60008154612ab081613612565b60018281168015612ac85760018114612ad957612b08565b60ff19841687528287019450612b08565b8560005260208060002060005b85811015612aff5781548a820152908401908201612ae6565b50505082870194505b5050505092915050565b60008251612b248184602087016135cf565b9190910192915050565b60008351612b408184602088016135cf565b835190830190612b548183602088016135cf565b01949350505050565b6000612b698286612aa3565b8451612b798183602089016135cf565b612b8581830186612aa3565b979650505050505050565b92835260609190911b6bffffffffffffffffffffffff19166020830152603482015260540190565b6001600160a01b0391909116815260200190565b6001600160a01b0385811682528416602082015260408101839052608060608201819052600090612bff90830184612a77565b9695505050505050565b6001600160a01b03831681526040602082018190526000906118f590830184612a77565b901515815260200190565b6000602082526116a16020830184612a77565b600060808252612c5e6080830187612a77565b60ff958616602084015293909416604082015290151560609091015292915050565b600060e08252612c9360e083018a612a77565b60ff988916602084015296909716604082015260608101949094526080840192909252151560a0830152151560c09091015292915050565b60006020808352818454612cde81613612565b80848701526040600180841660008114612cff5760018114612d1357612d3e565b60ff19851689840152606089019550612d3e565b898852868820885b85811015612d365781548b8201860152908301908801612d1b565b8a0184019650505b509398975050505050505050565b6020808252601890820152774e6f6e20667573696f6e6e61626c6520656c656d656e747360401b604082015260600190565b602080825260189082015277436f6d62696e6174696f6e206e6f7420706f737369626c6560401b604082015260600190565b6020808252601690820152752737ba1030903932b3b4ba32b932b210383630bcb2b960511b604082015260600190565b6020808252602b908201527f455243373231456e756d657261626c653a206f776e657220696e646578206f7560408201526a74206f6620626f756e647360a81b606082015260800190565b60208082526032908201527f4552433732313a207472616e7366657220746f206e6f6e20455243373231526560408201527131b2b4bb32b91034b6b83632b6b2b73a32b960711b606082015260800190565b60208082526026908201527f4f776e61626c653a206e6577206f776e657220697320746865207a65726f206160408201526564647265737360d01b606082015260800190565b6020808252601c908201527f4552433732313a20746f6b656e20616c7265616479206d696e74656400000000604082015260600190565b60208082526024908201527f4552433732313a207472616e7366657220746f20746865207a65726f206164646040820152637265737360e01b606082015260800190565b60208082526019908201527822a9219b99189d1030b8383937bb32903a379031b0b63632b960391b604082015260600190565b6020808252601990820152781c1b19585cd9481cd95b1958dd08184818dbdb9d1a5b995b9d603a1b604082015260600190565b6020808252602a908201527f796f7520617265206e6f7420617574686f72697a656420746f207365742074686040820152691a5cc81858d8dbdd5b9d60b21b606082015260800190565b60208082526021908201527f7468697320706c6179657220697320616c7265616479207265676973746572656040820152601960fa1b606082015260800190565b6020808252601c908201527f706c656173652073656c65637420612074797065206f66206974656d00000000604082015260600190565b6020808252602c908201527f4552433732313a206f70657261746f7220717565727920666f72206e6f6e657860408201526b34b9ba32b73a103a37b5b2b760a11b606082015260800190565b60208082526038908201527f4552433732313a20617070726f76652063616c6c6572206973206e6f74206f776040820152771b995c881b9bdc88185c1c1c9bdd995908199bdc88185b1b60421b606082015260800190565b60208082526029908201527f796f7520617265206e6f7420617574686f72697a656420746f20757064617465604082015268103090383630bcb2b960b91b606082015260800190565b6020808252602a908201527f4552433732313a2062616c616e636520717565727920666f7220746865207a65604082015269726f206164647265737360b01b606082015260800190565b60208082526029908201527f4552433732313a206f776e657220717565727920666f72206e6f6e657869737460408201526832b73a103a37b5b2b760b91b606082015260800190565b6020808252603a908201527f5468657265206973206e6f7420656e6f756768206974656d20617661696c626160408201527f6c652c20706c6561736520636f6d65206261636b206c61746572000000000000606082015260800190565b6020808252818101527f4552433732313a206d696e7420746f20746865207a65726f2061646472657373604082015260600190565b6020808252601a908201527f596f752068617665206e6f207265776172647320746f20676574000000000000604082015260600190565b6020808252602c908201527f4552433732313a20617070726f76656420717565727920666f72206e6f6e657860408201526b34b9ba32b73a103a37b5b2b760a11b606082015260800190565b6020808252818101527f4f776e61626c653a2063616c6c6572206973206e6f7420746865206f776e6572604082015260600190565b60208082526029908201527f4552433732313a207472616e73666572206f6620746f6b656e2074686174206960408201526839903737ba1037bbb760b91b606082015260800190565b6020808252602f908201527f4552433732314d657461646174613a2055524920717565727920666f72206e6f60408201526e3732bc34b9ba32b73a103a37b5b2b760891b606082015260800190565b60208082526021908201527f4552433732313a20617070726f76616c20746f2063757272656e74206f776e656040820152603960f91b606082015260800190565b6020808252601b908201527f4e6f6e6520617661696c61626c65206974656d20666f72206e6f770000000000604082015260600190565b60208082526031908201527f4552433732313a207472616e736665722063616c6c6572206973206e6f74206f6040820152701ddb995c881b9bdc88185c1c1c9bdd9959607a1b606082015260800190565b60208082526034908201527f706c656173652073657420666972737420616e20457468657265756d206164646040820152733932b9b9903337b9103a3434b990383630bcb2b960611b606082015260800190565b6020808252602c908201527f455243373231456e756d657261626c653a20676c6f62616c20696e646578206f60408201526b7574206f6620626f756e647360a01b606082015260800190565b6020808252601990820152784e6f7420746865206f776e6572206f6620746865206974656d60381b604082015260600190565b90815260200190565b600082198211156135805761358061367c565b500190565b60008261359457613594613692565b500490565b60008160001904831182151516156135b3576135b361367c565b500290565b6000828210156135ca576135ca61367c565b500390565b60005b838110156135ea5781810151838201526020016135d2565b8381111561153a5750506000910152565b60008161360a5761360a61367c565b506000190190565b60028104600182168061362657607f821691505b6020821081141561364757634e487b7160e01b600052602260045260246000fd5b50919050565b60006000198214156136615761366161367c565b5060010190565b60008261367757613677613692565b500690565b634e487b7160e01b600052601160045260246000fd5b634e487b7160e01b600052601260045260246000fd5b634e487b7160e01b600052604160045260246000fd5b6001600160e01b03198116811461176a57600080fdfea2646970667358221220a292ca55314a41e207f510d774762d11d07e428d559031cce78c86d2302007f564736f6c63430008010033",
  "immutableReferences": {},
  "source": "// SPDX-License-Identifier: GPL-3.0\r\n\r\npragma solidity 0.8.1;\r\n\r\nimport \"./convertRewardNFT.sol\";\r\n\r\n/**\r\n * @title Create a super monument level 3 by fusion\r\n * @notice Create a new item from 2 level 2 monument and matrial\r\n * @dev This contrat create a super monument with a new composition on the basis of a monument and a material. \r\n * once the new Item is created, it is sent to the player and the basis item are sent to the date database\r\n * with a lock status\r\n */\r\ncontract fusion is convertRewardNFT {\r\n    \r\n    event fusionnedItemCreate(uint tokenId, address indexed _to);\r\n    event lockItem(uint tokenId);\r\n    \r\n    ///@dev Make the fusion between two items, create the composition, the new name, continent and tokenId\r\n\tfunction fusionItem(uint _myItemId1, uint _myItemId2) public {\r\n  \r\n\t    require (ownerOf(_myItemId1) == msg.sender && ownerOf(_myItemId2) == msg.sender, \"Not the owner of the item\");\r\n\t    require (items[_myItemId1].levelItem == 2 && items[_myItemId2].levelItem == 2, \"Non fusionnable elements\");\r\n\t    require ((_isAnItemFusionable(_myItemId1) && !_isAnItemFusionable(_myItemId2)) || \r\n\t      (!_isAnItemFusionable(_myItemId1) && _isAnItemFusionable(_myItemId2)) , \"Combination not possible\");\r\n\t    \r\n\t    uint newComposition;\r\n\t    uint tokenId = items.length;\r\n\t    uint8 newContinent;\r\n\t    string memory newName;\r\n\t    string memory espace = \" \";\r\n\r\n\t    if (_isAnItemFusionable(_myItemId1)){\r\n\t      newComposition = _fusion(_myItemId1,_myItemId2);\r\n\t      newContinent = items[_myItemId1].continent;\r\n\t    }else{\r\n\t      newComposition = _fusion(_myItemId2,_myItemId1);\r\n\t      newContinent = items[_myItemId2].continent;\r\n\t    }\r\n\r\n\t    newName = string(abi.encodePacked(items[_myItemId1].name ,espace,items[_myItemId2].name));\r\n\r\n\t    _lockItem(_myItemId1);\r\n\t    _lockItem(_myItemId2);\r\n\r\n\t    items.push(Item(newName,3, newContinent,tokenId,newComposition, false, false));\r\n\t    _safeMint(msg.sender,tokenId);\r\n\t    \r\n\t    emit fusionnedItemCreate(tokenId, msg.sender);   \r\n  \t}\r\n    \r\n    ///@dev Check if the tokenId is a fusionnable monument\r\n \tfunction _isAnItemFusionable (uint _tokenId) private view returns(bool){\r\n\t  \r\n\t    if ((items[_tokenId].composition)/1000000 != 0 ){\r\n\t      return true;\r\n\t    }else {\r\n\t      return false;\r\n\t    }\r\n  \t}\r\n    \r\n    ///@dev Compute the composition of the new super monument\r\n  \tfunction _fusion(uint _tokenId1, uint _tokenId2) private view returns (uint){\r\n  \t\tuint compositionIntermediate = ((items[_tokenId1].composition / 1000000) * 1000000) + items[_tokenId2].composition;\r\n     \tuint codeThirdPart = exemplaireNumbers[compositionIntermediate % 1000000] + 1;\r\n     \treturn (((compositionIntermediate /1000) * 1000) + codeThirdPart); \r\n  \t}\r\n    \r\n    ///@dev Send the basis momunent and material to the data base with the locked status  \r\n  \tfunction _lockItem(uint _tokenId) private {\r\n  \t\titems[_tokenId].locked = true;\r\n\t    _transfer(msg.sender,_administrator, _tokenId);\r\n\t    emit lockItem(_tokenId);\r\n  \t}\r\n}",
  "sourcePath": "C:\\Users\\fboud\\OneDrive\\Documents\\Alyra\\projetFinal\\contracts\\fusion.sol",
  "compiler": {
    "name": "solc",
    "version": "0.8.1+commit.df193b15.Emscripten.clang"
  },
  "schemaVersion": "3.4.2",
  "updatedAt": "2021-08-09T18:37:42.619Z",
  "devdoc": {
    "details": "This contrat create a super monument with a new composition on the basis of a monument and a material.  once the new Item is created, it is sent to the player and the basis item are sent to the date database with a lock status",
    "kind": "dev",
    "methods": {
      "approve(address,uint256)": {
        "details": "See {IERC721-approve}."
      },
      "balanceOf(address)": {
        "details": "See {IERC721-balanceOf}."
      },
      "createItem(uint256,string,uint8)": {
        "details": "Function allowing to create items. Only the adminstrator can make one"
      },
      "fusionItem(uint256,uint256)": {
        "details": "Make the fusion between two items, create the composition, the new name, continent and tokenId"
      },
      "getApproved(uint256)": {
        "details": "See {IERC721-getApproved}."
      },
      "getReward()": {
        "details": "Transform the reward as a NFT"
      },
      "isApprovedForAll(address,address)": {
        "details": "See {IERC721-isApprovedForAll}."
      },
      "name()": {
        "details": "See {IERC721Metadata-name}."
      },
      "owner()": {
        "details": "Returns the address of the current owner."
      },
      "ownerOf(uint256)": {
        "details": "See {IERC721-ownerOf}."
      },
      "renounceOwnership()": {
        "details": "Leaves the contract without owner. It will not be possible to call `onlyOwner` functions anymore. Can only be called by the current owner. NOTE: Renouncing ownership will leave the contract without an owner, thereby removing any functionality that is only available to the owner."
      },
      "safeTransferFrom(address,address,uint256)": {
        "details": "See {IERC721-safeTransferFrom}."
      },
      "safeTransferFrom(address,address,uint256,bytes)": {
        "details": "See {IERC721-safeTransferFrom}."
      },
      "setApprovalForAll(address,bool)": {
        "details": "See {IERC721-setApprovalForAll}."
      },
      "setMultiversePlayer(address,string)": {
        "details": "link a login with a player. The login must be the exact same one than the one used in POW"
      },
      "supportsInterface(bytes4)": {
        "details": "See {IERC165-supportsInterface}."
      },
      "symbol()": {
        "details": "See {IERC721Metadata-symbol}."
      },
      "tokenByIndex(uint256)": {
        "details": "See {IERC721Enumerable-tokenByIndex}."
      },
      "tokenOfOwnerByIndex(address,uint256)": {
        "details": "See {IERC721Enumerable-tokenOfOwnerByIndex}."
      },
      "tokenURI(uint256)": {
        "details": "See {IERC721Metadata-tokenURI}."
      },
      "totalSupply()": {
        "details": "See {IERC721Enumerable-totalSupply}."
      },
      "transferFrom(address,address,uint256)": {
        "details": "See {IERC721-transferFrom}."
      },
      "transferOwnership(address)": {
        "details": "Transfers ownership of the contract to a new account (`newOwner`). Can only be called by the current owner."
      },
      "updateMultiversePlayer(string,uint8,uint8)": {
        "details": "Update the data of a registered player. The adnministrator Only can set this. In the future, the oracle will do that"
      }
    },
    "title": "Create a super monument level 3 by fusion",
    "version": 1
  },
  "userdoc": {
    "kind": "user",
    "methods": {},
    "notice": "Create a new item from 2 level 2 monument and matrial",
    "version": 1
  }
}