{
  "contractName": "interfaceMultiverseNFT",
  "abi": [
    {
      "inputs": [],
      "stateMutability": "nonpayable",
      "type": "constructor"
    },
    {
      "anonymous": false,
      "inputs": [
        {
          "indexed": false,
          "internalType": "address",
          "name": "addressPlayer",
          "type": "address"
        },
        {
          "indexed": false,
          "internalType": "string",
          "name": "loginPlayer",
          "type": "string"
        }
      ],
      "name": "NewPlayerRegistered",
      "type": "event"
    },
    {
      "anonymous": false,
      "inputs": [
        {
          "indexed": false,
          "internalType": "string",
          "name": "login",
          "type": "string"
        }
      ],
      "name": "playerUpdated",
      "type": "event"
    },
    {
      "inputs": [
        {
          "internalType": "address",
          "name": "",
          "type": "address"
        }
      ],
      "name": "multiverseData",
      "outputs": [
        {
          "internalType": "string",
          "name": "login",
          "type": "string"
        },
        {
          "internalType": "uint8",
          "name": "rewardLv1",
          "type": "uint8"
        },
        {
          "internalType": "uint8",
          "name": "rewardLv2",
          "type": "uint8"
        },
        {
          "internalType": "bool",
          "name": "isRegistered",
          "type": "bool"
        }
      ],
      "stateMutability": "view",
      "type": "function"
    },
    {
      "inputs": [
        {
          "internalType": "string",
          "name": "",
          "type": "string"
        }
      ],
      "name": "multiverseIds",
      "outputs": [
        {
          "internalType": "address",
          "name": "",
          "type": "address"
        }
      ],
      "stateMutability": "view",
      "type": "function"
    },
    {
      "inputs": [
        {
          "internalType": "address",
          "name": "_addressPlayer",
          "type": "address"
        },
        {
          "internalType": "string",
          "name": "_login",
          "type": "string"
        }
      ],
      "name": "setMultiversePlayer",
      "outputs": [],
      "stateMutability": "nonpayable",
      "type": "function"
    },
    {
      "inputs": [
        {
          "internalType": "string",
          "name": "_login",
          "type": "string"
        },
        {
          "internalType": "uint8",
          "name": "_rewardLv1",
          "type": "uint8"
        },
        {
          "internalType": "uint8",
          "name": "_rewardLv2",
          "type": "uint8"
        }
      ],
      "name": "updateMultiversePlayer",
      "outputs": [],
      "stateMutability": "nonpayable",
      "type": "function"
    }
  ],
  "bytecode": "0x608060405234801561001057600080fd5b50600080546001600160a01b031916331790556109a9806100326000396000f3fe608060405234801561001057600080fd5b506004361061004c5760003560e01c80637538822e1461005157806375adb7fd146100665780639b008e4714610092578063e9dbd45a146100a5575b600080fd5b61006461005f3660046106a6565b6100c5565b005b6100796100743660046105fe565b61026b565b6040516100899493929190610795565b60405180910390f35b6100646100a036600461061f565b610325565b6100b86100b336600461066b565b61048b565b604051610089919061074a565b6000546001600160a01b031633146100f85760405162461bcd60e51b81526004016100ef90610855565b60405180910390fd5b6002600060018560405161010c919061072e565b9081526040805160209281900383019020546001600160a01b03168352908201929092520160002060019081015462010000900460ff161515146101625760405162461bcd60e51b81526004016100ef9061089e565b8160026000600186604051610177919061072e565b908152602001604051809103902060009054906101000a90046001600160a01b03166001600160a01b03166001600160a01b0316815260200190815260200160002060010160006101000a81548160ff021916908360ff16021790555080600260006001866040516101e9919061072e565b9081526040805160209281900383019020546001600160a01b03168352908201929092528101600020600101805461ff00191661010060ff949094169390930292909217909155517faa6183438646fc8bb56f82868ce90c0a5bd1301970b115e976c90c1d696a15509061025e908590610782565b60405180910390a1505050565b60026020526000908152604090208054819061028690610922565b80601f01602080910402602001604051908101604052809291908181526020018280546102b290610922565b80156102ff5780601f106102d4576101008083540402835291602001916102ff565b820191906000526020600020905b8154815290600101906020018083116102e257829003601f168201915b5050506001909301549192505060ff808216916101008104821691620100009091041684565b6000546001600160a01b03163314806103465750336001600160a01b038316145b6103625760405162461bcd60e51b81526004016100ef906107ca565b60026000600183604051610376919061072e565b9081526040805160209281900383019020546001600160a01b0316835290820192909252016000206001015462010000900460ff16156103c85760405162461bcd60e51b81526004016100ef90610814565b816001826040516103d9919061072e565b908152604080516020928190038301902080546001600160a01b0319166001600160a01b03948516179055918416600090815260028252919091208251610422928401906104b1565b506001600160a01b03821660009081526002602052604090819020600101805462ff0000191662010000179055517fd1271c0a878b06e77c2b145e81fda258074d1d9f72d29461da6de567fe185db39061047f908490849061075e565b60405180910390a15050565b80516020818301810180516001825292820191909301209152546001600160a01b031681565b8280546104bd90610922565b90600052602060002090601f0160209004810192826104df5760008555610525565b82601f106104f857805160ff1916838001178555610525565b82800160010185558215610525579182015b8281111561052557825182559160200191906001019061050a565b50610531929150610535565b5090565b5b808211156105315760008155600101610536565b80356001600160a01b038116811461056157600080fd5b919050565b600082601f830112610576578081fd5b813567ffffffffffffffff808211156105915761059161095d565b604051601f8301601f19908116603f011681019082821181831017156105b9576105b961095d565b816040528381528660208588010111156105d1578485fd5b8360208701602083013792830160200193909352509392505050565b803560ff8116811461056157600080fd5b60006020828403121561060f578081fd5b6106188261054a565b9392505050565b60008060408385031215610631578081fd5b61063a8361054a565b9150602083013567ffffffffffffffff811115610655578182fd5b61066185828601610566565b9150509250929050565b60006020828403121561067c578081fd5b813567ffffffffffffffff811115610692578182fd5b61069e84828501610566565b949350505050565b6000806000606084860312156106ba578081fd5b833567ffffffffffffffff8111156106d0578182fd5b6106dc86828701610566565b9350506106eb602085016105ed565b91506106f9604085016105ed565b90509250925092565b6000815180845261071a8160208601602086016108f2565b601f01601f19169290920160200192915050565b600082516107408184602087016108f2565b9190910192915050565b6001600160a01b0391909116815260200190565b6001600160a01b038316815260406020820181905260009061069e90830184610702565b6000602082526106186020830184610702565b6000608082526107a86080830187610702565b60ff958616602084015293909416604082015290151560609091015292915050565b6020808252602a908201527f796f7520617265206e6f7420617574686f72697a656420746f207365742074686040820152691a5cc81858d8dbdd5b9d60b21b606082015260800190565b60208082526021908201527f7468697320706c6179657220697320616c7265616479207265676973746572656040820152601960fa1b606082015260800190565b60208082526029908201527f796f7520617265206e6f7420617574686f72697a656420746f20757064617465604082015268103090383630bcb2b960b91b606082015260800190565b60208082526034908201527f706c656173652073657420666972737420616e20457468657265756d206164646040820152733932b9b9903337b9103a3434b990383630bcb2b960611b606082015260800190565b60005b8381101561090d5781810151838201526020016108f5565b8381111561091c576000848401525b50505050565b60028104600182168061093657607f821691505b6020821081141561095757634e487b7160e01b600052602260045260246000fd5b50919050565b634e487b7160e01b600052604160045260246000fdfea26469706673582212206f86dff2c6e152e9659f1bc26b2064af44b02ec77c656c6a29cec604efdc41df64736f6c63430008010033",
  "immutableReferences": {},
  "source": "// SPDX-License-Identifier: GPL-3.0\r\n\r\npragma solidity 0.8.1;\r\n\r\n\r\n/**\r\n * @title Link the player fron POW to the blockchain\r\n * @notice This contract allows the adnministrator and the player to register an enthereum account and link \r\n * it to a POW Login.\r\n * @dev For now, the update is made by the adnministrator only but in the future, an oracle will do that\r\n */\r\n\r\ncontract interfaceMultiverseNFT{\r\n    \r\n    address _administrator;\r\n    \r\n    constructor(){\r\n        _administrator = msg.sender;\r\n    }\r\n\r\n    /**\r\n     * @dev structure of a player on NFT side\r\n     * @param Login is the exact same than the one used in POW\r\n     * @param rewardLV1 are the cases level1 obtain by the player in POW \r\n     * @param rewardLv2 are the case level2. \r\n     * @param Registred tells if the player is known this DAPP\r\n     */\r\n\tstruct Player {\r\n\t\tstring login; \r\n\t\tuint8 rewardLv1;\r\n\t\tuint8 rewardLv2;\r\n\t\tbool isRegistered;\r\n\t}\r\n\t\r\n\tevent NewPlayerRegistered(address addressPlayer, string loginPlayer);\r\n\tevent playerUpdated(string login);\r\n\t\r\n    //Mapping linking the login to an Ethereum address\r\n\tmapping (string => address) public multiverseIds;\r\n\t\r\n\t//Mapping linking an Ethereum address to a player structure\r\n\tmapping (address => Player) public multiverseData;\r\n  \r\n    \r\n    /** \r\n     * @dev link a login with a player. The login must be the exact same one than the one used in POW\r\n     */\r\n\tfunction setMultiversePlayer(address _addressPlayer, string memory _login) public {\r\n\t    require(msg.sender == _administrator || msg.sender == _addressPlayer, \"you are not authorized to set this account\");\r\n\t\trequire(!multiverseData[multiverseIds[_login]].isRegistered, \"this player is already registered\");\r\n\r\n\t\tmultiverseIds[_login] = _addressPlayer;\r\n\t\tmultiverseData[_addressPlayer].login = _login;\r\n\t\tmultiverseData[_addressPlayer].isRegistered = true; \r\n\t\t\r\n\t\temit NewPlayerRegistered(_addressPlayer,_login);\r\n\t}\r\n\t\r\n\t /** \r\n     * @dev Update the data of a registered player. The adnministrator Only can set this. In the future, the oracle will do that\r\n     */\r\n\tfunction updateMultiversePlayer(string memory _login, uint8 _rewardLv1, uint8 _rewardLv2) public {\r\n\t    require(msg.sender == _administrator, \"you are not authorized to update a player\");\r\n\t\trequire(multiverseData[multiverseIds[_login]].isRegistered == true, \"please set first an Ethereum address for this player\");\r\n\t\t\r\n\t\tmultiverseData[multiverseIds[_login]].rewardLv1 =  _rewardLv1;\r\n\t\tmultiverseData[multiverseIds[_login]].rewardLv2 =  _rewardLv2;\r\n\t\temit playerUpdated(_login);\r\n\t}\r\n}",
  "sourcePath": "C:\\Users\\fboud\\OneDrive\\Documents\\Alyra\\projetFinal\\contracts\\interfaceMultiverseNFT.sol",
  "compiler": {
    "name": "solc",
    "version": "0.8.1+commit.df193b15.Emscripten.clang"
  },
  "schemaVersion": "3.4.2",
  "updatedAt": "2021-08-07T17:30:06.116Z",
  "devdoc": {
    "details": "For now, the update is made by the adnministrator only but in the future, an oracle will do that",
    "kind": "dev",
    "methods": {
      "setMultiversePlayer(address,string)": {
        "details": "link a login with a player. The login must be the exact same one than the one used in POW"
      },
      "updateMultiversePlayer(string,uint8,uint8)": {
        "details": "Update the data of a registered player. The adnministrator Only can set this. In the future, the oracle will do that"
      }
    },
    "title": "Link the player fron POW to the blockchain",
    "version": 1
  },
  "userdoc": {
    "kind": "user",
    "methods": {},
    "notice": "This contract allows the adnministrator and the player to register an enthereum account and link  it to a POW Login.",
    "version": 1
  }
}