{
  "contractName": "interfaceMultiverseERC20",
  "abi": [
    {
      "inputs": [],
      "stateMutability": "nonpayable",
      "type": "constructor"
    },
    {
      "anonymous": false,
      "inputs": [
        {
          "indexed": false,
          "internalType": "address",
          "name": "addressPlayer",
          "type": "address"
        },
        {
          "indexed": false,
          "internalType": "string",
          "name": "loginPlayer",
          "type": "string"
        }
      ],
      "name": "NewPlayerRegistered",
      "type": "event"
    },
    {
      "anonymous": false,
      "inputs": [
        {
          "indexed": false,
          "internalType": "string",
          "name": "login",
          "type": "string"
        }
      ],
      "name": "playerUpdated",
      "type": "event"
    },
    {
      "inputs": [
        {
          "internalType": "address",
          "name": "",
          "type": "address"
        }
      ],
      "name": "multiverseData",
      "outputs": [
        {
          "internalType": "string",
          "name": "login",
          "type": "string"
        },
        {
          "internalType": "uint256",
          "name": "lastLevelErc20Reward",
          "type": "uint256"
        },
        {
          "internalType": "uint256",
          "name": "XP",
          "type": "uint256"
        },
        {
          "internalType": "bool",
          "name": "isRegistered",
          "type": "bool"
        }
      ],
      "stateMutability": "view",
      "type": "function"
    },
    {
      "inputs": [
        {
          "internalType": "string",
          "name": "",
          "type": "string"
        }
      ],
      "name": "multiverseIds",
      "outputs": [
        {
          "internalType": "address",
          "name": "",
          "type": "address"
        }
      ],
      "stateMutability": "view",
      "type": "function"
    },
    {
      "inputs": [
        {
          "internalType": "address",
          "name": "_addressPlayer",
          "type": "address"
        },
        {
          "internalType": "string",
          "name": "_login",
          "type": "string"
        }
      ],
      "name": "setMultiversePlayer",
      "outputs": [],
      "stateMutability": "nonpayable",
      "type": "function"
    },
    {
      "inputs": [
        {
          "internalType": "string",
          "name": "_login",
          "type": "string"
        },
        {
          "internalType": "uint256",
          "name": "_XP",
          "type": "uint256"
        }
      ],
      "name": "updateMultiversePlayer",
      "outputs": [],
      "stateMutability": "nonpayable",
      "type": "function"
    }
  ],
  "bytecode": "0x608060405234801561001057600080fd5b50600080546001600160a01b03191633179055610961806100326000396000f3fe608060405234801561001057600080fd5b506004361061004c5760003560e01c80634cb3d4331461005157806375adb7fd146100665780639b008e4714610092578063e9dbd45a146100a5575b600080fd5b61006461005f36600461067b565b6100c5565b005b6100796100743660046105d3565b610297565b6040516100899493929190610751565b60405180910390f35b6100646100a03660046105f4565b61034c565b6100b86100b3366004610640565b610471565b6040516100899190610706565b6000546001600160a01b031633146100f85760405162461bcd60e51b81526004016100ef9061080d565b60405180910390fd5b6002600060018460405161010c91906106ea565b90815260408051918290036020908101909220546001600160a01b0316835290820192909252016000206003015460ff16151560011461015e5760405162461bcd60e51b81526004016100ef90610856565b60405180608001604052808381526020016002600060018660405161018391906106ea565b908152602001604051809103902060009054906101000a90046001600160a01b03166001600160a01b03166001600160a01b0316815260200190815260200160002060010154815260200182815260200160011515815250600260006001856040516101ef91906106ea565b9081526040805160209281900383019020546001600160a01b0316835282820193909352910160002082518051919261022d92849290910190610497565b506020820151600182015560408083015160028301556060909201516003909101805460ff1916911515919091179055517faa6183438646fc8bb56f82868ce90c0a5bd1301970b115e976c90c1d696a15509061028b90849061073e565b60405180910390a15050565b6002602052600090815260409020805481906102b2906108da565b80601f01602080910402602001604051908101604052809291908181526020018280546102de906108da565b801561032b5780601f106103005761010080835404028352916020019161032b565b820191906000526020600020905b81548152906001019060200180831161030e57829003601f168201915b50505050600183015460028401546003909401549293909290915060ff1684565b6000546001600160a01b031633148061036d5750336001600160a01b038316145b6103895760405162461bcd60e51b81526004016100ef90610782565b6002600060018360405161039d91906106ea565b9081526040805160209281900383019020546001600160a01b0316835290820192909252016000206003015460ff16156103e95760405162461bcd60e51b81526004016100ef906107cc565b816001826040516103fa91906106ea565b908152604080516020928190038301812080546001600160a01b0319166001600160a01b03958616179055928516600090815260029092529020600301805460ff191660011790557fd1271c0a878b06e77c2b145e81fda258074d1d9f72d29461da6de567fe185db39061028b908490849061071a565b80516020818301810180516001825292820191909301209152546001600160a01b031681565b8280546104a3906108da565b90600052602060002090601f0160209004810192826104c5576000855561050b565b82601f106104de57805160ff191683800117855561050b565b8280016001018555821561050b579182015b8281111561050b5782518255916020019190600101906104f0565b5061051792915061051b565b5090565b5b80821115610517576000815560010161051c565b80356001600160a01b038116811461054757600080fd5b919050565b600082601f83011261055c578081fd5b813567ffffffffffffffff8082111561057757610577610915565b604051601f8301601f19908116603f0116810190828211818310171561059f5761059f610915565b816040528381528660208588010111156105b7578485fd5b8360208701602083013792830160200193909352509392505050565b6000602082840312156105e4578081fd5b6105ed82610530565b9392505050565b60008060408385031215610606578081fd5b61060f83610530565b9150602083013567ffffffffffffffff81111561062a578182fd5b6106368582860161054c565b9150509250929050565b600060208284031215610651578081fd5b813567ffffffffffffffff811115610667578182fd5b6106738482850161054c565b949350505050565b6000806040838503121561068d578182fd5b823567ffffffffffffffff8111156106a3578283fd5b6106af8582860161054c565b95602094909401359450505050565b600081518084526106d68160208601602086016108aa565b601f01601f19169290920160200192915050565b600082516106fc8184602087016108aa565b9190910192915050565b6001600160a01b0391909116815260200190565b6001600160a01b0383168152604060208201819052600090610673908301846106be565b6000602082526105ed60208301846106be565b60006080825261076460808301876106be565b60208301959095525060408101929092521515606090910152919050565b6020808252602a908201527f796f7520617265206e6f7420617574686f72697a656420746f207365742074686040820152691a5cc81858d8dbdd5b9d60b21b606082015260800190565b60208082526021908201527f7468697320706c6179657220697320616c7265616479207265676973746572656040820152601960fa1b606082015260800190565b60208082526029908201527f796f7520617265206e6f7420617574686f72697a656420746f20757064617465604082015268103090383630bcb2b960b91b606082015260800190565b60208082526034908201527f706c656173652073657420666972737420616e20457468657265756d206164646040820152733932b9b9903337b9103a3434b990383630bcb2b960611b606082015260800190565b60005b838110156108c55781810151838201526020016108ad565b838111156108d4576000848401525b50505050565b6002810460018216806108ee57607f821691505b6020821081141561090f57634e487b7160e01b600052602260045260246000fd5b50919050565b634e487b7160e01b600052604160045260246000fdfea2646970667358221220b2166b6291b4beeb1c027d8c43535580ee9c48ec7552c7109d122e74e72aec7564736f6c63430008010033",
  "immutableReferences": {},
  "source": "// SPDX-License-Identifier: GPL-3.0\r\n\r\npragma solidity 0.8.1;\r\n\r\n\r\n/**\r\n * @title Link the player from POW to the blockchain\r\n * @notice This contract allows the adnministrator and the player to register an enthereum account and link \r\n * it to a POW Login.\r\n * @dev For now, the update is made by the adnministrator only but in the future, an oracle will do that\r\n */\r\n\r\ncontract interfaceMultiverseERC20{\r\n    \r\n    address _administrator;\r\n    \r\n    constructor(){\r\n        _administrator = msg.sender;\r\n    }\r\n\r\n    /**\r\n     * @dev structure of a player on ERC20 side \r\n     * @param Login is the exact same than the one used in POW\r\n     * @param lastLevelErc20Reward, is the last level of the reward obtain for his XP obtain\r\n     * @param XP is the amount of experience point accumulated by the player \r\n     * @param Registred tells if the player is known this DAPP\r\n     */\r\n\tstruct Player {\r\n\t\tstring login; \r\n\t\tuint lastLevelErc20Reward; \r\n\t\tuint XP;\r\n\t\tbool isRegistered;\r\n\t}\r\n\t\r\n\tevent NewPlayerRegistered(address addressPlayer, string loginPlayer);\r\n\tevent playerUpdated(string login);\r\n\t\r\n    //Mapping linking the login to an Ethereum address\r\n\tmapping (string => address) public multiverseIds;\r\n\t\r\n\t//Mapping linking an Ethereum address to a player structure\r\n\tmapping (address => Player) public multiverseData;\r\n  \r\n    \r\n    /** \r\n     * @dev link a login with a player. The login must be the exact same one than the one used in POW\r\n     */\r\n\tfunction setMultiversePlayer(address _addressPlayer, string memory _login) public {\r\n\t    require(msg.sender == _administrator || msg.sender == _addressPlayer, \"you are not authorized to set this account\");\r\n\t\trequire(!multiverseData[multiverseIds[_login]].isRegistered, \"this player is already registered\");\r\n\r\n\t\tmultiverseIds[_login] = _addressPlayer;\r\n\t\tmultiverseData[_addressPlayer].isRegistered = true; \r\n\t\t\r\n\t\temit NewPlayerRegistered(_addressPlayer,_login);\r\n\t}\r\n\t\r\n\t /** \r\n     * @dev Update the data of a registered player. The adnministrator Only can set this. In the future, the oracle will do that\r\n     */\r\n\tfunction updateMultiversePlayer(string memory _login, uint _XP) public {\r\n\t    require(msg.sender == _administrator, \"you are not authorized to update a player\");\r\n\t\trequire(multiverseData[multiverseIds[_login]].isRegistered == true, \"please set first an Ethereum address for this player\");\r\n\t\t\r\n\t\tmultiverseData[multiverseIds[_login]] = Player(_login, multiverseData[multiverseIds[_login]].lastLevelErc20Reward, _XP,true);\r\n\t\temit playerUpdated(_login);\r\n\t}\r\n}",
  "sourcePath": "C:/Users/fboud/OneDrive/Documents/Alyra/projetFinal/contracts/interfaceMultiverseERC20.sol",
  "compiler": {
    "name": "solc",
    "version": "0.8.1+commit.df193b15.Emscripten.clang"
  },
  "schemaVersion": "3.4.1",
  "updatedAt": "2021-07-29T15:58:20.352Z",
  "devdoc": {
    "details": "For now, the update is made by the adnministrator only but in the future, an oracle will do that",
    "kind": "dev",
    "methods": {
      "setMultiversePlayer(address,string)": {
        "details": "link a login with a player. The login must be the exact same one than the one used in POW"
      },
      "updateMultiversePlayer(string,uint256)": {
        "details": "Update the data of a registered player. The adnministrator Only can set this. In the future, the oracle will do that"
      }
    },
    "title": "Link the player from POW to the blockchain",
    "version": 1
  },
  "userdoc": {
    "kind": "user",
    "methods": {},
    "notice": "This contract allows the adnministrator and the player to register an enthereum account and link  it to a POW Login.",
    "version": 1
  }
}