{
  "contractName": "interfaceMultiverseERC20",
  "abi": [
    {
      "inputs": [],
      "stateMutability": "nonpayable",
      "type": "constructor"
    },
    {
      "anonymous": false,
      "inputs": [
        {
          "indexed": false,
          "internalType": "address",
          "name": "addressPlayer",
          "type": "address"
        },
        {
          "indexed": false,
          "internalType": "string",
          "name": "loginPlayer",
          "type": "string"
        }
      ],
      "name": "NewPlayerRegistered",
      "type": "event"
    },
    {
      "anonymous": false,
      "inputs": [
        {
          "indexed": false,
          "internalType": "string",
          "name": "login",
          "type": "string"
        }
      ],
      "name": "playerUpdated",
      "type": "event"
    },
    {
      "inputs": [
        {
          "internalType": "address",
          "name": "",
          "type": "address"
        }
      ],
      "name": "multiverseData",
      "outputs": [
        {
          "internalType": "string",
          "name": "login",
          "type": "string"
        },
        {
          "internalType": "uint256",
          "name": "lastLevelErc20Reward",
          "type": "uint256"
        },
        {
          "internalType": "uint256",
          "name": "XP",
          "type": "uint256"
        },
        {
          "internalType": "bool",
          "name": "isRegistered",
          "type": "bool"
        }
      ],
      "stateMutability": "view",
      "type": "function"
    },
    {
      "inputs": [
        {
          "internalType": "string",
          "name": "",
          "type": "string"
        }
      ],
      "name": "multiverseIds",
      "outputs": [
        {
          "internalType": "address",
          "name": "",
          "type": "address"
        }
      ],
      "stateMutability": "view",
      "type": "function"
    },
    {
      "inputs": [
        {
          "internalType": "address",
          "name": "_addressPlayer",
          "type": "address"
        },
        {
          "internalType": "string",
          "name": "_login",
          "type": "string"
        }
      ],
      "name": "setMultiversePlayer",
      "outputs": [],
      "stateMutability": "nonpayable",
      "type": "function"
    },
    {
      "inputs": [
        {
          "internalType": "string",
          "name": "_login",
          "type": "string"
        },
        {
          "internalType": "uint256",
          "name": "_XP",
          "type": "uint256"
        }
      ],
      "name": "updateMultiversePlayer",
      "outputs": [],
      "stateMutability": "nonpayable",
      "type": "function"
    }
  ],
  "bytecode": "0x608060405234801561001057600080fd5b50600080546001600160a01b031916331790556108d2806100326000396000f3fe608060405234801561001057600080fd5b506004361061004c5760003560e01c80634cb3d4331461005157806375adb7fd146100665780639b008e4714610092578063e9dbd45a146100a5575b600080fd5b61006461005f3660046105ec565b6100c5565b005b610079610074366004610544565b6101dd565b60405161008994939291906106c2565b60405180910390f35b6100646100a0366004610565565b610292565b6100b86100b33660046105b1565b6103e2565b6040516100899190610677565b6000546001600160a01b031633146100f85760405162461bcd60e51b81526004016100ef9061077e565b60405180910390fd5b6002600060018460405161010c919061065b565b90815260408051918290036020908101909220546001600160a01b0316835290820192909252016000206003015460ff16151560011461015e5760405162461bcd60e51b81526004016100ef906107c7565b8060026000600185604051610173919061065b565b9081526040805160209281900383019020546001600160a01b0316835290820192909252810160002060020191909155517faa6183438646fc8bb56f82868ce90c0a5bd1301970b115e976c90c1d696a1550906101d19084906106af565b60405180910390a15050565b6002602052600090815260409020805481906101f89061084b565b80601f01602080910402602001604051908101604052809291908181526020018280546102249061084b565b80156102715780601f1061024657610100808354040283529160200191610271565b820191906000526020600020905b81548152906001019060200180831161025457829003601f168201915b50505050600183015460028401546003909401549293909290915060ff1684565b6000546001600160a01b03163314806102b35750336001600160a01b038316145b6102cf5760405162461bcd60e51b81526004016100ef906106f3565b600260006001836040516102e3919061065b565b9081526040805160209281900383019020546001600160a01b0316835290820192909252016000206003015460ff161561032f5760405162461bcd60e51b81526004016100ef9061073d565b81600182604051610340919061065b565b908152604080516020928190038301902080546001600160a01b0319166001600160a01b0394851617905591841660009081526002825291909120825161038992840190610408565b506001600160a01b03821660009081526002602052604090819020600301805460ff19166001179055517fd1271c0a878b06e77c2b145e81fda258074d1d9f72d29461da6de567fe185db3906101d1908490849061068b565b80516020818301810180516001825292820191909301209152546001600160a01b031681565b8280546104149061084b565b90600052602060002090601f016020900481019282610436576000855561047c565b82601f1061044f57805160ff191683800117855561047c565b8280016001018555821561047c579182015b8281111561047c578251825591602001919060010190610461565b5061048892915061048c565b5090565b5b80821115610488576000815560010161048d565b80356001600160a01b03811681146104b857600080fd5b919050565b600082601f8301126104cd578081fd5b813567ffffffffffffffff808211156104e8576104e8610886565b604051601f8301601f19908116603f0116810190828211818310171561051057610510610886565b81604052838152866020858801011115610528578485fd5b8360208701602083013792830160200193909352509392505050565b600060208284031215610555578081fd5b61055e826104a1565b9392505050565b60008060408385031215610577578081fd5b610580836104a1565b9150602083013567ffffffffffffffff81111561059b578182fd5b6105a7858286016104bd565b9150509250929050565b6000602082840312156105c2578081fd5b813567ffffffffffffffff8111156105d8578182fd5b6105e4848285016104bd565b949350505050565b600080604083850312156105fe578182fd5b823567ffffffffffffffff811115610614578283fd5b610620858286016104bd565b95602094909401359450505050565b6000815180845261064781602086016020860161081b565b601f01601f19169290920160200192915050565b6000825161066d81846020870161081b565b9190910192915050565b6001600160a01b0391909116815260200190565b6001600160a01b03831681526040602082018190526000906105e49083018461062f565b60006020825261055e602083018461062f565b6000608082526106d5608083018761062f565b60208301959095525060408101929092521515606090910152919050565b6020808252602a908201527f796f7520617265206e6f7420617574686f72697a656420746f207365742074686040820152691a5cc81858d8dbdd5b9d60b21b606082015260800190565b60208082526021908201527f7468697320706c6179657220697320616c7265616479207265676973746572656040820152601960fa1b606082015260800190565b60208082526029908201527f796f7520617265206e6f7420617574686f72697a656420746f20757064617465604082015268103090383630bcb2b960b91b606082015260800190565b60208082526034908201527f706c656173652073657420666972737420616e20457468657265756d206164646040820152733932b9b9903337b9103a3434b990383630bcb2b960611b606082015260800190565b60005b8381101561083657818101518382015260200161081e565b83811115610845576000848401525b50505050565b60028104600182168061085f57607f821691505b6020821081141561088057634e487b7160e01b600052602260045260246000fd5b50919050565b634e487b7160e01b600052604160045260246000fdfea2646970667358221220be207898eba1f38c1c8b04d5320c3cfe9f4ef3af21c7d59da1e5b143d4602d8e64736f6c63430008010033",
  "immutableReferences": {},
  "source": "// SPDX-License-Identifier: GPL-3.0\r\n\r\npragma solidity 0.8.1;\r\n\r\n\r\n/**\r\n * @title Link the player from POW to the blockchain\r\n * @notice This contract allows the adnministrator and the player to register an enthereum account and link \r\n * it to a POW Login.\r\n * @dev For now, the update is made by the adnministrator only but in the future, an oracle will do that\r\n */\r\n\r\ncontract interfaceMultiverseERC20{\r\n    \r\n    address _administrator;\r\n    \r\n    constructor(){\r\n        _administrator = msg.sender;\r\n    }\r\n\r\n    /**\r\n     * @dev structure of a player on ERC20 side \r\n     * @param Login is the exact same than the one used in POW\r\n     * @param lastLevelErc20Reward, is the last level of the reward obtain for his XP obtain\r\n     * @param XP is the amount of experience point accumulated by the player \r\n     * @param Registred tells if the player is known this DAPP\r\n     */\r\n\tstruct Player {\r\n\t\tstring login; \r\n\t\tuint lastLevelErc20Reward; \r\n\t\tuint XP;\r\n\t\tbool isRegistered;\r\n\t}\r\n\t\r\n\tevent NewPlayerRegistered(address addressPlayer, string loginPlayer);\r\n\tevent playerUpdated(string login);\r\n\t\r\n    //Mapping linking the login to an Ethereum address\r\n\tmapping (string => address) public multiverseIds;\r\n\t\r\n\t//Mapping linking an Ethereum address to a player structure\r\n\tmapping (address => Player) public multiverseData;\r\n  \r\n    \r\n    /** \r\n     * @dev link a login with a player. The login must be the exact same one than the one used in POW\r\n     */\r\n\tfunction setMultiversePlayer(address _addressPlayer, string memory _login) public {\r\n\t    require(msg.sender == _administrator || msg.sender == _addressPlayer, \"you are not authorized to set this account\");\r\n\t\trequire(!multiverseData[multiverseIds[_login]].isRegistered, \"this player is already registered\");\r\n\r\n\t\tmultiverseIds[_login] = _addressPlayer;\r\n\t\tmultiverseData[_addressPlayer].login = _login; \r\n\t\tmultiverseData[_addressPlayer].isRegistered = true; \r\n\t\t\r\n\t\temit NewPlayerRegistered(_addressPlayer,_login);\r\n\t}\r\n\t\r\n\t /** \r\n     * @dev Update the data of a registered player. The adnministrator Only can set this. In the future, the oracle will do that\r\n     */\r\n\tfunction updateMultiversePlayer(string memory _login, uint _XP) public {\r\n\t    require(msg.sender == _administrator, \"you are not authorized to update a player\");\r\n\t\trequire(multiverseData[multiverseIds[_login]].isRegistered == true, \"please set first an Ethereum address for this player\");\r\n\t\t\r\n\t\tmultiverseData[multiverseIds[_login]].XP = _XP;\r\n\t\temit playerUpdated(_login);\r\n\t}\r\n}",
  "sourcePath": "C:\\Users\\fboud\\OneDrive\\Documents\\Alyra\\projetFinal\\contracts\\interfaceMultiverseERC20.sol",
  "compiler": {
    "name": "solc",
    "version": "0.8.1+commit.df193b15.Emscripten.clang"
  },
  "schemaVersion": "3.4.2",
  "updatedAt": "2021-08-09T18:37:42.643Z",
  "devdoc": {
    "details": "For now, the update is made by the adnministrator only but in the future, an oracle will do that",
    "kind": "dev",
    "methods": {
      "setMultiversePlayer(address,string)": {
        "details": "link a login with a player. The login must be the exact same one than the one used in POW"
      },
      "updateMultiversePlayer(string,uint256)": {
        "details": "Update the data of a registered player. The adnministrator Only can set this. In the future, the oracle will do that"
      }
    },
    "title": "Link the player from POW to the blockchain",
    "version": 1
  },
  "userdoc": {
    "kind": "user",
    "methods": {},
    "notice": "This contract allows the adnministrator and the player to register an enthereum account and link  it to a POW Login.",
    "version": 1
  }
}