{
  "contractName": "interfaceMultiverseNFT",
  "abi": [
    {
      "inputs": [],
      "stateMutability": "nonpayable",
      "type": "constructor"
    },
    {
      "anonymous": false,
      "inputs": [
        {
          "indexed": false,
          "internalType": "address",
          "name": "addressPlayer",
          "type": "address"
        },
        {
          "indexed": false,
          "internalType": "string",
          "name": "loginPlayer",
          "type": "string"
        }
      ],
      "name": "NewPlayerRegistered",
      "type": "event"
    },
    {
      "anonymous": false,
      "inputs": [
        {
          "indexed": false,
          "internalType": "string",
          "name": "login",
          "type": "string"
        }
      ],
      "name": "playerUpdated",
      "type": "event"
    },
    {
      "inputs": [
        {
          "internalType": "address",
          "name": "",
          "type": "address"
        }
      ],
      "name": "multiverseData",
      "outputs": [
        {
          "internalType": "string",
          "name": "login",
          "type": "string"
        },
        {
          "internalType": "uint8",
          "name": "rewardLv1",
          "type": "uint8"
        },
        {
          "internalType": "uint8",
          "name": "rewardLv2",
          "type": "uint8"
        },
        {
          "internalType": "bool",
          "name": "isRegistered",
          "type": "bool"
        }
      ],
      "stateMutability": "view",
      "type": "function"
    },
    {
      "inputs": [
        {
          "internalType": "string",
          "name": "",
          "type": "string"
        }
      ],
      "name": "multiverseIds",
      "outputs": [
        {
          "internalType": "address",
          "name": "",
          "type": "address"
        }
      ],
      "stateMutability": "view",
      "type": "function"
    },
    {
      "inputs": [
        {
          "internalType": "address",
          "name": "_addressPlayer",
          "type": "address"
        },
        {
          "internalType": "string",
          "name": "_login",
          "type": "string"
        }
      ],
      "name": "setMultiversePlayer",
      "outputs": [],
      "stateMutability": "nonpayable",
      "type": "function"
    },
    {
      "inputs": [
        {
          "internalType": "string",
          "name": "_login",
          "type": "string"
        },
        {
          "internalType": "uint8",
          "name": "_rewardLv1",
          "type": "uint8"
        },
        {
          "internalType": "uint8",
          "name": "_rewardLv2",
          "type": "uint8"
        }
      ],
      "name": "updateMultiversePlayer",
      "outputs": [],
      "stateMutability": "nonpayable",
      "type": "function"
    }
  ],
  "bytecode": "0x608060405234801561001057600080fd5b50600080546001600160a01b0319163317905561097e806100326000396000f3fe608060405234801561001057600080fd5b506004361061004c5760003560e01c80637538822e1461005157806375adb7fd146100665780639b008e4714610092578063e9dbd45a146100a5575b600080fd5b61006461005f36600461067b565b6100c5565b005b6100796100743660046105d3565b610269565b604051610089949392919061076a565b60405180910390f35b6100646100a03660046105f4565b610323565b6100b86100b3366004610640565b610460565b604051610089919061071f565b6000546001600160a01b031633146100f85760405162461bcd60e51b81526004016100ef9061082a565b60405180910390fd5b6002600060018560405161010c9190610703565b9081526040805160209281900383019020546001600160a01b03168352908201929092520160002060019081015462010000900460ff161515146101625760405162461bcd60e51b81526004016100ef90610873565b60405180608001604052808481526020018360ff1681526020018260ff16815260200160011515815250600260006001866040516101a09190610703565b9081526040805160209281900383019020546001600160a01b031683528282019390935291016000208251805191926101de92849290910190610486565b506020820151600190910180546040808501516060909501511515620100000262ff00001960ff9687166101000261ff00199790961660ff199094169390931795909516939093171692909217909155517faa6183438646fc8bb56f82868ce90c0a5bd1301970b115e976c90c1d696a15509061025c908590610757565b60405180910390a1505050565b600260205260009081526040902080548190610284906108f7565b80601f01602080910402602001604051908101604052809291908181526020018280546102b0906108f7565b80156102fd5780601f106102d2576101008083540402835291602001916102fd565b820191906000526020600020905b8154815290600101906020018083116102e057829003601f168201915b5050506001909301549192505060ff808216916101008104821691620100009091041684565b6000546001600160a01b03163314806103445750336001600160a01b038316145b6103605760405162461bcd60e51b81526004016100ef9061079f565b600260006001836040516103749190610703565b9081526040805160209281900383019020546001600160a01b0316835290820192909252016000206001015462010000900460ff16156103c65760405162461bcd60e51b81526004016100ef906107e9565b816001826040516103d79190610703565b908152604080516020928190038301812080546001600160a01b0319166001600160a01b0395861617905592851660009081526002909252902060010180546201000062ff0000199091161790557fd1271c0a878b06e77c2b145e81fda258074d1d9f72d29461da6de567fe185db3906104549084908490610733565b60405180910390a15050565b80516020818301810180516001825292820191909301209152546001600160a01b031681565b828054610492906108f7565b90600052602060002090601f0160209004810192826104b457600085556104fa565b82601f106104cd57805160ff19168380011785556104fa565b828001600101855582156104fa579182015b828111156104fa5782518255916020019190600101906104df565b5061050692915061050a565b5090565b5b80821115610506576000815560010161050b565b80356001600160a01b038116811461053657600080fd5b919050565b600082601f83011261054b578081fd5b813567ffffffffffffffff8082111561056657610566610932565b604051601f8301601f19908116603f0116810190828211818310171561058e5761058e610932565b816040528381528660208588010111156105a6578485fd5b8360208701602083013792830160200193909352509392505050565b803560ff8116811461053657600080fd5b6000602082840312156105e4578081fd5b6105ed8261051f565b9392505050565b60008060408385031215610606578081fd5b61060f8361051f565b9150602083013567ffffffffffffffff81111561062a578182fd5b6106368582860161053b565b9150509250929050565b600060208284031215610651578081fd5b813567ffffffffffffffff811115610667578182fd5b6106738482850161053b565b949350505050565b60008060006060848603121561068f578081fd5b833567ffffffffffffffff8111156106a5578182fd5b6106b18682870161053b565b9350506106c0602085016105c2565b91506106ce604085016105c2565b90509250925092565b600081518084526106ef8160208601602086016108c7565b601f01601f19169290920160200192915050565b600082516107158184602087016108c7565b9190910192915050565b6001600160a01b0391909116815260200190565b6001600160a01b0383168152604060208201819052600090610673908301846106d7565b6000602082526105ed60208301846106d7565b60006080825261077d60808301876106d7565b60ff958616602084015293909416604082015290151560609091015292915050565b6020808252602a908201527f796f7520617265206e6f7420617574686f72697a656420746f207365742074686040820152691a5cc81858d8dbdd5b9d60b21b606082015260800190565b60208082526021908201527f7468697320706c6179657220697320616c7265616479207265676973746572656040820152601960fa1b606082015260800190565b60208082526029908201527f796f7520617265206e6f7420617574686f72697a656420746f20757064617465604082015268103090383630bcb2b960b91b606082015260800190565b60208082526034908201527f706c656173652073657420666972737420616e20457468657265756d206164646040820152733932b9b9903337b9103a3434b990383630bcb2b960611b606082015260800190565b60005b838110156108e25781810151838201526020016108ca565b838111156108f1576000848401525b50505050565b60028104600182168061090b57607f821691505b6020821081141561092c57634e487b7160e01b600052602260045260246000fd5b50919050565b634e487b7160e01b600052604160045260246000fdfea2646970667358221220efe168f0bb6edc7ae3ee2017cc4b8ad2c5f374102d6c2e50d03613881b03139a64736f6c63430008010033",
  "immutableReferences": {},
  "source": "// SPDX-License-Identifier: GPL-3.0\r\n\r\npragma solidity 0.8.1;\r\n\r\n\r\n/**\r\n * @title Link the player fron POW to the blockchain\r\n * @notice This contract allows the adnministrator and the player to register an enthereum account and link \r\n * it to a POW Login.\r\n * @dev For now, the update is made by the adnministrator only but in the future, an oracle will do that\r\n */\r\n\r\ncontract interfaceMultiverseNFT{\r\n    \r\n    address _administrator;\r\n    \r\n    constructor(){\r\n        _administrator = msg.sender;\r\n    }\r\n\r\n    /**\r\n     * @dev structure of a player on NFT side\r\n     * @param Login is the exact same than the one used in POW\r\n     * @param rewardLV1 are the cases level1 obtain by the player in POW \r\n     * @param rewardLv2 are the case level2. \r\n     * @param Registred tells if the player is known this DAPP\r\n     */\r\n\tstruct Player {\r\n\t\tstring login; \r\n\t\tuint8 rewardLv1;\r\n\t\tuint8 rewardLv2;\r\n\t\tbool isRegistered;\r\n\t}\r\n\t\r\n\tevent NewPlayerRegistered(address addressPlayer, string loginPlayer);\r\n\tevent playerUpdated(string login);\r\n\t\r\n    //Mapping linking the login to an Ethereum address\r\n\tmapping (string => address) public multiverseIds;\r\n\t\r\n\t//Mapping linking an Ethereum address to a player structure\r\n\tmapping (address => Player) public multiverseData;\r\n  \r\n    \r\n    /** \r\n     * @dev link a login with a player. The login must be the exact same one than the one used in POW\r\n     */\r\n\tfunction setMultiversePlayer(address _addressPlayer, string memory _login) public {\r\n\t    require(msg.sender == _administrator || msg.sender == _addressPlayer, \"you are not authorized to set this account\");\r\n\t\trequire(!multiverseData[multiverseIds[_login]].isRegistered, \"this player is already registered\");\r\n\r\n\t\tmultiverseIds[_login] = _addressPlayer;\r\n\t\tmultiverseData[_addressPlayer].isRegistered = true; \r\n\t\t\r\n\t\temit NewPlayerRegistered(_addressPlayer,_login);\r\n\t}\r\n\t\r\n\t /** \r\n     * @dev Update the data of a registered player. The adnministrator Only can set this. In the future, the oracle will do that\r\n     */\r\n\tfunction updateMultiversePlayer(string memory _login, uint8 _rewardLv1, uint8 _rewardLv2) public {\r\n\t    require(msg.sender == _administrator, \"you are not authorized to update a player\");\r\n\t\trequire(multiverseData[multiverseIds[_login]].isRegistered == true, \"please set first an Ethereum address for this player\");\r\n\t\t\r\n\t\tmultiverseData[multiverseIds[_login]] = Player(_login, _rewardLv1, _rewardLv2,true);\r\n\t\temit playerUpdated(_login);\r\n\t}\r\n}",
  "sourcePath": "C:\\Users\\fboud\\OneDrive\\Documents\\Alyra\\projetFinal\\contracts\\interfaceMultiverseNFT.sol",
  "compiler": {
    "name": "solc",
    "version": "0.8.1+commit.df193b15.Emscripten.clang"
  },
  "schemaVersion": "3.4.1",
  "updatedAt": "2021-07-29T16:02:55.126Z",
  "devdoc": {
    "details": "For now, the update is made by the adnministrator only but in the future, an oracle will do that",
    "kind": "dev",
    "methods": {
      "setMultiversePlayer(address,string)": {
        "details": "link a login with a player. The login must be the exact same one than the one used in POW"
      },
      "updateMultiversePlayer(string,uint8,uint8)": {
        "details": "Update the data of a registered player. The adnministrator Only can set this. In the future, the oracle will do that"
      }
    },
    "title": "Link the player fron POW to the blockchain",
    "version": 1
  },
  "userdoc": {
    "kind": "user",
    "methods": {},
    "notice": "This contract allows the adnministrator and the player to register an enthereum account and link  it to a POW Login.",
    "version": 1
  }
}