{
  "contractName": "itemsFactory",
  "abi": [
    {
      "inputs": [],
      "name": "get1",
      "outputs": [
        {
          "internalType": "uint256",
          "name": "",
          "type": "uint256"
        }
      ],
      "stateMutability": "nonpayable",
      "type": "function"
    }
  ],
  "bytecode": "0x6080604052348015600f57600080fd5b5060888061001e6000396000f3fe6080604052348015600f57600080fd5b506004361060285760003560e01c8063054c1a7514602d575b600080fd5b60336049565b6040518082815260200191505060405180910390f35b6000600190509056fea264697066735822122084fce14d54abbc28be621a5b6c51c873a7ca6cd00e154e06c026794ee4681bef64736f6c63430007060033",
  "immutableReferences": {},
  "source": "// SPDX-License-Identifier: GPL-3.0\r\n\r\npragma solidity 0.7.6;\r\n\r\n/**\r\n * The itemsFactory contract does this and that...\r\n */\r\ncontract itemsFactory {\r\n  \r\n  function get1() public returns (uint){\r\n  \treturn 1;\r\n  }\r\n}\r\n",
  "sourcePath": "C:/Users/fboud/OneDrive/Documents/Alyra/projetFinal/contracts/itemsFactory.sol",
  "compiler": {
    "name": "solc",
    "version": "0.7.6+commit.7338295f.Emscripten.clang"
  },
  "schemaVersion": "3.4.1",
  "updatedAt": "2021-07-18T11:07:24.945Z",
  "devdoc": {
    "kind": "dev",
    "methods": {},
    "version": 1
  },
  "userdoc": {
    "kind": "user",
    "methods": {},
    "notice": "The itemsFactory contract does this and that...",
    "version": 1
  }
}