{
  "contractName": "itemsFactory",
  "abi": [
    {
      "inputs": [],
      "stateMutability": "nonpayable",
      "type": "constructor"
    },
    {
      "anonymous": false,
      "inputs": [
        {
          "indexed": true,
          "internalType": "address",
          "name": "owner",
          "type": "address"
        },
        {
          "indexed": true,
          "internalType": "address",
          "name": "approved",
          "type": "address"
        },
        {
          "indexed": true,
          "internalType": "uint256",
          "name": "tokenId",
          "type": "uint256"
        }
      ],
      "name": "Approval",
      "type": "event"
    },
    {
      "anonymous": false,
      "inputs": [
        {
          "indexed": true,
          "internalType": "address",
          "name": "owner",
          "type": "address"
        },
        {
          "indexed": true,
          "internalType": "address",
          "name": "operator",
          "type": "address"
        },
        {
          "indexed": false,
          "internalType": "bool",
          "name": "approved",
          "type": "bool"
        }
      ],
      "name": "ApprovalForAll",
      "type": "event"
    },
    {
      "anonymous": false,
      "inputs": [
        {
          "indexed": true,
          "internalType": "address",
          "name": "previousOwner",
          "type": "address"
        },
        {
          "indexed": true,
          "internalType": "address",
          "name": "newOwner",
          "type": "address"
        }
      ],
      "name": "OwnershipTransferred",
      "type": "event"
    },
    {
      "anonymous": false,
      "inputs": [
        {
          "indexed": true,
          "internalType": "address",
          "name": "from",
          "type": "address"
        },
        {
          "indexed": true,
          "internalType": "address",
          "name": "to",
          "type": "address"
        },
        {
          "indexed": true,
          "internalType": "uint256",
          "name": "tokenId",
          "type": "uint256"
        }
      ],
      "name": "Transfer",
      "type": "event"
    },
    {
      "inputs": [
        {
          "internalType": "address",
          "name": "to",
          "type": "address"
        },
        {
          "internalType": "uint256",
          "name": "tokenId",
          "type": "uint256"
        }
      ],
      "name": "approve",
      "outputs": [],
      "stateMutability": "nonpayable",
      "type": "function"
    },
    {
      "inputs": [
        {
          "internalType": "address",
          "name": "owner",
          "type": "address"
        }
      ],
      "name": "balanceOf",
      "outputs": [
        {
          "internalType": "uint256",
          "name": "",
          "type": "uint256"
        }
      ],
      "stateMutability": "view",
      "type": "function"
    },
    {
      "inputs": [
        {
          "internalType": "uint256",
          "name": "tokenId",
          "type": "uint256"
        }
      ],
      "name": "getApproved",
      "outputs": [
        {
          "internalType": "address",
          "name": "",
          "type": "address"
        }
      ],
      "stateMutability": "view",
      "type": "function"
    },
    {
      "inputs": [
        {
          "internalType": "address",
          "name": "owner",
          "type": "address"
        },
        {
          "internalType": "address",
          "name": "operator",
          "type": "address"
        }
      ],
      "name": "isApprovedForAll",
      "outputs": [
        {
          "internalType": "bool",
          "name": "",
          "type": "bool"
        }
      ],
      "stateMutability": "view",
      "type": "function"
    },
    {
      "inputs": [
        {
          "internalType": "uint256",
          "name": "",
          "type": "uint256"
        }
      ],
      "name": "items",
      "outputs": [
        {
          "internalType": "string",
          "name": "name",
          "type": "string"
        },
        {
          "internalType": "uint256",
          "name": "composition",
          "type": "uint256"
        }
      ],
      "stateMutability": "view",
      "type": "function"
    },
    {
      "inputs": [],
      "name": "name",
      "outputs": [
        {
          "internalType": "string",
          "name": "",
          "type": "string"
        }
      ],
      "stateMutability": "view",
      "type": "function"
    },
    {
      "inputs": [],
      "name": "owner",
      "outputs": [
        {
          "internalType": "address",
          "name": "",
          "type": "address"
        }
      ],
      "stateMutability": "view",
      "type": "function"
    },
    {
      "inputs": [
        {
          "internalType": "uint256",
          "name": "tokenId",
          "type": "uint256"
        }
      ],
      "name": "ownerOf",
      "outputs": [
        {
          "internalType": "address",
          "name": "",
          "type": "address"
        }
      ],
      "stateMutability": "view",
      "type": "function"
    },
    {
      "inputs": [],
      "name": "renounceOwnership",
      "outputs": [],
      "stateMutability": "nonpayable",
      "type": "function"
    },
    {
      "inputs": [
        {
          "internalType": "address",
          "name": "from",
          "type": "address"
        },
        {
          "internalType": "address",
          "name": "to",
          "type": "address"
        },
        {
          "internalType": "uint256",
          "name": "tokenId",
          "type": "uint256"
        }
      ],
      "name": "safeTransferFrom",
      "outputs": [],
      "stateMutability": "nonpayable",
      "type": "function"
    },
    {
      "inputs": [
        {
          "internalType": "address",
          "name": "from",
          "type": "address"
        },
        {
          "internalType": "address",
          "name": "to",
          "type": "address"
        },
        {
          "internalType": "uint256",
          "name": "tokenId",
          "type": "uint256"
        },
        {
          "internalType": "bytes",
          "name": "_data",
          "type": "bytes"
        }
      ],
      "name": "safeTransferFrom",
      "outputs": [],
      "stateMutability": "nonpayable",
      "type": "function"
    },
    {
      "inputs": [
        {
          "internalType": "address",
          "name": "operator",
          "type": "address"
        },
        {
          "internalType": "bool",
          "name": "approved",
          "type": "bool"
        }
      ],
      "name": "setApprovalForAll",
      "outputs": [],
      "stateMutability": "nonpayable",
      "type": "function"
    },
    {
      "inputs": [
        {
          "internalType": "bytes4",
          "name": "interfaceId",
          "type": "bytes4"
        }
      ],
      "name": "supportsInterface",
      "outputs": [
        {
          "internalType": "bool",
          "name": "",
          "type": "bool"
        }
      ],
      "stateMutability": "view",
      "type": "function"
    },
    {
      "inputs": [],
      "name": "symbol",
      "outputs": [
        {
          "internalType": "string",
          "name": "",
          "type": "string"
        }
      ],
      "stateMutability": "view",
      "type": "function"
    },
    {
      "inputs": [
        {
          "internalType": "uint256",
          "name": "tokenId",
          "type": "uint256"
        }
      ],
      "name": "tokenURI",
      "outputs": [
        {
          "internalType": "string",
          "name": "",
          "type": "string"
        }
      ],
      "stateMutability": "view",
      "type": "function"
    },
    {
      "inputs": [
        {
          "internalType": "address",
          "name": "from",
          "type": "address"
        },
        {
          "internalType": "address",
          "name": "to",
          "type": "address"
        },
        {
          "internalType": "uint256",
          "name": "tokenId",
          "type": "uint256"
        }
      ],
      "name": "transferFrom",
      "outputs": [],
      "stateMutability": "nonpayable",
      "type": "function"
    },
    {
      "inputs": [
        {
          "internalType": "address",
          "name": "newOwner",
          "type": "address"
        }
      ],
      "name": "transferOwnership",
      "outputs": [],
      "stateMutability": "nonpayable",
      "type": "function"
    },
    {
      "inputs": [
        {
          "internalType": "string",
          "name": "_name",
          "type": "string"
        }
      ],
      "name": "createItem",
      "outputs": [],
      "stateMutability": "nonpayable",
      "type": "function"
    }
  ],
  "bytecode": "0x60806040526040518060400160405280600881526020017f4d6f6e756d656e74000000000000000000000000000000000000000000000000815250600790805190602001906200005192919062000290565b506040518060400160405280600881526020017f4d6174657269616c000000000000000000000000000000000000000000000000815250600890805190602001906200009f92919062000290565b506040518060400160405280600481526020017f436172640000000000000000000000000000000000000000000000000000000081525060099080519060200190620000ed92919062000290565b50348015620000fb57600080fd5b506040518060400160405280600881526020017f506f774974656d730000000000000000000000000000000000000000000000008152506040518060400160405280600381526020017f504f57000000000000000000000000000000000000000000000000000000000081525081600090805190602001906200018092919062000290565b5080600190805190602001906200019992919062000290565b505050620001bc620001b0620001c260201b60201c565b620001ca60201b60201c565b620003a5565b600033905090565b6000600660009054906101000a900473ffffffffffffffffffffffffffffffffffffffff16905081600660006101000a81548173ffffffffffffffffffffffffffffffffffffffff021916908373ffffffffffffffffffffffffffffffffffffffff1602179055508173ffffffffffffffffffffffffffffffffffffffff168173ffffffffffffffffffffffffffffffffffffffff167f8be0079c531659141344cd1fd0a4f28419497f9722a3daafe3b4186f6b6457e060405160405180910390a35050565b8280546200029e9062000340565b90600052602060002090601f016020900481019282620002c257600085556200030e565b82601f10620002dd57805160ff19168380011785556200030e565b828001600101855582156200030e579182015b828111156200030d578251825591602001919060010190620002f0565b5b5090506200031d919062000321565b5090565b5b808211156200033c57600081600090555060010162000322565b5090565b600060028204905060018216806200035957607f821691505b6020821081141562000370576200036f62000376565b5b50919050565b7f4e487b7100000000000000000000000000000000000000000000000000000000600052602260045260246000fd5b612e7180620003b56000396000f3fe608060405234801561001057600080fd5b50600436106101165760003560e01c8063715018a6116100a2578063b88d4fde11610071578063b88d4fde146102cb578063bfb231d2146102e7578063c87b56dd14610318578063e985e9c514610348578063f2fde38b1461037857610116565b8063715018a6146102695780638da5cb5b1461027357806395d89b4114610291578063a22cb465146102af57610116565b806323b872dd116100e957806323b872dd146101b55780633d54eebb146101d157806342842e0e146101ed5780636352211e1461020957806370a082311461023957610116565b806301ffc9a71461011b57806306fdde031461014b578063081812fc14610169578063095ea7b314610199575b600080fd5b61013560048036038101906101309190611ed3565b610394565b604051610142919061231a565b60405180910390f35b610153610476565b6040516101609190612335565b60405180910390f35b610183600480360381019061017e9190611f66565b610508565b60405161019091906122b3565b60405180910390f35b6101b360048036038101906101ae9190611e97565b61058d565b005b6101cf60048036038101906101ca9190611d91565b6106a5565b005b6101eb60048036038101906101e69190611f25565b610705565b005b61020760048036038101906102029190611d91565b610803565b005b610223600480360381019061021e9190611f66565b610823565b60405161023091906122b3565b60405180910390f35b610253600480360381019061024e9190611d2c565b6108d5565b6040516102609190612587565b60405180910390f35b61027161098d565b005b61027b610a15565b60405161028891906122b3565b60405180910390f35b610299610a3f565b6040516102a69190612335565b60405180910390f35b6102c960048036038101906102c49190611e5b565b610ad1565b005b6102e560048036038101906102e09190611de0565b610c52565b005b61030160048036038101906102fc9190611f66565b610cb4565b60405161030f929190612357565b60405180910390f35b610332600480360381019061032d9190611f66565b610d70565b60405161033f9190612335565b60405180910390f35b610362600480360381019061035d9190611d55565b610e17565b60405161036f919061231a565b60405180910390f35b610392600480360381019061038d9190611d2c565b610eab565b005b60007f80ac58cd000000000000000000000000000000000000000000000000000000007bffffffffffffffffffffffffffffffffffffffffffffffffffffffff1916827bffffffffffffffffffffffffffffffffffffffffffffffffffffffff1916148061045f57507f5b5e139f000000000000000000000000000000000000000000000000000000007bffffffffffffffffffffffffffffffffffffffffffffffffffffffff1916827bffffffffffffffffffffffffffffffffffffffffffffffffffffffff1916145b8061046f575061046e82610fa3565b5b9050919050565b606060008054610485906127dd565b80601f01602080910402602001604051908101604052809291908181526020018280546104b1906127dd565b80156104fe5780601f106104d3576101008083540402835291602001916104fe565b820191906000526020600020905b8154815290600101906020018083116104e157829003601f168201915b5050505050905090565b60006105138261100d565b610552576040517f08c379a0000000000000000000000000000000000000000000000000000000008152600401610549906124c7565b60405180910390fd5b6004600083815260200190815260200160002060009054906101000a900473ffffffffffffffffffffffffffffffffffffffff169050919050565b600061059882610823565b90508073ffffffffffffffffffffffffffffffffffffffff168373ffffffffffffffffffffffffffffffffffffffff161415610609576040517f08c379a000000000000000000000000000000000000000000000000000000000815260040161060090612547565b60405180910390fd5b8073ffffffffffffffffffffffffffffffffffffffff16610628611079565b73ffffffffffffffffffffffffffffffffffffffff161480610657575061065681610651611079565b610e17565b5b610696576040517f08c379a000000000000000000000000000000000000000000000000000000000815260040161068d90612447565b60405180910390fd5b6106a08383611081565b505050565b6106b66106b0611079565b8261113a565b6106f5576040517f08c379a00000000000000000000000000000000000000000000000000000000081526004016106ec90612567565b60405180910390fd5b610700838383611218565b505050565b61070d611079565b73ffffffffffffffffffffffffffffffffffffffff1661072b610a15565b73ffffffffffffffffffffffffffffffffffffffff1614610781576040517f08c379a0000000000000000000000000000000000000000000000000000000008152600401610778906124e7565b60405180910390fd5b6000600a805490509050600a60405180604001604052808481526020016001815250908060018154018082558091505060019003906000526020600020906002020160009091909190915060008201518160000190805190602001906107e8929190611b50565b506020820151816001015550506107ff3382611474565b5050565b61081e83838360405180602001604052806000815250610c52565b505050565b6000806002600084815260200190815260200160002060009054906101000a900473ffffffffffffffffffffffffffffffffffffffff169050600073ffffffffffffffffffffffffffffffffffffffff168173ffffffffffffffffffffffffffffffffffffffff1614156108cc576040517f08c379a00000000000000000000000000000000000000000000000000000000081526004016108c390612487565b60405180910390fd5b80915050919050565b60008073ffffffffffffffffffffffffffffffffffffffff168273ffffffffffffffffffffffffffffffffffffffff161415610946576040517f08c379a000000000000000000000000000000000000000000000000000000000815260040161093d90612467565b60405180910390fd5b600360008373ffffffffffffffffffffffffffffffffffffffff1673ffffffffffffffffffffffffffffffffffffffff168152602001908152602001600020549050919050565b610995611079565b73ffffffffffffffffffffffffffffffffffffffff166109b3610a15565b73ffffffffffffffffffffffffffffffffffffffff1614610a09576040517f08c379a0000000000000000000000000000000000000000000000000000000008152600401610a00906124e7565b60405180910390fd5b610a136000611492565b565b6000600660009054906101000a900473ffffffffffffffffffffffffffffffffffffffff16905090565b606060018054610a4e906127dd565b80601f0160208091040260200160405190810160405280929190818152602001828054610a7a906127dd565b8015610ac75780601f10610a9c57610100808354040283529160200191610ac7565b820191906000526020600020905b815481529060010190602001808311610aaa57829003601f168201915b5050505050905090565b610ad9611079565b73ffffffffffffffffffffffffffffffffffffffff168273ffffffffffffffffffffffffffffffffffffffff161415610b47576040517f08c379a0000000000000000000000000000000000000000000000000000000008152600401610b3e90612407565b60405180910390fd5b8060056000610b54611079565b73ffffffffffffffffffffffffffffffffffffffff1673ffffffffffffffffffffffffffffffffffffffff16815260200190815260200160002060008473ffffffffffffffffffffffffffffffffffffffff1673ffffffffffffffffffffffffffffffffffffffff16815260200190815260200160002060006101000a81548160ff0219169083151502179055508173ffffffffffffffffffffffffffffffffffffffff16610c01611079565b73ffffffffffffffffffffffffffffffffffffffff167f17307eab39ab6107e8899845ad3d59bd9653f200f220920489ca2b5937696c3183604051610c46919061231a565b60405180910390a35050565b610c63610c5d611079565b8361113a565b610ca2576040517f08c379a0000000000000000000000000000000000000000000000000000000008152600401610c9990612567565b60405180910390fd5b610cae84848484611558565b50505050565b600a8181548110610cc457600080fd5b9060005260206000209060020201600091509050806000018054610ce7906127dd565b80601f0160208091040260200160405190810160405280929190818152602001828054610d13906127dd565b8015610d605780601f10610d3557610100808354040283529160200191610d60565b820191906000526020600020905b815481529060010190602001808311610d4357829003601f168201915b5050505050908060010154905082565b6060610d7b8261100d565b610dba576040517f08c379a0000000000000000000000000000000000000000000000000000000008152600401610db190612527565b60405180910390fd5b6000610dc46115b4565b90506000815111610de45760405180602001604052806000815250610e0f565b80610dee846115cb565b604051602001610dff92919061228f565b6040516020818303038152906040525b915050919050565b6000600560008473ffffffffffffffffffffffffffffffffffffffff1673ffffffffffffffffffffffffffffffffffffffff16815260200190815260200160002060008373ffffffffffffffffffffffffffffffffffffffff1673ffffffffffffffffffffffffffffffffffffffff16815260200190815260200160002060009054906101000a900460ff16905092915050565b610eb3611079565b73ffffffffffffffffffffffffffffffffffffffff16610ed1610a15565b73ffffffffffffffffffffffffffffffffffffffff1614610f27576040517f08c379a0000000000000000000000000000000000000000000000000000000008152600401610f1e906124e7565b60405180910390fd5b600073ffffffffffffffffffffffffffffffffffffffff168173ffffffffffffffffffffffffffffffffffffffff161415610f97576040517f08c379a0000000000000000000000000000000000000000000000000000000008152600401610f8e906123a7565b60405180910390fd5b610fa081611492565b50565b60007f01ffc9a7000000000000000000000000000000000000000000000000000000007bffffffffffffffffffffffffffffffffffffffffffffffffffffffff1916827bffffffffffffffffffffffffffffffffffffffffffffffffffffffff1916149050919050565b60008073ffffffffffffffffffffffffffffffffffffffff166002600084815260200190815260200160002060009054906101000a900473ffffffffffffffffffffffffffffffffffffffff1673ffffffffffffffffffffffffffffffffffffffff1614159050919050565b600033905090565b816004600083815260200190815260200160002060006101000a81548173ffffffffffffffffffffffffffffffffffffffff021916908373ffffffffffffffffffffffffffffffffffffffff160217905550808273ffffffffffffffffffffffffffffffffffffffff166110f483610823565b73ffffffffffffffffffffffffffffffffffffffff167f8c5be1e5ebec7d5bd14f71427d1e84f3dd0314c0f7b2291e5b200ac8c7c3b92560405160405180910390a45050565b60006111458261100d565b611184576040517f08c379a000000000000000000000000000000000000000000000000000000000815260040161117b90612427565b60405180910390fd5b600061118f83610823565b90508073ffffffffffffffffffffffffffffffffffffffff168473ffffffffffffffffffffffffffffffffffffffff1614806111fe57508373ffffffffffffffffffffffffffffffffffffffff166111e684610508565b73ffffffffffffffffffffffffffffffffffffffff16145b8061120f575061120e8185610e17565b5b91505092915050565b8273ffffffffffffffffffffffffffffffffffffffff1661123882610823565b73ffffffffffffffffffffffffffffffffffffffff161461128e576040517f08c379a000000000000000000000000000000000000000000000000000000000815260040161128590612507565b60405180910390fd5b600073ffffffffffffffffffffffffffffffffffffffff168273ffffffffffffffffffffffffffffffffffffffff1614156112fe576040517f08c379a00000000000000000000000000000000000000000000000000000000081526004016112f5906123e7565b60405180910390fd5b611309838383611778565b611314600082611081565b6001600360008573ffffffffffffffffffffffffffffffffffffffff1673ffffffffffffffffffffffffffffffffffffffff168152602001908152602001600020600082825461136491906126f3565b925050819055506001600360008473ffffffffffffffffffffffffffffffffffffffff1673ffffffffffffffffffffffffffffffffffffffff16815260200190815260200160002060008282546113bb919061266c565b92505081905550816002600083815260200190815260200160002060006101000a81548173ffffffffffffffffffffffffffffffffffffffff021916908373ffffffffffffffffffffffffffffffffffffffff160217905550808273ffffffffffffffffffffffffffffffffffffffff168473ffffffffffffffffffffffffffffffffffffffff167fddf252ad1be2c89b69c2b068fc378daa952ba7f163c4a11628f55a4df523b3ef60405160405180910390a4505050565b61148e82826040518060200160405280600081525061177d565b5050565b6000600660009054906101000a900473ffffffffffffffffffffffffffffffffffffffff16905081600660006101000a81548173ffffffffffffffffffffffffffffffffffffffff021916908373ffffffffffffffffffffffffffffffffffffffff1602179055508173ffffffffffffffffffffffffffffffffffffffff168173ffffffffffffffffffffffffffffffffffffffff167f8be0079c531659141344cd1fd0a4f28419497f9722a3daafe3b4186f6b6457e060405160405180910390a35050565b611563848484611218565b61156f848484846117d8565b6115ae576040517f08c379a00000000000000000000000000000000000000000000000000000000081526004016115a590612387565b60405180910390fd5b50505050565b606060405180602001604052806000815250905090565b60606000821415611613576040518060400160405280600181526020017f30000000000000000000000000000000000000000000000000000000000000008152509050611773565b600082905060005b6000821461164557808061162e90612840565b915050600a8261163e91906126c2565b915061161b565b60008167ffffffffffffffff811115611687577f4e487b7100000000000000000000000000000000000000000000000000000000600052604160045260246000fd5b6040519080825280601f01601f1916602001820160405280156116b95781602001600182028036833780820191505090505b5090505b6000851461176c576001826116d291906126f3565b9150600a856116e19190612889565b60306116ed919061266c565b60f81b818381518110611729577f4e487b7100000000000000000000000000000000000000000000000000000000600052603260045260246000fd5b60200101907effffffffffffffffffffffffffffffffffffffffffffffffffffffffffffff1916908160001a905350600a8561176591906126c2565b94506116bd565b8093505050505b919050565b505050565b611787838361196f565b61179460008484846117d8565b6117d3576040517f08c379a00000000000000000000000000000000000000000000000000000000081526004016117ca90612387565b60405180910390fd5b505050565b60006117f98473ffffffffffffffffffffffffffffffffffffffff16611b3d565b15611962578373ffffffffffffffffffffffffffffffffffffffff1663150b7a02611822611079565b8786866040518563ffffffff1660e01b815260040161184494939291906122ce565b602060405180830381600087803b15801561185e57600080fd5b505af192505050801561188f57506040513d601f19601f8201168201806040525081019061188c9190611efc565b60015b611912573d80600081146118bf576040519150601f19603f3d011682016040523d82523d6000602084013e6118c4565b606091505b5060008151141561190a576040517f08c379a000000000000000000000000000000000000000000000000000000000815260040161190190612387565b60405180910390fd5b805181602001fd5b63150b7a0260e01b7bffffffffffffffffffffffffffffffffffffffffffffffffffffffff1916817bffffffffffffffffffffffffffffffffffffffffffffffffffffffff191614915050611967565b600190505b949350505050565b600073ffffffffffffffffffffffffffffffffffffffff168273ffffffffffffffffffffffffffffffffffffffff1614156119df576040517f08c379a00000000000000000000000000000000000000000000000000000000081526004016119d6906124a7565b60405180910390fd5b6119e88161100d565b15611a28576040517f08c379a0000000000000000000000000000000000000000000000000000000008152600401611a1f906123c7565b60405180910390fd5b611a3460008383611778565b6001600360008473ffffffffffffffffffffffffffffffffffffffff1673ffffffffffffffffffffffffffffffffffffffff1681526020019081526020016000206000828254611a84919061266c565b92505081905550816002600083815260200190815260200160002060006101000a81548173ffffffffffffffffffffffffffffffffffffffff021916908373ffffffffffffffffffffffffffffffffffffffff160217905550808273ffffffffffffffffffffffffffffffffffffffff16600073ffffffffffffffffffffffffffffffffffffffff167fddf252ad1be2c89b69c2b068fc378daa952ba7f163c4a11628f55a4df523b3ef60405160405180910390a45050565b600080823b905060008111915050919050565b828054611b5c906127dd565b90600052602060002090601f016020900481019282611b7e5760008555611bc5565b82601f10611b9757805160ff1916838001178555611bc5565b82800160010185558215611bc5579182015b82811115611bc4578251825591602001919060010190611ba9565b5b509050611bd29190611bd6565b5090565b5b80821115611bef576000816000905550600101611bd7565b5090565b6000611c06611c01846125c7565b6125a2565b905082815260208101848484011115611c1e57600080fd5b611c2984828561279b565b509392505050565b6000611c44611c3f846125f8565b6125a2565b905082815260208101848484011115611c5c57600080fd5b611c6784828561279b565b509392505050565b600081359050611c7e81612ddf565b92915050565b600081359050611c9381612df6565b92915050565b600081359050611ca881612e0d565b92915050565b600081519050611cbd81612e0d565b92915050565b600082601f830112611cd457600080fd5b8135611ce4848260208601611bf3565b91505092915050565b600082601f830112611cfe57600080fd5b8135611d0e848260208601611c31565b91505092915050565b600081359050611d2681612e24565b92915050565b600060208284031215611d3e57600080fd5b6000611d4c84828501611c6f565b91505092915050565b60008060408385031215611d6857600080fd5b6000611d7685828601611c6f565b9250506020611d8785828601611c6f565b9150509250929050565b600080600060608486031215611da657600080fd5b6000611db486828701611c6f565b9350506020611dc586828701611c6f565b9250506040611dd686828701611d17565b9150509250925092565b60008060008060808587031215611df657600080fd5b6000611e0487828801611c6f565b9450506020611e1587828801611c6f565b9350506040611e2687828801611d17565b925050606085013567ffffffffffffffff811115611e4357600080fd5b611e4f87828801611cc3565b91505092959194509250565b60008060408385031215611e6e57600080fd5b6000611e7c85828601611c6f565b9250506020611e8d85828601611c84565b9150509250929050565b60008060408385031215611eaa57600080fd5b6000611eb885828601611c6f565b9250506020611ec985828601611d17565b9150509250929050565b600060208284031215611ee557600080fd5b6000611ef384828501611c99565b91505092915050565b600060208284031215611f0e57600080fd5b6000611f1c84828501611cae565b91505092915050565b600060208284031215611f3757600080fd5b600082013567ffffffffffffffff811115611f5157600080fd5b611f5d84828501611ced565b91505092915050565b600060208284031215611f7857600080fd5b6000611f8684828501611d17565b91505092915050565b611f9881612727565b82525050565b611fa781612739565b82525050565b6000611fb882612629565b611fc2818561263f565b9350611fd28185602086016127aa565b611fdb81612976565b840191505092915050565b6000611ff182612634565b611ffb8185612650565b935061200b8185602086016127aa565b61201481612976565b840191505092915050565b600061202a82612634565b6120348185612661565b93506120448185602086016127aa565b80840191505092915050565b600061205d603283612650565b915061206882612987565b604082019050919050565b6000612080602683612650565b915061208b826129d6565b604082019050919050565b60006120a3601c83612650565b91506120ae82612a25565b602082019050919050565b60006120c6602483612650565b91506120d182612a4e565b604082019050919050565b60006120e9601983612650565b91506120f482612a9d565b602082019050919050565b600061210c602c83612650565b915061211782612ac6565b604082019050919050565b600061212f603883612650565b915061213a82612b15565b604082019050919050565b6000612152602a83612650565b915061215d82612b64565b604082019050919050565b6000612175602983612650565b915061218082612bb3565b604082019050919050565b6000612198602083612650565b91506121a382612c02565b602082019050919050565b60006121bb602c83612650565b91506121c682612c2b565b604082019050919050565b60006121de602083612650565b91506121e982612c7a565b602082019050919050565b6000612201602983612650565b915061220c82612ca3565b604082019050919050565b6000612224602f83612650565b915061222f82612cf2565b604082019050919050565b6000612247602183612650565b915061225282612d41565b604082019050919050565b600061226a603183612650565b915061227582612d90565b604082019050919050565b61228981612791565b82525050565b600061229b828561201f565b91506122a7828461201f565b91508190509392505050565b60006020820190506122c86000830184611f8f565b92915050565b60006080820190506122e36000830187611f8f565b6122f06020830186611f8f565b6122fd6040830185612280565b818103606083015261230f8184611fad565b905095945050505050565b600060208201905061232f6000830184611f9e565b92915050565b6000602082019050818103600083015261234f8184611fe6565b905092915050565b600060408201905081810360008301526123718185611fe6565b90506123806020830184612280565b9392505050565b600060208201905081810360008301526123a081612050565b9050919050565b600060208201905081810360008301526123c081612073565b9050919050565b600060208201905081810360008301526123e081612096565b9050919050565b60006020820190508181036000830152612400816120b9565b9050919050565b60006020820190508181036000830152612420816120dc565b9050919050565b60006020820190508181036000830152612440816120ff565b9050919050565b6000602082019050818103600083015261246081612122565b9050919050565b6000602082019050818103600083015261248081612145565b9050919050565b600060208201905081810360008301526124a081612168565b9050919050565b600060208201905081810360008301526124c08161218b565b9050919050565b600060208201905081810360008301526124e0816121ae565b9050919050565b60006020820190508181036000830152612500816121d1565b9050919050565b60006020820190508181036000830152612520816121f4565b9050919050565b6000602082019050818103600083015261254081612217565b9050919050565b600060208201905081810360008301526125608161223a565b9050919050565b600060208201905081810360008301526125808161225d565b9050919050565b600060208201905061259c6000830184612280565b92915050565b60006125ac6125bd565b90506125b8828261280f565b919050565b6000604051905090565b600067ffffffffffffffff8211156125e2576125e1612947565b5b6125eb82612976565b9050602081019050919050565b600067ffffffffffffffff82111561261357612612612947565b5b61261c82612976565b9050602081019050919050565b600081519050919050565b600081519050919050565b600082825260208201905092915050565b600082825260208201905092915050565b600081905092915050565b600061267782612791565b915061268283612791565b9250827fffffffffffffffffffffffffffffffffffffffffffffffffffffffffffffffff038211156126b7576126b66128ba565b5b828201905092915050565b60006126cd82612791565b91506126d883612791565b9250826126e8576126e76128e9565b5b828204905092915050565b60006126fe82612791565b915061270983612791565b92508282101561271c5761271b6128ba565b5b828203905092915050565b600061273282612771565b9050919050565b60008115159050919050565b60007fffffffff0000000000000000000000000000000000000000000000000000000082169050919050565b600073ffffffffffffffffffffffffffffffffffffffff82169050919050565b6000819050919050565b82818337600083830152505050565b60005b838110156127c85780820151818401526020810190506127ad565b838111156127d7576000848401525b50505050565b600060028204905060018216806127f557607f821691505b6020821081141561280957612808612918565b5b50919050565b61281882612976565b810181811067ffffffffffffffff8211171561283757612836612947565b5b80604052505050565b600061284b82612791565b91507fffffffffffffffffffffffffffffffffffffffffffffffffffffffffffffffff82141561287e5761287d6128ba565b5b600182019050919050565b600061289482612791565b915061289f83612791565b9250826128af576128ae6128e9565b5b828206905092915050565b7f4e487b7100000000000000000000000000000000000000000000000000000000600052601160045260246000fd5b7f4e487b7100000000000000000000000000000000000000000000000000000000600052601260045260246000fd5b7f4e487b7100000000000000000000000000000000000000000000000000000000600052602260045260246000fd5b7f4e487b7100000000000000000000000000000000000000000000000000000000600052604160045260246000fd5b6000601f19601f8301169050919050565b7f4552433732313a207472616e7366657220746f206e6f6e20455243373231526560008201527f63656976657220696d706c656d656e7465720000000000000000000000000000602082015250565b7f4f776e61626c653a206e6577206f776e657220697320746865207a65726f206160008201527f6464726573730000000000000000000000000000000000000000000000000000602082015250565b7f4552433732313a20746f6b656e20616c7265616479206d696e74656400000000600082015250565b7f4552433732313a207472616e7366657220746f20746865207a65726f2061646460008201527f7265737300000000000000000000000000000000000000000000000000000000602082015250565b7f4552433732313a20617070726f766520746f2063616c6c657200000000000000600082015250565b7f4552433732313a206f70657261746f7220717565727920666f72206e6f6e657860008201527f697374656e7420746f6b656e0000000000000000000000000000000000000000602082015250565b7f4552433732313a20617070726f76652063616c6c6572206973206e6f74206f7760008201527f6e6572206e6f7220617070726f76656420666f7220616c6c0000000000000000602082015250565b7f4552433732313a2062616c616e636520717565727920666f7220746865207a6560008201527f726f206164647265737300000000000000000000000000000000000000000000602082015250565b7f4552433732313a206f776e657220717565727920666f72206e6f6e657869737460008201527f656e7420746f6b656e0000000000000000000000000000000000000000000000602082015250565b7f4552433732313a206d696e7420746f20746865207a65726f2061646472657373600082015250565b7f4552433732313a20617070726f76656420717565727920666f72206e6f6e657860008201527f697374656e7420746f6b656e0000000000000000000000000000000000000000602082015250565b7f4f776e61626c653a2063616c6c6572206973206e6f7420746865206f776e6572600082015250565b7f4552433732313a207472616e73666572206f6620746f6b656e2074686174206960008201527f73206e6f74206f776e0000000000000000000000000000000000000000000000602082015250565b7f4552433732314d657461646174613a2055524920717565727920666f72206e6f60008201527f6e6578697374656e7420746f6b656e0000000000000000000000000000000000602082015250565b7f4552433732313a20617070726f76616c20746f2063757272656e74206f776e6560008201527f7200000000000000000000000000000000000000000000000000000000000000602082015250565b7f4552433732313a207472616e736665722063616c6c6572206973206e6f74206f60008201527f776e6572206e6f7220617070726f766564000000000000000000000000000000602082015250565b612de881612727565b8114612df357600080fd5b50565b612dff81612739565b8114612e0a57600080fd5b50565b612e1681612745565b8114612e2157600080fd5b50565b612e2d81612791565b8114612e3857600080fd5b5056fea26469706673582212201d72fcd7dd5f532c6f4112062c23fc6dd275261e1bf16acfb0ad9ab7ef69ff2664736f6c63430008010033",
  "immutableReferences": {},
  "source": "// SPDX-License-Identifier: GPL-3.0\r\n\r\npragma solidity 0.8.1;\r\n\r\nimport \"@openzeppelin/openzeppelin-contracts-master/contracts/token/ERC721/ERC721.sol\";\r\nimport \"@openzeppelin/openzeppelin-contracts-master/contracts/access/Ownable.sol\";\r\n\r\n\r\n/**\r\n * The itemsFactory contract does this and that...\r\n */\r\ncontract itemsFactory is ERC721, Ownable {\r\n  \r\n  constructor () ERC721(\"PowItems\",\"POW\"){}\r\n\r\n  string _monument = \"Monument\";\r\n  string _material = \"Material\";\r\n  string _card = \"Card\";\r\n\r\n\r\n  struct Item{\r\n  \tstring name;\r\n  \tuint composition;\r\n  }\r\n\r\n  Item[] public items;\r\n\r\n\r\n  function createItem(string memory _name) public onlyOwner {\r\n    uint id = items.length;\r\n  \titems.push(Item(_name,1));\r\n  \t_safeMint(msg.sender,id);\r\n\r\n  }\r\n  \r\n}\r\n",
  "sourcePath": "C:/Users/fboud/OneDrive/Documents/Alyra/projetFinal/contracts/itemsFactory.sol",
  "compiler": {
    "name": "solc",
    "version": "0.8.1+commit.df193b15.Emscripten.clang"
  },
  "schemaVersion": "3.4.1",
  "updatedAt": "2021-07-19T19:28:14.543Z",
  "devdoc": {
    "kind": "dev",
    "methods": {
      "approve(address,uint256)": {
        "details": "See {IERC721-approve}."
      },
      "balanceOf(address)": {
        "details": "See {IERC721-balanceOf}."
      },
      "getApproved(uint256)": {
        "details": "See {IERC721-getApproved}."
      },
      "isApprovedForAll(address,address)": {
        "details": "See {IERC721-isApprovedForAll}."
      },
      "name()": {
        "details": "See {IERC721Metadata-name}."
      },
      "owner()": {
        "details": "Returns the address of the current owner."
      },
      "ownerOf(uint256)": {
        "details": "See {IERC721-ownerOf}."
      },
      "renounceOwnership()": {
        "details": "Leaves the contract without owner. It will not be possible to call `onlyOwner` functions anymore. Can only be called by the current owner. NOTE: Renouncing ownership will leave the contract without an owner, thereby removing any functionality that is only available to the owner."
      },
      "safeTransferFrom(address,address,uint256)": {
        "details": "See {IERC721-safeTransferFrom}."
      },
      "safeTransferFrom(address,address,uint256,bytes)": {
        "details": "See {IERC721-safeTransferFrom}."
      },
      "setApprovalForAll(address,bool)": {
        "details": "See {IERC721-setApprovalForAll}."
      },
      "supportsInterface(bytes4)": {
        "details": "See {IERC165-supportsInterface}."
      },
      "symbol()": {
        "details": "See {IERC721Metadata-symbol}."
      },
      "tokenURI(uint256)": {
        "details": "See {IERC721Metadata-tokenURI}."
      },
      "transferFrom(address,address,uint256)": {
        "details": "See {IERC721-transferFrom}."
      },
      "transferOwnership(address)": {
        "details": "Transfers ownership of the contract to a new account (`newOwner`). Can only be called by the current owner."
      }
    },
    "version": 1
  },
  "userdoc": {
    "kind": "user",
    "methods": {},
    "notice": "The itemsFactory contract does this and that...",
    "version": 1
  }
}