{
  "contractName": "itemsFactory",
  "abi": [
    {
      "inputs": [],
      "stateMutability": "nonpayable",
      "type": "constructor"
    },
    {
      "anonymous": false,
      "inputs": [
        {
          "indexed": true,
          "internalType": "address",
          "name": "owner",
          "type": "address"
        },
        {
          "indexed": true,
          "internalType": "address",
          "name": "approved",
          "type": "address"
        },
        {
          "indexed": true,
          "internalType": "uint256",
          "name": "tokenId",
          "type": "uint256"
        }
      ],
      "name": "Approval",
      "type": "event"
    },
    {
      "anonymous": false,
      "inputs": [
        {
          "indexed": true,
          "internalType": "address",
          "name": "owner",
          "type": "address"
        },
        {
          "indexed": true,
          "internalType": "address",
          "name": "operator",
          "type": "address"
        },
        {
          "indexed": false,
          "internalType": "bool",
          "name": "approved",
          "type": "bool"
        }
      ],
      "name": "ApprovalForAll",
      "type": "event"
    },
    {
      "anonymous": false,
      "inputs": [
        {
          "indexed": false,
          "internalType": "address",
          "name": "addressPlayer",
          "type": "address"
        },
        {
          "indexed": false,
          "internalType": "string",
          "name": "loginPlayer",
          "type": "string"
        }
      ],
      "name": "NewPlayerRegistered",
      "type": "event"
    },
    {
      "anonymous": false,
      "inputs": [
        {
          "indexed": true,
          "internalType": "address",
          "name": "previousOwner",
          "type": "address"
        },
        {
          "indexed": true,
          "internalType": "address",
          "name": "newOwner",
          "type": "address"
        }
      ],
      "name": "OwnershipTransferred",
      "type": "event"
    },
    {
      "anonymous": false,
      "inputs": [
        {
          "indexed": true,
          "internalType": "address",
          "name": "from",
          "type": "address"
        },
        {
          "indexed": true,
          "internalType": "address",
          "name": "to",
          "type": "address"
        },
        {
          "indexed": true,
          "internalType": "uint256",
          "name": "tokenId",
          "type": "uint256"
        }
      ],
      "name": "Transfer",
      "type": "event"
    },
    {
      "anonymous": false,
      "inputs": [
        {
          "indexed": false,
          "internalType": "string",
          "name": "login",
          "type": "string"
        }
      ],
      "name": "playerUpdated",
      "type": "event"
    },
    {
      "inputs": [
        {
          "internalType": "address",
          "name": "to",
          "type": "address"
        },
        {
          "internalType": "uint256",
          "name": "tokenId",
          "type": "uint256"
        }
      ],
      "name": "approve",
      "outputs": [],
      "stateMutability": "nonpayable",
      "type": "function"
    },
    {
      "inputs": [
        {
          "internalType": "address",
          "name": "owner",
          "type": "address"
        }
      ],
      "name": "balanceOf",
      "outputs": [
        {
          "internalType": "uint256",
          "name": "",
          "type": "uint256"
        }
      ],
      "stateMutability": "view",
      "type": "function"
    },
    {
      "inputs": [
        {
          "internalType": "uint256",
          "name": "",
          "type": "uint256"
        }
      ],
      "name": "exemplaireNumbers",
      "outputs": [
        {
          "internalType": "uint256",
          "name": "",
          "type": "uint256"
        }
      ],
      "stateMutability": "view",
      "type": "function"
    },
    {
      "inputs": [
        {
          "internalType": "uint256",
          "name": "tokenId",
          "type": "uint256"
        }
      ],
      "name": "getApproved",
      "outputs": [
        {
          "internalType": "address",
          "name": "",
          "type": "address"
        }
      ],
      "stateMutability": "view",
      "type": "function"
    },
    {
      "inputs": [
        {
          "internalType": "address",
          "name": "owner",
          "type": "address"
        },
        {
          "internalType": "address",
          "name": "operator",
          "type": "address"
        }
      ],
      "name": "isApprovedForAll",
      "outputs": [
        {
          "internalType": "bool",
          "name": "",
          "type": "bool"
        }
      ],
      "stateMutability": "view",
      "type": "function"
    },
    {
      "inputs": [
        {
          "internalType": "uint256",
          "name": "",
          "type": "uint256"
        }
      ],
      "name": "items",
      "outputs": [
        {
          "internalType": "string",
          "name": "name",
          "type": "string"
        },
        {
          "internalType": "uint8",
          "name": "levelItem",
          "type": "uint8"
        },
        {
          "internalType": "uint8",
          "name": "continent",
          "type": "uint8"
        },
        {
          "internalType": "uint256",
          "name": "tokenId",
          "type": "uint256"
        },
        {
          "internalType": "uint256",
          "name": "composition",
          "type": "uint256"
        },
        {
          "internalType": "bool",
          "name": "locked",
          "type": "bool"
        },
        {
          "internalType": "bool",
          "name": "onSold",
          "type": "bool"
        }
      ],
      "stateMutability": "view",
      "type": "function"
    },
    {
      "inputs": [
        {
          "internalType": "address",
          "name": "",
          "type": "address"
        }
      ],
      "name": "multiverseData",
      "outputs": [
        {
          "internalType": "string",
          "name": "login",
          "type": "string"
        },
        {
          "internalType": "uint8",
          "name": "rewardLv1",
          "type": "uint8"
        },
        {
          "internalType": "uint8",
          "name": "rewardLv2",
          "type": "uint8"
        },
        {
          "internalType": "bool",
          "name": "isRegistered",
          "type": "bool"
        }
      ],
      "stateMutability": "view",
      "type": "function"
    },
    {
      "inputs": [
        {
          "internalType": "string",
          "name": "",
          "type": "string"
        }
      ],
      "name": "multiverseIds",
      "outputs": [
        {
          "internalType": "address",
          "name": "",
          "type": "address"
        }
      ],
      "stateMutability": "view",
      "type": "function"
    },
    {
      "inputs": [],
      "name": "name",
      "outputs": [
        {
          "internalType": "string",
          "name": "",
          "type": "string"
        }
      ],
      "stateMutability": "view",
      "type": "function"
    },
    {
      "inputs": [],
      "name": "owner",
      "outputs": [
        {
          "internalType": "address",
          "name": "",
          "type": "address"
        }
      ],
      "stateMutability": "view",
      "type": "function"
    },
    {
      "inputs": [
        {
          "internalType": "uint256",
          "name": "tokenId",
          "type": "uint256"
        }
      ],
      "name": "ownerOf",
      "outputs": [
        {
          "internalType": "address",
          "name": "",
          "type": "address"
        }
      ],
      "stateMutability": "view",
      "type": "function"
    },
    {
      "inputs": [],
      "name": "renounceOwnership",
      "outputs": [],
      "stateMutability": "nonpayable",
      "type": "function"
    },
    {
      "inputs": [
        {
          "internalType": "address",
          "name": "from",
          "type": "address"
        },
        {
          "internalType": "address",
          "name": "to",
          "type": "address"
        },
        {
          "internalType": "uint256",
          "name": "tokenId",
          "type": "uint256"
        }
      ],
      "name": "safeTransferFrom",
      "outputs": [],
      "stateMutability": "nonpayable",
      "type": "function"
    },
    {
      "inputs": [
        {
          "internalType": "address",
          "name": "from",
          "type": "address"
        },
        {
          "internalType": "address",
          "name": "to",
          "type": "address"
        },
        {
          "internalType": "uint256",
          "name": "tokenId",
          "type": "uint256"
        },
        {
          "internalType": "bytes",
          "name": "_data",
          "type": "bytes"
        }
      ],
      "name": "safeTransferFrom",
      "outputs": [],
      "stateMutability": "nonpayable",
      "type": "function"
    },
    {
      "inputs": [
        {
          "internalType": "address",
          "name": "operator",
          "type": "address"
        },
        {
          "internalType": "bool",
          "name": "approved",
          "type": "bool"
        }
      ],
      "name": "setApprovalForAll",
      "outputs": [],
      "stateMutability": "nonpayable",
      "type": "function"
    },
    {
      "inputs": [
        {
          "internalType": "address",
          "name": "_addressPlayer",
          "type": "address"
        },
        {
          "internalType": "string",
          "name": "_login",
          "type": "string"
        }
      ],
      "name": "setMultiversePlayer",
      "outputs": [],
      "stateMutability": "nonpayable",
      "type": "function"
    },
    {
      "inputs": [
        {
          "internalType": "bytes4",
          "name": "interfaceId",
          "type": "bytes4"
        }
      ],
      "name": "supportsInterface",
      "outputs": [
        {
          "internalType": "bool",
          "name": "",
          "type": "bool"
        }
      ],
      "stateMutability": "view",
      "type": "function"
    },
    {
      "inputs": [],
      "name": "symbol",
      "outputs": [
        {
          "internalType": "string",
          "name": "",
          "type": "string"
        }
      ],
      "stateMutability": "view",
      "type": "function"
    },
    {
      "inputs": [
        {
          "internalType": "uint256",
          "name": "index",
          "type": "uint256"
        }
      ],
      "name": "tokenByIndex",
      "outputs": [
        {
          "internalType": "uint256",
          "name": "",
          "type": "uint256"
        }
      ],
      "stateMutability": "view",
      "type": "function"
    },
    {
      "inputs": [
        {
          "internalType": "address",
          "name": "owner",
          "type": "address"
        },
        {
          "internalType": "uint256",
          "name": "index",
          "type": "uint256"
        }
      ],
      "name": "tokenOfOwnerByIndex",
      "outputs": [
        {
          "internalType": "uint256",
          "name": "",
          "type": "uint256"
        }
      ],
      "stateMutability": "view",
      "type": "function"
    },
    {
      "inputs": [
        {
          "internalType": "uint256",
          "name": "tokenId",
          "type": "uint256"
        }
      ],
      "name": "tokenURI",
      "outputs": [
        {
          "internalType": "string",
          "name": "",
          "type": "string"
        }
      ],
      "stateMutability": "view",
      "type": "function"
    },
    {
      "inputs": [],
      "name": "totalSupply",
      "outputs": [
        {
          "internalType": "uint256",
          "name": "",
          "type": "uint256"
        }
      ],
      "stateMutability": "view",
      "type": "function"
    },
    {
      "inputs": [
        {
          "internalType": "address",
          "name": "from",
          "type": "address"
        },
        {
          "internalType": "address",
          "name": "to",
          "type": "address"
        },
        {
          "internalType": "uint256",
          "name": "tokenId",
          "type": "uint256"
        }
      ],
      "name": "transferFrom",
      "outputs": [],
      "stateMutability": "nonpayable",
      "type": "function"
    },
    {
      "inputs": [
        {
          "internalType": "address",
          "name": "newOwner",
          "type": "address"
        }
      ],
      "name": "transferOwnership",
      "outputs": [],
      "stateMutability": "nonpayable",
      "type": "function"
    },
    {
      "inputs": [
        {
          "internalType": "string",
          "name": "_login",
          "type": "string"
        },
        {
          "internalType": "uint8",
          "name": "_rewardLv1",
          "type": "uint8"
        },
        {
          "internalType": "uint8",
          "name": "_rewardLv2",
          "type": "uint8"
        }
      ],
      "name": "updateMultiversePlayer",
      "outputs": [],
      "stateMutability": "nonpayable",
      "type": "function"
    },
    {
      "inputs": [
        {
          "internalType": "uint256",
          "name": "_type",
          "type": "uint256"
        },
        {
          "internalType": "string",
          "name": "_name",
          "type": "string"
        },
        {
          "internalType": "uint8",
          "name": "_continent",
          "type": "uint8"
        }
      ],
      "name": "createItem",
      "outputs": [],
      "stateMutability": "nonpayable",
      "type": "function"
    }
  ],
  "bytecode": "0x60806040526001600e556002600f5560036010553480156200002057600080fd5b506040805180820182526006815265141bddd3919560d21b60208083019182528351808501909452600484526312d3919560e21b9084015281519192916200006b916000916200010c565b508051620000819060019060208401906200010c565b5050506200009e62000098620000b660201b60201c565b620000ba565b600b80546001600160a01b03191633179055620001ef565b3390565b600a80546001600160a01b038381166001600160a01b0319831681179093556040519116919082907f8be0079c531659141344cd1fd0a4f28419497f9722a3daafe3b4186f6b6457e090600090a35050565b8280546200011a90620001b2565b90600052602060002090601f0160209004810192826200013e576000855562000189565b82601f106200015957805160ff191683800117855562000189565b8280016001018555821562000189579182015b82811115620001895782518255916020019190600101906200016c565b50620001979291506200019b565b5090565b5b808211156200019757600081556001016200019c565b600281046001821680620001c757607f821691505b60208210811415620001e957634e487b7160e01b600052602260045260246000fd5b50919050565b61280d80620001ff6000396000f3fe608060405234801561001057600080fd5b506004361061016e5760003560e01c8063715018a6116100ce578063a22cb46511610087578063a22cb465146102f4578063b88d4fde14610307578063bfb231d21461031a578063c87b56dd14610340578063e985e9c514610353578063e9dbd45a14610366578063f2fde38b146103795761016e565b8063715018a6146102935780637538822e1461029b57806375adb7fd146102ae5780638da5cb5b146102d157806395d89b41146102d95780639b008e47146102e15761016e565b806323b872dd1161012b57806323b872dd1461020e5780632f745c591461022157806342842e0e146102345780634f6ccce7146102475780636352211e1461025a578063661c2b601461026d57806370a08231146102805761016e565b806301ffc9a71461017357806306fdde031461019c578063081812fc146101b1578063095ea7b3146101d157806318160ddd146101e65780631f571089146101fb575b600080fd5b610186610181366004611d46565b61038c565b6040516101939190611f5a565b60405180910390f35b6101a46103b9565b6040516101939190611f65565b6101c46101bf366004611e0b565b61044b565b6040516101939190611ee5565b6101e46101df366004611d1d565b610497565b005b6101ee61052f565b604051610193919061267e565b6101e4610209366004611e23565b610535565b6101e461021c366004611be5565b61079a565b6101ee61022f366004611d1d565b6107d2565b6101e4610242366004611be5565b610824565b6101ee610255366004611e0b565b61083f565b6101c4610268366004611e0b565b61089a565b6101ee61027b366004611e0b565b6108cf565b6101ee61028e366004611b99565b6108e1565b6101e4610925565b6101e46102a9366004611db0565b610970565b6102c16102bc366004611b99565b610af0565b6040516101939493929190611f78565b6101c4610baa565b6101a4610bb9565b6101e46102ef366004611cd2565b610bc8565b6101e4610302366004611c98565b610d2e565b6101e4610315366004611c20565b610dfc565b61032d610328366004611e0b565b610e3b565b6040516101939796959493929190611fad565b6101a461034e366004611e0b565b610f20565b610186610361366004611bb3565b610fa3565b6101c4610374366004611d7e565b610fd1565b6101e4610387366004611b99565b610ff7565b60006001600160e01b0319821663780e9d6360e01b14806103b157506103b182611068565b90505b919050565b6060600080546103c890612715565b80601f01602080910402602001604051908101604052809291908181526020018280546103f490612715565b80156104415780601f1061041657610100808354040283529160200191610441565b820191906000526020600020905b81548152906001019060200180831161042457829003601f168201915b5050505050905090565b6000610456826110a8565b61047b5760405162461bcd60e51b815260040161047290612433565b60405180910390fd5b506000908152600460205260409020546001600160a01b031690565b60006104a28261089a565b9050806001600160a01b0316836001600160a01b031614156104d65760405162461bcd60e51b81526004016104729061254c565b806001600160a01b03166104e86110c5565b6001600160a01b031614806105045750610504816103616110c5565b6105205760405162461bcd60e51b8152600401610472906122ca565b61052a83836110c9565b505050565b60085490565b61053d6110c5565b6001600160a01b031661054e610baa565b6001600160a01b0316146105745760405162461bcd60e51b81526004016104729061247f565b826105915760405162461bcd60e51b815260040161047290612247565b60ff81166105b15760405162461bcd60e51b815260040161047290612189565b601154600e546000918291829182918290891415610601576105d288611137565b95506105fa604051806040016040528060058152602001643830b832b960d91b815250611170565b9450600290505b600f5489141561061b5761061488611170565b9450600290505b6010548914156106355761062e88611137565b9550600190505b6012600061064388886111b4565b815260200190815260200160002054600161065e9190612687565b935061066b8686866111cd565b9250836012600061067c89896111b4565b815260208101919091526040016000205561069733836111f8565b6040805160e08101825289815260ff808416602080840191909152908a16928201929092526060810184905260808101859052600060a0820181905260c0820181905260118054600181018255915281518051929360059092027f31ecc21a745e3968a04e9570e4425bc18fa8019c68028196b546d1669c200c6801926107219284920190611a44565b506020820151600182018054604085015160ff90811661010090810261ff00199290951660ff1993841617821694909417909255606085015160028501556080850151600385015560a08501516004909401805460c0909601511515909302931515941693909317909216179055505050505050505050565b6107ab6107a56110c5565b82611216565b6107c75760405162461bcd60e51b81526004016104729061258d565b61052a838383611293565b60006107dd836108e1565b82106107fb5760405162461bcd60e51b815260040161047290611ff8565b506001600160a01b03919091166000908152600660209081526040808320938352929052205490565b61052a83838360405180602001604052806000815250610dfc565b600061084961052f565b82106108675760405162461bcd60e51b815260040161047290612632565b6008828154811061088857634e487b7160e01b600052603260045260246000fd5b90600052602060002001549050919050565b6000818152600260205260408120546001600160a01b0316806103b15760405162461bcd60e51b8152600401610472906123b5565b60126020526000908152604090205481565b60006001600160a01b0382166109095760405162461bcd60e51b81526004016104729061236b565b506001600160a01b031660009081526003602052604090205490565b61092d6110c5565b6001600160a01b031661093e610baa565b6001600160a01b0316146109645760405162461bcd60e51b81526004016104729061247f565b61096e60006113c0565b565b600b546001600160a01b0316331461099a5760405162461bcd60e51b815260040161047290612322565b600d6000600c856040516109ae9190611e9a565b9081526040805160209281900383019020546001600160a01b03168352908201929092520160002060019081015462010000900460ff16151514610a045760405162461bcd60e51b8152600401610472906125de565b81600d6000600c86604051610a199190611e9a565b9081526040805160209281900383019020546001600160a01b031683529082019290925281016000908120600101805460ff191660ff9490941693909317909255518291600d91600c90610a6e908890611e9a565b9081526040805160209281900383019020546001600160a01b03168352908201929092528101600020600101805461ff00191661010060ff949094169390930292909217909155517faa6183438646fc8bb56f82868ce90c0a5bd1301970b115e976c90c1d696a155090610ae3908590611f65565b60405180910390a1505050565b600d60205260009081526040902080548190610b0b90612715565b80601f0160208091040260200160405190810160405280929190818152602001828054610b3790612715565b8015610b845780601f10610b5957610100808354040283529160200191610b84565b820191906000526020600020905b815481529060010190602001808311610b6757829003601f168201915b5050506001909301549192505060ff808216916101008104821691620100009091041684565b600a546001600160a01b031690565b6060600180546103c890612715565b600b546001600160a01b0316331480610be95750336001600160a01b038316145b610c055760405162461bcd60e51b8152600401610472906121bc565b600d6000600c83604051610c199190611e9a565b9081526040805160209281900383019020546001600160a01b0316835290820192909252016000206001015462010000900460ff1615610c6b5760405162461bcd60e51b815260040161047290612206565b81600c82604051610c7c9190611e9a565b908152604080516020928190038301902080546001600160a01b0319166001600160a01b039485161790559184166000908152600d8252919091208251610cc592840190611a44565b506001600160a01b0382166000908152600d602052604090819020600101805462ff0000191662010000179055517fd1271c0a878b06e77c2b145e81fda258074d1d9f72d29461da6de567fe185db390610d229084908490611f36565b60405180910390a15050565b610d366110c5565b6001600160a01b0316826001600160a01b03161415610d675760405162461bcd60e51b815260040161047290612156565b8060056000610d746110c5565b6001600160a01b03908116825260208083019390935260409182016000908120918716808252919093529120805460ff191692151592909217909155610db86110c5565b6001600160a01b03167f17307eab39ab6107e8899845ad3d59bd9653f200f220920489ca2b5937696c3183604051610df09190611f5a565b60405180910390a35050565b610e0d610e076110c5565b83611216565b610e295760405162461bcd60e51b81526004016104729061258d565b610e3584848484611412565b50505050565b60118181548110610e4b57600080fd5b9060005260206000209060050201600091509050806000018054610e6e90612715565b80601f0160208091040260200160405190810160405280929190818152602001828054610e9a90612715565b8015610ee75780601f10610ebc57610100808354040283529160200191610ee7565b820191906000526020600020905b815481529060010190602001808311610eca57829003601f168201915b505050600184015460028501546003860154600490960154949560ff808416966101009485900482169650929450909282821692041687565b6060610f2b826110a8565b610f475760405162461bcd60e51b8152600401610472906124fd565b6000610f51611445565b90506000815111610f715760405180602001604052806000815250610f9c565b80610f7b84611457565b604051602001610f8c929190611eb6565b6040516020818303038152906040525b9392505050565b6001600160a01b03918216600090815260056020908152604080832093909416825291909152205460ff1690565b8051602081830181018051600c825292820191909301209152546001600160a01b031681565b610fff6110c5565b6001600160a01b0316611010610baa565b6001600160a01b0316146110365760405162461bcd60e51b81526004016104729061247f565b6001600160a01b03811661105c5760405162461bcd60e51b815260040161047290612095565b611065816113c0565b50565b60006001600160e01b031982166380ac58cd60e01b148061109957506001600160e01b03198216635b5e139f60e01b145b806103b157506103b182611571565b6000908152600260205260409020546001600160a01b0316151590565b3390565b600081815260046020526040902080546001600160a01b0319166001600160a01b03841690811790915581906110fe8261089a565b6001600160a01b03167f8c5be1e5ebec7d5bd14f71427d1e84f3dd0314c0f7b2291e5b200ac8c7c3b92560405160405180910390a45050565b60006103e88260405160200161114d9190611e9a565b6040516020818303038152906040528051906020012060001c6103b1919061276b565b60006103e7826040516020016111869190611e9a565b6040516020818303038152906040528051906020012060001c6111a9919061276b565b6103b1906001612687565b6000816111c3846103e86126b3565b610f9c9190612687565b6000816111da85856111b4565b6111e6906103e86126b3565b6111f09190612687565b949350505050565b61121282826040518060200160405280600081525061158a565b5050565b6000611221826110a8565b61123d5760405162461bcd60e51b81526004016104729061227e565b60006112488361089a565b9050806001600160a01b0316846001600160a01b031614806112835750836001600160a01b03166112788461044b565b6001600160a01b0316145b806111f057506111f08185610fa3565b826001600160a01b03166112a68261089a565b6001600160a01b0316146112cc5760405162461bcd60e51b8152600401610472906124b4565b6001600160a01b0382166112f25760405162461bcd60e51b815260040161047290612112565b6112fd8383836115bd565b6113086000826110c9565b6001600160a01b03831660009081526003602052604081208054600192906113319084906126d2565b90915550506001600160a01b038216600090815260036020526040812080546001929061135f908490612687565b909155505060008181526002602052604080822080546001600160a01b0319166001600160a01b0386811691821790925591518493918716917fddf252ad1be2c89b69c2b068fc378daa952ba7f163c4a11628f55a4df523b3ef91a4505050565b600a80546001600160a01b038381166001600160a01b0319831681179093556040519116919082907f8be0079c531659141344cd1fd0a4f28419497f9722a3daafe3b4186f6b6457e090600090a35050565b61141d848484611293565b61142984848484611646565b610e355760405162461bcd60e51b815260040161047290612043565b60408051602081019091526000815290565b60608161147c57506040805180820190915260018152600360fc1b60208201526103b4565b8160005b81156114a6578061149081612750565b915061149f9050600a8361269f565b9150611480565b6000816001600160401b038111156114ce57634e487b7160e01b600052604160045260246000fd5b6040519080825280601f01601f1916602001820160405280156114f8576020820181803683370190505b5090505b84156111f05761150d6001836126d2565b915061151a600a8661276b565b611525906030612687565b60f81b81838151811061154857634e487b7160e01b600052603260045260246000fd5b60200101906001600160f81b031916908160001a90535061156a600a8661269f565b94506114fc565b6001600160e01b031981166301ffc9a760e01b14919050565b6115948383611761565b6115a16000848484611646565b61052a5760405162461bcd60e51b815260040161047290612043565b6115c883838361052a565b6001600160a01b0383166115e4576115df81611840565b611607565b816001600160a01b0316836001600160a01b031614611607576116078382611884565b6001600160a01b0382166116235761161e81611921565b61052a565b826001600160a01b0316826001600160a01b03161461052a5761052a82826119fa565b600061165a846001600160a01b0316611a3e565b1561175657836001600160a01b031663150b7a026116766110c5565b8786866040518563ffffffff1660e01b81526004016116989493929190611ef9565b602060405180830381600087803b1580156116b257600080fd5b505af19250505080156116e2575060408051601f3d908101601f191682019092526116df91810190611d62565b60015b61173c573d808015611710576040519150601f19603f3d011682016040523d82523d6000602084013e611715565b606091505b5080516117345760405162461bcd60e51b815260040161047290612043565b805181602001fd5b6001600160e01b031916630a85bd0160e11b1490506111f0565b506001949350505050565b6001600160a01b0382166117875760405162461bcd60e51b8152600401610472906123fe565b611790816110a8565b156117ad5760405162461bcd60e51b8152600401610472906120db565b6117b9600083836115bd565b6001600160a01b03821660009081526003602052604081208054600192906117e2908490612687565b909155505060008181526002602052604080822080546001600160a01b0319166001600160a01b03861690811790915590518392907fddf252ad1be2c89b69c2b068fc378daa952ba7f163c4a11628f55a4df523b3ef908290a45050565b600880546000838152600960205260408120829055600182018355919091527ff3f7a9fe364faab93b216da50a3214154f22a0a2b415b23a84c8169e8b636ee30155565b60006001611891846108e1565b61189b91906126d2565b6000838152600760205260409020549091508082146118ee576001600160a01b03841660009081526006602090815260408083208584528252808320548484528184208190558352600790915290208190555b5060009182526007602090815260408084208490556001600160a01b039094168352600681528383209183525290812055565b600854600090611933906001906126d2565b6000838152600960205260408120546008805493945090928490811061196957634e487b7160e01b600052603260045260246000fd5b90600052602060002001549050806008838154811061199857634e487b7160e01b600052603260045260246000fd5b60009182526020808320909101929092558281526009909152604080822084905585825281205560088054806119de57634e487b7160e01b600052603160045260246000fd5b6001900381819060005260206000200160009055905550505050565b6000611a05836108e1565b6001600160a01b039093166000908152600660209081526040808320868452825280832085905593825260079052919091209190915550565b3b151590565b828054611a5090612715565b90600052602060002090601f016020900481019282611a725760008555611ab8565b82601f10611a8b57805160ff1916838001178555611ab8565b82800160010185558215611ab8579182015b82811115611ab8578251825591602001919060010190611a9d565b50611ac4929150611ac8565b5090565b5b80821115611ac45760008155600101611ac9565b60006001600160401b0380841115611af757611af76127ab565b604051601f8501601f19908116603f01168101908282118183101715611b1f57611b1f6127ab565b81604052809350858152868686011115611b3857600080fd5b858560208301376000602087830101525050509392505050565b80356001600160a01b03811681146103b457600080fd5b600082601f830112611b79578081fd5b610f9c83833560208501611add565b803560ff811681146103b457600080fd5b600060208284031215611baa578081fd5b610f9c82611b52565b60008060408385031215611bc5578081fd5b611bce83611b52565b9150611bdc60208401611b52565b90509250929050565b600080600060608486031215611bf9578081fd5b611c0284611b52565b9250611c1060208501611b52565b9150604084013590509250925092565b60008060008060808587031215611c35578081fd5b611c3e85611b52565b9350611c4c60208601611b52565b92506040850135915060608501356001600160401b03811115611c6d578182fd5b8501601f81018713611c7d578182fd5b611c8c87823560208401611add565b91505092959194509250565b60008060408385031215611caa578182fd5b611cb383611b52565b915060208301358015158114611cc7578182fd5b809150509250929050565b60008060408385031215611ce4578182fd5b611ced83611b52565b915060208301356001600160401b03811115611d07578182fd5b611d1385828601611b69565b9150509250929050565b60008060408385031215611d2f578182fd5b611d3883611b52565b946020939093013593505050565b600060208284031215611d57578081fd5b8135610f9c816127c1565b600060208284031215611d73578081fd5b8151610f9c816127c1565b600060208284031215611d8f578081fd5b81356001600160401b03811115611da4578182fd5b6111f084828501611b69565b600080600060608486031215611dc4578283fd5b83356001600160401b03811115611dd9578384fd5b611de586828701611b69565b935050611df460208501611b88565b9150611e0260408501611b88565b90509250925092565b600060208284031215611e1c578081fd5b5035919050565b600080600060608486031215611e37578283fd5b8335925060208401356001600160401b03811115611e53578283fd5b611e5f86828701611b69565b925050611e0260408501611b88565b60008151808452611e868160208601602086016126e9565b601f01601f19169290920160200192915050565b60008251611eac8184602087016126e9565b9190910192915050565b60008351611ec88184602088016126e9565b835190830190611edc8183602088016126e9565b01949350505050565b6001600160a01b0391909116815260200190565b6001600160a01b0385811682528416602082015260408101839052608060608201819052600090611f2c90830184611e6e565b9695505050505050565b6001600160a01b03831681526040602082018190526000906111f090830184611e6e565b901515815260200190565b600060208252610f9c6020830184611e6e565b600060808252611f8b6080830187611e6e565b60ff958616602084015293909416604082015290151560609091015292915050565b600060e08252611fc060e083018a611e6e565b60ff988916602084015296909716604082015260608101949094526080840192909252151560a0830152151560c09091015292915050565b6020808252602b908201527f455243373231456e756d657261626c653a206f776e657220696e646578206f7560408201526a74206f6620626f756e647360a81b606082015260800190565b60208082526032908201527f4552433732313a207472616e7366657220746f206e6f6e20455243373231526560408201527131b2b4bb32b91034b6b83632b6b2b73a32b960711b606082015260800190565b60208082526026908201527f4f776e61626c653a206e6577206f776e657220697320746865207a65726f206160408201526564647265737360d01b606082015260800190565b6020808252601c908201527f4552433732313a20746f6b656e20616c7265616479206d696e74656400000000604082015260600190565b60208082526024908201527f4552433732313a207472616e7366657220746f20746865207a65726f206164646040820152637265737360e01b606082015260800190565b60208082526019908201527822a9219b99189d1030b8383937bb32903a379031b0b63632b960391b604082015260600190565b6020808252601990820152781c1b19585cd9481cd95b1958dd08184818dbdb9d1a5b995b9d603a1b604082015260600190565b6020808252602a908201527f796f7520617265206e6f7420617574686f72697a656420746f207365742074686040820152691a5cc81858d8dbdd5b9d60b21b606082015260800190565b60208082526021908201527f7468697320706c6179657220697320616c7265616479207265676973746572656040820152601960fa1b606082015260800190565b6020808252601c908201527f706c656173652073656c65637420612074797065206f66206974656d00000000604082015260600190565b6020808252602c908201527f4552433732313a206f70657261746f7220717565727920666f72206e6f6e657860408201526b34b9ba32b73a103a37b5b2b760a11b606082015260800190565b60208082526038908201527f4552433732313a20617070726f76652063616c6c6572206973206e6f74206f776040820152771b995c881b9bdc88185c1c1c9bdd995908199bdc88185b1b60421b606082015260800190565b60208082526029908201527f796f7520617265206e6f7420617574686f72697a656420746f20757064617465604082015268103090383630bcb2b960b91b606082015260800190565b6020808252602a908201527f4552433732313a2062616c616e636520717565727920666f7220746865207a65604082015269726f206164647265737360b01b606082015260800190565b60208082526029908201527f4552433732313a206f776e657220717565727920666f72206e6f6e657869737460408201526832b73a103a37b5b2b760b91b606082015260800190565b6020808252818101527f4552433732313a206d696e7420746f20746865207a65726f2061646472657373604082015260600190565b6020808252602c908201527f4552433732313a20617070726f76656420717565727920666f72206e6f6e657860408201526b34b9ba32b73a103a37b5b2b760a11b606082015260800190565b6020808252818101527f4f776e61626c653a2063616c6c6572206973206e6f7420746865206f776e6572604082015260600190565b60208082526029908201527f4552433732313a207472616e73666572206f6620746f6b656e2074686174206960408201526839903737ba1037bbb760b91b606082015260800190565b6020808252602f908201527f4552433732314d657461646174613a2055524920717565727920666f72206e6f60408201526e3732bc34b9ba32b73a103a37b5b2b760891b606082015260800190565b60208082526021908201527f4552433732313a20617070726f76616c20746f2063757272656e74206f776e656040820152603960f91b606082015260800190565b60208082526031908201527f4552433732313a207472616e736665722063616c6c6572206973206e6f74206f6040820152701ddb995c881b9bdc88185c1c1c9bdd9959607a1b606082015260800190565b60208082526034908201527f706c656173652073657420666972737420616e20457468657265756d206164646040820152733932b9b9903337b9103a3434b990383630bcb2b960611b606082015260800190565b6020808252602c908201527f455243373231456e756d657261626c653a20676c6f62616c20696e646578206f60408201526b7574206f6620626f756e647360a01b606082015260800190565b90815260200190565b6000821982111561269a5761269a61277f565b500190565b6000826126ae576126ae612795565b500490565b60008160001904831182151516156126cd576126cd61277f565b500290565b6000828210156126e4576126e461277f565b500390565b60005b838110156127045781810151838201526020016126ec565b83811115610e355750506000910152565b60028104600182168061272957607f821691505b6020821081141561274a57634e487b7160e01b600052602260045260246000fd5b50919050565b60006000198214156127645761276461277f565b5060010190565b60008261277a5761277a612795565b500690565b634e487b7160e01b600052601160045260246000fd5b634e487b7160e01b600052601260045260246000fd5b634e487b7160e01b600052604160045260246000fd5b6001600160e01b03198116811461106557600080fdfea2646970667358221220219d694c31cfae15386c3976393afb43be493723cf5ab42cd592ea3c11481b9d64736f6c63430008010033",
  "immutableReferences": {},
  "source": "// SPDX-License-Identifier: GPL-3.0\r\n\r\npragma solidity 0.8.1;\r\n\r\nimport \"./interfaceMultiverseNFT.sol\";\r\nimport \"@openzeppelin/openzeppelin-contracts-master/contracts/token/ERC721/extensions/ERC721Enumerable.sol\";\r\nimport \"@openzeppelin/openzeppelin-contracts-master/contracts/access/Ownable.sol\";\r\n\r\n\r\n/**\r\n * @title Administrator factory for Items\r\n * @notice In this contract the administrator creates items and set them in the data base. \r\n * @dev The itemsFactory contract create the basics NFT ERC721 and attribute them to the administrator balance.\r\n * Two levels of items can be created. Level 1 represesent card of the item, level 2 is items in paper or stone of material\r\n */\r\ncontract itemsFactory is ERC721Enumerable, Ownable, interfaceMultiverseNFT{\r\n  \r\n    ///@dev Contructor with the address of the interfaceMultiverse contract and the name and symbol of the NFT\r\n    constructor () ERC721(\"PowNFT\",\"KNFT\"){\r\n    }\r\n\r\n    ///@dev Those are the differents types of items which can be created \r\n    uint _monument = 1;\r\n    uint _material = 2;\r\n    uint _card = 3;\r\n\r\n    /**\r\n     * @dev This is the stucture of an item. \r\n     * @param Name is the name of the item \r\n     * @param levelItem is the level of the item 1 or 2 at this stage\r\n     * @param continent is the continent where this items is located \r\n     *  -here the list of continent by number: 1:North America, 2:South America, 3: Antarctique, 4:Asia, 5:Europe, 6:Africa ,\r\n     *  7:Oceania, 8:None(for material)\r\n     * @parma tokenIdId is the Id of the token, \r\n     * @param compostion represesent the item on a number format: ex 123 456 789 where\r\n     *  -123 is the name of the monument (ex \"tour eiffel\") \r\n     *  -456 is the material type (ex Gold)\r\n     *  -789 is the number of exemplaire of this item (ex with 3 exemplaire in the game this code will be 003)\r\n     * \r\n     */\r\n    struct Item{\r\n        string name;\r\n        uint8 levelItem;\r\n        uint8 continent;\r\n        uint tokenId;\r\n        uint composition;\r\n        bool locked;\r\n        bool onSold;\r\n    }\r\n\r\n    //Array with all the items of the game\r\n    \r\n    Item[] public items;\r\n    \r\n    //Mapping counting the number of exemplaire of each item. The 6 first digits only are taken into account\r\n    mapping (uint => uint) public exemplaireNumbers;\r\n    \r\n    ///@dev Function allowing to create items. Only the adminstrator can make one\r\n    function createItem(uint _type,string memory _name, uint8 _continent) public onlyOwner {\r\n      require (_type != 0, \"please select a type of item\");\r\n      require (_continent != 0, \"please select a continent\");\r\n    \r\n        uint codeFirstPart;\r\n        uint codeSecondPart;\r\n        uint codeThirdPart;\r\n        uint codeComposition;\r\n        uint tokenId = items.length;\r\n        uint8 level;\r\n        \r\n        if (_type == _monument) {\r\n          codeFirstPart =  getCodeMonument(_name);\r\n          codeSecondPart = getCodeMaterial (\"paper\");\r\n          level = 2;\r\n        } \r\n        if (_type == _material){\r\n          codeSecondPart = getCodeMaterial(_name);\r\n          level = 2;\r\n        }\r\n        if (_type == _card){\r\n          codeFirstPart =  getCodeMonument(_name);\r\n          level = 1;\r\n        }\r\n        \r\n        codeThirdPart = exemplaireNumbers[getCodeBaseComposition(codeFirstPart,codeSecondPart)]+1;\r\n        codeComposition = getCodeComposition(codeFirstPart,codeSecondPart,codeThirdPart);\r\n        exemplaireNumbers[getCodeBaseComposition(codeFirstPart,codeSecondPart)] = codeThirdPart;    \r\n        \r\n        _safeMint(msg.sender, tokenId);\r\n        items.push(Item(_name, level, _continent, tokenId, codeComposition, false, false));\r\n    }\r\n    \r\n    /**@dev Get the three first digit for the name of the monument. If we create an item, this number will be 000\r\n     * The front format the writing\r\n     */\r\n    function getCodeMonument(string memory _nameMonument) internal pure returns (uint){\r\n        return uint(keccak256(abi.encodePacked(_nameMonument))) % 1000;\r\n    }\r\n    \r\n    ///@dev Get the three digit of the material name\r\n    function getCodeMaterial(string memory _nameMaterial) internal pure returns (uint){\r\n        return (uint(keccak256(abi.encodePacked(_nameMaterial))) % 999)+1;\r\n    }\r\n    \r\n    ///@dev Get the six first digit of the item\r\n    function getCodeBaseComposition(uint _codeItem ,uint _codeMaterial) internal pure returns (uint){\r\n        return (_codeItem*1000)+_codeMaterial;\r\n    }\r\n    \r\n    ///@dev Get the entire composition of the item\r\n    function getCodeComposition( uint _codeItem, uint _codeMaterial, uint _codeExemplaire) internal pure returns(uint){\r\n        return (getCodeBaseComposition(_codeItem,_codeMaterial)*1000) + _codeExemplaire;\r\n    }\r\n\r\n}\r\n",
  "sourcePath": "C:\\Users\\fboud\\OneDrive\\Documents\\Alyra\\projetFinal\\contracts\\itemsFactory.sol",
  "compiler": {
    "name": "solc",
    "version": "0.8.1+commit.df193b15.Emscripten.clang"
  },
  "schemaVersion": "3.4.2",
  "updatedAt": "2021-08-07T17:30:06.125Z",
  "devdoc": {
    "details": "The itemsFactory contract create the basics NFT ERC721 and attribute them to the administrator balance. Two levels of items can be created. Level 1 represesent card of the item, level 2 is items in paper or stone of material",
    "kind": "dev",
    "methods": {
      "approve(address,uint256)": {
        "details": "See {IERC721-approve}."
      },
      "balanceOf(address)": {
        "details": "See {IERC721-balanceOf}."
      },
      "constructor": {
        "details": "Contructor with the address of the interfaceMultiverse contract and the name and symbol of the NFT"
      },
      "createItem(uint256,string,uint8)": {
        "details": "Function allowing to create items. Only the adminstrator can make one"
      },
      "getApproved(uint256)": {
        "details": "See {IERC721-getApproved}."
      },
      "isApprovedForAll(address,address)": {
        "details": "See {IERC721-isApprovedForAll}."
      },
      "name()": {
        "details": "See {IERC721Metadata-name}."
      },
      "owner()": {
        "details": "Returns the address of the current owner."
      },
      "ownerOf(uint256)": {
        "details": "See {IERC721-ownerOf}."
      },
      "renounceOwnership()": {
        "details": "Leaves the contract without owner. It will not be possible to call `onlyOwner` functions anymore. Can only be called by the current owner. NOTE: Renouncing ownership will leave the contract without an owner, thereby removing any functionality that is only available to the owner."
      },
      "safeTransferFrom(address,address,uint256)": {
        "details": "See {IERC721-safeTransferFrom}."
      },
      "safeTransferFrom(address,address,uint256,bytes)": {
        "details": "See {IERC721-safeTransferFrom}."
      },
      "setApprovalForAll(address,bool)": {
        "details": "See {IERC721-setApprovalForAll}."
      },
      "setMultiversePlayer(address,string)": {
        "details": "link a login with a player. The login must be the exact same one than the one used in POW"
      },
      "supportsInterface(bytes4)": {
        "details": "See {IERC165-supportsInterface}."
      },
      "symbol()": {
        "details": "See {IERC721Metadata-symbol}."
      },
      "tokenByIndex(uint256)": {
        "details": "See {IERC721Enumerable-tokenByIndex}."
      },
      "tokenOfOwnerByIndex(address,uint256)": {
        "details": "See {IERC721Enumerable-tokenOfOwnerByIndex}."
      },
      "tokenURI(uint256)": {
        "details": "See {IERC721Metadata-tokenURI}."
      },
      "totalSupply()": {
        "details": "See {IERC721Enumerable-totalSupply}."
      },
      "transferFrom(address,address,uint256)": {
        "details": "See {IERC721-transferFrom}."
      },
      "transferOwnership(address)": {
        "details": "Transfers ownership of the contract to a new account (`newOwner`). Can only be called by the current owner."
      },
      "updateMultiversePlayer(string,uint8,uint8)": {
        "details": "Update the data of a registered player. The adnministrator Only can set this. In the future, the oracle will do that"
      }
    },
    "stateVariables": {
      "_monument": {
        "details": "Those are the differents types of items which can be created "
      }
    },
    "title": "Administrator factory for Items",
    "version": 1
  },
  "userdoc": {
    "kind": "user",
    "methods": {},
    "notice": "In this contract the administrator creates items and set them in the data base. ",
    "version": 1
  }
}