{
  "contractName": "marketPlace",
  "abi": [
    {
      "anonymous": false,
      "inputs": [
        {
          "indexed": true,
          "internalType": "address",
          "name": "owner",
          "type": "address"
        },
        {
          "indexed": true,
          "internalType": "address",
          "name": "approved",
          "type": "address"
        },
        {
          "indexed": true,
          "internalType": "uint256",
          "name": "tokenId",
          "type": "uint256"
        }
      ],
      "name": "Approval",
      "type": "event"
    },
    {
      "anonymous": false,
      "inputs": [
        {
          "indexed": true,
          "internalType": "address",
          "name": "owner",
          "type": "address"
        },
        {
          "indexed": true,
          "internalType": "address",
          "name": "operator",
          "type": "address"
        },
        {
          "indexed": false,
          "internalType": "bool",
          "name": "approved",
          "type": "bool"
        }
      ],
      "name": "ApprovalForAll",
      "type": "event"
    },
    {
      "anonymous": false,
      "inputs": [
        {
          "indexed": false,
          "internalType": "uint256",
          "name": "idOrder",
          "type": "uint256"
        }
      ],
      "name": "NewMarketOrder",
      "type": "event"
    },
    {
      "anonymous": false,
      "inputs": [
        {
          "indexed": false,
          "internalType": "address",
          "name": "addressPlayer",
          "type": "address"
        },
        {
          "indexed": false,
          "internalType": "string",
          "name": "loginPlayer",
          "type": "string"
        }
      ],
      "name": "NewPlayerRegistered",
      "type": "event"
    },
    {
      "anonymous": false,
      "inputs": [
        {
          "indexed": true,
          "internalType": "address",
          "name": "previousOwner",
          "type": "address"
        },
        {
          "indexed": true,
          "internalType": "address",
          "name": "newOwner",
          "type": "address"
        }
      ],
      "name": "OwnershipTransferred",
      "type": "event"
    },
    {
      "anonymous": false,
      "inputs": [
        {
          "indexed": true,
          "internalType": "address",
          "name": "from",
          "type": "address"
        },
        {
          "indexed": true,
          "internalType": "address",
          "name": "to",
          "type": "address"
        },
        {
          "indexed": true,
          "internalType": "uint256",
          "name": "tokenId",
          "type": "uint256"
        }
      ],
      "name": "Transfer",
      "type": "event"
    },
    {
      "anonymous": false,
      "inputs": [
        {
          "indexed": false,
          "internalType": "uint256",
          "name": "tokenId",
          "type": "uint256"
        }
      ],
      "name": "fusionnedItemCreate",
      "type": "event"
    },
    {
      "anonymous": false,
      "inputs": [
        {
          "indexed": false,
          "internalType": "uint256",
          "name": "tokenId",
          "type": "uint256"
        }
      ],
      "name": "lockItem",
      "type": "event"
    },
    {
      "anonymous": false,
      "inputs": [
        {
          "indexed": false,
          "internalType": "uint256",
          "name": "idOrder",
          "type": "uint256"
        }
      ],
      "name": "orderCanceled",
      "type": "event"
    },
    {
      "anonymous": false,
      "inputs": [
        {
          "indexed": false,
          "internalType": "string",
          "name": "login",
          "type": "string"
        }
      ],
      "name": "playerUpdated",
      "type": "event"
    },
    {
      "anonymous": false,
      "inputs": [
        {
          "indexed": false,
          "internalType": "uint256",
          "name": "tokenId",
          "type": "uint256"
        }
      ],
      "name": "rewardWithdrawn",
      "type": "event"
    },
    {
      "anonymous": false,
      "inputs": [
        {
          "indexed": false,
          "internalType": "uint256",
          "name": "idOrder",
          "type": "uint256"
        }
      ],
      "name": "soldMade",
      "type": "event"
    },
    {
      "inputs": [
        {
          "internalType": "address",
          "name": "to",
          "type": "address"
        },
        {
          "internalType": "uint256",
          "name": "tokenId",
          "type": "uint256"
        }
      ],
      "name": "approve",
      "outputs": [],
      "stateMutability": "nonpayable",
      "type": "function"
    },
    {
      "inputs": [
        {
          "internalType": "address",
          "name": "owner",
          "type": "address"
        }
      ],
      "name": "balanceOf",
      "outputs": [
        {
          "internalType": "uint256",
          "name": "",
          "type": "uint256"
        }
      ],
      "stateMutability": "view",
      "type": "function",
      "constant": true
    },
    {
      "inputs": [
        {
          "internalType": "address",
          "name": "",
          "type": "address"
        }
      ],
      "name": "balancePlayer",
      "outputs": [
        {
          "internalType": "uint256",
          "name": "",
          "type": "uint256"
        }
      ],
      "stateMutability": "view",
      "type": "function",
      "constant": true
    },
    {
      "inputs": [
        {
          "internalType": "uint256",
          "name": "_type",
          "type": "uint256"
        },
        {
          "internalType": "string",
          "name": "_name",
          "type": "string"
        },
        {
          "internalType": "uint8",
          "name": "_continent",
          "type": "uint8"
        }
      ],
      "name": "createItem",
      "outputs": [],
      "stateMutability": "nonpayable",
      "type": "function"
    },
    {
      "inputs": [
        {
          "internalType": "uint256",
          "name": "",
          "type": "uint256"
        }
      ],
      "name": "exemplaireNumbers",
      "outputs": [
        {
          "internalType": "uint256",
          "name": "",
          "type": "uint256"
        }
      ],
      "stateMutability": "view",
      "type": "function",
      "constant": true
    },
    {
      "inputs": [
        {
          "internalType": "uint256",
          "name": "_myItemId1",
          "type": "uint256"
        },
        {
          "internalType": "uint256",
          "name": "_myItemId2",
          "type": "uint256"
        }
      ],
      "name": "fusionItem",
      "outputs": [],
      "stateMutability": "nonpayable",
      "type": "function"
    },
    {
      "inputs": [
        {
          "internalType": "uint256",
          "name": "tokenId",
          "type": "uint256"
        }
      ],
      "name": "getApproved",
      "outputs": [
        {
          "internalType": "address",
          "name": "",
          "type": "address"
        }
      ],
      "stateMutability": "view",
      "type": "function",
      "constant": true
    },
    {
      "inputs": [
        {
          "internalType": "uint8",
          "name": "_level",
          "type": "uint8"
        }
      ],
      "name": "getAvailableItem",
      "outputs": [
        {
          "internalType": "uint256",
          "name": "",
          "type": "uint256"
        }
      ],
      "stateMutability": "view",
      "type": "function",
      "constant": true
    },
    {
      "inputs": [],
      "name": "getLockedItems",
      "outputs": [
        {
          "internalType": "uint256[]",
          "name": "",
          "type": "uint256[]"
        }
      ],
      "stateMutability": "view",
      "type": "function",
      "constant": true
    },
    {
      "inputs": [],
      "name": "getReward",
      "outputs": [],
      "stateMutability": "nonpayable",
      "type": "function"
    },
    {
      "inputs": [
        {
          "internalType": "address",
          "name": "owner",
          "type": "address"
        },
        {
          "internalType": "address",
          "name": "operator",
          "type": "address"
        }
      ],
      "name": "isApprovedForAll",
      "outputs": [
        {
          "internalType": "bool",
          "name": "",
          "type": "bool"
        }
      ],
      "stateMutability": "view",
      "type": "function",
      "constant": true
    },
    {
      "inputs": [
        {
          "internalType": "uint256",
          "name": "",
          "type": "uint256"
        }
      ],
      "name": "items",
      "outputs": [
        {
          "internalType": "string",
          "name": "name",
          "type": "string"
        },
        {
          "internalType": "uint8",
          "name": "levelItem",
          "type": "uint8"
        },
        {
          "internalType": "uint8",
          "name": "continent",
          "type": "uint8"
        },
        {
          "internalType": "uint256",
          "name": "tokenId",
          "type": "uint256"
        },
        {
          "internalType": "uint256",
          "name": "composition",
          "type": "uint256"
        },
        {
          "internalType": "bool",
          "name": "locked",
          "type": "bool"
        },
        {
          "internalType": "bool",
          "name": "onSold",
          "type": "bool"
        }
      ],
      "stateMutability": "view",
      "type": "function",
      "constant": true
    },
    {
      "inputs": [
        {
          "internalType": "uint256",
          "name": "_Id",
          "type": "uint256"
        }
      ],
      "name": "lock",
      "outputs": [],
      "stateMutability": "nonpayable",
      "type": "function"
    },
    {
      "inputs": [
        {
          "internalType": "uint256",
          "name": "",
          "type": "uint256"
        }
      ],
      "name": "marketOrders",
      "outputs": [
        {
          "internalType": "uint256",
          "name": "idItem",
          "type": "uint256"
        },
        {
          "internalType": "uint256",
          "name": "priceRequested",
          "type": "uint256"
        },
        {
          "internalType": "bool",
          "name": "active",
          "type": "bool"
        }
      ],
      "stateMutability": "view",
      "type": "function",
      "constant": true
    },
    {
      "inputs": [
        {
          "internalType": "address",
          "name": "",
          "type": "address"
        }
      ],
      "name": "multiverseData",
      "outputs": [
        {
          "internalType": "string",
          "name": "login",
          "type": "string"
        },
        {
          "internalType": "uint8",
          "name": "rewardLv1",
          "type": "uint8"
        },
        {
          "internalType": "uint8",
          "name": "rewardLv2",
          "type": "uint8"
        },
        {
          "internalType": "bool",
          "name": "isRegistered",
          "type": "bool"
        }
      ],
      "stateMutability": "view",
      "type": "function",
      "constant": true
    },
    {
      "inputs": [
        {
          "internalType": "string",
          "name": "",
          "type": "string"
        }
      ],
      "name": "multiverseIds",
      "outputs": [
        {
          "internalType": "address",
          "name": "",
          "type": "address"
        }
      ],
      "stateMutability": "view",
      "type": "function",
      "constant": true
    },
    {
      "inputs": [],
      "name": "name",
      "outputs": [
        {
          "internalType": "string",
          "name": "",
          "type": "string"
        }
      ],
      "stateMutability": "view",
      "type": "function",
      "constant": true
    },
    {
      "inputs": [
        {
          "internalType": "uint256",
          "name": "",
          "type": "uint256"
        }
      ],
      "name": "orderWithWithelist",
      "outputs": [
        {
          "internalType": "address",
          "name": "whitelistAddress",
          "type": "address"
        },
        {
          "internalType": "bool",
          "name": "isActivated",
          "type": "bool"
        }
      ],
      "stateMutability": "view",
      "type": "function",
      "constant": true
    },
    {
      "inputs": [],
      "name": "owner",
      "outputs": [
        {
          "internalType": "address",
          "name": "",
          "type": "address"
        }
      ],
      "stateMutability": "view",
      "type": "function",
      "constant": true
    },
    {
      "inputs": [
        {
          "internalType": "uint256",
          "name": "tokenId",
          "type": "uint256"
        }
      ],
      "name": "ownerOf",
      "outputs": [
        {
          "internalType": "address",
          "name": "",
          "type": "address"
        }
      ],
      "stateMutability": "view",
      "type": "function",
      "constant": true
    },
    {
      "inputs": [],
      "name": "renounceOwnership",
      "outputs": [],
      "stateMutability": "nonpayable",
      "type": "function"
    },
    {
      "inputs": [
        {
          "internalType": "address",
          "name": "from",
          "type": "address"
        },
        {
          "internalType": "address",
          "name": "to",
          "type": "address"
        },
        {
          "internalType": "uint256",
          "name": "tokenId",
          "type": "uint256"
        }
      ],
      "name": "safeTransferFrom",
      "outputs": [],
      "stateMutability": "nonpayable",
      "type": "function"
    },
    {
      "inputs": [
        {
          "internalType": "address",
          "name": "from",
          "type": "address"
        },
        {
          "internalType": "address",
          "name": "to",
          "type": "address"
        },
        {
          "internalType": "uint256",
          "name": "tokenId",
          "type": "uint256"
        },
        {
          "internalType": "bytes",
          "name": "_data",
          "type": "bytes"
        }
      ],
      "name": "safeTransferFrom",
      "outputs": [],
      "stateMutability": "nonpayable",
      "type": "function"
    },
    {
      "inputs": [
        {
          "internalType": "address",
          "name": "operator",
          "type": "address"
        },
        {
          "internalType": "bool",
          "name": "approved",
          "type": "bool"
        }
      ],
      "name": "setApprovalForAll",
      "outputs": [],
      "stateMutability": "nonpayable",
      "type": "function"
    },
    {
      "inputs": [
        {
          "internalType": "address",
          "name": "_addressPlayer",
          "type": "address"
        },
        {
          "internalType": "string",
          "name": "_login",
          "type": "string"
        }
      ],
      "name": "setMultiversePlayer",
      "outputs": [],
      "stateMutability": "nonpayable",
      "type": "function"
    },
    {
      "inputs": [
        {
          "internalType": "bytes4",
          "name": "interfaceId",
          "type": "bytes4"
        }
      ],
      "name": "supportsInterface",
      "outputs": [
        {
          "internalType": "bool",
          "name": "",
          "type": "bool"
        }
      ],
      "stateMutability": "view",
      "type": "function",
      "constant": true
    },
    {
      "inputs": [],
      "name": "symbol",
      "outputs": [
        {
          "internalType": "string",
          "name": "",
          "type": "string"
        }
      ],
      "stateMutability": "view",
      "type": "function",
      "constant": true
    },
    {
      "inputs": [
        {
          "internalType": "uint256",
          "name": "index",
          "type": "uint256"
        }
      ],
      "name": "tokenByIndex",
      "outputs": [
        {
          "internalType": "uint256",
          "name": "",
          "type": "uint256"
        }
      ],
      "stateMutability": "view",
      "type": "function",
      "constant": true
    },
    {
      "inputs": [
        {
          "internalType": "address",
          "name": "owner",
          "type": "address"
        },
        {
          "internalType": "uint256",
          "name": "index",
          "type": "uint256"
        }
      ],
      "name": "tokenOfOwnerByIndex",
      "outputs": [
        {
          "internalType": "uint256",
          "name": "",
          "type": "uint256"
        }
      ],
      "stateMutability": "view",
      "type": "function",
      "constant": true
    },
    {
      "inputs": [
        {
          "internalType": "uint256",
          "name": "tokenId",
          "type": "uint256"
        }
      ],
      "name": "tokenURI",
      "outputs": [
        {
          "internalType": "string",
          "name": "",
          "type": "string"
        }
      ],
      "stateMutability": "view",
      "type": "function",
      "constant": true
    },
    {
      "inputs": [],
      "name": "totalSupply",
      "outputs": [
        {
          "internalType": "uint256",
          "name": "",
          "type": "uint256"
        }
      ],
      "stateMutability": "view",
      "type": "function",
      "constant": true
    },
    {
      "inputs": [
        {
          "internalType": "address",
          "name": "from",
          "type": "address"
        },
        {
          "internalType": "address",
          "name": "to",
          "type": "address"
        },
        {
          "internalType": "uint256",
          "name": "tokenId",
          "type": "uint256"
        }
      ],
      "name": "transferFrom",
      "outputs": [],
      "stateMutability": "nonpayable",
      "type": "function"
    },
    {
      "inputs": [
        {
          "internalType": "address",
          "name": "newOwner",
          "type": "address"
        }
      ],
      "name": "transferOwnership",
      "outputs": [],
      "stateMutability": "nonpayable",
      "type": "function"
    },
    {
      "inputs": [
        {
          "internalType": "uint256",
          "name": "_Id",
          "type": "uint256"
        }
      ],
      "name": "unlock",
      "outputs": [],
      "stateMutability": "nonpayable",
      "type": "function"
    },
    {
      "inputs": [
        {
          "internalType": "string",
          "name": "_login",
          "type": "string"
        },
        {
          "internalType": "uint8",
          "name": "_rewardLv1",
          "type": "uint8"
        },
        {
          "internalType": "uint8",
          "name": "_rewardLv2",
          "type": "uint8"
        }
      ],
      "name": "updateMultiversePlayer",
      "outputs": [],
      "stateMutability": "nonpayable",
      "type": "function"
    },
    {
      "inputs": [
        {
          "internalType": "uint256",
          "name": "_numContinent",
          "type": "uint256"
        }
      ],
      "name": "getRankByContinent",
      "outputs": [
        {
          "internalType": "address[]",
          "name": "",
          "type": "address[]"
        }
      ],
      "stateMutability": "view",
      "type": "function",
      "constant": true
    },
    {
      "inputs": [
        {
          "internalType": "address",
          "name": "_itemsOwner",
          "type": "address"
        }
      ],
      "name": "getItemsOfPlayer",
      "outputs": [
        {
          "internalType": "uint256[]",
          "name": "",
          "type": "uint256[]"
        }
      ],
      "stateMutability": "view",
      "type": "function",
      "constant": true
    },
    {
      "inputs": [
        {
          "internalType": "uint256",
          "name": "_amountWhished",
          "type": "uint256"
        },
        {
          "internalType": "uint256",
          "name": "_idItemSold",
          "type": "uint256"
        }
      ],
      "name": "setMarketOrder",
      "outputs": [],
      "stateMutability": "nonpayable",
      "type": "function"
    },
    {
      "inputs": [
        {
          "internalType": "uint256",
          "name": "_amountWhished",
          "type": "uint256"
        },
        {
          "internalType": "uint256",
          "name": "_idItemSold",
          "type": "uint256"
        },
        {
          "internalType": "address",
          "name": "_whitelistAddress",
          "type": "address"
        }
      ],
      "name": "setMarketOrderWhitelisted",
      "outputs": [],
      "stateMutability": "nonpayable",
      "type": "function"
    },
    {
      "inputs": [
        {
          "internalType": "uint256",
          "name": "_idOrder",
          "type": "uint256"
        }
      ],
      "name": "getOrder",
      "outputs": [],
      "stateMutability": "payable",
      "type": "function",
      "payable": true
    },
    {
      "inputs": [
        {
          "internalType": "uint256",
          "name": "_idOrder",
          "type": "uint256"
        }
      ],
      "name": "getWhitelistedOrder",
      "outputs": [],
      "stateMutability": "payable",
      "type": "function",
      "payable": true
    },
    {
      "inputs": [
        {
          "internalType": "uint256",
          "name": "_idOrder",
          "type": "uint256"
        }
      ],
      "name": "cancelOrder",
      "outputs": [],
      "stateMutability": "nonpayable",
      "type": "function"
    },
    {
      "inputs": [],
      "name": "withdrawAmount",
      "outputs": [],
      "stateMutability": "nonpayable",
      "type": "function"
    }
  ],
  "bytecode": "0x60806040526001600e556002600f5560036010556001601355670de0b6b3a76400006014553480156200003157600080fd5b506040805180820182526007815266706f77556e697160c81b602080830191825283518085019094526003845262504f5760e81b9084015281519192916200007c916000916200011d565b508051620000929060019060208401906200011d565b505050620000af620000a9620000c760201b60201c565b620000cb565b600b80546001600160a01b0319163317905562000200565b3390565b600a80546001600160a01b038381166001600160a01b0319831681179093556040519116919082907f8be0079c531659141344cd1fd0a4f28419497f9722a3daafe3b4186f6b6457e090600090a35050565b8280546200012b90620001c3565b90600052602060002090601f0160209004810192826200014f57600085556200019a565b82601f106200016a57805160ff19168380011785556200019a565b828001600101855582156200019a579182015b828111156200019a5782518255916020019190600101906200017d565b50620001a8929150620001ac565b5090565b5b80821115620001a85760008155600101620001ad565b600281046001821680620001d857607f821691505b60208210811415620001fa57634e487b7160e01b600052602260045260246000fd5b50919050565b614abe80620002106000396000f3fe60806040526004361061025c5760003560e01c806370b247fa11610144578063bfb231d2116100b6578063dd4670641161007a578063dd46706414610733578063e985e9c514610753578063e9dbd45a14610773578063ec31efed14610793578063f2fde38b146107b3578063fd12f098146107d35761025c565b8063bfb231d21461067f578063c87b56dd146106b2578063c98ebd1a146106d2578063d09ef24114610700578063d9f92329146107135761025c565b806395d89b411161010857806395d89b41146105d75780639b008e47146105ec578063a22cb4651461060c578063b2e83bfd1461062c578063b6a402961461063f578063b88d4fde1461065f5761025c565b806370b247fa1461053d578063715018a61461055d5780637538822e1461057257806375adb7fd146105925780638da5cb5b146105c25761025c565b80633d18b912116101dd578063534844a2116101a1578063534844a214610488578063537b777c1461049d5780636198e339146104bd5780636352211e146104dd578063661c2b60146104fd57806370a082311461051d5761025c565b80633d18b912146103e657806342842e0e146103fb5780634ae666311461041b5780634f6ccce714610448578063514fcac7146104685761025c565b80631f571089116102245780631f5710891461032a57806323b872dd1461034a5780632f745c591461036a578063346970f91461038a57806335f3bde0146103b95761025c565b806301ffc9a71461026157806306fdde0314610297578063081812fc146102b9578063095ea7b3146102e657806318160ddd14610308575b600080fd5b34801561026d57600080fd5b5061028161027c366004613a6a565b6107e8565b60405161028e9190613e7a565b60405180910390f35b3480156102a357600080fd5b506102ac610815565b60405161028e9190613e85565b3480156102c557600080fd5b506102d96102d4366004613b2f565b6108a7565b60405161028e9190613d65565b3480156102f257600080fd5b50610306610301366004613a41565b6108f3565b005b34801561031457600080fd5b5061031d61098b565b60405161028e91906148f4565b34801561033657600080fd5b50610306610345366004613b47565b610991565b34801561035657600080fd5b50610306610365366004613909565b610bb9565b34801561037657600080fd5b5061031d610385366004613a41565b610bf1565b34801561039657600080fd5b506103aa6103a5366004613b2f565b610c43565b60405161028e939291906148fd565b3480156103c557600080fd5b506103d96103d4366004613b2f565b610c67565b60405161028e9190613df5565b3480156103f257600080fd5b50610306610eb1565b34801561040757600080fd5b50610306610416366004613909565b61111c565b34801561042757600080fd5b5061043b6104363660046138bd565b611137565b60405161028e9190613e42565b34801561045457600080fd5b5061031d610463366004613b2f565b6111f4565b34801561047457600080fd5b50610306610483366004613b2f565b61124f565b34801561049457600080fd5b50610306611314565b3480156104a957600080fd5b506103066104b8366004613bb3565b6113d5565b3480156104c957600080fd5b506103066104d8366004613b2f565b61154f565b3480156104e957600080fd5b506102d96104f8366004613b2f565b611606565b34801561050957600080fd5b5061031d610518366004613b2f565b61163b565b34801561052957600080fd5b5061031d6105383660046138bd565b61164d565b34801561054957600080fd5b5061031d6105583660046138bd565b611691565b34801561056957600080fd5b506103066116a3565b34801561057e57600080fd5b5061030661058d366004613ad4565b6116ec565b34801561059e57600080fd5b506105b26105ad3660046138bd565b611887565b60405161028e9493929190613e98565b3480156105ce57600080fd5b506102d9611941565b3480156105e357600080fd5b506102ac611950565b3480156105f857600080fd5b506103066106073660046139f6565b61195f565b34801561061857600080fd5b506103066106273660046139bc565b611a9c565b61030661063a366004613b2f565b611b6a565b34801561064b57600080fd5b5061030661065a366004613b92565b611cc2565b34801561066b57600080fd5b5061030661067a366004613944565b6120ad565b34801561068b57600080fd5b5061069f61069a366004613b2f565b6120ec565b60405161028e9796959493929190613ecd565b3480156106be57600080fd5b506102ac6106cd366004613b2f565b6121d1565b3480156106de57600080fd5b506106f26106ed366004613b2f565b612254565b60405161028e929190613db6565b61030661070e366004613b2f565b61227b565b34801561071f57600080fd5b5061031d61072e366004613bde565b6122e2565b34801561073f57600080fd5b5061030661074e366004613b2f565b6125eb565b34801561075f57600080fd5b5061028161076e3660046138d7565b61267e565b34801561077f57600080fd5b506102d961078e366004613aa2565b6126ac565b34801561079f57600080fd5b506103066107ae366004613b92565b6126d2565b3480156107bf57600080fd5b506103066107ce3660046138bd565b6127f7565b3480156107df57600080fd5b5061043b612865565b60006001600160e01b0319821663780e9d6360e01b148061080d575061080d82612bb2565b90505b919050565b606060008054610824906149c6565b80601f0160208091040260200160405190810160405280929190818152602001828054610850906149c6565b801561089d5780601f106108725761010080835404028352916020019161089d565b820191906000526020600020905b81548152906001019060200180831161088057829003601f168201915b5050505050905090565b60006108b282612bf2565b6108d75760405162461bcd60e51b81526004016108ce90614503565b60405180910390fd5b506000908152600460205260409020546001600160a01b031690565b60006108fe82611606565b9050806001600160a01b0316836001600160a01b031614156109325760405162461bcd60e51b81526004016108ce90614646565b806001600160a01b0316610944612c0f565b6001600160a01b0316148061096057506109608161076e612c0f565b61097c5760405162461bcd60e51b81526004016108ce906142cf565b6109868383612c13565b505050565b60085490565b610999612c0f565b6001600160a01b03166109aa611941565b6001600160a01b0316146109d05760405162461bcd60e51b81526004016108ce9061454f565b601154600e546000918291829182918290891415610a20576109f188612c81565b9550610a19604051806040016040528060058152602001643830b832b960d91b815250612cba565b9450600290505b600f54891415610a3a57610a3388612cba565b9450600290505b601054891415610a5457610a4d88612c81565b9550600190505b60126000610a628888612cfe565b8152602001908152602001600020546001610a7d9190614921565b9350610a8a868686612d17565b92508360126000610a9b8989612cfe565b8152602081019190915260400160002055610ab63383612d42565b6040805160e08101825289815260ff808416602080840191909152908a16928201929092526060810184905260808101859052600060a0820181905260c0820181905260118054600181018255915281518051929360059092027f31ecc21a745e3968a04e9570e4425bc18fa8019c68028196b546d1669c200c680192610b409284920190613768565b506020820151600182018054604085015160ff90811661010090810261ff00199290951660ff1993841617821694909417909255606085015160028501556080850151600385015560a08501516004909401805460c0909601511515909302931515941693909317909216179055505050505050505050565b610bca610bc4612c0f565b82612d60565b610be65760405162461bcd60e51b81526004016108ce906146be565b610986838383612ddd565b6000610bfc8361164d565b8210610c1a5760405162461bcd60e51b81526004016108ce90613fac565b506001600160a01b03919091166000908152600660209081526040808320938352929052205490565b60176020526000908152604090208054600182015460029092015490919060ff1683565b606060008060005b601154811015610d3d57600b54601180546001600160a01b0390921691610cc6919084908110610caf57634e487b7160e01b600052603260045260246000fd5b906000526020600020906005020160020154611606565b6001600160a01b031614158015610d1857508460118281548110610cfa57634e487b7160e01b600052603260045260246000fd5b6000918252602090912060059091020160010154610100900460ff16145b15610d2b5782610d2781614a01565b9350505b80610d3581614a01565b915050610c6f565b506000826001600160401b03811115610d6657634e487b7160e01b600052604160045260246000fd5b604051908082528060200260200182016040528015610d8f578160200160208202803683370190505b50905060005b601154811015610ea857600b54601180546001600160a01b0390921691610dd5919084908110610caf57634e487b7160e01b600052603260045260246000fd5b6001600160a01b031614158015610e2757508560118281548110610e0957634e487b7160e01b600052603260045260246000fd5b6000918252602090912060059091020160010154610100900460ff16145b15610e9657610e5060118281548110610caf57634e487b7160e01b600052603260045260246000fd5b828481518110610e7057634e487b7160e01b600052603260045260246000fd5b6001600160a01b039092166020928302919091019091015282610e9281614a01565b9350505b80610ea081614a01565b915050610d95565b50949350505050565b600b54610ec6906001600160a01b031661164d565b610ee25760405162461bcd60e51b81526004016108ce90614687565b336000908152600d602052604090206001015462010000900460ff16610f1a5760405162461bcd60e51b81526004016108ce90613f7c565b336000908152600d602052604090206001015460ff16151580610f565750336000908152600d6020526040902060010154610100900460ff1615155b610f725760405162461bcd60e51b81526004016108ce906144cc565b60138054906000610f8283614a01565b9091555050336000908152600d602052604090206001015460ff161561104b57336000908152600d602052604090206001015460ff165b801561102f576000610fcb60016122e2565b600b54909150610fe5906001600160a01b03163383612ddd565b7f685b919316cd6e6eb2dcaf93a1343fad493c1b38394a41031a14c413547c6ad48160405161101491906148f4565b60405180910390a15080611027816149af565b915050610fb9565b50336000908152600d60205260409020600101805460ff191690555b336000908152600d6020526040902060010154610100900460ff161561111a57336000908152600d6020526040902060010154610100900460ff165b80156110fd57600061109960026122e2565b600b549091506110b3906001600160a01b03163383612ddd565b7f685b919316cd6e6eb2dcaf93a1343fad493c1b38394a41031a14c413547c6ad4816040516110e291906148f4565b60405180910390a150806110f5816149af565b915050611087565b50336000908152600d60205260409020600101805461ff00191690555b565b610986838383604051806020016040528060008152506120ad565b606060006111448361164d565b90506000816001600160401b0381111561116e57634e487b7160e01b600052604160045260246000fd5b604051908082528060200260200182016040528015611197578160200160208202803683370190505b50905060005b828110156111ec576111af8582610bf1565b8282815181106111cf57634e487b7160e01b600052603260045260246000fd5b6020908102919091010152806111e481614a01565b91505061119d565b509392505050565b60006111fe61098b565b821061121c5760405162461bcd60e51b81526004016108ce90614790565b6008828154811061123d57634e487b7160e01b600052603260045260246000fd5b90600052602060002001549050919050565b3361125982611606565b6001600160a01b03161461126c57600080fd5b6040805160608101825260008082526020808301828152838501838152868452601783528584209451855590516001850155516002909301805460ff1916931515939093179092556015909152908120805460ff60a01b1916905560118054839081106112e957634e487b7160e01b600052603260045260246000fd5b906000526020600020906005020160040160016101000a81548160ff02191690831515021790555050565b336000908152601660205260409020546113405760405162461bcd60e51b81526004016108ce90614763565b3360008181526016602052604080822054905191929161135f90613d3a565b60006040518083038185875af1925050503d806000811461139c576040519150601f19603f3d011682016040523d82523d6000602084013e6113a1565b606091505b50509050806113c25760405162461bcd60e51b81526004016108ce90614861565b5033600090815260166020526040812055565b336113df83611606565b6001600160a01b0316146114055760405162461bcd60e51b81526004016108ce9061488a565b6011828154811061142657634e487b7160e01b600052603260045260246000fd5b906000526020600020906005020160040160019054906101000a900460ff16156114625760405162461bcd60e51b81526004016108ce90614327565b604080516060810182528381526020808201868152600183850181815260008881526017855286812095518655925185830155516002909401805460ff191694151594909417909355835180850185526001600160a01b0386811682528184018581528884526015909452949091209051815492516001600160a01b031990931694169390931760ff60a01b1916600160a01b9115159190910217909155601180548490811061152257634e487b7160e01b600052603260045260246000fd5b906000526020600020906005020160040160016101000a81548160ff021916908315150217905550505050565b611557612c0f565b6001600160a01b0316611568611941565b6001600160a01b03161461158e5760405162461bcd60e51b81526004016108ce9061454f565b3361159882611606565b6001600160a01b0316146115be5760405162461bcd60e51b81526004016108ce906147dc565b6000601182815481106115e157634e487b7160e01b600052603260045260246000fd5b60009182526020909120600590910201600401805460ff191691151591909117905550565b6000818152600260205260408120546001600160a01b03168061080d5760405162461bcd60e51b81526004016108ce906143f1565b60126020526000908152604090205481565b60006001600160a01b0382166116755760405162461bcd60e51b81526004016108ce906143a7565b506001600160a01b031660009081526003602052604090205490565b60166020526000908152604090205481565b6116ab612c0f565b6001600160a01b03166116bc611941565b6001600160a01b0316146116e25760405162461bcd60e51b81526004016108ce9061454f565b61111a6000612f0a565b600b546001600160a01b031633146117165760405162461bcd60e51b81526004016108ce9061435e565b600d6000600c8560405161172a9190613cbc565b9081526040805160209281900383019020546001600160a01b03168352908201929092520160002060019081015462010000900460ff161515146117805760405162461bcd60e51b81526004016108ce9061470f565b60405180608001604052808481526020018360ff1681526020018260ff16815260200160011515815250600d6000600c866040516117be9190613cbc565b9081526040805160209281900383019020546001600160a01b031683528282019390935291016000208251805191926117fc92849290910190613768565b506020820151600190910180546040808501516060909501511515620100000262ff00001960ff9687166101000261ff00199790961660ff199094169390931795909516939093171692909217909155517faa6183438646fc8bb56f82868ce90c0a5bd1301970b115e976c90c1d696a15509061187a908590613e85565b60405180910390a1505050565b600d602052600090815260409020805481906118a2906149c6565b80601f01602080910402602001604051908101604052809291908181526020018280546118ce906149c6565b801561191b5780601f106118f05761010080835404028352916020019161191b565b820191906000526020600020905b8154815290600101906020018083116118fe57829003601f168201915b5050506001909301549192505060ff808216916101008104821691620100009091041684565b600a546001600160a01b031690565b606060018054610824906149c6565b600b546001600160a01b03163314806119805750336001600160a01b038316145b61199c5760405162461bcd60e51b81526004016108ce906141cf565b600d6000600c836040516119b09190613cbc565b9081526040805160209281900383019020546001600160a01b0316835290820192909252016000206001015462010000900460ff1615611a025760405162461bcd60e51b81526004016108ce90614219565b81600c82604051611a139190613cbc565b908152604080516020928190038301812080546001600160a01b0319166001600160a01b039586161790559285166000908152600d909252902060010180546201000062ff0000199091161790557fd1271c0a878b06e77c2b145e81fda258074d1d9f72d29461da6de567fe185db390611a909084908490613dd1565b60405180910390a15050565b611aa4612c0f565b6001600160a01b0316826001600160a01b03161415611ad55760405162461bcd60e51b81526004016108ce9061419c565b8060056000611ae2612c0f565b6001600160a01b03908116825260208083019390935260409182016000908120918716808252919093529120805460ff191692151592909217909155611b26612c0f565b6001600160a01b03167f17307eab39ab6107e8899845ad3d59bd9653f200f220920489ca2b5937696c3183604051611b5e9190613e7a565b60405180910390a35050565b60008181526017602052604090206002015460ff16611b9b5760405162461bcd60e51b81526004016108ce90613ff7565b600081815260156020526040902054600160a01b900460ff16611bd05760405162461bcd60e51b81526004016108ce9061481f565b6000818152601560205260409020546001600160a01b03163314611c065760405162461bcd60e51b81526004016108ce906148bd565b601454600082815260176020526040902060010154611c25919061494d565b3414611c435760405162461bcd60e51b81526004016108ce9061425a565b3460166000611c5184611606565b6001600160a01b03166001600160a01b0316815260200190815260200160002054611c7c9190614921565b60166000611c8984611606565b6001600160a01b03168152602081019190915260400160002055611cb6611caf82611606565b3383612ddd565b611cbf8161126c565b50565b33611ccc83611606565b6001600160a01b0316148015611cf2575033611ce782611606565b6001600160a01b0316145b611d0e5760405162461bcd60e51b81526004016108ce9061488a565b60118281548110611d2f57634e487b7160e01b600052603260045260246000fd5b600091825260209091206005909102016001015460ff166002148015611d8c575060118181548110611d7157634e487b7160e01b600052603260045260246000fd5b600091825260209091206005909102016001015460ff166002145b611da85760405162461bcd60e51b81526004016108ce90613f18565b611db182612f5c565b8015611dc35750611dc181612f5c565b155b80611de35750611dd282612f5c565b158015611de35750611de381612f5c565b611dff5760405162461bcd60e51b81526004016108ce90613f4a565b6011546040805180820190915260018152600160fd1b6020820152600091908290606090611e2c87612f5c565b15611e8457611e3b8787612fb4565b945060118781548110611e5e57634e487b7160e01b600052603260045260246000fd5b906000526020600020906005020160010160019054906101000a900460ff169250611ed3565b611e8e8688612fb4565b945060118681548110611eb157634e487b7160e01b600052603260045260246000fd5b906000526020600020906005020160010160019054906101000a900460ff1692505b60118781548110611ef457634e487b7160e01b600052603260045260246000fd5b90600052602060002090600502016000018160118881548110611f2757634e487b7160e01b600052603260045260246000fd5b9060005260206000209060050201600001604051602001611f4a93929190613d07565b6040516020818303038152906040529150611f648761309f565b611f6d8661309f565b6040805160e081018252838152600360208083019190915260ff8616928201929092526060810186905260808101879052600060a0820181905260c0820181905260118054600181018255915281518051929360059092027f31ecc21a745e3968a04e9570e4425bc18fa8019c68028196b546d1669c200c680192611ff59284920190613768565b506020820151600182018054604085015160ff90811661010090810261ff00199290951660ff1993841617821694909417909255606085015160028501556080850151600385015560a08501516004909401805460c090960151151590930293151594169390931790921617905561206d3385612d42565b7f073e229b017abef20a1f46a057285c5070d61c6253a90247a0687502f7da518a8460405161209c91906148f4565b60405180910390a150505050505050565b6120be6120b8612c0f565b83612d60565b6120da5760405162461bcd60e51b81526004016108ce906146be565b6120e684848484613136565b50505050565b601181815481106120fc57600080fd5b906000526020600020906005020160009150905080600001805461211f906149c6565b80601f016020809104026020016040519081016040528092919081815260200182805461214b906149c6565b80156121985780601f1061216d57610100808354040283529160200191612198565b820191906000526020600020905b81548152906001019060200180831161217b57829003601f168201915b505050600184015460028501546003860154600490960154949560ff808416966101009485900482169650929450909282821692041687565b60606121dc82612bf2565b6121f85760405162461bcd60e51b81526004016108ce906145cd565b6000612202613169565b90506000815111612222576040518060200160405280600081525061224d565b8061222c8461317b565b60405160200161223d929190613cd8565b6040516020818303038152906040525b9392505050565b6015602052600090815260409020546001600160a01b03811690600160a01b900460ff1682565b60008181526017602052604090206002015460ff166122ac5760405162461bcd60e51b81526004016108ce90613ff7565b600081815260156020526040902054600160a01b900460ff1615611c065760405162461bcd60e51b81526004016108ce9061461c565b6000806000805b600b546122fe906001600160a01b031661164d565b8110156123d557600b5460119061231e906001600160a01b031683610bf1565b8154811061233c57634e487b7160e01b600052603260045260246000fd5b600091825260209091206004600590920201015460ff161580156123b05750600b5460ff861690601190612379906001600160a01b031684610bf1565b8154811061239757634e487b7160e01b600052603260045260246000fd5b600091825260209091206001600590920201015460ff16145b156123c357826123bf81614a01565b9350505b806123cd81614a01565b9150506122e9565b50816123f35760405162461bcd60e51b81526004016108ce9061443a565b6000826001600160401b0381111561241b57634e487b7160e01b600052604160045260246000fd5b604051908082528060200260200182016040528015612444578160200160208202803683370190505b50905060005b600b5461245f906001600160a01b031661164d565b81101561257757600b5460119061247f906001600160a01b031683610bf1565b8154811061249d57634e487b7160e01b600052603260045260246000fd5b600091825260209091206004600590920201015460ff161580156125115750600b5460ff8716906011906124da906001600160a01b031684610bf1565b815481106124f857634e487b7160e01b600052603260045260246000fd5b600091825260209091206001600590920201015460ff16145b1561256557600b5461252c906001600160a01b031682610bf1565b82848151811061254c57634e487b7160e01b600052603260045260246000fd5b60209081029190910101528261256181614a01565b9350505b8061256f81614a01565b91505061244a565b5060008151423360135460405160200161259393929190613d3d565b6040516020818303038152906040528051906020012060001c6125b69190614a1c565b90508181815181106125d857634e487b7160e01b600052603260045260246000fd5b6020026020010151945050505050610810565b6125f3612c0f565b6001600160a01b0316612604611941565b6001600160a01b03161461262a5760405162461bcd60e51b81526004016108ce9061454f565b3361263482611606565b6001600160a01b0316141561265b5760405162461bcd60e51b81526004016108ce906147dc565b6001601182815481106115e157634e487b7160e01b600052603260045260246000fd5b6001600160a01b03918216600090815260056020908152604080832093909416825291909152205460ff1690565b8051602081830181018051600c825292820191909301209152546001600160a01b031681565b336126dc82611606565b6001600160a01b0316146127025760405162461bcd60e51b81526004016108ce9061488a565b6011818154811061272357634e487b7160e01b600052603260045260246000fd5b906000526020600020906005020160040160019054906101000a900460ff161561275f5760405162461bcd60e51b81526004016108ce90614327565b6040805160608101825282815260208082018581526001838501818152600087815260179094529490922092518355518282015591516002909101805460ff191691151591909117905560118054839081106127cb57634e487b7160e01b600052603260045260246000fd5b906000526020600020906005020160040160016101000a81548160ff0219169083151502179055505050565b6127ff612c0f565b6001600160a01b0316612810611941565b6001600160a01b0316146128365760405162461bcd60e51b81526004016108ce9061454f565b6001600160a01b03811661285c5760405162461bcd60e51b81526004016108ce906140a4565b611cbf81612f0a565b606061286f612c0f565b6001600160a01b0316612880611941565b6001600160a01b0316146128a65760405162461bcd60e51b81526004016108ce9061454f565b600b546128bb906001600160a01b031661164d565b6128d75760405162461bcd60e51b81526004016108ce90614121565b600b5460009081906128f1906001600160a01b031661164d565b9050600080826001600160401b0381111561291c57634e487b7160e01b600052604160045260246000fd5b604051908082528060200260200182016040528015612945578160200160208202803683370190505b50905060005b83811015612a1957600b54612969906001600160a01b031682610bf1565b82828151811061298957634e487b7160e01b600052603260045260246000fd5b60200260200101818152505060118282815181106129b757634e487b7160e01b600052603260045260246000fd5b6020026020010151815481106129dd57634e487b7160e01b600052603260045260246000fd5b600091825260209091206004600590920201015460ff1615612a075784612a0381614a01565b9550505b80612a1181614a01565b91505061294b565b506000846001600160401b03811115612a4257634e487b7160e01b600052604160045260246000fd5b604051908082528060200260200182016040528015612a6b578160200160208202803683370190505b5090508051600014612b915760005b84811015612b8b576011838281518110612aa457634e487b7160e01b600052603260045260246000fd5b602002602001015181548110612aca57634e487b7160e01b600052603260045260246000fd5b600091825260209091206004600590920201015460ff1615612b79576011838281518110612b0857634e487b7160e01b600052603260045260246000fd5b602002602001015181548110612b2e57634e487b7160e01b600052603260045260246000fd5b906000526020600020906005020160020154828581518110612b6057634e487b7160e01b600052603260045260246000fd5b602090810291909101015283612b7581614a01565b9450505b80612b8381614a01565b915050612a7a565b50612ba9565b60405162461bcd60e51b81526004016108ce9061402a565b94505050505090565b60006001600160e01b031982166380ac58cd60e01b1480612be357506001600160e01b03198216635b5e139f60e01b145b8061080d575061080d82613295565b6000908152600260205260409020546001600160a01b0316151590565b3390565b600081815260046020526040902080546001600160a01b0319166001600160a01b0384169081179091558190612c4882611606565b6001600160a01b03167f8c5be1e5ebec7d5bd14f71427d1e84f3dd0314c0f7b2291e5b200ac8c7c3b92560405160405180910390a45050565b60006103e882604051602001612c979190613cbc565b6040516020818303038152906040528051906020012060001c61080d9190614a1c565b60006103e782604051602001612cd09190613cbc565b6040516020818303038152906040528051906020012060001c612cf39190614a1c565b61080d906001614921565b600081612d0d846103e861494d565b61224d9190614921565b600081612d248585612cfe565b612d30906103e861494d565b612d3a9190614921565b949350505050565b612d5c8282604051806020016040528060008152506132ae565b5050565b6000612d6b82612bf2565b612d875760405162461bcd60e51b81526004016108ce90614283565b6000612d9283611606565b9050806001600160a01b0316846001600160a01b03161480612dcd5750836001600160a01b0316612dc2846108a7565b6001600160a01b0316145b80612d3a5750612d3a818561267e565b826001600160a01b0316612df082611606565b6001600160a01b031614612e165760405162461bcd60e51b81526004016108ce90614584565b6001600160a01b038216612e3c5760405162461bcd60e51b81526004016108ce90614158565b612e478383836132e1565b612e52600082612c13565b6001600160a01b0383166000908152600360205260408120805460019290612e7b90849061496c565b90915550506001600160a01b0382166000908152600360205260408120805460019290612ea9908490614921565b909155505060008181526002602052604080822080546001600160a01b0319166001600160a01b0386811691821790925591518493918716917fddf252ad1be2c89b69c2b068fc378daa952ba7f163c4a11628f55a4df523b3ef91a4505050565b600a80546001600160a01b038381166001600160a01b0319831681179093556040519116919082907f8be0079c531659141344cd1fd0a4f28419497f9722a3daafe3b4186f6b6457e090600090a35050565b6000620f424060118381548110612f8357634e487b7160e01b600052603260045260246000fd5b906000526020600020906005020160030154612f9f9190614939565b15612fac57506001610810565b506000610810565b60008060118381548110612fd857634e487b7160e01b600052603260045260246000fd5b906000526020600020906005020160030154620f42406011868154811061300f57634e487b7160e01b600052603260045260246000fd5b90600052602060002090600502016003015461302b9190614939565b61303890620f424061494d565b6130429190614921565b90506000601281613056620f424085614a1c565b81526020019081526020016000205460016130719190614921565b9050806130806103e884614939565b61308c906103e861494d565b6130969190614921565b95945050505050565b6001601182815481106130c257634e487b7160e01b600052603260045260246000fd5b60009182526020909120600590910201600401805460ff1916911515919091179055600b546130fc9033906001600160a01b031683612ddd565b7ff626e9712bfc1d05519ae9d87cfe12f82248296f837942a0d818b10080ed4e4c8160405161312b91906148f4565b60405180910390a150565b613141848484612ddd565b61314d8484848461336a565b6120e65760405162461bcd60e51b81526004016108ce90614052565b60408051602081019091526000815290565b6060816131a057506040805180820190915260018152600360fc1b6020820152610810565b8160005b81156131ca57806131b481614a01565b91506131c39050600a83614939565b91506131a4565b6000816001600160401b038111156131f257634e487b7160e01b600052604160045260246000fd5b6040519080825280601f01601f19166020018201604052801561321c576020820181803683370190505b5090505b8415612d3a5761323160018361496c565b915061323e600a86614a1c565b613249906030614921565b60f81b81838151811061326c57634e487b7160e01b600052603260045260246000fd5b60200101906001600160f81b031916908160001a90535061328e600a86614939565b9450613220565b6001600160e01b031981166301ffc9a760e01b14919050565b6132b88383613485565b6132c5600084848461336a565b6109865760405162461bcd60e51b81526004016108ce90614052565b6132ec838383610986565b6001600160a01b0383166133085761330381613564565b61332b565b816001600160a01b0316836001600160a01b03161461332b5761332b83826135a8565b6001600160a01b0382166133475761334281613645565b610986565b826001600160a01b0316826001600160a01b03161461098657610986828261371e565b600061337e846001600160a01b0316613762565b1561347a57836001600160a01b031663150b7a0261339a612c0f565b8786866040518563ffffffff1660e01b81526004016133bc9493929190613d79565b602060405180830381600087803b1580156133d657600080fd5b505af1925050508015613406575060408051601f3d908101601f1916820190925261340391810190613a86565b60015b613460573d808015613434576040519150601f19603f3d011682016040523d82523d6000602084013e613439565b606091505b5080516134585760405162461bcd60e51b81526004016108ce90614052565b805181602001fd5b6001600160e01b031916630a85bd0160e11b149050612d3a565b506001949350505050565b6001600160a01b0382166134ab5760405162461bcd60e51b81526004016108ce90614497565b6134b481612bf2565b156134d15760405162461bcd60e51b81526004016108ce906140ea565b6134dd600083836132e1565b6001600160a01b0382166000908152600360205260408120805460019290613506908490614921565b909155505060008181526002602052604080822080546001600160a01b0319166001600160a01b03861690811790915590518392907fddf252ad1be2c89b69c2b068fc378daa952ba7f163c4a11628f55a4df523b3ef908290a45050565b600880546000838152600960205260408120829055600182018355919091527ff3f7a9fe364faab93b216da50a3214154f22a0a2b415b23a84c8169e8b636ee30155565b600060016135b58461164d565b6135bf919061496c565b600083815260076020526040902054909150808214613612576001600160a01b03841660009081526006602090815260408083208584528252808320548484528184208190558352600790915290208190555b5060009182526007602090815260408084208490556001600160a01b039094168352600681528383209183525290812055565b6008546000906136579060019061496c565b6000838152600960205260408120546008805493945090928490811061368d57634e487b7160e01b600052603260045260246000fd5b9060005260206000200154905080600883815481106136bc57634e487b7160e01b600052603260045260246000fd5b600091825260208083209091019290925582815260099091526040808220849055858252812055600880548061370257634e487b7160e01b600052603160045260246000fd5b6001900381819060005260206000200160009055905550505050565b60006137298361164d565b6001600160a01b039093166000908152600660209081526040808320868452825280832085905593825260079052919091209190915550565b3b151590565b828054613774906149c6565b90600052602060002090601f01602090048101928261379657600085556137dc565b82601f106137af57805160ff19168380011785556137dc565b828001600101855582156137dc579182015b828111156137dc5782518255916020019190600101906137c1565b506137e89291506137ec565b5090565b5b808211156137e857600081556001016137ed565b60006001600160401b038084111561381b5761381b614a5c565b604051601f8501601f19908116603f0116810190828211818310171561384357613843614a5c565b8160405280935085815286868601111561385c57600080fd5b858560208301376000602087830101525050509392505050565b80356001600160a01b038116811461081057600080fd5b600082601f83011261389d578081fd5b61224d83833560208501613801565b803560ff8116811461081057600080fd5b6000602082840312156138ce578081fd5b61224d82613876565b600080604083850312156138e9578081fd5b6138f283613876565b915061390060208401613876565b90509250929050565b60008060006060848603121561391d578081fd5b61392684613876565b925061393460208501613876565b9150604084013590509250925092565b60008060008060808587031215613959578081fd5b61396285613876565b935061397060208601613876565b92506040850135915060608501356001600160401b03811115613991578182fd5b8501601f810187136139a1578182fd5b6139b087823560208401613801565b91505092959194509250565b600080604083850312156139ce578182fd5b6139d783613876565b9150602083013580151581146139eb578182fd5b809150509250929050565b60008060408385031215613a08578182fd5b613a1183613876565b915060208301356001600160401b03811115613a2b578182fd5b613a378582860161388d565b9150509250929050565b60008060408385031215613a53578182fd5b613a5c83613876565b946020939093013593505050565b600060208284031215613a7b578081fd5b813561224d81614a72565b600060208284031215613a97578081fd5b815161224d81614a72565b600060208284031215613ab3578081fd5b81356001600160401b03811115613ac8578182fd5b612d3a8482850161388d565b600080600060608486031215613ae8578283fd5b83356001600160401b03811115613afd578384fd5b613b098682870161388d565b935050613b18602085016138ac565b9150613b26604085016138ac565b90509250925092565b600060208284031215613b40578081fd5b5035919050565b600080600060608486031215613b5b578283fd5b8335925060208401356001600160401b03811115613b77578283fd5b613b838682870161388d565b925050613b26604085016138ac565b60008060408385031215613ba4578182fd5b50508035926020909101359150565b600080600060608486031215613bc7578081fd5b8335925060208401359150613b2660408501613876565b600060208284031215613bef578081fd5b61224d826138ac565b60008151808452613c10816020860160208601614983565b601f01601f19169290920160200192915050565b805460009060028104600180831680613c3e57607f831692505b6020808410821415613c5e57634e487b7160e01b86526022600452602486fd5b818015613c725760018114613c8357613cb0565b60ff19861689528489019650613cb0565b613c8c88614915565b60005b86811015613ca85781548b820152908501908301613c8f565b505084890196505b50505050505092915050565b60008251613cce818460208701614983565b9190910192915050565b60008351613cea818460208801614983565b835190830190613cfe818360208801614983565b01949350505050565b6000613d138286613c24565b8451613d23818360208901614983565b613d2f81830186613c24565b979650505050505050565b90565b92835260609190911b6bffffffffffffffffffffffff19166020830152603482015260540190565b6001600160a01b0391909116815260200190565b6001600160a01b0385811682528416602082015260408101839052608060608201819052600090613dac90830184613bf8565b9695505050505050565b6001600160a01b039290921682521515602082015260400190565b6001600160a01b0383168152604060208201819052600090612d3a90830184613bf8565b6020808252825182820181905260009190848201906040850190845b81811015613e365783516001600160a01b031683529284019291840191600101613e11565b50909695505050505050565b6020808252825182820181905260009190848201906040850190845b81811015613e3657835183529284019291840191600101613e5e565b901515815260200190565b60006020825261224d6020830184613bf8565b600060808252613eab6080830187613bf8565b60ff958616602084015293909416604082015290151560609091015292915050565b600060e08252613ee060e083018a613bf8565b60ff988916602084015296909716604082015260608101949094526080840192909252151560a0830152151560c09091015292915050565b6020808252601890820152774e6f6e20667573696f6e6e61626c6520656c656d656e747360401b604082015260600190565b602080825260189082015277436f6d62696e6174696f6e206e6f7420706f737369626c6560401b604082015260600190565b6020808252601690820152752737ba1030903932b3b4ba32b932b210383630bcb2b960511b604082015260600190565b6020808252602b908201527f455243373231456e756d657261626c653a206f776e657220696e646578206f7560408201526a74206f6620626f756e647360a81b606082015260800190565b6020808252601990820152781d1a1a5cc81bdc99195c88191bd95cc81b9bdd08195e1a5cdd603a1b604082015260600190565b6020808252600e908201526d4e6f206c6f636b65644974656d7360901b604082015260600190565b60208082526032908201527f4552433732313a207472616e7366657220746f206e6f6e20455243373231526560408201527131b2b4bb32b91034b6b83632b6b2b73a32b960711b606082015260800190565b60208082526026908201527f4f776e61626c653a206e6577206f776e657220697320746865207a65726f206160408201526564647265737360d01b606082015260800190565b6020808252601c908201527f4552433732313a20746f6b656e20616c7265616479206d696e74656400000000604082015260600190565b6020808252601d908201527f4e6f206d6f7265206974656d7320696e20746865206461746162617365000000604082015260600190565b60208082526024908201527f4552433732313a207472616e7366657220746f20746865207a65726f206164646040820152637265737360e01b606082015260800190565b60208082526019908201527822a9219b99189d1030b8383937bb32903a379031b0b63632b960391b604082015260600190565b6020808252602a908201527f796f7520617265206e6f7420617574686f72697a656420746f207365742074686040820152691a5cc81858d8dbdd5b9d60b21b606082015260800190565b60208082526021908201527f7468697320706c6179657220697320616c7265616479207265676973746572656040820152601960fa1b606082015260800190565b6020808252600f908201526e1c1c9a58d9481b9bdd08195e1858dd608a1b604082015260600190565b6020808252602c908201527f4552433732313a206f70657261746f7220717565727920666f72206e6f6e657860408201526b34b9ba32b73a103a37b5b2b760a11b606082015260800190565b60208082526038908201527f4552433732313a20617070726f76652063616c6c6572206973206e6f74206f776040820152771b995c881b9bdc88185c1c1c9bdd995908199bdc88185b1b60421b606082015260800190565b6020808252601c908201527f74686973206974656d20697320616c7265616479206f6e20736f6c6400000000604082015260600190565b60208082526029908201527f796f7520617265206e6f7420617574686f72697a656420746f20757064617465604082015268103090383630bcb2b960b91b606082015260800190565b6020808252602a908201527f4552433732313a2062616c616e636520717565727920666f7220746865207a65604082015269726f206164647265737360b01b606082015260800190565b60208082526029908201527f4552433732313a206f776e657220717565727920666f72206e6f6e657869737460408201526832b73a103a37b5b2b760b91b606082015260800190565b6020808252603a908201527f5468657265206973206e6f7420656e6f756768206974656d20617661696c626160408201527f6c652c20706c6561736520636f6d65206261636b206c61746572000000000000606082015260800190565b6020808252818101527f4552433732313a206d696e7420746f20746865207a65726f2061646472657373604082015260600190565b6020808252601a908201527f596f752068617665206e6f207265776172647320746f20676574000000000000604082015260600190565b6020808252602c908201527f4552433732313a20617070726f76656420717565727920666f72206e6f6e657860408201526b34b9ba32b73a103a37b5b2b760a11b606082015260800190565b6020808252818101527f4f776e61626c653a2063616c6c6572206973206e6f7420746865206f776e6572604082015260600190565b60208082526029908201527f4552433732313a207472616e73666572206f6620746f6b656e2074686174206960408201526839903737ba1037bbb760b91b606082015260800190565b6020808252602f908201527f4552433732314d657461646174613a2055524920717565727920666f72206e6f60408201526e3732bc34b9ba32b73a103a37b5b2b760891b606082015260800190565b60208082526010908201526f1bdc99195c881dda1a5d1b1a5cdd195960821b604082015260600190565b60208082526021908201527f4552433732313a20617070726f76616c20746f2063757272656e74206f776e656040820152603960f91b606082015260800190565b6020808252601b908201527f4e6f6e6520617661696c61626c65206974656d20666f72206e6f770000000000604082015260600190565b60208082526031908201527f4552433732313a207472616e736665722063616c6c6572206973206e6f74206f6040820152701ddb995c881b9bdc88185c1c1c9bdd9959607a1b606082015260800190565b60208082526034908201527f706c656173652073657420666972737420616e20457468657265756d206164646040820152733932b9b9903337b9103a3434b990383630bcb2b960611b606082015260800190565b6020808252601390820152726e6f7468696e6720746f20776974686472617760681b604082015260600190565b6020808252602c908201527f455243373231456e756d657261626c653a20676c6f62616c20696e646578206f60408201526b7574206f6620626f756e647360a01b606082015260800190565b60208082526023908201527f4572726f72202c20746f6b656e206f776e6564206f72206e6f6e206578697374604082015262195b9d60ea1b606082015260800190565b60208082526022908201527f4e6f20776974686c697374206164647265737320666f722074686973206f726460408201526132b960f11b606082015260800190565b6020808252600f908201526e1d1c985b9cd9995c8819985a5b1959608a1b604082015260600190565b6020808252601990820152784e6f7420746865206f776e6572206f6620746865206974656d60381b604082015260600190565b6020808252601a908201527f4e6f74207468652073656c656374656420726569636569766572000000000000604082015260600190565b90815260200190565b92835260208301919091521515604082015260600190565b60009081526020902090565b6000821982111561493457614934614a30565b500190565b60008261494857614948614a46565b500490565b600081600019048311821515161561496757614967614a30565b500290565b60008282101561497e5761497e614a30565b500390565b60005b8381101561499e578181015183820152602001614986565b838111156120e65750506000910152565b6000816149be576149be614a30565b506000190190565b6002810460018216806149da57607f821691505b602082108114156149fb57634e487b7160e01b600052602260045260246000fd5b50919050565b6000600019821415614a1557614a15614a30565b5060010190565b600082614a2b57614a2b614a46565b500690565b634e487b7160e01b600052601160045260246000fd5b634e487b7160e01b600052601260045260246000fd5b634e487b7160e01b600052604160045260246000fd5b6001600160e01b031981168114611cbf57600080fdfea2646970667358221220d56fbb1a2f20231cf1eb78df1a17f65e726800c983c0805c6adfa51066a403bf64736f6c63430008010033",
  "immutableReferences": {},
  "source": " // SPDX-License-Identifier: GPL-3.0\r\n\r\npragma solidity 0.8.1;\r\n\r\nimport \"./unlockItems.sol\";\r\n/**\r\n * @title Market \r\n * @notice Here you can sell your items against ETH. You create a selling order and when someone buys it,\r\n * you can come and withdraw your ETH. You can emit whitlested selling orders\r\n * @dev This contract allows the player to exchange his NFT against ETH. Here he can make selling order\r\n * whitlested or not.\r\n */\r\ncontract marketPlace is unlockItems{\r\n    \r\n    ///@dev The basis one which the sold are made.Here everithing is in Ether\r\n\tuint base = 1 ether;\r\n\t\r\n    /**\r\n     * @dev The structure of a market order.\r\n     * @param idItem is the tokenId, \r\n     * @param price requested is the price wished for the items\r\n     * @param active indicate if the order is on or off\r\n     */\r\n\tstruct MarketOrder{\r\n\t\tuint idItem;\r\n\t\tuint priceRequested;\r\n\t\tbool active; \r\n\t}\r\n    \r\n    /**\r\n     * @dev whitelisted Order structure, \r\n     * @param the adress whitelisted\r\n     * @param isActivated indicate if the withelist address is on or off\r\n     */\r\n\tstruct whitelistOrder{\r\n\t\taddress\twhitelistAddress;\r\n\t\tbool isActivated;\r\n\t}\r\n\t\r\n\t///@dev Mapping linking the orderId and the whitelistOrder structure.\r\n\tmapping (uint => whitelistOrder) public orderWithWithelist;\r\n\t\r\n\t///@dev Mapping of the accounts of sellers\r\n\tmapping (address => uint ) public balancePlayer;\r\n\t\r\n\t///@dev Mapping of all the selling orders\r\n\tmapping (uint => MarketOrder) public marketOrders;\r\n\t\r\n\tevent NewMarketOrder (uint idOrder);\r\n\tevent soldMade (uint idOrder);\r\n\tevent orderCanceled(uint idOrder);\r\n\r\n    ///@dev Get a list of all the owners by continent of items. On the front this will make a rank\r\n\tfunction getRankByContinent(uint _numContinent) public view returns(address[] memory) {\r\n\r\n\t\tuint numberItemsOnContinent;\r\n\t\tuint counterOwner;\r\n\r\n\t\tfor (uint i = 0; i < items.length ;i++ ){\r\n\t\t\tif((ownerOf(items[i].tokenId) != _administrator) && items[i].continent == _numContinent ){\r\n\t\t\t\tnumberItemsOnContinent ++;\r\n\t\t\t}\r\n\t\t}\r\n\r\n\t\taddress[] memory ownerOfItem = new address[](numberItemsOnContinent);\r\n\r\n\t\tfor (uint i = 0; i < items.length ;i++ ){\r\n\t\t\tif((ownerOf(items[i].tokenId) != _administrator) && items[i].continent == _numContinent ){\r\n\t\t\t\townerOfItem[counterOwner] = ownerOf(items[i].tokenId);\r\n\t\t\t\tcounterOwner ++;\r\n\t\t\t}\r\n\t\t}\r\n\t\treturn ownerOfItem;\r\n\t}\r\n    \r\n    ///@dev Get access to the customized map of a player\r\n\tfunction getItemsOfPlayer(address _itemsOwner) public view returns(uint[] memory){\r\n\r\n\t\tuint numberItem = balanceOf(_itemsOwner);\r\n\t\tuint[] memory idsItemsOwned = new uint[](numberItem);\r\n\r\n\t\tfor (uint i=0; i < numberItem; i++){\r\n\t\t\tidsItemsOwned[i] = tokenOfOwnerByIndex(_itemsOwner,i);\r\n\t\t}\r\n\r\n\t\treturn idsItemsOwned;\r\n\t}\r\n    \r\n    ///@dev Allows owners to set a market order for selling\r\n    function setMarketOrder(uint _amountWhished, uint _idItemSold) public{\r\n\t\trequire(ownerOf(_idItemSold) == msg.sender, \"Not the owner of the item\");\r\n\t\trequire(!items[_idItemSold].onSold, \"this item is already on sold\");\r\n\r\n\t\tmarketOrders[_idItemSold] = MarketOrder(_idItemSold,_amountWhished, true);\r\n\t\titems[_idItemSold].onSold = true;\r\n\t}\r\n    \r\n    ///@dev Allows owners to set a whitelisted market order\r\n\tfunction setMarketOrderWhitelisted(uint _amountWhished, uint _idItemSold, address _whitelistAddress) public{\r\n\t\trequire(ownerOf(_idItemSold) == msg.sender, \"Not the owner of the item\");\r\n\t\trequire(!items[_idItemSold].onSold, \"this item is already on sold\");\r\n\t\t\r\n\t\tmarketOrders[_idItemSold] = MarketOrder(_idItemSold,_amountWhished, true);\r\n\t\torderWithWithelist[_idItemSold] = whitelistOrder(_whitelistAddress, true);\r\n\t\titems[_idItemSold].onSold = true;\r\n\t}\r\n\t\r\n\t///@dev Allows anyone to buy an existing selling  \r\n\tfunction getOrder(uint _idOrder) public payable{\r\n\t\trequire(marketOrders[_idOrder].active, \"this order does not exist\");\r\n\t\trequire(!orderWithWithelist[_idOrder].isActivated, \"order whitlisted\" );\r\n\t\trequire(msg.value == (marketOrders[_idOrder].priceRequested * base), \"price not exact\");\r\n\r\n\t\tbalancePlayer[ownerOf(_idOrder)] = balancePlayer[ownerOf(_idOrder)] + msg.value;\r\n\t\t_transfer(ownerOf(_idOrder),msg.sender, _idOrder);\r\n\t\t_endOrder(_idOrder);\r\n\t}\r\n\t\r\n    ///@dev Allows the whitlisted address only to get the item \r\n    function getWhitelistedOrder(uint _idOrder) public payable{\r\n\t\trequire(marketOrders[_idOrder].active, \"this order does not exist\");\r\n\t\trequire(orderWithWithelist[_idOrder].isActivated, \"No withlist address for this order\" );\r\n\t\trequire(orderWithWithelist[_idOrder].whitelistAddress == msg.sender , \"Not the selected reiceiver\");\r\n\t\trequire(msg.value == (marketOrders[_idOrder].priceRequested * base), \"price not exact\");\r\n\r\n\t\tbalancePlayer[ownerOf(_idOrder)] = balancePlayer[ownerOf(_idOrder)] + msg.value;\r\n\t\t_transfer(ownerOf(_idOrder),msg.sender, _idOrder);\r\n\t\t_endOrder(_idOrder);\r\n\t}\r\n    \r\n    ///@dev A seller can cancel a pending selling order\r\n\tfunction cancelOrder(uint _idOrder) public {\r\n\t\trequire (ownerOf(_idOrder) == msg.sender);\r\n\t\t\r\n\t\tmarketOrders[_idOrder] = MarketOrder(0,0,false);\r\n\t\torderWithWithelist[_idOrder].isActivated = false;\r\n\t\titems[_idOrder].onSold = false;\r\n\t}\r\n\t\r\n\t///@dev End an order\r\n\tfunction _endOrder(uint _idOrder) private {\r\n\t\t\r\n\t\tmarketOrders[_idOrder] = MarketOrder(0,0,false);\r\n\t\torderWithWithelist[_idOrder].isActivated = false;\r\n\t\titems[_idOrder].onSold = false;\r\n\t}\r\n    \r\n    ///@dev Allows the seller withdraw all his money from selling\r\n\tfunction withdrawAmount() public {\r\n\t\trequire (balancePlayer[msg.sender] != 0, \"nothing to withdraw\");\r\n\t\t(bool success, ) = msg.sender.call{value: balancePlayer[msg.sender]}(\"\");\r\n      \trequire(success, 'transfer failed');\r\n      \tbalancePlayer[msg.sender] = 0;\r\n\t}\r\n}",
  "sourcePath": "C:/Users/fboud/OneDrive/Documents/Alyra/projetFinal/contracts/marketPlace.sol",
  "compiler": {
    "name": "solc",
    "version": "0.8.1+commit.df193b15.Emscripten.clang"
  },
  "schemaVersion": "3.4.1",
  "updatedAt": "2021-07-29T16:02:58.747Z",
  "networkType": "ethereum",
  "devdoc": {
    "details": "This contract allows the player to exchange his NFT against ETH. Here he can make selling order whitlested or not.",
    "kind": "dev",
    "methods": {
      "approve(address,uint256)": {
        "details": "See {IERC721-approve}."
      },
      "balanceOf(address)": {
        "details": "See {IERC721-balanceOf}."
      },
      "cancelOrder(uint256)": {
        "details": "A seller can cancel a pending selling order"
      },
      "createItem(uint256,string,uint8)": {
        "details": "Function allowing to create items. Only the adminstrator can make one"
      },
      "fusionItem(uint256,uint256)": {
        "details": "Make the fusion between two items, create the composition, the new name, continent and tokenId"
      },
      "getApproved(uint256)": {
        "details": "See {IERC721-getApproved}."
      },
      "getAvailableItem(uint8)": {
        "details": "Get an available item in the main database of unlock items. First we create the size of an array, then we fill it with the eligible token  and at the end we send the Id of the won token"
      },
      "getItemsOfPlayer(address)": {
        "details": "Get access to the customized map of a player"
      },
      "getLockedItems()": {
        "details": "Gives to the administrator a list of tokenId locked"
      },
      "getOrder(uint256)": {
        "details": "Allows anyone to buy an existing selling  "
      },
      "getRankByContinent(uint256)": {
        "details": "Get a list of all the owners by continent of items. On the front this will make a rank"
      },
      "getReward()": {
        "details": "Transform the reward as a NFT"
      },
      "getWhitelistedOrder(uint256)": {
        "details": "Allows the whitlisted address only to get the item "
      },
      "isApprovedForAll(address,address)": {
        "details": "See {IERC721-isApprovedForAll}."
      },
      "lock(uint256)": {
        "details": "Administrator locks items"
      },
      "name()": {
        "details": "See {IERC721Metadata-name}."
      },
      "owner()": {
        "details": "Returns the address of the current owner."
      },
      "ownerOf(uint256)": {
        "details": "See {IERC721-ownerOf}."
      },
      "renounceOwnership()": {
        "details": "Leaves the contract without owner. It will not be possible to call `onlyOwner` functions anymore. Can only be called by the current owner. NOTE: Renouncing ownership will leave the contract without an owner, thereby removing any functionality that is only available to the owner."
      },
      "safeTransferFrom(address,address,uint256)": {
        "details": "See {IERC721-safeTransferFrom}."
      },
      "safeTransferFrom(address,address,uint256,bytes)": {
        "details": "See {IERC721-safeTransferFrom}."
      },
      "setApprovalForAll(address,bool)": {
        "details": "See {IERC721-setApprovalForAll}."
      },
      "setMarketOrder(uint256,uint256)": {
        "details": "Allows owners to set a market order for selling"
      },
      "setMarketOrderWhitelisted(uint256,uint256,address)": {
        "details": "Allows owners to set a whitelisted market order"
      },
      "setMultiversePlayer(address,string)": {
        "details": "link a login with a player. The login must be the exact same one than the one used in POW"
      },
      "supportsInterface(bytes4)": {
        "details": "See {IERC165-supportsInterface}."
      },
      "symbol()": {
        "details": "See {IERC721Metadata-symbol}."
      },
      "tokenByIndex(uint256)": {
        "details": "See {IERC721Enumerable-tokenByIndex}."
      },
      "tokenOfOwnerByIndex(address,uint256)": {
        "details": "See {IERC721Enumerable-tokenOfOwnerByIndex}."
      },
      "tokenURI(uint256)": {
        "details": "See {IERC721Metadata-tokenURI}."
      },
      "totalSupply()": {
        "details": "See {IERC721Enumerable-totalSupply}."
      },
      "transferFrom(address,address,uint256)": {
        "details": "See {IERC721-transferFrom}."
      },
      "transferOwnership(address)": {
        "details": "Transfers ownership of the contract to a new account (`newOwner`). Can only be called by the current owner."
      },
      "unlock(uint256)": {
        "details": "Administrator unlocks items"
      },
      "updateMultiversePlayer(string,uint8,uint8)": {
        "details": "Update the data of a registered player. The adnministrator Only can set this. In the future, the oracle will do that"
      },
      "withdrawAmount()": {
        "details": "Allows the seller withdraw all his money from selling"
      }
    },
    "stateVariables": {
      "balancePlayer": {
        "details": "Mapping of the accounts of sellers"
      },
      "base": {
        "details": "The basis one which the sold are made.Here everithing is in Ether"
      },
      "marketOrders": {
        "details": "Mapping of all the selling orders"
      },
      "orderWithWithelist": {
        "details": "Mapping linking the orderId and the whitelistOrder structure."
      }
    },
    "title": "Market ",
    "version": 1
  },
  "userdoc": {
    "kind": "user",
    "methods": {},
    "notice": "Here you can sell your items against ETH. You create a selling order and when someone buys it, you can come and withdraw your ETH. You can emit whitlested selling orders",
    "version": 1
  }
}