{
  "contractName": "marketPlace",
  "abi": [
    {
      "anonymous": false,
      "inputs": [
        {
          "indexed": true,
          "internalType": "address",
          "name": "owner",
          "type": "address"
        },
        {
          "indexed": true,
          "internalType": "address",
          "name": "approved",
          "type": "address"
        },
        {
          "indexed": true,
          "internalType": "uint256",
          "name": "tokenId",
          "type": "uint256"
        }
      ],
      "name": "Approval",
      "type": "event"
    },
    {
      "anonymous": false,
      "inputs": [
        {
          "indexed": true,
          "internalType": "address",
          "name": "owner",
          "type": "address"
        },
        {
          "indexed": true,
          "internalType": "address",
          "name": "operator",
          "type": "address"
        },
        {
          "indexed": false,
          "internalType": "bool",
          "name": "approved",
          "type": "bool"
        }
      ],
      "name": "ApprovalForAll",
      "type": "event"
    },
    {
      "anonymous": false,
      "inputs": [
        {
          "indexed": false,
          "internalType": "address",
          "name": "addressPlayer",
          "type": "address"
        },
        {
          "indexed": false,
          "internalType": "string",
          "name": "loginPlayer",
          "type": "string"
        }
      ],
      "name": "NewPlayerRegistered",
      "type": "event"
    },
    {
      "anonymous": false,
      "inputs": [
        {
          "indexed": true,
          "internalType": "address",
          "name": "previousOwner",
          "type": "address"
        },
        {
          "indexed": true,
          "internalType": "address",
          "name": "newOwner",
          "type": "address"
        }
      ],
      "name": "OwnershipTransferred",
      "type": "event"
    },
    {
      "anonymous": false,
      "inputs": [
        {
          "indexed": true,
          "internalType": "address",
          "name": "from",
          "type": "address"
        },
        {
          "indexed": true,
          "internalType": "address",
          "name": "to",
          "type": "address"
        },
        {
          "indexed": true,
          "internalType": "uint256",
          "name": "tokenId",
          "type": "uint256"
        }
      ],
      "name": "Transfer",
      "type": "event"
    },
    {
      "anonymous": false,
      "inputs": [
        {
          "indexed": false,
          "internalType": "uint256",
          "name": "tokenId",
          "type": "uint256"
        }
      ],
      "name": "fusionnedItemCreate",
      "type": "event"
    },
    {
      "anonymous": false,
      "inputs": [
        {
          "indexed": false,
          "internalType": "uint256",
          "name": "tokenId",
          "type": "uint256"
        }
      ],
      "name": "lockItem",
      "type": "event"
    },
    {
      "anonymous": false,
      "inputs": [
        {
          "indexed": false,
          "internalType": "uint256",
          "name": "tokenId",
          "type": "uint256"
        }
      ],
      "name": "newMarketOrder",
      "type": "event"
    },
    {
      "anonymous": false,
      "inputs": [
        {
          "indexed": false,
          "internalType": "uint256",
          "name": "tokenId",
          "type": "uint256"
        }
      ],
      "name": "newMarketOrderWithlisted",
      "type": "event"
    },
    {
      "anonymous": false,
      "inputs": [
        {
          "indexed": false,
          "internalType": "uint256",
          "name": "tokenId",
          "type": "uint256"
        }
      ],
      "name": "orderCanceled",
      "type": "event"
    },
    {
      "anonymous": false,
      "inputs": [
        {
          "indexed": false,
          "internalType": "string",
          "name": "login",
          "type": "string"
        }
      ],
      "name": "playerUpdated",
      "type": "event"
    },
    {
      "anonymous": false,
      "inputs": [
        {
          "indexed": false,
          "internalType": "string",
          "name": "tokenName",
          "type": "string"
        }
      ],
      "name": "rewardWithdrawn",
      "type": "event"
    },
    {
      "anonymous": false,
      "inputs": [
        {
          "indexed": false,
          "internalType": "uint256",
          "name": "tokenId",
          "type": "uint256"
        }
      ],
      "name": "soldMade",
      "type": "event"
    },
    {
      "anonymous": false,
      "inputs": [
        {
          "indexed": false,
          "internalType": "uint256",
          "name": "tokenId",
          "type": "uint256"
        }
      ],
      "name": "soldMadeWhitelisted",
      "type": "event"
    },
    {
      "inputs": [
        {
          "internalType": "address",
          "name": "to",
          "type": "address"
        },
        {
          "internalType": "uint256",
          "name": "tokenId",
          "type": "uint256"
        }
      ],
      "name": "approve",
      "outputs": [],
      "stateMutability": "nonpayable",
      "type": "function"
    },
    {
      "inputs": [
        {
          "internalType": "address",
          "name": "owner",
          "type": "address"
        }
      ],
      "name": "balanceOf",
      "outputs": [
        {
          "internalType": "uint256",
          "name": "",
          "type": "uint256"
        }
      ],
      "stateMutability": "view",
      "type": "function",
      "constant": true
    },
    {
      "inputs": [
        {
          "internalType": "address",
          "name": "",
          "type": "address"
        }
      ],
      "name": "balancePlayer",
      "outputs": [
        {
          "internalType": "uint256",
          "name": "",
          "type": "uint256"
        }
      ],
      "stateMutability": "view",
      "type": "function",
      "constant": true
    },
    {
      "inputs": [
        {
          "internalType": "uint256",
          "name": "_type",
          "type": "uint256"
        },
        {
          "internalType": "string",
          "name": "_name",
          "type": "string"
        },
        {
          "internalType": "uint8",
          "name": "_continent",
          "type": "uint8"
        }
      ],
      "name": "createItem",
      "outputs": [],
      "stateMutability": "nonpayable",
      "type": "function"
    },
    {
      "inputs": [
        {
          "internalType": "uint256",
          "name": "",
          "type": "uint256"
        }
      ],
      "name": "exemplaireNumbers",
      "outputs": [
        {
          "internalType": "uint256",
          "name": "",
          "type": "uint256"
        }
      ],
      "stateMutability": "view",
      "type": "function",
      "constant": true
    },
    {
      "inputs": [
        {
          "internalType": "uint256",
          "name": "_myItemId1",
          "type": "uint256"
        },
        {
          "internalType": "uint256",
          "name": "_myItemId2",
          "type": "uint256"
        }
      ],
      "name": "fusionItem",
      "outputs": [],
      "stateMutability": "nonpayable",
      "type": "function"
    },
    {
      "inputs": [
        {
          "internalType": "uint256",
          "name": "tokenId",
          "type": "uint256"
        }
      ],
      "name": "getApproved",
      "outputs": [
        {
          "internalType": "address",
          "name": "",
          "type": "address"
        }
      ],
      "stateMutability": "view",
      "type": "function",
      "constant": true
    },
    {
      "inputs": [],
      "name": "getLockedItems",
      "outputs": [
        {
          "internalType": "uint256[]",
          "name": "",
          "type": "uint256[]"
        }
      ],
      "stateMutability": "view",
      "type": "function",
      "constant": true
    },
    {
      "inputs": [],
      "name": "getReward",
      "outputs": [],
      "stateMutability": "nonpayable",
      "type": "function"
    },
    {
      "inputs": [
        {
          "internalType": "address",
          "name": "owner",
          "type": "address"
        },
        {
          "internalType": "address",
          "name": "operator",
          "type": "address"
        }
      ],
      "name": "isApprovedForAll",
      "outputs": [
        {
          "internalType": "bool",
          "name": "",
          "type": "bool"
        }
      ],
      "stateMutability": "view",
      "type": "function",
      "constant": true
    },
    {
      "inputs": [
        {
          "internalType": "uint256",
          "name": "",
          "type": "uint256"
        }
      ],
      "name": "items",
      "outputs": [
        {
          "internalType": "string",
          "name": "name",
          "type": "string"
        },
        {
          "internalType": "uint8",
          "name": "levelItem",
          "type": "uint8"
        },
        {
          "internalType": "uint8",
          "name": "continent",
          "type": "uint8"
        },
        {
          "internalType": "uint256",
          "name": "tokenId",
          "type": "uint256"
        },
        {
          "internalType": "uint256",
          "name": "composition",
          "type": "uint256"
        },
        {
          "internalType": "bool",
          "name": "locked",
          "type": "bool"
        },
        {
          "internalType": "bool",
          "name": "onSold",
          "type": "bool"
        }
      ],
      "stateMutability": "view",
      "type": "function",
      "constant": true
    },
    {
      "inputs": [
        {
          "internalType": "uint256",
          "name": "_Id",
          "type": "uint256"
        }
      ],
      "name": "lock",
      "outputs": [],
      "stateMutability": "nonpayable",
      "type": "function"
    },
    {
      "inputs": [
        {
          "internalType": "uint256",
          "name": "",
          "type": "uint256"
        }
      ],
      "name": "marketOrders",
      "outputs": [
        {
          "internalType": "string",
          "name": "name",
          "type": "string"
        },
        {
          "internalType": "uint8",
          "name": "level",
          "type": "uint8"
        },
        {
          "internalType": "uint256",
          "name": "idItem",
          "type": "uint256"
        },
        {
          "internalType": "uint256",
          "name": "priceRequested",
          "type": "uint256"
        },
        {
          "internalType": "bool",
          "name": "active",
          "type": "bool"
        }
      ],
      "stateMutability": "view",
      "type": "function",
      "constant": true
    },
    {
      "inputs": [
        {
          "internalType": "address",
          "name": "",
          "type": "address"
        }
      ],
      "name": "multiverseData",
      "outputs": [
        {
          "internalType": "string",
          "name": "login",
          "type": "string"
        },
        {
          "internalType": "uint8",
          "name": "rewardLv1",
          "type": "uint8"
        },
        {
          "internalType": "uint8",
          "name": "rewardLv2",
          "type": "uint8"
        },
        {
          "internalType": "bool",
          "name": "isRegistered",
          "type": "bool"
        }
      ],
      "stateMutability": "view",
      "type": "function",
      "constant": true
    },
    {
      "inputs": [
        {
          "internalType": "string",
          "name": "",
          "type": "string"
        }
      ],
      "name": "multiverseIds",
      "outputs": [
        {
          "internalType": "address",
          "name": "",
          "type": "address"
        }
      ],
      "stateMutability": "view",
      "type": "function",
      "constant": true
    },
    {
      "inputs": [],
      "name": "name",
      "outputs": [
        {
          "internalType": "string",
          "name": "",
          "type": "string"
        }
      ],
      "stateMutability": "view",
      "type": "function",
      "constant": true
    },
    {
      "inputs": [
        {
          "internalType": "uint256",
          "name": "",
          "type": "uint256"
        }
      ],
      "name": "orderWithWithelist",
      "outputs": [
        {
          "internalType": "string",
          "name": "name",
          "type": "string"
        },
        {
          "internalType": "uint8",
          "name": "level",
          "type": "uint8"
        },
        {
          "internalType": "uint256",
          "name": "idItem",
          "type": "uint256"
        },
        {
          "internalType": "uint256",
          "name": "priceRequested",
          "type": "uint256"
        },
        {
          "internalType": "address",
          "name": "whitelistAddress",
          "type": "address"
        },
        {
          "internalType": "bool",
          "name": "active",
          "type": "bool"
        }
      ],
      "stateMutability": "view",
      "type": "function",
      "constant": true
    },
    {
      "inputs": [],
      "name": "owner",
      "outputs": [
        {
          "internalType": "address",
          "name": "",
          "type": "address"
        }
      ],
      "stateMutability": "view",
      "type": "function",
      "constant": true
    },
    {
      "inputs": [
        {
          "internalType": "uint256",
          "name": "tokenId",
          "type": "uint256"
        }
      ],
      "name": "ownerOf",
      "outputs": [
        {
          "internalType": "address",
          "name": "",
          "type": "address"
        }
      ],
      "stateMutability": "view",
      "type": "function",
      "constant": true
    },
    {
      "inputs": [],
      "name": "renounceOwnership",
      "outputs": [],
      "stateMutability": "nonpayable",
      "type": "function"
    },
    {
      "inputs": [
        {
          "internalType": "address",
          "name": "from",
          "type": "address"
        },
        {
          "internalType": "address",
          "name": "to",
          "type": "address"
        },
        {
          "internalType": "uint256",
          "name": "tokenId",
          "type": "uint256"
        }
      ],
      "name": "safeTransferFrom",
      "outputs": [],
      "stateMutability": "nonpayable",
      "type": "function"
    },
    {
      "inputs": [
        {
          "internalType": "address",
          "name": "from",
          "type": "address"
        },
        {
          "internalType": "address",
          "name": "to",
          "type": "address"
        },
        {
          "internalType": "uint256",
          "name": "tokenId",
          "type": "uint256"
        },
        {
          "internalType": "bytes",
          "name": "_data",
          "type": "bytes"
        }
      ],
      "name": "safeTransferFrom",
      "outputs": [],
      "stateMutability": "nonpayable",
      "type": "function"
    },
    {
      "inputs": [
        {
          "internalType": "address",
          "name": "operator",
          "type": "address"
        },
        {
          "internalType": "bool",
          "name": "approved",
          "type": "bool"
        }
      ],
      "name": "setApprovalForAll",
      "outputs": [],
      "stateMutability": "nonpayable",
      "type": "function"
    },
    {
      "inputs": [
        {
          "internalType": "address",
          "name": "_addressPlayer",
          "type": "address"
        },
        {
          "internalType": "string",
          "name": "_login",
          "type": "string"
        }
      ],
      "name": "setMultiversePlayer",
      "outputs": [],
      "stateMutability": "nonpayable",
      "type": "function"
    },
    {
      "inputs": [
        {
          "internalType": "bytes4",
          "name": "interfaceId",
          "type": "bytes4"
        }
      ],
      "name": "supportsInterface",
      "outputs": [
        {
          "internalType": "bool",
          "name": "",
          "type": "bool"
        }
      ],
      "stateMutability": "view",
      "type": "function",
      "constant": true
    },
    {
      "inputs": [],
      "name": "symbol",
      "outputs": [
        {
          "internalType": "string",
          "name": "",
          "type": "string"
        }
      ],
      "stateMutability": "view",
      "type": "function",
      "constant": true
    },
    {
      "inputs": [
        {
          "internalType": "uint256",
          "name": "index",
          "type": "uint256"
        }
      ],
      "name": "tokenByIndex",
      "outputs": [
        {
          "internalType": "uint256",
          "name": "",
          "type": "uint256"
        }
      ],
      "stateMutability": "view",
      "type": "function",
      "constant": true
    },
    {
      "inputs": [
        {
          "internalType": "address",
          "name": "owner",
          "type": "address"
        },
        {
          "internalType": "uint256",
          "name": "index",
          "type": "uint256"
        }
      ],
      "name": "tokenOfOwnerByIndex",
      "outputs": [
        {
          "internalType": "uint256",
          "name": "",
          "type": "uint256"
        }
      ],
      "stateMutability": "view",
      "type": "function",
      "constant": true
    },
    {
      "inputs": [
        {
          "internalType": "uint256",
          "name": "tokenId",
          "type": "uint256"
        }
      ],
      "name": "tokenURI",
      "outputs": [
        {
          "internalType": "string",
          "name": "",
          "type": "string"
        }
      ],
      "stateMutability": "view",
      "type": "function",
      "constant": true
    },
    {
      "inputs": [],
      "name": "totalSupply",
      "outputs": [
        {
          "internalType": "uint256",
          "name": "",
          "type": "uint256"
        }
      ],
      "stateMutability": "view",
      "type": "function",
      "constant": true
    },
    {
      "inputs": [
        {
          "internalType": "address",
          "name": "from",
          "type": "address"
        },
        {
          "internalType": "address",
          "name": "to",
          "type": "address"
        },
        {
          "internalType": "uint256",
          "name": "tokenId",
          "type": "uint256"
        }
      ],
      "name": "transferFrom",
      "outputs": [],
      "stateMutability": "nonpayable",
      "type": "function"
    },
    {
      "inputs": [
        {
          "internalType": "address",
          "name": "newOwner",
          "type": "address"
        }
      ],
      "name": "transferOwnership",
      "outputs": [],
      "stateMutability": "nonpayable",
      "type": "function"
    },
    {
      "inputs": [
        {
          "internalType": "uint256",
          "name": "_Id",
          "type": "uint256"
        }
      ],
      "name": "unlock",
      "outputs": [],
      "stateMutability": "nonpayable",
      "type": "function"
    },
    {
      "inputs": [
        {
          "internalType": "string",
          "name": "_login",
          "type": "string"
        },
        {
          "internalType": "uint8",
          "name": "_rewardLv1",
          "type": "uint8"
        },
        {
          "internalType": "uint8",
          "name": "_rewardLv2",
          "type": "uint8"
        }
      ],
      "name": "updateMultiversePlayer",
      "outputs": [],
      "stateMutability": "nonpayable",
      "type": "function"
    },
    {
      "inputs": [
        {
          "internalType": "uint256",
          "name": "_numContinent",
          "type": "uint256"
        }
      ],
      "name": "getRankByContinent",
      "outputs": [
        {
          "internalType": "address[]",
          "name": "",
          "type": "address[]"
        }
      ],
      "stateMutability": "view",
      "type": "function",
      "constant": true
    },
    {
      "inputs": [
        {
          "internalType": "address",
          "name": "_itemsOwner",
          "type": "address"
        }
      ],
      "name": "getItemsOfPlayer",
      "outputs": [
        {
          "internalType": "uint256[]",
          "name": "",
          "type": "uint256[]"
        }
      ],
      "stateMutability": "view",
      "type": "function",
      "constant": true
    },
    {
      "inputs": [
        {
          "internalType": "uint256",
          "name": "_amountWhished",
          "type": "uint256"
        },
        {
          "internalType": "uint256",
          "name": "_idItemSold",
          "type": "uint256"
        }
      ],
      "name": "setMarketOrder",
      "outputs": [],
      "stateMutability": "nonpayable",
      "type": "function"
    },
    {
      "inputs": [
        {
          "internalType": "uint256",
          "name": "_amountWhished",
          "type": "uint256"
        },
        {
          "internalType": "uint256",
          "name": "_idItemSold",
          "type": "uint256"
        },
        {
          "internalType": "address",
          "name": "_whitelistAddress",
          "type": "address"
        }
      ],
      "name": "setMarketOrderWhitelisted",
      "outputs": [],
      "stateMutability": "nonpayable",
      "type": "function"
    },
    {
      "inputs": [
        {
          "internalType": "uint256",
          "name": "_idOrder",
          "type": "uint256"
        }
      ],
      "name": "getOrder",
      "outputs": [],
      "stateMutability": "payable",
      "type": "function",
      "payable": true
    },
    {
      "inputs": [
        {
          "internalType": "uint256",
          "name": "_idOrder",
          "type": "uint256"
        }
      ],
      "name": "getWhitelistedOrder",
      "outputs": [],
      "stateMutability": "payable",
      "type": "function",
      "payable": true
    },
    {
      "inputs": [
        {
          "internalType": "uint256",
          "name": "_idOrder",
          "type": "uint256"
        }
      ],
      "name": "cancelOrder",
      "outputs": [],
      "stateMutability": "nonpayable",
      "type": "function"
    },
    {
      "inputs": [],
      "name": "withdrawAmount",
      "outputs": [],
      "stateMutability": "nonpayable",
      "type": "function"
    }
  ],
  "bytecode": "0x60806040526001600e556002600f5560036010556001601355670de0b6b3a76400006014553480156200003157600080fd5b506040805180820182526006815265141bddd3919560d21b60208083019182528351808501909452600484526312d3919560e21b9084015281519192916200007c916000916200011d565b508051620000929060019060208401906200011d565b505050620000af620000a9620000c760201b60201c565b620000cb565b600b80546001600160a01b0319163317905562000200565b3390565b600a80546001600160a01b038381166001600160a01b0319831681179093556040519116919082907f8be0079c531659141344cd1fd0a4f28419497f9722a3daafe3b4186f6b6457e090600090a35050565b8280546200012b90620001c3565b90600052602060002090601f0160209004810192826200014f57600085556200019a565b82601f106200016a57805160ff19168380011785556200019a565b828001600101855582156200019a579182015b828111156200019a5782518255916020019190600101906200017d565b50620001a8929150620001ac565b5090565b5b80821115620001a85760008155600101620001ad565b600281046001821680620001d857607f821691505b60208210811415620001fa57634e487b7160e01b600052602260045260246000fd5b50919050565b61522280620002106000396000f3fe6080604052600436106102515760003560e01c806370b247fa11610139578063b88d4fde116100b6578063dd4670641161007a578063dd4670641461070e578063e985e9c51461072e578063e9dbd45a1461074e578063ec31efed1461076e578063f2fde38b1461078e578063fd12f098146107ae57610251565b8063b88d4fde14610656578063bfb231d214610676578063c87b56dd146106a9578063c98ebd1a146106c9578063d09ef241146106fb57610251565b806395d89b41116100fd57806395d89b41146105ce5780639b008e47146105e3578063a22cb46514610603578063b2e83bfd14610623578063b6a402961461063657610251565b806370b247fa14610534578063715018a6146105545780637538822e1461056957806375adb7fd146105895780638da5cb5b146105b957610251565b80633d18b912116101d2578063534844a211610196578063534844a21461047f578063537b777c146104945780636198e339146104b45780636352211e146104d4578063661c2b60146104f457806370a082311461051457610251565b80633d18b912146103dd57806342842e0e146103f25780634ae66631146104125780634f6ccce71461043f578063514fcac71461045f57610251565b80631f571089116102195780631f5710891461031f57806323b872dd1461033f5780632f745c591461035f578063346970f91461037f57806335f3bde0146103b057610251565b806301ffc9a71461025657806306fdde031461028c578063081812fc146102ae578063095ea7b3146102db57806318160ddd146102fd575b600080fd5b34801561026257600080fd5b50610276610271366004614114565b6107c3565b60405161028391906144c6565b60405180910390f35b34801561029857600080fd5b506102a16107f0565b60405161028391906144d1565b3480156102ba57600080fd5b506102ce6102c93660046141d9565b610882565b60405161028391906143cc565b3480156102e757600080fd5b506102fb6102f63660046140eb565b6108ce565b005b34801561030957600080fd5b50610312610966565b604051610283919061507c565b34801561032b57600080fd5b506102fb61033a3660046141f1565b61096c565b34801561034b57600080fd5b506102fb61035a366004613fb3565b610bd1565b34801561036b57600080fd5b5061031261037a3660046140eb565b610c09565b34801561038b57600080fd5b5061039f61039a3660046141d9565b610c5b565b60405161028395949392919061452e565b3480156103bc57600080fd5b506103d06103cb3660046141d9565b610d18565b6040516102839190614441565b3480156103e957600080fd5b506102fb610f62565b3480156103fe57600080fd5b506102fb61040d366004613fb3565b61122f565b34801561041e57600080fd5b5061043261042d366004613f67565b61124a565b604051610283919061448e565b34801561044b57600080fd5b5061031261045a3660046141d9565b611307565b34801561046b57600080fd5b506102fb61047a3660046141d9565b611362565b34801561048b57600080fd5b506102fb61140d565b3480156104a057600080fd5b506102fb6104af36600461425d565b6114ce565b3480156104c057600080fd5b506102fb6104cf3660046141d9565b6117ad565b3480156104e057600080fd5b506102ce6104ef3660046141d9565b611864565b34801561050057600080fd5b5061031261050f3660046141d9565b611899565b34801561052057600080fd5b5061031261052f366004613f67565b6118ab565b34801561054057600080fd5b5061031261054f366004613f67565b6118ef565b34801561056057600080fd5b506102fb611901565b34801561057557600080fd5b506102fb61058436600461417e565b61194a565b34801561059557600080fd5b506105a96105a4366004613f67565b611aca565b604051610283949392919061456a565b3480156105c557600080fd5b506102ce611b84565b3480156105da57600080fd5b506102a1611b93565b3480156105ef57600080fd5b506102fb6105fe3660046140a0565b611ba2565b34801561060f57600080fd5b506102fb61061e366004614066565b611d08565b6102fb6106313660046141d9565b611dd6565b34801561064257600080fd5b506102fb61065136600461423c565b611fac565b34801561066257600080fd5b506102fb610671366004613fee565b612397565b34801561068257600080fd5b506106966106913660046141d9565b6123d6565b604051610283979695949392919061459f565b3480156106b557600080fd5b506102a16106c43660046141d9565b6124bb565b3480156106d557600080fd5b506106e96106e43660046141d9565b61253e565b604051610283969594939291906144e4565b6102fb6107093660046141d9565b61260d565b34801561071a57600080fd5b506102fb6107293660046141d9565b6127a3565b34801561073a57600080fd5b50610276610749366004613f81565b612835565b34801561075a57600080fd5b506102ce61076936600461414c565b612863565b34801561077a57600080fd5b506102fb61078936600461423c565b612889565b34801561079a57600080fd5b506102fb6107a9366004613f67565b612b2a565b3480156107ba57600080fd5b50610432612b9b565b60006001600160e01b0319821663780e9d6360e01b14806107e857506107e882612e9b565b90505b919050565b6060600080546107ff9061512a565b80601f016020809104026020016040519081016040528092919081815260200182805461082b9061512a565b80156108785780601f1061084d57610100808354040283529160200191610878565b820191906000526020600020905b81548152906001019060200180831161085b57829003601f168201915b5050505050905090565b600061088d82612edb565b6108b25760405162461bcd60e51b81526004016108a990614c61565b60405180910390fd5b506000908152600460205260409020546001600160a01b031690565b60006108d982611864565b9050806001600160a01b0316836001600160a01b0316141561090d5760405162461bcd60e51b81526004016108a990614ddb565b806001600160a01b031661091f612ef8565b6001600160a01b0316148061093b575061093b81610749612ef8565b6109575760405162461bcd60e51b81526004016108a990614a2d565b6109618383612efc565b505050565b60085490565b610974612ef8565b6001600160a01b0316610985611b84565b6001600160a01b0316146109ab5760405162461bcd60e51b81526004016108a990614ce4565b826109c85760405162461bcd60e51b81526004016108a9906149aa565b60ff81166109e85760405162461bcd60e51b81526004016108a9906148c3565b601154600e546000918291829182918290891415610a3857610a0988612f6a565b9550610a31604051806040016040528060058152602001643830b832b960d91b815250612fa3565b9450600290505b600f54891415610a5257610a4b88612fa3565b9450600290505b601054891415610a6c57610a6588612f6a565b9550600190505b60126000610a7a8888612fe7565b8152602001908152602001600020546001610a959190615085565b9350610aa2868686613000565b92508360126000610ab38989612fe7565b8152602081019190915260400160002055610ace338361302b565b6040805160e08101825289815260ff808416602080840191909152908a16928201929092526060810184905260808101859052600060a0820181905260c0820181905260118054600181018255915281518051929360059092027f31ecc21a745e3968a04e9570e4425bc18fa8019c68028196b546d1669c200c680192610b589284920190613dda565b506020820151600182018054604085015160ff90811661010090810261ff00199290951660ff1993841617821694909417909255606085015160028501556080850151600385015560a08501516004909401805460c0909601511515909302931515941693909317909216179055505050505050505050565b610be2610bdc612ef8565b82613049565b610bfe5760405162461bcd60e51b81526004016108a990614e53565b6109618383836130c6565b6000610c14836118ab565b8210610c325760405162461bcd60e51b81526004016108a9906146ff565b506001600160a01b03919091166000908152600660209081526040808320938352929052205490565b601760205260009081526040902080548190610c769061512a565b80601f0160208091040260200160405190810160405280929190818152602001828054610ca29061512a565b8015610cef5780601f10610cc457610100808354040283529160200191610cef565b820191906000526020600020905b815481529060010190602001808311610cd257829003601f168201915b505050600184015460028501546003860154600490960154949560ff9283169591945092501685565b606060008060005b601154811015610dee57600b54601180546001600160a01b0390921691610d77919084908110610d6057634e487b7160e01b600052603260045260246000fd5b906000526020600020906005020160020154611864565b6001600160a01b031614158015610dc957508460118281548110610dab57634e487b7160e01b600052603260045260246000fd5b6000918252602090912060059091020160010154610100900460ff16145b15610ddc5782610dd881615165565b9350505b80610de681615165565b915050610d20565b506000826001600160401b03811115610e1757634e487b7160e01b600052604160045260246000fd5b604051908082528060200260200182016040528015610e40578160200160208202803683370190505b50905060005b601154811015610f5957600b54601180546001600160a01b0390921691610e86919084908110610d6057634e487b7160e01b600052603260045260246000fd5b6001600160a01b031614158015610ed857508560118281548110610eba57634e487b7160e01b600052603260045260246000fd5b6000918252602090912060059091020160010154610100900460ff16145b15610f4757610f0160118281548110610d6057634e487b7160e01b600052603260045260246000fd5b828481518110610f2157634e487b7160e01b600052603260045260246000fd5b6001600160a01b039092166020928302919091019091015282610f4381615165565b9350505b80610f5181615165565b915050610e46565b50949350505050565b600b54610f77906001600160a01b03166118ab565b610f935760405162461bcd60e51b81526004016108a990614e1c565b336000908152600d602052604090206001015462010000900460ff16610fcb5760405162461bcd60e51b81526004016108a9906146cf565b336000908152600d602052604090206001015460ff161515806110075750336000908152600d6020526040902060010154610100900460ff1615155b6110235760405162461bcd60e51b81526004016108a990614c2a565b6013805490600061103383615165565b9091555050336000908152600d602052604090206001015460ff161561112d57336000908152600d602052604090206001015460ff165b801561111157600061107c60016131f3565b600b54909150611096906001600160a01b031633836130c6565b7fc13f9ae72e4e0dc35757e8e0eb7919f647d0b4b0c6451d638f810fcf13f2977b601182815481106110d857634e487b7160e01b600052603260045260246000fd5b90600052602060002090600502016000016040516110f691906145ea565b60405180910390a1508061110981615113565b91505061106a565b50336000908152600d60205260409020600101805460ff191690555b336000908152600d6020526040902060010154610100900460ff161561122d57336000908152600d6020526040902060010154610100900460ff165b801561121057600061117b60026131f3565b600b54909150611195906001600160a01b031633836130c6565b7fc13f9ae72e4e0dc35757e8e0eb7919f647d0b4b0c6451d638f810fcf13f2977b601182815481106111d757634e487b7160e01b600052603260045260246000fd5b90600052602060002090600502016000016040516111f591906145ea565b60405180910390a1508061120881615113565b915050611169565b50336000908152600d60205260409020600101805461ff00191690555b565b61096183838360405180602001604052806000815250612397565b60606000611257836118ab565b90506000816001600160401b0381111561128157634e487b7160e01b600052604160045260246000fd5b6040519080825280602002602001820160405280156112aa578160200160208202803683370190505b50905060005b828110156112ff576112c28582610c09565b8282815181106112e257634e487b7160e01b600052603260045260246000fd5b6020908102919091010152806112f781615165565b9150506112b0565b509392505050565b6000611311610966565b821061132f5760405162461bcd60e51b81526004016108a990614f25565b6008828154811061135057634e487b7160e01b600052603260045260246000fd5b90600052602060002001549050919050565b3361136c82611864565b6001600160a01b03161461137f57600080fd5b6000601182815481106113a257634e487b7160e01b600052603260045260246000fd5b906000526020600020906005020160040160016101000a81548160ff0219169083151502179055506113d3816134fc565b7fc0977a38d654f0d724af562e31ee762eb341c43e9ade64df0f58e549fc0407e681604051611402919061507c565b60405180910390a150565b336000908152601660205260409020546114395760405162461bcd60e51b81526004016108a990614ef8565b33600081815260166020526040808220549051919291611458906143a1565b60006040518083038185875af1925050503d8060008114611495576040519150601f19603f3d011682016040523d82523d6000602084013e61149a565b606091505b50509050806114bb5760405162461bcd60e51b81526004016108a990614fb4565b5033600090815260166020526040812055565b336114d883611864565b6001600160a01b0316146114fe5760405162461bcd60e51b81526004016108a990614fdd565b6011828154811061151f57634e487b7160e01b600052603260045260246000fd5b906000526020600020906005020160040160019054906101000a900460ff161561155b5760405162461bcd60e51b81526004016108a990614a85565b60006011838154811061157e57634e487b7160e01b600052603260045260246000fd5b9060005260206000209060050201600001805461159a9061512a565b80601f01602080910402602001604051908101604052809291908181526020018280546115c69061512a565b80156116135780601f106115e857610100808354040283529160200191611613565b820191906000526020600020905b8154815290600101906020018083116115f657829003601f168201915b5050505050905060006011848154811061163d57634e487b7160e01b600052603260045260246000fd5b6000918252602080832060016005909302018201546040805160c08101825287815260ff9092168284018190528282018a9052606083018b90526001600160a01b038916608084015260a0830194909452888552601583529093208351805193955090926116ae9284920190613dda565b5060208201516001828101805460ff191660ff90931692909217909155604083015160028301556060830151600383015560808301516004909201805460a0909401516001600160a01b03199094166001600160a01b039093169290921760ff60a01b1916600160a01b93151593909302929092179055601180548690811061174757634e487b7160e01b600052603260045260246000fd5b906000526020600020906005020160040160016101000a81548160ff0219169083151502179055507ff25189fc08db098d1f7e82cbd0b290cfa249e60cc2974fd85da18e13057cbb008460405161179e919061507c565b60405180910390a15050505050565b6117b5612ef8565b6001600160a01b03166117c6611b84565b6001600160a01b0316146117ec5760405162461bcd60e51b81526004016108a990614ce4565b336117f682611864565b6001600160a01b03161461181c5760405162461bcd60e51b81526004016108a990614f71565b60006011828154811061183f57634e487b7160e01b600052603260045260246000fd5b60009182526020909120600590910201600401805460ff191691151591909117905550565b6000818152600260205260408120546001600160a01b0316806107e85760405162461bcd60e51b81526004016108a990614b4f565b60126020526000908152604090205481565b60006001600160a01b0382166118d35760405162461bcd60e51b81526004016108a990614b05565b506001600160a01b031660009081526003602052604090205490565b60166020526000908152604090205481565b611909612ef8565b6001600160a01b031661191a611b84565b6001600160a01b0316146119405760405162461bcd60e51b81526004016108a990614ce4565b61122d6000613587565b600b546001600160a01b031633146119745760405162461bcd60e51b81526004016108a990614abc565b600d6000600c856040516119889190614323565b9081526040805160209281900383019020546001600160a01b03168352908201929092520160002060019081015462010000900460ff161515146119de5760405162461bcd60e51b81526004016108a990614ea4565b81600d6000600c866040516119f39190614323565b9081526040805160209281900383019020546001600160a01b031683529082019290925281016000908120600101805460ff191660ff9490941693909317909255518291600d91600c90611a48908890614323565b9081526040805160209281900383019020546001600160a01b03168352908201929092528101600020600101805461ff00191661010060ff949094169390930292909217909155517faa6183438646fc8bb56f82868ce90c0a5bd1301970b115e976c90c1d696a155090611abd9085906144d1565b60405180910390a1505050565b600d60205260009081526040902080548190611ae59061512a565b80601f0160208091040260200160405190810160405280929190818152602001828054611b119061512a565b8015611b5e5780601f10611b3357610100808354040283529160200191611b5e565b820191906000526020600020905b815481529060010190602001808311611b4157829003601f168201915b5050506001909301549192505060ff808216916101008104821691620100009091041684565b600a546001600160a01b031690565b6060600180546107ff9061512a565b600b546001600160a01b0316331480611bc35750336001600160a01b038316145b611bdf5760405162461bcd60e51b81526004016108a9906148f6565b600d6000600c83604051611bf39190614323565b9081526040805160209281900383019020546001600160a01b0316835290820192909252016000206001015462010000900460ff1615611c455760405162461bcd60e51b81526004016108a990614940565b81600c82604051611c569190614323565b908152604080516020928190038301902080546001600160a01b0319166001600160a01b039485161790559184166000908152600d8252919091208251611c9f92840190613dda565b506001600160a01b0382166000908152600d602052604090819020600101805462ff0000191662010000179055517fd1271c0a878b06e77c2b145e81fda258074d1d9f72d29461da6de567fe185db390611cfc908490849061441d565b60405180910390a15050565b611d10612ef8565b6001600160a01b0316826001600160a01b03161415611d415760405162461bcd60e51b81526004016108a990614890565b8060056000611d4e612ef8565b6001600160a01b03908116825260208083019390935260409182016000908120918716808252919093529120805460ff191692151592909217909155611d92612ef8565b6001600160a01b03167f17307eab39ab6107e8899845ad3d59bd9653f200f220920489ca2b5937696c3183604051611dca91906144c6565b60405180910390a35050565b60008181526017602052604090206004015460ff1615611e085760405162461bcd60e51b81526004016108a990615010565b600081815260156020526040902060040154600160a01b900460ff16611e405760405162461bcd60e51b81526004016108a990614cad565b6000818152601560205260409020600401546001600160a01b03163314611e795760405162461bcd60e51b81526004016108a990615045565b601454600082815260176020526040902060030154611e9891906150b1565b3414611eb65760405162461bcd60e51b81526004016108a990614981565b600060118281548110611ed957634e487b7160e01b600052603260045260246000fd5b906000526020600020906005020160040160016101000a81548160ff0219169083151502179055503460166000611f0f84611864565b6001600160a01b03166001600160a01b0316815260200190815260200160002054611f3a9190615085565b60166000611f4784611864565b6001600160a01b03168152602081019190915260400160002055611f74611f6d82611864565b33836130c6565b611f7d816134fc565b7f244395abe1c90de8dcc7e1cb74321ba0518856f2e180c296472105c7e4e949c681604051611402919061507c565b33611fb683611864565b6001600160a01b0316148015611fdc575033611fd182611864565b6001600160a01b0316145b611ff85760405162461bcd60e51b81526004016108a990614fdd565b6011828154811061201957634e487b7160e01b600052603260045260246000fd5b600091825260209091206005909102016001015460ff16600214801561207657506011818154811061205b57634e487b7160e01b600052603260045260246000fd5b600091825260209091206005909102016001015460ff166002145b6120925760405162461bcd60e51b81526004016108a99061466b565b61209b826135d9565b80156120ad57506120ab816135d9565b155b806120cd57506120bc826135d9565b1580156120cd57506120cd816135d9565b6120e95760405162461bcd60e51b81526004016108a99061469d565b6011546040805180820190915260018152600160fd1b6020820152600091908290606090612116876135d9565b1561216e576121258787613631565b94506011878154811061214857634e487b7160e01b600052603260045260246000fd5b906000526020600020906005020160010160019054906101000a900460ff1692506121bd565b6121788688613631565b94506011868154811061219b57634e487b7160e01b600052603260045260246000fd5b906000526020600020906005020160010160019054906101000a900460ff1692505b601187815481106121de57634e487b7160e01b600052603260045260246000fd5b9060005260206000209060050201600001816011888154811061221157634e487b7160e01b600052603260045260246000fd5b90600052602060002090600502016000016040516020016122349392919061436e565b604051602081830303815290604052915061224e8761371c565b6122578661371c565b6040805160e081018252838152600360208083019190915260ff8616928201929092526060810186905260808101879052600060a0820181905260c0820181905260118054600181018255915281518051929360059092027f31ecc21a745e3968a04e9570e4425bc18fa8019c68028196b546d1669c200c6801926122df9284920190613dda565b506020820151600182018054604085015160ff90811661010090810261ff00199290951660ff1993841617821694909417909255606085015160028501556080850151600385015560a08501516004909401805460c0909601511515909302931515941693909317909216179055612357338561302b565b7f073e229b017abef20a1f46a057285c5070d61c6253a90247a0687502f7da518a84604051612386919061507c565b60405180910390a150505050505050565b6123a86123a2612ef8565b83613049565b6123c45760405162461bcd60e51b81526004016108a990614e53565b6123d0848484846137a8565b50505050565b601181815481106123e657600080fd5b90600052602060002090600502016000915090508060000180546124099061512a565b80601f01602080910402602001604051908101604052809291908181526020018280546124359061512a565b80156124825780601f1061245757610100808354040283529160200191612482565b820191906000526020600020905b81548152906001019060200180831161246557829003601f168201915b505050600184015460028501546003860154600490960154949560ff808416966101009485900482169650929450909282821692041687565b60606124c682612edb565b6124e25760405162461bcd60e51b81526004016108a990614d62565b60006124ec6137db565b9050600081511161250c5760405180602001604052806000815250612537565b80612516846137ed565b60405160200161252792919061433f565b6040516020818303038152906040525b9392505050565b6015602052600090815260409020805481906125599061512a565b80601f01602080910402602001604051908101604052809291908181526020018280546125859061512a565b80156125d25780601f106125a7576101008083540402835291602001916125d2565b820191906000526020600020905b8154815290600101906020018083116125b557829003601f168201915b50505050600183015460028401546003850154600490950154939460ff92831694919350916001600160a01b03821691600160a01b90041686565b600081815260156020526040902060040154600160a01b900460ff16156126465760405162461bcd60e51b81526004016108a990614db1565b60008181526017602052604090206004015460ff166126775760405162461bcd60e51b81526004016108a99061474a565b60145460008281526017602052604090206003015461269691906150b1565b34146126b45760405162461bcd60e51b81526004016108a990614981565b6000601182815481106126d757634e487b7160e01b600052603260045260246000fd5b906000526020600020906005020160040160016101000a81548160ff021916908315150217905550346016600061270d84611864565b6001600160a01b03166001600160a01b03168152602001908152602001600020546127389190615085565b6016600061274584611864565b6001600160a01b0316815260208101919091526040016000205561276b611f6d82611864565b612774816134fc565b7f925ef4858fde11a57c7c6f1b4f3df42ba2f8e0dbbe6535e7fce027d5dbe3107481604051611402919061507c565b6127ab612ef8565b6001600160a01b03166127bc611b84565b6001600160a01b0316146127e25760405162461bcd60e51b81526004016108a990614ce4565b336127ec82611864565b6001600160a01b0316146128125760405162461bcd60e51b81526004016108a990614f71565b60016011828154811061183f57634e487b7160e01b600052603260045260246000fd5b6001600160a01b03918216600090815260056020908152604080832093909416825291909152205460ff1690565b8051602081830181018051600c825292820191909301209152546001600160a01b031681565b3361289382611864565b6001600160a01b0316146128b95760405162461bcd60e51b81526004016108a990614fdd565b601181815481106128da57634e487b7160e01b600052603260045260246000fd5b906000526020600020906005020160040160019054906101000a900460ff16156129165760405162461bcd60e51b81526004016108a990614a85565b60006011828154811061293957634e487b7160e01b600052603260045260246000fd5b906000526020600020906005020160000180546129559061512a565b80601f01602080910402602001604051908101604052809291908181526020018280546129819061512a565b80156129ce5780601f106129a3576101008083540402835291602001916129ce565b820191906000526020600020905b8154815290600101906020018083116129b157829003601f168201915b505050505090506000601183815481106129f857634e487b7160e01b600052603260045260246000fd5b6000918252602080832060016005909302018201546040805160a08101825287815260ff909216828401819052828201899052606083018a9052608083019490945287855260178352909320835180519395509092612a5a9284920190613dda565b5060208201516001808301805460ff90931660ff19938416179055604084015160028401556060840151600384015560809093015160049092018054921515929091169190911790556011805485908110612ac557634e487b7160e01b600052603260045260246000fd5b906000526020600020906005020160040160016101000a81548160ff0219169083151502179055507f937f9d0a330cd623dbab981ab5e99ab8c97188f46ccc25d30c693256903be68e83604051612b1c919061507c565b60405180910390a150505050565b612b32612ef8565b6001600160a01b0316612b43611b84565b6001600160a01b031614612b695760405162461bcd60e51b81526004016108a990614ce4565b6001600160a01b038116612b8f5760405162461bcd60e51b81526004016108a9906147cf565b612b9881613587565b50565b6060612ba5612ef8565b6001600160a01b0316612bb6611b84565b6001600160a01b031614612bdc5760405162461bcd60e51b81526004016108a990614ce4565b600b546000908190612bf6906001600160a01b03166118ab565b9050600080826001600160401b03811115612c2157634e487b7160e01b600052604160045260246000fd5b604051908082528060200260200182016040528015612c4a578160200160208202803683370190505b50905060005b83811015612d1e57600b54612c6e906001600160a01b031682610c09565b828281518110612c8e57634e487b7160e01b600052603260045260246000fd5b6020026020010181815250506011828281518110612cbc57634e487b7160e01b600052603260045260246000fd5b602002602001015181548110612ce257634e487b7160e01b600052603260045260246000fd5b600091825260209091206004600590920201015460ff1615612d0c5784612d0881615165565b9550505b80612d1681615165565b915050612c50565b506000846001600160401b03811115612d4757634e487b7160e01b600052604160045260246000fd5b604051908082528060200260200182016040528015612d70578160200160208202803683370190505b5090508051600014612e925760005b84811015612e90576011838281518110612da957634e487b7160e01b600052603260045260246000fd5b602002602001015181548110612dcf57634e487b7160e01b600052603260045260246000fd5b600091825260209091206004600590920201015460ff1615612e7e576011838281518110612e0d57634e487b7160e01b600052603260045260246000fd5b602002602001015181548110612e3357634e487b7160e01b600052603260045260246000fd5b906000526020600020906005020160020154828581518110612e6557634e487b7160e01b600052603260045260246000fd5b602090810291909101015283612e7a81615165565b9450505b80612e8881615165565b915050612d7f565b505b94505050505090565b60006001600160e01b031982166380ac58cd60e01b1480612ecc57506001600160e01b03198216635b5e139f60e01b145b806107e857506107e882613907565b6000908152600260205260409020546001600160a01b0316151590565b3390565b600081815260046020526040902080546001600160a01b0319166001600160a01b0384169081179091558190612f3182611864565b6001600160a01b03167f8c5be1e5ebec7d5bd14f71427d1e84f3dd0314c0f7b2291e5b200ac8c7c3b92560405160405180910390a45050565b60006103e882604051602001612f809190614323565b6040516020818303038152906040528051906020012060001c6107e89190615180565b60006103e782604051602001612fb99190614323565b6040516020818303038152906040528051906020012060001c612fdc9190615180565b6107e8906001615085565b600081612ff6846103e86150b1565b6125379190615085565b60008161300d8585612fe7565b613019906103e86150b1565b6130239190615085565b949350505050565b613045828260405180602001604052806000815250613920565b5050565b600061305482612edb565b6130705760405162461bcd60e51b81526004016108a9906149e1565b600061307b83611864565b9050806001600160a01b0316846001600160a01b031614806130b65750836001600160a01b03166130ab84610882565b6001600160a01b0316145b8061302357506130238185612835565b826001600160a01b03166130d982611864565b6001600160a01b0316146130ff5760405162461bcd60e51b81526004016108a990614d19565b6001600160a01b0382166131255760405162461bcd60e51b81526004016108a99061484c565b613130838383613953565b61313b600082612efc565b6001600160a01b03831660009081526003602052604081208054600192906131649084906150d0565b90915550506001600160a01b0382166000908152600360205260408120805460019290613192908490615085565b909155505060008181526002602052604080822080546001600160a01b0319166001600160a01b0386811691821790925591518493918716917fddf252ad1be2c89b69c2b068fc378daa952ba7f163c4a11628f55a4df523b3ef91a4505050565b6000806000805b600b5461320f906001600160a01b03166118ab565b8110156132e657600b5460119061322f906001600160a01b031683610c09565b8154811061324d57634e487b7160e01b600052603260045260246000fd5b600091825260209091206004600590920201015460ff161580156132c15750600b5460ff86169060119061328a906001600160a01b031684610c09565b815481106132a857634e487b7160e01b600052603260045260246000fd5b600091825260209091206001600590920201015460ff16145b156132d457826132d081615165565b9350505b806132de81615165565b9150506131fa565b50816133045760405162461bcd60e51b81526004016108a990614b98565b6000826001600160401b0381111561332c57634e487b7160e01b600052604160045260246000fd5b604051908082528060200260200182016040528015613355578160200160208202803683370190505b50905060005b600b54613370906001600160a01b03166118ab565b81101561348857600b54601190613390906001600160a01b031683610c09565b815481106133ae57634e487b7160e01b600052603260045260246000fd5b600091825260209091206004600590920201015460ff161580156134225750600b5460ff8716906011906133eb906001600160a01b031684610c09565b8154811061340957634e487b7160e01b600052603260045260246000fd5b600091825260209091206001600590920201015460ff16145b1561347657600b5461343d906001600160a01b031682610c09565b82848151811061345d57634e487b7160e01b600052603260045260246000fd5b60209081029190910101528261347281615165565b9350505b8061348081615165565b91505061335b565b506000815142336013546040516020016134a4939291906143a4565b6040516020818303038152906040528051906020012060001c6134c79190615180565b90508181815181106134e957634e487b7160e01b600052603260045260246000fd5b60200260200101519450505050506107eb565b6000818152601760205260408120906135158282613e5e565b5060018101805460ff1990811690915560006002830181905560038301819055600490920180549091169055818152601560205260408120906135588282613e5e565b5060018101805460ff19169055600060028201819055600382015560040180546001600160a81b031916905550565b600a80546001600160a01b038381166001600160a01b0319831681179093556040519116919082907f8be0079c531659141344cd1fd0a4f28419497f9722a3daafe3b4186f6b6457e090600090a35050565b6000620f42406011838154811061360057634e487b7160e01b600052603260045260246000fd5b90600052602060002090600502016003015461361c919061509d565b15613629575060016107eb565b5060006107eb565b6000806011838154811061365557634e487b7160e01b600052603260045260246000fd5b906000526020600020906005020160030154620f42406011868154811061368c57634e487b7160e01b600052603260045260246000fd5b9060005260206000209060050201600301546136a8919061509d565b6136b590620f42406150b1565b6136bf9190615085565b905060006012816136d3620f424085615180565b81526020019081526020016000205460016136ee9190615085565b9050806136fd6103e88461509d565b613709906103e86150b1565b6137139190615085565b95945050505050565b60016011828154811061373f57634e487b7160e01b600052603260045260246000fd5b60009182526020909120600590910201600401805460ff1916911515919091179055600b546137799033906001600160a01b0316836130c6565b7ff626e9712bfc1d05519ae9d87cfe12f82248296f837942a0d818b10080ed4e4c81604051611402919061507c565b6137b38484846130c6565b6137bf848484846139dc565b6123d05760405162461bcd60e51b81526004016108a99061477d565b60408051602081019091526000815290565b60608161381257506040805180820190915260018152600360fc1b60208201526107eb565b8160005b811561383c578061382681615165565b91506138359050600a8361509d565b9150613816565b6000816001600160401b0381111561386457634e487b7160e01b600052604160045260246000fd5b6040519080825280601f01601f19166020018201604052801561388e576020820181803683370190505b5090505b8415613023576138a36001836150d0565b91506138b0600a86615180565b6138bb906030615085565b60f81b8183815181106138de57634e487b7160e01b600052603260045260246000fd5b60200101906001600160f81b031916908160001a905350613900600a8661509d565b9450613892565b6001600160e01b031981166301ffc9a760e01b14919050565b61392a8383613af7565b61393760008484846139dc565b6109615760405162461bcd60e51b81526004016108a99061477d565b61395e838383610961565b6001600160a01b03831661397a5761397581613bd6565b61399d565b816001600160a01b0316836001600160a01b03161461399d5761399d8382613c1a565b6001600160a01b0382166139b9576139b481613cb7565b610961565b826001600160a01b0316826001600160a01b031614610961576109618282613d90565b60006139f0846001600160a01b0316613dd4565b15613aec57836001600160a01b031663150b7a02613a0c612ef8565b8786866040518563ffffffff1660e01b8152600401613a2e94939291906143e0565b602060405180830381600087803b158015613a4857600080fd5b505af1925050508015613a78575060408051601f3d908101601f19168201909252613a7591810190614130565b60015b613ad2573d808015613aa6576040519150601f19603f3d011682016040523d82523d6000602084013e613aab565b606091505b508051613aca5760405162461bcd60e51b81526004016108a99061477d565b805181602001fd5b6001600160e01b031916630a85bd0160e11b149050613023565b506001949350505050565b6001600160a01b038216613b1d5760405162461bcd60e51b81526004016108a990614bf5565b613b2681612edb565b15613b435760405162461bcd60e51b81526004016108a990614815565b613b4f60008383613953565b6001600160a01b0382166000908152600360205260408120805460019290613b78908490615085565b909155505060008181526002602052604080822080546001600160a01b0319166001600160a01b03861690811790915590518392907fddf252ad1be2c89b69c2b068fc378daa952ba7f163c4a11628f55a4df523b3ef908290a45050565b600880546000838152600960205260408120829055600182018355919091527ff3f7a9fe364faab93b216da50a3214154f22a0a2b415b23a84c8169e8b636ee30155565b60006001613c27846118ab565b613c3191906150d0565b600083815260076020526040902054909150808214613c84576001600160a01b03841660009081526006602090815260408083208584528252808320548484528184208190558352600790915290208190555b5060009182526007602090815260408084208490556001600160a01b039094168352600681528383209183525290812055565b600854600090613cc9906001906150d0565b60008381526009602052604081205460088054939450909284908110613cff57634e487b7160e01b600052603260045260246000fd5b906000526020600020015490508060088381548110613d2e57634e487b7160e01b600052603260045260246000fd5b6000918252602080832090910192909255828152600990915260408082208490558582528120556008805480613d7457634e487b7160e01b600052603160045260246000fd5b6001900381819060005260206000200160009055905550505050565b6000613d9b836118ab565b6001600160a01b039093166000908152600660209081526040808320868452825280832085905593825260079052919091209190915550565b3b151590565b828054613de69061512a565b90600052602060002090601f016020900481019282613e085760008555613e4e565b82601f10613e2157805160ff1916838001178555613e4e565b82800160010185558215613e4e579182015b82811115613e4e578251825591602001919060010190613e33565b50613e5a929150613e96565b5090565b508054613e6a9061512a565b6000825580601f10613e7c5750612b98565b601f016020900490600052602060002090810190612b9891905b5b80821115613e5a5760008155600101613e97565b60006001600160401b0380841115613ec557613ec56151c0565b604051601f8501601f19908116603f01168101908282118183101715613eed57613eed6151c0565b81604052809350858152868686011115613f0657600080fd5b858560208301376000602087830101525050509392505050565b80356001600160a01b03811681146107eb57600080fd5b600082601f830112613f47578081fd5b61253783833560208501613eab565b803560ff811681146107eb57600080fd5b600060208284031215613f78578081fd5b61253782613f20565b60008060408385031215613f93578081fd5b613f9c83613f20565b9150613faa60208401613f20565b90509250929050565b600080600060608486031215613fc7578081fd5b613fd084613f20565b9250613fde60208501613f20565b9150604084013590509250925092565b60008060008060808587031215614003578081fd5b61400c85613f20565b935061401a60208601613f20565b92506040850135915060608501356001600160401b0381111561403b578182fd5b8501601f8101871361404b578182fd5b61405a87823560208401613eab565b91505092959194509250565b60008060408385031215614078578182fd5b61408183613f20565b915060208301358015158114614095578182fd5b809150509250929050565b600080604083850312156140b2578182fd5b6140bb83613f20565b915060208301356001600160401b038111156140d5578182fd5b6140e185828601613f37565b9150509250929050565b600080604083850312156140fd578182fd5b61410683613f20565b946020939093013593505050565b600060208284031215614125578081fd5b8135612537816151d6565b600060208284031215614141578081fd5b8151612537816151d6565b60006020828403121561415d578081fd5b81356001600160401b03811115614172578182fd5b61302384828501613f37565b600080600060608486031215614192578283fd5b83356001600160401b038111156141a7578384fd5b6141b386828701613f37565b9350506141c260208501613f56565b91506141d060408501613f56565b90509250925092565b6000602082840312156141ea578081fd5b5035919050565b600080600060608486031215614205578283fd5b8335925060208401356001600160401b03811115614221578283fd5b61422d86828701613f37565b9250506141d060408501613f56565b6000806040838503121561424e578182fd5b50508035926020909101359150565b600080600060608486031215614271578081fd5b83359250602084013591506141d060408501613f20565b600081518084526142a08160208601602086016150e7565b601f01601f19169290920160200192915050565b600081546142c18161512a565b600182811680156142d957600181146142ea57614319565b60ff19841687528287019450614319565b8560005260208060002060005b858110156143105781548a8201529084019082016142f7565b50505082870194505b5050505092915050565b600082516143358184602087016150e7565b9190910192915050565b600083516143518184602088016150e7565b8351908301906143658183602088016150e7565b01949350505050565b600061437a82866142b4565b845161438a8183602089016150e7565b614396818301866142b4565b979650505050505050565b90565b92835260609190911b6bffffffffffffffffffffffff19166020830152603482015260540190565b6001600160a01b0391909116815260200190565b6001600160a01b038581168252841660208201526040810183905260806060820181905260009061441390830184614288565b9695505050505050565b6001600160a01b038316815260406020820181905260009061302390830184614288565b6020808252825182820181905260009190848201906040850190845b818110156144825783516001600160a01b03168352928401929184019160010161445d565b50909695505050505050565b6020808252825182820181905260009190848201906040850190845b81811015614482578351835292840192918401916001016144aa565b901515815260200190565b6000602082526125376020830184614288565b600060c082526144f760c0830189614288565b60ff97909716602083015250604081019490945260608401929092526001600160a01b03166080830152151560a090910152919050565b600060a0825261454160a0830188614288565b905060ff8616602083015284604083015283606083015282151560808301529695505050505050565b60006080825261457d6080830187614288565b60ff958616602084015293909416604082015290151560609091015292915050565b600060e082526145b260e083018a614288565b60ff988916602084015296909716604082015260608101949094526080840192909252151560a0830152151560c09091015292915050565b600060208083528184546145fd8161512a565b8084870152604060018084166000811461461e57600181146146325761465d565b60ff1985168984015260608901955061465d565b898852868820885b858110156146555781548b820186015290830190880161463a565b8a0184019650505b509398975050505050505050565b6020808252601890820152774e6f6e20667573696f6e6e61626c6520656c656d656e747360401b604082015260600190565b602080825260189082015277436f6d62696e6174696f6e206e6f7420706f737369626c6560401b604082015260600190565b6020808252601690820152752737ba1030903932b3b4ba32b932b210383630bcb2b960511b604082015260600190565b6020808252602b908201527f455243373231456e756d657261626c653a206f776e657220696e646578206f7560408201526a74206f6620626f756e647360a81b606082015260800190565b6020808252601990820152781d1a1a5cc81bdc99195c88191bd95cc81b9bdd08195e1a5cdd603a1b604082015260600190565b60208082526032908201527f4552433732313a207472616e7366657220746f206e6f6e20455243373231526560408201527131b2b4bb32b91034b6b83632b6b2b73a32b960711b606082015260800190565b60208082526026908201527f4f776e61626c653a206e6577206f776e657220697320746865207a65726f206160408201526564647265737360d01b606082015260800190565b6020808252601c908201527f4552433732313a20746f6b656e20616c7265616479206d696e74656400000000604082015260600190565b60208082526024908201527f4552433732313a207472616e7366657220746f20746865207a65726f206164646040820152637265737360e01b606082015260800190565b60208082526019908201527822a9219b99189d1030b8383937bb32903a379031b0b63632b960391b604082015260600190565b6020808252601990820152781c1b19585cd9481cd95b1958dd08184818dbdb9d1a5b995b9d603a1b604082015260600190565b6020808252602a908201527f796f7520617265206e6f7420617574686f72697a656420746f207365742074686040820152691a5cc81858d8dbdd5b9d60b21b606082015260800190565b60208082526021908201527f7468697320706c6179657220697320616c7265616479207265676973746572656040820152601960fa1b606082015260800190565b6020808252600f908201526e1c1c9a58d9481b9bdd08195e1858dd608a1b604082015260600190565b6020808252601c908201527f706c656173652073656c65637420612074797065206f66206974656d00000000604082015260600190565b6020808252602c908201527f4552433732313a206f70657261746f7220717565727920666f72206e6f6e657860408201526b34b9ba32b73a103a37b5b2b760a11b606082015260800190565b60208082526038908201527f4552433732313a20617070726f76652063616c6c6572206973206e6f74206f776040820152771b995c881b9bdc88185c1c1c9bdd995908199bdc88185b1b60421b606082015260800190565b6020808252601c908201527f74686973206974656d20697320616c7265616479206f6e20736f6c6400000000604082015260600190565b60208082526029908201527f796f7520617265206e6f7420617574686f72697a656420746f20757064617465604082015268103090383630bcb2b960b91b606082015260800190565b6020808252602a908201527f4552433732313a2062616c616e636520717565727920666f7220746865207a65604082015269726f206164647265737360b01b606082015260800190565b60208082526029908201527f4552433732313a206f776e657220717565727920666f72206e6f6e657869737460408201526832b73a103a37b5b2b760b91b606082015260800190565b6020808252603a908201527f5468657265206973206e6f7420656e6f756768206974656d20617661696c626160408201527f6c652c20706c6561736520636f6d65206261636b206c61746572000000000000606082015260800190565b6020808252818101527f4552433732313a206d696e7420746f20746865207a65726f2061646472657373604082015260600190565b6020808252601a908201527f596f752068617665206e6f207265776172647320746f20676574000000000000604082015260600190565b6020808252602c908201527f4552433732313a20617070726f76656420717565727920666f72206e6f6e657860408201526b34b9ba32b73a103a37b5b2b760a11b606082015260800190565b6020808252601a908201527f54686973206164647265737320646f65736e2774206578697374000000000000604082015260600190565b6020808252818101527f4f776e61626c653a2063616c6c6572206973206e6f7420746865206f776e6572604082015260600190565b60208082526029908201527f4552433732313a207472616e73666572206f6620746f6b656e2074686174206960408201526839903737ba1037bbb760b91b606082015260800190565b6020808252602f908201527f4552433732314d657461646174613a2055524920717565727920666f72206e6f60408201526e3732bc34b9ba32b73a103a37b5b2b760891b606082015260800190565b60208082526010908201526f1bdc99195c881dda1a5d1b1a5cdd195960821b604082015260600190565b60208082526021908201527f4552433732313a20617070726f76616c20746f2063757272656e74206f776e656040820152603960f91b606082015260800190565b6020808252601b908201527f4e6f6e6520617661696c61626c65206974656d20666f72206e6f770000000000604082015260600190565b60208082526031908201527f4552433732313a207472616e736665722063616c6c6572206973206e6f74206f6040820152701ddb995c881b9bdc88185c1c1c9bdd9959607a1b606082015260800190565b60208082526034908201527f706c656173652073657420666972737420616e20457468657265756d206164646040820152733932b9b9903337b9103a3434b990383630bcb2b960611b606082015260800190565b6020808252601390820152726e6f7468696e6720746f20776974686472617760681b604082015260600190565b6020808252602c908201527f455243373231456e756d657261626c653a20676c6f62616c20696e646578206f60408201526b7574206f6620626f756e647360a01b606082015260800190565b60208082526023908201527f4572726f72202c20746f6b656e206f776e6564206f72206e6f6e206578697374604082015262195b9d60ea1b606082015260800190565b6020808252600f908201526e1d1c985b9cd9995c8819985a5b1959608a1b604082015260600190565b6020808252601990820152784e6f7420746865206f776e6572206f6620746865206974656d60381b604082015260600190565b6020808252818101527f74686973206f7264657220697320696e20746865206f70656e206d61726b6574604082015260600190565b6020808252601a908201527f4e6f74207468652073656c656374656420726569636569766572000000000000604082015260600190565b90815260200190565b6000821982111561509857615098615194565b500190565b6000826150ac576150ac6151aa565b500490565b60008160001904831182151516156150cb576150cb615194565b500290565b6000828210156150e2576150e2615194565b500390565b60005b838110156151025781810151838201526020016150ea565b838111156123d05750506000910152565b60008161512257615122615194565b506000190190565b60028104600182168061513e57607f821691505b6020821081141561515f57634e487b7160e01b600052602260045260246000fd5b50919050565b600060001982141561517957615179615194565b5060010190565b60008261518f5761518f6151aa565b500690565b634e487b7160e01b600052601160045260246000fd5b634e487b7160e01b600052601260045260246000fd5b634e487b7160e01b600052604160045260246000fd5b6001600160e01b031981168114612b9857600080fdfea26469706673582212209b0567db61c4626297f7dedbccce401d42bb4de3152f40e9beeee6c89c87994c64736f6c63430008010033",
  "immutableReferences": {},
  "source": " // SPDX-License-Identifier: GPL-3.0\r\n\r\npragma solidity 0.8.1;\r\n\r\nimport \"./unlockItems.sol\";\r\n/**\r\n * @title Market \r\n * @notice Here you can sell your items against ETH. You create a selling order and when someone buys it,\r\n * you can come and withdraw your ETH. You can emit whitlested selling orders\r\n * @dev This contract allows the player to exchange his NFT against ETH. Here he can make selling order\r\n * whitlested or not.\r\n */\r\ncontract marketPlace is unlockItems{\r\n    \r\n    ///@dev The basis one which the sold are made.Here everithing is in Ether\r\n\tuint base = 1 ether;\r\n\t\r\n    /**\r\n     * @dev The structure of a market order.\r\n     * @param name is the name of the item\r\n     * @param idItem is the tokenId, \r\n     * @param price requested is the price wished for the items\r\n     * param level is the level of the item \r\n     * @param active indicate if the order is on or off\r\n     */\r\n\tstruct MarketOrder{\r\n\t    string name;\r\n\t    uint8 level;\r\n\t\tuint idItem;\r\n\t\tuint priceRequested;\r\n\t\tbool active; \r\n\t}\r\n    \r\n     /**\r\n     * @dev whitelisted Order structure, \r\n     * @param the adress whitelisted\r\n     * @param active indicate if the order is on or off\r\n     */\r\n\tstruct whitelistOrder{\r\n\t    string name;\r\n\t    uint8 level;\r\n\t\tuint idItem;\r\n\t\tuint priceRequested;\r\n\t\taddress\twhitelistAddress;\r\n\t\tbool active;\r\n\t}\r\n\t\r\n\t///@dev Mapping linking the orderId and the whitelistOrder structure.\r\n\tmapping (uint => whitelistOrder) public orderWithWithelist;\r\n\t\r\n\t///@dev Mapping of the accounts of sellers\r\n\tmapping (address => uint ) public balancePlayer;\r\n\t\r\n\t///@dev Mapping of all the selling orders\r\n\tmapping (uint => MarketOrder) public marketOrders;\r\n\r\n\tevent newMarketOrder (uint tokenId);\r\n\tevent newMarketOrderWithlisted (uint tokenId);\r\n\tevent soldMade(uint tokenId);\r\n\tevent soldMadeWhitelisted(uint tokenId);\r\n\tevent orderCanceled(uint tokenId);\r\n\r\n    ///@dev Get a list of all the owners by continent of items. On the front this will make a rank\r\n\tfunction getRankByContinent(uint _numContinent) public view returns(address[] memory) {\r\n\r\n\t\tuint numberItemsOnContinent;\r\n\t\tuint counterOwner;\r\n\r\n\t\tfor (uint i = 0; i < items.length ;i++ ){\r\n\t\t\tif((ownerOf(items[i].tokenId) != _administrator) && items[i].continent == _numContinent ){\r\n\t\t\t\tnumberItemsOnContinent ++;\r\n\t\t\t}\r\n\t\t}\r\n\r\n\t\taddress[] memory ownerOfItem = new address[](numberItemsOnContinent);\r\n\r\n\t\tfor (uint i = 0; i < items.length ;i++ ){\r\n\t\t\tif((ownerOf(items[i].tokenId) != _administrator) && items[i].continent == _numContinent ){\r\n\t\t\t\townerOfItem[counterOwner] = ownerOf(items[i].tokenId);\r\n\t\t\t\tcounterOwner ++;\r\n\t\t\t}\r\n\t\t}\r\n\t\treturn ownerOfItem;\r\n\t}\r\n    \r\n    ///@dev Get access to the customized map of a player\r\n\tfunction getItemsOfPlayer(address _itemsOwner) public view returns(uint[] memory){\r\n\r\n\t\tuint numberItem = balanceOf(_itemsOwner);\r\n\t\tuint[] memory idsItemsOwned = new uint[](numberItem);\r\n\r\n\t\tfor (uint i=0; i < numberItem; i++){\r\n\t\t\tidsItemsOwned[i] = tokenOfOwnerByIndex(_itemsOwner,i);\r\n\t\t}\r\n\r\n\t\treturn idsItemsOwned;\r\n\t}\r\n    \r\n    ///@dev Allows owners to set a market order for selling\r\n    function setMarketOrder(uint _amountWhished, uint _idItemSold) public{\r\n\t\trequire(ownerOf(_idItemSold) == msg.sender, \"Not the owner of the item\");\r\n\t\trequire(!items[_idItemSold].onSold, \"this item is already on sold\");\r\n\r\n\t\tstring memory nameItem = items[_idItemSold].name;\r\n\t    uint8 levelOrder = items[_idItemSold].levelItem;\r\n\r\n\t\tmarketOrders[_idItemSold] = MarketOrder(nameItem,levelOrder,_idItemSold,_amountWhished, true);\r\n\t\titems[_idItemSold].onSold = true;\r\n\t\t\r\n\t\temit newMarketOrder (_idItemSold);\r\n\t}\r\n    \r\n    ///@dev Allows owners to set a whitelisted market order\r\n\tfunction setMarketOrderWhitelisted(uint _amountWhished, uint _idItemSold, address _whitelistAddress) public{\r\n\t\trequire(ownerOf(_idItemSold) == msg.sender, \"Not the owner of the item\");\r\n\t\trequire(!items[_idItemSold].onSold, \"this item is already on sold\");\r\n\r\n\t\tstring memory nameItem = items[_idItemSold].name;\r\n        uint8 levelOrder = items[_idItemSold].levelItem;\r\n\t\t\r\n\t\torderWithWithelist[_idItemSold] = whitelistOrder(nameItem,levelOrder,_idItemSold,_amountWhished, _whitelistAddress, true);\r\n\t\titems[_idItemSold].onSold = true;\r\n\t\t\r\n\t\temit newMarketOrderWithlisted(_idItemSold);\r\n\t}\r\n\t\r\n\t///@dev Allows anyone to buy an existing selling  \r\n\tfunction getOrder(uint _idOrder) public payable{\r\n\t\trequire(!orderWithWithelist[_idOrder].active, \"order whitlisted\" );\r\n\t\trequire(marketOrders[_idOrder].active, \"this order does not exist\");\r\n\t\trequire(msg.value == (marketOrders[_idOrder].priceRequested * base), \"price not exact\");\r\n\r\n\t\titems[_idOrder].onSold = false;\r\n\r\n\t\tbalancePlayer[ownerOf(_idOrder)] = balancePlayer[ownerOf(_idOrder)] + msg.value;\r\n\t\t_transfer(ownerOf(_idOrder),msg.sender, _idOrder);\r\n\t\t_endOrder(_idOrder);\r\n\r\n\t\temit soldMade(_idOrder);\r\n\t}\r\n\t\r\n    ///@dev Allows the whitlisted address only to get the item \r\n    function getWhitelistedOrder(uint _idOrder) public payable{\r\n\t\trequire(!marketOrders[_idOrder].active, \"this order is in the open market\");\r\n\t\trequire(orderWithWithelist[_idOrder].active, \"This address doesn't exist\" );\r\n\t\trequire(orderWithWithelist[_idOrder].whitelistAddress == msg.sender , \"Not the selected reiceiver\");\r\n\t\trequire(msg.value == (marketOrders[_idOrder].priceRequested * base), \"price not exact\");\r\n\r\n\t\titems[_idOrder].onSold = false;\r\n\r\n\t\tbalancePlayer[ownerOf(_idOrder)] = balancePlayer[ownerOf(_idOrder)] + msg.value;\r\n\t\t_transfer(ownerOf(_idOrder),msg.sender, _idOrder);\r\n\t\t_endOrder(_idOrder);\r\n\r\n\t\temit soldMadeWhitelisted(_idOrder);\r\n\t}\r\n    \r\n    ///@dev A seller can cancel a pending selling order\r\n\tfunction cancelOrder(uint _idOrder) public {\r\n\t\trequire (ownerOf(_idOrder) == msg.sender);\r\n\r\n\t\titems[_idOrder].onSold = false;\r\n\r\n\t\t _endOrder(_idOrder);\r\n\r\n\t\temit orderCanceled(_idOrder);\r\n\t}\r\n\t\r\n\t///@dev End an order\r\n\tfunction _endOrder(uint _idOrder) private {\r\n\t\t\r\n\t\tdelete marketOrders[_idOrder];\r\n\t\tdelete orderWithWithelist[_idOrder];\r\n\t}\r\n    \r\n    ///@dev Allows the seller withdraw all his money from selling\r\n\tfunction withdrawAmount() public {\r\n\t\trequire (balancePlayer[msg.sender] != 0, \"nothing to withdraw\");\r\n\t\t(bool success, ) = msg.sender.call{value: balancePlayer[msg.sender]}(\"\");\r\n      \trequire(success, 'transfer failed');\r\n      \tbalancePlayer[msg.sender] = 0;\r\n\t}\r\n}",
  "sourcePath": "C:\\Users\\fboud\\OneDrive\\Documents\\Alyra\\projetFinal\\contracts\\marketPlace.sol",
  "compiler": {
    "name": "solc",
    "version": "0.8.1+commit.df193b15.Emscripten.clang"
  },
  "schemaVersion": "3.4.2",
  "updatedAt": "2021-08-03T02:57:16.081Z",
  "networkType": "ethereum",
  "devdoc": {
    "details": "This contract allows the player to exchange his NFT against ETH. Here he can make selling order whitlested or not.",
    "kind": "dev",
    "methods": {
      "approve(address,uint256)": {
        "details": "See {IERC721-approve}."
      },
      "balanceOf(address)": {
        "details": "See {IERC721-balanceOf}."
      },
      "cancelOrder(uint256)": {
        "details": "A seller can cancel a pending selling order"
      },
      "createItem(uint256,string,uint8)": {
        "details": "Function allowing to create items. Only the adminstrator can make one"
      },
      "fusionItem(uint256,uint256)": {
        "details": "Make the fusion between two items, create the composition, the new name, continent and tokenId"
      },
      "getApproved(uint256)": {
        "details": "See {IERC721-getApproved}."
      },
      "getItemsOfPlayer(address)": {
        "details": "Get access to the customized map of a player"
      },
      "getLockedItems()": {
        "details": "Gives to the administrator a list of tokenId locked"
      },
      "getOrder(uint256)": {
        "details": "Allows anyone to buy an existing selling  "
      },
      "getRankByContinent(uint256)": {
        "details": "Get a list of all the owners by continent of items. On the front this will make a rank"
      },
      "getReward()": {
        "details": "Transform the reward as a NFT"
      },
      "getWhitelistedOrder(uint256)": {
        "details": "Allows the whitlisted address only to get the item "
      },
      "isApprovedForAll(address,address)": {
        "details": "See {IERC721-isApprovedForAll}."
      },
      "lock(uint256)": {
        "details": "Administrator locks items "
      },
      "name()": {
        "details": "See {IERC721Metadata-name}."
      },
      "owner()": {
        "details": "Returns the address of the current owner."
      },
      "ownerOf(uint256)": {
        "details": "See {IERC721-ownerOf}."
      },
      "renounceOwnership()": {
        "details": "Leaves the contract without owner. It will not be possible to call `onlyOwner` functions anymore. Can only be called by the current owner. NOTE: Renouncing ownership will leave the contract without an owner, thereby removing any functionality that is only available to the owner."
      },
      "safeTransferFrom(address,address,uint256)": {
        "details": "See {IERC721-safeTransferFrom}."
      },
      "safeTransferFrom(address,address,uint256,bytes)": {
        "details": "See {IERC721-safeTransferFrom}."
      },
      "setApprovalForAll(address,bool)": {
        "details": "See {IERC721-setApprovalForAll}."
      },
      "setMarketOrder(uint256,uint256)": {
        "details": "Allows owners to set a market order for selling"
      },
      "setMarketOrderWhitelisted(uint256,uint256,address)": {
        "details": "Allows owners to set a whitelisted market order"
      },
      "setMultiversePlayer(address,string)": {
        "details": "link a login with a player. The login must be the exact same one than the one used in POW"
      },
      "supportsInterface(bytes4)": {
        "details": "See {IERC165-supportsInterface}."
      },
      "symbol()": {
        "details": "See {IERC721Metadata-symbol}."
      },
      "tokenByIndex(uint256)": {
        "details": "See {IERC721Enumerable-tokenByIndex}."
      },
      "tokenOfOwnerByIndex(address,uint256)": {
        "details": "See {IERC721Enumerable-tokenOfOwnerByIndex}."
      },
      "tokenURI(uint256)": {
        "details": "See {IERC721Metadata-tokenURI}."
      },
      "totalSupply()": {
        "details": "See {IERC721Enumerable-totalSupply}."
      },
      "transferFrom(address,address,uint256)": {
        "details": "See {IERC721-transferFrom}."
      },
      "transferOwnership(address)": {
        "details": "Transfers ownership of the contract to a new account (`newOwner`). Can only be called by the current owner."
      },
      "unlock(uint256)": {
        "details": "Administrator unlocks items"
      },
      "updateMultiversePlayer(string,uint8,uint8)": {
        "details": "Update the data of a registered player. The adnministrator Only can set this. In the future, the oracle will do that"
      },
      "withdrawAmount()": {
        "details": "Allows the seller withdraw all his money from selling"
      }
    },
    "stateVariables": {
      "balancePlayer": {
        "details": "Mapping of the accounts of sellers"
      },
      "base": {
        "details": "The basis one which the sold are made.Here everithing is in Ether"
      },
      "marketOrders": {
        "details": "Mapping of all the selling orders"
      },
      "orderWithWithelist": {
        "details": "Mapping linking the orderId and the whitelistOrder structure."
      }
    },
    "title": "Market ",
    "version": 1
  },
  "userdoc": {
    "kind": "user",
    "methods": {},
    "notice": "Here you can sell your items against ETH. You create a selling order and when someone buys it, you can come and withdraw your ETH. You can emit whitlested selling orders",
    "version": 1
  }
}