{
  "contractName": "marketPlace",
  "abi": [
    {
      "anonymous": false,
      "inputs": [
        {
          "indexed": true,
          "internalType": "address",
          "name": "owner",
          "type": "address"
        },
        {
          "indexed": true,
          "internalType": "address",
          "name": "approved",
          "type": "address"
        },
        {
          "indexed": true,
          "internalType": "uint256",
          "name": "tokenId",
          "type": "uint256"
        }
      ],
      "name": "Approval",
      "type": "event"
    },
    {
      "anonymous": false,
      "inputs": [
        {
          "indexed": true,
          "internalType": "address",
          "name": "owner",
          "type": "address"
        },
        {
          "indexed": true,
          "internalType": "address",
          "name": "operator",
          "type": "address"
        },
        {
          "indexed": false,
          "internalType": "bool",
          "name": "approved",
          "type": "bool"
        }
      ],
      "name": "ApprovalForAll",
      "type": "event"
    },
    {
      "anonymous": false,
      "inputs": [
        {
          "indexed": false,
          "internalType": "uint256",
          "name": "idOrder",
          "type": "uint256"
        }
      ],
      "name": "NewMarketOrder",
      "type": "event"
    },
    {
      "anonymous": false,
      "inputs": [
        {
          "indexed": false,
          "internalType": "address",
          "name": "addressPlayer",
          "type": "address"
        },
        {
          "indexed": false,
          "internalType": "string",
          "name": "loginPlayer",
          "type": "string"
        }
      ],
      "name": "NewPlayerRegistered",
      "type": "event"
    },
    {
      "anonymous": false,
      "inputs": [
        {
          "indexed": true,
          "internalType": "address",
          "name": "previousOwner",
          "type": "address"
        },
        {
          "indexed": true,
          "internalType": "address",
          "name": "newOwner",
          "type": "address"
        }
      ],
      "name": "OwnershipTransferred",
      "type": "event"
    },
    {
      "anonymous": false,
      "inputs": [
        {
          "indexed": true,
          "internalType": "address",
          "name": "from",
          "type": "address"
        },
        {
          "indexed": true,
          "internalType": "address",
          "name": "to",
          "type": "address"
        },
        {
          "indexed": true,
          "internalType": "uint256",
          "name": "tokenId",
          "type": "uint256"
        }
      ],
      "name": "Transfer",
      "type": "event"
    },
    {
      "anonymous": false,
      "inputs": [
        {
          "indexed": false,
          "internalType": "uint256",
          "name": "tokenId",
          "type": "uint256"
        }
      ],
      "name": "fusionnedItemCreate",
      "type": "event"
    },
    {
      "anonymous": false,
      "inputs": [
        {
          "indexed": false,
          "internalType": "uint256",
          "name": "tokenId",
          "type": "uint256"
        }
      ],
      "name": "lockItem",
      "type": "event"
    },
    {
      "anonymous": false,
      "inputs": [
        {
          "indexed": false,
          "internalType": "uint256",
          "name": "idOrder",
          "type": "uint256"
        }
      ],
      "name": "orderCanceled",
      "type": "event"
    },
    {
      "anonymous": false,
      "inputs": [
        {
          "indexed": false,
          "internalType": "string",
          "name": "login",
          "type": "string"
        }
      ],
      "name": "playerUpdated",
      "type": "event"
    },
    {
      "anonymous": false,
      "inputs": [
        {
          "indexed": false,
          "internalType": "string",
          "name": "tokenName",
          "type": "string"
        }
      ],
      "name": "rewardWithdrawn",
      "type": "event"
    },
    {
      "anonymous": false,
      "inputs": [
        {
          "indexed": false,
          "internalType": "uint256",
          "name": "idOrder",
          "type": "uint256"
        }
      ],
      "name": "soldMade",
      "type": "event"
    },
    {
      "inputs": [
        {
          "internalType": "address",
          "name": "to",
          "type": "address"
        },
        {
          "internalType": "uint256",
          "name": "tokenId",
          "type": "uint256"
        }
      ],
      "name": "approve",
      "outputs": [],
      "stateMutability": "nonpayable",
      "type": "function"
    },
    {
      "inputs": [
        {
          "internalType": "address",
          "name": "owner",
          "type": "address"
        }
      ],
      "name": "balanceOf",
      "outputs": [
        {
          "internalType": "uint256",
          "name": "",
          "type": "uint256"
        }
      ],
      "stateMutability": "view",
      "type": "function",
      "constant": true
    },
    {
      "inputs": [
        {
          "internalType": "address",
          "name": "",
          "type": "address"
        }
      ],
      "name": "balancePlayer",
      "outputs": [
        {
          "internalType": "uint256",
          "name": "",
          "type": "uint256"
        }
      ],
      "stateMutability": "view",
      "type": "function",
      "constant": true
    },
    {
      "inputs": [
        {
          "internalType": "uint256",
          "name": "_type",
          "type": "uint256"
        },
        {
          "internalType": "string",
          "name": "_name",
          "type": "string"
        },
        {
          "internalType": "uint8",
          "name": "_continent",
          "type": "uint8"
        }
      ],
      "name": "createItem",
      "outputs": [],
      "stateMutability": "nonpayable",
      "type": "function"
    },
    {
      "inputs": [
        {
          "internalType": "uint256",
          "name": "",
          "type": "uint256"
        }
      ],
      "name": "exemplaireNumbers",
      "outputs": [
        {
          "internalType": "uint256",
          "name": "",
          "type": "uint256"
        }
      ],
      "stateMutability": "view",
      "type": "function",
      "constant": true
    },
    {
      "inputs": [
        {
          "internalType": "uint256",
          "name": "_myItemId1",
          "type": "uint256"
        },
        {
          "internalType": "uint256",
          "name": "_myItemId2",
          "type": "uint256"
        }
      ],
      "name": "fusionItem",
      "outputs": [],
      "stateMutability": "nonpayable",
      "type": "function"
    },
    {
      "inputs": [
        {
          "internalType": "uint256",
          "name": "tokenId",
          "type": "uint256"
        }
      ],
      "name": "getApproved",
      "outputs": [
        {
          "internalType": "address",
          "name": "",
          "type": "address"
        }
      ],
      "stateMutability": "view",
      "type": "function",
      "constant": true
    },
    {
      "inputs": [],
      "name": "getLockedItems",
      "outputs": [
        {
          "internalType": "uint256[]",
          "name": "",
          "type": "uint256[]"
        }
      ],
      "stateMutability": "view",
      "type": "function",
      "constant": true
    },
    {
      "inputs": [],
      "name": "getReward",
      "outputs": [],
      "stateMutability": "nonpayable",
      "type": "function"
    },
    {
      "inputs": [
        {
          "internalType": "address",
          "name": "owner",
          "type": "address"
        },
        {
          "internalType": "address",
          "name": "operator",
          "type": "address"
        }
      ],
      "name": "isApprovedForAll",
      "outputs": [
        {
          "internalType": "bool",
          "name": "",
          "type": "bool"
        }
      ],
      "stateMutability": "view",
      "type": "function",
      "constant": true
    },
    {
      "inputs": [
        {
          "internalType": "uint256",
          "name": "",
          "type": "uint256"
        }
      ],
      "name": "items",
      "outputs": [
        {
          "internalType": "string",
          "name": "name",
          "type": "string"
        },
        {
          "internalType": "uint8",
          "name": "levelItem",
          "type": "uint8"
        },
        {
          "internalType": "uint8",
          "name": "continent",
          "type": "uint8"
        },
        {
          "internalType": "uint256",
          "name": "tokenId",
          "type": "uint256"
        },
        {
          "internalType": "uint256",
          "name": "composition",
          "type": "uint256"
        },
        {
          "internalType": "bool",
          "name": "locked",
          "type": "bool"
        },
        {
          "internalType": "bool",
          "name": "onSold",
          "type": "bool"
        }
      ],
      "stateMutability": "view",
      "type": "function",
      "constant": true
    },
    {
      "inputs": [
        {
          "internalType": "uint256",
          "name": "_Id",
          "type": "uint256"
        }
      ],
      "name": "lock",
      "outputs": [],
      "stateMutability": "nonpayable",
      "type": "function"
    },
    {
      "inputs": [
        {
          "internalType": "uint256",
          "name": "",
          "type": "uint256"
        }
      ],
      "name": "marketOrders",
      "outputs": [
        {
          "internalType": "uint256",
          "name": "idItem",
          "type": "uint256"
        },
        {
          "internalType": "uint256",
          "name": "priceRequested",
          "type": "uint256"
        },
        {
          "internalType": "bool",
          "name": "active",
          "type": "bool"
        }
      ],
      "stateMutability": "view",
      "type": "function",
      "constant": true
    },
    {
      "inputs": [
        {
          "internalType": "address",
          "name": "",
          "type": "address"
        }
      ],
      "name": "multiverseData",
      "outputs": [
        {
          "internalType": "string",
          "name": "login",
          "type": "string"
        },
        {
          "internalType": "uint8",
          "name": "rewardLv1",
          "type": "uint8"
        },
        {
          "internalType": "uint8",
          "name": "rewardLv2",
          "type": "uint8"
        },
        {
          "internalType": "bool",
          "name": "isRegistered",
          "type": "bool"
        }
      ],
      "stateMutability": "view",
      "type": "function",
      "constant": true
    },
    {
      "inputs": [
        {
          "internalType": "string",
          "name": "",
          "type": "string"
        }
      ],
      "name": "multiverseIds",
      "outputs": [
        {
          "internalType": "address",
          "name": "",
          "type": "address"
        }
      ],
      "stateMutability": "view",
      "type": "function",
      "constant": true
    },
    {
      "inputs": [],
      "name": "name",
      "outputs": [
        {
          "internalType": "string",
          "name": "",
          "type": "string"
        }
      ],
      "stateMutability": "view",
      "type": "function",
      "constant": true
    },
    {
      "inputs": [
        {
          "internalType": "uint256",
          "name": "",
          "type": "uint256"
        }
      ],
      "name": "orderWithWithelist",
      "outputs": [
        {
          "internalType": "address",
          "name": "whitelistAddress",
          "type": "address"
        },
        {
          "internalType": "bool",
          "name": "isActivated",
          "type": "bool"
        }
      ],
      "stateMutability": "view",
      "type": "function",
      "constant": true
    },
    {
      "inputs": [],
      "name": "owner",
      "outputs": [
        {
          "internalType": "address",
          "name": "",
          "type": "address"
        }
      ],
      "stateMutability": "view",
      "type": "function",
      "constant": true
    },
    {
      "inputs": [
        {
          "internalType": "uint256",
          "name": "tokenId",
          "type": "uint256"
        }
      ],
      "name": "ownerOf",
      "outputs": [
        {
          "internalType": "address",
          "name": "",
          "type": "address"
        }
      ],
      "stateMutability": "view",
      "type": "function",
      "constant": true
    },
    {
      "inputs": [],
      "name": "renounceOwnership",
      "outputs": [],
      "stateMutability": "nonpayable",
      "type": "function"
    },
    {
      "inputs": [
        {
          "internalType": "address",
          "name": "from",
          "type": "address"
        },
        {
          "internalType": "address",
          "name": "to",
          "type": "address"
        },
        {
          "internalType": "uint256",
          "name": "tokenId",
          "type": "uint256"
        }
      ],
      "name": "safeTransferFrom",
      "outputs": [],
      "stateMutability": "nonpayable",
      "type": "function"
    },
    {
      "inputs": [
        {
          "internalType": "address",
          "name": "from",
          "type": "address"
        },
        {
          "internalType": "address",
          "name": "to",
          "type": "address"
        },
        {
          "internalType": "uint256",
          "name": "tokenId",
          "type": "uint256"
        },
        {
          "internalType": "bytes",
          "name": "_data",
          "type": "bytes"
        }
      ],
      "name": "safeTransferFrom",
      "outputs": [],
      "stateMutability": "nonpayable",
      "type": "function"
    },
    {
      "inputs": [
        {
          "internalType": "address",
          "name": "operator",
          "type": "address"
        },
        {
          "internalType": "bool",
          "name": "approved",
          "type": "bool"
        }
      ],
      "name": "setApprovalForAll",
      "outputs": [],
      "stateMutability": "nonpayable",
      "type": "function"
    },
    {
      "inputs": [
        {
          "internalType": "address",
          "name": "_addressPlayer",
          "type": "address"
        },
        {
          "internalType": "string",
          "name": "_login",
          "type": "string"
        }
      ],
      "name": "setMultiversePlayer",
      "outputs": [],
      "stateMutability": "nonpayable",
      "type": "function"
    },
    {
      "inputs": [
        {
          "internalType": "bytes4",
          "name": "interfaceId",
          "type": "bytes4"
        }
      ],
      "name": "supportsInterface",
      "outputs": [
        {
          "internalType": "bool",
          "name": "",
          "type": "bool"
        }
      ],
      "stateMutability": "view",
      "type": "function",
      "constant": true
    },
    {
      "inputs": [],
      "name": "symbol",
      "outputs": [
        {
          "internalType": "string",
          "name": "",
          "type": "string"
        }
      ],
      "stateMutability": "view",
      "type": "function",
      "constant": true
    },
    {
      "inputs": [
        {
          "internalType": "uint256",
          "name": "index",
          "type": "uint256"
        }
      ],
      "name": "tokenByIndex",
      "outputs": [
        {
          "internalType": "uint256",
          "name": "",
          "type": "uint256"
        }
      ],
      "stateMutability": "view",
      "type": "function",
      "constant": true
    },
    {
      "inputs": [
        {
          "internalType": "address",
          "name": "owner",
          "type": "address"
        },
        {
          "internalType": "uint256",
          "name": "index",
          "type": "uint256"
        }
      ],
      "name": "tokenOfOwnerByIndex",
      "outputs": [
        {
          "internalType": "uint256",
          "name": "",
          "type": "uint256"
        }
      ],
      "stateMutability": "view",
      "type": "function",
      "constant": true
    },
    {
      "inputs": [
        {
          "internalType": "uint256",
          "name": "tokenId",
          "type": "uint256"
        }
      ],
      "name": "tokenURI",
      "outputs": [
        {
          "internalType": "string",
          "name": "",
          "type": "string"
        }
      ],
      "stateMutability": "view",
      "type": "function",
      "constant": true
    },
    {
      "inputs": [],
      "name": "totalSupply",
      "outputs": [
        {
          "internalType": "uint256",
          "name": "",
          "type": "uint256"
        }
      ],
      "stateMutability": "view",
      "type": "function",
      "constant": true
    },
    {
      "inputs": [
        {
          "internalType": "address",
          "name": "from",
          "type": "address"
        },
        {
          "internalType": "address",
          "name": "to",
          "type": "address"
        },
        {
          "internalType": "uint256",
          "name": "tokenId",
          "type": "uint256"
        }
      ],
      "name": "transferFrom",
      "outputs": [],
      "stateMutability": "nonpayable",
      "type": "function"
    },
    {
      "inputs": [
        {
          "internalType": "address",
          "name": "newOwner",
          "type": "address"
        }
      ],
      "name": "transferOwnership",
      "outputs": [],
      "stateMutability": "nonpayable",
      "type": "function"
    },
    {
      "inputs": [
        {
          "internalType": "uint256",
          "name": "_Id",
          "type": "uint256"
        }
      ],
      "name": "unlock",
      "outputs": [],
      "stateMutability": "nonpayable",
      "type": "function"
    },
    {
      "inputs": [
        {
          "internalType": "string",
          "name": "_login",
          "type": "string"
        },
        {
          "internalType": "uint8",
          "name": "_rewardLv1",
          "type": "uint8"
        },
        {
          "internalType": "uint8",
          "name": "_rewardLv2",
          "type": "uint8"
        }
      ],
      "name": "updateMultiversePlayer",
      "outputs": [],
      "stateMutability": "nonpayable",
      "type": "function"
    },
    {
      "inputs": [
        {
          "internalType": "uint256",
          "name": "_numContinent",
          "type": "uint256"
        }
      ],
      "name": "getRankByContinent",
      "outputs": [
        {
          "internalType": "address[]",
          "name": "",
          "type": "address[]"
        }
      ],
      "stateMutability": "view",
      "type": "function",
      "constant": true
    },
    {
      "inputs": [
        {
          "internalType": "address",
          "name": "_itemsOwner",
          "type": "address"
        }
      ],
      "name": "getItemsOfPlayer",
      "outputs": [
        {
          "internalType": "uint256[]",
          "name": "",
          "type": "uint256[]"
        }
      ],
      "stateMutability": "view",
      "type": "function",
      "constant": true
    },
    {
      "inputs": [
        {
          "internalType": "uint256",
          "name": "_amountWhished",
          "type": "uint256"
        },
        {
          "internalType": "uint256",
          "name": "_idItemSold",
          "type": "uint256"
        }
      ],
      "name": "setMarketOrder",
      "outputs": [],
      "stateMutability": "nonpayable",
      "type": "function"
    },
    {
      "inputs": [
        {
          "internalType": "uint256",
          "name": "_amountWhished",
          "type": "uint256"
        },
        {
          "internalType": "uint256",
          "name": "_idItemSold",
          "type": "uint256"
        },
        {
          "internalType": "address",
          "name": "_whitelistAddress",
          "type": "address"
        }
      ],
      "name": "setMarketOrderWhitelisted",
      "outputs": [],
      "stateMutability": "nonpayable",
      "type": "function"
    },
    {
      "inputs": [
        {
          "internalType": "uint256",
          "name": "_idOrder",
          "type": "uint256"
        }
      ],
      "name": "getOrder",
      "outputs": [],
      "stateMutability": "payable",
      "type": "function",
      "payable": true
    },
    {
      "inputs": [
        {
          "internalType": "uint256",
          "name": "_idOrder",
          "type": "uint256"
        }
      ],
      "name": "getWhitelistedOrder",
      "outputs": [],
      "stateMutability": "payable",
      "type": "function",
      "payable": true
    },
    {
      "inputs": [
        {
          "internalType": "uint256",
          "name": "_idOrder",
          "type": "uint256"
        }
      ],
      "name": "cancelOrder",
      "outputs": [],
      "stateMutability": "nonpayable",
      "type": "function"
    },
    {
      "inputs": [],
      "name": "withdrawAmount",
      "outputs": [],
      "stateMutability": "nonpayable",
      "type": "function"
    }
  ],
  "bytecode": "0x60806040526001600e556002600f5560036010556001601355670de0b6b3a76400006014553480156200003157600080fd5b506040805180820182526007815266706f77556e697160c81b602080830191825283518085019094526003845262504f5760e81b9084015281519192916200007c916000916200011d565b508051620000929060019060208401906200011d565b505050620000af620000a9620000c760201b60201c565b620000cb565b600b80546001600160a01b0319163317905562000200565b3390565b600a80546001600160a01b038381166001600160a01b0319831681179093556040519116919082907f8be0079c531659141344cd1fd0a4f28419497f9722a3daafe3b4186f6b6457e090600090a35050565b8280546200012b90620001c3565b90600052602060002090601f0160209004810192826200014f57600085556200019a565b82601f106200016a57805160ff19168380011785556200019a565b828001600101855582156200019a579182015b828111156200019a5782518255916020019190600101906200017d565b50620001a8929150620001ac565b5090565b5b80821115620001a85760008155600101620001ad565b600281046001821680620001d857607f821691505b60208210811415620001fa57634e487b7160e01b600052602260045260246000fd5b50919050565b614b3580620002106000396000f3fe6080604052600436106102515760003560e01c806370b247fa11610139578063b88d4fde116100b6578063dd4670641161007a578063dd46706414610708578063e985e9c514610728578063e9dbd45a14610748578063ec31efed14610768578063f2fde38b14610788578063fd12f098146107a857610251565b8063b88d4fde14610654578063bfb231d214610674578063c87b56dd146106a7578063c98ebd1a146106c7578063d09ef241146106f557610251565b806395d89b41116100fd57806395d89b41146105cc5780639b008e47146105e1578063a22cb46514610601578063b2e83bfd14610621578063b6a402961461063457610251565b806370b247fa14610532578063715018a6146105525780637538822e1461056757806375adb7fd146105875780638da5cb5b146105b757610251565b80633d18b912116101d2578063534844a211610196578063534844a21461047d578063537b777c146104925780636198e339146104b25780636352211e146104d2578063661c2b60146104f257806370a082311461051257610251565b80633d18b912146103db57806342842e0e146103f05780634ae66631146104105780634f6ccce71461043d578063514fcac71461045d57610251565b80631f571089116102195780631f5710891461031f57806323b872dd1461033f5780632f745c591461035f578063346970f91461037f57806335f3bde0146103ae57610251565b806301ffc9a71461025657806306fdde031461028c578063081812fc146102ae578063095ea7b3146102db57806318160ddd146102fd575b600080fd5b34801561026257600080fd5b50610276610271366004613aaf565b6107bd565b6040516102839190613e7c565b60405180910390f35b34801561029857600080fd5b506102a16107ea565b6040516102839190613e87565b3480156102ba57600080fd5b506102ce6102c9366004613b74565b61087c565b6040516102839190613d67565b3480156102e757600080fd5b506102fb6102f6366004613a86565b6108c8565b005b34801561030957600080fd5b50610312610960565b6040516102839190614977565b34801561032b57600080fd5b506102fb61033a366004613b8c565b610966565b34801561034b57600080fd5b506102fb61035a36600461394e565b610b8e565b34801561036b57600080fd5b5061031261037a366004613a86565b610bc6565b34801561038b57600080fd5b5061039f61039a366004613b74565b610c18565b60405161028393929190614980565b3480156103ba57600080fd5b506103ce6103c9366004613b74565b610c3c565b6040516102839190613df7565b3480156103e757600080fd5b506102fb610e86565b3480156103fc57600080fd5b506102fb61040b36600461394e565b611153565b34801561041c57600080fd5b5061043061042b366004613902565b61116e565b6040516102839190613e44565b34801561044957600080fd5b50610312610458366004613b74565b61122b565b34801561046957600080fd5b506102fb610478366004613b74565b611286565b34801561048957600080fd5b506102fb61134b565b34801561049e57600080fd5b506102fb6104ad366004613bf8565b61140c565b3480156104be57600080fd5b506102fb6104cd366004613b74565b611586565b3480156104de57600080fd5b506102ce6104ed366004613b74565b61163d565b3480156104fe57600080fd5b5061031261050d366004613b74565b611672565b34801561051e57600080fd5b5061031261052d366004613902565b611684565b34801561053e57600080fd5b5061031261054d366004613902565b6116c8565b34801561055e57600080fd5b506102fb6116da565b34801561057357600080fd5b506102fb610582366004613b19565b611723565b34801561059357600080fd5b506105a76105a2366004613902565b6118a3565b6040516102839493929190613e9a565b3480156105c357600080fd5b506102ce61195d565b3480156105d857600080fd5b506102a161196c565b3480156105ed57600080fd5b506102fb6105fc366004613a3b565b61197b565b34801561060d57600080fd5b506102fb61061c366004613a01565b611ae1565b6102fb61062f366004613b74565b611baf565b34801561064057600080fd5b506102fb61064f366004613bd7565b611d07565b34801561066057600080fd5b506102fb61066f366004613989565b6120f2565b34801561068057600080fd5b5061069461068f366004613b74565b612131565b6040516102839796959493929190613ecf565b3480156106b357600080fd5b506102a16106c2366004613b74565b612216565b3480156106d357600080fd5b506106e76106e2366004613b74565b612299565b604051610283929190613db8565b6102fb610703366004613b74565b6122c0565b34801561071457600080fd5b506102fb610723366004613b74565b612327565b34801561073457600080fd5b5061027661074336600461391c565b6123ba565b34801561075457600080fd5b506102ce610763366004613ae7565b6123e8565b34801561077457600080fd5b506102fb610783366004613bd7565b61240e565b34801561079457600080fd5b506102fb6107a3366004613902565b612533565b3480156107b457600080fd5b506104306125a1565b60006001600160e01b0319821663780e9d6360e01b14806107e257506107e2826128ee565b90505b919050565b6060600080546107f990614a3d565b80601f016020809104026020016040519081016040528092919081815260200182805461082590614a3d565b80156108725780601f1061084757610100808354040283529160200191610872565b820191906000526020600020905b81548152906001019060200180831161085557829003601f168201915b5050505050905090565b60006108878261292e565b6108ac5760405162461bcd60e51b81526004016108a390614586565b60405180910390fd5b506000908152600460205260409020546001600160a01b031690565b60006108d38261163d565b9050806001600160a01b0316836001600160a01b031614156109075760405162461bcd60e51b81526004016108a3906146c9565b806001600160a01b031661091961294b565b6001600160a01b0316148061093557506109358161074361294b565b6109515760405162461bcd60e51b81526004016108a390614352565b61095b838361294f565b505050565b60085490565b61096e61294b565b6001600160a01b031661097f61195d565b6001600160a01b0316146109a55760405162461bcd60e51b81526004016108a3906145d2565b601154600e5460009182918291829182908914156109f5576109c6886129bd565b95506109ee604051806040016040528060058152602001643830b832b960d91b8152506129f6565b9450600290505b600f54891415610a0f57610a08886129f6565b9450600290505b601054891415610a2957610a22886129bd565b9550600190505b60126000610a378888612a3a565b8152602001908152602001600020546001610a529190614998565b9350610a5f868686612a53565b92508360126000610a708989612a3a565b8152602081019190915260400160002055610a8b3383612a7e565b6040805160e08101825289815260ff808416602080840191909152908a16928201929092526060810184905260808101859052600060a0820181905260c0820181905260118054600181018255915281518051929360059092027f31ecc21a745e3968a04e9570e4425bc18fa8019c68028196b546d1669c200c680192610b1592849201906137ad565b506020820151600182018054604085015160ff90811661010090810261ff00199290951660ff1993841617821694909417909255606085015160028501556080850151600385015560a08501516004909401805460c0909601511515909302931515941693909317909216179055505050505050505050565b610b9f610b9961294b565b82612a9c565b610bbb5760405162461bcd60e51b81526004016108a390614741565b61095b838383612b19565b6000610bd183611684565b8210610bef5760405162461bcd60e51b81526004016108a39061402f565b506001600160a01b03919091166000908152600660209081526040808320938352929052205490565b60176020526000908152604090208054600182015460029092015490919060ff1683565b606060008060005b601154811015610d1257600b54601180546001600160a01b0390921691610c9b919084908110610c8457634e487b7160e01b600052603260045260246000fd5b90600052602060002090600502016002015461163d565b6001600160a01b031614158015610ced57508460118281548110610ccf57634e487b7160e01b600052603260045260246000fd5b6000918252602090912060059091020160010154610100900460ff16145b15610d005782610cfc81614a78565b9350505b80610d0a81614a78565b915050610c44565b506000826001600160401b03811115610d3b57634e487b7160e01b600052604160045260246000fd5b604051908082528060200260200182016040528015610d64578160200160208202803683370190505b50905060005b601154811015610e7d57600b54601180546001600160a01b0390921691610daa919084908110610c8457634e487b7160e01b600052603260045260246000fd5b6001600160a01b031614158015610dfc57508560118281548110610dde57634e487b7160e01b600052603260045260246000fd5b6000918252602090912060059091020160010154610100900460ff16145b15610e6b57610e2560118281548110610c8457634e487b7160e01b600052603260045260246000fd5b828481518110610e4557634e487b7160e01b600052603260045260246000fd5b6001600160a01b039092166020928302919091019091015282610e6781614a78565b9350505b80610e7581614a78565b915050610d6a565b50949350505050565b600b54610e9b906001600160a01b0316611684565b610eb75760405162461bcd60e51b81526004016108a39061470a565b336000908152600d602052604090206001015462010000900460ff16610eef5760405162461bcd60e51b81526004016108a390613fff565b336000908152600d602052604090206001015460ff16151580610f2b5750336000908152600d6020526040902060010154610100900460ff1615155b610f475760405162461bcd60e51b81526004016108a39061454f565b60138054906000610f5783614a78565b9091555050336000908152600d602052604090206001015460ff161561105157336000908152600d602052604090206001015460ff165b8015611035576000610fa06001612c46565b600b54909150610fba906001600160a01b03163383612b19565b7fc13f9ae72e4e0dc35757e8e0eb7919f647d0b4b0c6451d638f810fcf13f2977b60118281548110610ffc57634e487b7160e01b600052603260045260246000fd5b906000526020600020906005020160000160405161101a9190613f1a565b60405180910390a1508061102d81614a26565b915050610f8e565b50336000908152600d60205260409020600101805460ff191690555b336000908152600d6020526040902060010154610100900460ff161561115157336000908152600d6020526040902060010154610100900460ff165b801561113457600061109f6002612c46565b600b549091506110b9906001600160a01b03163383612b19565b7fc13f9ae72e4e0dc35757e8e0eb7919f647d0b4b0c6451d638f810fcf13f2977b601182815481106110fb57634e487b7160e01b600052603260045260246000fd5b90600052602060002090600502016000016040516111199190613f1a565b60405180910390a1508061112c81614a26565b91505061108d565b50336000908152600d60205260409020600101805461ff00191690555b565b61095b838383604051806020016040528060008152506120f2565b6060600061117b83611684565b90506000816001600160401b038111156111a557634e487b7160e01b600052604160045260246000fd5b6040519080825280602002602001820160405280156111ce578160200160208202803683370190505b50905060005b82811015611223576111e68582610bc6565b82828151811061120657634e487b7160e01b600052603260045260246000fd5b60209081029190910101528061121b81614a78565b9150506111d4565b509392505050565b6000611235610960565b82106112535760405162461bcd60e51b81526004016108a390614813565b6008828154811061127457634e487b7160e01b600052603260045260246000fd5b90600052602060002001549050919050565b336112908261163d565b6001600160a01b0316146112a357600080fd5b6040805160608101825260008082526020808301828152838501838152868452601783528584209451855590516001850155516002909301805460ff1916931515939093179092556015909152908120805460ff60a01b19169055601180548390811061132057634e487b7160e01b600052603260045260246000fd5b906000526020600020906005020160040160016101000a81548160ff02191690831515021790555050565b336000908152601660205260409020546113775760405162461bcd60e51b81526004016108a3906147e6565b3360008181526016602052604080822054905191929161139690613d3c565b60006040518083038185875af1925050503d80600081146113d3576040519150601f19603f3d011682016040523d82523d6000602084013e6113d8565b606091505b50509050806113f95760405162461bcd60e51b81526004016108a3906148e4565b5033600090815260166020526040812055565b336114168361163d565b6001600160a01b03161461143c5760405162461bcd60e51b81526004016108a39061490d565b6011828154811061145d57634e487b7160e01b600052603260045260246000fd5b906000526020600020906005020160040160019054906101000a900460ff16156114995760405162461bcd60e51b81526004016108a3906143aa565b604080516060810182528381526020808201868152600183850181815260008881526017855286812095518655925185830155516002909401805460ff191694151594909417909355835180850185526001600160a01b0386811682528184018581528884526015909452949091209051815492516001600160a01b031990931694169390931760ff60a01b1916600160a01b9115159190910217909155601180548490811061155957634e487b7160e01b600052603260045260246000fd5b906000526020600020906005020160040160016101000a81548160ff021916908315150217905550505050565b61158e61294b565b6001600160a01b031661159f61195d565b6001600160a01b0316146115c55760405162461bcd60e51b81526004016108a3906145d2565b336115cf8261163d565b6001600160a01b0316146115f55760405162461bcd60e51b81526004016108a39061485f565b60006011828154811061161857634e487b7160e01b600052603260045260246000fd5b60009182526020909120600590910201600401805460ff191691151591909117905550565b6000818152600260205260408120546001600160a01b0316806107e25760405162461bcd60e51b81526004016108a390614474565b60126020526000908152604090205481565b60006001600160a01b0382166116ac5760405162461bcd60e51b81526004016108a39061442a565b506001600160a01b031660009081526003602052604090205490565b60166020526000908152604090205481565b6116e261294b565b6001600160a01b03166116f361195d565b6001600160a01b0316146117195760405162461bcd60e51b81526004016108a3906145d2565b6111516000612f4f565b600b546001600160a01b0316331461174d5760405162461bcd60e51b81526004016108a3906143e1565b600d6000600c856040516117619190613cbe565b9081526040805160209281900383019020546001600160a01b03168352908201929092520160002060019081015462010000900460ff161515146117b75760405162461bcd60e51b81526004016108a390614792565b81600d6000600c866040516117cc9190613cbe565b9081526040805160209281900383019020546001600160a01b031683529082019290925281016000908120600101805460ff191660ff9490941693909317909255518291600d91600c90611821908890613cbe565b9081526040805160209281900383019020546001600160a01b03168352908201929092528101600020600101805461ff00191661010060ff949094169390930292909217909155517faa6183438646fc8bb56f82868ce90c0a5bd1301970b115e976c90c1d696a155090611896908590613e87565b60405180910390a1505050565b600d602052600090815260409020805481906118be90614a3d565b80601f01602080910402602001604051908101604052809291908181526020018280546118ea90614a3d565b80156119375780601f1061190c57610100808354040283529160200191611937565b820191906000526020600020905b81548152906001019060200180831161191a57829003601f168201915b5050506001909301549192505060ff808216916101008104821691620100009091041684565b600a546001600160a01b031690565b6060600180546107f990614a3d565b600b546001600160a01b031633148061199c5750336001600160a01b038316145b6119b85760405162461bcd60e51b81526004016108a390614252565b600d6000600c836040516119cc9190613cbe565b9081526040805160209281900383019020546001600160a01b0316835290820192909252016000206001015462010000900460ff1615611a1e5760405162461bcd60e51b81526004016108a39061429c565b81600c82604051611a2f9190613cbe565b908152604080516020928190038301902080546001600160a01b0319166001600160a01b039485161790559184166000908152600d8252919091208251611a78928401906137ad565b506001600160a01b0382166000908152600d602052604090819020600101805462ff0000191662010000179055517fd1271c0a878b06e77c2b145e81fda258074d1d9f72d29461da6de567fe185db390611ad59084908490613dd3565b60405180910390a15050565b611ae961294b565b6001600160a01b0316826001600160a01b03161415611b1a5760405162461bcd60e51b81526004016108a39061421f565b8060056000611b2761294b565b6001600160a01b03908116825260208083019390935260409182016000908120918716808252919093529120805460ff191692151592909217909155611b6b61294b565b6001600160a01b03167f17307eab39ab6107e8899845ad3d59bd9653f200f220920489ca2b5937696c3183604051611ba39190613e7c565b60405180910390a35050565b60008181526017602052604090206002015460ff16611be05760405162461bcd60e51b81526004016108a39061407a565b600081815260156020526040902054600160a01b900460ff16611c155760405162461bcd60e51b81526004016108a3906148a2565b6000818152601560205260409020546001600160a01b03163314611c4b5760405162461bcd60e51b81526004016108a390614940565b601454600082815260176020526040902060010154611c6a91906149c4565b3414611c885760405162461bcd60e51b81526004016108a3906142dd565b3460166000611c968461163d565b6001600160a01b03166001600160a01b0316815260200190815260200160002054611cc19190614998565b60166000611cce8461163d565b6001600160a01b03168152602081019190915260400160002055611cfb611cf48261163d565b3383612b19565b611d04816112a3565b50565b33611d118361163d565b6001600160a01b0316148015611d37575033611d2c8261163d565b6001600160a01b0316145b611d535760405162461bcd60e51b81526004016108a39061490d565b60118281548110611d7457634e487b7160e01b600052603260045260246000fd5b600091825260209091206005909102016001015460ff166002148015611dd1575060118181548110611db657634e487b7160e01b600052603260045260246000fd5b600091825260209091206005909102016001015460ff166002145b611ded5760405162461bcd60e51b81526004016108a390613f9b565b611df682612fa1565b8015611e085750611e0681612fa1565b155b80611e285750611e1782612fa1565b158015611e285750611e2881612fa1565b611e445760405162461bcd60e51b81526004016108a390613fcd565b6011546040805180820190915260018152600160fd1b6020820152600091908290606090611e7187612fa1565b15611ec957611e808787612ff9565b945060118781548110611ea357634e487b7160e01b600052603260045260246000fd5b906000526020600020906005020160010160019054906101000a900460ff169250611f18565b611ed38688612ff9565b945060118681548110611ef657634e487b7160e01b600052603260045260246000fd5b906000526020600020906005020160010160019054906101000a900460ff1692505b60118781548110611f3957634e487b7160e01b600052603260045260246000fd5b90600052602060002090600502016000018160118881548110611f6c57634e487b7160e01b600052603260045260246000fd5b9060005260206000209060050201600001604051602001611f8f93929190613d09565b6040516020818303038152906040529150611fa9876130e4565b611fb2866130e4565b6040805160e081018252838152600360208083019190915260ff8616928201929092526060810186905260808101879052600060a0820181905260c0820181905260118054600181018255915281518051929360059092027f31ecc21a745e3968a04e9570e4425bc18fa8019c68028196b546d1669c200c68019261203a92849201906137ad565b506020820151600182018054604085015160ff90811661010090810261ff00199290951660ff1993841617821694909417909255606085015160028501556080850151600385015560a08501516004909401805460c09096015115159093029315159416939093179092161790556120b23385612a7e565b7f073e229b017abef20a1f46a057285c5070d61c6253a90247a0687502f7da518a846040516120e19190614977565b60405180910390a150505050505050565b6121036120fd61294b565b83612a9c565b61211f5760405162461bcd60e51b81526004016108a390614741565b61212b8484848461317b565b50505050565b6011818154811061214157600080fd5b906000526020600020906005020160009150905080600001805461216490614a3d565b80601f016020809104026020016040519081016040528092919081815260200182805461219090614a3d565b80156121dd5780601f106121b2576101008083540402835291602001916121dd565b820191906000526020600020905b8154815290600101906020018083116121c057829003601f168201915b505050600184015460028501546003860154600490960154949560ff808416966101009485900482169650929450909282821692041687565b60606122218261292e565b61223d5760405162461bcd60e51b81526004016108a390614650565b60006122476131ae565b905060008151116122675760405180602001604052806000815250612292565b80612271846131c0565b604051602001612282929190613cda565b6040516020818303038152906040525b9392505050565b6015602052600090815260409020546001600160a01b03811690600160a01b900460ff1682565b60008181526017602052604090206002015460ff166122f15760405162461bcd60e51b81526004016108a39061407a565b600081815260156020526040902054600160a01b900460ff1615611c4b5760405162461bcd60e51b81526004016108a39061469f565b61232f61294b565b6001600160a01b031661234061195d565b6001600160a01b0316146123665760405162461bcd60e51b81526004016108a3906145d2565b336123708261163d565b6001600160a01b031614156123975760405162461bcd60e51b81526004016108a39061485f565b60016011828154811061161857634e487b7160e01b600052603260045260246000fd5b6001600160a01b03918216600090815260056020908152604080832093909416825291909152205460ff1690565b8051602081830181018051600c825292820191909301209152546001600160a01b031681565b336124188261163d565b6001600160a01b03161461243e5760405162461bcd60e51b81526004016108a39061490d565b6011818154811061245f57634e487b7160e01b600052603260045260246000fd5b906000526020600020906005020160040160019054906101000a900460ff161561249b5760405162461bcd60e51b81526004016108a3906143aa565b6040805160608101825282815260208082018581526001838501818152600087815260179094529490922092518355518282015591516002909101805460ff1916911515919091179055601180548390811061250757634e487b7160e01b600052603260045260246000fd5b906000526020600020906005020160040160016101000a81548160ff0219169083151502179055505050565b61253b61294b565b6001600160a01b031661254c61195d565b6001600160a01b0316146125725760405162461bcd60e51b81526004016108a3906145d2565b6001600160a01b0381166125985760405162461bcd60e51b81526004016108a390614127565b611d0481612f4f565b60606125ab61294b565b6001600160a01b03166125bc61195d565b6001600160a01b0316146125e25760405162461bcd60e51b81526004016108a3906145d2565b600b546125f7906001600160a01b0316611684565b6126135760405162461bcd60e51b81526004016108a3906141a4565b600b54600090819061262d906001600160a01b0316611684565b9050600080826001600160401b0381111561265857634e487b7160e01b600052604160045260246000fd5b604051908082528060200260200182016040528015612681578160200160208202803683370190505b50905060005b8381101561275557600b546126a5906001600160a01b031682610bc6565b8282815181106126c557634e487b7160e01b600052603260045260246000fd5b60200260200101818152505060118282815181106126f357634e487b7160e01b600052603260045260246000fd5b60200260200101518154811061271957634e487b7160e01b600052603260045260246000fd5b600091825260209091206004600590920201015460ff1615612743578461273f81614a78565b9550505b8061274d81614a78565b915050612687565b506000846001600160401b0381111561277e57634e487b7160e01b600052604160045260246000fd5b6040519080825280602002602001820160405280156127a7578160200160208202803683370190505b50905080516000146128cd5760005b848110156128c75760118382815181106127e057634e487b7160e01b600052603260045260246000fd5b60200260200101518154811061280657634e487b7160e01b600052603260045260246000fd5b600091825260209091206004600590920201015460ff16156128b557601183828151811061284457634e487b7160e01b600052603260045260246000fd5b60200260200101518154811061286a57634e487b7160e01b600052603260045260246000fd5b90600052602060002090600502016002015482858151811061289c57634e487b7160e01b600052603260045260246000fd5b6020908102919091010152836128b181614a78565b9450505b806128bf81614a78565b9150506127b6565b506128e5565b60405162461bcd60e51b81526004016108a3906140ad565b94505050505090565b60006001600160e01b031982166380ac58cd60e01b148061291f57506001600160e01b03198216635b5e139f60e01b145b806107e257506107e2826132da565b6000908152600260205260409020546001600160a01b0316151590565b3390565b600081815260046020526040902080546001600160a01b0319166001600160a01b03841690811790915581906129848261163d565b6001600160a01b03167f8c5be1e5ebec7d5bd14f71427d1e84f3dd0314c0f7b2291e5b200ac8c7c3b92560405160405180910390a45050565b60006103e8826040516020016129d39190613cbe565b6040516020818303038152906040528051906020012060001c6107e29190614a93565b60006103e782604051602001612a0c9190613cbe565b6040516020818303038152906040528051906020012060001c612a2f9190614a93565b6107e2906001614998565b600081612a49846103e86149c4565b6122929190614998565b600081612a608585612a3a565b612a6c906103e86149c4565b612a769190614998565b949350505050565b612a988282604051806020016040528060008152506132f3565b5050565b6000612aa78261292e565b612ac35760405162461bcd60e51b81526004016108a390614306565b6000612ace8361163d565b9050806001600160a01b0316846001600160a01b03161480612b095750836001600160a01b0316612afe8461087c565b6001600160a01b0316145b80612a765750612a7681856123ba565b826001600160a01b0316612b2c8261163d565b6001600160a01b031614612b525760405162461bcd60e51b81526004016108a390614607565b6001600160a01b038216612b785760405162461bcd60e51b81526004016108a3906141db565b612b83838383613326565b612b8e60008261294f565b6001600160a01b0383166000908152600360205260408120805460019290612bb79084906149e3565b90915550506001600160a01b0382166000908152600360205260408120805460019290612be5908490614998565b909155505060008181526002602052604080822080546001600160a01b0319166001600160a01b0386811691821790925591518493918716917fddf252ad1be2c89b69c2b068fc378daa952ba7f163c4a11628f55a4df523b3ef91a4505050565b6000806000805b600b54612c62906001600160a01b0316611684565b811015612d3957600b54601190612c82906001600160a01b031683610bc6565b81548110612ca057634e487b7160e01b600052603260045260246000fd5b600091825260209091206004600590920201015460ff16158015612d145750600b5460ff861690601190612cdd906001600160a01b031684610bc6565b81548110612cfb57634e487b7160e01b600052603260045260246000fd5b600091825260209091206001600590920201015460ff16145b15612d275782612d2381614a78565b9350505b80612d3181614a78565b915050612c4d565b5081612d575760405162461bcd60e51b81526004016108a3906144bd565b6000826001600160401b03811115612d7f57634e487b7160e01b600052604160045260246000fd5b604051908082528060200260200182016040528015612da8578160200160208202803683370190505b50905060005b600b54612dc3906001600160a01b0316611684565b811015612edb57600b54601190612de3906001600160a01b031683610bc6565b81548110612e0157634e487b7160e01b600052603260045260246000fd5b600091825260209091206004600590920201015460ff16158015612e755750600b5460ff871690601190612e3e906001600160a01b031684610bc6565b81548110612e5c57634e487b7160e01b600052603260045260246000fd5b600091825260209091206001600590920201015460ff16145b15612ec957600b54612e90906001600160a01b031682610bc6565b828481518110612eb057634e487b7160e01b600052603260045260246000fd5b602090810291909101015282612ec581614a78565b9350505b80612ed381614a78565b915050612dae565b50600081514233601354604051602001612ef793929190613d3f565b6040516020818303038152906040528051906020012060001c612f1a9190614a93565b9050818181518110612f3c57634e487b7160e01b600052603260045260246000fd5b60200260200101519450505050506107e5565b600a80546001600160a01b038381166001600160a01b0319831681179093556040519116919082907f8be0079c531659141344cd1fd0a4f28419497f9722a3daafe3b4186f6b6457e090600090a35050565b6000620f424060118381548110612fc857634e487b7160e01b600052603260045260246000fd5b906000526020600020906005020160030154612fe491906149b0565b15612ff1575060016107e5565b5060006107e5565b6000806011838154811061301d57634e487b7160e01b600052603260045260246000fd5b906000526020600020906005020160030154620f42406011868154811061305457634e487b7160e01b600052603260045260246000fd5b90600052602060002090600502016003015461307091906149b0565b61307d90620f42406149c4565b6130879190614998565b9050600060128161309b620f424085614a93565b81526020019081526020016000205460016130b69190614998565b9050806130c56103e8846149b0565b6130d1906103e86149c4565b6130db9190614998565b95945050505050565b60016011828154811061310757634e487b7160e01b600052603260045260246000fd5b60009182526020909120600590910201600401805460ff1916911515919091179055600b546131419033906001600160a01b031683612b19565b7ff626e9712bfc1d05519ae9d87cfe12f82248296f837942a0d818b10080ed4e4c816040516131709190614977565b60405180910390a150565b613186848484612b19565b613192848484846133af565b61212b5760405162461bcd60e51b81526004016108a3906140d5565b60408051602081019091526000815290565b6060816131e557506040805180820190915260018152600360fc1b60208201526107e5565b8160005b811561320f57806131f981614a78565b91506132089050600a836149b0565b91506131e9565b6000816001600160401b0381111561323757634e487b7160e01b600052604160045260246000fd5b6040519080825280601f01601f191660200182016040528015613261576020820181803683370190505b5090505b8415612a76576132766001836149e3565b9150613283600a86614a93565b61328e906030614998565b60f81b8183815181106132b157634e487b7160e01b600052603260045260246000fd5b60200101906001600160f81b031916908160001a9053506132d3600a866149b0565b9450613265565b6001600160e01b031981166301ffc9a760e01b14919050565b6132fd83836134ca565b61330a60008484846133af565b61095b5760405162461bcd60e51b81526004016108a3906140d5565b61333183838361095b565b6001600160a01b03831661334d57613348816135a9565b613370565b816001600160a01b0316836001600160a01b0316146133705761337083826135ed565b6001600160a01b03821661338c576133878161368a565b61095b565b826001600160a01b0316826001600160a01b03161461095b5761095b8282613763565b60006133c3846001600160a01b03166137a7565b156134bf57836001600160a01b031663150b7a026133df61294b565b8786866040518563ffffffff1660e01b81526004016134019493929190613d7b565b602060405180830381600087803b15801561341b57600080fd5b505af192505050801561344b575060408051601f3d908101601f1916820190925261344891810190613acb565b60015b6134a5573d808015613479576040519150601f19603f3d011682016040523d82523d6000602084013e61347e565b606091505b50805161349d5760405162461bcd60e51b81526004016108a3906140d5565b805181602001fd5b6001600160e01b031916630a85bd0160e11b149050612a76565b506001949350505050565b6001600160a01b0382166134f05760405162461bcd60e51b81526004016108a39061451a565b6134f98161292e565b156135165760405162461bcd60e51b81526004016108a39061416d565b61352260008383613326565b6001600160a01b038216600090815260036020526040812080546001929061354b908490614998565b909155505060008181526002602052604080822080546001600160a01b0319166001600160a01b03861690811790915590518392907fddf252ad1be2c89b69c2b068fc378daa952ba7f163c4a11628f55a4df523b3ef908290a45050565b600880546000838152600960205260408120829055600182018355919091527ff3f7a9fe364faab93b216da50a3214154f22a0a2b415b23a84c8169e8b636ee30155565b600060016135fa84611684565b61360491906149e3565b600083815260076020526040902054909150808214613657576001600160a01b03841660009081526006602090815260408083208584528252808320548484528184208190558352600790915290208190555b5060009182526007602090815260408084208490556001600160a01b039094168352600681528383209183525290812055565b60085460009061369c906001906149e3565b600083815260096020526040812054600880549394509092849081106136d257634e487b7160e01b600052603260045260246000fd5b90600052602060002001549050806008838154811061370157634e487b7160e01b600052603260045260246000fd5b600091825260208083209091019290925582815260099091526040808220849055858252812055600880548061374757634e487b7160e01b600052603160045260246000fd5b6001900381819060005260206000200160009055905550505050565b600061376e83611684565b6001600160a01b039093166000908152600660209081526040808320868452825280832085905593825260079052919091209190915550565b3b151590565b8280546137b990614a3d565b90600052602060002090601f0160209004810192826137db5760008555613821565b82601f106137f457805160ff1916838001178555613821565b82800160010185558215613821579182015b82811115613821578251825591602001919060010190613806565b5061382d929150613831565b5090565b5b8082111561382d5760008155600101613832565b60006001600160401b038084111561386057613860614ad3565b604051601f8501601f19908116603f0116810190828211818310171561388857613888614ad3565b816040528093508581528686860111156138a157600080fd5b858560208301376000602087830101525050509392505050565b80356001600160a01b03811681146107e557600080fd5b600082601f8301126138e2578081fd5b61229283833560208501613846565b803560ff811681146107e557600080fd5b600060208284031215613913578081fd5b612292826138bb565b6000806040838503121561392e578081fd5b613937836138bb565b9150613945602084016138bb565b90509250929050565b600080600060608486031215613962578081fd5b61396b846138bb565b9250613979602085016138bb565b9150604084013590509250925092565b6000806000806080858703121561399e578081fd5b6139a7856138bb565b93506139b5602086016138bb565b92506040850135915060608501356001600160401b038111156139d6578182fd5b8501601f810187136139e6578182fd5b6139f587823560208401613846565b91505092959194509250565b60008060408385031215613a13578182fd5b613a1c836138bb565b915060208301358015158114613a30578182fd5b809150509250929050565b60008060408385031215613a4d578182fd5b613a56836138bb565b915060208301356001600160401b03811115613a70578182fd5b613a7c858286016138d2565b9150509250929050565b60008060408385031215613a98578182fd5b613aa1836138bb565b946020939093013593505050565b600060208284031215613ac0578081fd5b813561229281614ae9565b600060208284031215613adc578081fd5b815161229281614ae9565b600060208284031215613af8578081fd5b81356001600160401b03811115613b0d578182fd5b612a76848285016138d2565b600080600060608486031215613b2d578283fd5b83356001600160401b03811115613b42578384fd5b613b4e868287016138d2565b935050613b5d602085016138f1565b9150613b6b604085016138f1565b90509250925092565b600060208284031215613b85578081fd5b5035919050565b600080600060608486031215613ba0578283fd5b8335925060208401356001600160401b03811115613bbc578283fd5b613bc8868287016138d2565b925050613b6b604085016138f1565b60008060408385031215613be9578182fd5b50508035926020909101359150565b600080600060608486031215613c0c578081fd5b8335925060208401359150613b6b604085016138bb565b60008151808452613c3b8160208601602086016149fa565b601f01601f19169290920160200192915050565b60008154613c5c81614a3d565b60018281168015613c745760018114613c8557613cb4565b60ff19841687528287019450613cb4565b8560005260208060002060005b85811015613cab5781548a820152908401908201613c92565b50505082870194505b5050505092915050565b60008251613cd08184602087016149fa565b9190910192915050565b60008351613cec8184602088016149fa565b835190830190613d008183602088016149fa565b01949350505050565b6000613d158286613c4f565b8451613d258183602089016149fa565b613d3181830186613c4f565b979650505050505050565b90565b92835260609190911b6bffffffffffffffffffffffff19166020830152603482015260540190565b6001600160a01b0391909116815260200190565b6001600160a01b0385811682528416602082015260408101839052608060608201819052600090613dae90830184613c23565b9695505050505050565b6001600160a01b039290921682521515602082015260400190565b6001600160a01b0383168152604060208201819052600090612a7690830184613c23565b6020808252825182820181905260009190848201906040850190845b81811015613e385783516001600160a01b031683529284019291840191600101613e13565b50909695505050505050565b6020808252825182820181905260009190848201906040850190845b81811015613e3857835183529284019291840191600101613e60565b901515815260200190565b6000602082526122926020830184613c23565b600060808252613ead6080830187613c23565b60ff958616602084015293909416604082015290151560609091015292915050565b600060e08252613ee260e083018a613c23565b60ff988916602084015296909716604082015260608101949094526080840192909252151560a0830152151560c09091015292915050565b60006020808352818454613f2d81614a3d565b80848701526040600180841660008114613f4e5760018114613f6257613f8d565b60ff19851689840152606089019550613f8d565b898852868820885b85811015613f855781548b8201860152908301908801613f6a565b8a0184019650505b509398975050505050505050565b6020808252601890820152774e6f6e20667573696f6e6e61626c6520656c656d656e747360401b604082015260600190565b602080825260189082015277436f6d62696e6174696f6e206e6f7420706f737369626c6560401b604082015260600190565b6020808252601690820152752737ba1030903932b3b4ba32b932b210383630bcb2b960511b604082015260600190565b6020808252602b908201527f455243373231456e756d657261626c653a206f776e657220696e646578206f7560408201526a74206f6620626f756e647360a81b606082015260800190565b6020808252601990820152781d1a1a5cc81bdc99195c88191bd95cc81b9bdd08195e1a5cdd603a1b604082015260600190565b6020808252600e908201526d4e6f206c6f636b65644974656d7360901b604082015260600190565b60208082526032908201527f4552433732313a207472616e7366657220746f206e6f6e20455243373231526560408201527131b2b4bb32b91034b6b83632b6b2b73a32b960711b606082015260800190565b60208082526026908201527f4f776e61626c653a206e6577206f776e657220697320746865207a65726f206160408201526564647265737360d01b606082015260800190565b6020808252601c908201527f4552433732313a20746f6b656e20616c7265616479206d696e74656400000000604082015260600190565b6020808252601d908201527f4e6f206d6f7265206974656d7320696e20746865206461746162617365000000604082015260600190565b60208082526024908201527f4552433732313a207472616e7366657220746f20746865207a65726f206164646040820152637265737360e01b606082015260800190565b60208082526019908201527822a9219b99189d1030b8383937bb32903a379031b0b63632b960391b604082015260600190565b6020808252602a908201527f796f7520617265206e6f7420617574686f72697a656420746f207365742074686040820152691a5cc81858d8dbdd5b9d60b21b606082015260800190565b60208082526021908201527f7468697320706c6179657220697320616c7265616479207265676973746572656040820152601960fa1b606082015260800190565b6020808252600f908201526e1c1c9a58d9481b9bdd08195e1858dd608a1b604082015260600190565b6020808252602c908201527f4552433732313a206f70657261746f7220717565727920666f72206e6f6e657860408201526b34b9ba32b73a103a37b5b2b760a11b606082015260800190565b60208082526038908201527f4552433732313a20617070726f76652063616c6c6572206973206e6f74206f776040820152771b995c881b9bdc88185c1c1c9bdd995908199bdc88185b1b60421b606082015260800190565b6020808252601c908201527f74686973206974656d20697320616c7265616479206f6e20736f6c6400000000604082015260600190565b60208082526029908201527f796f7520617265206e6f7420617574686f72697a656420746f20757064617465604082015268103090383630bcb2b960b91b606082015260800190565b6020808252602a908201527f4552433732313a2062616c616e636520717565727920666f7220746865207a65604082015269726f206164647265737360b01b606082015260800190565b60208082526029908201527f4552433732313a206f776e657220717565727920666f72206e6f6e657869737460408201526832b73a103a37b5b2b760b91b606082015260800190565b6020808252603a908201527f5468657265206973206e6f7420656e6f756768206974656d20617661696c626160408201527f6c652c20706c6561736520636f6d65206261636b206c61746572000000000000606082015260800190565b6020808252818101527f4552433732313a206d696e7420746f20746865207a65726f2061646472657373604082015260600190565b6020808252601a908201527f596f752068617665206e6f207265776172647320746f20676574000000000000604082015260600190565b6020808252602c908201527f4552433732313a20617070726f76656420717565727920666f72206e6f6e657860408201526b34b9ba32b73a103a37b5b2b760a11b606082015260800190565b6020808252818101527f4f776e61626c653a2063616c6c6572206973206e6f7420746865206f776e6572604082015260600190565b60208082526029908201527f4552433732313a207472616e73666572206f6620746f6b656e2074686174206960408201526839903737ba1037bbb760b91b606082015260800190565b6020808252602f908201527f4552433732314d657461646174613a2055524920717565727920666f72206e6f60408201526e3732bc34b9ba32b73a103a37b5b2b760891b606082015260800190565b60208082526010908201526f1bdc99195c881dda1a5d1b1a5cdd195960821b604082015260600190565b60208082526021908201527f4552433732313a20617070726f76616c20746f2063757272656e74206f776e656040820152603960f91b606082015260800190565b6020808252601b908201527f4e6f6e6520617661696c61626c65206974656d20666f72206e6f770000000000604082015260600190565b60208082526031908201527f4552433732313a207472616e736665722063616c6c6572206973206e6f74206f6040820152701ddb995c881b9bdc88185c1c1c9bdd9959607a1b606082015260800190565b60208082526034908201527f706c656173652073657420666972737420616e20457468657265756d206164646040820152733932b9b9903337b9103a3434b990383630bcb2b960611b606082015260800190565b6020808252601390820152726e6f7468696e6720746f20776974686472617760681b604082015260600190565b6020808252602c908201527f455243373231456e756d657261626c653a20676c6f62616c20696e646578206f60408201526b7574206f6620626f756e647360a01b606082015260800190565b60208082526023908201527f4572726f72202c20746f6b656e206f776e6564206f72206e6f6e206578697374604082015262195b9d60ea1b606082015260800190565b60208082526022908201527f4e6f20776974686c697374206164647265737320666f722074686973206f726460408201526132b960f11b606082015260800190565b6020808252600f908201526e1d1c985b9cd9995c8819985a5b1959608a1b604082015260600190565b6020808252601990820152784e6f7420746865206f776e6572206f6620746865206974656d60381b604082015260600190565b6020808252601a908201527f4e6f74207468652073656c656374656420726569636569766572000000000000604082015260600190565b90815260200190565b92835260208301919091521515604082015260600190565b600082198211156149ab576149ab614aa7565b500190565b6000826149bf576149bf614abd565b500490565b60008160001904831182151516156149de576149de614aa7565b500290565b6000828210156149f5576149f5614aa7565b500390565b60005b83811015614a155781810151838201526020016149fd565b8381111561212b5750506000910152565b600081614a3557614a35614aa7565b506000190190565b600281046001821680614a5157607f821691505b60208210811415614a7257634e487b7160e01b600052602260045260246000fd5b50919050565b6000600019821415614a8c57614a8c614aa7565b5060010190565b600082614aa257614aa2614abd565b500690565b634e487b7160e01b600052601160045260246000fd5b634e487b7160e01b600052601260045260246000fd5b634e487b7160e01b600052604160045260246000fd5b6001600160e01b031981168114611d0457600080fdfea2646970667358221220c5ddad51897fcb029b44fdc60ad4ef58336ac3ac1e3adc2ac220a9e822b6a18064736f6c63430008010033",
  "immutableReferences": {},
  "source": " // SPDX-License-Identifier: GPL-3.0\r\n\r\npragma solidity 0.8.1;\r\n\r\nimport \"./unlockItems.sol\";\r\n/**\r\n * @title Market \r\n * @notice Here you can sell your items against ETH. You create a selling order and when someone buys it,\r\n * you can come and withdraw your ETH. You can emit whitlested selling orders\r\n * @dev This contract allows the player to exchange his NFT against ETH. Here he can make selling order\r\n * whitlested or not.\r\n */\r\ncontract marketPlace is unlockItems{\r\n    \r\n    ///@dev The basis one which the sold are made.Here everithing is in Ether\r\n\tuint base = 1 ether;\r\n\t\r\n    /**\r\n     * @dev The structure of a market order.\r\n     * @param idItem is the tokenId, \r\n     * @param price requested is the price wished for the items\r\n     * @param active indicate if the order is on or off\r\n     */\r\n\tstruct MarketOrder{\r\n\t\tuint idItem;\r\n\t\tuint priceRequested;\r\n\t\tbool active; \r\n\t}\r\n    \r\n    /**\r\n     * @dev whitelisted Order structure, \r\n     * @param the adress whitelisted\r\n     * @param isActivated indicate if the withelist address is on or off\r\n     */\r\n\tstruct whitelistOrder{\r\n\t\taddress\twhitelistAddress;\r\n\t\tbool isActivated;\r\n\t}\r\n\t\r\n\t///@dev Mapping linking the orderId and the whitelistOrder structure.\r\n\tmapping (uint => whitelistOrder) public orderWithWithelist;\r\n\t\r\n\t///@dev Mapping of the accounts of sellers\r\n\tmapping (address => uint ) public balancePlayer;\r\n\t\r\n\t///@dev Mapping of all the selling orders\r\n\tmapping (uint => MarketOrder) public marketOrders;\r\n\t\r\n\tevent NewMarketOrder (uint idOrder);\r\n\tevent soldMade (uint idOrder);\r\n\tevent orderCanceled(uint idOrder);\r\n\r\n    ///@dev Get a list of all the owners by continent of items. On the front this will make a rank\r\n\tfunction getRankByContinent(uint _numContinent) public view returns(address[] memory) {\r\n\r\n\t\tuint numberItemsOnContinent;\r\n\t\tuint counterOwner;\r\n\r\n\t\tfor (uint i = 0; i < items.length ;i++ ){\r\n\t\t\tif((ownerOf(items[i].tokenId) != _administrator) && items[i].continent == _numContinent ){\r\n\t\t\t\tnumberItemsOnContinent ++;\r\n\t\t\t}\r\n\t\t}\r\n\r\n\t\taddress[] memory ownerOfItem = new address[](numberItemsOnContinent);\r\n\r\n\t\tfor (uint i = 0; i < items.length ;i++ ){\r\n\t\t\tif((ownerOf(items[i].tokenId) != _administrator) && items[i].continent == _numContinent ){\r\n\t\t\t\townerOfItem[counterOwner] = ownerOf(items[i].tokenId);\r\n\t\t\t\tcounterOwner ++;\r\n\t\t\t}\r\n\t\t}\r\n\t\treturn ownerOfItem;\r\n\t}\r\n    \r\n    ///@dev Get access to the customized map of a player\r\n\tfunction getItemsOfPlayer(address _itemsOwner) public view returns(uint[] memory){\r\n\r\n\t\tuint numberItem = balanceOf(_itemsOwner);\r\n\t\tuint[] memory idsItemsOwned = new uint[](numberItem);\r\n\r\n\t\tfor (uint i=0; i < numberItem; i++){\r\n\t\t\tidsItemsOwned[i] = tokenOfOwnerByIndex(_itemsOwner,i);\r\n\t\t}\r\n\r\n\t\treturn idsItemsOwned;\r\n\t}\r\n    \r\n    ///@dev Allows owners to set a market order for selling\r\n    function setMarketOrder(uint _amountWhished, uint _idItemSold) public{\r\n\t\trequire(ownerOf(_idItemSold) == msg.sender, \"Not the owner of the item\");\r\n\t\trequire(!items[_idItemSold].onSold, \"this item is already on sold\");\r\n\r\n\t\tmarketOrders[_idItemSold] = MarketOrder(_idItemSold,_amountWhished, true);\r\n\t\titems[_idItemSold].onSold = true;\r\n\t}\r\n    \r\n    ///@dev Allows owners to set a whitelisted market order\r\n\tfunction setMarketOrderWhitelisted(uint _amountWhished, uint _idItemSold, address _whitelistAddress) public{\r\n\t\trequire(ownerOf(_idItemSold) == msg.sender, \"Not the owner of the item\");\r\n\t\trequire(!items[_idItemSold].onSold, \"this item is already on sold\");\r\n\t\t\r\n\t\tmarketOrders[_idItemSold] = MarketOrder(_idItemSold,_amountWhished, true);\r\n\t\torderWithWithelist[_idItemSold] = whitelistOrder(_whitelistAddress, true);\r\n\t\titems[_idItemSold].onSold = true;\r\n\t}\r\n\t\r\n\t///@dev Allows anyone to buy an existing selling  \r\n\tfunction getOrder(uint _idOrder) public payable{\r\n\t\trequire(marketOrders[_idOrder].active, \"this order does not exist\");\r\n\t\trequire(!orderWithWithelist[_idOrder].isActivated, \"order whitlisted\" );\r\n\t\trequire(msg.value == (marketOrders[_idOrder].priceRequested * base), \"price not exact\");\r\n\r\n\t\tbalancePlayer[ownerOf(_idOrder)] = balancePlayer[ownerOf(_idOrder)] + msg.value;\r\n\t\t_transfer(ownerOf(_idOrder),msg.sender, _idOrder);\r\n\t\t_endOrder(_idOrder);\r\n\t}\r\n\t\r\n    ///@dev Allows the whitlisted address only to get the item \r\n    function getWhitelistedOrder(uint _idOrder) public payable{\r\n\t\trequire(marketOrders[_idOrder].active, \"this order does not exist\");\r\n\t\trequire(orderWithWithelist[_idOrder].isActivated, \"No withlist address for this order\" );\r\n\t\trequire(orderWithWithelist[_idOrder].whitelistAddress == msg.sender , \"Not the selected reiceiver\");\r\n\t\trequire(msg.value == (marketOrders[_idOrder].priceRequested * base), \"price not exact\");\r\n\r\n\t\tbalancePlayer[ownerOf(_idOrder)] = balancePlayer[ownerOf(_idOrder)] + msg.value;\r\n\t\t_transfer(ownerOf(_idOrder),msg.sender, _idOrder);\r\n\t\t_endOrder(_idOrder);\r\n\t}\r\n    \r\n    ///@dev A seller can cancel a pending selling order\r\n\tfunction cancelOrder(uint _idOrder) public {\r\n\t\trequire (ownerOf(_idOrder) == msg.sender);\r\n\t\t\r\n\t\tmarketOrders[_idOrder] = MarketOrder(0,0,false);\r\n\t\torderWithWithelist[_idOrder].isActivated = false;\r\n\t\titems[_idOrder].onSold = false;\r\n\t}\r\n\t\r\n\t///@dev End an order\r\n\tfunction _endOrder(uint _idOrder) private {\r\n\t\t\r\n\t\tmarketOrders[_idOrder] = MarketOrder(0,0,false);\r\n\t\torderWithWithelist[_idOrder].isActivated = false;\r\n\t\titems[_idOrder].onSold = false;\r\n\t}\r\n    \r\n    ///@dev Allows the seller withdraw all his money from selling\r\n\tfunction withdrawAmount() public {\r\n\t\trequire (balancePlayer[msg.sender] != 0, \"nothing to withdraw\");\r\n\t\t(bool success, ) = msg.sender.call{value: balancePlayer[msg.sender]}(\"\");\r\n      \trequire(success, 'transfer failed');\r\n      \tbalancePlayer[msg.sender] = 0;\r\n\t}\r\n}",
  "sourcePath": "C:\\Users\\fboud\\OneDrive\\Documents\\Alyra\\projetFinal\\contracts\\marketPlace.sol",
  "compiler": {
    "name": "solc",
    "version": "0.8.1+commit.df193b15.Emscripten.clang"
  },
  "schemaVersion": "3.4.2",
  "updatedAt": "2021-07-31T18:45:01.278Z",
  "networkType": "ethereum",
  "devdoc": {
    "details": "This contract allows the player to exchange his NFT against ETH. Here he can make selling order whitlested or not.",
    "kind": "dev",
    "methods": {
      "approve(address,uint256)": {
        "details": "See {IERC721-approve}."
      },
      "balanceOf(address)": {
        "details": "See {IERC721-balanceOf}."
      },
      "cancelOrder(uint256)": {
        "details": "A seller can cancel a pending selling order"
      },
      "createItem(uint256,string,uint8)": {
        "details": "Function allowing to create items. Only the adminstrator can make one"
      },
      "fusionItem(uint256,uint256)": {
        "details": "Make the fusion between two items, create the composition, the new name, continent and tokenId"
      },
      "getApproved(uint256)": {
        "details": "See {IERC721-getApproved}."
      },
      "getItemsOfPlayer(address)": {
        "details": "Get access to the customized map of a player"
      },
      "getLockedItems()": {
        "details": "Gives to the administrator a list of tokenId locked"
      },
      "getOrder(uint256)": {
        "details": "Allows anyone to buy an existing selling  "
      },
      "getRankByContinent(uint256)": {
        "details": "Get a list of all the owners by continent of items. On the front this will make a rank"
      },
      "getReward()": {
        "details": "Transform the reward as a NFT"
      },
      "getWhitelistedOrder(uint256)": {
        "details": "Allows the whitlisted address only to get the item "
      },
      "isApprovedForAll(address,address)": {
        "details": "See {IERC721-isApprovedForAll}."
      },
      "lock(uint256)": {
        "details": "Administrator locks items"
      },
      "name()": {
        "details": "See {IERC721Metadata-name}."
      },
      "owner()": {
        "details": "Returns the address of the current owner."
      },
      "ownerOf(uint256)": {
        "details": "See {IERC721-ownerOf}."
      },
      "renounceOwnership()": {
        "details": "Leaves the contract without owner. It will not be possible to call `onlyOwner` functions anymore. Can only be called by the current owner. NOTE: Renouncing ownership will leave the contract without an owner, thereby removing any functionality that is only available to the owner."
      },
      "safeTransferFrom(address,address,uint256)": {
        "details": "See {IERC721-safeTransferFrom}."
      },
      "safeTransferFrom(address,address,uint256,bytes)": {
        "details": "See {IERC721-safeTransferFrom}."
      },
      "setApprovalForAll(address,bool)": {
        "details": "See {IERC721-setApprovalForAll}."
      },
      "setMarketOrder(uint256,uint256)": {
        "details": "Allows owners to set a market order for selling"
      },
      "setMarketOrderWhitelisted(uint256,uint256,address)": {
        "details": "Allows owners to set a whitelisted market order"
      },
      "setMultiversePlayer(address,string)": {
        "details": "link a login with a player. The login must be the exact same one than the one used in POW"
      },
      "supportsInterface(bytes4)": {
        "details": "See {IERC165-supportsInterface}."
      },
      "symbol()": {
        "details": "See {IERC721Metadata-symbol}."
      },
      "tokenByIndex(uint256)": {
        "details": "See {IERC721Enumerable-tokenByIndex}."
      },
      "tokenOfOwnerByIndex(address,uint256)": {
        "details": "See {IERC721Enumerable-tokenOfOwnerByIndex}."
      },
      "tokenURI(uint256)": {
        "details": "See {IERC721Metadata-tokenURI}."
      },
      "totalSupply()": {
        "details": "See {IERC721Enumerable-totalSupply}."
      },
      "transferFrom(address,address,uint256)": {
        "details": "See {IERC721-transferFrom}."
      },
      "transferOwnership(address)": {
        "details": "Transfers ownership of the contract to a new account (`newOwner`). Can only be called by the current owner."
      },
      "unlock(uint256)": {
        "details": "Administrator unlocks items"
      },
      "updateMultiversePlayer(string,uint8,uint8)": {
        "details": "Update the data of a registered player. The adnministrator Only can set this. In the future, the oracle will do that"
      },
      "withdrawAmount()": {
        "details": "Allows the seller withdraw all his money from selling"
      }
    },
    "stateVariables": {
      "balancePlayer": {
        "details": "Mapping of the accounts of sellers"
      },
      "base": {
        "details": "The basis one which the sold are made.Here everithing is in Ether"
      },
      "marketOrders": {
        "details": "Mapping of all the selling orders"
      },
      "orderWithWithelist": {
        "details": "Mapping linking the orderId and the whitelistOrder structure."
      }
    },
    "title": "Market ",
    "version": 1
  },
  "userdoc": {
    "kind": "user",
    "methods": {},
    "notice": "Here you can sell your items against ETH. You create a selling order and when someone buys it, you can come and withdraw your ETH. You can emit whitlested selling orders",
    "version": 1
  }
}