{
  "contractName": "POWStakingTournament",
  "abi": [
    {
      "inputs": [
        {
          "internalType": "uint256",
          "name": "_levelOfXpToReward",
          "type": "uint256"
        },
        {
          "internalType": "uint256",
          "name": "_initialSupply",
          "type": "uint256"
        }
      ],
      "stateMutability": "nonpayable",
      "type": "constructor"
    },
    {
      "anonymous": false,
      "inputs": [
        {
          "indexed": true,
          "internalType": "address",
          "name": "owner",
          "type": "address"
        },
        {
          "indexed": true,
          "internalType": "address",
          "name": "spender",
          "type": "address"
        },
        {
          "indexed": false,
          "internalType": "uint256",
          "name": "value",
          "type": "uint256"
        }
      ],
      "name": "Approval",
      "type": "event"
    },
    {
      "anonymous": false,
      "inputs": [
        {
          "indexed": false,
          "internalType": "address",
          "name": "addressPlayer",
          "type": "address"
        },
        {
          "indexed": false,
          "internalType": "string",
          "name": "loginPlayer",
          "type": "string"
        }
      ],
      "name": "NewPlayerRegistered",
      "type": "event"
    },
    {
      "anonymous": false,
      "inputs": [
        {
          "indexed": true,
          "internalType": "address",
          "name": "previousOwner",
          "type": "address"
        },
        {
          "indexed": true,
          "internalType": "address",
          "name": "newOwner",
          "type": "address"
        }
      ],
      "name": "OwnershipTransferred",
      "type": "event"
    },
    {
      "anonymous": false,
      "inputs": [
        {
          "indexed": true,
          "internalType": "address",
          "name": "from",
          "type": "address"
        },
        {
          "indexed": true,
          "internalType": "address",
          "name": "to",
          "type": "address"
        },
        {
          "indexed": false,
          "internalType": "uint256",
          "name": "value",
          "type": "uint256"
        }
      ],
      "name": "Transfer",
      "type": "event"
    },
    {
      "anonymous": false,
      "inputs": [],
      "name": "newAmountReward",
      "type": "event"
    },
    {
      "anonymous": false,
      "inputs": [
        {
          "indexed": false,
          "internalType": "uint256",
          "name": "idTournament",
          "type": "uint256"
        }
      ],
      "name": "newTournament",
      "type": "event"
    },
    {
      "anonymous": false,
      "inputs": [
        {
          "indexed": false,
          "internalType": "string",
          "name": "login",
          "type": "string"
        }
      ],
      "name": "playerUpdated",
      "type": "event"
    },
    {
      "anonymous": false,
      "inputs": [],
      "name": "rewardWithdrawn",
      "type": "event"
    },
    {
      "inputs": [
        {
          "internalType": "address",
          "name": "",
          "type": "address"
        }
      ],
      "name": "_balances",
      "outputs": [
        {
          "internalType": "uint256",
          "name": "",
          "type": "uint256"
        }
      ],
      "stateMutability": "view",
      "type": "function"
    },
    {
      "inputs": [],
      "name": "_owner",
      "outputs": [
        {
          "internalType": "address",
          "name": "",
          "type": "address"
        }
      ],
      "stateMutability": "view",
      "type": "function"
    },
    {
      "inputs": [
        {
          "internalType": "address",
          "name": "owner",
          "type": "address"
        },
        {
          "internalType": "address",
          "name": "spender",
          "type": "address"
        }
      ],
      "name": "allowance",
      "outputs": [
        {
          "internalType": "uint256",
          "name": "",
          "type": "uint256"
        }
      ],
      "stateMutability": "view",
      "type": "function"
    },
    {
      "inputs": [
        {
          "internalType": "address",
          "name": "spender",
          "type": "address"
        },
        {
          "internalType": "uint256",
          "name": "amount",
          "type": "uint256"
        }
      ],
      "name": "approve",
      "outputs": [
        {
          "internalType": "bool",
          "name": "",
          "type": "bool"
        }
      ],
      "stateMutability": "nonpayable",
      "type": "function"
    },
    {
      "inputs": [
        {
          "internalType": "address",
          "name": "account",
          "type": "address"
        }
      ],
      "name": "balanceOf",
      "outputs": [
        {
          "internalType": "uint256",
          "name": "",
          "type": "uint256"
        }
      ],
      "stateMutability": "view",
      "type": "function"
    },
    {
      "inputs": [
        {
          "internalType": "address",
          "name": "_account",
          "type": "address"
        },
        {
          "internalType": "uint256",
          "name": "_amount",
          "type": "uint256"
        }
      ],
      "name": "burnPow",
      "outputs": [],
      "stateMutability": "nonpayable",
      "type": "function"
    },
    {
      "inputs": [],
      "name": "decimals",
      "outputs": [
        {
          "internalType": "uint8",
          "name": "",
          "type": "uint8"
        }
      ],
      "stateMutability": "view",
      "type": "function"
    },
    {
      "inputs": [
        {
          "internalType": "address",
          "name": "spender",
          "type": "address"
        },
        {
          "internalType": "uint256",
          "name": "subtractedValue",
          "type": "uint256"
        }
      ],
      "name": "decreaseAllowance",
      "outputs": [
        {
          "internalType": "bool",
          "name": "",
          "type": "bool"
        }
      ],
      "stateMutability": "nonpayable",
      "type": "function"
    },
    {
      "inputs": [],
      "name": "getReward",
      "outputs": [],
      "stateMutability": "nonpayable",
      "type": "function"
    },
    {
      "inputs": [
        {
          "internalType": "address",
          "name": "spender",
          "type": "address"
        },
        {
          "internalType": "uint256",
          "name": "addedValue",
          "type": "uint256"
        }
      ],
      "name": "increaseAllowance",
      "outputs": [
        {
          "internalType": "bool",
          "name": "",
          "type": "bool"
        }
      ],
      "stateMutability": "nonpayable",
      "type": "function"
    },
    {
      "inputs": [
        {
          "internalType": "address",
          "name": "",
          "type": "address"
        }
      ],
      "name": "multiverseData",
      "outputs": [
        {
          "internalType": "string",
          "name": "login",
          "type": "string"
        },
        {
          "internalType": "uint256",
          "name": "lastLevelErc20Reward",
          "type": "uint256"
        },
        {
          "internalType": "uint256",
          "name": "XP",
          "type": "uint256"
        },
        {
          "internalType": "bool",
          "name": "isRegistered",
          "type": "bool"
        }
      ],
      "stateMutability": "view",
      "type": "function"
    },
    {
      "inputs": [
        {
          "internalType": "string",
          "name": "",
          "type": "string"
        }
      ],
      "name": "multiverseIds",
      "outputs": [
        {
          "internalType": "address",
          "name": "",
          "type": "address"
        }
      ],
      "stateMutability": "view",
      "type": "function"
    },
    {
      "inputs": [
        {
          "internalType": "address",
          "name": "target",
          "type": "address"
        },
        {
          "internalType": "uint256",
          "name": "amount",
          "type": "uint256"
        }
      ],
      "name": "myMint",
      "outputs": [],
      "stateMutability": "nonpayable",
      "type": "function"
    },
    {
      "inputs": [],
      "name": "name",
      "outputs": [
        {
          "internalType": "string",
          "name": "",
          "type": "string"
        }
      ],
      "stateMutability": "view",
      "type": "function"
    },
    {
      "inputs": [],
      "name": "owner",
      "outputs": [
        {
          "internalType": "address",
          "name": "",
          "type": "address"
        }
      ],
      "stateMutability": "view",
      "type": "function"
    },
    {
      "inputs": [],
      "name": "renounceOwnership",
      "outputs": [],
      "stateMutability": "nonpayable",
      "type": "function"
    },
    {
      "inputs": [
        {
          "internalType": "address",
          "name": "_addressPlayer",
          "type": "address"
        },
        {
          "internalType": "string",
          "name": "_login",
          "type": "string"
        }
      ],
      "name": "setMultiversePlayer",
      "outputs": [],
      "stateMutability": "nonpayable",
      "type": "function"
    },
    {
      "inputs": [
        {
          "internalType": "uint256",
          "name": "_rewardOfEachLevel",
          "type": "uint256"
        }
      ],
      "name": "setReward",
      "outputs": [],
      "stateMutability": "nonpayable",
      "type": "function"
    },
    {
      "inputs": [],
      "name": "symbol",
      "outputs": [
        {
          "internalType": "string",
          "name": "",
          "type": "string"
        }
      ],
      "stateMutability": "view",
      "type": "function"
    },
    {
      "inputs": [],
      "name": "totalSupply",
      "outputs": [
        {
          "internalType": "uint256",
          "name": "",
          "type": "uint256"
        }
      ],
      "stateMutability": "view",
      "type": "function"
    },
    {
      "inputs": [
        {
          "internalType": "uint256",
          "name": "",
          "type": "uint256"
        }
      ],
      "name": "tournaments",
      "outputs": [
        {
          "internalType": "uint256",
          "name": "idTournament",
          "type": "uint256"
        },
        {
          "internalType": "uint256",
          "name": "stakeRequested",
          "type": "uint256"
        },
        {
          "internalType": "uint256",
          "name": "durationTournament",
          "type": "uint256"
        },
        {
          "internalType": "string",
          "name": "subjectTournament",
          "type": "string"
        },
        {
          "internalType": "bool",
          "name": "isActive",
          "type": "bool"
        }
      ],
      "stateMutability": "view",
      "type": "function"
    },
    {
      "inputs": [
        {
          "internalType": "address",
          "name": "recipient",
          "type": "address"
        },
        {
          "internalType": "uint256",
          "name": "amount",
          "type": "uint256"
        }
      ],
      "name": "transfer",
      "outputs": [
        {
          "internalType": "bool",
          "name": "",
          "type": "bool"
        }
      ],
      "stateMutability": "nonpayable",
      "type": "function"
    },
    {
      "inputs": [
        {
          "internalType": "address",
          "name": "sender",
          "type": "address"
        },
        {
          "internalType": "address",
          "name": "recipient",
          "type": "address"
        },
        {
          "internalType": "uint256",
          "name": "amount",
          "type": "uint256"
        }
      ],
      "name": "transferFrom",
      "outputs": [
        {
          "internalType": "bool",
          "name": "",
          "type": "bool"
        }
      ],
      "stateMutability": "nonpayable",
      "type": "function"
    },
    {
      "inputs": [
        {
          "internalType": "address",
          "name": "newOwner",
          "type": "address"
        }
      ],
      "name": "transferOwnership",
      "outputs": [],
      "stateMutability": "nonpayable",
      "type": "function"
    },
    {
      "inputs": [
        {
          "internalType": "string",
          "name": "_login",
          "type": "string"
        },
        {
          "internalType": "uint256",
          "name": "_XP",
          "type": "uint256"
        }
      ],
      "name": "updateMultiversePlayer",
      "outputs": [],
      "stateMutability": "nonpayable",
      "type": "function"
    },
    {
      "inputs": [
        {
          "internalType": "string",
          "name": "_subjectTournament",
          "type": "string"
        },
        {
          "internalType": "uint256",
          "name": "_stakeRequested",
          "type": "uint256"
        },
        {
          "internalType": "uint256",
          "name": "_durationTournament",
          "type": "uint256"
        },
        {
          "internalType": "uint256",
          "name": "_idTournament",
          "type": "uint256"
        }
      ],
      "name": "setTournament",
      "outputs": [],
      "stateMutability": "nonpayable",
      "type": "function"
    }
  ],
  "bytecode": "0x60806040523480156200001157600080fd5b50604051620020cb380380620020cb8339810160408190526200003491620002e9565b8181604051806040016040528060088152602001672837bbaa37b5b2b760c11b81525060405180604001604052806003815260200162504f5760e81b81525081600390805190602001906200008b92919062000243565b508051620000a190600490602084019062000243565b505050620000be620000b86200010660201b60201c565b6200010a565b60068054336001600160a01b031991821681179092556009805490911690911790819055600a839055620000fc906001600160a01b0316826200015c565b50505050620003af565b3390565b600580546001600160a01b038381166001600160a01b0319831681179093556040519116919082907f8be0079c531659141344cd1fd0a4f28419497f9722a3daafe3b4186f6b6457e090600090a35050565b6001600160a01b0382166200018e5760405162461bcd60e51b815260040162000185906200030d565b60405180910390fd5b6200019c600083836200023e565b8060026000828254620001b091906200034d565b90915550506001600160a01b03821660009081526020819052604081208054839290620001df9084906200034d565b90915550506040516001600160a01b038316906000907fddf252ad1be2c89b69c2b068fc378daa952ba7f163c4a11628f55a4df523b3ef906200022490859062000344565b60405180910390a36200023a600083836200023e565b5050565b505050565b828054620002519062000372565b90600052602060002090601f016020900481019282620002755760008555620002c0565b82601f106200029057805160ff1916838001178555620002c0565b82800160010185558215620002c0579182015b82811115620002c0578251825591602001919060010190620002a3565b50620002ce929150620002d2565b5090565b5b80821115620002ce5760008155600101620002d3565b60008060408385031215620002fc578182fd5b505080516020909101519092909150565b6020808252601f908201527f45524332303a206d696e7420746f20746865207a65726f206164647265737300604082015260600190565b90815260200190565b600082198211156200036d57634e487b7160e01b81526011600452602481fd5b500190565b6002810460018216806200038757607f821691505b60208210811415620003a957634e487b7160e01b600052602260045260246000fd5b50919050565b611d0c80620003bf6000396000f3fe608060405234801561001057600080fd5b506004361061016e5760003560e01c8063715018a6116100ce578063a457c2d711610087578063a457c2d7146102fc578063a9059cbb1461030f578063b2bdfa7b14610322578063dd62ed3e1461032a578063e9dbd45a1461033d578063f2fde38b14610350578063f3bee102146103635761016e565b8063715018a61461027d5780637503e1b71461028557806375adb7fd146102a95780638da5cb5b146102cc57806395d89b41146102e15780639b008e47146102e95761016e565b8063313ce5671161012b578063313ce5671461020157806339509351146102165780633d18b912146102295780634cb3d433146102315780635a3a496d146102445780636ebcf6071461025757806370a082311461026a5761016e565b80630334a4e41461017357806306fdde0314610188578063095ea7b3146101a657806318160ddd146101c657806323b872dd146101db578063293be456146101ee575b600080fd5b61018661018136600461143b565b610376565b005b6101906103cc565b60405161019d91906115d7565b60405180910390f35b6101b96101b436600461143b565b61045e565b60405161019d91906115cc565b6101ce61047b565b60405161019d9190611b65565b6101b96101e93660046113b4565b610481565b6101866101fc366004611534565b610511565b610209610581565b60405161019d9190611ba7565b6101b961022436600461143b565b610586565b6101866105da565b61018661023f36600461149f565b610713565b6101866102523660046114e2565b610822565b6101ce610265366004611361565b610970565b6101ce610278366004611361565b610982565b6101866109a1565b610298610293366004611534565b6109ec565b60405161019d959493929190611b6e565b6102bc6102b7366004611361565b610aa8565b60405161019d94939291906115ea565b6102d4610b5d565b60405161019d9190611594565b610190610b6c565b6101866102f73660046113ef565b610b7b565b6101b961030a36600461143b565b610ccb565b6101b961031d36600461143b565b610d44565b6102d4610d58565b6101ce610338366004611382565b610d67565b6102d461034b366004611464565b610d92565b61018661035e366004611361565b610db8565b61018661037136600461143b565b610e29565b61037e610e72565b6001600160a01b031661038f610b5d565b6001600160a01b0316146103be5760405162461bcd60e51b81526004016103b590611996565b60405180910390fd5b6103c88282610e76565b5050565b6060600380546103db90611c4f565b80601f016020809104026020016040519081016040528092919081815260200182805461040790611c4f565b80156104545780601f1061042957610100808354040283529160200191610454565b820191906000526020600020905b81548152906001019060200180831161043757829003601f168201915b5050505050905090565b600061047261046b610e72565b8484610f2c565b50600192915050565b60025490565b600061048e848484610fe0565b6001600160a01b0384166000908152600160205260408120816104af610e72565b6001600160a01b03166001600160a01b03168152602001908152602001600020549050828110156104f25760405162461bcd60e51b81526004016103b59061194e565b610506856104fe610e72565b858403610f2c565b506001949350505050565b610519610e72565b6001600160a01b031661052a610b5d565b6001600160a01b0316146105505760405162461bcd60e51b81526004016103b590611996565b600b8190556040517f905ba88c728c23467d10cea61f7a517e2d71fa47d3481be50e86457071d84fd890600090a150565b601290565b6000610472610593610e72565b8484600160006105a1610e72565b6001600160a01b03908116825260208083019390935260409182016000908120918b16815292529020546105d59190611bb5565b610f2c565b3360009081526008602052604090206003015460ff1661060c5760405162461bcd60e51b81526004016103b590611728565b600b5461062b5760405162461bcd60e51b81526004016103b590611876565b600a543360009081526008602052604081206002015490918291829161065091611bcd565b91508115806106795750336000908152600860205260409020600101546106779083611c0c565b155b156106965760405162461bcd60e51b81526004016103b590611917565b336000908152600860205260409020600101546106b39083611c0c565b9250600b54836106c39190611bed565b3360008181526008602052604090206001018490559091506106e59082610e76565b6040517fd3f9ddfe1db89b547b02b16d65f9f96eef894e9d4b83c52a2732b741112a990a90600090a1505050565b6006546001600160a01b0316331461073d5760405162461bcd60e51b81526004016103b5906118ce565b600860006007846040516107519190611578565b90815260408051918290036020908101909220546001600160a01b0316835290820192909252016000206003015460ff1615156001146107a35760405162461bcd60e51b81526004016103b590611a95565b80600860006007856040516107b89190611578565b9081526040805160209281900383019020546001600160a01b0316835290820192909252810160002060020191909155517faa6183438646fc8bb56f82868ce90c0a5bd1301970b115e976c90c1d696a1550906108169084906115d7565b60405180910390a15050565b61082a610e72565b6001600160a01b031661083b610b5d565b6001600160a01b0316146108615760405162461bcd60e51b81526004016103b590611996565b6000818152600d602052604090206004015460ff16156108935760405162461bcd60e51b81526004016103b590611844565b60006108a28362015180611bed565b905060006108b08242611bb5565b6040805160a0810182528581526020808201898152828401858152606084018c815260016080860181905260008b8152600d86529690962085518155925195830195909555516002820155925180519495509193610914926003850192019061122a565b50608091909101516004909101805460ff19169115159190911790556040517f9b31227c2c81192ff59c33d9e0ba8e195f7956db1628854cd066819676aed95290610960908590611b65565b60405180910390a1505050505050565b600c6020526000908152604090205481565b6001600160a01b0381166000908152602081905260409020545b919050565b6109a9610e72565b6001600160a01b03166109ba610b5d565b6001600160a01b0316146109e05760405162461bcd60e51b81526004016103b590611996565b6109ea60006110f8565b565b600d60205260009081526040902080546001820154600283015460038401805493949293919291610a1c90611c4f565b80601f0160208091040260200160405190810160405280929190818152602001828054610a4890611c4f565b8015610a955780601f10610a6a57610100808354040283529160200191610a95565b820191906000526020600020905b815481529060010190602001808311610a7857829003601f168201915b5050506004909301549192505060ff1685565b600860205260009081526040902080548190610ac390611c4f565b80601f0160208091040260200160405190810160405280929190818152602001828054610aef90611c4f565b8015610b3c5780601f10610b1157610100808354040283529160200191610b3c565b820191906000526020600020905b815481529060010190602001808311610b1f57829003601f168201915b50505050600183015460028401546003909401549293909290915060ff1684565b6005546001600160a01b031690565b6060600480546103db90611c4f565b6006546001600160a01b0316331480610b9c5750336001600160a01b038316145b610bb85760405162461bcd60e51b81526004016103b5906117b9565b60086000600783604051610bcc9190611578565b9081526040805160209281900383019020546001600160a01b0316835290820192909252016000206003015460ff1615610c185760405162461bcd60e51b81526004016103b590611803565b81600782604051610c299190611578565b908152604080516020928190038301902080546001600160a01b0319166001600160a01b03948516179055918416600090815260088252919091208251610c729284019061122a565b506001600160a01b03821660009081526008602052604090819020600301805460ff19166001179055517fd1271c0a878b06e77c2b145e81fda258074d1d9f72d29461da6de567fe185db39061081690849084906115a8565b60008060016000610cda610e72565b6001600160a01b0390811682526020808301939093526040918201600090812091881681529252902054905082811015610d265760405162461bcd60e51b81526004016103b590611ae9565b610d3a610d31610e72565b85858403610f2c565b5060019392505050565b6000610472610d51610e72565b8484610fe0565b6009546001600160a01b031681565b6001600160a01b03918216600090815260016020908152604080832093909416825291909152205490565b80516020818301810180516007825292820191909301209152546001600160a01b031681565b610dc0610e72565b6001600160a01b0316610dd1610b5d565b6001600160a01b031614610df75760405162461bcd60e51b81526004016103b590611996565b6001600160a01b038116610e1d5760405162461bcd60e51b81526004016103b5906116a0565b610e26816110f8565b50565b610e31610e72565b6001600160a01b0316610e42610b5d565b6001600160a01b031614610e685760405162461bcd60e51b81526004016103b590611996565b6103c8828261114a565b3390565b6001600160a01b038216610e9c5760405162461bcd60e51b81526004016103b590611b2e565b610ea860008383611225565b8060026000828254610eba9190611bb5565b90915550506001600160a01b03821660009081526020819052604081208054839290610ee7908490611bb5565b90915550506040516001600160a01b03831690600090600080516020611cb783398151915290610f18908590611b65565b60405180910390a36103c860008383611225565b6001600160a01b038316610f525760405162461bcd60e51b81526004016103b590611a51565b6001600160a01b038216610f785760405162461bcd60e51b81526004016103b5906116e6565b6001600160a01b0380841660008181526001602090815260408083209487168084529490915290819020849055517f8c5be1e5ebec7d5bd14f71427d1e84f3dd0314c0f7b2291e5b200ac8c7c3b92590610fd3908590611b65565b60405180910390a3505050565b6001600160a01b0383166110065760405162461bcd60e51b81526004016103b590611a0c565b6001600160a01b03821661102c5760405162461bcd60e51b81526004016103b59061161b565b611037838383611225565b6001600160a01b038316600090815260208190526040902054818110156110705760405162461bcd60e51b81526004016103b590611773565b6001600160a01b038085166000908152602081905260408082208585039055918516815290812080548492906110a7908490611bb5565b92505081905550826001600160a01b0316846001600160a01b0316600080516020611cb7833981519152846040516110df9190611b65565b60405180910390a36110f2848484611225565b50505050565b600580546001600160a01b038381166001600160a01b0319831681179093556040519116919082907f8be0079c531659141344cd1fd0a4f28419497f9722a3daafe3b4186f6b6457e090600090a35050565b6001600160a01b0382166111705760405162461bcd60e51b81526004016103b5906119cb565b61117c82600083611225565b6001600160a01b038216600090815260208190526040902054818110156111b55760405162461bcd60e51b81526004016103b59061165e565b6001600160a01b03831660009081526020819052604081208383039055600280548492906111e4908490611c0c565b90915550506040516000906001600160a01b03851690600080516020611cb783398151915290611215908690611b65565b60405180910390a3611225836000845b505050565b82805461123690611c4f565b90600052602060002090601f016020900481019282611258576000855561129e565b82601f1061127157805160ff191683800117855561129e565b8280016001018555821561129e579182015b8281111561129e578251825591602001919060010190611283565b506112aa9291506112ae565b5090565b5b808211156112aa57600081556001016112af565b80356001600160a01b038116811461099c57600080fd5b600082601f8301126112ea578081fd5b813567ffffffffffffffff8082111561130557611305611ca0565b604051601f8301601f19908116603f0116810190828211818310171561132d5761132d611ca0565b81604052838152866020858801011115611345578485fd5b8360208701602083013792830160200193909352509392505050565b600060208284031215611372578081fd5b61137b826112c3565b9392505050565b60008060408385031215611394578081fd5b61139d836112c3565b91506113ab602084016112c3565b90509250929050565b6000806000606084860312156113c8578081fd5b6113d1846112c3565b92506113df602085016112c3565b9150604084013590509250925092565b60008060408385031215611401578182fd5b61140a836112c3565b9150602083013567ffffffffffffffff811115611425578182fd5b611431858286016112da565b9150509250929050565b6000806040838503121561144d578182fd5b611456836112c3565b946020939093013593505050565b600060208284031215611475578081fd5b813567ffffffffffffffff81111561148b578182fd5b611497848285016112da565b949350505050565b600080604083850312156114b1578182fd5b823567ffffffffffffffff8111156114c7578283fd5b6114d3858286016112da565b95602094909401359450505050565b600080600080608085870312156114f7578081fd5b843567ffffffffffffffff81111561150d578182fd5b611519878288016112da565b97602087013597506040870135966060013595509350505050565b600060208284031215611545578081fd5b5035919050565b60008151808452611564816020860160208601611c23565b601f01601f19169290920160200192915050565b6000825161158a818460208701611c23565b9190910192915050565b6001600160a01b0391909116815260200190565b6001600160a01b03831681526040602082018190526000906114979083018461154c565b901515815260200190565b60006020825261137b602083018461154c565b6000608082526115fd608083018761154c565b60208301959095525060408101929092521515606090910152919050565b60208082526023908201527f45524332303a207472616e7366657220746f20746865207a65726f206164647260408201526265737360e81b606082015260800190565b60208082526022908201527f45524332303a206275726e20616d6f756e7420657863656564732062616c616e604082015261636560f01b606082015260800190565b60208082526026908201527f4f776e61626c653a206e6577206f776e657220697320746865207a65726f206160408201526564647265737360d01b606082015260800190565b60208082526022908201527f45524332303a20617070726f766520746f20746865207a65726f206164647265604082015261737360f01b606082015260800190565b6020808252602b908201527f596f7520617265206e6f7420656c696769626c652c20706c656173652072656760408201526a1a5cdd195c88199a5c9cdd60aa1b606082015260800190565b60208082526026908201527f45524332303a207472616e7366657220616d6f756e7420657863656564732062604082015265616c616e636560d01b606082015260800190565b6020808252602a908201527f796f7520617265206e6f7420617574686f72697a656420746f207365742074686040820152691a5cc81858d8dbdd5b9d60b21b606082015260800190565b60208082526021908201527f7468697320706c6179657220697320616c7265616479207265676973746572656040820152601960fa1b606082015260800190565b602080825260189082015277141b19585cd94818da1bdbdcd948185b9bdd1a195c88125960421b604082015260600190565b60208082526038908201527f506f772069732063757272656e746c792073657474696e6720726577617264736040820152771610383632b0b9b29031b7b6b2903130b1b5903630ba32b960411b606082015260800190565b60208082526029908201527f796f7520617265206e6f7420617574686f72697a656420746f20757064617465604082015268103090383630bcb2b960b91b606082015260800190565b6020808252601b908201527f6e6f7468696e6720746f20776974686472617720666f72206e6f770000000000604082015260600190565b60208082526028908201527f45524332303a207472616e7366657220616d6f756e74206578636565647320616040820152676c6c6f77616e636560c01b606082015260800190565b6020808252818101527f4f776e61626c653a2063616c6c6572206973206e6f7420746865206f776e6572604082015260600190565b60208082526021908201527f45524332303a206275726e2066726f6d20746865207a65726f206164647265736040820152607360f81b606082015260800190565b60208082526025908201527f45524332303a207472616e736665722066726f6d20746865207a65726f206164604082015264647265737360d81b606082015260800190565b60208082526024908201527f45524332303a20617070726f76652066726f6d20746865207a65726f206164646040820152637265737360e01b606082015260800190565b60208082526034908201527f706c656173652073657420666972737420616e20457468657265756d206164646040820152733932b9b9903337b9103a3434b990383630bcb2b960611b606082015260800190565b60208082526025908201527f45524332303a2064656372656173656420616c6c6f77616e63652062656c6f77604082015264207a65726f60d81b606082015260800190565b6020808252601f908201527f45524332303a206d696e7420746f20746865207a65726f206164647265737300604082015260600190565b90815260200190565b600086825285602083015284604083015260a06060830152611b9360a083018561154c565b905082151560808301529695505050505050565b60ff91909116815260200190565b60008219821115611bc857611bc8611c8a565b500190565b600082611be857634e487b7160e01b81526012600452602481fd5b500490565b6000816000190483118215151615611c0757611c07611c8a565b500290565b600082821015611c1e57611c1e611c8a565b500390565b60005b83811015611c3e578181015183820152602001611c26565b838111156110f25750506000910152565b600281046001821680611c6357607f821691505b60208210811415611c8457634e487b7160e01b600052602260045260246000fd5b50919050565b634e487b7160e01b600052601160045260246000fd5b634e487b7160e01b600052604160045260246000fdfeddf252ad1be2c89b69c2b068fc378daa952ba7f163c4a11628f55a4df523b3efa26469706673582212203aed5479f323b6203fa269b63d83def9811231699d34841dea290041b8549b7664736f6c63430008010033",
  "immutableReferences": {},
  "source": "// SPDX-License-Identifier: MIT\r\n\r\npragma solidity 0.8.1;\r\n\r\nimport \"./POWToken.sol\";\r\n\r\n\r\ncontract POWStakingTournament is POWToken {\r\n\r\n    constructor(uint _levelOfXpToReward, uint _initialSupply) POWToken(_levelOfXpToReward, _initialSupply) {}\r\n\r\n   struct Tournament {\r\n        uint idTournament;\r\n        uint stakeRequested;\r\n        uint durationTournament;\r\n        string subjectTournament;\r\n        bool isActive;\r\n    } \r\n\r\n\r\n    mapping (uint => Tournament) public tournaments;\r\n\r\n    event newTournament (uint idTournament);\r\n\r\n\r\n    function setTournament (string memory _subjectTournament, uint _stakeRequested, uint _durationTournament, uint _idTournament) onlyOwner public {\r\n        require (!tournaments[_idTournament].isActive, \"Please choose another Id\");\r\n\r\n        uint durationInDays = _durationTournament * 1 days;\r\n        uint counterTimeTournament = block.timestamp + durationInDays; \r\n\r\n        tournaments[_idTournament] = Tournament(_idTournament, _stakeRequested, counterTimeTournament,_subjectTournament, true);\r\n        emit newTournament (_idTournament);\r\n    }\r\n\r\n\r\n}\r\n\r\n   ",
  "sourcePath": "C:\\Users\\fboud\\OneDrive\\Documents\\Alyra\\projetFinal\\contracts\\powStakingTournament.sol",
  "compiler": {
    "name": "solc",
    "version": "0.8.1+commit.df193b15.Emscripten.clang"
  },
  "schemaVersion": "3.4.2",
  "updatedAt": "2021-08-07T17:30:06.170Z",
  "devdoc": {
    "kind": "dev",
    "methods": {
      "allowance(address,address)": {
        "details": "See {IERC20-allowance}."
      },
      "approve(address,uint256)": {
        "details": "See {IERC20-approve}. Requirements: - `spender` cannot be the zero address."
      },
      "balanceOf(address)": {
        "details": "See {IERC20-balanceOf}."
      },
      "burnPow(address,uint256)": {
        "details": "Administrator can burn token"
      },
      "decimals()": {
        "details": "Returns the number of decimals used to get its user representation. For example, if `decimals` equals `2`, a balance of `505` tokens should be displayed to a user as `5.05` (`505 / 10 ** 2`). Tokens usually opt for a value of 18, imitating the relationship between Ether and Wei. This is the value {ERC20} uses, unless this function is overridden; NOTE: This information is only used for _display_ purposes: it in no way affects any of the arithmetic of the contract, including {IERC20-balanceOf} and {IERC20-transfer}."
      },
      "decreaseAllowance(address,uint256)": {
        "details": "Atomically decreases the allowance granted to `spender` by the caller. This is an alternative to {approve} that can be used as a mitigation for problems described in {IERC20-approve}. Emits an {Approval} event indicating the updated allowance. Requirements: - `spender` cannot be the zero address. - `spender` must have allowance for the caller of at least `subtractedValue`."
      },
      "getReward()": {
        "details": "Players can get there reward function of there XP. If the threshold to get the next reward is not achieve player will be reverted"
      },
      "increaseAllowance(address,uint256)": {
        "details": "Atomically increases the allowance granted to `spender` by the caller. This is an alternative to {approve} that can be used as a mitigation for problems described in {IERC20-approve}. Emits an {Approval} event indicating the updated allowance. Requirements: - `spender` cannot be the zero address."
      },
      "myMint(address,uint256)": {
        "details": "define the mint function",
        "params": {
          "amount": "amount POWToken to mint",
          "target": "address of target"
        }
      },
      "name()": {
        "details": "Returns the name of the token."
      },
      "owner()": {
        "details": "Returns the address of the current owner."
      },
      "renounceOwnership()": {
        "details": "Leaves the contract without owner. It will not be possible to call `onlyOwner` functions anymore. Can only be called by the current owner. NOTE: Renouncing ownership will leave the contract without an owner, thereby removing any functionality that is only available to the owner."
      },
      "setMultiversePlayer(address,string)": {
        "details": "link a login with a player. The login must be the exact same one than the one used in POW"
      },
      "setReward(uint256)": {
        "details": "Administrator, set the amount rewarded for each step"
      },
      "symbol()": {
        "details": "Returns the symbol of the token, usually a shorter version of the name."
      },
      "totalSupply()": {
        "details": "See {IERC20-totalSupply}."
      },
      "transfer(address,uint256)": {
        "details": "See {IERC20-transfer}. Requirements: - `recipient` cannot be the zero address. - the caller must have a balance of at least `amount`."
      },
      "transferFrom(address,address,uint256)": {
        "details": "See {IERC20-transferFrom}. Emits an {Approval} event indicating the updated allowance. This is not required by the EIP. See the note at the beginning of {ERC20}. Requirements: - `sender` and `recipient` cannot be the zero address. - `sender` must have a balance of at least `amount`. - the caller must have allowance for ``sender``'s tokens of at least `amount`."
      },
      "transferOwnership(address)": {
        "details": "Transfers ownership of the contract to a new account (`newOwner`). Can only be called by the current owner."
      },
      "updateMultiversePlayer(string,uint256)": {
        "details": "Update the data of a registered player. The adnministrator Only can set this. In the future, the oracle will do that"
      }
    },
    "version": 1
  },
  "userdoc": {
    "kind": "user",
    "methods": {},
    "version": 1
  }
}