{
  "contractName": "POWStakingTournament",
  "abi": [
    {
      "inputs": [
        {
          "internalType": "uint256",
          "name": "_levelOfXpToReward",
          "type": "uint256"
        },
        {
          "internalType": "uint256",
          "name": "_initialSupply",
          "type": "uint256"
        }
      ],
      "stateMutability": "nonpayable",
      "type": "constructor"
    },
    {
      "anonymous": false,
      "inputs": [
        {
          "indexed": true,
          "internalType": "address",
          "name": "owner",
          "type": "address"
        },
        {
          "indexed": true,
          "internalType": "address",
          "name": "spender",
          "type": "address"
        },
        {
          "indexed": false,
          "internalType": "uint256",
          "name": "value",
          "type": "uint256"
        }
      ],
      "name": "Approval",
      "type": "event"
    },
    {
      "anonymous": false,
      "inputs": [
        {
          "indexed": false,
          "internalType": "address",
          "name": "addressPlayer",
          "type": "address"
        },
        {
          "indexed": false,
          "internalType": "string",
          "name": "loginPlayer",
          "type": "string"
        }
      ],
      "name": "NewPlayerRegistered",
      "type": "event"
    },
    {
      "anonymous": false,
      "inputs": [
        {
          "indexed": true,
          "internalType": "address",
          "name": "previousOwner",
          "type": "address"
        },
        {
          "indexed": true,
          "internalType": "address",
          "name": "newOwner",
          "type": "address"
        }
      ],
      "name": "OwnershipTransferred",
      "type": "event"
    },
    {
      "anonymous": false,
      "inputs": [
        {
          "indexed": true,
          "internalType": "address",
          "name": "from",
          "type": "address"
        },
        {
          "indexed": true,
          "internalType": "address",
          "name": "to",
          "type": "address"
        },
        {
          "indexed": false,
          "internalType": "uint256",
          "name": "value",
          "type": "uint256"
        }
      ],
      "name": "Transfer",
      "type": "event"
    },
    {
      "anonymous": false,
      "inputs": [
        {
          "indexed": false,
          "internalType": "uint256",
          "name": "idTournament",
          "type": "uint256"
        }
      ],
      "name": "endPlayTournament",
      "type": "event"
    },
    {
      "anonymous": false,
      "inputs": [],
      "name": "newAmountReward",
      "type": "event"
    },
    {
      "anonymous": false,
      "inputs": [
        {
          "indexed": false,
          "internalType": "uint256",
          "name": "idTournament",
          "type": "uint256"
        }
      ],
      "name": "newTournament",
      "type": "event"
    },
    {
      "anonymous": false,
      "inputs": [
        {
          "indexed": false,
          "internalType": "string",
          "name": "login",
          "type": "string"
        }
      ],
      "name": "playerUpdated",
      "type": "event"
    },
    {
      "anonymous": false,
      "inputs": [],
      "name": "rewardWithdrawn",
      "type": "event"
    },
    {
      "anonymous": false,
      "inputs": [
        {
          "indexed": false,
          "internalType": "uint256",
          "name": "idTournament",
          "type": "uint256"
        },
        {
          "indexed": false,
          "internalType": "address",
          "name": "winner",
          "type": "address"
        }
      ],
      "name": "winnerSet",
      "type": "event"
    },
    {
      "inputs": [],
      "name": "_owner",
      "outputs": [
        {
          "internalType": "address",
          "name": "",
          "type": "address"
        }
      ],
      "stateMutability": "view",
      "type": "function",
      "constant": true
    },
    {
      "inputs": [
        {
          "internalType": "address",
          "name": "owner",
          "type": "address"
        },
        {
          "internalType": "address",
          "name": "spender",
          "type": "address"
        }
      ],
      "name": "allowance",
      "outputs": [
        {
          "internalType": "uint256",
          "name": "",
          "type": "uint256"
        }
      ],
      "stateMutability": "view",
      "type": "function",
      "constant": true
    },
    {
      "inputs": [
        {
          "internalType": "address",
          "name": "spender",
          "type": "address"
        },
        {
          "internalType": "uint256",
          "name": "amount",
          "type": "uint256"
        }
      ],
      "name": "approve",
      "outputs": [
        {
          "internalType": "bool",
          "name": "",
          "type": "bool"
        }
      ],
      "stateMutability": "nonpayable",
      "type": "function"
    },
    {
      "inputs": [
        {
          "internalType": "address",
          "name": "account",
          "type": "address"
        }
      ],
      "name": "balanceOf",
      "outputs": [
        {
          "internalType": "uint256",
          "name": "",
          "type": "uint256"
        }
      ],
      "stateMutability": "view",
      "type": "function",
      "constant": true
    },
    {
      "inputs": [
        {
          "internalType": "address",
          "name": "",
          "type": "address"
        },
        {
          "internalType": "uint256",
          "name": "",
          "type": "uint256"
        }
      ],
      "name": "balanceStaking",
      "outputs": [
        {
          "internalType": "uint256",
          "name": "stake",
          "type": "uint256"
        },
        {
          "internalType": "bool",
          "name": "isRegistered",
          "type": "bool"
        },
        {
          "internalType": "bool",
          "name": "hasWithdrawn",
          "type": "bool"
        }
      ],
      "stateMutability": "view",
      "type": "function",
      "constant": true
    },
    {
      "inputs": [
        {
          "internalType": "address",
          "name": "_account",
          "type": "address"
        },
        {
          "internalType": "uint256",
          "name": "_amount",
          "type": "uint256"
        }
      ],
      "name": "burnPow",
      "outputs": [],
      "stateMutability": "nonpayable",
      "type": "function"
    },
    {
      "inputs": [],
      "name": "counterTournament",
      "outputs": [
        {
          "internalType": "uint256",
          "name": "",
          "type": "uint256"
        }
      ],
      "stateMutability": "view",
      "type": "function",
      "constant": true
    },
    {
      "inputs": [],
      "name": "decimals",
      "outputs": [
        {
          "internalType": "uint8",
          "name": "",
          "type": "uint8"
        }
      ],
      "stateMutability": "view",
      "type": "function",
      "constant": true
    },
    {
      "inputs": [
        {
          "internalType": "address",
          "name": "spender",
          "type": "address"
        },
        {
          "internalType": "uint256",
          "name": "subtractedValue",
          "type": "uint256"
        }
      ],
      "name": "decreaseAllowance",
      "outputs": [
        {
          "internalType": "bool",
          "name": "",
          "type": "bool"
        }
      ],
      "stateMutability": "nonpayable",
      "type": "function"
    },
    {
      "inputs": [],
      "name": "getReward",
      "outputs": [],
      "stateMutability": "nonpayable",
      "type": "function"
    },
    {
      "inputs": [
        {
          "internalType": "address",
          "name": "spender",
          "type": "address"
        },
        {
          "internalType": "uint256",
          "name": "addedValue",
          "type": "uint256"
        }
      ],
      "name": "increaseAllowance",
      "outputs": [
        {
          "internalType": "bool",
          "name": "",
          "type": "bool"
        }
      ],
      "stateMutability": "nonpayable",
      "type": "function"
    },
    {
      "inputs": [
        {
          "internalType": "address",
          "name": "",
          "type": "address"
        }
      ],
      "name": "multiverseData",
      "outputs": [
        {
          "internalType": "string",
          "name": "login",
          "type": "string"
        },
        {
          "internalType": "uint256",
          "name": "lastLevelErc20Reward",
          "type": "uint256"
        },
        {
          "internalType": "uint256",
          "name": "XP",
          "type": "uint256"
        },
        {
          "internalType": "bool",
          "name": "isRegistered",
          "type": "bool"
        }
      ],
      "stateMutability": "view",
      "type": "function",
      "constant": true
    },
    {
      "inputs": [
        {
          "internalType": "string",
          "name": "",
          "type": "string"
        }
      ],
      "name": "multiverseIds",
      "outputs": [
        {
          "internalType": "address",
          "name": "",
          "type": "address"
        }
      ],
      "stateMutability": "view",
      "type": "function",
      "constant": true
    },
    {
      "inputs": [
        {
          "internalType": "address",
          "name": "target",
          "type": "address"
        },
        {
          "internalType": "uint256",
          "name": "amount",
          "type": "uint256"
        }
      ],
      "name": "myMint",
      "outputs": [],
      "stateMutability": "nonpayable",
      "type": "function"
    },
    {
      "inputs": [],
      "name": "name",
      "outputs": [
        {
          "internalType": "string",
          "name": "",
          "type": "string"
        }
      ],
      "stateMutability": "view",
      "type": "function",
      "constant": true
    },
    {
      "inputs": [],
      "name": "owner",
      "outputs": [
        {
          "internalType": "address",
          "name": "",
          "type": "address"
        }
      ],
      "stateMutability": "view",
      "type": "function",
      "constant": true
    },
    {
      "inputs": [],
      "name": "renounceOwnership",
      "outputs": [],
      "stateMutability": "nonpayable",
      "type": "function"
    },
    {
      "inputs": [
        {
          "internalType": "address",
          "name": "",
          "type": "address"
        }
      ],
      "name": "rewards",
      "outputs": [
        {
          "internalType": "uint256",
          "name": "",
          "type": "uint256"
        }
      ],
      "stateMutability": "view",
      "type": "function",
      "constant": true
    },
    {
      "inputs": [
        {
          "internalType": "address",
          "name": "_addressPlayer",
          "type": "address"
        },
        {
          "internalType": "string",
          "name": "_login",
          "type": "string"
        }
      ],
      "name": "setMultiversePlayer",
      "outputs": [],
      "stateMutability": "nonpayable",
      "type": "function"
    },
    {
      "inputs": [
        {
          "internalType": "uint256",
          "name": "_rewardOfEachLevel",
          "type": "uint256"
        }
      ],
      "name": "setReward",
      "outputs": [],
      "stateMutability": "nonpayable",
      "type": "function"
    },
    {
      "inputs": [],
      "name": "symbol",
      "outputs": [
        {
          "internalType": "string",
          "name": "",
          "type": "string"
        }
      ],
      "stateMutability": "view",
      "type": "function",
      "constant": true
    },
    {
      "inputs": [],
      "name": "totalSupply",
      "outputs": [
        {
          "internalType": "uint256",
          "name": "",
          "type": "uint256"
        }
      ],
      "stateMutability": "view",
      "type": "function",
      "constant": true
    },
    {
      "inputs": [
        {
          "internalType": "uint256",
          "name": "",
          "type": "uint256"
        }
      ],
      "name": "tournaments",
      "outputs": [
        {
          "internalType": "uint256",
          "name": "idTournament",
          "type": "uint256"
        },
        {
          "internalType": "uint256",
          "name": "stakeRequested",
          "type": "uint256"
        },
        {
          "internalType": "uint256",
          "name": "durationTournament",
          "type": "uint256"
        },
        {
          "internalType": "uint256",
          "name": "rewardTournament",
          "type": "uint256"
        },
        {
          "internalType": "string",
          "name": "subjectTournament",
          "type": "string"
        },
        {
          "internalType": "bool",
          "name": "isActive",
          "type": "bool"
        },
        {
          "internalType": "enum POWStakingTournament.TournamentStatus",
          "name": "tournamentStatus",
          "type": "uint8"
        },
        {
          "internalType": "address",
          "name": "winner",
          "type": "address"
        }
      ],
      "stateMutability": "view",
      "type": "function",
      "constant": true
    },
    {
      "inputs": [
        {
          "internalType": "address",
          "name": "recipient",
          "type": "address"
        },
        {
          "internalType": "uint256",
          "name": "amount",
          "type": "uint256"
        }
      ],
      "name": "transfer",
      "outputs": [
        {
          "internalType": "bool",
          "name": "",
          "type": "bool"
        }
      ],
      "stateMutability": "nonpayable",
      "type": "function"
    },
    {
      "inputs": [
        {
          "internalType": "address",
          "name": "sender",
          "type": "address"
        },
        {
          "internalType": "address",
          "name": "recipient",
          "type": "address"
        },
        {
          "internalType": "uint256",
          "name": "amount",
          "type": "uint256"
        }
      ],
      "name": "transferFrom",
      "outputs": [
        {
          "internalType": "bool",
          "name": "",
          "type": "bool"
        }
      ],
      "stateMutability": "nonpayable",
      "type": "function"
    },
    {
      "inputs": [
        {
          "internalType": "address",
          "name": "newOwner",
          "type": "address"
        }
      ],
      "name": "transferOwnership",
      "outputs": [],
      "stateMutability": "nonpayable",
      "type": "function"
    },
    {
      "inputs": [
        {
          "internalType": "string",
          "name": "_login",
          "type": "string"
        },
        {
          "internalType": "uint256",
          "name": "_XP",
          "type": "uint256"
        }
      ],
      "name": "updateMultiversePlayer",
      "outputs": [],
      "stateMutability": "nonpayable",
      "type": "function"
    },
    {
      "inputs": [
        {
          "internalType": "string",
          "name": "_subjectTournament",
          "type": "string"
        },
        {
          "internalType": "uint256",
          "name": "_stakeRequested",
          "type": "uint256"
        },
        {
          "internalType": "uint256",
          "name": "_durationTournament",
          "type": "uint256"
        },
        {
          "internalType": "uint256",
          "name": "_rewardTournament",
          "type": "uint256"
        }
      ],
      "name": "setTournament",
      "outputs": [],
      "stateMutability": "nonpayable",
      "type": "function"
    },
    {
      "inputs": [
        {
          "internalType": "uint256",
          "name": "_idTournament",
          "type": "uint256"
        }
      ],
      "name": "endTournament",
      "outputs": [],
      "stateMutability": "nonpayable",
      "type": "function"
    },
    {
      "inputs": [
        {
          "internalType": "uint256",
          "name": "_idTournament",
          "type": "uint256"
        },
        {
          "internalType": "address",
          "name": "_winner",
          "type": "address"
        }
      ],
      "name": "setWinner",
      "outputs": [],
      "stateMutability": "nonpayable",
      "type": "function"
    },
    {
      "inputs": [
        {
          "internalType": "uint256",
          "name": "_idTournament",
          "type": "uint256"
        }
      ],
      "name": "registerPlayer",
      "outputs": [],
      "stateMutability": "nonpayable",
      "type": "function"
    },
    {
      "inputs": [
        {
          "internalType": "uint256",
          "name": "_idTournament",
          "type": "uint256"
        }
      ],
      "name": "withdrawStaking",
      "outputs": [],
      "stateMutability": "nonpayable",
      "type": "function"
    },
    {
      "inputs": [],
      "name": "withdrawReward",
      "outputs": [],
      "stateMutability": "nonpayable",
      "type": "function"
    }
  ],
  "bytecode": "0x60806040523480156200001157600080fd5b5060405162002c5238038062002c528339810160408190526200003491620002e9565b8181604051806040016040528060088152602001672837bbaa37b5b2b760c11b81525060405180604001604052806003815260200162504f5760e81b81525081600390805190602001906200008b92919062000243565b508051620000a190600490602084019062000243565b505050620000be620000b86200010660201b60201c565b6200010a565b60068054336001600160a01b031991821681179092556009805490911690911790819055600a839055620000fc906001600160a01b0316826200015c565b50505050620003af565b3390565b600580546001600160a01b038381166001600160a01b0319831681179093556040519116919082907f8be0079c531659141344cd1fd0a4f28419497f9722a3daafe3b4186f6b6457e090600090a35050565b6001600160a01b0382166200018e5760405162461bcd60e51b815260040162000185906200030d565b60405180910390fd5b6200019c600083836200023e565b8060026000828254620001b091906200034d565b90915550506001600160a01b03821660009081526020819052604081208054839290620001df9084906200034d565b90915550506040516001600160a01b038316906000907fddf252ad1be2c89b69c2b068fc378daa952ba7f163c4a11628f55a4df523b3ef906200022490859062000344565b60405180910390a36200023a600083836200023e565b5050565b505050565b828054620002519062000372565b90600052602060002090601f016020900481019282620002755760008555620002c0565b82601f106200029057805160ff1916838001178555620002c0565b82800160010185558215620002c0579182015b82811115620002c0578251825591602001919060010190620002a3565b50620002ce929150620002d2565b5090565b5b80821115620002ce5760008155600101620002d3565b60008060408385031215620002fc578182fd5b505080516020909101519092909150565b6020808252601f908201527f45524332303a206d696e7420746f20746865207a65726f206164647265737300604082015260600190565b90815260200190565b600082198211156200036d57634e487b7160e01b81526011600452602481fd5b500190565b6002810460018216806200038757607f821691505b60208210811415620003a957634e487b7160e01b600052602260045260246000fd5b50919050565b61289380620003bf6000396000f3fe608060405234801561001057600080fd5b50600436106101bb5760003560e01c806375adb7fd116100fa578063aa3b47c01161009d578063aa3b47c0146103ab578063b2bdfa7b146103be578063ba77d4d8146103c6578063c885bc58146103e8578063ce9b623d146103f0578063dd62ed3e146103f8578063e9dbd45a1461040b578063f2fde38b1461041e578063f3bee10214610431576101bb565b806375adb7fd1461030c578063821644e61461032f5780638da5cb5b1461034257806395d89b41146103575780639b008e471461035f5780639c62368314610372578063a457c2d714610385578063a9059cbb14610398576101bb565b8063313ce56711610162578063313ce5671461027457806339509351146102895780633d18b9121461029c5780634cb3d433146102a45780635a3a496d146102b757806370a08231146102ca578063715018a6146102dd5780637503e1b7146102e5576101bb565b80630334a4e4146101c057806306fdde03146101d55780630700037d146101f3578063095ea7b31461021357806318160ddd1461023357806323b872dd1461023b578063293be4561461024e5780632e0b78f614610261575b600080fd5b6101d36101ce366004611ca4565b610444565b005b6101dd61049a565b6040516101ea9190611e62565b60405180910390f35b610206610201366004611bca565b61052c565b6040516101ea9190612662565b610226610221366004611ca4565b61053e565b6040516101ea9190611e57565b61020661055b565b610226610249366004611c1d565b610561565b6101d361025c366004611d9d565b6105f1565b6101d361026f366004611d9d565b610661565b61027c6107bf565b6040516101ea9190612713565b610226610297366004611ca4565b6107c4565b6101d3610818565b6101d36102b2366004611d08565b610951565b6101d36102c5366004611d4b565b610a60565b6102066102d8366004611bca565b610c75565b6101d3610c94565b6102f86102f3366004611d9d565b610cdf565b6040516101ea98979695949392919061269a565b61031f61031a366004611bca565b610dbd565b6040516101ea9493929190611e75565b6101d361033d366004611d9d565b610e72565b61034a611031565b6040516101ea9190611e1f565b6101dd611040565b6101d361036d366004611c58565b61104f565b6101d3610380366004611db5565b61119f565b610226610393366004611ca4565b611362565b6102266103a6366004611ca4565b6113db565b6101d36103b9366004611d9d565b6113ef565b61034a611540565b6103d96103d4366004611ca4565b61154f565b6040516101ea93929190612682565b6101d361157f565b6102066115cd565b610206610406366004611beb565b6115d3565b61034a610419366004611ccd565b6115fe565b6101d361042c366004611bca565b611624565b6101d361043f366004611ca4565b611692565b61044c6116db565b6001600160a01b031661045d611031565b6001600160a01b03161461048c5760405162461bcd60e51b815260040161048390612371565b60405180910390fd5b61049682826116df565b5050565b6060600380546104a9906127bb565b80601f01602080910402602001604051908101604052809291908181526020018280546104d5906127bb565b80156105225780601f106104f757610100808354040283529160200191610522565b820191906000526020600020905b81548152906001019060200180831161050557829003601f168201915b5050505050905090565b600f6020526000908152604090205481565b600061055261054b6116db565b8484611795565b50600192915050565b60025490565b600061056e848484611849565b6001600160a01b03841660009081526001602052604081208161058f6116db565b6001600160a01b03166001600160a01b03168152602001908152602001600020549050828110156105d25760405162461bcd60e51b815260040161048390612329565b6105e6856105de6116db565b858403611795565b506001949350505050565b6105f96116db565b6001600160a01b031661060a611031565b6001600160a01b0316146106305760405162461bcd60e51b815260040161048390612371565b600b8190556040517f905ba88c728c23467d10cea61f7a517e2d71fa47d3481be50e86457071d84fd890600090a150565b3360009081526008602052604090206003015460ff166106935760405162461bcd60e51b8152600401610483906123a6565b60036000828152600e6020526040902060050154610100900460ff1660038111156106ce57634e487b7160e01b600052602160045260246000fd5b146106eb5760405162461bcd60e51b815260040161048390612522565b336000908152600d6020908152604080832084845290915290206001015460ff166107285760405162461bcd60e51b815260040161048390611ee9565b336000908152600d60209081526040808320848452909152902060010154610100900460ff161561076b5760405162461bcd60e51b81526004016104839061213e565b336000818152600d60209081526040808320858452909152902060018101805461ff001916610100179055546107a191906116df565b336000908152600d6020908152604080832093835292905290812055565b601290565b60006105526107d16116db565b8484600160006107df6116db565b6001600160a01b03908116825260208083019390935260409182016000908120918b16815292529020546108139190612721565b611795565b3360009081526008602052604090206003015460ff1661084a5760405162461bcd60e51b815260040161048390611ff9565b600b546108695760405162461bcd60e51b8152600401610483906121d8565b600a543360009081526008602052604081206002015490918291829161088e91612739565b91508115806108b75750336000908152600860205260409020600101546108b59083612778565b155b156108d45760405162461bcd60e51b8152600401610483906122f2565b336000908152600860205260409020600101546108f19083612778565b9250600b54836109019190612759565b33600081815260086020526040902060010184905590915061092390826116df565b6040517fd3f9ddfe1db89b547b02b16d65f9f96eef894e9d4b83c52a2732b741112a990a90600090a1505050565b6006546001600160a01b0316331461097b5760405162461bcd60e51b815260040161048390612230565b6008600060078460405161098f9190611e03565b90815260408051918290036020908101909220546001600160a01b0316835290820192909252016000206003015460ff1615156001146109e15760405162461bcd60e51b8152600401610483906124ce565b80600860006007856040516109f69190611e03565b9081526040805160209281900383019020546001600160a01b0316835290820192909252810160002060020191909155517faa6183438646fc8bb56f82868ce90c0a5bd1301970b115e976c90c1d696a155090610a54908490611e62565b60405180910390a15050565b610a686116db565b6001600160a01b0316610a79611031565b6001600160a01b031614610a9f5760405162461bcd60e51b815260040161048390612371565b600c546000908152600e602052604090206005015460ff1615610ad45760405162461bcd60e51b81526004016104839061216f565b6000610ae38362015180612759565b90506000610af18242612721565b9050604051806101000160405280600c54815260200186815260200182815260200184815260200187815260200160011515815260200160016003811115610b4957634e487b7160e01b600052602160045260246000fd5b815260006020918201819052600c548152600e82526040908190208351815583830151600182015590830151600282015560608301516003820155608083015180519192610b9f92600485019290910190611a93565b5060a082015160058201805460ff19169115159190911780825560c0840151919061ff001916610100836003811115610be857634e487b7160e01b600052602160045260246000fd5b021790555060e09190910151600590910180546001600160a01b03909216620100000262010000600160b01b0319909216919091179055600c546040517f9b31227c2c81192ff59c33d9e0ba8e195f7956db1628854cd066819676aed95291610c5091612662565b60405180910390a1600c8054906000610c68836127f6565b9190505550505050505050565b6001600160a01b0381166000908152602081905260409020545b919050565b610c9c6116db565b6001600160a01b0316610cad611031565b6001600160a01b031614610cd35760405162461bcd60e51b815260040161048390612371565b610cdd6000611961565b565b600e60205260009081526040902080546001820154600283015460038401546004850180549495939492939192610d15906127bb565b80601f0160208091040260200160405190810160405280929190818152602001828054610d41906127bb565b8015610d8e5780601f10610d6357610100808354040283529160200191610d8e565b820191906000526020600020905b815481529060010190602001808311610d7157829003601f168201915b5050506005909301549192505060ff808216916101008104909116906001600160a01b03620100009091041688565b600860205260009081526040902080548190610dd8906127bb565b80601f0160208091040260200160405190810160405280929190818152602001828054610e04906127bb565b8015610e515780601f10610e2657610100808354040283529160200191610e51565b820191906000526020600020905b815481529060010190602001808311610e3457829003601f168201915b50505050600183015460028401546003909401549293909290915060ff1684565b3360009081526008602052604090206003015460ff16610ea45760405162461bcd60e51b8152600401610483906123a6565b6000818152600e602052604090206005015460ff16610ed55760405162461bcd60e51b815260040161048390612564565b60016000828152600e6020526040902060050154610100900460ff166003811115610f1057634e487b7160e01b600052602160045260246000fd5b14610f2d5760405162461bcd60e51b815260040161048390612522565b6000818152600e6020526040902060010154610f4833610c75565b1015610f665760405162461bcd60e51b815260040161048390612044565b336000908152600d6020908152604080832084845290915290206001015460ff1615610fa45760405162461bcd60e51b815260040161048390612279565b6000818152600e6020526040902060010154610fc19033906119b3565b604080516060810182526000838152600e60209081528382206001908101548452818401818152848601848152338552600d84528685209785529690925293909120915182555191018054925115156101000261ff001992151560ff199094169390931791909116919091179055565b6005546001600160a01b031690565b6060600480546104a9906127bb565b6006546001600160a01b03163314806110705750336001600160a01b038316145b61108c5760405162461bcd60e51b8152600401610483906120b3565b600860006007836040516110a09190611e03565b9081526040805160209281900383019020546001600160a01b0316835290820192909252016000206003015460ff16156110ec5760405162461bcd60e51b8152600401610483906120fd565b816007826040516110fd9190611e03565b908152604080516020928190038301902080546001600160a01b0319166001600160a01b0394851617905591841660009081526008825291909120825161114692840190611a93565b506001600160a01b03821660009081526008602052604090819020600301805460ff19166001179055517fd1271c0a878b06e77c2b145e81fda258074d1d9f72d29461da6de567fe185db390610a549084908490611e33565b6111a76116db565b6001600160a01b03166111b8611031565b6001600160a01b0316146111de5760405162461bcd60e51b815260040161048390612371565b6000828152600e602052604090206005015460ff1661120f5760405162461bcd60e51b815260040161048390612564565b60026000838152600e6020526040902060050154610100900460ff16600381111561124a57634e487b7160e01b600052602160045260246000fd5b146112675760405162461bcd60e51b815260040161048390612522565b6001600160a01b0381166000908152600d6020908152604080832085845290915290206001015460ff166112ad5760405162461bcd60e51b8152600401610483906121a1565b6000828152600e6020908152604080832060058101805462010000600160b01b031916620100006001600160a01b0388169081029190911761ff00191661030017909155600390910154908452600f9092528220805491929091611312908490612721565b90915550506000828152600e602052604090819020600501805460ff19169055517fe0c7b482cd261234be1f95e8f48c684813970e9c5a53da38dbd622166d89e61890610a54908490849061266b565b600080600160006113716116db565b6001600160a01b03908116825260208083019390935260409182016000908120918816815292529020549050828110156113bd5760405162461bcd60e51b8152600401610483906125e6565b6113d16113c86116db565b85858403611795565b5060019392505050565b60006105526113e86116db565b8484611849565b6113f76116db565b6001600160a01b0316611408611031565b6001600160a01b03161461142e5760405162461bcd60e51b815260040161048390612371565b6000818152600e602052604090206005015460ff1661145f5760405162461bcd60e51b815260040161048390612564565b6000818152600e6020526040902060020154421161148f5760405162461bcd60e51b8152600401610483906122ac565b60016000828152600e6020526040902060050154610100900460ff1660038111156114ca57634e487b7160e01b600052602160045260246000fd5b146114e75760405162461bcd60e51b81526004016104839061259b565b6000818152600e602052604090819020600501805461ff001916610200179055517f4f340a8afc70ac9bd1d9d0641117f1febb4de4c0ca9bdffdf02e0f4d1696f44f90611535908390612662565b60405180910390a150565b6009546001600160a01b031681565b600d6020908152600092835260408084209091529082529020805460019091015460ff8082169161010090041683565b336000908152600f60205260409020546115ab5760405162461bcd60e51b81526004016104839061245b565b336000818152600f602052604081208054919055906115ca90826116df565b50565b600c5481565b6001600160a01b03918216600090815260016020908152604080832093909416825291909152205490565b80516020818301810180516007825292820191909301209152546001600160a01b031681565b61162c6116db565b6001600160a01b031661163d611031565b6001600160a01b0316146116635760405162461bcd60e51b815260040161048390612371565b6001600160a01b0381166116895760405162461bcd60e51b815260040161048390611f71565b6115ca81611961565b61169a6116db565b6001600160a01b03166116ab611031565b6001600160a01b0316146116d15760405162461bcd60e51b815260040161048390612371565b61049682826119b3565b3390565b6001600160a01b0382166117055760405162461bcd60e51b81526004016104839061262b565b61171160008383611a8e565b80600260008282546117239190612721565b90915550506001600160a01b03821660009081526020819052604081208054839290611750908490612721565b90915550506040516001600160a01b0383169060009060008051602061283e83398151915290611781908590612662565b60405180910390a361049660008383611a8e565b6001600160a01b0383166117bb5760405162461bcd60e51b81526004016104839061248a565b6001600160a01b0382166117e15760405162461bcd60e51b815260040161048390611fb7565b6001600160a01b0380841660008181526001602090815260408083209487168084529490915290819020849055517f8c5be1e5ebec7d5bd14f71427d1e84f3dd0314c0f7b2291e5b200ac8c7c3b9259061183c908590612662565b60405180910390a3505050565b6001600160a01b03831661186f5760405162461bcd60e51b815260040161048390612416565b6001600160a01b0382166118955760405162461bcd60e51b815260040161048390611ea6565b6118a0838383611a8e565b6001600160a01b038316600090815260208190526040902054818110156118d95760405162461bcd60e51b81526004016104839061206d565b6001600160a01b03808516600090815260208190526040808220858503905591851681529081208054849290611910908490612721565b92505081905550826001600160a01b0316846001600160a01b031660008051602061283e833981519152846040516119489190612662565b60405180910390a361195b848484611a8e565b50505050565b600580546001600160a01b038381166001600160a01b0319831681179093556040519116919082907f8be0079c531659141344cd1fd0a4f28419497f9722a3daafe3b4186f6b6457e090600090a35050565b6001600160a01b0382166119d95760405162461bcd60e51b8152600401610483906123d5565b6119e582600083611a8e565b6001600160a01b03821660009081526020819052604090205481811015611a1e5760405162461bcd60e51b815260040161048390611f2f565b6001600160a01b0383166000908152602081905260408120838303905560028054849290611a4d908490612778565b90915550506040516000906001600160a01b0385169060008051602061283e83398151915290611a7e908690612662565b60405180910390a3611a8e836000845b505050565b828054611a9f906127bb565b90600052602060002090601f016020900481019282611ac15760008555611b07565b82601f10611ada57805160ff1916838001178555611b07565b82800160010185558215611b07579182015b82811115611b07578251825591602001919060010190611aec565b50611b13929150611b17565b5090565b5b80821115611b135760008155600101611b18565b80356001600160a01b0381168114610c8f57600080fd5b600082601f830112611b53578081fd5b813567ffffffffffffffff80821115611b6e57611b6e612827565b604051601f8301601f19908116603f01168101908282118183101715611b9657611b96612827565b81604052838152866020858801011115611bae578485fd5b8360208701602083013792830160200193909352509392505050565b600060208284031215611bdb578081fd5b611be482611b2c565b9392505050565b60008060408385031215611bfd578081fd5b611c0683611b2c565b9150611c1460208401611b2c565b90509250929050565b600080600060608486031215611c31578081fd5b611c3a84611b2c565b9250611c4860208501611b2c565b9150604084013590509250925092565b60008060408385031215611c6a578182fd5b611c7383611b2c565b9150602083013567ffffffffffffffff811115611c8e578182fd5b611c9a85828601611b43565b9150509250929050565b60008060408385031215611cb6578182fd5b611cbf83611b2c565b946020939093013593505050565b600060208284031215611cde578081fd5b813567ffffffffffffffff811115611cf4578182fd5b611d0084828501611b43565b949350505050565b60008060408385031215611d1a578182fd5b823567ffffffffffffffff811115611d30578283fd5b611d3c85828601611b43565b95602094909401359450505050565b60008060008060808587031215611d60578081fd5b843567ffffffffffffffff811115611d76578182fd5b611d8287828801611b43565b97602087013597506040870135966060013595509350505050565b600060208284031215611dae578081fd5b5035919050565b60008060408385031215611dc7578182fd5b82359150611c1460208401611b2c565b60008151808452611def81602086016020860161278f565b601f01601f19169290920160200192915050565b60008251611e1581846020870161278f565b9190910192915050565b6001600160a01b0391909116815260200190565b6001600160a01b0383168152604060208201819052600090611d0090830184611dd7565b901515815260200190565b600060208252611be46020830184611dd7565b600060808252611e886080830187611dd7565b60208301959095525060408101929092521515606090910152919050565b60208082526023908201527f45524332303a207472616e7366657220746f20746865207a65726f206164647260408201526265737360e81b606082015260800190565b60208082526026908201527f796f75206469646e2774207061727469636970617465207468697320746f75726040820152651b995b595b9d60d21b606082015260800190565b60208082526022908201527f45524332303a206275726e20616d6f756e7420657863656564732062616c616e604082015261636560f01b606082015260800190565b60208082526026908201527f4f776e61626c653a206e6577206f776e657220697320746865207a65726f206160408201526564647265737360d01b606082015260800190565b60208082526022908201527f45524332303a20617070726f766520746f20746865207a65726f206164647265604082015261737360f01b606082015260800190565b6020808252602b908201527f596f7520617265206e6f7420656c696769626c652c20706c656173652072656760408201526a1a5cdd195c88199a5c9cdd60aa1b606082015260800190565b6020808252600f908201526e62616c616e636520746f6f206c6f7760881b604082015260600190565b60208082526026908201527f45524332303a207472616e7366657220616d6f756e7420657863656564732062604082015265616c616e636560d01b606082015260800190565b6020808252602a908201527f796f7520617265206e6f7420617574686f72697a656420746f207365742074686040820152691a5cc81858d8dbdd5b9d60b21b606082015260800190565b60208082526021908201527f7468697320706c6179657220697320616c7265616479207265676973746572656040820152601960fa1b606082015260800190565b60208082526017908201527629ba30b5b29030b63932b0b23c903bb4ba34323930bbb760491b604082015260600190565b602080825260189082015277141b19585cd94818da1bdbdcd948185b9bdd1a195c88125960421b604082015260600190565b6020808252601f908201527f5468697320706c6179657220646964206e6f7420706172746963697061746500604082015260600190565b60208082526038908201527f506f772069732063757272656e746c792073657474696e6720726577617264736040820152771610383632b0b9b29031b7b6b2903130b1b5903630ba32b960411b606082015260800190565b60208082526029908201527f796f7520617265206e6f7420617574686f72697a656420746f20757064617465604082015268103090383630bcb2b960b91b606082015260800190565b602080825260199082015278141b185e595c88185b1c9958591e481c9959da5cdd195c9959603a1b604082015260600190565b60208082526026908201527f506c65617365207761697420666f72207468652074696d652073657420746f206040820152650ccd2dcd2e6d60d31b606082015260800190565b6020808252601b908201527f6e6f7468696e6720746f20776974686472617720666f72206e6f770000000000604082015260600190565b60208082526028908201527f45524332303a207472616e7366657220616d6f756e74206578636565647320616040820152676c6c6f77616e636560c01b606082015260800190565b6020808252818101527f4f776e61626c653a2063616c6c6572206973206e6f7420746865206f776e6572604082015260600190565b6020808252601590820152742737b7103932b3b4b9ba32b932b210383630bcb2b960591b604082015260600190565b60208082526021908201527f45524332303a206275726e2066726f6d20746865207a65726f206164647265736040820152607360f81b606082015260800190565b60208082526025908201527f45524332303a207472616e736665722066726f6d20746865207a65726f206164604082015264647265737360d81b606082015260800190565b6020808252601590820152744e6f2072657761726420746f20776974686472617760581b604082015260600190565b60208082526024908201527f45524332303a20617070726f76652066726f6d20746865207a65726f206164646040820152637265737360e01b606082015260800190565b60208082526034908201527f706c656173652073657420666972737420616e20457468657265756d206164646040820152733932b9b9903337b9103a3434b990383630bcb2b960611b606082015260800190565b60208082526022908201527f546f75726e616d656e74206e6f7420696e207468652072696768742073746174604082015261757360f01b606082015260800190565b6020808252601d908201527f7468697320746f75726e616d656e7420646f65736e2774206578697374000000604082015260600190565b6020808252602b908201527f54686520746f75726e616d656e74206973206e6f7420696e2074686520706c6160408201526a79696e672073746174757360a81b606082015260800190565b60208082526025908201527f45524332303a2064656372656173656420616c6c6f77616e63652062656c6f77604082015264207a65726f60d81b606082015260800190565b6020808252601f908201527f45524332303a206d696e7420746f20746865207a65726f206164647265737300604082015260600190565b90815260200190565b9182526001600160a01b0316602082015260400190565b92835290151560208301521515604082015260600190565b60006101008a83528960208401528860408401528760608401528060808401526126c681840188611dd7565b91505084151560a0830152600484106126ef57634e487b7160e01b600052602160045260246000fd5b60c08201939093526001600160a01b039190911660e0909101529695505050505050565b60ff91909116815260200190565b6000821982111561273457612734612811565b500190565b60008261275457634e487b7160e01b81526012600452602481fd5b500490565b600081600019048311821515161561277357612773612811565b500290565b60008282101561278a5761278a612811565b500390565b60005b838110156127aa578181015183820152602001612792565b8381111561195b5750506000910152565b6002810460018216806127cf57607f821691505b602082108114156127f057634e487b7160e01b600052602260045260246000fd5b50919050565b600060001982141561280a5761280a612811565b5060010190565b634e487b7160e01b600052601160045260246000fd5b634e487b7160e01b600052604160045260246000fdfeddf252ad1be2c89b69c2b068fc378daa952ba7f163c4a11628f55a4df523b3efa2646970667358221220cefa560685910861f2eb2dca60b2b21f2e6f84a3945713a027e36956ef67af3364736f6c63430008010033",
  "immutableReferences": {},
  "source": "// SPDX-License-Identifier: MIT\r\n\r\npragma solidity 0.8.1;\r\n\r\nimport \"./POWToken.sol\";\r\n\r\n/** \r\n * @title Tournament staking\r\n * @notice This  contract set staking tournament. The player stake an amount and can get it at the end of the tournament\r\n * @dev Create several tournaments of staking with duration, theme and reward\r\n */\r\ncontract POWStakingTournament is POWToken {\r\n\r\n    constructor(uint _levelOfXpToReward, uint _initialSupply) POWToken(_levelOfXpToReward, _initialSupply) {}\r\n\r\n    /** \r\n     * @dev Status of tournament\r\n     * @param NotSetup the tournament has'nt been created yer\r\n     * @param IsOn the tournament is currently running \r\n     * @param IsCountingWinner The tournament is closed, the admin is setting the winner\r\n     * @param WinnerSet the tournament is finished and the winner is set. Everyone can withdraw his staking\r\n     */\r\n    enum TournamentStatus {\r\n        NotSetup,\r\n        IsOn,\r\n        IsCountingWinner,\r\n        WinnerSet\r\n    }\r\n\r\n\r\n    /** \r\n     * @dev Structure of a tournament\r\n     * @param idTournament of the tournament. The number is choose on the front side \r\n     * @param stakeRequested the amount of stake needed to participate to the tournament  \r\n     * @param durationTournament the time the tournament is going to last\r\n     * @param rewardTournament the reward given to the winner\r\n     * @param subjectTournament the subject of the tournament\r\n     * @param isActive Tournament is still active or not\r\n     * @param tournamentStatus status of the tournament\r\n     * @param winner address of the winner\r\n     */\r\n\r\n   struct Tournament {\r\n        uint idTournament;\r\n        uint stakeRequested;\r\n        uint durationTournament;\r\n        uint rewardTournament;\r\n        string subjectTournament;\r\n        bool isActive;\r\n        TournamentStatus tournamentStatus;\r\n        address winner;\r\n    }\r\n\r\n     /** \r\n     * @dev Structure of a player\r\n     * @param stake amount stake by the player to participate to the tournament\r\n     * @param isRegistered staus of a player on a tournament  \r\n     * @param hasWithdrawn player has withdrawn his staking\r\n     */\r\n\r\n    struct PlayerTournament {\r\n        uint stake;\r\n        bool isRegistered;\r\n        bool hasWithdrawn;\r\n    } \r\n\r\n    uint public counterTournament;\r\n\r\n    /** \r\n     * @dev Mapping adress player => id tournament => player. The player can play to several tournament\r\n     */\r\n    mapping (address => mapping (uint => PlayerTournament)) public balanceStaking;\r\n\r\n    ///@dev Mapping of all the tournaments\r\n    mapping (uint => Tournament) public tournaments;\r\n\r\n    ///@dev Mapping of all the reward \r\n    mapping (address => uint) public rewards;\r\n\r\n    event newTournament (uint idTournament);\r\n    event endPlayTournament (uint idTournament);\r\n    event winnerSet (uint idTournament, address winner);\r\n\r\n    ///@dev Set a new tournament\r\n    function setTournament (string memory _subjectTournament, uint _stakeRequested, uint _durationTournament, uint _rewardTournament) onlyOwner public {\r\n        require (!tournaments[counterTournament].isActive, \"Please choose another Id\");\r\n\r\n        uint durationInDays = _durationTournament * 1 days;\r\n        uint counterTimeTournament = block.timestamp + durationInDays; \r\n\r\n        tournaments[counterTournament] = Tournament(counterTournament, _stakeRequested, counterTimeTournament,_rewardTournament,_subjectTournament, true, TournamentStatus.IsOn, address(0));\r\n        \r\n        emit newTournament (counterTournament);\r\n        counterTournament ++;       \r\n    }\r\n\r\n    ///@dev End the game \r\n    function endTournament(uint _idTournament) public onlyOwner {\r\n\r\n        require (tournaments[_idTournament].isActive, \"this tournament doesn't exist\");\r\n        require (block.timestamp > tournaments[_idTournament].durationTournament, \"Please wait for the time set to finish\");\r\n        require (tournaments[_idTournament].tournamentStatus == TournamentStatus.IsOn, \"The tournament is not in the playing status\");\r\n\r\n        tournaments[_idTournament].tournamentStatus = TournamentStatus.IsCountingWinner;\r\n\r\n        emit endPlayTournament(_idTournament);\r\n    }\r\n\r\n    ///@dev Close the tournament and set the winner\r\n    function setWinner(uint _idTournament, address _winner) public onlyOwner {\r\n        require (tournaments[_idTournament].isActive, \"this tournament doesn't exist\");\r\n        require (tournaments[_idTournament].tournamentStatus == TournamentStatus.IsCountingWinner, \"Tournament not in the right status\");\r\n        require ( balanceStaking[_winner][_idTournament].isRegistered , \"This player did not participate\");\r\n\r\n        tournaments[_idTournament].winner = _winner;\r\n        tournaments[_idTournament].tournamentStatus = TournamentStatus.WinnerSet;\r\n        rewards[_winner] += tournaments[_idTournament].rewardTournament;\r\n        tournaments[_idTournament].isActive = false;\r\n\r\n        emit winnerSet (_idTournament, _winner);\r\n    }\r\n\r\n    ///@dev Register a new player\r\n    function registerPlayer(uint _idTournament) public {\r\n        require (multiverseData[msg.sender].isRegistered, \"Non registered player\");\r\n        require (tournaments[_idTournament].isActive, \"this tournament doesn't exist\");\r\n        require (tournaments[_idTournament].tournamentStatus == TournamentStatus.IsOn, \"Tournament not in the right status\");\r\n        require (balanceOf(msg.sender) >= tournaments[_idTournament].stakeRequested, \"balance too low\");\r\n        require (!balanceStaking[msg.sender][_idTournament].isRegistered, \"Player already registered\");\r\n\r\n        _burn(msg.sender, tournaments[_idTournament].stakeRequested);\r\n\r\n        balanceStaking[msg.sender][_idTournament] = PlayerTournament(tournaments[_idTournament].stakeRequested, true, false);\r\n    }\r\n\r\n    ///@dev Every player withdraw their staking at the end of the tournament\r\n    function withdrawStaking(uint _idTournament) public {\r\n        require (multiverseData[msg.sender].isRegistered, \"Non registered player\");\r\n        require (tournaments[_idTournament].tournamentStatus == TournamentStatus.WinnerSet, \"Tournament not in the right status\");\r\n        require (balanceStaking[msg.sender][_idTournament].isRegistered, \"you didn't participate this tournement\");\r\n        require (!balanceStaking[msg.sender][_idTournament].hasWithdrawn, \"Stake already withdrawn\");\r\n\r\n        balanceStaking[msg.sender][_idTournament].hasWithdrawn = true;\r\n        _mint(msg.sender, balanceStaking[msg.sender][_idTournament].stake);\r\n        balanceStaking[msg.sender][_idTournament].stake = 0;\r\n    }\r\n\r\n    ///@dev the winner withdraw his rewards\r\n    function withdrawReward() public{\r\n       require (rewards[msg.sender] > 0, \"No reward to withdraw\");\r\n\r\n       uint amount = rewards[msg.sender];\r\n       rewards[msg.sender] = 0;\r\n       _mint(msg.sender, amount);\r\n    }\r\n\r\n}\r\n\r\n   ",
  "sourcePath": "C:\\Users\\fboud\\OneDrive\\Documents\\Alyra\\projetFinal\\contracts\\powStakingTournament.sol",
  "compiler": {
    "name": "solc",
    "version": "0.8.1+commit.df193b15.Emscripten.clang"
  },
  "schemaVersion": "3.4.2",
  "updatedAt": "2021-08-08T19:15:38.018Z",
  "networkType": "ethereum",
  "devdoc": {
    "details": "Create several tournaments of staking with duration, theme and reward",
    "kind": "dev",
    "methods": {
      "allowance(address,address)": {
        "details": "See {IERC20-allowance}."
      },
      "approve(address,uint256)": {
        "details": "See {IERC20-approve}. Requirements: - `spender` cannot be the zero address."
      },
      "balanceOf(address)": {
        "details": "See {IERC20-balanceOf}."
      },
      "burnPow(address,uint256)": {
        "details": "Administrator can burn token"
      },
      "decimals()": {
        "details": "Returns the number of decimals used to get its user representation. For example, if `decimals` equals `2`, a balance of `505` tokens should be displayed to a user as `5.05` (`505 / 10 ** 2`). Tokens usually opt for a value of 18, imitating the relationship between Ether and Wei. This is the value {ERC20} uses, unless this function is overridden; NOTE: This information is only used for _display_ purposes: it in no way affects any of the arithmetic of the contract, including {IERC20-balanceOf} and {IERC20-transfer}."
      },
      "decreaseAllowance(address,uint256)": {
        "details": "Atomically decreases the allowance granted to `spender` by the caller. This is an alternative to {approve} that can be used as a mitigation for problems described in {IERC20-approve}. Emits an {Approval} event indicating the updated allowance. Requirements: - `spender` cannot be the zero address. - `spender` must have allowance for the caller of at least `subtractedValue`."
      },
      "endTournament(uint256)": {
        "details": "End the game "
      },
      "getReward()": {
        "details": "Players can get there reward function of there XP. If the threshold to get the next reward is not achieve player will be reverted"
      },
      "increaseAllowance(address,uint256)": {
        "details": "Atomically increases the allowance granted to `spender` by the caller. This is an alternative to {approve} that can be used as a mitigation for problems described in {IERC20-approve}. Emits an {Approval} event indicating the updated allowance. Requirements: - `spender` cannot be the zero address."
      },
      "myMint(address,uint256)": {
        "details": "define the mint function",
        "params": {
          "amount": "amount POWToken to mint",
          "target": "address of target"
        }
      },
      "name()": {
        "details": "Returns the name of the token."
      },
      "owner()": {
        "details": "Returns the address of the current owner."
      },
      "registerPlayer(uint256)": {
        "details": "Register a new player"
      },
      "renounceOwnership()": {
        "details": "Leaves the contract without owner. It will not be possible to call `onlyOwner` functions anymore. Can only be called by the current owner. NOTE: Renouncing ownership will leave the contract without an owner, thereby removing any functionality that is only available to the owner."
      },
      "setMultiversePlayer(address,string)": {
        "details": "link a login with a player. The login must be the exact same one than the one used in POW"
      },
      "setReward(uint256)": {
        "details": "Administrator, set the amount rewarded for each step"
      },
      "setTournament(string,uint256,uint256,uint256)": {
        "details": "Set a new tournament"
      },
      "setWinner(uint256,address)": {
        "details": "Close the tournament and set the winner"
      },
      "symbol()": {
        "details": "Returns the symbol of the token, usually a shorter version of the name."
      },
      "totalSupply()": {
        "details": "See {IERC20-totalSupply}."
      },
      "transfer(address,uint256)": {
        "details": "See {IERC20-transfer}. Requirements: - `recipient` cannot be the zero address. - the caller must have a balance of at least `amount`."
      },
      "transferFrom(address,address,uint256)": {
        "details": "See {IERC20-transferFrom}. Emits an {Approval} event indicating the updated allowance. This is not required by the EIP. See the note at the beginning of {ERC20}. Requirements: - `sender` and `recipient` cannot be the zero address. - `sender` must have a balance of at least `amount`. - the caller must have allowance for ``sender``'s tokens of at least `amount`."
      },
      "transferOwnership(address)": {
        "details": "Transfers ownership of the contract to a new account (`newOwner`). Can only be called by the current owner."
      },
      "updateMultiversePlayer(string,uint256)": {
        "details": "Update the data of a registered player. The adnministrator Only can set this. In the future, the oracle will do that"
      },
      "withdrawReward()": {
        "details": "the winner withdraw his rewards"
      },
      "withdrawStaking(uint256)": {
        "details": "Every player withdraw their staking at the end of the tournament"
      }
    },
    "stateVariables": {
      "balanceStaking": {
        "details": "Mapping adress player => id tournament => player. The player can play to several tournament"
      },
      "rewards": {
        "details": "Mapping of all the reward "
      },
      "tournaments": {
        "details": "Mapping of all the tournaments"
      }
    },
    "title": "Tournament staking",
    "version": 1
  },
  "userdoc": {
    "kind": "user",
    "methods": {},
    "notice": "This  contract set staking tournament. The player stake an amount and can get it at the end of the tournament",
    "version": 1
  }
}