{
  "contractName": "POWToken",
  "abi": [
    {
      "inputs": [
        {
          "internalType": "uint256",
          "name": "_levelOfXpToReward",
          "type": "uint256"
        },
        {
          "internalType": "uint256",
          "name": "_initialSupply",
          "type": "uint256"
        }
      ],
      "stateMutability": "nonpayable",
      "type": "constructor"
    },
    {
      "anonymous": false,
      "inputs": [
        {
          "indexed": true,
          "internalType": "address",
          "name": "owner",
          "type": "address"
        },
        {
          "indexed": true,
          "internalType": "address",
          "name": "spender",
          "type": "address"
        },
        {
          "indexed": false,
          "internalType": "uint256",
          "name": "value",
          "type": "uint256"
        }
      ],
      "name": "Approval",
      "type": "event"
    },
    {
      "anonymous": false,
      "inputs": [
        {
          "indexed": false,
          "internalType": "address",
          "name": "addressPlayer",
          "type": "address"
        },
        {
          "indexed": false,
          "internalType": "string",
          "name": "loginPlayer",
          "type": "string"
        }
      ],
      "name": "NewPlayerRegistered",
      "type": "event"
    },
    {
      "anonymous": false,
      "inputs": [
        {
          "indexed": true,
          "internalType": "address",
          "name": "previousOwner",
          "type": "address"
        },
        {
          "indexed": true,
          "internalType": "address",
          "name": "newOwner",
          "type": "address"
        }
      ],
      "name": "OwnershipTransferred",
      "type": "event"
    },
    {
      "anonymous": false,
      "inputs": [
        {
          "indexed": true,
          "internalType": "address",
          "name": "from",
          "type": "address"
        },
        {
          "indexed": true,
          "internalType": "address",
          "name": "to",
          "type": "address"
        },
        {
          "indexed": false,
          "internalType": "uint256",
          "name": "value",
          "type": "uint256"
        }
      ],
      "name": "Transfer",
      "type": "event"
    },
    {
      "anonymous": false,
      "inputs": [],
      "name": "newAmountReward",
      "type": "event"
    },
    {
      "anonymous": false,
      "inputs": [
        {
          "indexed": false,
          "internalType": "string",
          "name": "login",
          "type": "string"
        }
      ],
      "name": "playerUpdated",
      "type": "event"
    },
    {
      "anonymous": false,
      "inputs": [],
      "name": "rewardWithdrawn",
      "type": "event"
    },
    {
      "inputs": [],
      "name": "_owner",
      "outputs": [
        {
          "internalType": "address",
          "name": "",
          "type": "address"
        }
      ],
      "stateMutability": "view",
      "type": "function"
    },
    {
      "inputs": [
        {
          "internalType": "address",
          "name": "owner",
          "type": "address"
        },
        {
          "internalType": "address",
          "name": "spender",
          "type": "address"
        }
      ],
      "name": "allowance",
      "outputs": [
        {
          "internalType": "uint256",
          "name": "",
          "type": "uint256"
        }
      ],
      "stateMutability": "view",
      "type": "function"
    },
    {
      "inputs": [
        {
          "internalType": "address",
          "name": "spender",
          "type": "address"
        },
        {
          "internalType": "uint256",
          "name": "amount",
          "type": "uint256"
        }
      ],
      "name": "approve",
      "outputs": [
        {
          "internalType": "bool",
          "name": "",
          "type": "bool"
        }
      ],
      "stateMutability": "nonpayable",
      "type": "function"
    },
    {
      "inputs": [
        {
          "internalType": "address",
          "name": "account",
          "type": "address"
        }
      ],
      "name": "balanceOf",
      "outputs": [
        {
          "internalType": "uint256",
          "name": "",
          "type": "uint256"
        }
      ],
      "stateMutability": "view",
      "type": "function"
    },
    {
      "inputs": [],
      "name": "decimals",
      "outputs": [
        {
          "internalType": "uint8",
          "name": "",
          "type": "uint8"
        }
      ],
      "stateMutability": "view",
      "type": "function"
    },
    {
      "inputs": [
        {
          "internalType": "address",
          "name": "spender",
          "type": "address"
        },
        {
          "internalType": "uint256",
          "name": "subtractedValue",
          "type": "uint256"
        }
      ],
      "name": "decreaseAllowance",
      "outputs": [
        {
          "internalType": "bool",
          "name": "",
          "type": "bool"
        }
      ],
      "stateMutability": "nonpayable",
      "type": "function"
    },
    {
      "inputs": [
        {
          "internalType": "address",
          "name": "spender",
          "type": "address"
        },
        {
          "internalType": "uint256",
          "name": "addedValue",
          "type": "uint256"
        }
      ],
      "name": "increaseAllowance",
      "outputs": [
        {
          "internalType": "bool",
          "name": "",
          "type": "bool"
        }
      ],
      "stateMutability": "nonpayable",
      "type": "function"
    },
    {
      "inputs": [
        {
          "internalType": "address",
          "name": "",
          "type": "address"
        }
      ],
      "name": "multiverseData",
      "outputs": [
        {
          "internalType": "string",
          "name": "login",
          "type": "string"
        },
        {
          "internalType": "uint256",
          "name": "lastLevelErc20Reward",
          "type": "uint256"
        },
        {
          "internalType": "uint256",
          "name": "XP",
          "type": "uint256"
        },
        {
          "internalType": "bool",
          "name": "isRegistered",
          "type": "bool"
        }
      ],
      "stateMutability": "view",
      "type": "function"
    },
    {
      "inputs": [
        {
          "internalType": "string",
          "name": "",
          "type": "string"
        }
      ],
      "name": "multiverseIds",
      "outputs": [
        {
          "internalType": "address",
          "name": "",
          "type": "address"
        }
      ],
      "stateMutability": "view",
      "type": "function"
    },
    {
      "inputs": [],
      "name": "name",
      "outputs": [
        {
          "internalType": "string",
          "name": "",
          "type": "string"
        }
      ],
      "stateMutability": "view",
      "type": "function"
    },
    {
      "inputs": [],
      "name": "owner",
      "outputs": [
        {
          "internalType": "address",
          "name": "",
          "type": "address"
        }
      ],
      "stateMutability": "view",
      "type": "function"
    },
    {
      "inputs": [],
      "name": "renounceOwnership",
      "outputs": [],
      "stateMutability": "nonpayable",
      "type": "function"
    },
    {
      "inputs": [
        {
          "internalType": "address",
          "name": "_addressPlayer",
          "type": "address"
        },
        {
          "internalType": "string",
          "name": "_login",
          "type": "string"
        }
      ],
      "name": "setMultiversePlayer",
      "outputs": [],
      "stateMutability": "nonpayable",
      "type": "function"
    },
    {
      "inputs": [],
      "name": "symbol",
      "outputs": [
        {
          "internalType": "string",
          "name": "",
          "type": "string"
        }
      ],
      "stateMutability": "view",
      "type": "function"
    },
    {
      "inputs": [],
      "name": "totalSupply",
      "outputs": [
        {
          "internalType": "uint256",
          "name": "",
          "type": "uint256"
        }
      ],
      "stateMutability": "view",
      "type": "function"
    },
    {
      "inputs": [
        {
          "internalType": "address",
          "name": "recipient",
          "type": "address"
        },
        {
          "internalType": "uint256",
          "name": "amount",
          "type": "uint256"
        }
      ],
      "name": "transfer",
      "outputs": [
        {
          "internalType": "bool",
          "name": "",
          "type": "bool"
        }
      ],
      "stateMutability": "nonpayable",
      "type": "function"
    },
    {
      "inputs": [
        {
          "internalType": "address",
          "name": "sender",
          "type": "address"
        },
        {
          "internalType": "address",
          "name": "recipient",
          "type": "address"
        },
        {
          "internalType": "uint256",
          "name": "amount",
          "type": "uint256"
        }
      ],
      "name": "transferFrom",
      "outputs": [
        {
          "internalType": "bool",
          "name": "",
          "type": "bool"
        }
      ],
      "stateMutability": "nonpayable",
      "type": "function"
    },
    {
      "inputs": [
        {
          "internalType": "address",
          "name": "newOwner",
          "type": "address"
        }
      ],
      "name": "transferOwnership",
      "outputs": [],
      "stateMutability": "nonpayable",
      "type": "function"
    },
    {
      "inputs": [
        {
          "internalType": "string",
          "name": "_login",
          "type": "string"
        },
        {
          "internalType": "uint256",
          "name": "_XP",
          "type": "uint256"
        }
      ],
      "name": "updateMultiversePlayer",
      "outputs": [],
      "stateMutability": "nonpayable",
      "type": "function"
    },
    {
      "inputs": [
        {
          "internalType": "address",
          "name": "target",
          "type": "address"
        },
        {
          "internalType": "uint256",
          "name": "amount",
          "type": "uint256"
        }
      ],
      "name": "myMint",
      "outputs": [],
      "stateMutability": "nonpayable",
      "type": "function"
    },
    {
      "inputs": [
        {
          "internalType": "address",
          "name": "_account",
          "type": "address"
        },
        {
          "internalType": "uint256",
          "name": "_amount",
          "type": "uint256"
        }
      ],
      "name": "burnPow",
      "outputs": [],
      "stateMutability": "nonpayable",
      "type": "function"
    },
    {
      "inputs": [
        {
          "internalType": "uint256",
          "name": "_rewardOfEachLevel",
          "type": "uint256"
        }
      ],
      "name": "setReward",
      "outputs": [],
      "stateMutability": "nonpayable",
      "type": "function"
    },
    {
      "inputs": [],
      "name": "getReward",
      "outputs": [],
      "stateMutability": "nonpayable",
      "type": "function"
    }
  ],
  "bytecode": "0x60806040523480156200001157600080fd5b5060405162001d8338038062001d838339810160408190526200003491620002e5565b604051806040016040528060088152602001672837bbaa37b5b2b760c11b81525060405180604001604052806003815260200162504f5760e81b8152508160039080519060200190620000899291906200023f565b5080516200009f9060049060208401906200023f565b505050620000bc620000b66200010260201b60201c565b62000106565b60068054336001600160a01b031991821681179092556009805490911690911790819055600a839055620000fa906001600160a01b03168262000158565b5050620003ab565b3390565b600580546001600160a01b038381166001600160a01b0319831681179093556040519116919082907f8be0079c531659141344cd1fd0a4f28419497f9722a3daafe3b4186f6b6457e090600090a35050565b6001600160a01b0382166200018a5760405162461bcd60e51b8152600401620001819062000309565b60405180910390fd5b62000198600083836200023a565b8060026000828254620001ac919062000349565b90915550506001600160a01b03821660009081526020819052604081208054839290620001db90849062000349565b90915550506040516001600160a01b038316906000907fddf252ad1be2c89b69c2b068fc378daa952ba7f163c4a11628f55a4df523b3ef906200022090859062000340565b60405180910390a362000236600083836200023a565b5050565b505050565b8280546200024d906200036e565b90600052602060002090601f016020900481019282620002715760008555620002bc565b82601f106200028c57805160ff1916838001178555620002bc565b82800160010185558215620002bc579182015b82811115620002bc5782518255916020019190600101906200029f565b50620002ca929150620002ce565b5090565b5b80821115620002ca5760008155600101620002cf565b60008060408385031215620002f8578182fd5b505080516020909101519092909150565b6020808252601f908201527f45524332303a206d696e7420746f20746865207a65726f206164647265737300604082015260600190565b90815260200190565b600082198211156200036957634e487b7160e01b81526011600452602481fd5b500190565b6002810460018216806200038357607f821691505b60208210811415620003a557634e487b7160e01b600052602260045260246000fd5b50919050565b6119c880620003bb6000396000f3fe608060405234801561001057600080fd5b506004361061014d5760003560e01c8063715018a6116100c3578063a9059cbb1161007c578063a9059cbb146102a4578063b2bdfa7b146102b7578063dd62ed3e146102bf578063e9dbd45a146102d2578063f2fde38b146102e5578063f3bee102146102f85761014d565b8063715018a61461023657806375adb7fd1461023e5780638da5cb5b1461026157806395d89b41146102765780639b008e471461027e578063a457c2d7146102915761014d565b8063293be45611610115578063293be456146101cd578063313ce567146101e057806339509351146101f55780633d18b912146102085780634cb3d4331461021057806370a08231146102235761014d565b80630334a4e41461015257806306fdde0314610167578063095ea7b31461018557806318160ddd146101a557806323b872dd146101ba575b600080fd5b6101656101603660046111b4565b61030b565b005b61016f610361565b60405161017c91906112fe565b60405180910390f35b6101986101933660046111b4565b6103f3565b60405161017c91906112f3565b6101ad610410565b60405161017c919061185a565b6101986101c836600461112d565b610416565b6101656101db36600461125b565b6104a6565b6101e8610516565b60405161017c9190611863565b6101986102033660046111b4565b61051b565b61016561056f565b61016561021e366004611218565b6106a8565b6101ad6102313660046110da565b6107b7565b6101656107d6565b61025161024c3660046110da565b610821565b60405161017c9493929190611311565b6102696108d6565b60405161017c91906112bb565b61016f6108e5565b61016561028c366004611168565b6108f4565b61019861029f3660046111b4565b610a44565b6101986102b23660046111b4565b610abd565b610269610ad1565b6101ad6102cd3660046110fb565b610ae0565b6102696102e03660046111dd565b610b0b565b6101656102f33660046110da565b610b31565b6101656103063660046111b4565b610ba2565b610313610beb565b6001600160a01b03166103246108d6565b6001600160a01b0316146103535760405162461bcd60e51b815260040161034a9061168b565b60405180910390fd5b61035d8282610bef565b5050565b6060600380546103709061190b565b80601f016020809104026020016040519081016040528092919081815260200182805461039c9061190b565b80156103e95780601f106103be576101008083540402835291602001916103e9565b820191906000526020600020905b8154815290600101906020018083116103cc57829003601f168201915b5050505050905090565b6000610407610400610beb565b8484610ca5565b50600192915050565b60025490565b6000610423848484610d59565b6001600160a01b038416600090815260016020526040812081610444610beb565b6001600160a01b03166001600160a01b03168152602001908152602001600020549050828110156104875760405162461bcd60e51b815260040161034a90611643565b61049b85610493610beb565b858403610ca5565b506001949350505050565b6104ae610beb565b6001600160a01b03166104bf6108d6565b6001600160a01b0316146104e55760405162461bcd60e51b815260040161034a9061168b565b600b8190556040517f905ba88c728c23467d10cea61f7a517e2d71fa47d3481be50e86457071d84fd890600090a150565b601290565b6000610407610528610beb565b848460016000610536610beb565b6001600160a01b03908116825260208083019390935260409182016000908120918b168152925290205461056a9190611871565b610ca5565b3360009081526008602052604090206003015460ff166105a15760405162461bcd60e51b815260040161034a9061144f565b600b546105c05760405162461bcd60e51b815260040161034a9061156b565b600a54336000908152600860205260408120600201549091829182916105e591611889565b915081158061060e57503360009081526008602052604090206001015461060c90836118c8565b155b1561062b5760405162461bcd60e51b815260040161034a9061160c565b3360009081526008602052604090206001015461064890836118c8565b9250600b548361065891906118a9565b33600081815260086020526040902060010184905590915061067a9082610bef565b6040517fd3f9ddfe1db89b547b02b16d65f9f96eef894e9d4b83c52a2732b741112a990a90600090a1505050565b6006546001600160a01b031633146106d25760405162461bcd60e51b815260040161034a906115c3565b600860006007846040516106e6919061129f565b90815260408051918290036020908101909220546001600160a01b0316835290820192909252016000206003015460ff1615156001146107385760405162461bcd60e51b815260040161034a9061178a565b806008600060078560405161074d919061129f565b9081526040805160209281900383019020546001600160a01b0316835290820192909252810160002060020191909155517faa6183438646fc8bb56f82868ce90c0a5bd1301970b115e976c90c1d696a1550906107ab9084906112fe565b60405180910390a15050565b6001600160a01b0381166000908152602081905260409020545b919050565b6107de610beb565b6001600160a01b03166107ef6108d6565b6001600160a01b0316146108155760405162461bcd60e51b815260040161034a9061168b565b61081f6000610e71565b565b60086020526000908152604090208054819061083c9061190b565b80601f01602080910402602001604051908101604052809291908181526020018280546108689061190b565b80156108b55780601f1061088a576101008083540402835291602001916108b5565b820191906000526020600020905b81548152906001019060200180831161089857829003601f168201915b50505050600183015460028401546003909401549293909290915060ff1684565b6005546001600160a01b031690565b6060600480546103709061190b565b6006546001600160a01b03163314806109155750336001600160a01b038316145b6109315760405162461bcd60e51b815260040161034a906114e0565b60086000600783604051610945919061129f565b9081526040805160209281900383019020546001600160a01b0316835290820192909252016000206003015460ff16156109915760405162461bcd60e51b815260040161034a9061152a565b816007826040516109a2919061129f565b908152604080516020928190038301902080546001600160a01b0319166001600160a01b039485161790559184166000908152600882529190912082516109eb92840190610fa3565b506001600160a01b03821660009081526008602052604090819020600301805460ff19166001179055517fd1271c0a878b06e77c2b145e81fda258074d1d9f72d29461da6de567fe185db3906107ab90849084906112cf565b60008060016000610a53610beb565b6001600160a01b0390811682526020808301939093526040918201600090812091881681529252902054905082811015610a9f5760405162461bcd60e51b815260040161034a906117de565b610ab3610aaa610beb565b85858403610ca5565b5060019392505050565b6000610407610aca610beb565b8484610d59565b6009546001600160a01b031681565b6001600160a01b03918216600090815260016020908152604080832093909416825291909152205490565b80516020818301810180516007825292820191909301209152546001600160a01b031681565b610b39610beb565b6001600160a01b0316610b4a6108d6565b6001600160a01b031614610b705760405162461bcd60e51b815260040161034a9061168b565b6001600160a01b038116610b965760405162461bcd60e51b815260040161034a906113c7565b610b9f81610e71565b50565b610baa610beb565b6001600160a01b0316610bbb6108d6565b6001600160a01b031614610be15760405162461bcd60e51b815260040161034a9061168b565b61035d8282610ec3565b3390565b6001600160a01b038216610c155760405162461bcd60e51b815260040161034a90611823565b610c2160008383610f9e565b8060026000828254610c339190611871565b90915550506001600160a01b03821660009081526020819052604081208054839290610c60908490611871565b90915550506040516001600160a01b0383169060009060008051602061197383398151915290610c9190859061185a565b60405180910390a361035d60008383610f9e565b6001600160a01b038316610ccb5760405162461bcd60e51b815260040161034a90611746565b6001600160a01b038216610cf15760405162461bcd60e51b815260040161034a9061140d565b6001600160a01b0380841660008181526001602090815260408083209487168084529490915290819020849055517f8c5be1e5ebec7d5bd14f71427d1e84f3dd0314c0f7b2291e5b200ac8c7c3b92590610d4c90859061185a565b60405180910390a3505050565b6001600160a01b038316610d7f5760405162461bcd60e51b815260040161034a90611701565b6001600160a01b038216610da55760405162461bcd60e51b815260040161034a90611342565b610db0838383610f9e565b6001600160a01b03831660009081526020819052604090205481811015610de95760405162461bcd60e51b815260040161034a9061149a565b6001600160a01b03808516600090815260208190526040808220858503905591851681529081208054849290610e20908490611871565b92505081905550826001600160a01b0316846001600160a01b031660008051602061197383398151915284604051610e58919061185a565b60405180910390a3610e6b848484610f9e565b50505050565b600580546001600160a01b038381166001600160a01b0319831681179093556040519116919082907f8be0079c531659141344cd1fd0a4f28419497f9722a3daafe3b4186f6b6457e090600090a35050565b6001600160a01b038216610ee95760405162461bcd60e51b815260040161034a906116c0565b610ef582600083610f9e565b6001600160a01b03821660009081526020819052604090205481811015610f2e5760405162461bcd60e51b815260040161034a90611385565b6001600160a01b0383166000908152602081905260408120838303905560028054849290610f5d9084906118c8565b90915550506040516000906001600160a01b0385169060008051602061197383398151915290610f8e90869061185a565b60405180910390a3610f9e836000845b505050565b828054610faf9061190b565b90600052602060002090601f016020900481019282610fd15760008555611017565b82601f10610fea57805160ff1916838001178555611017565b82800160010185558215611017579182015b82811115611017578251825591602001919060010190610ffc565b50611023929150611027565b5090565b5b808211156110235760008155600101611028565b80356001600160a01b03811681146107d157600080fd5b600082601f830112611063578081fd5b813567ffffffffffffffff8082111561107e5761107e61195c565b604051601f8301601f19908116603f011681019082821181831017156110a6576110a661195c565b816040528381528660208588010111156110be578485fd5b8360208701602083013792830160200193909352509392505050565b6000602082840312156110eb578081fd5b6110f48261103c565b9392505050565b6000806040838503121561110d578081fd5b6111168361103c565b91506111246020840161103c565b90509250929050565b600080600060608486031215611141578081fd5b61114a8461103c565b92506111586020850161103c565b9150604084013590509250925092565b6000806040838503121561117a578182fd5b6111838361103c565b9150602083013567ffffffffffffffff81111561119e578182fd5b6111aa85828601611053565b9150509250929050565b600080604083850312156111c6578182fd5b6111cf8361103c565b946020939093013593505050565b6000602082840312156111ee578081fd5b813567ffffffffffffffff811115611204578182fd5b61121084828501611053565b949350505050565b6000806040838503121561122a578182fd5b823567ffffffffffffffff811115611240578283fd5b61124c85828601611053565b95602094909401359450505050565b60006020828403121561126c578081fd5b5035919050565b6000815180845261128b8160208601602086016118df565b601f01601f19169290920160200192915050565b600082516112b18184602087016118df565b9190910192915050565b6001600160a01b0391909116815260200190565b6001600160a01b038316815260406020820181905260009061121090830184611273565b901515815260200190565b6000602082526110f46020830184611273565b6000608082526113246080830187611273565b60208301959095525060408101929092521515606090910152919050565b60208082526023908201527f45524332303a207472616e7366657220746f20746865207a65726f206164647260408201526265737360e81b606082015260800190565b60208082526022908201527f45524332303a206275726e20616d6f756e7420657863656564732062616c616e604082015261636560f01b606082015260800190565b60208082526026908201527f4f776e61626c653a206e6577206f776e657220697320746865207a65726f206160408201526564647265737360d01b606082015260800190565b60208082526022908201527f45524332303a20617070726f766520746f20746865207a65726f206164647265604082015261737360f01b606082015260800190565b6020808252602b908201527f596f7520617265206e6f7420656c696769626c652c20706c656173652072656760408201526a1a5cdd195c88199a5c9cdd60aa1b606082015260800190565b60208082526026908201527f45524332303a207472616e7366657220616d6f756e7420657863656564732062604082015265616c616e636560d01b606082015260800190565b6020808252602a908201527f796f7520617265206e6f7420617574686f72697a656420746f207365742074686040820152691a5cc81858d8dbdd5b9d60b21b606082015260800190565b60208082526021908201527f7468697320706c6179657220697320616c7265616479207265676973746572656040820152601960fa1b606082015260800190565b60208082526038908201527f506f772069732063757272656e746c792073657474696e6720726577617264736040820152771610383632b0b9b29031b7b6b2903130b1b5903630ba32b960411b606082015260800190565b60208082526029908201527f796f7520617265206e6f7420617574686f72697a656420746f20757064617465604082015268103090383630bcb2b960b91b606082015260800190565b6020808252601b908201527f6e6f7468696e6720746f20776974686472617720666f72206e6f770000000000604082015260600190565b60208082526028908201527f45524332303a207472616e7366657220616d6f756e74206578636565647320616040820152676c6c6f77616e636560c01b606082015260800190565b6020808252818101527f4f776e61626c653a2063616c6c6572206973206e6f7420746865206f776e6572604082015260600190565b60208082526021908201527f45524332303a206275726e2066726f6d20746865207a65726f206164647265736040820152607360f81b606082015260800190565b60208082526025908201527f45524332303a207472616e736665722066726f6d20746865207a65726f206164604082015264647265737360d81b606082015260800190565b60208082526024908201527f45524332303a20617070726f76652066726f6d20746865207a65726f206164646040820152637265737360e01b606082015260800190565b60208082526034908201527f706c656173652073657420666972737420616e20457468657265756d206164646040820152733932b9b9903337b9103a3434b990383630bcb2b960611b606082015260800190565b60208082526025908201527f45524332303a2064656372656173656420616c6c6f77616e63652062656c6f77604082015264207a65726f60d81b606082015260800190565b6020808252601f908201527f45524332303a206d696e7420746f20746865207a65726f206164647265737300604082015260600190565b90815260200190565b60ff91909116815260200190565b6000821982111561188457611884611946565b500190565b6000826118a457634e487b7160e01b81526012600452602481fd5b500490565b60008160001904831182151516156118c3576118c3611946565b500290565b6000828210156118da576118da611946565b500390565b60005b838110156118fa5781810151838201526020016118e2565b83811115610e6b5750506000910152565b60028104600182168061191f57607f821691505b6020821081141561194057634e487b7160e01b600052602260045260246000fd5b50919050565b634e487b7160e01b600052601160045260246000fd5b634e487b7160e01b600052604160045260246000fdfeddf252ad1be2c89b69c2b068fc378daa952ba7f163c4a11628f55a4df523b3efa26469706673582212200da3cb88aa349d97b9dd4fdf7abfe280c1b246d17875060d935d2a6db680b35364736f6c63430008010033",
  "immutableReferences": {},
  "source": "// SPDX-License-Identifier: MIT\r\n\r\npragma solidity 0.8.1;\r\nimport \"./interfaceMultiverseERC20.sol\";\r\nimport \"@openzeppelin/openzeppelin-contracts-master/contracts/token/ERC20/ERC20.sol\";\r\nimport \"@openzeppelin/openzeppelin-contracts-master/contracts/access/Ownable.sol\";\r\n\r\n/** \r\n * @title POWToken\r\n * @dev Implements a ERC-20 token with owner mint process\r\n */\r\ncontract POWToken is ERC20, Ownable, interfaceMultiverseERC20 {\r\n\r\n    address public _owner;\r\n    uint levelOfXPReward;\r\n    uint amountRewarded;\r\n\r\n    \r\n    /** \r\n     * @dev Create a ERC-20 token with ERC20 OpenZeppelin setup\r\n     * @param _levelOfXpToReward is the threshold to get a reward\r\n     * @param _initialSupply is the amount of token created and attributate to the owner \r\n     */\r\n    constructor(uint _levelOfXpToReward, uint _initialSupply) ERC20(\"PowToken\", \"POW\") {\r\n        _owner = msg.sender;\r\n        levelOfXPReward = _levelOfXpToReward;\r\n        _mint(_owner, _initialSupply);\r\n    }\r\n    \r\n    event rewardWithdrawn();\r\n    event newAmountReward();\r\n\r\n    /**\r\n     * @dev define the mint function\r\n     * @param target address of target\r\n     * @param amount amount POWToken to mint\r\n     */    \r\n    function myMint (address target, uint amount) public onlyOwner  {\r\n\r\n        _mint(target, amount);\r\n    }\r\n    ///@dev Administrator can burn token\r\n    function burnPow(address _account, uint _amount)  public onlyOwner {\r\n        _burn(_account,_amount);\r\n    }\r\n    \r\n    ///@dev Administrator, set the amount rewarded for each step\r\n    function setReward (uint _rewardOfEachLevel) public onlyOwner {\r\n        amountRewarded = _rewardOfEachLevel;\r\n        emit newAmountReward();\r\n    }\r\n    \r\n    /**\r\n     * @dev Players can get there reward function of there XP. If the threshold to get the next\r\n     * reward is not achieve player will be reverted\r\n     */\r\n     \r\n    function getReward() public {\r\n        require(multiverseData[msg.sender].isRegistered, \"You are not eligible, please register first\");\r\n        require(amountRewarded != 0, \"Pow is currently setting rewards, please come back later\");\r\n\r\n        uint rewardMultiplier;\r\n        uint rewardLevelRequested;\r\n        uint reward;\r\n        \r\n        rewardLevelRequested = multiverseData[msg.sender].XP / levelOfXPReward;\r\n\r\n        if(rewardLevelRequested == 0 || (rewardLevelRequested - multiverseData[msg.sender].lastLevelErc20Reward == 0)){\r\n            revert(\"nothing to withdraw for now\");\r\n        }else{\r\n            rewardMultiplier = rewardLevelRequested - multiverseData[msg.sender].lastLevelErc20Reward;  \r\n            reward = rewardMultiplier * amountRewarded;\r\n             multiverseData[msg.sender].lastLevelErc20Reward = rewardLevelRequested;\r\n            _mint(msg.sender, reward);\r\n        }\r\n        \r\n        emit rewardWithdrawn();\r\n    }\r\n}",
  "sourcePath": "C:\\Users\\fboud\\OneDrive\\Documents\\Alyra\\projetFinal\\contracts\\POWToken.sol",
  "compiler": {
    "name": "solc",
    "version": "0.8.1+commit.df193b15.Emscripten.clang"
  },
  "schemaVersion": "3.4.2",
  "updatedAt": "2021-08-08T19:15:32.395Z",
  "devdoc": {
    "details": "Implements a ERC-20 token with owner mint process",
    "kind": "dev",
    "methods": {
      "allowance(address,address)": {
        "details": "See {IERC20-allowance}."
      },
      "approve(address,uint256)": {
        "details": "See {IERC20-approve}. Requirements: - `spender` cannot be the zero address."
      },
      "balanceOf(address)": {
        "details": "See {IERC20-balanceOf}."
      },
      "burnPow(address,uint256)": {
        "details": "Administrator can burn token"
      },
      "constructor": {
        "details": "Create a ERC-20 token with ERC20 OpenZeppelin setup",
        "params": {
          "_initialSupply": "is the amount of token created and attributate to the owner ",
          "_levelOfXpToReward": "is the threshold to get a reward"
        }
      },
      "decimals()": {
        "details": "Returns the number of decimals used to get its user representation. For example, if `decimals` equals `2`, a balance of `505` tokens should be displayed to a user as `5.05` (`505 / 10 ** 2`). Tokens usually opt for a value of 18, imitating the relationship between Ether and Wei. This is the value {ERC20} uses, unless this function is overridden; NOTE: This information is only used for _display_ purposes: it in no way affects any of the arithmetic of the contract, including {IERC20-balanceOf} and {IERC20-transfer}."
      },
      "decreaseAllowance(address,uint256)": {
        "details": "Atomically decreases the allowance granted to `spender` by the caller. This is an alternative to {approve} that can be used as a mitigation for problems described in {IERC20-approve}. Emits an {Approval} event indicating the updated allowance. Requirements: - `spender` cannot be the zero address. - `spender` must have allowance for the caller of at least `subtractedValue`."
      },
      "getReward()": {
        "details": "Players can get there reward function of there XP. If the threshold to get the next reward is not achieve player will be reverted"
      },
      "increaseAllowance(address,uint256)": {
        "details": "Atomically increases the allowance granted to `spender` by the caller. This is an alternative to {approve} that can be used as a mitigation for problems described in {IERC20-approve}. Emits an {Approval} event indicating the updated allowance. Requirements: - `spender` cannot be the zero address."
      },
      "myMint(address,uint256)": {
        "details": "define the mint function",
        "params": {
          "amount": "amount POWToken to mint",
          "target": "address of target"
        }
      },
      "name()": {
        "details": "Returns the name of the token."
      },
      "owner()": {
        "details": "Returns the address of the current owner."
      },
      "renounceOwnership()": {
        "details": "Leaves the contract without owner. It will not be possible to call `onlyOwner` functions anymore. Can only be called by the current owner. NOTE: Renouncing ownership will leave the contract without an owner, thereby removing any functionality that is only available to the owner."
      },
      "setMultiversePlayer(address,string)": {
        "details": "link a login with a player. The login must be the exact same one than the one used in POW"
      },
      "setReward(uint256)": {
        "details": "Administrator, set the amount rewarded for each step"
      },
      "symbol()": {
        "details": "Returns the symbol of the token, usually a shorter version of the name."
      },
      "totalSupply()": {
        "details": "See {IERC20-totalSupply}."
      },
      "transfer(address,uint256)": {
        "details": "See {IERC20-transfer}. Requirements: - `recipient` cannot be the zero address. - the caller must have a balance of at least `amount`."
      },
      "transferFrom(address,address,uint256)": {
        "details": "See {IERC20-transferFrom}. Emits an {Approval} event indicating the updated allowance. This is not required by the EIP. See the note at the beginning of {ERC20}. Requirements: - `sender` and `recipient` cannot be the zero address. - `sender` must have a balance of at least `amount`. - the caller must have allowance for ``sender``'s tokens of at least `amount`."
      },
      "transferOwnership(address)": {
        "details": "Transfers ownership of the contract to a new account (`newOwner`). Can only be called by the current owner."
      },
      "updateMultiversePlayer(string,uint256)": {
        "details": "Update the data of a registered player. The adnministrator Only can set this. In the future, the oracle will do that"
      }
    },
    "title": "POWToken",
    "version": 1
  },
  "userdoc": {
    "kind": "user",
    "methods": {},
    "version": 1
  }
}