{
  "contractName": "POWToken",
  "abi": [
    {
      "inputs": [
        {
          "internalType": "uint256",
          "name": "_levelOfXpToReward",
          "type": "uint256"
        },
        {
          "internalType": "uint256",
          "name": "_initialSupply",
          "type": "uint256"
        }
      ],
      "stateMutability": "nonpayable",
      "type": "constructor"
    },
    {
      "anonymous": false,
      "inputs": [
        {
          "indexed": true,
          "internalType": "address",
          "name": "owner",
          "type": "address"
        },
        {
          "indexed": true,
          "internalType": "address",
          "name": "spender",
          "type": "address"
        },
        {
          "indexed": false,
          "internalType": "uint256",
          "name": "value",
          "type": "uint256"
        }
      ],
      "name": "Approval",
      "type": "event"
    },
    {
      "anonymous": false,
      "inputs": [
        {
          "indexed": false,
          "internalType": "address",
          "name": "addressPlayer",
          "type": "address"
        },
        {
          "indexed": false,
          "internalType": "string",
          "name": "loginPlayer",
          "type": "string"
        }
      ],
      "name": "NewPlayerRegistered",
      "type": "event"
    },
    {
      "anonymous": false,
      "inputs": [
        {
          "indexed": true,
          "internalType": "address",
          "name": "previousOwner",
          "type": "address"
        },
        {
          "indexed": true,
          "internalType": "address",
          "name": "newOwner",
          "type": "address"
        }
      ],
      "name": "OwnershipTransferred",
      "type": "event"
    },
    {
      "anonymous": false,
      "inputs": [
        {
          "indexed": true,
          "internalType": "address",
          "name": "from",
          "type": "address"
        },
        {
          "indexed": true,
          "internalType": "address",
          "name": "to",
          "type": "address"
        },
        {
          "indexed": false,
          "internalType": "uint256",
          "name": "value",
          "type": "uint256"
        }
      ],
      "name": "Transfer",
      "type": "event"
    },
    {
      "anonymous": false,
      "inputs": [],
      "name": "newAmountReward",
      "type": "event"
    },
    {
      "anonymous": false,
      "inputs": [
        {
          "indexed": false,
          "internalType": "string",
          "name": "login",
          "type": "string"
        }
      ],
      "name": "playerUpdated",
      "type": "event"
    },
    {
      "anonymous": false,
      "inputs": [],
      "name": "rewardWithdrawn",
      "type": "event"
    },
    {
      "inputs": [
        {
          "internalType": "address",
          "name": "",
          "type": "address"
        }
      ],
      "name": "_balances",
      "outputs": [
        {
          "internalType": "uint256",
          "name": "",
          "type": "uint256"
        }
      ],
      "stateMutability": "view",
      "type": "function",
      "constant": true
    },
    {
      "inputs": [],
      "name": "_owner",
      "outputs": [
        {
          "internalType": "address",
          "name": "",
          "type": "address"
        }
      ],
      "stateMutability": "view",
      "type": "function",
      "constant": true
    },
    {
      "inputs": [
        {
          "internalType": "address",
          "name": "owner",
          "type": "address"
        },
        {
          "internalType": "address",
          "name": "spender",
          "type": "address"
        }
      ],
      "name": "allowance",
      "outputs": [
        {
          "internalType": "uint256",
          "name": "",
          "type": "uint256"
        }
      ],
      "stateMutability": "view",
      "type": "function",
      "constant": true
    },
    {
      "inputs": [
        {
          "internalType": "address",
          "name": "spender",
          "type": "address"
        },
        {
          "internalType": "uint256",
          "name": "amount",
          "type": "uint256"
        }
      ],
      "name": "approve",
      "outputs": [
        {
          "internalType": "bool",
          "name": "",
          "type": "bool"
        }
      ],
      "stateMutability": "nonpayable",
      "type": "function"
    },
    {
      "inputs": [
        {
          "internalType": "address",
          "name": "account",
          "type": "address"
        }
      ],
      "name": "balanceOf",
      "outputs": [
        {
          "internalType": "uint256",
          "name": "",
          "type": "uint256"
        }
      ],
      "stateMutability": "view",
      "type": "function",
      "constant": true
    },
    {
      "inputs": [],
      "name": "decimals",
      "outputs": [
        {
          "internalType": "uint8",
          "name": "",
          "type": "uint8"
        }
      ],
      "stateMutability": "view",
      "type": "function",
      "constant": true
    },
    {
      "inputs": [
        {
          "internalType": "address",
          "name": "spender",
          "type": "address"
        },
        {
          "internalType": "uint256",
          "name": "subtractedValue",
          "type": "uint256"
        }
      ],
      "name": "decreaseAllowance",
      "outputs": [
        {
          "internalType": "bool",
          "name": "",
          "type": "bool"
        }
      ],
      "stateMutability": "nonpayable",
      "type": "function"
    },
    {
      "inputs": [
        {
          "internalType": "address",
          "name": "spender",
          "type": "address"
        },
        {
          "internalType": "uint256",
          "name": "addedValue",
          "type": "uint256"
        }
      ],
      "name": "increaseAllowance",
      "outputs": [
        {
          "internalType": "bool",
          "name": "",
          "type": "bool"
        }
      ],
      "stateMutability": "nonpayable",
      "type": "function"
    },
    {
      "inputs": [
        {
          "internalType": "address",
          "name": "",
          "type": "address"
        }
      ],
      "name": "multiverseData",
      "outputs": [
        {
          "internalType": "string",
          "name": "login",
          "type": "string"
        },
        {
          "internalType": "uint256",
          "name": "lastLevelErc20Reward",
          "type": "uint256"
        },
        {
          "internalType": "uint256",
          "name": "XP",
          "type": "uint256"
        },
        {
          "internalType": "bool",
          "name": "isRegistered",
          "type": "bool"
        }
      ],
      "stateMutability": "view",
      "type": "function",
      "constant": true
    },
    {
      "inputs": [
        {
          "internalType": "string",
          "name": "",
          "type": "string"
        }
      ],
      "name": "multiverseIds",
      "outputs": [
        {
          "internalType": "address",
          "name": "",
          "type": "address"
        }
      ],
      "stateMutability": "view",
      "type": "function",
      "constant": true
    },
    {
      "inputs": [],
      "name": "name",
      "outputs": [
        {
          "internalType": "string",
          "name": "",
          "type": "string"
        }
      ],
      "stateMutability": "view",
      "type": "function",
      "constant": true
    },
    {
      "inputs": [],
      "name": "owner",
      "outputs": [
        {
          "internalType": "address",
          "name": "",
          "type": "address"
        }
      ],
      "stateMutability": "view",
      "type": "function",
      "constant": true
    },
    {
      "inputs": [],
      "name": "renounceOwnership",
      "outputs": [],
      "stateMutability": "nonpayable",
      "type": "function"
    },
    {
      "inputs": [
        {
          "internalType": "address",
          "name": "_addressPlayer",
          "type": "address"
        },
        {
          "internalType": "string",
          "name": "_login",
          "type": "string"
        }
      ],
      "name": "setMultiversePlayer",
      "outputs": [],
      "stateMutability": "nonpayable",
      "type": "function"
    },
    {
      "inputs": [],
      "name": "symbol",
      "outputs": [
        {
          "internalType": "string",
          "name": "",
          "type": "string"
        }
      ],
      "stateMutability": "view",
      "type": "function",
      "constant": true
    },
    {
      "inputs": [],
      "name": "totalSupply",
      "outputs": [
        {
          "internalType": "uint256",
          "name": "",
          "type": "uint256"
        }
      ],
      "stateMutability": "view",
      "type": "function",
      "constant": true
    },
    {
      "inputs": [
        {
          "internalType": "address",
          "name": "recipient",
          "type": "address"
        },
        {
          "internalType": "uint256",
          "name": "amount",
          "type": "uint256"
        }
      ],
      "name": "transfer",
      "outputs": [
        {
          "internalType": "bool",
          "name": "",
          "type": "bool"
        }
      ],
      "stateMutability": "nonpayable",
      "type": "function"
    },
    {
      "inputs": [
        {
          "internalType": "address",
          "name": "sender",
          "type": "address"
        },
        {
          "internalType": "address",
          "name": "recipient",
          "type": "address"
        },
        {
          "internalType": "uint256",
          "name": "amount",
          "type": "uint256"
        }
      ],
      "name": "transferFrom",
      "outputs": [
        {
          "internalType": "bool",
          "name": "",
          "type": "bool"
        }
      ],
      "stateMutability": "nonpayable",
      "type": "function"
    },
    {
      "inputs": [
        {
          "internalType": "address",
          "name": "newOwner",
          "type": "address"
        }
      ],
      "name": "transferOwnership",
      "outputs": [],
      "stateMutability": "nonpayable",
      "type": "function"
    },
    {
      "inputs": [
        {
          "internalType": "string",
          "name": "_login",
          "type": "string"
        },
        {
          "internalType": "uint256",
          "name": "_XP",
          "type": "uint256"
        }
      ],
      "name": "updateMultiversePlayer",
      "outputs": [],
      "stateMutability": "nonpayable",
      "type": "function"
    },
    {
      "inputs": [
        {
          "internalType": "address",
          "name": "target",
          "type": "address"
        },
        {
          "internalType": "uint256",
          "name": "amount",
          "type": "uint256"
        }
      ],
      "name": "myMint",
      "outputs": [],
      "stateMutability": "nonpayable",
      "type": "function"
    },
    {
      "inputs": [
        {
          "internalType": "address",
          "name": "_account",
          "type": "address"
        },
        {
          "internalType": "uint256",
          "name": "_amount",
          "type": "uint256"
        }
      ],
      "name": "burnPow",
      "outputs": [],
      "stateMutability": "nonpayable",
      "type": "function"
    },
    {
      "inputs": [
        {
          "internalType": "uint256",
          "name": "_rewardOfEachLevel",
          "type": "uint256"
        }
      ],
      "name": "setReward",
      "outputs": [],
      "stateMutability": "nonpayable",
      "type": "function"
    },
    {
      "inputs": [],
      "name": "getReward",
      "outputs": [],
      "stateMutability": "nonpayable",
      "type": "function"
    }
  ],
  "bytecode": "0x60806040523480156200001157600080fd5b5060405162001e2738038062001e278339810160408190526200003491620002e5565b604051806040016040528060088152602001672837bbaa37b5b2b760c11b81525060405180604001604052806003815260200162504f5760e81b8152508160039080519060200190620000899291906200023f565b5080516200009f9060049060208401906200023f565b505050620000bc620000b66200010260201b60201c565b62000106565b60068054336001600160a01b031991821681179092556009805490911690911790819055600a839055620000fa906001600160a01b03168262000158565b5050620003ab565b3390565b600580546001600160a01b038381166001600160a01b0319831681179093556040519116919082907f8be0079c531659141344cd1fd0a4f28419497f9722a3daafe3b4186f6b6457e090600090a35050565b6001600160a01b0382166200018a5760405162461bcd60e51b8152600401620001819062000309565b60405180910390fd5b62000198600083836200023a565b8060026000828254620001ac919062000349565b90915550506001600160a01b03821660009081526020819052604081208054839290620001db90849062000349565b90915550506040516001600160a01b038316906000907fddf252ad1be2c89b69c2b068fc378daa952ba7f163c4a11628f55a4df523b3ef906200022090859062000340565b60405180910390a362000236600083836200023a565b5050565b505050565b8280546200024d906200036e565b90600052602060002090601f016020900481019282620002715760008555620002bc565b82601f106200028c57805160ff1916838001178555620002bc565b82800160010185558215620002bc579182015b82811115620002bc5782518255916020019190600101906200029f565b50620002ca929150620002ce565b5090565b5b80821115620002ca5760008155600101620002cf565b60008060408385031215620002f8578182fd5b505080516020909101519092909150565b6020808252601f908201527f45524332303a206d696e7420746f20746865207a65726f206164647265737300604082015260600190565b90815260200190565b600082198211156200036957634e487b7160e01b81526011600452602481fd5b500190565b6002810460018216806200038357607f821691505b60208210811415620003a557634e487b7160e01b600052602260045260246000fd5b50919050565b611a6c80620003bb6000396000f3fe608060405234801561001057600080fd5b50600436106101585760003560e01c8063715018a6116100c3578063a9059cbb1161007c578063a9059cbb146102c2578063b2bdfa7b146102d5578063dd62ed3e146102dd578063e9dbd45a146102f0578063f2fde38b14610303578063f3bee1021461031657610158565b8063715018a61461025457806375adb7fd1461025c5780638da5cb5b1461027f57806395d89b41146102945780639b008e471461029c578063a457c2d7146102af57610158565b8063313ce56711610115578063313ce567146101eb57806339509351146102005780633d18b912146102135780634cb3d4331461021b5780636ebcf6071461022e57806370a082311461024157610158565b80630334a4e41461015d57806306fdde0314610172578063095ea7b31461019057806318160ddd146101b057806323b872dd146101c5578063293be456146101d8575b600080fd5b61017061016b366004611258565b610329565b005b61017a61037f565b60405161018791906113a2565b60405180910390f35b6101a361019e366004611258565b610411565b6040516101879190611397565b6101b861042e565b60405161018791906118fe565b6101a36101d33660046111d1565b610434565b6101706101e63660046112ff565b6104c4565b6101f3610534565b6040516101879190611907565b6101a361020e366004611258565b610539565b61017061058d565b6101706102293660046112bc565b6106c6565b6101b861023c36600461117e565b610874565b6101b861024f36600461117e565b610886565b6101706108a5565b61026f61026a36600461117e565b6108f0565b60405161018794939291906113b5565b6102876109a5565b604051610187919061135f565b61017a6109b4565b6101706102aa36600461120c565b6109c3565b6101a36102bd366004611258565b610ae8565b6101a36102d0366004611258565b610b61565b610287610b75565b6101b86102eb36600461119f565b610b84565b6102876102fe366004611281565b610baf565b61017061031136600461117e565b610bd5565b610170610324366004611258565b610c46565b610331610c8f565b6001600160a01b03166103426109a5565b6001600160a01b0316146103715760405162461bcd60e51b81526004016103689061172f565b60405180910390fd5b61037b8282610c93565b5050565b60606003805461038e906119af565b80601f01602080910402602001604051908101604052809291908181526020018280546103ba906119af565b80156104075780601f106103dc57610100808354040283529160200191610407565b820191906000526020600020905b8154815290600101906020018083116103ea57829003601f168201915b5050505050905090565b600061042561041e610c8f565b8484610d49565b50600192915050565b60025490565b6000610441848484610dfd565b6001600160a01b038416600090815260016020526040812081610462610c8f565b6001600160a01b03166001600160a01b03168152602001908152602001600020549050828110156104a55760405162461bcd60e51b8152600401610368906116e7565b6104b9856104b1610c8f565b858403610d49565b506001949350505050565b6104cc610c8f565b6001600160a01b03166104dd6109a5565b6001600160a01b0316146105035760405162461bcd60e51b81526004016103689061172f565b600b8190556040517f905ba88c728c23467d10cea61f7a517e2d71fa47d3481be50e86457071d84fd890600090a150565b601290565b6000610425610546610c8f565b848460016000610554610c8f565b6001600160a01b03908116825260208083019390935260409182016000908120918b16815292529020546105889190611915565b610d49565b3360009081526008602052604090206003015460ff166105bf5760405162461bcd60e51b8152600401610368906114f3565b600b546105de5760405162461bcd60e51b81526004016103689061160f565b600a54336000908152600860205260408120600201549091829182916106039161192d565b915081158061062c57503360009081526008602052604090206001015461062a908361196c565b155b156106495760405162461bcd60e51b8152600401610368906116b0565b33600090815260086020526040902060010154610666908361196c565b9250600b5483610676919061194d565b3360008181526008602052604090206001018490559091506106989082610c93565b6040517fd3f9ddfe1db89b547b02b16d65f9f96eef894e9d4b83c52a2732b741112a990a90600090a1505050565b6006546001600160a01b031633146106f05760405162461bcd60e51b815260040161036890611667565b600860006007846040516107049190611343565b90815260408051918290036020908101909220546001600160a01b0316835290820192909252016000206003015460ff1615156001146107565760405162461bcd60e51b81526004016103689061182e565b60405180608001604052808381526020016008600060078660405161077b9190611343565b9081526040805160209281900383019020546001600160a01b0316835282820193909352908201600090812060019081015485529184018690529282015251600891906007906107cc908790611343565b9081526040805160209281900383019020546001600160a01b0316835282820193909352910160002082518051919261080a92849290910190611047565b506020820151600182015560408083015160028301556060909201516003909101805460ff1916911515919091179055517faa6183438646fc8bb56f82868ce90c0a5bd1301970b115e976c90c1d696a1550906108689084906113a2565b60405180910390a15050565b600c6020526000908152604090205481565b6001600160a01b0381166000908152602081905260409020545b919050565b6108ad610c8f565b6001600160a01b03166108be6109a5565b6001600160a01b0316146108e45760405162461bcd60e51b81526004016103689061172f565b6108ee6000610f15565b565b60086020526000908152604090208054819061090b906119af565b80601f0160208091040260200160405190810160405280929190818152602001828054610937906119af565b80156109845780601f1061095957610100808354040283529160200191610984565b820191906000526020600020905b81548152906001019060200180831161096757829003601f168201915b50505050600183015460028401546003909401549293909290915060ff1684565b6005546001600160a01b031690565b60606004805461038e906119af565b6006546001600160a01b03163314806109e45750336001600160a01b038316145b610a005760405162461bcd60e51b815260040161036890611584565b60086000600783604051610a149190611343565b9081526040805160209281900383019020546001600160a01b0316835290820192909252016000206003015460ff1615610a605760405162461bcd60e51b8152600401610368906115ce565b81600782604051610a719190611343565b908152604080516020928190038301812080546001600160a01b0319166001600160a01b03958616179055928516600090815260089092529020600301805460ff191660011790557fd1271c0a878b06e77c2b145e81fda258074d1d9f72d29461da6de567fe185db3906108689084908490611373565b60008060016000610af7610c8f565b6001600160a01b0390811682526020808301939093526040918201600090812091881681529252902054905082811015610b435760405162461bcd60e51b815260040161036890611882565b610b57610b4e610c8f565b85858403610d49565b5060019392505050565b6000610425610b6e610c8f565b8484610dfd565b6009546001600160a01b031681565b6001600160a01b03918216600090815260016020908152604080832093909416825291909152205490565b80516020818301810180516007825292820191909301209152546001600160a01b031681565b610bdd610c8f565b6001600160a01b0316610bee6109a5565b6001600160a01b031614610c145760405162461bcd60e51b81526004016103689061172f565b6001600160a01b038116610c3a5760405162461bcd60e51b81526004016103689061146b565b610c4381610f15565b50565b610c4e610c8f565b6001600160a01b0316610c5f6109a5565b6001600160a01b031614610c855760405162461bcd60e51b81526004016103689061172f565b61037b8282610f67565b3390565b6001600160a01b038216610cb95760405162461bcd60e51b8152600401610368906118c7565b610cc560008383611042565b8060026000828254610cd79190611915565b90915550506001600160a01b03821660009081526020819052604081208054839290610d04908490611915565b90915550506040516001600160a01b03831690600090600080516020611a1783398151915290610d359085906118fe565b60405180910390a361037b60008383611042565b6001600160a01b038316610d6f5760405162461bcd60e51b8152600401610368906117ea565b6001600160a01b038216610d955760405162461bcd60e51b8152600401610368906114b1565b6001600160a01b0380841660008181526001602090815260408083209487168084529490915290819020849055517f8c5be1e5ebec7d5bd14f71427d1e84f3dd0314c0f7b2291e5b200ac8c7c3b92590610df09085906118fe565b60405180910390a3505050565b6001600160a01b038316610e235760405162461bcd60e51b8152600401610368906117a5565b6001600160a01b038216610e495760405162461bcd60e51b8152600401610368906113e6565b610e54838383611042565b6001600160a01b03831660009081526020819052604090205481811015610e8d5760405162461bcd60e51b81526004016103689061153e565b6001600160a01b03808516600090815260208190526040808220858503905591851681529081208054849290610ec4908490611915565b92505081905550826001600160a01b0316846001600160a01b0316600080516020611a1783398151915284604051610efc91906118fe565b60405180910390a3610f0f848484611042565b50505050565b600580546001600160a01b038381166001600160a01b0319831681179093556040519116919082907f8be0079c531659141344cd1fd0a4f28419497f9722a3daafe3b4186f6b6457e090600090a35050565b6001600160a01b038216610f8d5760405162461bcd60e51b815260040161036890611764565b610f9982600083611042565b6001600160a01b03821660009081526020819052604090205481811015610fd25760405162461bcd60e51b815260040161036890611429565b6001600160a01b038316600090815260208190526040812083830390556002805484929061100190849061196c565b90915550506040516000906001600160a01b03851690600080516020611a17833981519152906110329086906118fe565b60405180910390a3611042836000845b505050565b828054611053906119af565b90600052602060002090601f01602090048101928261107557600085556110bb565b82601f1061108e57805160ff19168380011785556110bb565b828001600101855582156110bb579182015b828111156110bb5782518255916020019190600101906110a0565b506110c79291506110cb565b5090565b5b808211156110c757600081556001016110cc565b80356001600160a01b03811681146108a057600080fd5b600082601f830112611107578081fd5b813567ffffffffffffffff8082111561112257611122611a00565b604051601f8301601f19908116603f0116810190828211818310171561114a5761114a611a00565b81604052838152866020858801011115611162578485fd5b8360208701602083013792830160200193909352509392505050565b60006020828403121561118f578081fd5b611198826110e0565b9392505050565b600080604083850312156111b1578081fd5b6111ba836110e0565b91506111c8602084016110e0565b90509250929050565b6000806000606084860312156111e5578081fd5b6111ee846110e0565b92506111fc602085016110e0565b9150604084013590509250925092565b6000806040838503121561121e578182fd5b611227836110e0565b9150602083013567ffffffffffffffff811115611242578182fd5b61124e858286016110f7565b9150509250929050565b6000806040838503121561126a578182fd5b611273836110e0565b946020939093013593505050565b600060208284031215611292578081fd5b813567ffffffffffffffff8111156112a8578182fd5b6112b4848285016110f7565b949350505050565b600080604083850312156112ce578182fd5b823567ffffffffffffffff8111156112e4578283fd5b6112f0858286016110f7565b95602094909401359450505050565b600060208284031215611310578081fd5b5035919050565b6000815180845261132f816020860160208601611983565b601f01601f19169290920160200192915050565b60008251611355818460208701611983565b9190910192915050565b6001600160a01b0391909116815260200190565b6001600160a01b03831681526040602082018190526000906112b490830184611317565b901515815260200190565b6000602082526111986020830184611317565b6000608082526113c86080830187611317565b60208301959095525060408101929092521515606090910152919050565b60208082526023908201527f45524332303a207472616e7366657220746f20746865207a65726f206164647260408201526265737360e81b606082015260800190565b60208082526022908201527f45524332303a206275726e20616d6f756e7420657863656564732062616c616e604082015261636560f01b606082015260800190565b60208082526026908201527f4f776e61626c653a206e6577206f776e657220697320746865207a65726f206160408201526564647265737360d01b606082015260800190565b60208082526022908201527f45524332303a20617070726f766520746f20746865207a65726f206164647265604082015261737360f01b606082015260800190565b6020808252602b908201527f596f7520617265206e6f7420656c696769626c652c20706c656173652072656760408201526a1a5cdd195c88199a5c9cdd60aa1b606082015260800190565b60208082526026908201527f45524332303a207472616e7366657220616d6f756e7420657863656564732062604082015265616c616e636560d01b606082015260800190565b6020808252602a908201527f796f7520617265206e6f7420617574686f72697a656420746f207365742074686040820152691a5cc81858d8dbdd5b9d60b21b606082015260800190565b60208082526021908201527f7468697320706c6179657220697320616c7265616479207265676973746572656040820152601960fa1b606082015260800190565b60208082526038908201527f506f772069732063757272656e746c792073657474696e6720726577617264736040820152771610383632b0b9b29031b7b6b2903130b1b5903630ba32b960411b606082015260800190565b60208082526029908201527f796f7520617265206e6f7420617574686f72697a656420746f20757064617465604082015268103090383630bcb2b960b91b606082015260800190565b6020808252601b908201527f6e6f7468696e6720746f20776974686472617720666f72206e6f770000000000604082015260600190565b60208082526028908201527f45524332303a207472616e7366657220616d6f756e74206578636565647320616040820152676c6c6f77616e636560c01b606082015260800190565b6020808252818101527f4f776e61626c653a2063616c6c6572206973206e6f7420746865206f776e6572604082015260600190565b60208082526021908201527f45524332303a206275726e2066726f6d20746865207a65726f206164647265736040820152607360f81b606082015260800190565b60208082526025908201527f45524332303a207472616e736665722066726f6d20746865207a65726f206164604082015264647265737360d81b606082015260800190565b60208082526024908201527f45524332303a20617070726f76652066726f6d20746865207a65726f206164646040820152637265737360e01b606082015260800190565b60208082526034908201527f706c656173652073657420666972737420616e20457468657265756d206164646040820152733932b9b9903337b9103a3434b990383630bcb2b960611b606082015260800190565b60208082526025908201527f45524332303a2064656372656173656420616c6c6f77616e63652062656c6f77604082015264207a65726f60d81b606082015260800190565b6020808252601f908201527f45524332303a206d696e7420746f20746865207a65726f206164647265737300604082015260600190565b90815260200190565b60ff91909116815260200190565b60008219821115611928576119286119ea565b500190565b60008261194857634e487b7160e01b81526012600452602481fd5b500490565b6000816000190483118215151615611967576119676119ea565b500290565b60008282101561197e5761197e6119ea565b500390565b60005b8381101561199e578181015183820152602001611986565b83811115610f0f5750506000910152565b6002810460018216806119c357607f821691505b602082108114156119e457634e487b7160e01b600052602260045260246000fd5b50919050565b634e487b7160e01b600052601160045260246000fd5b634e487b7160e01b600052604160045260246000fdfeddf252ad1be2c89b69c2b068fc378daa952ba7f163c4a11628f55a4df523b3efa26469706673582212201dddf778d51e072bfe3bca1ec4c8513bf792b233440d363439c39bb5955020ba64736f6c63430008010033",
  "immutableReferences": {},
  "source": "// SPDX-License-Identifier: MIT\r\n\r\npragma solidity 0.8.1;\r\nimport \"./interfaceMultiverseERC20.sol\";\r\nimport \"@openzeppelin/openzeppelin-contracts-master/contracts/token/ERC20/ERC20.sol\";\r\nimport \"@openzeppelin/openzeppelin-contracts-master/contracts/access/Ownable.sol\";\r\n\r\n/** \r\n * @title POWToken\r\n * @dev Implements a ERC-20 token with owner mint process\r\n */\r\ncontract POWToken is ERC20, Ownable, interfaceMultiverseERC20 {\r\n\r\n    address public _owner;\r\n    uint levelOfXPReward;\r\n    uint amountRewarded;\r\n\r\n    \r\n    /** \r\n     * @dev Create a ERC-20 token with ERC20 OpenZeppelin setup\r\n     * @param _levelOfXpToReward is the threshold to get a reward\r\n     * @param _initialSupply is the amount of token created and attributate to the owner \r\n     */\r\n    constructor(uint _levelOfXpToReward, uint _initialSupply) ERC20(\"PowToken\", \"POW\") {\r\n        _owner = msg.sender;\r\n        levelOfXPReward = _levelOfXpToReward;\r\n        _mint(_owner, _initialSupply);\r\n    }\r\n    \r\n    event rewardWithdrawn();\r\n    event newAmountReward();\r\n\r\n    mapping (address => uint ) public _balances; \r\n\r\n    /**\r\n     * @dev define the mint function\r\n     * @param target address of target\r\n     * @param amount amount POWToken to mint\r\n     */    \r\n    function myMint (address target, uint amount) public onlyOwner  {\r\n\r\n        _mint(target, amount);\r\n    }\r\n    ///@dev Administrator can burn token\r\n    function burnPow(address _account, uint _amount)  public onlyOwner {\r\n        _burn(_account,_amount);\r\n    }\r\n    \r\n    ///@dev Administrator, set the amount rewarded for each step\r\n    function setReward (uint _rewardOfEachLevel) public onlyOwner {\r\n        amountRewarded = _rewardOfEachLevel;\r\n        emit newAmountReward();\r\n    }\r\n    \r\n    /**\r\n     * @dev Players can get there reward function of there XP. If the threshold to get the next\r\n     * reward is not achieve player will be reverted\r\n     */\r\n     \r\n    function getReward() public {\r\n        require(multiverseData[msg.sender].isRegistered, \"You are not eligible, please register first\");\r\n        require(amountRewarded != 0, \"Pow is currently setting rewards, please come back later\");\r\n\r\n        uint rewardMultiplier;\r\n        uint rewardLevelRequested;\r\n        uint reward;\r\n        \r\n        rewardLevelRequested = multiverseData[msg.sender].XP / levelOfXPReward;\r\n\r\n        if(rewardLevelRequested == 0 || (rewardLevelRequested - multiverseData[msg.sender].lastLevelErc20Reward == 0)){\r\n            revert(\"nothing to withdraw for now\");\r\n        }else{\r\n            rewardMultiplier = rewardLevelRequested - multiverseData[msg.sender].lastLevelErc20Reward;  \r\n            reward = rewardMultiplier * amountRewarded;\r\n             multiverseData[msg.sender].lastLevelErc20Reward = rewardLevelRequested;\r\n            _mint(msg.sender, reward);\r\n        }\r\n        \r\n        emit rewardWithdrawn();\r\n    }\r\n}",
  "sourcePath": "C:/Users/fboud/OneDrive/Documents/Alyra/projetFinal/contracts/POWToken.sol",
  "compiler": {
    "name": "solc",
    "version": "0.8.1+commit.df193b15.Emscripten.clang"
  },
  "schemaVersion": "3.4.1",
  "updatedAt": "2021-07-29T16:03:00.546Z",
  "networkType": "ethereum",
  "devdoc": {
    "details": "Implements a ERC-20 token with owner mint process",
    "kind": "dev",
    "methods": {
      "allowance(address,address)": {
        "details": "See {IERC20-allowance}."
      },
      "approve(address,uint256)": {
        "details": "See {IERC20-approve}. Requirements: - `spender` cannot be the zero address."
      },
      "balanceOf(address)": {
        "details": "See {IERC20-balanceOf}."
      },
      "burnPow(address,uint256)": {
        "details": "Administrator can burn token"
      },
      "constructor": {
        "details": "Create a ERC-20 token with ERC20 OpenZeppelin setup",
        "params": {
          "_initialSupply": "is the amount of token created and attributate to the owner ",
          "_levelOfXpToReward": "is the threshold to get a reward"
        }
      },
      "decimals()": {
        "details": "Returns the number of decimals used to get its user representation. For example, if `decimals` equals `2`, a balance of `505` tokens should be displayed to a user as `5.05` (`505 / 10 ** 2`). Tokens usually opt for a value of 18, imitating the relationship between Ether and Wei. This is the value {ERC20} uses, unless this function is overridden; NOTE: This information is only used for _display_ purposes: it in no way affects any of the arithmetic of the contract, including {IERC20-balanceOf} and {IERC20-transfer}."
      },
      "decreaseAllowance(address,uint256)": {
        "details": "Atomically decreases the allowance granted to `spender` by the caller. This is an alternative to {approve} that can be used as a mitigation for problems described in {IERC20-approve}. Emits an {Approval} event indicating the updated allowance. Requirements: - `spender` cannot be the zero address. - `spender` must have allowance for the caller of at least `subtractedValue`."
      },
      "getReward()": {
        "details": "Players can get there reward function of there XP. If the threshold to get the next reward is not achieve player will be reverted"
      },
      "increaseAllowance(address,uint256)": {
        "details": "Atomically increases the allowance granted to `spender` by the caller. This is an alternative to {approve} that can be used as a mitigation for problems described in {IERC20-approve}. Emits an {Approval} event indicating the updated allowance. Requirements: - `spender` cannot be the zero address."
      },
      "myMint(address,uint256)": {
        "details": "define the mint function",
        "params": {
          "amount": "amount POWToken to mint",
          "target": "address of target"
        }
      },
      "name()": {
        "details": "Returns the name of the token."
      },
      "owner()": {
        "details": "Returns the address of the current owner."
      },
      "renounceOwnership()": {
        "details": "Leaves the contract without owner. It will not be possible to call `onlyOwner` functions anymore. Can only be called by the current owner. NOTE: Renouncing ownership will leave the contract without an owner, thereby removing any functionality that is only available to the owner."
      },
      "setMultiversePlayer(address,string)": {
        "details": "link a login with a player. The login must be the exact same one than the one used in POW"
      },
      "setReward(uint256)": {
        "details": "Administrator, set the amount rewarded for each step"
      },
      "symbol()": {
        "details": "Returns the symbol of the token, usually a shorter version of the name."
      },
      "totalSupply()": {
        "details": "See {IERC20-totalSupply}."
      },
      "transfer(address,uint256)": {
        "details": "See {IERC20-transfer}. Requirements: - `recipient` cannot be the zero address. - the caller must have a balance of at least `amount`."
      },
      "transferFrom(address,address,uint256)": {
        "details": "See {IERC20-transferFrom}. Emits an {Approval} event indicating the updated allowance. This is not required by the EIP. See the note at the beginning of {ERC20}. Requirements: - `sender` and `recipient` cannot be the zero address. - `sender` must have a balance of at least `amount`. - the caller must have allowance for ``sender``'s tokens of at least `amount`."
      },
      "transferOwnership(address)": {
        "details": "Transfers ownership of the contract to a new account (`newOwner`). Can only be called by the current owner."
      },
      "updateMultiversePlayer(string,uint256)": {
        "details": "Update the data of a registered player. The adnministrator Only can set this. In the future, the oracle will do that"
      }
    },
    "title": "POWToken",
    "version": 1
  },
  "userdoc": {
    "kind": "user",
    "methods": {},
    "version": 1
  }
}