{
  "contractName": "POWTournament",
  "abi": [
    {
      "inputs": [],
      "stateMutability": "nonpayable",
      "type": "constructor"
    },
    {
      "anonymous": false,
      "inputs": [
        {
          "indexed": false,
          "internalType": "address",
          "name": "addressSender",
          "type": "address"
        },
        {
          "indexed": false,
          "internalType": "address",
          "name": "origin",
          "type": "address"
        },
        {
          "indexed": false,
          "internalType": "uint256",
          "name": "amountEvent",
          "type": "uint256"
        }
      ],
      "name": "Transfer",
      "type": "event"
    },
    {
      "inputs": [],
      "name": "_duration",
      "outputs": [
        {
          "internalType": "uint256",
          "name": "",
          "type": "uint256"
        }
      ],
      "stateMutability": "view",
      "type": "function"
    },
    {
      "inputs": [],
      "name": "_quizType",
      "outputs": [
        {
          "internalType": "string",
          "name": "",
          "type": "string"
        }
      ],
      "stateMutability": "view",
      "type": "function"
    },
    {
      "inputs": [
        {
          "internalType": "address",
          "name": "",
          "type": "address"
        }
      ],
      "name": "_userStaking",
      "outputs": [
        {
          "internalType": "bool",
          "name": "isStaked",
          "type": "bool"
        },
        {
          "internalType": "uint256",
          "name": "timestamp",
          "type": "uint256"
        },
        {
          "internalType": "uint256",
          "name": "amount",
          "type": "uint256"
        },
        {
          "internalType": "uint256",
          "name": "reward",
          "type": "uint256"
        },
        {
          "internalType": "uint256",
          "name": "stakingPackID",
          "type": "uint256"
        }
      ],
      "stateMutability": "view",
      "type": "function"
    },
    {
      "inputs": [],
      "name": "penalty",
      "outputs": [
        {
          "internalType": "uint8",
          "name": "",
          "type": "uint8"
        }
      ],
      "stateMutability": "view",
      "type": "function"
    },
    {
      "inputs": [
        {
          "internalType": "uint256",
          "name": "",
          "type": "uint256"
        }
      ],
      "name": "tabStakingPack",
      "outputs": [
        {
          "internalType": "uint256",
          "name": "rate",
          "type": "uint256"
        },
        {
          "internalType": "uint256",
          "name": "period",
          "type": "uint256"
        }
      ],
      "stateMutability": "view",
      "type": "function"
    },
    {
      "inputs": [
        {
          "internalType": "uint8",
          "name": "penaltyRate",
          "type": "uint8"
        }
      ],
      "name": "setPenalty",
      "outputs": [
        {
          "internalType": "bool",
          "name": "",
          "type": "bool"
        }
      ],
      "stateMutability": "nonpayable",
      "type": "function"
    },
    {
      "inputs": [
        {
          "internalType": "uint256",
          "name": "packRate",
          "type": "uint256"
        },
        {
          "internalType": "uint256",
          "name": "packPeriod",
          "type": "uint256"
        }
      ],
      "name": "addStakingPack",
      "outputs": [
        {
          "internalType": "bool",
          "name": "",
          "type": "bool"
        }
      ],
      "stateMutability": "nonpayable",
      "type": "function"
    },
    {
      "inputs": [],
      "name": "totalSupply",
      "outputs": [
        {
          "internalType": "uint256",
          "name": "",
          "type": "uint256"
        }
      ],
      "stateMutability": "view",
      "type": "function"
    },
    {
      "inputs": [],
      "name": "decimals",
      "outputs": [
        {
          "internalType": "uint8",
          "name": "",
          "type": "uint8"
        }
      ],
      "stateMutability": "view",
      "type": "function"
    },
    {
      "inputs": [],
      "name": "symbol",
      "outputs": [
        {
          "internalType": "string",
          "name": "",
          "type": "string"
        }
      ],
      "stateMutability": "view",
      "type": "function"
    },
    {
      "inputs": [],
      "name": "name",
      "outputs": [
        {
          "internalType": "string",
          "name": "",
          "type": "string"
        }
      ],
      "stateMutability": "view",
      "type": "function"
    },
    {
      "inputs": [],
      "name": "getOwner",
      "outputs": [
        {
          "internalType": "address",
          "name": "",
          "type": "address"
        }
      ],
      "stateMutability": "view",
      "type": "function"
    },
    {
      "inputs": [
        {
          "internalType": "address",
          "name": "account",
          "type": "address"
        }
      ],
      "name": "balanceOf",
      "outputs": [
        {
          "internalType": "uint256",
          "name": "",
          "type": "uint256"
        }
      ],
      "stateMutability": "view",
      "type": "function"
    },
    {
      "inputs": [
        {
          "internalType": "uint256",
          "name": "duration",
          "type": "uint256"
        }
      ],
      "name": "setDuration",
      "outputs": [],
      "stateMutability": "nonpayable",
      "type": "function"
    },
    {
      "inputs": [],
      "name": "getDuration",
      "outputs": [
        {
          "internalType": "uint256",
          "name": "",
          "type": "uint256"
        }
      ],
      "stateMutability": "view",
      "type": "function"
    },
    {
      "inputs": [
        {
          "internalType": "string",
          "name": "quizType",
          "type": "string"
        }
      ],
      "name": "setQuizType",
      "outputs": [],
      "stateMutability": "nonpayable",
      "type": "function"
    },
    {
      "inputs": [
        {
          "internalType": "uint256",
          "name": "amount",
          "type": "uint256"
        },
        {
          "internalType": "uint256",
          "name": "stakingPackID",
          "type": "uint256"
        }
      ],
      "name": "getRewards",
      "outputs": [
        {
          "internalType": "uint256",
          "name": "",
          "type": "uint256"
        }
      ],
      "stateMutability": "view",
      "type": "function"
    }
  ],
  "bytecode": "0x608060405234801561001057600080fd5b5060408051808201909152600d8082526c1413d5d51bdd5c9b985b595b9d609a1b6020909201918252610045916007916100b6565b5060408051808201909152600380825262504f5760e81b6020909201918252610070916008916100b6565b506005805460ff19166004179055662386f26fc10000600681905533600081815260208190526040902091909155600980546001600160a01b031916909117905561018a565b8280546100c29061014f565b90600052602060002090601f0160209004810192826100e4576000855561012a565b82601f106100fd57805160ff191683800117855561012a565b8280016001018555821561012a579182015b8281111561012a57825182559160200191906001019061010f565b5061013692915061013a565b5090565b5b80821115610136576000815560010161013b565b60028104600182168061016357607f821691505b6020821081141561018457634e487b7160e01b600052602260045260246000fd5b50919050565b6109ee806101996000396000f3fe608060405234801561001057600080fd5b50600436106100eb5760003560e01c8063607911a011610092578063607911a014610190578063608b90fc146101b157806370a08231146101d5578063893d20e8146101e857806395d89b41146101fd578063ad2e8c9b14610205578063cc11298e1461020d578063f3fe889514610220578063f6be71d114610228576100eb565b80630128bf54146100f057806306fdde03146101055780630edd2ffc1461012357806318160ddd1461013857806319bd27841461014d578063245c7c601461016d578063260864c514610175578063313ce56714610188575b600080fd5b6101036100fe36600461071a565b61023b565b005b61010d610285565b60405161011a9190610862565b60405180910390f35b61012b610317565b60405161011a919061090e565b610140610327565b60405161011a91906108f7565b61016061015b3660046107dc565b61032d565b60405161011a9190610832565b6101406103d9565b6101606101833660046107fd565b6103df565b61012b61042e565b6101a361019e3660046107c4565b610437565b60405161011a929190610900565b6101c46101bf3660046106ec565b610465565b60405161011a95949392919061083d565b6101406101e33660046106ec565b610498565b6101f06104b3565b60405161011a919061081e565b61010d6104c2565b6101406104d1565b61014061021b3660046107dc565b6104d7565b61010d610596565b6101036102363660046107c4565b610624565b6009546001600160a01b0316331461026e5760405162461bcd60e51b8152600401610265906108b5565b60405180910390fd5b8051610281906004906020840190610653565b5050565b60606007805461029490610967565b80601f01602080910402602001604051908101604052809291908181526020018280546102c090610967565b801561030d5780601f106102e25761010080835404028352916020019161030d565b820191906000526020600020905b8154815290600101906020018083116102f057829003601f168201915b5050505050905090565b600954600160a01b900460ff1681565b60065490565b6009546000906001600160a01b0316331461035a5760405162461bcd60e51b8152600401610265906108b5565b506040805180820190915291825260208201908152600a80546001808201835560009290925292517fc65a7bb8d6351c1cf70c95a316cc6a92839c986682d98bc35f958f4883f9d2a860029094029384015590517fc65a7bb8d6351c1cf70c95a316cc6a92839c986682d98bc35f958f4883f9d2a99092019190915590565b60035481565b6009546000906001600160a01b0316331461040c5760405162461bcd60e51b8152600401610265906108b5565b506009805460ff8316600160a01b0260ff60a01b199091161790556001919050565b60055460ff1690565b600a818154811061044757600080fd5b60009182526020909120600290910201805460019091015490915082565b60026020819052600091825260409091208054600182015492820154600383015460049093015460ff9092169392909185565b6001600160a01b031660009081526020819052604090205490565b6009546001600160a01b031690565b60606008805461029490610967565b60035490565b600080600a83815481106104fb57634e487b7160e01b600052603260045260246000fd5b90600052602060002090600202016000015490506000600a848154811061053257634e487b7160e01b600052603260045260246000fd5b6000918252602082206001600290920201015491506105538261271061093c565b9050600061056361016d8361091c565b90506000610571888661093c565b61057b908361093c565b905061058a620f42408261091c565b98975050505050505050565b600480546105a390610967565b80601f01602080910402602001604051908101604052809291908181526020018280546105cf90610967565b801561061c5780601f106105f15761010080835404028352916020019161061c565b820191906000526020600020905b8154815290600101906020018083116105ff57829003601f168201915b505050505081565b6009546001600160a01b0316331461064e5760405162461bcd60e51b8152600401610265906108b5565b600355565b82805461065f90610967565b90600052602060002090601f01602090048101928261068157600085556106c7565b82601f1061069a57805160ff19168380011785556106c7565b828001600101855582156106c7579182015b828111156106c75782518255916020019190600101906106ac565b506106d39291506106d7565b5090565b5b808211156106d357600081556001016106d8565b6000602082840312156106fd578081fd5b81356001600160a01b0381168114610713578182fd5b9392505050565b60006020828403121561072b578081fd5b813567ffffffffffffffff80821115610742578283fd5b818401915084601f830112610755578283fd5b813581811115610767576107676109a2565b604051601f8201601f19908116603f0116810190838211818310171561078f5761078f6109a2565b816040528281528760208487010111156107a7578586fd5b826020860160208301379182016020019490945295945050505050565b6000602082840312156107d5578081fd5b5035919050565b600080604083850312156107ee578081fd5b50508035926020909101359150565b60006020828403121561080e578081fd5b813560ff81168114610713578182fd5b6001600160a01b0391909116815260200190565b901515815260200190565b9415158552602085019390935260408401919091526060830152608082015260a00190565b6000602080835283518082850152825b8181101561088e57858101830151858201604001528201610872565b8181111561089f5783604083870101525b50601f01601f1916929092016040019392505050565b60208082526022908201527f596f7520617265206e6f742061646d696e206f662074686520636f6e74726163604082015261742160f01b606082015260800190565b90815260200190565b918252602082015260400190565b60ff91909116815260200190565b60008261093757634e487b7160e01b81526012600452602481fd5b500490565b600081600019048311821515161561096257634e487b7160e01b81526011600452602481fd5b500290565b60028104600182168061097b57607f821691505b6020821081141561099c57634e487b7160e01b600052602260045260246000fd5b50919050565b634e487b7160e01b600052604160045260246000fdfea2646970667358221220b3c6dc083ca18be156fab04e82f3fd551be8b8b9258daeb80cbec777e3590bb864736f6c63430008010033",
  "immutableReferences": {},
  "source": "// SPDX-License-Identifier: GPL-3.0\r\npragma solidity 0.8.1;\r\n\r\n//import \"@openzeppelin/contracts/utils/Context.sol\";\r\n//import \"@openzeppelin/contracts/token/ERC20/ERC20.sol\";\r\n\r\ncontract POWTournament /*is Context, ERC20 is Ecran1*/{\r\n\r\n    //mappings\r\n    mapping(address => uint256) private _balances;\r\n    mapping(address => bool) private _faucet;\r\n    mapping (address => staked) public _userStaking;\r\n\r\n    //variables\r\n    uint256 public _duration;\r\n    string public _quizType;\r\n\r\n    uint8 _decimals;\r\n    uint256 _totalSupply;\r\n    string _name;\r\n    string _symbol;\r\n    address _owner;\r\n    uint8 public penalty;\r\n\r\n    //array\r\n    stakingPack[] public tabStakingPack;\r\n\r\n    //structs\r\n    struct staked {\r\n        bool isStaked;\r\n        uint timestamp;\r\n        uint amount;\r\n        uint reward;\r\n        uint stakingPackID;\r\n    }\r\n\r\n    struct stakingPack {\r\n        uint rate;\r\n        uint period;\r\n    }\r\n\r\n    //events\r\n    event Transfer(address addressSender, address origin, uint amountEvent);\r\n\r\n    //constructor\r\n    constructor() {\r\n        _name = \"POWTournament\";\r\n        _symbol = \"POW\";\r\n        //_quizType = \"Geography\";\r\n        _decimals = 4;\r\n        _totalSupply = 10000000000000000;\r\n        _balances[msg.sender] = _totalSupply;\r\n        _owner = msg.sender;\r\n    }\r\n\r\n    //modifier\r\n    modifier onlyOwner() {\r\n        require(msg.sender == _owner, \"You are not admin of the contract!\");\r\n        _;\r\n    }\r\n\r\n    /**\r\n     * title: setPenalty\r\n     * @notice Set a penalty for a player\r\n     * @param penaltyRate : rate of the penalty\r\n     * @return boolean\r\n     */\r\n    function setPenalty(uint8 penaltyRate) external onlyOwner returns (bool) {\r\n        penalty = penaltyRate;\r\n        return true;\r\n    }\r\n\r\n    /**\r\n     * title: addStakingPack\r\n     * @notice add in the stackingPack a rate and a period\r\n     * @param packRate : rate of the rate\r\n     * @param packPeriod : the period of the pack\r\n     * @return boolean\r\n     */\r\n    function addStakingPack(uint packRate, uint packPeriod) external onlyOwner returns (bool) {\r\n        tabStakingPack.push(stakingPack(packRate, packPeriod));\r\n        return true;\r\n    }\r\n\r\n    /**\r\n    * title: totalSupply\r\n    * @notice Get the total supply\r\n    * @return uint256\r\n    */\r\n    function totalSupply() external view returns (uint256) {\r\n        return _totalSupply;\r\n    }\r\n\r\n    /**\r\n    * title: decimals\r\n    * @notice Get the decimals of an amount\r\n    * @return uint8\r\n    */\r\n    function decimals() external view returns (uint8) {\r\n        return _decimals;\r\n    }\r\n\r\n    /**\r\n    * title: symbol\r\n    * @notice Get the symbol of the money\r\n    * @return string\r\n    */\r\n    function symbol() external view returns (string memory) {\r\n        return _symbol;\r\n    }\r\n\r\n    /**\r\n    * title: name\r\n    * @notice Get the name\r\n    * @return string\r\n    */\r\n    function name() external view returns (string memory) {\r\n        return _name;\r\n    }\r\n\r\n    /**\r\n    * title: getOwner\r\n    * @notice Get the owner of the contract\r\n    * @return address\r\n    */\r\n    function getOwner() external view returns (address) {\r\n        return _owner;\r\n    }\r\n\r\n    /**\r\n    * title: balanceOf\r\n    * @notice Get the balance of the account\r\n    * @return uint256\r\n    */\r\n    function balanceOf(address account) external view returns (uint256) {\r\n        return _balances[account];\r\n    }\r\n\r\n    /**\r\n     * title: setDuration\r\n     * @notice Set the duration of a tournament\r\n     * @param duration : This is the duration of a tournament\r\n     */\r\n    function setDuration(uint256 duration) onlyOwner public{\r\n        _duration = duration;\r\n    }\r\n\r\n    /**\r\n     * title: getDuration\r\n     * @notice Get the duration of a tournament\r\n     * @return the duration of the tournament set by the POW system \r\n     */\r\n    function getDuration() public view returns(uint256){\r\n        return _duration;\r\n    }\r\n\r\n    /**\r\n     * title: setQuizType\r\n     * @notice Get the type of the quiz of the tournament\r\n     * @param quizType: the type of the quiz\r\n     */\r\n    function setQuizType(string memory quizType ) onlyOwner public{\r\n        _quizType = quizType;\r\n    }\r\n\r\n    /**\r\n     * title: getRewards TODO AGAIN\r\n     * @notice Get the type of the quiz of the tournament\r\n     * @param amount: the amount given in order to calculate a new reward\r\n     * @param stakingPackID: the ID of the stakingPack\r\n     */\r\n    function getRewards(uint amount, uint stakingPackID) public view returns (uint) {\r\n        uint rate = tabStakingPack[stakingPackID].rate;\r\n        uint period = tabStakingPack[stakingPackID].period;\r\n\r\n\r\n        uint newPeriod = period * 10000;\r\n\r\n        uint timeRatio = newPeriod / 365;\r\n\r\n        uint reward = timeRatio * (rate * (amount));\r\n\r\n        reward = reward / 1000000;\r\n        return reward;\r\n    }\r\n\r\n    /**\r\n     * title: stake TODO\r\n     * @notice\r\n     * @dev\r\n     * @param _amount : amount to be staked\r\n     * @param _stakingPackID : ID of the staking pack\r\n     * @return boolean\r\n     */\r\n    /*\r\n    function stake(uint _amount, uint _stakingPackID) external returns (bool) {\r\n        require(tabStakingPack.length > _stakingPackID, \"Invalid Pack Id\");\r\n        require(_userStaking[msg.sender].isStaked == false, \"address already staking\");\r\n        require(_balances[msg.sender] >= _amount, \"no sufficient funds\");\r\n        uint reward = getRewards(_amount, _stakingPackID);\r\n\r\n        // remove amount from totalsupply to cover the reward, if the totalSupply was locked\r\n        _userStaking[msg.sender] = staked(true, block.timestamp, _amount, reward, _stakingPackID);\r\n        _balances[msg.sender] = _balances[msg.sender].sub(_amount);\r\n        return true;\r\n    }\r\n    */\r\n\r\n    //TODO\r\n    /*\r\n    function withdraw() external returns (bool) {\r\n        require(_userStaking[msg.sender].isStaked, \"not yet staked\");\r\n\r\n        uint period = tabStakingPack[_userStaking[msg.sender].stakingPackID].period;\r\n        if (_userStaking[msg.sender].timestamp.add(period) >= block.timestamp) {\r\n            mint(msg.sender, _userStaking[msg.sender].reward);\r\n            _balances[msg.sender] = _balances[msg.sender].add(_userStaking[msg.sender].amount);\r\n            emit Transfer(address(this), msg.sender, _userStaking[msg.sender].amount);\r\n            delete _userStaking[msg.sender];\r\n        } else {\r\n          uint appliedPenalty = _userStaking[msg.sender].amount.mul(penalty).div(100);\r\n          _balances[msg.sender] = _balances[msg.sender].add(_userStaking[msg.sender].amount);\r\n          burn(appliedPenalty);\r\n        }\r\n        return true;\r\n    }\r\n    */\r\n\r\n    //TODO\r\n    /*\r\n    function sendFaucet() external {\r\n        require(_faucet[msg.sender] == false, \"already received faucet\");\r\n        mint(msg.sender, 100);\r\n        _faucet[msg.sender] = true;\r\n    }\r\n    */\r\n\r\n    //TODO\r\n    /*\r\n    function mint(address recipient, uint256 amount) internal {\r\n        require(recipient != address(0), \"mint to the zero address\");\r\n\r\n        _totalSupply = _totalSupply.add(amount);\r\n        _balances[recipient] = _balances[recipient].add(amount);\r\n        emit Transfer(address(0), recipient, amount);\r\n    }\r\n    */\r\n\r\n    /**\r\n      * title: burn\r\n      * @notice Subtract the amount of the balance of the owner\r\n      * @param amount: the amount given in order to calculate a new supply\r\n      */\r\n    /*\r\n       function burn(uint256 amount) public {\r\n            _balances[msg.sender] = _balances[msg.sender] - amount;\r\n            _totalSupply = _totalSupply - (amount);\r\n\r\n            emit Transfer(msg.sender, address(0), amount);\r\n       }\r\n    */\r\n\r\n    //TODO\r\n    /*\r\n    function transfer(address recipient, uint256 amount) override external returns (bool) {\r\n        require(recipient != address(0), \"BEP20: transfer to the zero address\");\r\n\r\n        _balances[msg.sender] = _balances[msg.sender].sub(amount, \"no sufficient funds\");\r\n        _balances[recipient] = _balances[recipient].add(amount);\r\n        emit Transfer(msg.sender, recipient, amount);\r\n        return true;\r\n    }\r\n*/\r\n\r\n\r\n\r\n\r\n}\r\n",
  "sourcePath": "C:/Users/fboud/OneDrive/Documents/Alyra/projetFinal/contracts/POWTournament.sol",
  "compiler": {
    "name": "solc",
    "version": "0.8.1+commit.df193b15.Emscripten.clang"
  },
  "schemaVersion": "3.4.1",
  "updatedAt": "2021-07-29T15:57:16.071Z",
  "devdoc": {
    "kind": "dev",
    "methods": {
      "addStakingPack(uint256,uint256)": {
        "params": {
          "packPeriod": ": the period of the pack",
          "packRate": ": rate of the rate"
        },
        "returns": {
          "_0": "boolean"
        }
      },
      "balanceOf(address)": {
        "returns": {
          "_0": "uint256"
        }
      },
      "decimals()": {
        "returns": {
          "_0": "uint8"
        }
      },
      "getDuration()": {
        "returns": {
          "_0": "the duration of the tournament set by the POW system "
        }
      },
      "getOwner()": {
        "returns": {
          "_0": "address"
        }
      },
      "getRewards(uint256,uint256)": {
        "params": {
          "amount": ": the amount given in order to calculate a new reward",
          "stakingPackID": ": the ID of the stakingPack"
        }
      },
      "name()": {
        "returns": {
          "_0": "string"
        }
      },
      "setDuration(uint256)": {
        "params": {
          "duration": ": This is the duration of a tournament"
        }
      },
      "setPenalty(uint8)": {
        "params": {
          "penaltyRate": ": rate of the penalty"
        },
        "returns": {
          "_0": "boolean"
        }
      },
      "setQuizType(string)": {
        "params": {
          "quizType": ": the type of the quiz"
        }
      },
      "symbol()": {
        "returns": {
          "_0": "string"
        }
      },
      "totalSupply()": {
        "returns": {
          "_0": "uint256"
        }
      }
    },
    "version": 1
  },
  "userdoc": {
    "kind": "user",
    "methods": {
      "addStakingPack(uint256,uint256)": {
        "notice": "title: addStakingPackadd in the stackingPack a rate and a period"
      },
      "balanceOf(address)": {
        "notice": "title: balanceOfGet the balance of the account"
      },
      "decimals()": {
        "notice": "title: decimalsGet the decimals of an amount"
      },
      "getDuration()": {
        "notice": "title: getDurationGet the duration of a tournament"
      },
      "getOwner()": {
        "notice": "title: getOwnerGet the owner of the contract"
      },
      "getRewards(uint256,uint256)": {
        "notice": "title: getRewards TODO AGAINGet the type of the quiz of the tournament"
      },
      "name()": {
        "notice": "title: nameGet the name"
      },
      "setDuration(uint256)": {
        "notice": "title: setDurationSet the duration of a tournament"
      },
      "setPenalty(uint8)": {
        "notice": "title: setPenaltySet a penalty for a player"
      },
      "setQuizType(string)": {
        "notice": "title: setQuizTypeGet the type of the quiz of the tournament"
      },
      "symbol()": {
        "notice": "title: symbolGet the symbol of the money"
      },
      "totalSupply()": {
        "notice": "title: totalSupplyGet the total supply"
      }
    },
    "version": 1
  }
}