{
  "contractName": "unlockItems",
  "abi": [
    {
      "anonymous": false,
      "inputs": [
        {
          "indexed": true,
          "internalType": "address",
          "name": "owner",
          "type": "address"
        },
        {
          "indexed": true,
          "internalType": "address",
          "name": "approved",
          "type": "address"
        },
        {
          "indexed": true,
          "internalType": "uint256",
          "name": "tokenId",
          "type": "uint256"
        }
      ],
      "name": "Approval",
      "type": "event"
    },
    {
      "anonymous": false,
      "inputs": [
        {
          "indexed": true,
          "internalType": "address",
          "name": "owner",
          "type": "address"
        },
        {
          "indexed": true,
          "internalType": "address",
          "name": "operator",
          "type": "address"
        },
        {
          "indexed": false,
          "internalType": "bool",
          "name": "approved",
          "type": "bool"
        }
      ],
      "name": "ApprovalForAll",
      "type": "event"
    },
    {
      "anonymous": false,
      "inputs": [
        {
          "indexed": false,
          "internalType": "address",
          "name": "addressPlayer",
          "type": "address"
        },
        {
          "indexed": false,
          "internalType": "string",
          "name": "loginPlayer",
          "type": "string"
        }
      ],
      "name": "NewPlayerRegistered",
      "type": "event"
    },
    {
      "anonymous": false,
      "inputs": [
        {
          "indexed": true,
          "internalType": "address",
          "name": "previousOwner",
          "type": "address"
        },
        {
          "indexed": true,
          "internalType": "address",
          "name": "newOwner",
          "type": "address"
        }
      ],
      "name": "OwnershipTransferred",
      "type": "event"
    },
    {
      "anonymous": false,
      "inputs": [
        {
          "indexed": true,
          "internalType": "address",
          "name": "from",
          "type": "address"
        },
        {
          "indexed": true,
          "internalType": "address",
          "name": "to",
          "type": "address"
        },
        {
          "indexed": true,
          "internalType": "uint256",
          "name": "tokenId",
          "type": "uint256"
        }
      ],
      "name": "Transfer",
      "type": "event"
    },
    {
      "anonymous": false,
      "inputs": [
        {
          "indexed": false,
          "internalType": "uint256",
          "name": "tokenId",
          "type": "uint256"
        }
      ],
      "name": "fusionnedItemCreate",
      "type": "event"
    },
    {
      "anonymous": false,
      "inputs": [
        {
          "indexed": false,
          "internalType": "uint256",
          "name": "tokenId",
          "type": "uint256"
        }
      ],
      "name": "lockItem",
      "type": "event"
    },
    {
      "anonymous": false,
      "inputs": [
        {
          "indexed": false,
          "internalType": "string",
          "name": "login",
          "type": "string"
        }
      ],
      "name": "playerUpdated",
      "type": "event"
    },
    {
      "anonymous": false,
      "inputs": [
        {
          "indexed": false,
          "internalType": "string",
          "name": "tokenName",
          "type": "string"
        }
      ],
      "name": "rewardWithdrawn",
      "type": "event"
    },
    {
      "inputs": [
        {
          "internalType": "address",
          "name": "to",
          "type": "address"
        },
        {
          "internalType": "uint256",
          "name": "tokenId",
          "type": "uint256"
        }
      ],
      "name": "approve",
      "outputs": [],
      "stateMutability": "nonpayable",
      "type": "function"
    },
    {
      "inputs": [
        {
          "internalType": "address",
          "name": "owner",
          "type": "address"
        }
      ],
      "name": "balanceOf",
      "outputs": [
        {
          "internalType": "uint256",
          "name": "",
          "type": "uint256"
        }
      ],
      "stateMutability": "view",
      "type": "function"
    },
    {
      "inputs": [
        {
          "internalType": "uint256",
          "name": "_type",
          "type": "uint256"
        },
        {
          "internalType": "string",
          "name": "_name",
          "type": "string"
        },
        {
          "internalType": "uint8",
          "name": "_continent",
          "type": "uint8"
        }
      ],
      "name": "createItem",
      "outputs": [],
      "stateMutability": "nonpayable",
      "type": "function"
    },
    {
      "inputs": [
        {
          "internalType": "uint256",
          "name": "",
          "type": "uint256"
        }
      ],
      "name": "exemplaireNumbers",
      "outputs": [
        {
          "internalType": "uint256",
          "name": "",
          "type": "uint256"
        }
      ],
      "stateMutability": "view",
      "type": "function"
    },
    {
      "inputs": [
        {
          "internalType": "uint256",
          "name": "_myItemId1",
          "type": "uint256"
        },
        {
          "internalType": "uint256",
          "name": "_myItemId2",
          "type": "uint256"
        }
      ],
      "name": "fusionItem",
      "outputs": [],
      "stateMutability": "nonpayable",
      "type": "function"
    },
    {
      "inputs": [
        {
          "internalType": "uint256",
          "name": "tokenId",
          "type": "uint256"
        }
      ],
      "name": "getApproved",
      "outputs": [
        {
          "internalType": "address",
          "name": "",
          "type": "address"
        }
      ],
      "stateMutability": "view",
      "type": "function"
    },
    {
      "inputs": [],
      "name": "getReward",
      "outputs": [],
      "stateMutability": "nonpayable",
      "type": "function"
    },
    {
      "inputs": [
        {
          "internalType": "address",
          "name": "owner",
          "type": "address"
        },
        {
          "internalType": "address",
          "name": "operator",
          "type": "address"
        }
      ],
      "name": "isApprovedForAll",
      "outputs": [
        {
          "internalType": "bool",
          "name": "",
          "type": "bool"
        }
      ],
      "stateMutability": "view",
      "type": "function"
    },
    {
      "inputs": [
        {
          "internalType": "uint256",
          "name": "",
          "type": "uint256"
        }
      ],
      "name": "items",
      "outputs": [
        {
          "internalType": "string",
          "name": "name",
          "type": "string"
        },
        {
          "internalType": "uint8",
          "name": "levelItem",
          "type": "uint8"
        },
        {
          "internalType": "uint8",
          "name": "continent",
          "type": "uint8"
        },
        {
          "internalType": "uint256",
          "name": "tokenId",
          "type": "uint256"
        },
        {
          "internalType": "uint256",
          "name": "composition",
          "type": "uint256"
        },
        {
          "internalType": "bool",
          "name": "locked",
          "type": "bool"
        },
        {
          "internalType": "bool",
          "name": "onSold",
          "type": "bool"
        }
      ],
      "stateMutability": "view",
      "type": "function"
    },
    {
      "inputs": [
        {
          "internalType": "address",
          "name": "",
          "type": "address"
        }
      ],
      "name": "multiverseData",
      "outputs": [
        {
          "internalType": "string",
          "name": "login",
          "type": "string"
        },
        {
          "internalType": "uint8",
          "name": "rewardLv1",
          "type": "uint8"
        },
        {
          "internalType": "uint8",
          "name": "rewardLv2",
          "type": "uint8"
        },
        {
          "internalType": "bool",
          "name": "isRegistered",
          "type": "bool"
        }
      ],
      "stateMutability": "view",
      "type": "function"
    },
    {
      "inputs": [
        {
          "internalType": "string",
          "name": "",
          "type": "string"
        }
      ],
      "name": "multiverseIds",
      "outputs": [
        {
          "internalType": "address",
          "name": "",
          "type": "address"
        }
      ],
      "stateMutability": "view",
      "type": "function"
    },
    {
      "inputs": [],
      "name": "name",
      "outputs": [
        {
          "internalType": "string",
          "name": "",
          "type": "string"
        }
      ],
      "stateMutability": "view",
      "type": "function"
    },
    {
      "inputs": [],
      "name": "owner",
      "outputs": [
        {
          "internalType": "address",
          "name": "",
          "type": "address"
        }
      ],
      "stateMutability": "view",
      "type": "function"
    },
    {
      "inputs": [
        {
          "internalType": "uint256",
          "name": "tokenId",
          "type": "uint256"
        }
      ],
      "name": "ownerOf",
      "outputs": [
        {
          "internalType": "address",
          "name": "",
          "type": "address"
        }
      ],
      "stateMutability": "view",
      "type": "function"
    },
    {
      "inputs": [],
      "name": "renounceOwnership",
      "outputs": [],
      "stateMutability": "nonpayable",
      "type": "function"
    },
    {
      "inputs": [
        {
          "internalType": "address",
          "name": "from",
          "type": "address"
        },
        {
          "internalType": "address",
          "name": "to",
          "type": "address"
        },
        {
          "internalType": "uint256",
          "name": "tokenId",
          "type": "uint256"
        }
      ],
      "name": "safeTransferFrom",
      "outputs": [],
      "stateMutability": "nonpayable",
      "type": "function"
    },
    {
      "inputs": [
        {
          "internalType": "address",
          "name": "from",
          "type": "address"
        },
        {
          "internalType": "address",
          "name": "to",
          "type": "address"
        },
        {
          "internalType": "uint256",
          "name": "tokenId",
          "type": "uint256"
        },
        {
          "internalType": "bytes",
          "name": "_data",
          "type": "bytes"
        }
      ],
      "name": "safeTransferFrom",
      "outputs": [],
      "stateMutability": "nonpayable",
      "type": "function"
    },
    {
      "inputs": [
        {
          "internalType": "address",
          "name": "operator",
          "type": "address"
        },
        {
          "internalType": "bool",
          "name": "approved",
          "type": "bool"
        }
      ],
      "name": "setApprovalForAll",
      "outputs": [],
      "stateMutability": "nonpayable",
      "type": "function"
    },
    {
      "inputs": [
        {
          "internalType": "address",
          "name": "_addressPlayer",
          "type": "address"
        },
        {
          "internalType": "string",
          "name": "_login",
          "type": "string"
        }
      ],
      "name": "setMultiversePlayer",
      "outputs": [],
      "stateMutability": "nonpayable",
      "type": "function"
    },
    {
      "inputs": [
        {
          "internalType": "bytes4",
          "name": "interfaceId",
          "type": "bytes4"
        }
      ],
      "name": "supportsInterface",
      "outputs": [
        {
          "internalType": "bool",
          "name": "",
          "type": "bool"
        }
      ],
      "stateMutability": "view",
      "type": "function"
    },
    {
      "inputs": [],
      "name": "symbol",
      "outputs": [
        {
          "internalType": "string",
          "name": "",
          "type": "string"
        }
      ],
      "stateMutability": "view",
      "type": "function"
    },
    {
      "inputs": [
        {
          "internalType": "uint256",
          "name": "index",
          "type": "uint256"
        }
      ],
      "name": "tokenByIndex",
      "outputs": [
        {
          "internalType": "uint256",
          "name": "",
          "type": "uint256"
        }
      ],
      "stateMutability": "view",
      "type": "function"
    },
    {
      "inputs": [
        {
          "internalType": "address",
          "name": "owner",
          "type": "address"
        },
        {
          "internalType": "uint256",
          "name": "index",
          "type": "uint256"
        }
      ],
      "name": "tokenOfOwnerByIndex",
      "outputs": [
        {
          "internalType": "uint256",
          "name": "",
          "type": "uint256"
        }
      ],
      "stateMutability": "view",
      "type": "function"
    },
    {
      "inputs": [
        {
          "internalType": "uint256",
          "name": "tokenId",
          "type": "uint256"
        }
      ],
      "name": "tokenURI",
      "outputs": [
        {
          "internalType": "string",
          "name": "",
          "type": "string"
        }
      ],
      "stateMutability": "view",
      "type": "function"
    },
    {
      "inputs": [],
      "name": "totalSupply",
      "outputs": [
        {
          "internalType": "uint256",
          "name": "",
          "type": "uint256"
        }
      ],
      "stateMutability": "view",
      "type": "function"
    },
    {
      "inputs": [
        {
          "internalType": "address",
          "name": "from",
          "type": "address"
        },
        {
          "internalType": "address",
          "name": "to",
          "type": "address"
        },
        {
          "internalType": "uint256",
          "name": "tokenId",
          "type": "uint256"
        }
      ],
      "name": "transferFrom",
      "outputs": [],
      "stateMutability": "nonpayable",
      "type": "function"
    },
    {
      "inputs": [
        {
          "internalType": "address",
          "name": "newOwner",
          "type": "address"
        }
      ],
      "name": "transferOwnership",
      "outputs": [],
      "stateMutability": "nonpayable",
      "type": "function"
    },
    {
      "inputs": [
        {
          "internalType": "string",
          "name": "_login",
          "type": "string"
        },
        {
          "internalType": "uint8",
          "name": "_rewardLv1",
          "type": "uint8"
        },
        {
          "internalType": "uint8",
          "name": "_rewardLv2",
          "type": "uint8"
        }
      ],
      "name": "updateMultiversePlayer",
      "outputs": [],
      "stateMutability": "nonpayable",
      "type": "function"
    },
    {
      "inputs": [],
      "name": "getLockedItems",
      "outputs": [
        {
          "internalType": "uint256[]",
          "name": "",
          "type": "uint256[]"
        }
      ],
      "stateMutability": "view",
      "type": "function"
    },
    {
      "inputs": [
        {
          "internalType": "uint256",
          "name": "_Id",
          "type": "uint256"
        }
      ],
      "name": "unlock",
      "outputs": [],
      "stateMutability": "nonpayable",
      "type": "function"
    },
    {
      "inputs": [
        {
          "internalType": "uint256",
          "name": "_Id",
          "type": "uint256"
        }
      ],
      "name": "lock",
      "outputs": [],
      "stateMutability": "nonpayable",
      "type": "function"
    }
  ],
  "bytecode": "0x60806040526001600e556002600f55600360105560016013553480156200002557600080fd5b506040805180820182526006815265141bddd3919560d21b60208083019182528351808501909452600484526312d3919560e21b908401528151919291620000709160009162000111565b5080516200008690600190602084019062000111565b505050620000a36200009d620000bb60201b60201c565b620000bf565b600b80546001600160a01b03191633179055620001f4565b3390565b600a80546001600160a01b038381166001600160a01b0319831681179093556040519116919082907f8be0079c531659141344cd1fd0a4f28419497f9722a3daafe3b4186f6b6457e090600090a35050565b8280546200011f90620001b7565b90600052602060002090601f0160209004810192826200014357600085556200018e565b82601f106200015e57805160ff19168380011785556200018e565b828001600101855582156200018e579182015b828111156200018e57825182559160200191906001019062000171565b506200019c929150620001a0565b5090565b5b808211156200019c5760008155600101620001a1565b600281046001821680620001cc57607f821691505b60208210811415620001ee57634e487b7160e01b600052602260045260246000fd5b50919050565b613c1880620002046000396000f3fe608060405234801561001057600080fd5b50600436106101a55760003560e01c8063715018a6116100ef578063b88d4fde11610092578063b88d4fde1461036c578063bfb231d21461037f578063c87b56dd146103a5578063dd467064146103b8578063e985e9c5146103cb578063e9dbd45a146103de578063f2fde38b146103f1578063fd12f09814610404576101a5565b8063715018a6146102e55780637538822e146102ed57806375adb7fd146103005780638da5cb5b1461032357806395d89b411461032b5780639b008e4714610333578063a22cb46514610346578063b6a4029614610359576101a5565b80632f745c59116101575780632f745c59146102585780633d18b9121461026b57806342842e0e146102735780634f6ccce7146102865780636198e339146102995780636352211e146102ac578063661c2b60146102bf57806370a08231146102d2576101a5565b806301ffc9a7146101aa57806306fdde03146101d3578063081812fc146101e8578063095ea7b31461020857806318160ddd1461021d5780631f5710891461023257806323b872dd14610245575b600080fd5b6101bd6101b8366004612db5565b610419565b6040516101ca91906130f8565b60405180910390f35b6101db610446565b6040516101ca9190613103565b6101fb6101f6366004612e7a565b6104d8565b6040516101ca919061303f565b61021b610216366004612d8c565b610524565b005b6102256105bc565b6040516101ca9190613a72565b61021b610240366004612e92565b6105c2565b61021b610253366004612c54565b610827565b610225610266366004612d8c565b61085f565b61021b6108b1565b61021b610281366004612c54565b610b7e565b610225610294366004612e7a565b610b99565b61021b6102a7366004612e7a565b610bf4565b6101fb6102ba366004612e7a565b610cab565b6102256102cd366004612e7a565b610ce0565b6102256102e0366004612c08565b610cf2565b61021b610d36565b61021b6102fb366004612e1f565b610d7f565b61031361030e366004612c08565b610eff565b6040516101ca9493929190613116565b6101fb610fb9565b6101db610fc8565b61021b610341366004612d41565b610fd7565b61021b610354366004612d07565b61113d565b61021b610367366004612edd565b61120b565b61021b61037a366004612c8f565b6115f6565b61039261038d366004612e7a565b611635565b6040516101ca979695949392919061314b565b6101db6103b3366004612e7a565b61171a565b61021b6103c6366004612e7a565b61179d565b6101bd6103d9366004612c22565b61182f565b6101fb6103ec366004612ded565b61185d565b61021b6103ff366004612c08565b611883565b61040c6118f4565b6040516101ca91906130b4565b60006001600160e01b0319821663780e9d6360e01b148061043e575061043e82611bf4565b90505b919050565b60606000805461045590613b20565b80601f016020809104026020016040519081016040528092919081815260200182805461048190613b20565b80156104ce5780601f106104a3576101008083540402835291602001916104ce565b820191906000526020600020905b8154815290600101906020018083116104b157829003601f168201915b5050505050905090565b60006104e382611c34565b6105085760405162461bcd60e51b81526004016104ff9061377a565b60405180910390fd5b506000908152600460205260409020546001600160a01b031690565b600061052f82610cab565b9050806001600160a01b0316836001600160a01b031614156105635760405162461bcd60e51b81526004016104ff90613893565b806001600160a01b0316610575611c51565b6001600160a01b031614806105915750610591816103d9611c51565b6105ad5760405162461bcd60e51b81526004016104ff9061357d565b6105b78383611c55565b505050565b60085490565b6105ca611c51565b6001600160a01b03166105db610fb9565b6001600160a01b0316146106015760405162461bcd60e51b81526004016104ff906137c6565b8261061e5760405162461bcd60e51b81526004016104ff906134fa565b60ff811661063e5760405162461bcd60e51b81526004016104ff9061343c565b601154600e54600091829182918291829089141561068e5761065f88611cc3565b9550610687604051806040016040528060058152602001643830b832b960d91b815250611cfc565b9450600290505b600f548914156106a8576106a188611cfc565b9450600290505b6010548914156106c2576106bb88611cc3565b9550600190505b601260006106d08888611d40565b81526020019081526020016000205460016106eb9190613a7b565b93506106f8868686611d59565b925083601260006107098989611d40565b81526020810191909152604001600020556107243383611d84565b6040805160e08101825289815260ff808416602080840191909152908a16928201929092526060810184905260808101859052600060a0820181905260c0820181905260118054600181018255915281518051929360059092027f31ecc21a745e3968a04e9570e4425bc18fa8019c68028196b546d1669c200c6801926107ae9284920190612ab3565b506020820151600182018054604085015160ff90811661010090810261ff00199290951660ff1993841617821694909417909255606085015160028501556080850151600385015560a08501516004909401805460c0909601511515909302931515941693909317909216179055505050505050505050565b610838610832611c51565b82611da2565b6108545760405162461bcd60e51b81526004016104ff9061390b565b6105b7838383611e1f565b600061086a83610cf2565b82106108885760405162461bcd60e51b81526004016104ff906132ab565b506001600160a01b03919091166000908152600660209081526040808320938352929052205490565b600b546108c6906001600160a01b0316610cf2565b6108e25760405162461bcd60e51b81526004016104ff906138d4565b336000908152600d602052604090206001015462010000900460ff1661091a5760405162461bcd60e51b81526004016104ff9061327b565b336000908152600d602052604090206001015460ff161515806109565750336000908152600d6020526040902060010154610100900460ff1615155b6109725760405162461bcd60e51b81526004016104ff90613743565b6013805490600061098283613b5b565b9091555050336000908152600d602052604090206001015460ff1615610a7c57336000908152600d602052604090206001015460ff165b8015610a605760006109cb6001611f4c565b600b549091506109e5906001600160a01b03163383611e1f565b7fc13f9ae72e4e0dc35757e8e0eb7919f647d0b4b0c6451d638f810fcf13f2977b60118281548110610a2757634e487b7160e01b600052603260045260246000fd5b9060005260206000209060050201600001604051610a459190613196565b60405180910390a15080610a5881613b09565b9150506109b9565b50336000908152600d60205260409020600101805460ff191690555b336000908152600d6020526040902060010154610100900460ff1615610b7c57336000908152600d6020526040902060010154610100900460ff165b8015610b5f576000610aca6002611f4c565b600b54909150610ae4906001600160a01b03163383611e1f565b7fc13f9ae72e4e0dc35757e8e0eb7919f647d0b4b0c6451d638f810fcf13f2977b60118281548110610b2657634e487b7160e01b600052603260045260246000fd5b9060005260206000209060050201600001604051610b449190613196565b60405180910390a15080610b5781613b09565b915050610ab8565b50336000908152600d60205260409020600101805461ff00191690555b565b6105b7838383604051806020016040528060008152506115f6565b6000610ba36105bc565b8210610bc15760405162461bcd60e51b81526004016104ff906139b0565b60088281548110610be257634e487b7160e01b600052603260045260246000fd5b90600052602060002001549050919050565b610bfc611c51565b6001600160a01b0316610c0d610fb9565b6001600160a01b031614610c335760405162461bcd60e51b81526004016104ff906137c6565b33610c3d82610cab565b6001600160a01b031614610c635760405162461bcd60e51b81526004016104ff906139fc565b600060118281548110610c8657634e487b7160e01b600052603260045260246000fd5b60009182526020909120600590910201600401805460ff191691151591909117905550565b6000818152600260205260408120546001600160a01b03168061043e5760405162461bcd60e51b81526004016104ff90613668565b60126020526000908152604090205481565b60006001600160a01b038216610d1a5760405162461bcd60e51b81526004016104ff9061361e565b506001600160a01b031660009081526003602052604090205490565b610d3e611c51565b6001600160a01b0316610d4f610fb9565b6001600160a01b031614610d755760405162461bcd60e51b81526004016104ff906137c6565b610b7c6000612255565b600b546001600160a01b03163314610da95760405162461bcd60e51b81526004016104ff906135d5565b600d6000600c85604051610dbd9190612f99565b9081526040805160209281900383019020546001600160a01b03168352908201929092520160002060019081015462010000900460ff16151514610e135760405162461bcd60e51b81526004016104ff9061395c565b81600d6000600c86604051610e289190612f99565b9081526040805160209281900383019020546001600160a01b031683529082019290925281016000908120600101805460ff191660ff9490941693909317909255518291600d91600c90610e7d908890612f99565b9081526040805160209281900383019020546001600160a01b03168352908201929092528101600020600101805461ff00191661010060ff949094169390930292909217909155517faa6183438646fc8bb56f82868ce90c0a5bd1301970b115e976c90c1d696a155090610ef2908590613103565b60405180910390a1505050565b600d60205260009081526040902080548190610f1a90613b20565b80601f0160208091040260200160405190810160405280929190818152602001828054610f4690613b20565b8015610f935780601f10610f6857610100808354040283529160200191610f93565b820191906000526020600020905b815481529060010190602001808311610f7657829003601f168201915b5050506001909301549192505060ff808216916101008104821691620100009091041684565b600a546001600160a01b031690565b60606001805461045590613b20565b600b546001600160a01b0316331480610ff85750336001600160a01b038316145b6110145760405162461bcd60e51b81526004016104ff9061346f565b600d6000600c836040516110289190612f99565b9081526040805160209281900383019020546001600160a01b0316835290820192909252016000206001015462010000900460ff161561107a5760405162461bcd60e51b81526004016104ff906134b9565b81600c8260405161108b9190612f99565b908152604080516020928190038301902080546001600160a01b0319166001600160a01b039485161790559184166000908152600d82529190912082516110d492840190612ab3565b506001600160a01b0382166000908152600d602052604090819020600101805462ff0000191662010000179055517fd1271c0a878b06e77c2b145e81fda258074d1d9f72d29461da6de567fe185db3906111319084908490613090565b60405180910390a15050565b611145611c51565b6001600160a01b0316826001600160a01b031614156111765760405162461bcd60e51b81526004016104ff90613409565b8060056000611183611c51565b6001600160a01b03908116825260208083019390935260409182016000908120918716808252919093529120805460ff1916921515929092179091556111c7611c51565b6001600160a01b03167f17307eab39ab6107e8899845ad3d59bd9653f200f220920489ca2b5937696c31836040516111ff91906130f8565b60405180910390a35050565b3361121583610cab565b6001600160a01b031614801561123b57503361123082610cab565b6001600160a01b0316145b6112575760405162461bcd60e51b81526004016104ff90613a3f565b6011828154811061127857634e487b7160e01b600052603260045260246000fd5b600091825260209091206005909102016001015460ff1660021480156112d55750601181815481106112ba57634e487b7160e01b600052603260045260246000fd5b600091825260209091206005909102016001015460ff166002145b6112f15760405162461bcd60e51b81526004016104ff90613217565b6112fa826122a7565b801561130c575061130a816122a7565b155b8061132c575061131b826122a7565b15801561132c575061132c816122a7565b6113485760405162461bcd60e51b81526004016104ff90613249565b6011546040805180820190915260018152600160fd1b6020820152600091908290606090611375876122a7565b156113cd5761138487876122ff565b9450601187815481106113a757634e487b7160e01b600052603260045260246000fd5b906000526020600020906005020160010160019054906101000a900460ff16925061141c565b6113d786886122ff565b9450601186815481106113fa57634e487b7160e01b600052603260045260246000fd5b906000526020600020906005020160010160019054906101000a900460ff1692505b6011878154811061143d57634e487b7160e01b600052603260045260246000fd5b9060005260206000209060050201600001816011888154811061147057634e487b7160e01b600052603260045260246000fd5b906000526020600020906005020160000160405160200161149393929190612fe4565b60405160208183030381529060405291506114ad876123ea565b6114b6866123ea565b6040805160e081018252838152600360208083019190915260ff8616928201929092526060810186905260808101879052600060a0820181905260c0820181905260118054600181018255915281518051929360059092027f31ecc21a745e3968a04e9570e4425bc18fa8019c68028196b546d1669c200c68019261153e9284920190612ab3565b506020820151600182018054604085015160ff90811661010090810261ff00199290951660ff1993841617821694909417909255606085015160028501556080850151600385015560a08501516004909401805460c09096015115159093029315159416939093179092161790556115b63385611d84565b7f073e229b017abef20a1f46a057285c5070d61c6253a90247a0687502f7da518a846040516115e59190613a72565b60405180910390a150505050505050565b611607611601611c51565b83611da2565b6116235760405162461bcd60e51b81526004016104ff9061390b565b61162f84848484612481565b50505050565b6011818154811061164557600080fd5b906000526020600020906005020160009150905080600001805461166890613b20565b80601f016020809104026020016040519081016040528092919081815260200182805461169490613b20565b80156116e15780601f106116b6576101008083540402835291602001916116e1565b820191906000526020600020905b8154815290600101906020018083116116c457829003601f168201915b505050600184015460028501546003860154600490960154949560ff808416966101009485900482169650929450909282821692041687565b606061172582611c34565b6117415760405162461bcd60e51b81526004016104ff90613844565b600061174b6124b4565b9050600081511161176b5760405180602001604052806000815250611796565b80611775846124c6565b604051602001611786929190612fb5565b6040516020818303038152906040525b9392505050565b6117a5611c51565b6001600160a01b03166117b6610fb9565b6001600160a01b0316146117dc5760405162461bcd60e51b81526004016104ff906137c6565b336117e682610cab565b6001600160a01b03161461180c5760405162461bcd60e51b81526004016104ff906139fc565b600160118281548110610c8657634e487b7160e01b600052603260045260246000fd5b6001600160a01b03918216600090815260056020908152604080832093909416825291909152205460ff1690565b8051602081830181018051600c825292820191909301209152546001600160a01b031681565b61188b611c51565b6001600160a01b031661189c610fb9565b6001600160a01b0316146118c25760405162461bcd60e51b81526004016104ff906137c6565b6001600160a01b0381166118e85760405162461bcd60e51b81526004016104ff90613348565b6118f181612255565b50565b60606118fe611c51565b6001600160a01b031661190f610fb9565b6001600160a01b0316146119355760405162461bcd60e51b81526004016104ff906137c6565b600b54600090819061194f906001600160a01b0316610cf2565b9050600080826001600160401b0381111561197a57634e487b7160e01b600052604160045260246000fd5b6040519080825280602002602001820160405280156119a3578160200160208202803683370190505b50905060005b83811015611a7757600b546119c7906001600160a01b03168261085f565b8282815181106119e757634e487b7160e01b600052603260045260246000fd5b6020026020010181815250506011828281518110611a1557634e487b7160e01b600052603260045260246000fd5b602002602001015181548110611a3b57634e487b7160e01b600052603260045260246000fd5b600091825260209091206004600590920201015460ff1615611a655784611a6181613b5b565b9550505b80611a6f81613b5b565b9150506119a9565b506000846001600160401b03811115611aa057634e487b7160e01b600052604160045260246000fd5b604051908082528060200260200182016040528015611ac9578160200160208202803683370190505b5090508051600014611beb5760005b84811015611be9576011838281518110611b0257634e487b7160e01b600052603260045260246000fd5b602002602001015181548110611b2857634e487b7160e01b600052603260045260246000fd5b600091825260209091206004600590920201015460ff1615611bd7576011838281518110611b6657634e487b7160e01b600052603260045260246000fd5b602002602001015181548110611b8c57634e487b7160e01b600052603260045260246000fd5b906000526020600020906005020160020154828581518110611bbe57634e487b7160e01b600052603260045260246000fd5b602090810291909101015283611bd381613b5b565b9450505b80611be181613b5b565b915050611ad8565b505b94505050505090565b60006001600160e01b031982166380ac58cd60e01b1480611c2557506001600160e01b03198216635b5e139f60e01b145b8061043e575061043e826125e0565b6000908152600260205260409020546001600160a01b0316151590565b3390565b600081815260046020526040902080546001600160a01b0319166001600160a01b0384169081179091558190611c8a82610cab565b6001600160a01b03167f8c5be1e5ebec7d5bd14f71427d1e84f3dd0314c0f7b2291e5b200ac8c7c3b92560405160405180910390a45050565b60006103e882604051602001611cd99190612f99565b6040516020818303038152906040528051906020012060001c61043e9190613b76565b60006103e782604051602001611d129190612f99565b6040516020818303038152906040528051906020012060001c611d359190613b76565b61043e906001613a7b565b600081611d4f846103e8613aa7565b6117969190613a7b565b600081611d668585611d40565b611d72906103e8613aa7565b611d7c9190613a7b565b949350505050565b611d9e8282604051806020016040528060008152506125f9565b5050565b6000611dad82611c34565b611dc95760405162461bcd60e51b81526004016104ff90613531565b6000611dd483610cab565b9050806001600160a01b0316846001600160a01b03161480611e0f5750836001600160a01b0316611e04846104d8565b6001600160a01b0316145b80611d7c5750611d7c818561182f565b826001600160a01b0316611e3282610cab565b6001600160a01b031614611e585760405162461bcd60e51b81526004016104ff906137fb565b6001600160a01b038216611e7e5760405162461bcd60e51b81526004016104ff906133c5565b611e8983838361262c565b611e94600082611c55565b6001600160a01b0383166000908152600360205260408120805460019290611ebd908490613ac6565b90915550506001600160a01b0382166000908152600360205260408120805460019290611eeb908490613a7b565b909155505060008181526002602052604080822080546001600160a01b0319166001600160a01b0386811691821790925591518493918716917fddf252ad1be2c89b69c2b068fc378daa952ba7f163c4a11628f55a4df523b3ef91a4505050565b6000806000805b600b54611f68906001600160a01b0316610cf2565b81101561203f57600b54601190611f88906001600160a01b03168361085f565b81548110611fa657634e487b7160e01b600052603260045260246000fd5b600091825260209091206004600590920201015460ff1615801561201a5750600b5460ff861690601190611fe3906001600160a01b03168461085f565b8154811061200157634e487b7160e01b600052603260045260246000fd5b600091825260209091206001600590920201015460ff16145b1561202d578261202981613b5b565b9350505b8061203781613b5b565b915050611f53565b508161205d5760405162461bcd60e51b81526004016104ff906136b1565b6000826001600160401b0381111561208557634e487b7160e01b600052604160045260246000fd5b6040519080825280602002602001820160405280156120ae578160200160208202803683370190505b50905060005b600b546120c9906001600160a01b0316610cf2565b8110156121e157600b546011906120e9906001600160a01b03168361085f565b8154811061210757634e487b7160e01b600052603260045260246000fd5b600091825260209091206004600590920201015460ff1615801561217b5750600b5460ff871690601190612144906001600160a01b03168461085f565b8154811061216257634e487b7160e01b600052603260045260246000fd5b600091825260209091206001600590920201015460ff16145b156121cf57600b54612196906001600160a01b03168261085f565b8284815181106121b657634e487b7160e01b600052603260045260246000fd5b6020908102919091010152826121cb81613b5b565b9350505b806121d981613b5b565b9150506120b4565b506000815142336013546040516020016121fd93929190613017565b6040516020818303038152906040528051906020012060001c6122209190613b76565b905081818151811061224257634e487b7160e01b600052603260045260246000fd5b6020026020010151945050505050610441565b600a80546001600160a01b038381166001600160a01b0319831681179093556040519116919082907f8be0079c531659141344cd1fd0a4f28419497f9722a3daafe3b4186f6b6457e090600090a35050565b6000620f4240601183815481106122ce57634e487b7160e01b600052603260045260246000fd5b9060005260206000209060050201600301546122ea9190613a93565b156122f757506001610441565b506000610441565b6000806011838154811061232357634e487b7160e01b600052603260045260246000fd5b906000526020600020906005020160030154620f42406011868154811061235a57634e487b7160e01b600052603260045260246000fd5b9060005260206000209060050201600301546123769190613a93565b61238390620f4240613aa7565b61238d9190613a7b565b905060006012816123a1620f424085613b76565b81526020019081526020016000205460016123bc9190613a7b565b9050806123cb6103e884613a93565b6123d7906103e8613aa7565b6123e19190613a7b565b95945050505050565b60016011828154811061240d57634e487b7160e01b600052603260045260246000fd5b60009182526020909120600590910201600401805460ff1916911515919091179055600b546124479033906001600160a01b031683611e1f565b7ff626e9712bfc1d05519ae9d87cfe12f82248296f837942a0d818b10080ed4e4c816040516124769190613a72565b60405180910390a150565b61248c848484611e1f565b612498848484846126b5565b61162f5760405162461bcd60e51b81526004016104ff906132f6565b60408051602081019091526000815290565b6060816124eb57506040805180820190915260018152600360fc1b6020820152610441565b8160005b811561251557806124ff81613b5b565b915061250e9050600a83613a93565b91506124ef565b6000816001600160401b0381111561253d57634e487b7160e01b600052604160045260246000fd5b6040519080825280601f01601f191660200182016040528015612567576020820181803683370190505b5090505b8415611d7c5761257c600183613ac6565b9150612589600a86613b76565b612594906030613a7b565b60f81b8183815181106125b757634e487b7160e01b600052603260045260246000fd5b60200101906001600160f81b031916908160001a9053506125d9600a86613a93565b945061256b565b6001600160e01b031981166301ffc9a760e01b14919050565b61260383836127d0565b61261060008484846126b5565b6105b75760405162461bcd60e51b81526004016104ff906132f6565b6126378383836105b7565b6001600160a01b0383166126535761264e816128af565b612676565b816001600160a01b0316836001600160a01b0316146126765761267683826128f3565b6001600160a01b0382166126925761268d81612990565b6105b7565b826001600160a01b0316826001600160a01b0316146105b7576105b78282612a69565b60006126c9846001600160a01b0316612aad565b156127c557836001600160a01b031663150b7a026126e5611c51565b8786866040518563ffffffff1660e01b81526004016127079493929190613053565b602060405180830381600087803b15801561272157600080fd5b505af1925050508015612751575060408051601f3d908101601f1916820190925261274e91810190612dd1565b60015b6127ab573d80801561277f576040519150601f19603f3d011682016040523d82523d6000602084013e612784565b606091505b5080516127a35760405162461bcd60e51b81526004016104ff906132f6565b805181602001fd5b6001600160e01b031916630a85bd0160e11b149050611d7c565b506001949350505050565b6001600160a01b0382166127f65760405162461bcd60e51b81526004016104ff9061370e565b6127ff81611c34565b1561281c5760405162461bcd60e51b81526004016104ff9061338e565b6128286000838361262c565b6001600160a01b0382166000908152600360205260408120805460019290612851908490613a7b565b909155505060008181526002602052604080822080546001600160a01b0319166001600160a01b03861690811790915590518392907fddf252ad1be2c89b69c2b068fc378daa952ba7f163c4a11628f55a4df523b3ef908290a45050565b600880546000838152600960205260408120829055600182018355919091527ff3f7a9fe364faab93b216da50a3214154f22a0a2b415b23a84c8169e8b636ee30155565b6000600161290084610cf2565b61290a9190613ac6565b60008381526007602052604090205490915080821461295d576001600160a01b03841660009081526006602090815260408083208584528252808320548484528184208190558352600790915290208190555b5060009182526007602090815260408084208490556001600160a01b039094168352600681528383209183525290812055565b6008546000906129a290600190613ac6565b600083815260096020526040812054600880549394509092849081106129d857634e487b7160e01b600052603260045260246000fd5b906000526020600020015490508060088381548110612a0757634e487b7160e01b600052603260045260246000fd5b6000918252602080832090910192909255828152600990915260408082208490558582528120556008805480612a4d57634e487b7160e01b600052603160045260246000fd5b6001900381819060005260206000200160009055905550505050565b6000612a7483610cf2565b6001600160a01b039093166000908152600660209081526040808320868452825280832085905593825260079052919091209190915550565b3b151590565b828054612abf90613b20565b90600052602060002090601f016020900481019282612ae15760008555612b27565b82601f10612afa57805160ff1916838001178555612b27565b82800160010185558215612b27579182015b82811115612b27578251825591602001919060010190612b0c565b50612b33929150612b37565b5090565b5b80821115612b335760008155600101612b38565b60006001600160401b0380841115612b6657612b66613bb6565b604051601f8501601f19908116603f01168101908282118183101715612b8e57612b8e613bb6565b81604052809350858152868686011115612ba757600080fd5b858560208301376000602087830101525050509392505050565b80356001600160a01b038116811461044157600080fd5b600082601f830112612be8578081fd5b61179683833560208501612b4c565b803560ff8116811461044157600080fd5b600060208284031215612c19578081fd5b61179682612bc1565b60008060408385031215612c34578081fd5b612c3d83612bc1565b9150612c4b60208401612bc1565b90509250929050565b600080600060608486031215612c68578081fd5b612c7184612bc1565b9250612c7f60208501612bc1565b9150604084013590509250925092565b60008060008060808587031215612ca4578081fd5b612cad85612bc1565b9350612cbb60208601612bc1565b92506040850135915060608501356001600160401b03811115612cdc578182fd5b8501601f81018713612cec578182fd5b612cfb87823560208401612b4c565b91505092959194509250565b60008060408385031215612d19578182fd5b612d2283612bc1565b915060208301358015158114612d36578182fd5b809150509250929050565b60008060408385031215612d53578182fd5b612d5c83612bc1565b915060208301356001600160401b03811115612d76578182fd5b612d8285828601612bd8565b9150509250929050565b60008060408385031215612d9e578182fd5b612da783612bc1565b946020939093013593505050565b600060208284031215612dc6578081fd5b813561179681613bcc565b600060208284031215612de2578081fd5b815161179681613bcc565b600060208284031215612dfe578081fd5b81356001600160401b03811115612e13578182fd5b611d7c84828501612bd8565b600080600060608486031215612e33578283fd5b83356001600160401b03811115612e48578384fd5b612e5486828701612bd8565b935050612e6360208501612bf7565b9150612e7160408501612bf7565b90509250925092565b600060208284031215612e8b578081fd5b5035919050565b600080600060608486031215612ea6578283fd5b8335925060208401356001600160401b03811115612ec2578283fd5b612ece86828701612bd8565b925050612e7160408501612bf7565b60008060408385031215612eef578182fd5b50508035926020909101359150565b60008151808452612f16816020860160208601613add565b601f01601f19169290920160200192915050565b60008154612f3781613b20565b60018281168015612f4f5760018114612f6057612f8f565b60ff19841687528287019450612f8f565b8560005260208060002060005b85811015612f865781548a820152908401908201612f6d565b50505082870194505b5050505092915050565b60008251612fab818460208701613add565b9190910192915050565b60008351612fc7818460208801613add565b835190830190612fdb818360208801613add565b01949350505050565b6000612ff08286612f2a565b8451613000818360208901613add565b61300c81830186612f2a565b979650505050505050565b92835260609190911b6bffffffffffffffffffffffff19166020830152603482015260540190565b6001600160a01b0391909116815260200190565b6001600160a01b038581168252841660208201526040810183905260806060820181905260009061308690830184612efe565b9695505050505050565b6001600160a01b0383168152604060208201819052600090611d7c90830184612efe565b6020808252825182820181905260009190848201906040850190845b818110156130ec578351835292840192918401916001016130d0565b50909695505050505050565b901515815260200190565b6000602082526117966020830184612efe565b6000608082526131296080830187612efe565b60ff958616602084015293909416604082015290151560609091015292915050565b600060e0825261315e60e083018a612efe565b60ff988916602084015296909716604082015260608101949094526080840192909252151560a0830152151560c09091015292915050565b600060208083528184546131a981613b20565b808487015260406001808416600081146131ca57600181146131de57613209565b60ff19851689840152606089019550613209565b898852868820885b858110156132015781548b82018601529083019088016131e6565b8a0184019650505b509398975050505050505050565b6020808252601890820152774e6f6e20667573696f6e6e61626c6520656c656d656e747360401b604082015260600190565b602080825260189082015277436f6d62696e6174696f6e206e6f7420706f737369626c6560401b604082015260600190565b6020808252601690820152752737ba1030903932b3b4ba32b932b210383630bcb2b960511b604082015260600190565b6020808252602b908201527f455243373231456e756d657261626c653a206f776e657220696e646578206f7560408201526a74206f6620626f756e647360a81b606082015260800190565b60208082526032908201527f4552433732313a207472616e7366657220746f206e6f6e20455243373231526560408201527131b2b4bb32b91034b6b83632b6b2b73a32b960711b606082015260800190565b60208082526026908201527f4f776e61626c653a206e6577206f776e657220697320746865207a65726f206160408201526564647265737360d01b606082015260800190565b6020808252601c908201527f4552433732313a20746f6b656e20616c7265616479206d696e74656400000000604082015260600190565b60208082526024908201527f4552433732313a207472616e7366657220746f20746865207a65726f206164646040820152637265737360e01b606082015260800190565b60208082526019908201527822a9219b99189d1030b8383937bb32903a379031b0b63632b960391b604082015260600190565b6020808252601990820152781c1b19585cd9481cd95b1958dd08184818dbdb9d1a5b995b9d603a1b604082015260600190565b6020808252602a908201527f796f7520617265206e6f7420617574686f72697a656420746f207365742074686040820152691a5cc81858d8dbdd5b9d60b21b606082015260800190565b60208082526021908201527f7468697320706c6179657220697320616c7265616479207265676973746572656040820152601960fa1b606082015260800190565b6020808252601c908201527f706c656173652073656c65637420612074797065206f66206974656d00000000604082015260600190565b6020808252602c908201527f4552433732313a206f70657261746f7220717565727920666f72206e6f6e657860408201526b34b9ba32b73a103a37b5b2b760a11b606082015260800190565b60208082526038908201527f4552433732313a20617070726f76652063616c6c6572206973206e6f74206f776040820152771b995c881b9bdc88185c1c1c9bdd995908199bdc88185b1b60421b606082015260800190565b60208082526029908201527f796f7520617265206e6f7420617574686f72697a656420746f20757064617465604082015268103090383630bcb2b960b91b606082015260800190565b6020808252602a908201527f4552433732313a2062616c616e636520717565727920666f7220746865207a65604082015269726f206164647265737360b01b606082015260800190565b60208082526029908201527f4552433732313a206f776e657220717565727920666f72206e6f6e657869737460408201526832b73a103a37b5b2b760b91b606082015260800190565b6020808252603a908201527f5468657265206973206e6f7420656e6f756768206974656d20617661696c626160408201527f6c652c20706c6561736520636f6d65206261636b206c61746572000000000000606082015260800190565b6020808252818101527f4552433732313a206d696e7420746f20746865207a65726f2061646472657373604082015260600190565b6020808252601a908201527f596f752068617665206e6f207265776172647320746f20676574000000000000604082015260600190565b6020808252602c908201527f4552433732313a20617070726f76656420717565727920666f72206e6f6e657860408201526b34b9ba32b73a103a37b5b2b760a11b606082015260800190565b6020808252818101527f4f776e61626c653a2063616c6c6572206973206e6f7420746865206f776e6572604082015260600190565b60208082526029908201527f4552433732313a207472616e73666572206f6620746f6b656e2074686174206960408201526839903737ba1037bbb760b91b606082015260800190565b6020808252602f908201527f4552433732314d657461646174613a2055524920717565727920666f72206e6f60408201526e3732bc34b9ba32b73a103a37b5b2b760891b606082015260800190565b60208082526021908201527f4552433732313a20617070726f76616c20746f2063757272656e74206f776e656040820152603960f91b606082015260800190565b6020808252601b908201527f4e6f6e6520617661696c61626c65206974656d20666f72206e6f770000000000604082015260600190565b60208082526031908201527f4552433732313a207472616e736665722063616c6c6572206973206e6f74206f6040820152701ddb995c881b9bdc88185c1c1c9bdd9959607a1b606082015260800190565b60208082526034908201527f706c656173652073657420666972737420616e20457468657265756d206164646040820152733932b9b9903337b9103a3434b990383630bcb2b960611b606082015260800190565b6020808252602c908201527f455243373231456e756d657261626c653a20676c6f62616c20696e646578206f60408201526b7574206f6620626f756e647360a01b606082015260800190565b60208082526023908201527f4572726f72202c20746f6b656e206f776e6564206f72206e6f6e206578697374604082015262195b9d60ea1b606082015260800190565b6020808252601990820152784e6f7420746865206f776e6572206f6620746865206974656d60381b604082015260600190565b90815260200190565b60008219821115613a8e57613a8e613b8a565b500190565b600082613aa257613aa2613ba0565b500490565b6000816000190483118215151615613ac157613ac1613b8a565b500290565b600082821015613ad857613ad8613b8a565b500390565b60005b83811015613af8578181015183820152602001613ae0565b8381111561162f5750506000910152565b600081613b1857613b18613b8a565b506000190190565b600281046001821680613b3457607f821691505b60208210811415613b5557634e487b7160e01b600052602260045260246000fd5b50919050565b6000600019821415613b6f57613b6f613b8a565b5060010190565b600082613b8557613b85613ba0565b500690565b634e487b7160e01b600052601160045260246000fd5b634e487b7160e01b600052601260045260246000fd5b634e487b7160e01b600052604160045260246000fd5b6001600160e01b0319811681146118f157600080fdfea2646970667358221220d4aeec3e26e489550d955571f539d3ff32003d6543d90c64eb5f9caf1ee19b2a64736f6c63430008010033",
  "immutableReferences": {},
  "source": "// SPDX-License-Identifier: GPL-3.0\r\n\r\npragma solidity 0.8.1;\r\n\r\nimport \"./fusion.sol\";\r\n\r\n/** \r\n * @title Lock and unlock items\r\n * @dev This contract allows the administrator to unlock or lock items in the database\r\n */\r\n \r\ncontract unlockItems is fusion { \r\n \r\n    ///@dev Gives to the administrator a list of tokenId locked\r\n    function getLockedItems() onlyOwner public view returns(uint[] memory) {\r\n       // require (balanceOf(_administrator) != 0, \"No more items in the database\");\r\n        \r\n        uint sizeLocked;  \r\n        uint maxSize = balanceOf(_administrator);\r\n        uint count;\r\n        uint[] memory ownedItems = new uint[](maxSize);\r\n        \r\n    \r\n        for (uint i = 0; i < maxSize; i++ ){\r\n          ownedItems[i] = tokenOfOwnerByIndex(_administrator,i);\r\n          if (items[ownedItems[i]].locked){\r\n            sizeLocked ++;\r\n          }\r\n        }\r\n        \r\n        uint[] memory lockedItems = new uint[](sizeLocked);\r\n    \r\n        if (lockedItems.length != 0){\r\n          for(uint i = 0; i < maxSize; i++){\r\n            if(items[ownedItems[i]].locked){\r\n              lockedItems[count] = items[ownedItems[i]].tokenId;\r\n              count ++;\r\n            }\r\n          }\r\n        }/*else{\r\n          revert(\"No lockedItems\");\r\n        }*/\r\n        return lockedItems;\r\n      }\r\n\r\n    ///@dev Administrator unlocks items\r\n    function unlock(uint _Id) public onlyOwner {\r\n        require (ownerOf(_Id) == msg.sender, \"Error , token owned or non existent\");\r\n        items[_Id].locked = false;\r\n    }\r\n    \r\n    ///@dev Administrator locks items \r\n    function lock(uint _Id) public onlyOwner {\r\n        require (ownerOf(_Id) == msg.sender, \"Error , token owned or non existent\");\r\n        items[_Id].locked = true;\r\n   \r\n    }\r\n}",
  "sourcePath": "C:\\Users\\fboud\\OneDrive\\Documents\\Alyra\\projetFinal\\contracts\\unlockItems.sol",
  "compiler": {
    "name": "solc",
    "version": "0.8.1+commit.df193b15.Emscripten.clang"
  },
  "schemaVersion": "3.4.2",
  "updatedAt": "2021-08-03T02:55:10.540Z",
  "devdoc": {
    "details": "This contract allows the administrator to unlock or lock items in the database",
    "kind": "dev",
    "methods": {
      "approve(address,uint256)": {
        "details": "See {IERC721-approve}."
      },
      "balanceOf(address)": {
        "details": "See {IERC721-balanceOf}."
      },
      "createItem(uint256,string,uint8)": {
        "details": "Function allowing to create items. Only the adminstrator can make one"
      },
      "fusionItem(uint256,uint256)": {
        "details": "Make the fusion between two items, create the composition, the new name, continent and tokenId"
      },
      "getApproved(uint256)": {
        "details": "See {IERC721-getApproved}."
      },
      "getLockedItems()": {
        "details": "Gives to the administrator a list of tokenId locked"
      },
      "getReward()": {
        "details": "Transform the reward as a NFT"
      },
      "isApprovedForAll(address,address)": {
        "details": "See {IERC721-isApprovedForAll}."
      },
      "lock(uint256)": {
        "details": "Administrator locks items "
      },
      "name()": {
        "details": "See {IERC721Metadata-name}."
      },
      "owner()": {
        "details": "Returns the address of the current owner."
      },
      "ownerOf(uint256)": {
        "details": "See {IERC721-ownerOf}."
      },
      "renounceOwnership()": {
        "details": "Leaves the contract without owner. It will not be possible to call `onlyOwner` functions anymore. Can only be called by the current owner. NOTE: Renouncing ownership will leave the contract without an owner, thereby removing any functionality that is only available to the owner."
      },
      "safeTransferFrom(address,address,uint256)": {
        "details": "See {IERC721-safeTransferFrom}."
      },
      "safeTransferFrom(address,address,uint256,bytes)": {
        "details": "See {IERC721-safeTransferFrom}."
      },
      "setApprovalForAll(address,bool)": {
        "details": "See {IERC721-setApprovalForAll}."
      },
      "setMultiversePlayer(address,string)": {
        "details": "link a login with a player. The login must be the exact same one than the one used in POW"
      },
      "supportsInterface(bytes4)": {
        "details": "See {IERC165-supportsInterface}."
      },
      "symbol()": {
        "details": "See {IERC721Metadata-symbol}."
      },
      "tokenByIndex(uint256)": {
        "details": "See {IERC721Enumerable-tokenByIndex}."
      },
      "tokenOfOwnerByIndex(address,uint256)": {
        "details": "See {IERC721Enumerable-tokenOfOwnerByIndex}."
      },
      "tokenURI(uint256)": {
        "details": "See {IERC721Metadata-tokenURI}."
      },
      "totalSupply()": {
        "details": "See {IERC721Enumerable-totalSupply}."
      },
      "transferFrom(address,address,uint256)": {
        "details": "See {IERC721-transferFrom}."
      },
      "transferOwnership(address)": {
        "details": "Transfers ownership of the contract to a new account (`newOwner`). Can only be called by the current owner."
      },
      "unlock(uint256)": {
        "details": "Administrator unlocks items"
      },
      "updateMultiversePlayer(string,uint8,uint8)": {
        "details": "Update the data of a registered player. The adnministrator Only can set this. In the future, the oracle will do that"
      }
    },
    "title": "Lock and unlock items",
    "version": 1
  },
  "userdoc": {
    "kind": "user",
    "methods": {},
    "version": 1
  }
}