{
  "contractName": "unlockItems",
  "abi": [
    {
      "anonymous": false,
      "inputs": [
        {
          "indexed": true,
          "internalType": "address",
          "name": "owner",
          "type": "address"
        },
        {
          "indexed": true,
          "internalType": "address",
          "name": "approved",
          "type": "address"
        },
        {
          "indexed": true,
          "internalType": "uint256",
          "name": "tokenId",
          "type": "uint256"
        }
      ],
      "name": "Approval",
      "type": "event"
    },
    {
      "anonymous": false,
      "inputs": [
        {
          "indexed": true,
          "internalType": "address",
          "name": "owner",
          "type": "address"
        },
        {
          "indexed": true,
          "internalType": "address",
          "name": "operator",
          "type": "address"
        },
        {
          "indexed": false,
          "internalType": "bool",
          "name": "approved",
          "type": "bool"
        }
      ],
      "name": "ApprovalForAll",
      "type": "event"
    },
    {
      "anonymous": false,
      "inputs": [
        {
          "indexed": false,
          "internalType": "address",
          "name": "addressPlayer",
          "type": "address"
        },
        {
          "indexed": false,
          "internalType": "string",
          "name": "loginPlayer",
          "type": "string"
        }
      ],
      "name": "NewPlayerRegistered",
      "type": "event"
    },
    {
      "anonymous": false,
      "inputs": [
        {
          "indexed": true,
          "internalType": "address",
          "name": "previousOwner",
          "type": "address"
        },
        {
          "indexed": true,
          "internalType": "address",
          "name": "newOwner",
          "type": "address"
        }
      ],
      "name": "OwnershipTransferred",
      "type": "event"
    },
    {
      "anonymous": false,
      "inputs": [
        {
          "indexed": true,
          "internalType": "address",
          "name": "from",
          "type": "address"
        },
        {
          "indexed": true,
          "internalType": "address",
          "name": "to",
          "type": "address"
        },
        {
          "indexed": true,
          "internalType": "uint256",
          "name": "tokenId",
          "type": "uint256"
        }
      ],
      "name": "Transfer",
      "type": "event"
    },
    {
      "anonymous": false,
      "inputs": [
        {
          "indexed": false,
          "internalType": "uint256",
          "name": "tokenId",
          "type": "uint256"
        }
      ],
      "name": "fusionnedItemCreate",
      "type": "event"
    },
    {
      "anonymous": false,
      "inputs": [
        {
          "indexed": false,
          "internalType": "uint256",
          "name": "tokenId",
          "type": "uint256"
        }
      ],
      "name": "lockItem",
      "type": "event"
    },
    {
      "anonymous": false,
      "inputs": [
        {
          "indexed": false,
          "internalType": "string",
          "name": "login",
          "type": "string"
        }
      ],
      "name": "playerUpdated",
      "type": "event"
    },
    {
      "anonymous": false,
      "inputs": [
        {
          "indexed": false,
          "internalType": "uint256",
          "name": "tokenId",
          "type": "uint256"
        }
      ],
      "name": "rewardWithdrawn",
      "type": "event"
    },
    {
      "inputs": [
        {
          "internalType": "address",
          "name": "to",
          "type": "address"
        },
        {
          "internalType": "uint256",
          "name": "tokenId",
          "type": "uint256"
        }
      ],
      "name": "approve",
      "outputs": [],
      "stateMutability": "nonpayable",
      "type": "function"
    },
    {
      "inputs": [
        {
          "internalType": "address",
          "name": "owner",
          "type": "address"
        }
      ],
      "name": "balanceOf",
      "outputs": [
        {
          "internalType": "uint256",
          "name": "",
          "type": "uint256"
        }
      ],
      "stateMutability": "view",
      "type": "function"
    },
    {
      "inputs": [
        {
          "internalType": "uint256",
          "name": "_type",
          "type": "uint256"
        },
        {
          "internalType": "string",
          "name": "_name",
          "type": "string"
        },
        {
          "internalType": "uint8",
          "name": "_continent",
          "type": "uint8"
        }
      ],
      "name": "createItem",
      "outputs": [],
      "stateMutability": "nonpayable",
      "type": "function"
    },
    {
      "inputs": [
        {
          "internalType": "uint256",
          "name": "",
          "type": "uint256"
        }
      ],
      "name": "exemplaireNumbers",
      "outputs": [
        {
          "internalType": "uint256",
          "name": "",
          "type": "uint256"
        }
      ],
      "stateMutability": "view",
      "type": "function"
    },
    {
      "inputs": [
        {
          "internalType": "uint256",
          "name": "_myItemId1",
          "type": "uint256"
        },
        {
          "internalType": "uint256",
          "name": "_myItemId2",
          "type": "uint256"
        }
      ],
      "name": "fusionItem",
      "outputs": [],
      "stateMutability": "nonpayable",
      "type": "function"
    },
    {
      "inputs": [
        {
          "internalType": "uint256",
          "name": "tokenId",
          "type": "uint256"
        }
      ],
      "name": "getApproved",
      "outputs": [
        {
          "internalType": "address",
          "name": "",
          "type": "address"
        }
      ],
      "stateMutability": "view",
      "type": "function"
    },
    {
      "inputs": [
        {
          "internalType": "uint8",
          "name": "_level",
          "type": "uint8"
        }
      ],
      "name": "getAvailableItem",
      "outputs": [
        {
          "internalType": "uint256",
          "name": "",
          "type": "uint256"
        }
      ],
      "stateMutability": "view",
      "type": "function"
    },
    {
      "inputs": [],
      "name": "getReward",
      "outputs": [],
      "stateMutability": "nonpayable",
      "type": "function"
    },
    {
      "inputs": [
        {
          "internalType": "address",
          "name": "owner",
          "type": "address"
        },
        {
          "internalType": "address",
          "name": "operator",
          "type": "address"
        }
      ],
      "name": "isApprovedForAll",
      "outputs": [
        {
          "internalType": "bool",
          "name": "",
          "type": "bool"
        }
      ],
      "stateMutability": "view",
      "type": "function"
    },
    {
      "inputs": [
        {
          "internalType": "uint256",
          "name": "",
          "type": "uint256"
        }
      ],
      "name": "items",
      "outputs": [
        {
          "internalType": "string",
          "name": "name",
          "type": "string"
        },
        {
          "internalType": "uint8",
          "name": "levelItem",
          "type": "uint8"
        },
        {
          "internalType": "uint8",
          "name": "continent",
          "type": "uint8"
        },
        {
          "internalType": "uint256",
          "name": "tokenId",
          "type": "uint256"
        },
        {
          "internalType": "uint256",
          "name": "composition",
          "type": "uint256"
        },
        {
          "internalType": "bool",
          "name": "locked",
          "type": "bool"
        },
        {
          "internalType": "bool",
          "name": "onSold",
          "type": "bool"
        }
      ],
      "stateMutability": "view",
      "type": "function"
    },
    {
      "inputs": [
        {
          "internalType": "address",
          "name": "",
          "type": "address"
        }
      ],
      "name": "multiverseData",
      "outputs": [
        {
          "internalType": "string",
          "name": "login",
          "type": "string"
        },
        {
          "internalType": "uint8",
          "name": "rewardLv1",
          "type": "uint8"
        },
        {
          "internalType": "uint8",
          "name": "rewardLv2",
          "type": "uint8"
        },
        {
          "internalType": "bool",
          "name": "isRegistered",
          "type": "bool"
        }
      ],
      "stateMutability": "view",
      "type": "function"
    },
    {
      "inputs": [
        {
          "internalType": "string",
          "name": "",
          "type": "string"
        }
      ],
      "name": "multiverseIds",
      "outputs": [
        {
          "internalType": "address",
          "name": "",
          "type": "address"
        }
      ],
      "stateMutability": "view",
      "type": "function"
    },
    {
      "inputs": [],
      "name": "name",
      "outputs": [
        {
          "internalType": "string",
          "name": "",
          "type": "string"
        }
      ],
      "stateMutability": "view",
      "type": "function"
    },
    {
      "inputs": [],
      "name": "owner",
      "outputs": [
        {
          "internalType": "address",
          "name": "",
          "type": "address"
        }
      ],
      "stateMutability": "view",
      "type": "function"
    },
    {
      "inputs": [
        {
          "internalType": "uint256",
          "name": "tokenId",
          "type": "uint256"
        }
      ],
      "name": "ownerOf",
      "outputs": [
        {
          "internalType": "address",
          "name": "",
          "type": "address"
        }
      ],
      "stateMutability": "view",
      "type": "function"
    },
    {
      "inputs": [],
      "name": "renounceOwnership",
      "outputs": [],
      "stateMutability": "nonpayable",
      "type": "function"
    },
    {
      "inputs": [
        {
          "internalType": "address",
          "name": "from",
          "type": "address"
        },
        {
          "internalType": "address",
          "name": "to",
          "type": "address"
        },
        {
          "internalType": "uint256",
          "name": "tokenId",
          "type": "uint256"
        }
      ],
      "name": "safeTransferFrom",
      "outputs": [],
      "stateMutability": "nonpayable",
      "type": "function"
    },
    {
      "inputs": [
        {
          "internalType": "address",
          "name": "from",
          "type": "address"
        },
        {
          "internalType": "address",
          "name": "to",
          "type": "address"
        },
        {
          "internalType": "uint256",
          "name": "tokenId",
          "type": "uint256"
        },
        {
          "internalType": "bytes",
          "name": "_data",
          "type": "bytes"
        }
      ],
      "name": "safeTransferFrom",
      "outputs": [],
      "stateMutability": "nonpayable",
      "type": "function"
    },
    {
      "inputs": [
        {
          "internalType": "address",
          "name": "operator",
          "type": "address"
        },
        {
          "internalType": "bool",
          "name": "approved",
          "type": "bool"
        }
      ],
      "name": "setApprovalForAll",
      "outputs": [],
      "stateMutability": "nonpayable",
      "type": "function"
    },
    {
      "inputs": [
        {
          "internalType": "address",
          "name": "_addressPlayer",
          "type": "address"
        },
        {
          "internalType": "string",
          "name": "_login",
          "type": "string"
        }
      ],
      "name": "setMultiversePlayer",
      "outputs": [],
      "stateMutability": "nonpayable",
      "type": "function"
    },
    {
      "inputs": [
        {
          "internalType": "bytes4",
          "name": "interfaceId",
          "type": "bytes4"
        }
      ],
      "name": "supportsInterface",
      "outputs": [
        {
          "internalType": "bool",
          "name": "",
          "type": "bool"
        }
      ],
      "stateMutability": "view",
      "type": "function"
    },
    {
      "inputs": [],
      "name": "symbol",
      "outputs": [
        {
          "internalType": "string",
          "name": "",
          "type": "string"
        }
      ],
      "stateMutability": "view",
      "type": "function"
    },
    {
      "inputs": [
        {
          "internalType": "uint256",
          "name": "index",
          "type": "uint256"
        }
      ],
      "name": "tokenByIndex",
      "outputs": [
        {
          "internalType": "uint256",
          "name": "",
          "type": "uint256"
        }
      ],
      "stateMutability": "view",
      "type": "function"
    },
    {
      "inputs": [
        {
          "internalType": "address",
          "name": "owner",
          "type": "address"
        },
        {
          "internalType": "uint256",
          "name": "index",
          "type": "uint256"
        }
      ],
      "name": "tokenOfOwnerByIndex",
      "outputs": [
        {
          "internalType": "uint256",
          "name": "",
          "type": "uint256"
        }
      ],
      "stateMutability": "view",
      "type": "function"
    },
    {
      "inputs": [
        {
          "internalType": "uint256",
          "name": "tokenId",
          "type": "uint256"
        }
      ],
      "name": "tokenURI",
      "outputs": [
        {
          "internalType": "string",
          "name": "",
          "type": "string"
        }
      ],
      "stateMutability": "view",
      "type": "function"
    },
    {
      "inputs": [],
      "name": "totalSupply",
      "outputs": [
        {
          "internalType": "uint256",
          "name": "",
          "type": "uint256"
        }
      ],
      "stateMutability": "view",
      "type": "function"
    },
    {
      "inputs": [
        {
          "internalType": "address",
          "name": "from",
          "type": "address"
        },
        {
          "internalType": "address",
          "name": "to",
          "type": "address"
        },
        {
          "internalType": "uint256",
          "name": "tokenId",
          "type": "uint256"
        }
      ],
      "name": "transferFrom",
      "outputs": [],
      "stateMutability": "nonpayable",
      "type": "function"
    },
    {
      "inputs": [
        {
          "internalType": "address",
          "name": "newOwner",
          "type": "address"
        }
      ],
      "name": "transferOwnership",
      "outputs": [],
      "stateMutability": "nonpayable",
      "type": "function"
    },
    {
      "inputs": [
        {
          "internalType": "string",
          "name": "_login",
          "type": "string"
        },
        {
          "internalType": "uint8",
          "name": "_rewardLv1",
          "type": "uint8"
        },
        {
          "internalType": "uint8",
          "name": "_rewardLv2",
          "type": "uint8"
        }
      ],
      "name": "updateMultiversePlayer",
      "outputs": [],
      "stateMutability": "nonpayable",
      "type": "function"
    },
    {
      "inputs": [],
      "name": "getLockedItems",
      "outputs": [
        {
          "internalType": "uint256[]",
          "name": "",
          "type": "uint256[]"
        }
      ],
      "stateMutability": "view",
      "type": "function"
    },
    {
      "inputs": [
        {
          "internalType": "uint256",
          "name": "_Id",
          "type": "uint256"
        }
      ],
      "name": "unlock",
      "outputs": [],
      "stateMutability": "nonpayable",
      "type": "function"
    },
    {
      "inputs": [
        {
          "internalType": "uint256",
          "name": "_Id",
          "type": "uint256"
        }
      ],
      "name": "lock",
      "outputs": [],
      "stateMutability": "nonpayable",
      "type": "function"
    }
  ],
  "bytecode": "0x60806040526001600e556002600f55600360105560016013553480156200002557600080fd5b506040805180820182526007815266706f77556e697160c81b602080830191825283518085019094526003845262504f5760e81b908401528151919291620000709160009162000111565b5080516200008690600190602084019062000111565b505050620000a36200009d620000bb60201b60201c565b620000bf565b600b80546001600160a01b03191633179055620001f4565b3390565b600a80546001600160a01b038381166001600160a01b0319831681179093556040519116919082907f8be0079c531659141344cd1fd0a4f28419497f9722a3daafe3b4186f6b6457e090600090a35050565b8280546200011f90620001b7565b90600052602060002090601f0160209004810192826200014357600085556200018e565b82601f106200015e57805160ff19168380011785556200018e565b828001600101855582156200018e579182015b828111156200018e57825182559160200191906001019062000171565b506200019c929150620001a0565b5090565b5b808211156200019c5760008155600101620001a1565b600281046001821680620001cc57607f821691505b60208210811415620001ee57634e487b7160e01b600052602260045260246000fd5b50919050565b613b9a80620002046000396000f3fe608060405234801561001057600080fd5b50600436106101b05760003560e01c80637538822e116100ef578063bfb231d211610092578063bfb231d21461038a578063c87b56dd146103b0578063d9f92329146103c3578063dd467064146103d6578063e985e9c5146103e9578063e9dbd45a146103fc578063f2fde38b1461040f578063fd12f09814610422576101b0565b80637538822e146102f857806375adb7fd1461030b5780638da5cb5b1461032e57806395d89b41146103365780639b008e471461033e578063a22cb46514610351578063b6a4029614610364578063b88d4fde14610377576101b0565b80633d18b912116101575780633d18b9121461027657806342842e0e1461027e5780634f6ccce7146102915780636198e339146102a45780636352211e146102b7578063661c2b60146102ca57806370a08231146102dd578063715018a6146102f0576101b0565b806301ffc9a7146101b557806306fdde03146101de578063081812fc146101f3578063095ea7b31461021357806318160ddd146102285780631f5710891461023d57806323b872dd146102505780632f745c5914610263575b600080fd5b6101c86101c3366004612d74565b610437565b6040516101d591906130fa565b60405180910390f35b6101e6610464565b6040516101d59190613105565b610206610201366004612e39565b6104f6565b6040516101d59190613041565b610226610221366004612d4b565b610542565b005b6102306105da565b6040516101d591906139e8565b61022661024b366004612e51565b6105e0565b61022661025e366004612c13565b610808565b610230610271366004612d4b565b610840565b610226610892565b61022661028c366004612c13565b610afd565b61023061029f366004612e39565b610b18565b6102266102b2366004612e39565b610b73565b6102066102c5366004612e39565b610c2a565b6102306102d8366004612e39565b610c5f565b6102306102eb366004612bc7565b610c71565b610226610cb5565b610226610306366004612dde565b610cfe565b61031e610319366004612bc7565b610e99565b6040516101d59493929190613118565b610206610f53565b6101e6610f62565b61022661034c366004612d00565b610f71565b61022661035f366004612cc6565b6110ae565b610226610372366004612e9c565b61117c565b610226610385366004612c4e565b611567565b61039d610398366004612e39565b6115a6565b6040516101d5979695949392919061314d565b6101e66103be366004612e39565b61168b565b6102306103d1366004612ebd565b61170e565b6102266103e4366004612e39565b611a17565b6101c86103f7366004612be1565b611aaa565b61020661040a366004612dac565b611ad8565b61022661041d366004612bc7565b611afe565b61042a611b6f565b6040516101d591906130b6565b60006001600160e01b0319821663780e9d6360e01b148061045c575061045c82611ebc565b90505b919050565b60606000805461047390613aa2565b80601f016020809104026020016040519081016040528092919081815260200182805461049f90613aa2565b80156104ec5780601f106104c1576101008083540402835291602001916104ec565b820191906000526020600020905b8154815290600101906020018083116104cf57829003601f168201915b5050505050905090565b600061050182611efc565b6105265760405162461bcd60e51b815260040161051d906136f0565b60405180910390fd5b506000908152600460205260409020546001600160a01b031690565b600061054d82610c2a565b9050806001600160a01b0316836001600160a01b031614156105815760405162461bcd60e51b815260040161051d90613809565b806001600160a01b0316610593611f19565b6001600160a01b031614806105af57506105af816103f7611f19565b6105cb5760405162461bcd60e51b815260040161051d906134f3565b6105d58383611f1d565b505050565b60085490565b6105e8611f19565b6001600160a01b03166105f9610f53565b6001600160a01b03161461061f5760405162461bcd60e51b815260040161051d9061373c565b601154600e54600091829182918291829089141561066f5761064088611f8b565b9550610668604051806040016040528060058152602001643830b832b960d91b815250611fc4565b9450600290505b600f548914156106895761068288611fc4565b9450600290505b6010548914156106a35761069c88611f8b565b9550600190505b601260006106b18888612008565b81526020019081526020016000205460016106cc91906139fd565b93506106d9868686612021565b925083601260006106ea8989612008565b8152602081019190915260400160002055610705338361204c565b6040805160e08101825289815260ff808416602080840191909152908a16928201929092526060810184905260808101859052600060a0820181905260c0820181905260118054600181018255915281518051929360059092027f31ecc21a745e3968a04e9570e4425bc18fa8019c68028196b546d1669c200c68019261078f9284920190612a72565b506020820151600182018054604085015160ff90811661010090810261ff00199290951660ff1993841617821694909417909255606085015160028501556080850151600385015560a08501516004909401805460c0909601511515909302931515941693909317909216179055505050505050505050565b610819610813611f19565b8261206a565b6108355760405162461bcd60e51b815260040161051d90613881565b6105d58383836120e7565b600061084b83610c71565b82106108695760405162461bcd60e51b815260040161051d9061322c565b506001600160a01b03919091166000908152600660209081526040808320938352929052205490565b600b546108a7906001600160a01b0316610c71565b6108c35760405162461bcd60e51b815260040161051d9061384a565b336000908152600d602052604090206001015462010000900460ff166108fb5760405162461bcd60e51b815260040161051d906131fc565b336000908152600d602052604090206001015460ff161515806109375750336000908152600d6020526040902060010154610100900460ff1615155b6109535760405162461bcd60e51b815260040161051d906136b9565b6013805490600061096383613add565b9091555050336000908152600d602052604090206001015460ff1615610a2c57336000908152600d602052604090206001015460ff165b8015610a105760006109ac600161170e565b600b549091506109c6906001600160a01b031633836120e7565b7f685b919316cd6e6eb2dcaf93a1343fad493c1b38394a41031a14c413547c6ad4816040516109f591906139e8565b60405180910390a15080610a0881613a8b565b91505061099a565b50336000908152600d60205260409020600101805460ff191690555b336000908152600d6020526040902060010154610100900460ff1615610afb57336000908152600d6020526040902060010154610100900460ff165b8015610ade576000610a7a600261170e565b600b54909150610a94906001600160a01b031633836120e7565b7f685b919316cd6e6eb2dcaf93a1343fad493c1b38394a41031a14c413547c6ad481604051610ac391906139e8565b60405180910390a15080610ad681613a8b565b915050610a68565b50336000908152600d60205260409020600101805461ff00191690555b565b6105d583838360405180602001604052806000815250611567565b6000610b226105da565b8210610b405760405162461bcd60e51b815260040161051d90613926565b60088281548110610b6157634e487b7160e01b600052603260045260246000fd5b90600052602060002001549050919050565b610b7b611f19565b6001600160a01b0316610b8c610f53565b6001600160a01b031614610bb25760405162461bcd60e51b815260040161051d9061373c565b33610bbc82610c2a565b6001600160a01b031614610be25760405162461bcd60e51b815260040161051d90613972565b600060118281548110610c0557634e487b7160e01b600052603260045260246000fd5b60009182526020909120600590910201600401805460ff191691151591909117905550565b6000818152600260205260408120546001600160a01b03168061045c5760405162461bcd60e51b815260040161051d906135de565b60126020526000908152604090205481565b60006001600160a01b038216610c995760405162461bcd60e51b815260040161051d90613594565b506001600160a01b031660009081526003602052604090205490565b610cbd611f19565b6001600160a01b0316610cce610f53565b6001600160a01b031614610cf45760405162461bcd60e51b815260040161051d9061373c565b610afb6000612214565b600b546001600160a01b03163314610d285760405162461bcd60e51b815260040161051d9061354b565b600d6000600c85604051610d3c9190612f9b565b9081526040805160209281900383019020546001600160a01b03168352908201929092520160002060019081015462010000900460ff16151514610d925760405162461bcd60e51b815260040161051d906138d2565b60405180608001604052808481526020018360ff1681526020018260ff16815260200160011515815250600d6000600c86604051610dd09190612f9b565b9081526040805160209281900383019020546001600160a01b03168352828201939093529101600020825180519192610e0e92849290910190612a72565b506020820151600190910180546040808501516060909501511515620100000262ff00001960ff9687166101000261ff00199790961660ff199094169390931795909516939093171692909217909155517faa6183438646fc8bb56f82868ce90c0a5bd1301970b115e976c90c1d696a155090610e8c908590613105565b60405180910390a1505050565b600d60205260009081526040902080548190610eb490613aa2565b80601f0160208091040260200160405190810160405280929190818152602001828054610ee090613aa2565b8015610f2d5780601f10610f0257610100808354040283529160200191610f2d565b820191906000526020600020905b815481529060010190602001808311610f1057829003601f168201915b5050506001909301549192505060ff808216916101008104821691620100009091041684565b600a546001600160a01b031690565b60606001805461047390613aa2565b600b546001600160a01b0316331480610f925750336001600160a01b038316145b610fae5760405162461bcd60e51b815260040161051d9061341c565b600d6000600c83604051610fc29190612f9b565b9081526040805160209281900383019020546001600160a01b0316835290820192909252016000206001015462010000900460ff16156110145760405162461bcd60e51b815260040161051d90613466565b81600c826040516110259190612f9b565b908152604080516020928190038301812080546001600160a01b0319166001600160a01b039586161790559285166000908152600d909252902060010180546201000062ff0000199091161790557fd1271c0a878b06e77c2b145e81fda258074d1d9f72d29461da6de567fe185db3906110a29084908490613092565b60405180910390a15050565b6110b6611f19565b6001600160a01b0316826001600160a01b031614156110e75760405162461bcd60e51b815260040161051d906133e9565b80600560006110f4611f19565b6001600160a01b03908116825260208083019390935260409182016000908120918716808252919093529120805460ff191692151592909217909155611138611f19565b6001600160a01b03167f17307eab39ab6107e8899845ad3d59bd9653f200f220920489ca2b5937696c318360405161117091906130fa565b60405180910390a35050565b3361118683610c2a565b6001600160a01b03161480156111ac5750336111a182610c2a565b6001600160a01b0316145b6111c85760405162461bcd60e51b815260040161051d906139b5565b601182815481106111e957634e487b7160e01b600052603260045260246000fd5b600091825260209091206005909102016001015460ff16600214801561124657506011818154811061122b57634e487b7160e01b600052603260045260246000fd5b600091825260209091206005909102016001015460ff166002145b6112625760405162461bcd60e51b815260040161051d90613198565b61126b82612266565b801561127d575061127b81612266565b155b8061129d575061128c82612266565b15801561129d575061129d81612266565b6112b95760405162461bcd60e51b815260040161051d906131ca565b6011546040805180820190915260018152600160fd1b60208201526000919082906060906112e687612266565b1561133e576112f587876122be565b94506011878154811061131857634e487b7160e01b600052603260045260246000fd5b906000526020600020906005020160010160019054906101000a900460ff16925061138d565b61134886886122be565b94506011868154811061136b57634e487b7160e01b600052603260045260246000fd5b906000526020600020906005020160010160019054906101000a900460ff1692505b601187815481106113ae57634e487b7160e01b600052603260045260246000fd5b906000526020600020906005020160000181601188815481106113e157634e487b7160e01b600052603260045260246000fd5b906000526020600020906005020160000160405160200161140493929190612fe6565b604051602081830303815290604052915061141e876123a9565b611427866123a9565b6040805160e081018252838152600360208083019190915260ff8616928201929092526060810186905260808101879052600060a0820181905260c0820181905260118054600181018255915281518051929360059092027f31ecc21a745e3968a04e9570e4425bc18fa8019c68028196b546d1669c200c6801926114af9284920190612a72565b506020820151600182018054604085015160ff90811661010090810261ff00199290951660ff1993841617821694909417909255606085015160028501556080850151600385015560a08501516004909401805460c0909601511515909302931515941693909317909216179055611527338561204c565b7f073e229b017abef20a1f46a057285c5070d61c6253a90247a0687502f7da518a8460405161155691906139e8565b60405180910390a150505050505050565b611578611572611f19565b8361206a565b6115945760405162461bcd60e51b815260040161051d90613881565b6115a084848484612440565b50505050565b601181815481106115b657600080fd5b90600052602060002090600502016000915090508060000180546115d990613aa2565b80601f016020809104026020016040519081016040528092919081815260200182805461160590613aa2565b80156116525780601f1061162757610100808354040283529160200191611652565b820191906000526020600020905b81548152906001019060200180831161163557829003601f168201915b505050600184015460028501546003860154600490960154949560ff808416966101009485900482169650929450909282821692041687565b606061169682611efc565b6116b25760405162461bcd60e51b815260040161051d906137ba565b60006116bc612473565b905060008151116116dc5760405180602001604052806000815250611707565b806116e684612485565b6040516020016116f7929190612fb7565b6040516020818303038152906040525b9392505050565b6000806000805b600b5461172a906001600160a01b0316610c71565b81101561180157600b5460119061174a906001600160a01b031683610840565b8154811061176857634e487b7160e01b600052603260045260246000fd5b600091825260209091206004600590920201015460ff161580156117dc5750600b5460ff8616906011906117a5906001600160a01b031684610840565b815481106117c357634e487b7160e01b600052603260045260246000fd5b600091825260209091206001600590920201015460ff16145b156117ef57826117eb81613add565b9350505b806117f981613add565b915050611715565b508161181f5760405162461bcd60e51b815260040161051d90613627565b6000826001600160401b0381111561184757634e487b7160e01b600052604160045260246000fd5b604051908082528060200260200182016040528015611870578160200160208202803683370190505b50905060005b600b5461188b906001600160a01b0316610c71565b8110156119a357600b546011906118ab906001600160a01b031683610840565b815481106118c957634e487b7160e01b600052603260045260246000fd5b600091825260209091206004600590920201015460ff1615801561193d5750600b5460ff871690601190611906906001600160a01b031684610840565b8154811061192457634e487b7160e01b600052603260045260246000fd5b600091825260209091206001600590920201015460ff16145b1561199157600b54611958906001600160a01b031682610840565b82848151811061197857634e487b7160e01b600052603260045260246000fd5b60209081029190910101528261198d81613add565b9350505b8061199b81613add565b915050611876565b506000815142336013546040516020016119bf93929190613019565b6040516020818303038152906040528051906020012060001c6119e29190613af8565b9050818181518110611a0457634e487b7160e01b600052603260045260246000fd5b602002602001015194505050505061045f565b611a1f611f19565b6001600160a01b0316611a30610f53565b6001600160a01b031614611a565760405162461bcd60e51b815260040161051d9061373c565b33611a6082610c2a565b6001600160a01b03161415611a875760405162461bcd60e51b815260040161051d90613972565b600160118281548110610c0557634e487b7160e01b600052603260045260246000fd5b6001600160a01b03918216600090815260056020908152604080832093909416825291909152205460ff1690565b8051602081830181018051600c825292820191909301209152546001600160a01b031681565b611b06611f19565b6001600160a01b0316611b17610f53565b6001600160a01b031614611b3d5760405162461bcd60e51b815260040161051d9061373c565b6001600160a01b038116611b635760405162461bcd60e51b815260040161051d906132f1565b611b6c81612214565b50565b6060611b79611f19565b6001600160a01b0316611b8a610f53565b6001600160a01b031614611bb05760405162461bcd60e51b815260040161051d9061373c565b600b54611bc5906001600160a01b0316610c71565b611be15760405162461bcd60e51b815260040161051d9061336e565b600b546000908190611bfb906001600160a01b0316610c71565b9050600080826001600160401b03811115611c2657634e487b7160e01b600052604160045260246000fd5b604051908082528060200260200182016040528015611c4f578160200160208202803683370190505b50905060005b83811015611d2357600b54611c73906001600160a01b031682610840565b828281518110611c9357634e487b7160e01b600052603260045260246000fd5b6020026020010181815250506011828281518110611cc157634e487b7160e01b600052603260045260246000fd5b602002602001015181548110611ce757634e487b7160e01b600052603260045260246000fd5b600091825260209091206004600590920201015460ff1615611d115784611d0d81613add565b9550505b80611d1b81613add565b915050611c55565b506000846001600160401b03811115611d4c57634e487b7160e01b600052604160045260246000fd5b604051908082528060200260200182016040528015611d75578160200160208202803683370190505b5090508051600014611e9b5760005b84811015611e95576011838281518110611dae57634e487b7160e01b600052603260045260246000fd5b602002602001015181548110611dd457634e487b7160e01b600052603260045260246000fd5b600091825260209091206004600590920201015460ff1615611e83576011838281518110611e1257634e487b7160e01b600052603260045260246000fd5b602002602001015181548110611e3857634e487b7160e01b600052603260045260246000fd5b906000526020600020906005020160020154828581518110611e6a57634e487b7160e01b600052603260045260246000fd5b602090810291909101015283611e7f81613add565b9450505b80611e8d81613add565b915050611d84565b50611eb3565b60405162461bcd60e51b815260040161051d90613277565b94505050505090565b60006001600160e01b031982166380ac58cd60e01b1480611eed57506001600160e01b03198216635b5e139f60e01b145b8061045c575061045c8261259f565b6000908152600260205260409020546001600160a01b0316151590565b3390565b600081815260046020526040902080546001600160a01b0319166001600160a01b0384169081179091558190611f5282610c2a565b6001600160a01b03167f8c5be1e5ebec7d5bd14f71427d1e84f3dd0314c0f7b2291e5b200ac8c7c3b92560405160405180910390a45050565b60006103e882604051602001611fa19190612f9b565b6040516020818303038152906040528051906020012060001c61045c9190613af8565b60006103e782604051602001611fda9190612f9b565b6040516020818303038152906040528051906020012060001c611ffd9190613af8565b61045c9060016139fd565b600081612017846103e8613a29565b61170791906139fd565b60008161202e8585612008565b61203a906103e8613a29565b61204491906139fd565b949350505050565b6120668282604051806020016040528060008152506125b8565b5050565b600061207582611efc565b6120915760405162461bcd60e51b815260040161051d906134a7565b600061209c83610c2a565b9050806001600160a01b0316846001600160a01b031614806120d75750836001600160a01b03166120cc846104f6565b6001600160a01b0316145b8061204457506120448185611aaa565b826001600160a01b03166120fa82610c2a565b6001600160a01b0316146121205760405162461bcd60e51b815260040161051d90613771565b6001600160a01b0382166121465760405162461bcd60e51b815260040161051d906133a5565b6121518383836125eb565b61215c600082611f1d565b6001600160a01b0383166000908152600360205260408120805460019290612185908490613a48565b90915550506001600160a01b03821660009081526003602052604081208054600192906121b39084906139fd565b909155505060008181526002602052604080822080546001600160a01b0319166001600160a01b0386811691821790925591518493918716917fddf252ad1be2c89b69c2b068fc378daa952ba7f163c4a11628f55a4df523b3ef91a4505050565b600a80546001600160a01b038381166001600160a01b0319831681179093556040519116919082907f8be0079c531659141344cd1fd0a4f28419497f9722a3daafe3b4186f6b6457e090600090a35050565b6000620f42406011838154811061228d57634e487b7160e01b600052603260045260246000fd5b9060005260206000209060050201600301546122a99190613a15565b156122b65750600161045f565b50600061045f565b600080601183815481106122e257634e487b7160e01b600052603260045260246000fd5b906000526020600020906005020160030154620f42406011868154811061231957634e487b7160e01b600052603260045260246000fd5b9060005260206000209060050201600301546123359190613a15565b61234290620f4240613a29565b61234c91906139fd565b90506000601281612360620f424085613af8565b815260200190815260200160002054600161237b91906139fd565b90508061238a6103e884613a15565b612396906103e8613a29565b6123a091906139fd565b95945050505050565b6001601182815481106123cc57634e487b7160e01b600052603260045260246000fd5b60009182526020909120600590910201600401805460ff1916911515919091179055600b546124069033906001600160a01b0316836120e7565b7ff626e9712bfc1d05519ae9d87cfe12f82248296f837942a0d818b10080ed4e4c8160405161243591906139e8565b60405180910390a150565b61244b8484846120e7565b61245784848484612674565b6115a05760405162461bcd60e51b815260040161051d9061329f565b60408051602081019091526000815290565b6060816124aa57506040805180820190915260018152600360fc1b602082015261045f565b8160005b81156124d457806124be81613add565b91506124cd9050600a83613a15565b91506124ae565b6000816001600160401b038111156124fc57634e487b7160e01b600052604160045260246000fd5b6040519080825280601f01601f191660200182016040528015612526576020820181803683370190505b5090505b84156120445761253b600183613a48565b9150612548600a86613af8565b6125539060306139fd565b60f81b81838151811061257657634e487b7160e01b600052603260045260246000fd5b60200101906001600160f81b031916908160001a905350612598600a86613a15565b945061252a565b6001600160e01b031981166301ffc9a760e01b14919050565b6125c2838361278f565b6125cf6000848484612674565b6105d55760405162461bcd60e51b815260040161051d9061329f565b6125f68383836105d5565b6001600160a01b0383166126125761260d8161286e565b612635565b816001600160a01b0316836001600160a01b0316146126355761263583826128b2565b6001600160a01b0382166126515761264c8161294f565b6105d5565b826001600160a01b0316826001600160a01b0316146105d5576105d58282612a28565b6000612688846001600160a01b0316612a6c565b1561278457836001600160a01b031663150b7a026126a4611f19565b8786866040518563ffffffff1660e01b81526004016126c69493929190613055565b602060405180830381600087803b1580156126e057600080fd5b505af1925050508015612710575060408051601f3d908101601f1916820190925261270d91810190612d90565b60015b61276a573d80801561273e576040519150601f19603f3d011682016040523d82523d6000602084013e612743565b606091505b5080516127625760405162461bcd60e51b815260040161051d9061329f565b805181602001fd5b6001600160e01b031916630a85bd0160e11b149050612044565b506001949350505050565b6001600160a01b0382166127b55760405162461bcd60e51b815260040161051d90613684565b6127be81611efc565b156127db5760405162461bcd60e51b815260040161051d90613337565b6127e7600083836125eb565b6001600160a01b03821660009081526003602052604081208054600192906128109084906139fd565b909155505060008181526002602052604080822080546001600160a01b0319166001600160a01b03861690811790915590518392907fddf252ad1be2c89b69c2b068fc378daa952ba7f163c4a11628f55a4df523b3ef908290a45050565b600880546000838152600960205260408120829055600182018355919091527ff3f7a9fe364faab93b216da50a3214154f22a0a2b415b23a84c8169e8b636ee30155565b600060016128bf84610c71565b6128c99190613a48565b60008381526007602052604090205490915080821461291c576001600160a01b03841660009081526006602090815260408083208584528252808320548484528184208190558352600790915290208190555b5060009182526007602090815260408084208490556001600160a01b039094168352600681528383209183525290812055565b60085460009061296190600190613a48565b6000838152600960205260408120546008805493945090928490811061299757634e487b7160e01b600052603260045260246000fd5b9060005260206000200154905080600883815481106129c657634e487b7160e01b600052603260045260246000fd5b6000918252602080832090910192909255828152600990915260408082208490558582528120556008805480612a0c57634e487b7160e01b600052603160045260246000fd5b6001900381819060005260206000200160009055905550505050565b6000612a3383610c71565b6001600160a01b039093166000908152600660209081526040808320868452825280832085905593825260079052919091209190915550565b3b151590565b828054612a7e90613aa2565b90600052602060002090601f016020900481019282612aa05760008555612ae6565b82601f10612ab957805160ff1916838001178555612ae6565b82800160010185558215612ae6579182015b82811115612ae6578251825591602001919060010190612acb565b50612af2929150612af6565b5090565b5b80821115612af25760008155600101612af7565b60006001600160401b0380841115612b2557612b25613b38565b604051601f8501601f19908116603f01168101908282118183101715612b4d57612b4d613b38565b81604052809350858152868686011115612b6657600080fd5b858560208301376000602087830101525050509392505050565b80356001600160a01b038116811461045f57600080fd5b600082601f830112612ba7578081fd5b61170783833560208501612b0b565b803560ff8116811461045f57600080fd5b600060208284031215612bd8578081fd5b61170782612b80565b60008060408385031215612bf3578081fd5b612bfc83612b80565b9150612c0a60208401612b80565b90509250929050565b600080600060608486031215612c27578081fd5b612c3084612b80565b9250612c3e60208501612b80565b9150604084013590509250925092565b60008060008060808587031215612c63578081fd5b612c6c85612b80565b9350612c7a60208601612b80565b92506040850135915060608501356001600160401b03811115612c9b578182fd5b8501601f81018713612cab578182fd5b612cba87823560208401612b0b565b91505092959194509250565b60008060408385031215612cd8578182fd5b612ce183612b80565b915060208301358015158114612cf5578182fd5b809150509250929050565b60008060408385031215612d12578182fd5b612d1b83612b80565b915060208301356001600160401b03811115612d35578182fd5b612d4185828601612b97565b9150509250929050565b60008060408385031215612d5d578182fd5b612d6683612b80565b946020939093013593505050565b600060208284031215612d85578081fd5b813561170781613b4e565b600060208284031215612da1578081fd5b815161170781613b4e565b600060208284031215612dbd578081fd5b81356001600160401b03811115612dd2578182fd5b61204484828501612b97565b600080600060608486031215612df2578283fd5b83356001600160401b03811115612e07578384fd5b612e1386828701612b97565b935050612e2260208501612bb6565b9150612e3060408501612bb6565b90509250925092565b600060208284031215612e4a578081fd5b5035919050565b600080600060608486031215612e65578283fd5b8335925060208401356001600160401b03811115612e81578283fd5b612e8d86828701612b97565b925050612e3060408501612bb6565b60008060408385031215612eae578182fd5b50508035926020909101359150565b600060208284031215612ece578081fd5b61170782612bb6565b60008151808452612eef816020860160208601613a5f565b601f01601f19169290920160200192915050565b805460009060028104600180831680612f1d57607f831692505b6020808410821415612f3d57634e487b7160e01b86526022600452602486fd5b818015612f515760018114612f6257612f8f565b60ff19861689528489019650612f8f565b612f6b886139f1565b60005b86811015612f875781548b820152908501908301612f6e565b505084890196505b50505050505092915050565b60008251612fad818460208701613a5f565b9190910192915050565b60008351612fc9818460208801613a5f565b835190830190612fdd818360208801613a5f565b01949350505050565b6000612ff28286612f03565b8451613002818360208901613a5f565b61300e81830186612f03565b979650505050505050565b92835260609190911b6bffffffffffffffffffffffff19166020830152603482015260540190565b6001600160a01b0391909116815260200190565b6001600160a01b038581168252841660208201526040810183905260806060820181905260009061308890830184612ed7565b9695505050505050565b6001600160a01b038316815260406020820181905260009061204490830184612ed7565b6020808252825182820181905260009190848201906040850190845b818110156130ee578351835292840192918401916001016130d2565b50909695505050505050565b901515815260200190565b6000602082526117076020830184612ed7565b60006080825261312b6080830187612ed7565b60ff958616602084015293909416604082015290151560609091015292915050565b600060e0825261316060e083018a612ed7565b60ff988916602084015296909716604082015260608101949094526080840192909252151560a0830152151560c09091015292915050565b6020808252601890820152774e6f6e20667573696f6e6e61626c6520656c656d656e747360401b604082015260600190565b602080825260189082015277436f6d62696e6174696f6e206e6f7420706f737369626c6560401b604082015260600190565b6020808252601690820152752737ba1030903932b3b4ba32b932b210383630bcb2b960511b604082015260600190565b6020808252602b908201527f455243373231456e756d657261626c653a206f776e657220696e646578206f7560408201526a74206f6620626f756e647360a81b606082015260800190565b6020808252600e908201526d4e6f206c6f636b65644974656d7360901b604082015260600190565b60208082526032908201527f4552433732313a207472616e7366657220746f206e6f6e20455243373231526560408201527131b2b4bb32b91034b6b83632b6b2b73a32b960711b606082015260800190565b60208082526026908201527f4f776e61626c653a206e6577206f776e657220697320746865207a65726f206160408201526564647265737360d01b606082015260800190565b6020808252601c908201527f4552433732313a20746f6b656e20616c7265616479206d696e74656400000000604082015260600190565b6020808252601d908201527f4e6f206d6f7265206974656d7320696e20746865206461746162617365000000604082015260600190565b60208082526024908201527f4552433732313a207472616e7366657220746f20746865207a65726f206164646040820152637265737360e01b606082015260800190565b60208082526019908201527822a9219b99189d1030b8383937bb32903a379031b0b63632b960391b604082015260600190565b6020808252602a908201527f796f7520617265206e6f7420617574686f72697a656420746f207365742074686040820152691a5cc81858d8dbdd5b9d60b21b606082015260800190565b60208082526021908201527f7468697320706c6179657220697320616c7265616479207265676973746572656040820152601960fa1b606082015260800190565b6020808252602c908201527f4552433732313a206f70657261746f7220717565727920666f72206e6f6e657860408201526b34b9ba32b73a103a37b5b2b760a11b606082015260800190565b60208082526038908201527f4552433732313a20617070726f76652063616c6c6572206973206e6f74206f776040820152771b995c881b9bdc88185c1c1c9bdd995908199bdc88185b1b60421b606082015260800190565b60208082526029908201527f796f7520617265206e6f7420617574686f72697a656420746f20757064617465604082015268103090383630bcb2b960b91b606082015260800190565b6020808252602a908201527f4552433732313a2062616c616e636520717565727920666f7220746865207a65604082015269726f206164647265737360b01b606082015260800190565b60208082526029908201527f4552433732313a206f776e657220717565727920666f72206e6f6e657869737460408201526832b73a103a37b5b2b760b91b606082015260800190565b6020808252603a908201527f5468657265206973206e6f7420656e6f756768206974656d20617661696c626160408201527f6c652c20706c6561736520636f6d65206261636b206c61746572000000000000606082015260800190565b6020808252818101527f4552433732313a206d696e7420746f20746865207a65726f2061646472657373604082015260600190565b6020808252601a908201527f596f752068617665206e6f207265776172647320746f20676574000000000000604082015260600190565b6020808252602c908201527f4552433732313a20617070726f76656420717565727920666f72206e6f6e657860408201526b34b9ba32b73a103a37b5b2b760a11b606082015260800190565b6020808252818101527f4f776e61626c653a2063616c6c6572206973206e6f7420746865206f776e6572604082015260600190565b60208082526029908201527f4552433732313a207472616e73666572206f6620746f6b656e2074686174206960408201526839903737ba1037bbb760b91b606082015260800190565b6020808252602f908201527f4552433732314d657461646174613a2055524920717565727920666f72206e6f60408201526e3732bc34b9ba32b73a103a37b5b2b760891b606082015260800190565b60208082526021908201527f4552433732313a20617070726f76616c20746f2063757272656e74206f776e656040820152603960f91b606082015260800190565b6020808252601b908201527f4e6f6e6520617661696c61626c65206974656d20666f72206e6f770000000000604082015260600190565b60208082526031908201527f4552433732313a207472616e736665722063616c6c6572206973206e6f74206f6040820152701ddb995c881b9bdc88185c1c1c9bdd9959607a1b606082015260800190565b60208082526034908201527f706c656173652073657420666972737420616e20457468657265756d206164646040820152733932b9b9903337b9103a3434b990383630bcb2b960611b606082015260800190565b6020808252602c908201527f455243373231456e756d657261626c653a20676c6f62616c20696e646578206f60408201526b7574206f6620626f756e647360a01b606082015260800190565b60208082526023908201527f4572726f72202c20746f6b656e206f776e6564206f72206e6f6e206578697374604082015262195b9d60ea1b606082015260800190565b6020808252601990820152784e6f7420746865206f776e6572206f6620746865206974656d60381b604082015260600190565b90815260200190565b60009081526020902090565b60008219821115613a1057613a10613b0c565b500190565b600082613a2457613a24613b22565b500490565b6000816000190483118215151615613a4357613a43613b0c565b500290565b600082821015613a5a57613a5a613b0c565b500390565b60005b83811015613a7a578181015183820152602001613a62565b838111156115a05750506000910152565b600081613a9a57613a9a613b0c565b506000190190565b600281046001821680613ab657607f821691505b60208210811415613ad757634e487b7160e01b600052602260045260246000fd5b50919050565b6000600019821415613af157613af1613b0c565b5060010190565b600082613b0757613b07613b22565b500690565b634e487b7160e01b600052601160045260246000fd5b634e487b7160e01b600052601260045260246000fd5b634e487b7160e01b600052604160045260246000fd5b6001600160e01b031981168114611b6c57600080fdfea2646970667358221220ca2bdef2e7e97164f067fefa4864e1fd603a13ab6f57e585450c779af21d0d7264736f6c63430008010033",
  "immutableReferences": {},
  "source": "// SPDX-License-Identifier: GPL-3.0\r\n\r\npragma solidity 0.8.1;\r\n\r\nimport \"./fusion.sol\";\r\n\r\n/** \r\n * @title Lock and unlock items\r\n * @dev This contract allows the administrator to unlock or lock items in the database\r\n */\r\n \r\ncontract unlockItems is fusion { \r\n \r\n    ///@dev Gives to the administrator a list of tokenId locked\r\n    function getLockedItems() onlyOwner public view returns(uint[] memory) {\r\n        require (balanceOf(_administrator) != 0, \"No more items in the database\");\r\n        \r\n        uint sizeLocked;  \r\n        uint maxSize = balanceOf(_administrator);\r\n        uint count;\r\n        uint[] memory ownedItems = new uint[](maxSize);\r\n        \r\n    \r\n        for (uint i = 0; i < maxSize; i++ ){\r\n          ownedItems[i] = tokenOfOwnerByIndex(_administrator,i);\r\n          if (items[ownedItems[i]].locked){\r\n            sizeLocked ++;\r\n          }\r\n        }\r\n        \r\n        uint[] memory lockedItems = new uint[](sizeLocked);\r\n    \r\n        if (lockedItems.length != 0){\r\n          for(uint i = 0; i < maxSize; i++){\r\n            if(items[ownedItems[i]].locked){\r\n              lockedItems[count] = items[ownedItems[i]].tokenId;\r\n              count ++;\r\n            }\r\n          }\r\n        }else{\r\n          revert(\"No lockedItems\");\r\n        }\r\n        return lockedItems;\r\n      }\r\n\r\n    ///@dev Administrator unlocks items\r\n    function unlock(uint _Id) public onlyOwner {\r\n        require (ownerOf(_Id) == msg.sender, \"Error , token owned or non existent\");\r\n        items[_Id].locked = false;\r\n    }\r\n    \r\n    ///@dev Administrator locks items\r\n    function lock(uint _Id) public onlyOwner {\r\n        require (ownerOf(_Id) != msg.sender, \"Error , token owned or non existent\");\r\n        items[_Id].locked = true;\r\n   \r\n    }\r\n}",
  "sourcePath": "C:/Users/fboud/OneDrive/Documents/Alyra/projetFinal/contracts/unlockItems.sol",
  "compiler": {
    "name": "solc",
    "version": "0.8.1+commit.df193b15.Emscripten.clang"
  },
  "schemaVersion": "3.4.1",
  "updatedAt": "2021-07-29T15:58:20.404Z",
  "devdoc": {
    "details": "This contract allows the administrator to unlock or lock items in the database",
    "kind": "dev",
    "methods": {
      "approve(address,uint256)": {
        "details": "See {IERC721-approve}."
      },
      "balanceOf(address)": {
        "details": "See {IERC721-balanceOf}."
      },
      "createItem(uint256,string,uint8)": {
        "details": "Function allowing to create items. Only the adminstrator can make one"
      },
      "fusionItem(uint256,uint256)": {
        "details": "Make the fusion between two items, create the composition, the new name, continent and tokenId"
      },
      "getApproved(uint256)": {
        "details": "See {IERC721-getApproved}."
      },
      "getAvailableItem(uint8)": {
        "details": "Get an available item in the main database of unlock items. First we create the size of an array, then we fill it with the eligible token  and at the end we send the Id of the won token"
      },
      "getLockedItems()": {
        "details": "Gives to the administrator a list of tokenId locked"
      },
      "getReward()": {
        "details": "Transform the reward as a NFT"
      },
      "isApprovedForAll(address,address)": {
        "details": "See {IERC721-isApprovedForAll}."
      },
      "lock(uint256)": {
        "details": "Administrator locks items"
      },
      "name()": {
        "details": "See {IERC721Metadata-name}."
      },
      "owner()": {
        "details": "Returns the address of the current owner."
      },
      "ownerOf(uint256)": {
        "details": "See {IERC721-ownerOf}."
      },
      "renounceOwnership()": {
        "details": "Leaves the contract without owner. It will not be possible to call `onlyOwner` functions anymore. Can only be called by the current owner. NOTE: Renouncing ownership will leave the contract without an owner, thereby removing any functionality that is only available to the owner."
      },
      "safeTransferFrom(address,address,uint256)": {
        "details": "See {IERC721-safeTransferFrom}."
      },
      "safeTransferFrom(address,address,uint256,bytes)": {
        "details": "See {IERC721-safeTransferFrom}."
      },
      "setApprovalForAll(address,bool)": {
        "details": "See {IERC721-setApprovalForAll}."
      },
      "setMultiversePlayer(address,string)": {
        "details": "link a login with a player. The login must be the exact same one than the one used in POW"
      },
      "supportsInterface(bytes4)": {
        "details": "See {IERC165-supportsInterface}."
      },
      "symbol()": {
        "details": "See {IERC721Metadata-symbol}."
      },
      "tokenByIndex(uint256)": {
        "details": "See {IERC721Enumerable-tokenByIndex}."
      },
      "tokenOfOwnerByIndex(address,uint256)": {
        "details": "See {IERC721Enumerable-tokenOfOwnerByIndex}."
      },
      "tokenURI(uint256)": {
        "details": "See {IERC721Metadata-tokenURI}."
      },
      "totalSupply()": {
        "details": "See {IERC721Enumerable-totalSupply}."
      },
      "transferFrom(address,address,uint256)": {
        "details": "See {IERC721-transferFrom}."
      },
      "transferOwnership(address)": {
        "details": "Transfers ownership of the contract to a new account (`newOwner`). Can only be called by the current owner."
      },
      "unlock(uint256)": {
        "details": "Administrator unlocks items"
      },
      "updateMultiversePlayer(string,uint8,uint8)": {
        "details": "Update the data of a registered player. The adnministrator Only can set this. In the future, the oracle will do that"
      }
    },
    "title": "Lock and unlock items",
    "version": 1
  },
  "userdoc": {
    "kind": "user",
    "methods": {},
    "version": 1
  }
}