{
  "contractName": "unlockItems",
  "abi": [
    {
      "anonymous": false,
      "inputs": [
        {
          "indexed": true,
          "internalType": "address",
          "name": "owner",
          "type": "address"
        },
        {
          "indexed": true,
          "internalType": "address",
          "name": "approved",
          "type": "address"
        },
        {
          "indexed": true,
          "internalType": "uint256",
          "name": "tokenId",
          "type": "uint256"
        }
      ],
      "name": "Approval",
      "type": "event"
    },
    {
      "anonymous": false,
      "inputs": [
        {
          "indexed": true,
          "internalType": "address",
          "name": "owner",
          "type": "address"
        },
        {
          "indexed": true,
          "internalType": "address",
          "name": "operator",
          "type": "address"
        },
        {
          "indexed": false,
          "internalType": "bool",
          "name": "approved",
          "type": "bool"
        }
      ],
      "name": "ApprovalForAll",
      "type": "event"
    },
    {
      "anonymous": false,
      "inputs": [
        {
          "indexed": false,
          "internalType": "address",
          "name": "addressPlayer",
          "type": "address"
        },
        {
          "indexed": false,
          "internalType": "string",
          "name": "loginPlayer",
          "type": "string"
        }
      ],
      "name": "NewPlayerRegistered",
      "type": "event"
    },
    {
      "anonymous": false,
      "inputs": [
        {
          "indexed": true,
          "internalType": "address",
          "name": "previousOwner",
          "type": "address"
        },
        {
          "indexed": true,
          "internalType": "address",
          "name": "newOwner",
          "type": "address"
        }
      ],
      "name": "OwnershipTransferred",
      "type": "event"
    },
    {
      "anonymous": false,
      "inputs": [
        {
          "indexed": true,
          "internalType": "address",
          "name": "from",
          "type": "address"
        },
        {
          "indexed": true,
          "internalType": "address",
          "name": "to",
          "type": "address"
        },
        {
          "indexed": true,
          "internalType": "uint256",
          "name": "tokenId",
          "type": "uint256"
        }
      ],
      "name": "Transfer",
      "type": "event"
    },
    {
      "anonymous": false,
      "inputs": [
        {
          "indexed": false,
          "internalType": "uint256",
          "name": "tokenId",
          "type": "uint256"
        },
        {
          "indexed": true,
          "internalType": "address",
          "name": "_to",
          "type": "address"
        }
      ],
      "name": "fusionnedItemCreate",
      "type": "event"
    },
    {
      "anonymous": false,
      "inputs": [
        {
          "indexed": false,
          "internalType": "uint256",
          "name": "tokenId",
          "type": "uint256"
        }
      ],
      "name": "lockItem",
      "type": "event"
    },
    {
      "anonymous": false,
      "inputs": [],
      "name": "newItemLock",
      "type": "event"
    },
    {
      "anonymous": false,
      "inputs": [],
      "name": "newItemUnlock",
      "type": "event"
    },
    {
      "anonymous": false,
      "inputs": [
        {
          "indexed": false,
          "internalType": "string",
          "name": "login",
          "type": "string"
        }
      ],
      "name": "playerUpdated",
      "type": "event"
    },
    {
      "anonymous": false,
      "inputs": [
        {
          "indexed": false,
          "internalType": "string",
          "name": "tokenName",
          "type": "string"
        },
        {
          "indexed": true,
          "internalType": "address",
          "name": "_to",
          "type": "address"
        }
      ],
      "name": "rewardWithdrawn",
      "type": "event"
    },
    {
      "inputs": [
        {
          "internalType": "address",
          "name": "to",
          "type": "address"
        },
        {
          "internalType": "uint256",
          "name": "tokenId",
          "type": "uint256"
        }
      ],
      "name": "approve",
      "outputs": [],
      "stateMutability": "nonpayable",
      "type": "function"
    },
    {
      "inputs": [
        {
          "internalType": "address",
          "name": "owner",
          "type": "address"
        }
      ],
      "name": "balanceOf",
      "outputs": [
        {
          "internalType": "uint256",
          "name": "",
          "type": "uint256"
        }
      ],
      "stateMutability": "view",
      "type": "function"
    },
    {
      "inputs": [
        {
          "internalType": "uint256",
          "name": "_type",
          "type": "uint256"
        },
        {
          "internalType": "string",
          "name": "_name",
          "type": "string"
        },
        {
          "internalType": "uint8",
          "name": "_continent",
          "type": "uint8"
        }
      ],
      "name": "createItem",
      "outputs": [],
      "stateMutability": "nonpayable",
      "type": "function"
    },
    {
      "inputs": [
        {
          "internalType": "uint256",
          "name": "",
          "type": "uint256"
        }
      ],
      "name": "exemplaireNumbers",
      "outputs": [
        {
          "internalType": "uint256",
          "name": "",
          "type": "uint256"
        }
      ],
      "stateMutability": "view",
      "type": "function"
    },
    {
      "inputs": [
        {
          "internalType": "uint256",
          "name": "_myItemId1",
          "type": "uint256"
        },
        {
          "internalType": "uint256",
          "name": "_myItemId2",
          "type": "uint256"
        }
      ],
      "name": "fusionItem",
      "outputs": [],
      "stateMutability": "nonpayable",
      "type": "function"
    },
    {
      "inputs": [
        {
          "internalType": "uint256",
          "name": "tokenId",
          "type": "uint256"
        }
      ],
      "name": "getApproved",
      "outputs": [
        {
          "internalType": "address",
          "name": "",
          "type": "address"
        }
      ],
      "stateMutability": "view",
      "type": "function"
    },
    {
      "inputs": [],
      "name": "getReward",
      "outputs": [],
      "stateMutability": "nonpayable",
      "type": "function"
    },
    {
      "inputs": [
        {
          "internalType": "address",
          "name": "owner",
          "type": "address"
        },
        {
          "internalType": "address",
          "name": "operator",
          "type": "address"
        }
      ],
      "name": "isApprovedForAll",
      "outputs": [
        {
          "internalType": "bool",
          "name": "",
          "type": "bool"
        }
      ],
      "stateMutability": "view",
      "type": "function"
    },
    {
      "inputs": [
        {
          "internalType": "uint256",
          "name": "",
          "type": "uint256"
        }
      ],
      "name": "items",
      "outputs": [
        {
          "internalType": "string",
          "name": "name",
          "type": "string"
        },
        {
          "internalType": "uint8",
          "name": "levelItem",
          "type": "uint8"
        },
        {
          "internalType": "uint8",
          "name": "continent",
          "type": "uint8"
        },
        {
          "internalType": "uint256",
          "name": "tokenId",
          "type": "uint256"
        },
        {
          "internalType": "uint256",
          "name": "composition",
          "type": "uint256"
        },
        {
          "internalType": "bool",
          "name": "locked",
          "type": "bool"
        },
        {
          "internalType": "bool",
          "name": "onSold",
          "type": "bool"
        }
      ],
      "stateMutability": "view",
      "type": "function"
    },
    {
      "inputs": [
        {
          "internalType": "address",
          "name": "",
          "type": "address"
        }
      ],
      "name": "multiverseData",
      "outputs": [
        {
          "internalType": "string",
          "name": "login",
          "type": "string"
        },
        {
          "internalType": "uint8",
          "name": "rewardLv1",
          "type": "uint8"
        },
        {
          "internalType": "uint8",
          "name": "rewardLv2",
          "type": "uint8"
        },
        {
          "internalType": "bool",
          "name": "isRegistered",
          "type": "bool"
        }
      ],
      "stateMutability": "view",
      "type": "function"
    },
    {
      "inputs": [
        {
          "internalType": "string",
          "name": "",
          "type": "string"
        }
      ],
      "name": "multiverseIds",
      "outputs": [
        {
          "internalType": "address",
          "name": "",
          "type": "address"
        }
      ],
      "stateMutability": "view",
      "type": "function"
    },
    {
      "inputs": [],
      "name": "name",
      "outputs": [
        {
          "internalType": "string",
          "name": "",
          "type": "string"
        }
      ],
      "stateMutability": "view",
      "type": "function"
    },
    {
      "inputs": [],
      "name": "owner",
      "outputs": [
        {
          "internalType": "address",
          "name": "",
          "type": "address"
        }
      ],
      "stateMutability": "view",
      "type": "function"
    },
    {
      "inputs": [
        {
          "internalType": "uint256",
          "name": "tokenId",
          "type": "uint256"
        }
      ],
      "name": "ownerOf",
      "outputs": [
        {
          "internalType": "address",
          "name": "",
          "type": "address"
        }
      ],
      "stateMutability": "view",
      "type": "function"
    },
    {
      "inputs": [],
      "name": "renounceOwnership",
      "outputs": [],
      "stateMutability": "nonpayable",
      "type": "function"
    },
    {
      "inputs": [
        {
          "internalType": "address",
          "name": "from",
          "type": "address"
        },
        {
          "internalType": "address",
          "name": "to",
          "type": "address"
        },
        {
          "internalType": "uint256",
          "name": "tokenId",
          "type": "uint256"
        }
      ],
      "name": "safeTransferFrom",
      "outputs": [],
      "stateMutability": "nonpayable",
      "type": "function"
    },
    {
      "inputs": [
        {
          "internalType": "address",
          "name": "from",
          "type": "address"
        },
        {
          "internalType": "address",
          "name": "to",
          "type": "address"
        },
        {
          "internalType": "uint256",
          "name": "tokenId",
          "type": "uint256"
        },
        {
          "internalType": "bytes",
          "name": "_data",
          "type": "bytes"
        }
      ],
      "name": "safeTransferFrom",
      "outputs": [],
      "stateMutability": "nonpayable",
      "type": "function"
    },
    {
      "inputs": [
        {
          "internalType": "address",
          "name": "operator",
          "type": "address"
        },
        {
          "internalType": "bool",
          "name": "approved",
          "type": "bool"
        }
      ],
      "name": "setApprovalForAll",
      "outputs": [],
      "stateMutability": "nonpayable",
      "type": "function"
    },
    {
      "inputs": [
        {
          "internalType": "address",
          "name": "_addressPlayer",
          "type": "address"
        },
        {
          "internalType": "string",
          "name": "_login",
          "type": "string"
        }
      ],
      "name": "setMultiversePlayer",
      "outputs": [],
      "stateMutability": "nonpayable",
      "type": "function"
    },
    {
      "inputs": [
        {
          "internalType": "bytes4",
          "name": "interfaceId",
          "type": "bytes4"
        }
      ],
      "name": "supportsInterface",
      "outputs": [
        {
          "internalType": "bool",
          "name": "",
          "type": "bool"
        }
      ],
      "stateMutability": "view",
      "type": "function"
    },
    {
      "inputs": [],
      "name": "symbol",
      "outputs": [
        {
          "internalType": "string",
          "name": "",
          "type": "string"
        }
      ],
      "stateMutability": "view",
      "type": "function"
    },
    {
      "inputs": [
        {
          "internalType": "uint256",
          "name": "index",
          "type": "uint256"
        }
      ],
      "name": "tokenByIndex",
      "outputs": [
        {
          "internalType": "uint256",
          "name": "",
          "type": "uint256"
        }
      ],
      "stateMutability": "view",
      "type": "function"
    },
    {
      "inputs": [
        {
          "internalType": "address",
          "name": "owner",
          "type": "address"
        },
        {
          "internalType": "uint256",
          "name": "index",
          "type": "uint256"
        }
      ],
      "name": "tokenOfOwnerByIndex",
      "outputs": [
        {
          "internalType": "uint256",
          "name": "",
          "type": "uint256"
        }
      ],
      "stateMutability": "view",
      "type": "function"
    },
    {
      "inputs": [
        {
          "internalType": "uint256",
          "name": "tokenId",
          "type": "uint256"
        }
      ],
      "name": "tokenURI",
      "outputs": [
        {
          "internalType": "string",
          "name": "",
          "type": "string"
        }
      ],
      "stateMutability": "view",
      "type": "function"
    },
    {
      "inputs": [],
      "name": "totalSupply",
      "outputs": [
        {
          "internalType": "uint256",
          "name": "",
          "type": "uint256"
        }
      ],
      "stateMutability": "view",
      "type": "function"
    },
    {
      "inputs": [
        {
          "internalType": "address",
          "name": "from",
          "type": "address"
        },
        {
          "internalType": "address",
          "name": "to",
          "type": "address"
        },
        {
          "internalType": "uint256",
          "name": "tokenId",
          "type": "uint256"
        }
      ],
      "name": "transferFrom",
      "outputs": [],
      "stateMutability": "nonpayable",
      "type": "function"
    },
    {
      "inputs": [
        {
          "internalType": "address",
          "name": "newOwner",
          "type": "address"
        }
      ],
      "name": "transferOwnership",
      "outputs": [],
      "stateMutability": "nonpayable",
      "type": "function"
    },
    {
      "inputs": [
        {
          "internalType": "string",
          "name": "_login",
          "type": "string"
        },
        {
          "internalType": "uint8",
          "name": "_rewardLv1",
          "type": "uint8"
        },
        {
          "internalType": "uint8",
          "name": "_rewardLv2",
          "type": "uint8"
        }
      ],
      "name": "updateMultiversePlayer",
      "outputs": [],
      "stateMutability": "nonpayable",
      "type": "function"
    },
    {
      "inputs": [],
      "name": "getLockedItems",
      "outputs": [
        {
          "internalType": "uint256[]",
          "name": "",
          "type": "uint256[]"
        }
      ],
      "stateMutability": "view",
      "type": "function"
    },
    {
      "inputs": [
        {
          "internalType": "uint256",
          "name": "_Id",
          "type": "uint256"
        }
      ],
      "name": "unlock",
      "outputs": [],
      "stateMutability": "nonpayable",
      "type": "function"
    },
    {
      "inputs": [
        {
          "internalType": "uint256",
          "name": "_Id",
          "type": "uint256"
        }
      ],
      "name": "lock",
      "outputs": [],
      "stateMutability": "nonpayable",
      "type": "function"
    }
  ],
  "bytecode": "0x60806040526001600e556002600f55600360105560016013553480156200002557600080fd5b506040805180820182526006815265141bddd3919560d21b60208083019182528351808501909452600484526312d3919560e21b908401528151919291620000709160009162000111565b5080516200008690600190602084019062000111565b505050620000a36200009d620000bb60201b60201c565b620000bf565b600b80546001600160a01b03191633179055620001f4565b3390565b600a80546001600160a01b038381166001600160a01b0319831681179093556040519116919082907f8be0079c531659141344cd1fd0a4f28419497f9722a3daafe3b4186f6b6457e090600090a35050565b8280546200011f90620001b7565b90600052602060002090601f0160209004810192826200014357600085556200018e565b82601f106200015e57805160ff19168380011785556200018e565b828001600101855582156200018e579182015b828111156200018e57825182559160200191906001019062000171565b506200019c929150620001a0565b5090565b5b808211156200019c5760008155600101620001a1565b600281046001821680620001cc57607f821691505b60208210811415620001ee57634e487b7160e01b600052602260045260246000fd5b50919050565b613dc780620002046000396000f3fe608060405234801561001057600080fd5b50600436106101a55760003560e01c8063715018a6116100ef578063b88d4fde11610092578063b88d4fde1461036c578063bfb231d21461037f578063c87b56dd146103a5578063dd467064146103b8578063e985e9c5146103cb578063e9dbd45a146103de578063f2fde38b146103f1578063fd12f09814610404576101a5565b8063715018a6146102e55780637538822e146102ed57806375adb7fd146103005780638da5cb5b1461032357806395d89b411461032b5780639b008e4714610333578063a22cb46514610346578063b6a4029614610359576101a5565b80632f745c59116101575780632f745c59146102585780633d18b9121461026b57806342842e0e146102735780634f6ccce7146102865780636198e339146102995780636352211e146102ac578063661c2b60146102bf57806370a08231146102d2576101a5565b806301ffc9a7146101aa57806306fdde03146101d3578063081812fc146101e8578063095ea7b31461020857806318160ddd1461021d5780631f5710891461023257806323b872dd14610245575b600080fd5b6101bd6101b8366004612ef6565b610419565b6040516101ca9190613239565b60405180910390f35b6101db610446565b6040516101ca9190613244565b6101fb6101f6366004612fbb565b6104d8565b6040516101ca9190613180565b61021b610216366004612ecd565b610524565b005b6102256105bc565b6040516101ca9190613c21565b61021b610240366004612fd3565b6105c2565b61021b610253366004612d95565b610827565b610225610266366004612ecd565b61085f565b61021b6108b1565b61021b610281366004612d95565b610b92565b610225610294366004612fbb565b610bad565b61021b6102a7366004612fbb565b610c08565b6101fb6102ba366004612fbb565b610d40565b6102256102cd366004612fbb565b610d75565b6102256102e0366004612d49565b610d87565b61021b610dcb565b61021b6102fb366004612f60565b610e14565b61031361030e366004612d49565b610f94565b6040516101ca9493929190613257565b6101fb61104e565b6101db61105d565b61021b610341366004612e82565b61106c565b61021b610354366004612e48565b6111d2565b61021b61036736600461301e565b6112a0565b61021b61037a366004612dd0565b611695565b61039261038d366004612fbb565b6116d4565b6040516101ca979695949392919061328c565b6101db6103b3366004612fbb565b6117b9565b61021b6103c6366004612fbb565b61183c565b6101bd6103d9366004612d63565b611970565b6101fb6103ec366004612f2e565b61199e565b61021b6103ff366004612d49565b6119c4565b61040c611a35565b6040516101ca91906131f5565b60006001600160e01b0319821663780e9d6360e01b148061043e575061043e82611d35565b90505b919050565b60606000805461045590613ccf565b80601f016020809104026020016040519081016040528092919081815260200182805461048190613ccf565b80156104ce5780601f106104a3576101008083540402835291602001916104ce565b820191906000526020600020905b8154815290600101906020018083116104b157829003601f168201915b5050505050905090565b60006104e382611d75565b6105085760405162461bcd60e51b81526004016104ff906138f2565b60405180910390fd5b506000908152600460205260409020546001600160a01b031690565b600061052f82610d40565b9050806001600160a01b0316836001600160a01b031614156105635760405162461bcd60e51b81526004016104ff90613a0b565b806001600160a01b0316610575611d92565b6001600160a01b031614806105915750610591816103d9611d92565b6105ad5760405162461bcd60e51b81526004016104ff906136be565b6105b78383611d96565b505050565b60085490565b6105ca611d92565b6001600160a01b03166105db61104e565b6001600160a01b0316146106015760405162461bcd60e51b81526004016104ff9061393e565b8261061e5760405162461bcd60e51b81526004016104ff9061363b565b60ff811661063e5760405162461bcd60e51b81526004016104ff9061357d565b601154600e54600091829182918291829089141561068e5761065f88611e04565b9550610687604051806040016040528060058152602001643830b832b960d91b815250611e3d565b9450600290505b600f548914156106a8576106a188611e3d565b9450600290505b6010548914156106c2576106bb88611e04565b9550600190505b601260006106d08888611e81565b81526020019081526020016000205460016106eb9190613c2a565b93506106f8868686611e9a565b925083601260006107098989611e81565b81526020810191909152604001600020556107243383611ec5565b6040805160e08101825289815260ff808416602080840191909152908a16928201929092526060810184905260808101859052600060a0820181905260c0820181905260118054600181018255915281518051929360059092027f31ecc21a745e3968a04e9570e4425bc18fa8019c68028196b546d1669c200c6801926107ae9284920190612bf4565b506020820151600182018054604085015160ff90811661010090810261ff00199290951660ff1993841617821694909417909255606085015160028501556080850151600385015560a08501516004909401805460c0909601511515909302931515941693909317909216179055505050505050505050565b610838610832611d92565b82611ee3565b6108545760405162461bcd60e51b81526004016104ff90613a83565b6105b7838383611f60565b600061086a83610d87565b82106108885760405162461bcd60e51b81526004016104ff906133ec565b506001600160a01b03919091166000908152600660209081526040808320938352929052205490565b600b546108c6906001600160a01b0316610d87565b6108e25760405162461bcd60e51b81526004016104ff90613a4c565b336000908152600d602052604090206001015462010000900460ff1661091a5760405162461bcd60e51b81526004016104ff906133bc565b336000908152600d602052604090206001015460ff161515806109565750336000908152600d6020526040902060010154610100900460ff1615155b6109725760405162461bcd60e51b81526004016104ff906138bb565b6013805490600061098283613d0a565b9091555050336000908152600d602052604090206001015460ff1615610a8657336000908152600d602052604090206001015460ff165b8015610a6a5760006109cb600161208d565b600b549091506109e5906001600160a01b03163383611f60565b336001600160a01b03167f9623300d947502693ac307b1017d04f92b9a1ddd161e89aeff76da5d9a25169460118381548110610a3157634e487b7160e01b600052603260045260246000fd5b9060005260206000209060050201600001604051610a4f91906132d7565b60405180910390a25080610a6281613cb8565b9150506109b9565b50336000908152600d60205260409020600101805460ff191690555b336000908152600d6020526040902060010154610100900460ff1615610b9057336000908152600d6020526040902060010154610100900460ff165b8015610b73576000610ad4600261208d565b600b54909150610aee906001600160a01b03163383611f60565b336001600160a01b03167f9623300d947502693ac307b1017d04f92b9a1ddd161e89aeff76da5d9a25169460118381548110610b3a57634e487b7160e01b600052603260045260246000fd5b9060005260206000209060050201600001604051610b5891906132d7565b60405180910390a25080610b6b81613cb8565b915050610ac2565b50336000908152600d60205260409020600101805461ff00191690555b565b6105b783838360405180602001604052806000815250611695565b6000610bb76105bc565b8210610bd55760405162461bcd60e51b81526004016104ff90613b5f565b60088281548110610bf657634e487b7160e01b600052603260045260246000fd5b90600052602060002001549050919050565b610c10611d92565b6001600160a01b0316610c2161104e565b6001600160a01b031614610c475760405162461bcd60e51b81526004016104ff9061393e565b33610c5182610d40565b6001600160a01b031614610c775760405162461bcd60e51b81526004016104ff90613bab565b60118181548110610c9857634e487b7160e01b600052603260045260246000fd5b600091825260209091206004600590920201015460ff161515600114610cd05760405162461bcd60e51b81526004016104ff90613ad4565b600060118281548110610cf357634e487b7160e01b600052603260045260246000fd5b60009182526020822060059190910201600401805460ff1916921515929092179091556040517f96dad580ff7cb1c15b45feb964108c979a31b52a67d7882e43374ce72d2cb9589190a150565b6000818152600260205260408120546001600160a01b03168061043e5760405162461bcd60e51b81526004016104ff906137e0565b60126020526000908152604090205481565b60006001600160a01b038216610daf5760405162461bcd60e51b81526004016104ff90613796565b506001600160a01b031660009081526003602052604090205490565b610dd3611d92565b6001600160a01b0316610de461104e565b6001600160a01b031614610e0a5760405162461bcd60e51b81526004016104ff9061393e565b610b906000612396565b600b546001600160a01b03163314610e3e5760405162461bcd60e51b81526004016104ff90613716565b600d6000600c85604051610e5291906130da565b9081526040805160209281900383019020546001600160a01b03168352908201929092520160002060019081015462010000900460ff16151514610ea85760405162461bcd60e51b81526004016104ff90613b0b565b81600d6000600c86604051610ebd91906130da565b9081526040805160209281900383019020546001600160a01b031683529082019290925281016000908120600101805460ff191660ff9490941693909317909255518291600d91600c90610f129088906130da565b9081526040805160209281900383019020546001600160a01b03168352908201929092528101600020600101805461ff00191661010060ff949094169390930292909217909155517faa6183438646fc8bb56f82868ce90c0a5bd1301970b115e976c90c1d696a155090610f87908590613244565b60405180910390a1505050565b600d60205260009081526040902080548190610faf90613ccf565b80601f0160208091040260200160405190810160405280929190818152602001828054610fdb90613ccf565b80156110285780601f10610ffd57610100808354040283529160200191611028565b820191906000526020600020905b81548152906001019060200180831161100b57829003601f168201915b5050506001909301549192505060ff808216916101008104821691620100009091041684565b600a546001600160a01b031690565b60606001805461045590613ccf565b600b546001600160a01b031633148061108d5750336001600160a01b038316145b6110a95760405162461bcd60e51b81526004016104ff906135b0565b600d6000600c836040516110bd91906130da565b9081526040805160209281900383019020546001600160a01b0316835290820192909252016000206001015462010000900460ff161561110f5760405162461bcd60e51b81526004016104ff906135fa565b81600c8260405161112091906130da565b908152604080516020928190038301902080546001600160a01b0319166001600160a01b039485161790559184166000908152600d825291909120825161116992840190612bf4565b506001600160a01b0382166000908152600d602052604090819020600101805462ff0000191662010000179055517fd1271c0a878b06e77c2b145e81fda258074d1d9f72d29461da6de567fe185db3906111c690849084906131d1565b60405180910390a15050565b6111da611d92565b6001600160a01b0316826001600160a01b0316141561120b5760405162461bcd60e51b81526004016104ff9061354a565b8060056000611218611d92565b6001600160a01b03908116825260208083019390935260409182016000908120918716808252919093529120805460ff19169215159290921790915561125c611d92565b6001600160a01b03167f17307eab39ab6107e8899845ad3d59bd9653f200f220920489ca2b5937696c31836040516112949190613239565b60405180910390a35050565b336112aa83610d40565b6001600160a01b03161480156112d05750336112c582610d40565b6001600160a01b0316145b6112ec5760405162461bcd60e51b81526004016104ff90613bee565b6011828154811061130d57634e487b7160e01b600052603260045260246000fd5b600091825260209091206005909102016001015460ff16600214801561136a57506011818154811061134f57634e487b7160e01b600052603260045260246000fd5b600091825260209091206005909102016001015460ff166002145b6113865760405162461bcd60e51b81526004016104ff90613358565b61138f826123e8565b80156113a1575061139f816123e8565b155b806113c157506113b0826123e8565b1580156113c157506113c1816123e8565b6113dd5760405162461bcd60e51b81526004016104ff9061338a565b6011546040805180820190915260018152600160fd1b602082015260009190829060609061140a876123e8565b15611462576114198787612440565b94506011878154811061143c57634e487b7160e01b600052603260045260246000fd5b906000526020600020906005020160010160019054906101000a900460ff1692506114b1565b61146c8688612440565b94506011868154811061148f57634e487b7160e01b600052603260045260246000fd5b906000526020600020906005020160010160019054906101000a900460ff1692505b601187815481106114d257634e487b7160e01b600052603260045260246000fd5b9060005260206000209060050201600001816011888154811061150557634e487b7160e01b600052603260045260246000fd5b906000526020600020906005020160000160405160200161152893929190613125565b60405160208183030381529060405291506115428761252b565b61154b8661252b565b6040805160e081018252838152600360208083019190915260ff8616928201929092526060810186905260808101879052600060a0820181905260c0820181905260118054600181018255915281518051929360059092027f31ecc21a745e3968a04e9570e4425bc18fa8019c68028196b546d1669c200c6801926115d39284920190612bf4565b506020820151600182018054604085015160ff90811661010090810261ff00199290951660ff1993841617821694909417909255606085015160028501556080850151600385015560a08501516004909401805460c090960151151590930293151594169390931790921617905561164b3385611ec5565b336001600160a01b03167fad23199c98816edea929c9f85f84a5f67e549ffca931f957dfd259f8d197a7c4856040516116849190613c21565b60405180910390a250505050505050565b6116a66116a0611d92565b83611ee3565b6116c25760405162461bcd60e51b81526004016104ff90613a83565b6116ce848484846125c2565b50505050565b601181815481106116e457600080fd5b906000526020600020906005020160009150905080600001805461170790613ccf565b80601f016020809104026020016040519081016040528092919081815260200182805461173390613ccf565b80156117805780601f1061175557610100808354040283529160200191611780565b820191906000526020600020905b81548152906001019060200180831161176357829003601f168201915b505050600184015460028501546003860154600490960154949560ff808416966101009485900482169650929450909282821692041687565b60606117c482611d75565b6117e05760405162461bcd60e51b81526004016104ff906139bc565b60006117ea6125f5565b9050600081511161180a5760405180602001604052806000815250611835565b8061181484612607565b6040516020016118259291906130f6565b6040516020818303038152906040525b9392505050565b611844611d92565b6001600160a01b031661185561104e565b6001600160a01b03161461187b5760405162461bcd60e51b81526004016104ff9061393e565b3361188582610d40565b6001600160a01b0316146118ab5760405162461bcd60e51b81526004016104ff90613bab565b601181815481106118cc57634e487b7160e01b600052603260045260246000fd5b600091825260209091206004600590920201015460ff16156119005760405162461bcd60e51b81526004016104ff9061375f565b60016011828154811061192357634e487b7160e01b600052603260045260246000fd5b60009182526020822060059190910201600401805460ff1916921515929092179091556040517f5e9df96d01e5daf29f9d24dc59334e40b085ea25898717edc405511e91329ffb9190a150565b6001600160a01b03918216600090815260056020908152604080832093909416825291909152205460ff1690565b8051602081830181018051600c825292820191909301209152546001600160a01b031681565b6119cc611d92565b6001600160a01b03166119dd61104e565b6001600160a01b031614611a035760405162461bcd60e51b81526004016104ff9061393e565b6001600160a01b038116611a295760405162461bcd60e51b81526004016104ff90613489565b611a3281612396565b50565b6060611a3f611d92565b6001600160a01b0316611a5061104e565b6001600160a01b031614611a765760405162461bcd60e51b81526004016104ff9061393e565b600b546000908190611a90906001600160a01b0316610d87565b9050600080826001600160401b03811115611abb57634e487b7160e01b600052604160045260246000fd5b604051908082528060200260200182016040528015611ae4578160200160208202803683370190505b50905060005b83811015611bb857600b54611b08906001600160a01b03168261085f565b828281518110611b2857634e487b7160e01b600052603260045260246000fd5b6020026020010181815250506011828281518110611b5657634e487b7160e01b600052603260045260246000fd5b602002602001015181548110611b7c57634e487b7160e01b600052603260045260246000fd5b600091825260209091206004600590920201015460ff1615611ba65784611ba281613d0a565b9550505b80611bb081613d0a565b915050611aea565b506000846001600160401b03811115611be157634e487b7160e01b600052604160045260246000fd5b604051908082528060200260200182016040528015611c0a578160200160208202803683370190505b5090508051600014611d2c5760005b84811015611d2a576011838281518110611c4357634e487b7160e01b600052603260045260246000fd5b602002602001015181548110611c6957634e487b7160e01b600052603260045260246000fd5b600091825260209091206004600590920201015460ff1615611d18576011838281518110611ca757634e487b7160e01b600052603260045260246000fd5b602002602001015181548110611ccd57634e487b7160e01b600052603260045260246000fd5b906000526020600020906005020160020154828581518110611cff57634e487b7160e01b600052603260045260246000fd5b602090810291909101015283611d1481613d0a565b9450505b80611d2281613d0a565b915050611c19565b505b94505050505090565b60006001600160e01b031982166380ac58cd60e01b1480611d6657506001600160e01b03198216635b5e139f60e01b145b8061043e575061043e82612721565b6000908152600260205260409020546001600160a01b0316151590565b3390565b600081815260046020526040902080546001600160a01b0319166001600160a01b0384169081179091558190611dcb82610d40565b6001600160a01b03167f8c5be1e5ebec7d5bd14f71427d1e84f3dd0314c0f7b2291e5b200ac8c7c3b92560405160405180910390a45050565b60006103e882604051602001611e1a91906130da565b6040516020818303038152906040528051906020012060001c61043e9190613d25565b60006103e782604051602001611e5391906130da565b6040516020818303038152906040528051906020012060001c611e769190613d25565b61043e906001613c2a565b600081611e90846103e8613c56565b6118359190613c2a565b600081611ea78585611e81565b611eb3906103e8613c56565b611ebd9190613c2a565b949350505050565b611edf82826040518060200160405280600081525061273a565b5050565b6000611eee82611d75565b611f0a5760405162461bcd60e51b81526004016104ff90613672565b6000611f1583610d40565b9050806001600160a01b0316846001600160a01b03161480611f505750836001600160a01b0316611f45846104d8565b6001600160a01b0316145b80611ebd5750611ebd8185611970565b826001600160a01b0316611f7382610d40565b6001600160a01b031614611f995760405162461bcd60e51b81526004016104ff90613973565b6001600160a01b038216611fbf5760405162461bcd60e51b81526004016104ff90613506565b611fca83838361276d565b611fd5600082611d96565b6001600160a01b0383166000908152600360205260408120805460019290611ffe908490613c75565b90915550506001600160a01b038216600090815260036020526040812080546001929061202c908490613c2a565b909155505060008181526002602052604080822080546001600160a01b0319166001600160a01b0386811691821790925591518493918716917fddf252ad1be2c89b69c2b068fc378daa952ba7f163c4a11628f55a4df523b3ef91a4505050565b6000806000805b600b546120a9906001600160a01b0316610d87565b81101561218057600b546011906120c9906001600160a01b03168361085f565b815481106120e757634e487b7160e01b600052603260045260246000fd5b600091825260209091206004600590920201015460ff1615801561215b5750600b5460ff861690601190612124906001600160a01b03168461085f565b8154811061214257634e487b7160e01b600052603260045260246000fd5b600091825260209091206001600590920201015460ff16145b1561216e578261216a81613d0a565b9350505b8061217881613d0a565b915050612094565b508161219e5760405162461bcd60e51b81526004016104ff90613829565b6000826001600160401b038111156121c657634e487b7160e01b600052604160045260246000fd5b6040519080825280602002602001820160405280156121ef578160200160208202803683370190505b50905060005b600b5461220a906001600160a01b0316610d87565b81101561232257600b5460119061222a906001600160a01b03168361085f565b8154811061224857634e487b7160e01b600052603260045260246000fd5b600091825260209091206004600590920201015460ff161580156122bc5750600b5460ff871690601190612285906001600160a01b03168461085f565b815481106122a357634e487b7160e01b600052603260045260246000fd5b600091825260209091206001600590920201015460ff16145b1561231057600b546122d7906001600160a01b03168261085f565b8284815181106122f757634e487b7160e01b600052603260045260246000fd5b60209081029190910101528261230c81613d0a565b9350505b8061231a81613d0a565b9150506121f5565b5060008151423360135460405160200161233e93929190613158565b6040516020818303038152906040528051906020012060001c6123619190613d25565b905081818151811061238357634e487b7160e01b600052603260045260246000fd5b6020026020010151945050505050610441565b600a80546001600160a01b038381166001600160a01b0319831681179093556040519116919082907f8be0079c531659141344cd1fd0a4f28419497f9722a3daafe3b4186f6b6457e090600090a35050565b6000620f42406011838154811061240f57634e487b7160e01b600052603260045260246000fd5b90600052602060002090600502016003015461242b9190613c42565b1561243857506001610441565b506000610441565b6000806011838154811061246457634e487b7160e01b600052603260045260246000fd5b906000526020600020906005020160030154620f42406011868154811061249b57634e487b7160e01b600052603260045260246000fd5b9060005260206000209060050201600301546124b79190613c42565b6124c490620f4240613c56565b6124ce9190613c2a565b905060006012816124e2620f424085613d25565b81526020019081526020016000205460016124fd9190613c2a565b90508061250c6103e884613c42565b612518906103e8613c56565b6125229190613c2a565b95945050505050565b60016011828154811061254e57634e487b7160e01b600052603260045260246000fd5b60009182526020909120600590910201600401805460ff1916911515919091179055600b546125889033906001600160a01b031683611f60565b7ff626e9712bfc1d05519ae9d87cfe12f82248296f837942a0d818b10080ed4e4c816040516125b79190613c21565b60405180910390a150565b6125cd848484611f60565b6125d9848484846127f6565b6116ce5760405162461bcd60e51b81526004016104ff90613437565b60408051602081019091526000815290565b60608161262c57506040805180820190915260018152600360fc1b6020820152610441565b8160005b8115612656578061264081613d0a565b915061264f9050600a83613c42565b9150612630565b6000816001600160401b0381111561267e57634e487b7160e01b600052604160045260246000fd5b6040519080825280601f01601f1916602001820160405280156126a8576020820181803683370190505b5090505b8415611ebd576126bd600183613c75565b91506126ca600a86613d25565b6126d5906030613c2a565b60f81b8183815181106126f857634e487b7160e01b600052603260045260246000fd5b60200101906001600160f81b031916908160001a90535061271a600a86613c42565b94506126ac565b6001600160e01b031981166301ffc9a760e01b14919050565b6127448383612911565b61275160008484846127f6565b6105b75760405162461bcd60e51b81526004016104ff90613437565b6127788383836105b7565b6001600160a01b0383166127945761278f816129f0565b6127b7565b816001600160a01b0316836001600160a01b0316146127b7576127b78382612a34565b6001600160a01b0382166127d3576127ce81612ad1565b6105b7565b826001600160a01b0316826001600160a01b0316146105b7576105b78282612baa565b600061280a846001600160a01b0316612bee565b1561290657836001600160a01b031663150b7a02612826611d92565b8786866040518563ffffffff1660e01b81526004016128489493929190613194565b602060405180830381600087803b15801561286257600080fd5b505af1925050508015612892575060408051601f3d908101601f1916820190925261288f91810190612f12565b60015b6128ec573d8080156128c0576040519150601f19603f3d011682016040523d82523d6000602084013e6128c5565b606091505b5080516128e45760405162461bcd60e51b81526004016104ff90613437565b805181602001fd5b6001600160e01b031916630a85bd0160e11b149050611ebd565b506001949350505050565b6001600160a01b0382166129375760405162461bcd60e51b81526004016104ff90613886565b61294081611d75565b1561295d5760405162461bcd60e51b81526004016104ff906134cf565b6129696000838361276d565b6001600160a01b0382166000908152600360205260408120805460019290612992908490613c2a565b909155505060008181526002602052604080822080546001600160a01b0319166001600160a01b03861690811790915590518392907fddf252ad1be2c89b69c2b068fc378daa952ba7f163c4a11628f55a4df523b3ef908290a45050565b600880546000838152600960205260408120829055600182018355919091527ff3f7a9fe364faab93b216da50a3214154f22a0a2b415b23a84c8169e8b636ee30155565b60006001612a4184610d87565b612a4b9190613c75565b600083815260076020526040902054909150808214612a9e576001600160a01b03841660009081526006602090815260408083208584528252808320548484528184208190558352600790915290208190555b5060009182526007602090815260408084208490556001600160a01b039094168352600681528383209183525290812055565b600854600090612ae390600190613c75565b60008381526009602052604081205460088054939450909284908110612b1957634e487b7160e01b600052603260045260246000fd5b906000526020600020015490508060088381548110612b4857634e487b7160e01b600052603260045260246000fd5b6000918252602080832090910192909255828152600990915260408082208490558582528120556008805480612b8e57634e487b7160e01b600052603160045260246000fd5b6001900381819060005260206000200160009055905550505050565b6000612bb583610d87565b6001600160a01b039093166000908152600660209081526040808320868452825280832085905593825260079052919091209190915550565b3b151590565b828054612c0090613ccf565b90600052602060002090601f016020900481019282612c225760008555612c68565b82601f10612c3b57805160ff1916838001178555612c68565b82800160010185558215612c68579182015b82811115612c68578251825591602001919060010190612c4d565b50612c74929150612c78565b5090565b5b80821115612c745760008155600101612c79565b60006001600160401b0380841115612ca757612ca7613d65565b604051601f8501601f19908116603f01168101908282118183101715612ccf57612ccf613d65565b81604052809350858152868686011115612ce857600080fd5b858560208301376000602087830101525050509392505050565b80356001600160a01b038116811461044157600080fd5b600082601f830112612d29578081fd5b61183583833560208501612c8d565b803560ff8116811461044157600080fd5b600060208284031215612d5a578081fd5b61183582612d02565b60008060408385031215612d75578081fd5b612d7e83612d02565b9150612d8c60208401612d02565b90509250929050565b600080600060608486031215612da9578081fd5b612db284612d02565b9250612dc060208501612d02565b9150604084013590509250925092565b60008060008060808587031215612de5578081fd5b612dee85612d02565b9350612dfc60208601612d02565b92506040850135915060608501356001600160401b03811115612e1d578182fd5b8501601f81018713612e2d578182fd5b612e3c87823560208401612c8d565b91505092959194509250565b60008060408385031215612e5a578182fd5b612e6383612d02565b915060208301358015158114612e77578182fd5b809150509250929050565b60008060408385031215612e94578182fd5b612e9d83612d02565b915060208301356001600160401b03811115612eb7578182fd5b612ec385828601612d19565b9150509250929050565b60008060408385031215612edf578182fd5b612ee883612d02565b946020939093013593505050565b600060208284031215612f07578081fd5b813561183581613d7b565b600060208284031215612f23578081fd5b815161183581613d7b565b600060208284031215612f3f578081fd5b81356001600160401b03811115612f54578182fd5b611ebd84828501612d19565b600080600060608486031215612f74578283fd5b83356001600160401b03811115612f89578384fd5b612f9586828701612d19565b935050612fa460208501612d38565b9150612fb260408501612d38565b90509250925092565b600060208284031215612fcc578081fd5b5035919050565b600080600060608486031215612fe7578283fd5b8335925060208401356001600160401b03811115613003578283fd5b61300f86828701612d19565b925050612fb260408501612d38565b60008060408385031215613030578182fd5b50508035926020909101359150565b60008151808452613057816020860160208601613c8c565b601f01601f19169290920160200192915050565b6000815461307881613ccf565b6001828116801561309057600181146130a1576130d0565b60ff198416875282870194506130d0565b8560005260208060002060005b858110156130c75781548a8201529084019082016130ae565b50505082870194505b5050505092915050565b600082516130ec818460208701613c8c565b9190910192915050565b60008351613108818460208801613c8c565b83519083019061311c818360208801613c8c565b01949350505050565b6000613131828661306b565b8451613141818360208901613c8c565b61314d8183018661306b565b979650505050505050565b92835260609190911b6bffffffffffffffffffffffff19166020830152603482015260540190565b6001600160a01b0391909116815260200190565b6001600160a01b03858116825284166020820152604081018390526080606082018190526000906131c79083018461303f565b9695505050505050565b6001600160a01b0383168152604060208201819052600090611ebd9083018461303f565b6020808252825182820181905260009190848201906040850190845b8181101561322d57835183529284019291840191600101613211565b50909695505050505050565b901515815260200190565b600060208252611835602083018461303f565b60006080825261326a608083018761303f565b60ff958616602084015293909416604082015290151560609091015292915050565b600060e0825261329f60e083018a61303f565b60ff988916602084015296909716604082015260608101949094526080840192909252151560a0830152151560c09091015292915050565b600060208083528184546132ea81613ccf565b8084870152604060018084166000811461330b576001811461331f5761334a565b60ff1985168984015260608901955061334a565b898852868820885b858110156133425781548b8201860152908301908801613327565b8a0184019650505b509398975050505050505050565b6020808252601890820152774e6f6e20667573696f6e6e61626c6520656c656d656e747360401b604082015260600190565b602080825260189082015277436f6d62696e6174696f6e206e6f7420706f737369626c6560401b604082015260600190565b6020808252601690820152752737ba1030903932b3b4ba32b932b210383630bcb2b960511b604082015260600190565b6020808252602b908201527f455243373231456e756d657261626c653a206f776e657220696e646578206f7560408201526a74206f6620626f756e647360a81b606082015260800190565b60208082526032908201527f4552433732313a207472616e7366657220746f206e6f6e20455243373231526560408201527131b2b4bb32b91034b6b83632b6b2b73a32b960711b606082015260800190565b60208082526026908201527f4f776e61626c653a206e6577206f776e657220697320746865207a65726f206160408201526564647265737360d01b606082015260800190565b6020808252601c908201527f4552433732313a20746f6b656e20616c7265616479206d696e74656400000000604082015260600190565b60208082526024908201527f4552433732313a207472616e7366657220746f20746865207a65726f206164646040820152637265737360e01b606082015260800190565b60208082526019908201527822a9219b99189d1030b8383937bb32903a379031b0b63632b960391b604082015260600190565b6020808252601990820152781c1b19585cd9481cd95b1958dd08184818dbdb9d1a5b995b9d603a1b604082015260600190565b6020808252602a908201527f796f7520617265206e6f7420617574686f72697a656420746f207365742074686040820152691a5cc81858d8dbdd5b9d60b21b606082015260800190565b60208082526021908201527f7468697320706c6179657220697320616c7265616479207265676973746572656040820152601960fa1b606082015260800190565b6020808252601c908201527f706c656173652073656c65637420612074797065206f66206974656d00000000604082015260600190565b6020808252602c908201527f4552433732313a206f70657261746f7220717565727920666f72206e6f6e657860408201526b34b9ba32b73a103a37b5b2b760a11b606082015260800190565b60208082526038908201527f4552433732313a20617070726f76652063616c6c6572206973206e6f74206f776040820152771b995c881b9bdc88185c1c1c9bdd995908199bdc88185b1b60421b606082015260800190565b60208082526029908201527f796f7520617265206e6f7420617574686f72697a656420746f20757064617465604082015268103090383630bcb2b960b91b606082015260800190565b6020808252601c908201527f4572726f72202c20746f6b656e20616c7265616479206c6f636b656400000000604082015260600190565b6020808252602a908201527f4552433732313a2062616c616e636520717565727920666f7220746865207a65604082015269726f206164647265737360b01b606082015260800190565b60208082526029908201527f4552433732313a206f776e657220717565727920666f72206e6f6e657869737460408201526832b73a103a37b5b2b760b91b606082015260800190565b6020808252603a908201527f5468657265206973206e6f7420656e6f756768206974656d20617661696c626160408201527f6c652c20706c6561736520636f6d65206261636b206c61746572000000000000606082015260800190565b6020808252818101527f4552433732313a206d696e7420746f20746865207a65726f2061646472657373604082015260600190565b6020808252601a908201527f596f752068617665206e6f207265776172647320746f20676574000000000000604082015260600190565b6020808252602c908201527f4552433732313a20617070726f76656420717565727920666f72206e6f6e657860408201526b34b9ba32b73a103a37b5b2b760a11b606082015260800190565b6020808252818101527f4f776e61626c653a2063616c6c6572206973206e6f7420746865206f776e6572604082015260600190565b60208082526029908201527f4552433732313a207472616e73666572206f6620746f6b656e2074686174206960408201526839903737ba1037bbb760b91b606082015260800190565b6020808252602f908201527f4552433732314d657461646174613a2055524920717565727920666f72206e6f60408201526e3732bc34b9ba32b73a103a37b5b2b760891b606082015260800190565b60208082526021908201527f4552433732313a20617070726f76616c20746f2063757272656e74206f776e656040820152603960f91b606082015260800190565b6020808252601b908201527f4e6f6e6520617661696c61626c65206974656d20666f72206e6f770000000000604082015260600190565b60208082526031908201527f4552433732313a207472616e736665722063616c6c6572206973206e6f74206f6040820152701ddb995c881b9bdc88185c1c1c9bdd9959607a1b606082015260800190565b6020808252601e908201527f4572726f72202c20746f6b656e20616c726561647920756e6c6f636b65640000604082015260600190565b60208082526034908201527f706c656173652073657420666972737420616e20457468657265756d206164646040820152733932b9b9903337b9103a3434b990383630bcb2b960611b606082015260800190565b6020808252602c908201527f455243373231456e756d657261626c653a20676c6f62616c20696e646578206f60408201526b7574206f6620626f756e647360a01b606082015260800190565b60208082526023908201527f4572726f72202c20746f6b656e206f776e6564206f72206e6f6e206578697374604082015262195b9d60ea1b606082015260800190565b6020808252601990820152784e6f7420746865206f776e6572206f6620746865206974656d60381b604082015260600190565b90815260200190565b60008219821115613c3d57613c3d613d39565b500190565b600082613c5157613c51613d4f565b500490565b6000816000190483118215151615613c7057613c70613d39565b500290565b600082821015613c8757613c87613d39565b500390565b60005b83811015613ca7578181015183820152602001613c8f565b838111156116ce5750506000910152565b600081613cc757613cc7613d39565b506000190190565b600281046001821680613ce357607f821691505b60208210811415613d0457634e487b7160e01b600052602260045260246000fd5b50919050565b6000600019821415613d1e57613d1e613d39565b5060010190565b600082613d3457613d34613d4f565b500690565b634e487b7160e01b600052601160045260246000fd5b634e487b7160e01b600052601260045260246000fd5b634e487b7160e01b600052604160045260246000fd5b6001600160e01b031981168114611a3257600080fdfea2646970667358221220c385a6752d086193bab640a639a0f567e6447480b44b17887bf98cbc6e966a3564736f6c63430008010033",
  "immutableReferences": {},
  "source": "// SPDX-License-Identifier: GPL-3.0\r\n\r\npragma solidity 0.8.1;\r\n\r\nimport \"./fusion.sol\";\r\n\r\n/** \r\n * @title Lock and unlock items\r\n * @dev This contract allows the administrator to unlock or lock items in the database\r\n */\r\n \r\ncontract unlockItems is fusion { \r\n\r\n    event newItemLock();\r\n    event newItemUnlock();\r\n \r\n    ///@dev Gives to the administrator a list of tokenId locked\r\n    function getLockedItems() onlyOwner public view returns(uint[] memory) {\r\n       // require (balanceOf(_administrator) != 0, \"No more items in the database\");\r\n        \r\n        uint sizeLocked;  \r\n        uint maxSize = balanceOf(_administrator);\r\n        uint count;\r\n        uint[] memory ownedItems = new uint[](maxSize);\r\n        \r\n    \r\n        for (uint i = 0; i < maxSize; i++ ){\r\n          ownedItems[i] = tokenOfOwnerByIndex(_administrator,i);\r\n          if (items[ownedItems[i]].locked){\r\n            sizeLocked ++;\r\n          }\r\n        }\r\n        \r\n        uint[] memory lockedItems = new uint[](sizeLocked);\r\n    \r\n        if (lockedItems.length != 0){\r\n          for(uint i = 0; i < maxSize; i++){\r\n            if(items[ownedItems[i]].locked){\r\n              lockedItems[count] = items[ownedItems[i]].tokenId;\r\n              count ++;\r\n            }\r\n          }\r\n        }\r\n        return lockedItems;\r\n      }\r\n\r\n    ///@dev Administrator unlocks items\r\n    function unlock(uint _Id) public onlyOwner {\r\n        require (ownerOf(_Id) == msg.sender, \"Error , token owned or non existent\");\r\n        require (items[_Id].locked == true, \"Error , token already unlocked\");\r\n        items[_Id].locked = false;\r\n        emit newItemUnlock();\r\n    }\r\n    \r\n    ///@dev Administrator locks items \r\n    function lock(uint _Id) public onlyOwner {\r\n        require (ownerOf(_Id) == msg.sender, \"Error , token owned or non existent\");\r\n        require (items[_Id].locked == false, \"Error , token already locked\");\r\n        items[_Id].locked = true;\r\n        emit newItemLock();\r\n    }\r\n}",
  "sourcePath": "C:\\Users\\fboud\\OneDrive\\Documents\\Alyra\\projetFinal\\contracts\\unlockItems.sol",
  "compiler": {
    "name": "solc",
    "version": "0.8.1+commit.df193b15.Emscripten.clang"
  },
  "schemaVersion": "3.4.2",
  "updatedAt": "2021-08-07T17:30:06.184Z",
  "devdoc": {
    "details": "This contract allows the administrator to unlock or lock items in the database",
    "kind": "dev",
    "methods": {
      "approve(address,uint256)": {
        "details": "See {IERC721-approve}."
      },
      "balanceOf(address)": {
        "details": "See {IERC721-balanceOf}."
      },
      "createItem(uint256,string,uint8)": {
        "details": "Function allowing to create items. Only the adminstrator can make one"
      },
      "fusionItem(uint256,uint256)": {
        "details": "Make the fusion between two items, create the composition, the new name, continent and tokenId"
      },
      "getApproved(uint256)": {
        "details": "See {IERC721-getApproved}."
      },
      "getLockedItems()": {
        "details": "Gives to the administrator a list of tokenId locked"
      },
      "getReward()": {
        "details": "Transform the reward as a NFT"
      },
      "isApprovedForAll(address,address)": {
        "details": "See {IERC721-isApprovedForAll}."
      },
      "lock(uint256)": {
        "details": "Administrator locks items "
      },
      "name()": {
        "details": "See {IERC721Metadata-name}."
      },
      "owner()": {
        "details": "Returns the address of the current owner."
      },
      "ownerOf(uint256)": {
        "details": "See {IERC721-ownerOf}."
      },
      "renounceOwnership()": {
        "details": "Leaves the contract without owner. It will not be possible to call `onlyOwner` functions anymore. Can only be called by the current owner. NOTE: Renouncing ownership will leave the contract without an owner, thereby removing any functionality that is only available to the owner."
      },
      "safeTransferFrom(address,address,uint256)": {
        "details": "See {IERC721-safeTransferFrom}."
      },
      "safeTransferFrom(address,address,uint256,bytes)": {
        "details": "See {IERC721-safeTransferFrom}."
      },
      "setApprovalForAll(address,bool)": {
        "details": "See {IERC721-setApprovalForAll}."
      },
      "setMultiversePlayer(address,string)": {
        "details": "link a login with a player. The login must be the exact same one than the one used in POW"
      },
      "supportsInterface(bytes4)": {
        "details": "See {IERC165-supportsInterface}."
      },
      "symbol()": {
        "details": "See {IERC721Metadata-symbol}."
      },
      "tokenByIndex(uint256)": {
        "details": "See {IERC721Enumerable-tokenByIndex}."
      },
      "tokenOfOwnerByIndex(address,uint256)": {
        "details": "See {IERC721Enumerable-tokenOfOwnerByIndex}."
      },
      "tokenURI(uint256)": {
        "details": "See {IERC721Metadata-tokenURI}."
      },
      "totalSupply()": {
        "details": "See {IERC721Enumerable-totalSupply}."
      },
      "transferFrom(address,address,uint256)": {
        "details": "See {IERC721-transferFrom}."
      },
      "transferOwnership(address)": {
        "details": "Transfers ownership of the contract to a new account (`newOwner`). Can only be called by the current owner."
      },
      "unlock(uint256)": {
        "details": "Administrator unlocks items"
      },
      "updateMultiversePlayer(string,uint8,uint8)": {
        "details": "Update the data of a registered player. The adnministrator Only can set this. In the future, the oracle will do that"
      }
    },
    "title": "Lock and unlock items",
    "version": 1
  },
  "userdoc": {
    "kind": "user",
    "methods": {},
    "version": 1
  }
}